{
  "address": "0xD3126ad1ec8Efb36B8fd79dB562626cbdec115aF",
  "abi": [
    {
      "anonymous": false,
      "inputs": [
        {
          "indexed": false,
          "internalType": "uint256",
          "name": "_lotteryId",
          "type": "uint256"
        }
      ],
      "name": "LotteryCreated",
      "type": "event"
    },
    {
      "anonymous": false,
      "inputs": [
        {
          "indexed": true,
          "internalType": "address",
          "name": "previousOwner",
          "type": "address"
        },
        {
          "indexed": true,
          "internalType": "address",
          "name": "newOwner",
          "type": "address"
        }
      ],
      "name": "OwnershipTransferred",
      "type": "event"
    },
    {
      "inputs": [
        {
          "internalType": "uint256",
          "name": "_ticketSize",
          "type": "uint256"
        }
      ],
      "name": "costToBuyTickets",
      "outputs": [
        {
          "internalType": "uint256",
          "name": "",
          "type": "uint256"
        }
      ],
      "stateMutability": "view",
      "type": "function"
    },
    {
      "inputs": [
        {
          "internalType": "address",
          "name": "_nft",
          "type": "address"
        },
        {
          "internalType": "uint256",
          "name": "_tokenId",
          "type": "uint256"
        },
        {
          "internalType": "uint256",
          "name": "_lotterySize",
          "type": "uint256"
        },
        {
          "internalType": "uint256",
          "name": "ticketPrice",
          "type": "uint256"
        },
        {
          "internalType": "uint256[]",
          "name": "distribution",
          "type": "uint256[]"
        },
        {
          "internalType": "uint256",
          "name": "duration",
          "type": "uint256"
        }
      ],
      "name": "createNewLotto",
      "outputs": [],
      "stateMutability": "nonpayable",
      "type": "function"
    },
    {
      "inputs": [],
      "name": "getCurrentLotto",
      "outputs": [
        {
          "internalType": "address",
          "name": "",
          "type": "address"
        }
      ],
      "stateMutability": "view",
      "type": "function"
    },
    {
      "inputs": [],
      "name": "getCurrentLottoryId",
      "outputs": [
        {
          "internalType": "uint256",
          "name": "",
          "type": "uint256"
        }
      ],
      "stateMutability": "view",
      "type": "function"
    },
    {
      "inputs": [
        {
          "internalType": "uint256",
          "name": "_lotteryId",
          "type": "uint256"
        }
      ],
      "name": "getLotto",
      "outputs": [
        {
          "internalType": "address",
          "name": "",
          "type": "address"
        }
      ],
      "stateMutability": "view",
      "type": "function"
    },
    {
      "inputs": [
        {
          "internalType": "address",
          "name": "to",
          "type": "address"
        }
      ],
      "name": "getRewardAmount",
      "outputs": [
        {
          "internalType": "uint256",
          "name": "",
          "type": "uint256"
        }
      ],
      "stateMutability": "view",
      "type": "function"
    },
    {
      "inputs": [
        {
          "internalType": "address",
          "name": "to",
          "type": "address"
        }
      ],
      "name": "getRewardNFT",
      "outputs": [
        {
          "internalType": "bool",
          "name": "",
          "type": "bool"
        }
      ],
      "stateMutability": "view",
      "type": "function"
    },
    {
      "inputs": [],
      "name": "getWinningNumbers",
      "outputs": [
        {
          "internalType": "uint256[]",
          "name": "",
          "type": "uint256[]"
        }
      ],
      "stateMutability": "view",
      "type": "function"
    },
    {
      "inputs": [
        {
          "internalType": "address",
          "name": "_ruby",
          "type": "address"
        },
        {
          "internalType": "address",
          "name": "_randomNumberGenerator",
          "type": "address"
        }
      ],
      "name": "initialize",
      "outputs": [],
      "stateMutability": "nonpayable",
      "type": "function"
    },
    {
      "inputs": [],
      "name": "owner",
      "outputs": [
        {
          "internalType": "address",
          "name": "",
          "type": "address"
        }
      ],
      "stateMutability": "view",
      "type": "function"
    },
    {
      "inputs": [],
      "name": "renounceOwnership",
      "outputs": [],
      "stateMutability": "nonpayable",
      "type": "function"
    },
    {
      "inputs": [
        {
          "internalType": "address",
          "name": "_RNG",
          "type": "address"
        }
      ],
      "name": "setRNG",
      "outputs": [],
      "stateMutability": "nonpayable",
      "type": "function"
    },
    {
      "inputs": [
        {
          "internalType": "address",
          "name": "_ruby",
          "type": "address"
        }
      ],
      "name": "setRuby",
      "outputs": [],
      "stateMutability": "nonpayable",
      "type": "function"
    },
    {
      "inputs": [
        {
          "internalType": "address",
          "name": "newOwner",
          "type": "address"
        }
      ],
      "name": "transferOwnership",
      "outputs": [],
      "stateMutability": "nonpayable",
      "type": "function"
    }
  ],
  "transactionHash": "0x1c2b85eba5d6e524ad5eb53c17eb575f5fbf75cc7804a20e21049c37c4753684",
  "args": [],
  "numDeployments": 1,
  "solcInputHash": "7aa7e42edecf6f63eb36e406f51b9e04",
  "bytecode": "0x608060405234801561001057600080fd5b50613741806100206000396000f3fe60806040523480156200001157600080fd5b5060043610620000ff5760003560e01c8063715018a611620000995780638da5cb5b116200006f5780638da5cb5b1462000344578063b661c637146200034e578063d2941c7f1462000358578063f2fde38b146200037857620000ff565b8063715018a614620002b557806384350e1d14620002bf578063868ca68e146200031b57620000ff565b806344a040f511620000db57806344a040f514620001a8578063485cc95514620001e357806363910e0d14620002145780636a8dfd3a14620002ab57620000ff565b80621ace9314620001045780630c65747814620001415780633b84edbd146200017d575b600080fd5b6200012d600480360360208110156200011c57600080fd5b50356001600160a01b0316620003a1565b604080519115158252519081900360200190f35b62000161600480360360208110156200015957600080fd5b50356200042d565b604080516001600160a01b039092168252519081900360200190f35b620001a6600480360360208110156200019557600080fd5b50356001600160a01b031662000448565b005b620001d160048036036020811015620001c057600080fd5b50356001600160a01b031662000519565b60408051918252519081900360200190f35b620001a660048036036040811015620001fb57600080fd5b506001600160a01b038135811691602001351662000572565b620001a6600480360360c08110156200022c57600080fd5b6001600160a01b038235169160208101359160408201359160608101359181019060a0810160808201356401000000008111156200026957600080fd5b8201836020820111156200027c57600080fd5b803590602001918460208302840111640100000000831117156200029f57600080fd5b919350915035620006e6565b6200016162000b22565b620001a662000b40565b620002c962000bf2565b60408051602080825283518183015283519192839290830191858101910280838360005b8381101562000307578181015183820152602001620002ed565b505050509050019250505060405180910390f35b620001a6600480360360208110156200033357600080fd5b50356001600160a01b031662000d0c565b6200016162000ddd565b620001d162000dec565b620001d1600480360360208110156200037057600080fd5b503562000df2565b620001a6600480360360208110156200039057600080fd5b50356001600160a01b031662000e42565b6000620003ad62000b22565b6001600160a01b0316621ace93836040518263ffffffff1660e01b815260040180826001600160a01b0316815260200191505060206040518083038186803b158015620003f957600080fd5b505afa1580156200040e573d6000803e3d6000fd5b505050506040513d60208110156200042557600080fd5b505192915050565b6000908152606760205260409020546001600160a01b031690565b6200045262000f4d565b6001600160a01b03166200046562000ddd565b6001600160a01b031614620004b0576040805162461bcd60e51b815260206004820181905260248201526000805160206200363d833981519152604482015290519081900360640190fd5b6001600160a01b038116620004f75760405162461bcd60e51b8152600401808060200182810382526027815260200180620036ac6027913960400191505060405180910390fd5b606680546001600160a01b0319166001600160a01b0392909216919091179055565b60006200052562000b22565b6001600160a01b03166344a040f5836040518263ffffffff1660e01b815260040180826001600160a01b0316815260200191505060206040518083038186803b158015620003f957600080fd5b600054610100900460ff16806200058e57506200058e62000f51565b806200059d575060005460ff16155b620005da5760405162461bcd60e51b815260040180806020018281038252602e8152602001806200359c602e913960400191505060405180910390fd5b600054610100900460ff1615801562000606576000805460ff1961ff0019909116610100171660011790555b6001600160a01b0383166200064d5760405162461bcd60e51b81526004018080602001828103825260288152602001806200365d6028913960400191505060405180910390fd5b6001600160a01b038216620006945760405162461bcd60e51b8152600401808060200182810382526039815260200180620036d36039913960400191505060405180910390fd5b606580546001600160a01b038086166001600160a01b0319928316179092556066805492851692909116919091179055620006ce62000f64565b8015620006e1576000805461ff00191690555b505050565b620006f062000f4d565b6001600160a01b03166200070362000ddd565b6001600160a01b0316146200074e576040805162461bcd60e51b815260206004820181905260248201526000805160206200363d833981519152604482015290519081900360640190fd5b6001600160a01b038716620007955760405162461bcd60e51b8152600401808060200182810382526027815260200180620035f26027913960400191505060405180910390fd5b6002821015620007d75760405162461bcd60e51b8152600401808060200182810382526024815260200180620036196024913960400191505060405180910390fd5b600b821115620008195760405162461bcd60e51b8152600401808060200182810382526024815260200180620036196024913960400191505060405180910390fd5b336001600160a01b0316876001600160a01b0316636352211e886040518263ffffffff1660e01b81526004018082815260200191505060206040518083038186803b1580156200086857600080fd5b505afa1580156200087d573d6000803e3d6000fd5b505050506040513d60208110156200089457600080fd5b50516001600160a01b031614620008dd5760405162461bcd60e51b8152600401808060200182810382526027815260200180620036856027913960400191505060405180910390fd5b60688054600101905560655460665460405130926001600160a01b03908116928b928b928b928b928b928b928b929116906200091990620011d3565b808b6001600160a01b031681526020018a6001600160a01b03168152602001896001600160a01b0316815260200188815260200187815260200186815260200180602001848152602001836001600160a01b0316815260200182810382528686828181526020019250602002808284376000838201819052604051601f909201601f19169093018190039e509c50909a5050505050505050505050f080158015620009c8573d6000803e3d6000fd5b506068805460009081526067602052604080822080546001600160a01b0319166001600160a01b039586161790559154815220541663f2fde38b62000a0c62000ddd565b6040518263ffffffff1660e01b815260040180826001600160a01b03168152602001915050600060405180830381600087803b15801562000a4c57600080fd5b505af115801562000a61573d6000803e3d6000fd5b50506068546000908152606760205260408082205481516323b872dd60e01b81523360048201526001600160a01b039182166024820152604481018c90529151908c1694506323b872dd93506064808301939282900301818387803b15801562000aca57600080fd5b505af115801562000adf573d6000803e3d6000fd5b505060685460408051918252517f9e0023bebcc752baaa41057318405b5a6a8e9c6372b519717cfdf238e5caa7959350908190036020019150a150505050505050565b6068546000908152606760205260409020546001600160a01b031690565b62000b4a62000f4d565b6001600160a01b031662000b5d62000ddd565b6001600160a01b03161462000ba8576040805162461bcd60e51b815260206004820181905260248201526000805160206200363d833981519152604482015290519081900360640190fd5b6033546040516000916001600160a01b0316907f8be0079c531659141344cd1fd0a4f28419497f9722a3daafe3b4186f6b6457e0908390a3603380546001600160a01b0319169055565b606062000bfe62000b22565b6001600160a01b03166384350e1d6040518163ffffffff1660e01b815260040160006040518083038186803b15801562000c3757600080fd5b505afa15801562000c4c573d6000803e3d6000fd5b505050506040513d6000823e601f3d908101601f19168201604052602081101562000c7657600080fd5b810190808051604051939291908464010000000082111562000c9757600080fd5b90830190602082018581111562000cad57600080fd5b825186602082028301116401000000008211171562000ccb57600080fd5b82525081516020918201928201910280838360005b8381101562000cfa57818101518382015260200162000ce0565b50505050905001604052505050905090565b62000d1662000f4d565b6001600160a01b031662000d2962000ddd565b6001600160a01b03161462000d74576040805162461bcd60e51b815260206004820181905260248201526000805160206200363d833981519152604482015290519081900360640190fd5b6001600160a01b03811662000dbb5760405162461bcd60e51b8152600401808060200182810382526028815260200180620035ca6028913960400191505060405180910390fd5b606580546001600160a01b0319166001600160a01b0392909216919091179055565b6033546001600160a01b031690565b60685490565b600062000dfe62000b22565b6001600160a01b031663d2941c7f836040518263ffffffff1660e01b81526004018082815260200191505060206040518083038186803b158015620003f957600080fd5b62000e4c62000f4d565b6001600160a01b031662000e5f62000ddd565b6001600160a01b03161462000eaa576040805162461bcd60e51b815260206004820181905260248201526000805160206200363d833981519152604482015290519081900360640190fd5b6001600160a01b03811662000ef15760405162461bcd60e51b8152600401808060200182810382526026815260200180620035766026913960400191505060405180910390fd5b6033546040516001600160a01b038084169216907f8be0079c531659141344cd1fd0a4f28419497f9722a3daafe3b4186f6b6457e090600090a3603380546001600160a01b0319166001600160a01b0392909216919091179055565b3390565b600062000f5e3062001022565b15905090565b600054610100900460ff168062000f80575062000f8062000f51565b8062000f8f575060005460ff16155b62000fcc5760405162461bcd60e51b815260040180806020018281038252602e8152602001806200359c602e913960400191505060405180910390fd5b600054610100900460ff1615801562000ff8576000805460ff1961ff0019909116610100171660011790555b6200100262001028565b6200100c620010d0565b80156200101f576000805461ff00191690555b50565b3b151590565b600054610100900460ff16806200104457506200104462000f51565b8062001053575060005460ff16155b620010905760405162461bcd60e51b815260040180806020018281038252602e8152602001806200359c602e913960400191505060405180910390fd5b600054610100900460ff161580156200100c576000805460ff1961ff00199091166101001716600117905580156200101f576000805461ff001916905550565b600054610100900460ff1680620010ec5750620010ec62000f51565b80620010fb575060005460ff16155b620011385760405162461bcd60e51b815260040180806020018281038252602e8152602001806200359c602e913960400191505060405180910390fd5b600054610100900460ff1615801562001164576000805460ff1961ff0019909116610100171660011790555b60006200117062000f4d565b603380546001600160a01b0319166001600160a01b038316908117909155604051919250906000907f8be0079c531659141344cd1fd0a4f28419497f9722a3daafe3b4186f6b6457e0908290a35080156200101f576000805461ff001916905550565b61239480620011e28339019056fe60806040523480156200001157600080fd5b50604051620023943803806200239483398181016040526101208110156200003857600080fd5b815160208301516040808501516060860151608087015160a088015160c089018051955197999698949793969295919483019291846401000000008211156200008057600080fd5b9083019060208201858111156200009657600080fd5b8251866020820283011164010000000082111715620000b457600080fd5b82525081516020918201928201910280838360005b83811015620000e3578181015183820152602001620000c9565b505050509190910160409081526020830151920151919350909150600090506200010c6200046e565b600080546001600160a01b0319166001600160a01b0383169081178255604051929350917f8be0079c531659141344cd1fd0a4f28419497f9722a3daafe3b4186f6b6457e0908290a3506000805460ff60a01b191690556001600160a01b038816620001aa5760405162461bcd60e51b8152600401808060200182810382526021815260200180620023736021913960400191505060405180910390fd5b6001600160a01b038916620001f15760405162461bcd60e51b8152600401808060200182810382526024815260200180620023286024913960400191505060405180910390fd5b6001600160a01b0387166200024d576040805162461bcd60e51b815260206004820181905260248201527f4c6f74746572793a204e66742063616e6e6f7420626520302061646472657373604482015290519081900360640190fd5b6001600160a01b038116620002945760405162461bcd60e51b8152600401808060200182810382526034815260200180620022f46034913960400191505060405180910390fd5b600283511015620002ec576040805162461bcd60e51b815260206004820152601d60248201527f4c6f74746572793a20496e76616c696420646973747269627574696f6e000000604482015290519081900360640190fd5b8251600b101562000344576040805162461bcd60e51b815260206004820152601d60248201527f4c6f74746572793a20496e76616c696420646973747269627574696f6e000000604482015290519081900360640190fd5b8251600019016009556000805b84518110156200039457620003898582815181106200036c57fe5b6020026020010151836200047260201b620015941790919060201c565b915060010162000351565b5080606414620003d65760405162461bcd60e51b81526004018080602001828103825260278152602001806200234c6027913960400191505060405180910390fd5b6001601181905580546001600160a01b03808d166001600160a01b031992831617909255600280548c84169083161790556003805485841690831617905560048054928b16929091169190911790556005879055600c85905560088690556200043e620004d4565b6006819055830160075583516200045d90600d906020870190620004d8565b50505050505050505050506200053f565b3390565b600082820183811015620004cd576040805162461bcd60e51b815260206004820152601b60248201527f536166654d6174683a206164646974696f6e206f766572666c6f770000000000604482015290519081900360640190fd5b9392505050565b4290565b82805482825590600052602060002090810192821562000516579160200282015b8281111562000516578251825591602001919060010190620004f9565b506200052492915062000528565b5090565b5b8082111562000524576000815560010162000529565b611da5806200054f6000396000f3fe608060405234801561001057600080fd5b50600436106101725760003560e01c80635edc958d116100de5780638456cb5911610097578063b88a802f11610071578063b88a802f146103bb578063c01f8b5f146103c3578063d2941c7f146103e0578063f2fde38b146103fd57610172565b80638456cb59146103875780638da5cb5b1461038f578063932eb678146103b357610172565b80635edc958d14610357578063601dd0e51461035f578063608620aa14610367578063715018a61461036f5780637420901c1461037757806384350e1d1461037f57610172565b80633f4ba83a116101305780633f4ba83a146102f457806344a040f5146102fc578063477601b8146103225780634a66ae271461032a5780635659f582146103475780635c975abb1461034f57610172565b80621ace93146101775780630ad182bc146101b15780630b2e66911461022757806315981650146102a05780632e1a7d4d146102bd578063329398e4146102da575b600080fd5b61019d6004803603602081101561018d57600080fd5b50356001600160a01b0316610423565b604080519115158252519081900360200190f35b6101d7600480360360208110156101c757600080fd5b50356001600160a01b03166104c0565b60408051602080825283518183015283519192839290830191858101910280838360005b838110156102135781810151838201526020016101fb565b505050509050019250505060405180910390f35b61029e6004803603604081101561023d57600080fd5b8135919081019060408101602082013564010000000081111561025f57600080fd5b82018360208201111561027157600080fd5b8035906020019184602083028401116401000000008311171561029357600080fd5b50909250905061052c565b005b61029e600480360360208110156102b657600080fd5b50356109a3565b61029e600480360360208110156102d357600080fd5b5035610a0a565b6102e2610ac8565b60408051918252519081900360200190f35b61029e610ace565b6102e26004803603602081101561031257600080fd5b50356001600160a01b0316610b3a565b6102e2610c25565b61029e6004803603602081101561034057600080fd5b5035610c2b565b6101d7610c92565b61019d610cea565b6102e2610cfa565b6102e2610d00565b61029e610d06565b61029e610fbe565b6102e261106a565b6101d7611070565b61029e611109565b610397611173565b604080516001600160a01b039092168252519081900360200190f35b610397611182565b61029e611191565b61029e600480360360208110156103d957600080fd5b5035611424565b6102e2600480360360208110156103f657600080fd5b503561148b565b61029e6004803603602081101561041357600080fd5b50356001600160a01b0316611492565b600954600b54600091146104685760405162461bcd60e51b8152600401808060200182810382526027815260200180611c306027913960400191505060405180910390fd5b816001600160a01b0316600e6000600b60008154811061048457fe5b600091825260208083209091015483528201929092526040019020546001600160a01b031614156104b7575060016104bb565b5060005b919050565b6001600160a01b03811660009081526010602090815260409182902080548351818402810184019094528084526060939283018282801561052057602002820191906000526020600020905b81548152602001906001019080831161050c575b50505050509050919050565b6006546105376115f7565b10156105745760405162461bcd60e51b815260040180806020018281038252602a815260200180611cf0602a913960400191505060405180910390fd5b60075461057f6115f7565b106105bb5760405162461bcd60e51b8152600401808060200182810382526021815260200180611b736021913960400191505060405180910390fd5b6105c3610cea565b15610608576040805162461bcd60e51b815260206004820152601060248201526f14185d5cd8589b194e881c185d5cd95960821b604482015290519081900360640190fd5b80831461065c576040805162461bcd60e51b815260206004820152601f60248201527f4c6f74746572793a20496e76616c69642063686f73656e206e756d6265727300604482015290519081900360640190fd5b60118054600101905560005b818110156107d057600854600a0a83838381811061068257fe5b90506020020135106106c55760405162461bcd60e51b8152600401808060200182810382526026815260200180611d1a6026913960400191505060405180910390fd5b6000600e818585858181106106d657fe5b60209081029290920135835250810191909152604001600020546001600160a01b0316146107355760405162461bcd60e51b8152600401808060200182810382526027815260200180611bba6027913960400191505060405180910390fd5b601154600f600085858581811061074857fe5b90506020020135815260200190815260200160002054141561079b5760405162461bcd60e51b8152600401808060200182810382526030815260200180611d406030913960400191505060405180910390fd5b601154600f60008585858181106107ae57fe5b6020908102929092013583525081019190915260400160002055600101610668565b5060006107e8600c54856115fb90919063ffffffff16565b600254604080516323b872dd60e01b81523360048201523060248201526044810184905290519293506001600160a01b03909116916323b872dd916064808201926020929091908290030181600087803b15801561084557600080fd5b505af1158015610859573d6000803e3d6000fd5b505050506040513d602081101561086f57600080fd5b5050600a5461087e9082611594565b600a5560005b828110156109315733600e600086868581811061089d57fe5b90506020020135815260200190815260200160002060006101000a8154816001600160a01b0302191690836001600160a01b0316021790555060106000336001600160a01b03166001600160a01b0316815260200190815260200160002084848381811061090757fe5b83546001808201865560009586526020958690209290950293909301359201919091555001610884565b507f27c5e501eb43fd045a53af63d8557af7ac8810c8550dbc296c823bd73527315084848460405180848152602001806020018281038252848482818152602001925060200280828437600083820152604051601f909101601f1916909201829003965090945050505050a150505050565b6109ab611654565b6001600160a01b03166109bc611173565b6001600160a01b031614610a05576040805162461bcd60e51b81526020600482018190526024820152600080516020611c78833981519152604482015290519081900360640190fd5b600c55565b600954600b5414610a4c5760405162461bcd60e51b8152600401808060200182810382526027815260200180611c306027913960400191505060405180910390fd5b610a54611654565b6001600160a01b0316610a65611173565b6001600160a01b031614610aae576040805162461bcd60e51b81526020600482018190526024820152600080516020611c78833981519152604482015290519081900360640190fd5b600254610ac5906001600160a01b03163383611658565b50565b60065490565b610ad6611654565b6001600160a01b0316610ae7611173565b6001600160a01b031614610b30576040805162461bcd60e51b81526020600482018190526024820152600080516020611c78833981519152604482015290519081900360640190fd5b610b386116af565b565b600954600b5460009114610b7f5760405162461bcd60e51b8152600401808060200182810382526027815260200180611c306027913960400191505060405180910390fd5b6000805b600954811015610c1e576000600b8281548110610b9c57fe5b6000918252602080832090910154808352600e9091526040909120549091506001600160a01b03908116908616811415610c1457610c11610c0a6064610c04600d8781548110610be857fe5b9060005260206000200154600a546115fb90919063ffffffff16565b90611752565b8590611594565b93505b5050600101610b83565b5092915050565b60075490565b610c33611654565b6001600160a01b0316610c44611173565b6001600160a01b031614610c8d576040805162461bcd60e51b81526020600482018190526024820152600080516020611c78833981519152604482015290519081900360640190fd5b600755565b6060600d805480602002602001604051908101604052809291908181526020018280548015610ce057602002820191906000526020600020905b815481526020019060010190808311610ccc575b5050505050905090565b600054600160a01b900460ff1690565b60085490565b600a5490565b600754610d116115f7565b1015610d4e5760405162461bcd60e51b8152600401808060200182810382526029815260200180611c076029913960400191505060405180910390fd5b610d56611654565b6001600160a01b0316610d67611173565b6001600160a01b031614610db0576040805162461bcd60e51b81526020600482018190526024820152600080516020611c78833981519152604482015290519081900360640190fd5b600b5415610def5760405162461bcd60e51b815260040180806020018281038252602e815260200180611c98602e913960400191505060405180910390fd5b60095467ffffffffffffffff81118015610e0857600080fd5b50604051908082528060200260200182016040528015610e32578160200160208202803683370190505b508051610e4791600b91602090910190611b12565b5060005b600954811015610f45575b60035460085460408051632cdc85e960e21b81526004810192909252516000926001600160a01b03169163b37217a491602480830192602092919082900301818787803b158015610ea657600080fd5b505af1158015610eba573d6000803e3d6000fd5b505050506040513d6020811015610ed057600080fd5b5051905060005b82811015610f0b5781600b8281548110610eed57fe5b90600052602060002001541415610f0357610f0b565b600101610ed7565b82811415610f365781600b8481548110610f2157fe5b90600052602060002001819055505050610f3d565b5050610e56565b600101610e4b565b507fb0f137151d6582b5d3bf7c348610be27187d15bbb0d28e553cb95e9cbcf30ba5600b60405180806020018281038252838181548152602001915080548015610fae57602002820191906000526020600020905b815481526020019060010190808311610f9a575b50509250505060405180910390a1565b610fc6611654565b6001600160a01b0316610fd7611173565b6001600160a01b031614611020576040805162461bcd60e51b81526020600482018190526024820152600080516020611c78833981519152604482015290519081900360640190fd5b600080546040516001600160a01b03909116907f8be0079c531659141344cd1fd0a4f28419497f9722a3daafe3b4186f6b6457e0908390a3600080546001600160a01b0319169055565b60055490565b600954600b54606091146110b55760405162461bcd60e51b8152600401808060200182810382526027815260200180611c306027913960400191505060405180910390fd5b600b805480602002602001604051908101604052809291908181526020018280548015610ce05760200282019190600052602060002090815481526020019060010190808311610ccc575050505050905090565b611111611654565b6001600160a01b0316611122611173565b6001600160a01b03161461116b576040805162461bcd60e51b81526020600482018190526024820152600080516020611c78833981519152604482015290519081900360640190fd5b610b386117b9565b6000546001600160a01b031690565b6004546001600160a01b031690565b60075461119c6115f7565b10156111d95760405162461bcd60e51b8152600401808060200182810382526029815260200180611c076029913960400191505060405180910390fd5b600954600b541461121b5760405162461bcd60e51b8152600401808060200182810382526027815260200180611c306027913960400191505060405180910390fd5b6000336001600160a01b0316600e6000600b60008154811061123957fe5b600091825260208083209091015483528201929092526040019020546001600160a01b031614156112db576004805460055460408051632142170760e11b815230948101949094523360248501526044840191909152516001600160a01b03909116916342842e0e91606480830192600092919082900301818387803b1580156112c257600080fd5b505af11580156112d6573d6000803e3d6000fd5b505050505b60005b60095481101561136d576000600b82815481106112f757fe5b6000918252602080832090910154808352600e9091526040909120549091506001600160a01b031633811415611363576000828152600e6020526040902080546001600160a01b0319169055600d805461136091610c0a91606491610c049188908110610be857fe5b93505b50506001016112de565b506002546040805163a9059cbb60e01b81523360048201526024810184905290516001600160a01b039092169163a9059cbb916044808201926020929091908290030181600087803b1580156113c257600080fd5b505af11580156113d6573d6000803e3d6000fd5b505050506040513d60208110156113ec57600080fd5b50506040805133815290517fea61a2a22523394f29506de20cc9db2e881f096477982d51012058ec9032714a9181900360200190a150565b61142c611654565b6001600160a01b031661143d611173565b6001600160a01b031614611486576040805162461bcd60e51b81526020600482018190526024820152600080516020611c78833981519152604482015290519081900360640190fd5b600655565b600c540290565b61149a611654565b6001600160a01b03166114ab611173565b6001600160a01b0316146114f4576040805162461bcd60e51b81526020600482018190526024820152600080516020611c78833981519152604482015290519081900360640190fd5b6001600160a01b0381166115395760405162461bcd60e51b8152600401808060200182810382526026815260200180611b946026913960400191505060405180910390fd5b600080546040516001600160a01b03808516939216917f8be0079c531659141344cd1fd0a4f28419497f9722a3daafe3b4186f6b6457e091a3600080546001600160a01b0319166001600160a01b0392909216919091179055565b6000828201838110156115ee576040805162461bcd60e51b815260206004820152601b60248201527f536166654d6174683a206164646974696f6e206f766572666c6f770000000000604482015290519081900360640190fd5b90505b92915050565b4290565b60008261160a575060006115f1565b8282028284828161161757fe5b04146115ee5760405162461bcd60e51b8152600401808060200182810382526021815260200180611c576021913960400191505060405180910390fd5b3390565b604080516001600160a01b038416602482015260448082018490528251808303909101815260649091019091526020810180516001600160e01b031663a9059cbb60e01b1790526116aa908490611842565b505050565b6116b7610cea565b6116ff576040805162461bcd60e51b815260206004820152601460248201527314185d5cd8589b194e881b9bdd081c185d5cd95960621b604482015290519081900360640190fd5b6000805460ff60a01b191690557f5db9ee0a495bf2e6ff9c91a7834c1ba4fdd244a5e8aa4e537bd38aeae4b073aa611735611654565b604080516001600160a01b039092168252519081900360200190a1565b60008082116117a8576040805162461bcd60e51b815260206004820152601a60248201527f536166654d6174683a206469766973696f6e206279207a65726f000000000000604482015290519081900360640190fd5b8183816117b157fe5b049392505050565b6117c1610cea565b15611806576040805162461bcd60e51b815260206004820152601060248201526f14185d5cd8589b194e881c185d5cd95960821b604482015290519081900360640190fd5b6000805460ff60a01b1916600160a01b1790557f62e78cea01bee320cd4e420270b5ea74000d11b0c9f74754ebdbfc544b05a258611735611654565b6060611897826040518060400160405280602081526020017f5361666545524332303a206c6f772d6c6576656c2063616c6c206661696c6564815250856001600160a01b03166118f39092919063ffffffff16565b8051909150156116aa578080602001905160208110156118b657600080fd5b50516116aa5760405162461bcd60e51b815260040180806020018281038252602a815260200180611cc6602a913960400191505060405180910390fd5b6060611902848460008561190c565b90505b9392505050565b60608247101561194d5760405162461bcd60e51b8152600401808060200182810382526026815260200180611be16026913960400191505060405180910390fd5b61195685611a68565b6119a7576040805162461bcd60e51b815260206004820152601d60248201527f416464726573733a2063616c6c20746f206e6f6e2d636f6e7472616374000000604482015290519081900360640190fd5b60006060866001600160a01b031685876040518082805190602001908083835b602083106119e65780518252601f1990920191602091820191016119c7565b6001836020036101000a03801982511681845116808217855250505050505090500191505060006040518083038185875af1925050503d8060008114611a48576040519150601f19603f3d011682016040523d82523d6000602084013e611a4d565b606091505b5091509150611a5d828286611a6e565b979650505050505050565b3b151590565b60608315611a7d575081611905565b825115611a8d5782518084602001fd5b8160405162461bcd60e51b81526004018080602001828103825283818151815260200191508051906020019080838360005b83811015611ad7578181015183820152602001611abf565b50505050905090810190601f168015611b045780820380516001836020036101000a031916815260200191505b509250505060405180910390fd5b828054828255906000526020600020908101928215611b4d579160200282015b82811115611b4d578251825591602001919060010190611b32565b50611b59929150611b5d565b5090565b5b80821115611b595760008155600101611b5e56fe4c6f74746572793a205469636b65742073656c6c696e6720697320636c6f7365644f776e61626c653a206e6577206f776e657220697320746865207a65726f20616464726573734c6f74746572793a205469636b6574204e756d62657220697320616c7265616479206578697374416464726573733a20696e73756666696369656e742062616c616e636520666f722063616c6c4c6f74746572793a205469636b65742073656c6c696e67206973206e6f742079657420636c6f7365644c6f74746572793a2057696e6e696e67204e756d62657273206e6f742063686f73656e20796574536166654d6174683a206d756c7469706c69636174696f6e206f766572666c6f774f776e61626c653a2063616c6c6572206973206e6f7420746865206f776e65724c6f74746572793a204861766520616c726561647920647261776e207468652077696e6e696e67206e756d6265725361666545524332303a204552433230206f7065726174696f6e20646964206e6f7420737563636565644c6f74746572793a205469636b65742073656c6c696e67206973206e6f742079657420737461727465644c6f74746572793a205469636b6574204e756d626572206973206f7574206f662072616e67654c6f74746572793a20526571756573746564205469636b6574204e756d6265727320617265206e6f7420756e69717565a26469706673582212201c636a8fd5df819de695259c24403df65d47fdaf885cb25f4013c8f97c9b943d64736f6c634300060c00334c6f74746572793a2052616e646f6d204e756d6265722047656e657261746f722063616e6e6f74206265203020616464726573734c6f74746572793a20466163746f72792063616e6e6f74206265203020616464726573734c6f74746572793a205072697a6520646973747269627574696f6e206973206e6f7420313030254c6f74746572793a20527562792063616e6e6f74206265203020616464726573734f776e61626c653a206e6577206f776e657220697320746865207a65726f2061646472657373496e697469616c697a61626c653a20636f6e747261637420697320616c726561647920696e697469616c697a65644c6f7474657279466163746f72793a20527562792063616e6e6f74206265203020616464726573734c6f7474657279466163746f72793a204e66742063616e6e6f74206265203020616464726573734c6f7474657279466163746f72793a20496e76616c696420646973747269627574696f6e4f776e61626c653a2063616c6c6572206973206e6f7420746865206f776e65724c6f7474657279466163746f72793a20727562792063616e6e6f74206265203020616464726573734c6f7474657279466163746f72793a204f776e6572206f66204e465420697320696e76616c69644c6f7474657279466163746f72793a20524e472063616e6e6f74206265203020616464726573734c6f7474657279466163746f72793a2072616e646f6d4e756d62657247656e657261746f722063616e6e6f7420626520302061646472657373a2646970667358221220ca19940f397caae4844868c993cd2ae945e3e31c7d764f7c4b8e3c07cf6ab95f64736f6c634300060c0033",
  "devdoc": {
    "kind": "dev",
    "methods": {
      "createNewLotto(address,uint256,uint256,uint256,uint256[],uint256)": {
        "params": {
          "_lotterySize": "Digit count of ticket.",
          "_nft": "The NFT address for bonus.",
          "_tokenId": "The Bonus NFT ID.",
          "distribution": "An array defining the distribution of the prize pool.",
          "duration": "The duration until no more tickets will be sold for the lottery from now.",
          "ticketPrice": "Cost per ticket in $ruby."
        }
      },
      "owner()": {
        "details": "Returns the address of the current owner."
      },
      "renounceOwnership()": {
        "details": "Leaves the contract without owner. It will not be possible to call `onlyOwner` functions anymore. Can only be called by the current owner. NOTE: Renouncing ownership will leave the contract without an owner, thereby removing any functionality that is only available to the owner."
      },
      "transferOwnership(address)": {
        "details": "Transfers ownership of the contract to a new account (`newOwner`). Can only be called by the current owner."
      }
    },
    "version": 1
  },
  "userdoc": {
    "kind": "user",
    "methods": {
      "createNewLotto(address,uint256,uint256,uint256,uint256[],uint256)": {
        "notice": "Create a new Lottery instance."
      }
    },
    "version": 1
  },
  "storageLayout": {
    "storage": [
      {
        "astId": 705,
        "contract": "contracts/lottery/LotteryFactory.sol:LotteryFactory",
        "label": "_initialized",
        "offset": 0,
        "slot": "0",
        "type": "t_bool"
      },
      {
        "astId": 708,
        "contract": "contracts/lottery/LotteryFactory.sol:LotteryFactory",
        "label": "_initializing",
        "offset": 1,
        "slot": "0",
        "type": "t_bool"
      },
      {
        "astId": 2910,
        "contract": "contracts/lottery/LotteryFactory.sol:LotteryFactory",
        "label": "__gap",
        "offset": 0,
        "slot": "1",
        "type": "t_array(t_uint256)50_storage"
      },
      {
        "astId": 136,
        "contract": "contracts/lottery/LotteryFactory.sol:LotteryFactory",
        "label": "_owner",
        "offset": 0,
        "slot": "51",
        "type": "t_address"
      },
      {
        "astId": 255,
        "contract": "contracts/lottery/LotteryFactory.sol:LotteryFactory",
        "label": "__gap",
        "offset": 0,
        "slot": "52",
        "type": "t_array(t_uint256)49_storage"
      },
      {
        "astId": 21392,
        "contract": "contracts/lottery/LotteryFactory.sol:LotteryFactory",
        "label": "ruby",
        "offset": 0,
        "slot": "101",
        "type": "t_address"
      },
      {
        "astId": 21394,
        "contract": "contracts/lottery/LotteryFactory.sol:LotteryFactory",
        "label": "RNG",
        "offset": 0,
        "slot": "102",
        "type": "t_address"
      },
      {
        "astId": 21401,
        "contract": "contracts/lottery/LotteryFactory.sol:LotteryFactory",
        "label": "allLotteries",
        "offset": 0,
        "slot": "103",
        "type": "t_mapping(t_uint256,t_contract(Lottery)21373)"
      },
      {
        "astId": 21403,
        "contract": "contracts/lottery/LotteryFactory.sol:LotteryFactory",
        "label": "lotteryId",
        "offset": 0,
        "slot": "104",
        "type": "t_uint256"
      }
    ],
    "types": {
      "t_address": {
        "encoding": "inplace",
        "label": "address",
        "numberOfBytes": "20"
      },
      "t_array(t_uint256)49_storage": {
        "base": "t_uint256",
        "encoding": "inplace",
        "label": "uint256[49]",
        "numberOfBytes": "1568"
      },
      "t_array(t_uint256)50_storage": {
        "base": "t_uint256",
        "encoding": "inplace",
        "label": "uint256[50]",
        "numberOfBytes": "1600"
      },
      "t_bool": {
        "encoding": "inplace",
        "label": "bool",
        "numberOfBytes": "1"
      },
      "t_contract(Lottery)21373": {
        "encoding": "inplace",
        "label": "contract Lottery",
        "numberOfBytes": "20"
      },
      "t_mapping(t_uint256,t_contract(Lottery)21373)": {
        "encoding": "mapping",
        "key": "t_uint256",
        "label": "mapping(uint256 => contract Lottery)",
        "numberOfBytes": "32",
        "value": "t_contract(Lottery)21373"
      },
      "t_uint256": {
        "encoding": "inplace",
        "label": "uint256",
        "numberOfBytes": "32"
      }
    }
  }
}