{
  "address": "0x77C50e666cea1531b611B24FE8D4ECFFA7352d87",
  "abi": [
    {
      "anonymous": false,
      "inputs": [
        {
          "indexed": false,
          "internalType": "uint256",
          "name": "_lotteryId",
          "type": "uint256"
        }
      ],
      "name": "LotteryCreated",
      "type": "event"
    },
    {
      "anonymous": false,
      "inputs": [
        {
          "indexed": true,
          "internalType": "address",
          "name": "previousOwner",
          "type": "address"
        },
        {
          "indexed": true,
          "internalType": "address",
          "name": "newOwner",
          "type": "address"
        }
      ],
      "name": "OwnershipTransferred",
      "type": "event"
    },
    {
      "inputs": [
        {
          "internalType": "uint256",
          "name": "_ticketSize",
          "type": "uint256"
        }
      ],
      "name": "costToBuyTickets",
      "outputs": [
        {
          "internalType": "uint256",
          "name": "",
          "type": "uint256"
        }
      ],
      "stateMutability": "view",
      "type": "function"
    },
    {
      "inputs": [
        {
          "internalType": "address",
          "name": "_collateral",
          "type": "address"
        },
        {
          "internalType": "address",
          "name": "_nft",
          "type": "address"
        },
        {
          "internalType": "uint256",
          "name": "_tokenId",
          "type": "uint256"
        },
        {
          "internalType": "uint256",
          "name": "_lotterySize",
          "type": "uint256"
        },
        {
          "internalType": "uint256",
          "name": "_ticketPrice",
          "type": "uint256"
        },
        {
          "internalType": "uint256[]",
          "name": "_distribution",
          "type": "uint256[]"
        },
        {
          "internalType": "uint256",
          "name": "_duration",
          "type": "uint256"
        }
      ],
      "name": "createNewLotto",
      "outputs": [],
      "stateMutability": "nonpayable",
      "type": "function"
    },
    {
      "inputs": [],
      "name": "getBurn",
      "outputs": [
        {
          "internalType": "address",
          "name": "",
          "type": "address"
        }
      ],
      "stateMutability": "view",
      "type": "function"
    },
    {
      "inputs": [],
      "name": "getCurrentLotto",
      "outputs": [
        {
          "internalType": "address",
          "name": "",
          "type": "address"
        }
      ],
      "stateMutability": "view",
      "type": "function"
    },
    {
      "inputs": [],
      "name": "getCurrentLottoryId",
      "outputs": [
        {
          "internalType": "uint256",
          "name": "",
          "type": "uint256"
        }
      ],
      "stateMutability": "view",
      "type": "function"
    },
    {
      "inputs": [
        {
          "internalType": "uint256",
          "name": "_lotteryId",
          "type": "uint256"
        }
      ],
      "name": "getLotto",
      "outputs": [
        {
          "internalType": "address",
          "name": "",
          "type": "address"
        }
      ],
      "stateMutability": "view",
      "type": "function"
    },
    {
      "inputs": [],
      "name": "getRNG",
      "outputs": [
        {
          "internalType": "address",
          "name": "",
          "type": "address"
        }
      ],
      "stateMutability": "view",
      "type": "function"
    },
    {
      "inputs": [],
      "name": "getRuby",
      "outputs": [
        {
          "internalType": "address",
          "name": "",
          "type": "address"
        }
      ],
      "stateMutability": "view",
      "type": "function"
    },
    {
      "inputs": [],
      "name": "getTreasury",
      "outputs": [
        {
          "internalType": "address",
          "name": "",
          "type": "address"
        }
      ],
      "stateMutability": "view",
      "type": "function"
    },
    {
      "inputs": [],
      "name": "getWinningNumbers",
      "outputs": [
        {
          "internalType": "uint256[]",
          "name": "",
          "type": "uint256[]"
        }
      ],
      "stateMutability": "view",
      "type": "function"
    },
    {
      "inputs": [
        {
          "internalType": "address",
          "name": "_ruby",
          "type": "address"
        },
        {
          "internalType": "address",
          "name": "_randomNumberGenerator",
          "type": "address"
        },
        {
          "internalType": "address",
          "name": "_treasury",
          "type": "address"
        },
        {
          "internalType": "address",
          "name": "_burn",
          "type": "address"
        }
      ],
      "name": "initialize",
      "outputs": [],
      "stateMutability": "nonpayable",
      "type": "function"
    },
    {
      "inputs": [],
      "name": "owner",
      "outputs": [
        {
          "internalType": "address",
          "name": "",
          "type": "address"
        }
      ],
      "stateMutability": "view",
      "type": "function"
    },
    {
      "inputs": [],
      "name": "renounceOwnership",
      "outputs": [],
      "stateMutability": "nonpayable",
      "type": "function"
    },
    {
      "inputs": [
        {
          "internalType": "address",
          "name": "_burn",
          "type": "address"
        }
      ],
      "name": "setBurn",
      "outputs": [],
      "stateMutability": "nonpayable",
      "type": "function"
    },
    {
      "inputs": [
        {
          "internalType": "address",
          "name": "_RNG",
          "type": "address"
        }
      ],
      "name": "setRNG",
      "outputs": [],
      "stateMutability": "nonpayable",
      "type": "function"
    },
    {
      "inputs": [
        {
          "internalType": "address",
          "name": "_ruby",
          "type": "address"
        }
      ],
      "name": "setRuby",
      "outputs": [],
      "stateMutability": "nonpayable",
      "type": "function"
    },
    {
      "inputs": [
        {
          "internalType": "address",
          "name": "_treasury",
          "type": "address"
        }
      ],
      "name": "setTreasury",
      "outputs": [],
      "stateMutability": "nonpayable",
      "type": "function"
    },
    {
      "inputs": [
        {
          "internalType": "address",
          "name": "newOwner",
          "type": "address"
        }
      ],
      "name": "transferOwnership",
      "outputs": [],
      "stateMutability": "nonpayable",
      "type": "function"
    }
  ],
  "transactionHash": "0x75bdf245ca9b84457e79ec77b981135ba6c2d0a9ba113214aa28ad09052f9dd9",
  "args": [],
  "numDeployments": 1,
  "solcInputHash": "455de444b60cee89076cb52a095719e9",
  "bytecode": "0x608060405234801561001057600080fd5b506141f3806100206000396000f3fe60806040523480156200001157600080fd5b5060043610620001305760003560e01c8063aced73bd11620000b1578063d2941c7f116200007b578063d2941c7f14620002ac578063db51ccdb14620002cc578063f0f44260146200036e578063f2fde38b1462000397578063f8c8765e14620003c05762000130565b8063aced73bd1462000253578063b661c637146200027c578063b8ccaedd1462000298578063bb53cdbc14620002a25762000130565b80636a8dfd3a11620000ff5780636a8dfd3a14620001b0578063715018a614620001ba57806384350e1d14620001c4578063868ca68e14620002205780638da5cb5b14620002495762000130565b80630c65747814620001355780633b19e84a14620001715780633b84edbd146200017b57806353a1ec4314620001a6575b600080fd5b62000155600480360360208110156200014d57600080fd5b503562000401565b604080516001600160a01b039092168252519081900360200190f35b620001556200041c565b620001a4600480360360208110156200019357600080fd5b50356001600160a01b03166200042b565b005b62000155620004fc565b620001556200050b565b620001a462000529565b620001ce620005db565b60408051602080825283518183015283519192839290830191858101910280838360005b838110156200020c578181015183820152602001620001f2565b505050509050019250505060405180910390f35b620001a4600480360360208110156200023857600080fd5b50356001600160a01b0316620006f5565b62000155620007c6565b620001a4600480360360208110156200026b57600080fd5b50356001600160a01b0316620007d5565b62000286620008a6565b60408051918252519081900360200190f35b62000155620008ac565b62000155620008bb565b6200028660048036036020811015620002c457600080fd5b5035620008ca565b620001a4600480360360e0811015620002e457600080fd5b6001600160a01b0382358116926020810135909116916040820135916060810135916080820135919081019060c0810160a08201356401000000008111156200032c57600080fd5b8201836020820111156200033f57600080fd5b803590602001918460208302840111640100000000831117156200036257600080fd5b9193509150356200094e565b620001a4600480360360208110156200038657600080fd5b50356001600160a01b031662000e0c565b620001a460048036036020811015620003af57600080fd5b50356001600160a01b031662000edd565b620001a460048036036080811015620003d857600080fd5b506001600160a01b03813581169160208101358216916040820135811691606001351662000fe8565b6000908152606960205260409020546001600160a01b031690565b6067546001600160a01b031690565b6200043562001206565b6001600160a01b031662000448620007c6565b6001600160a01b03161462000493576040805162461bcd60e51b81526020600482018190526024820152600080516020620040ef833981519152604482015290519081900360640190fd5b6001600160a01b038116620004da5760405162461bcd60e51b81526004018080602001828103825260278152602001806200415e6027913960400191505060405180910390fd5b606680546001600160a01b0319166001600160a01b0392909216919091179055565b6065546001600160a01b031690565b606a546000908152606960205260409020546001600160a01b031690565b6200053362001206565b6001600160a01b031662000546620007c6565b6001600160a01b03161462000591576040805162461bcd60e51b81526020600482018190526024820152600080516020620040ef833981519152604482015290519081900360640190fd5b6033546040516000916001600160a01b0316907f8be0079c531659141344cd1fd0a4f28419497f9722a3daafe3b4186f6b6457e0908390a3603380546001600160a01b0319169055565b6060620005e76200050b565b6001600160a01b03166384350e1d6040518163ffffffff1660e01b815260040160006040518083038186803b1580156200062057600080fd5b505afa15801562000635573d6000803e3d6000fd5b505050506040513d6000823e601f3d908101601f1916820160405260208110156200065f57600080fd5b81019080805160405193929190846401000000008211156200068057600080fd5b9083019060208201858111156200069657600080fd5b8251866020820283011164010000000082111715620006b457600080fd5b82525081516020918201928201910280838360005b83811015620006e3578181015183820152602001620006c9565b50505050905001604052505050905090565b620006ff62001206565b6001600160a01b031662000712620007c6565b6001600160a01b0316146200075d576040805162461bcd60e51b81526020600482018190526024820152600080516020620040ef833981519152604482015290519081900360640190fd5b6001600160a01b038116620007a45760405162461bcd60e51b81526004018080602001828103825260288152602001806200407c6028913960400191505060405180910390fd5b606580546001600160a01b0319166001600160a01b0392909216919091179055565b6033546001600160a01b031690565b620007df62001206565b6001600160a01b0316620007f2620007c6565b6001600160a01b0316146200083d576040805162461bcd60e51b81526020600482018190526024820152600080516020620040ef833981519152604482015290519081900360640190fd5b6001600160a01b038116620008845760405162461bcd60e51b815260040180806020018281038252602881526020018062003fcc6028913960400191505060405180910390fd5b606880546001600160a01b0319166001600160a01b0392909216919091179055565b606a5490565b6068546001600160a01b031690565b6066546001600160a01b031690565b6000620008d66200050b565b6001600160a01b031663d2941c7f836040518263ffffffff1660e01b81526004018082815260200191505060206040518083038186803b1580156200091a57600080fd5b505afa1580156200092f573d6000803e3d6000fd5b505050506040513d60208110156200094657600080fd5b505192915050565b6200095862001206565b6001600160a01b03166200096b620007c6565b6001600160a01b031614620009b6576040805162461bcd60e51b81526020600482018190526024820152600080516020620040ef833981519152604482015290519081900360640190fd5b6001600160a01b038816620009fd5760405162461bcd60e51b815260040180806020018281038252602e81526020018062003ff4602e913960400191505060405180910390fd5b6001600160a01b03871662000a445760405162461bcd60e51b8152600401808060200182810382526027815260200180620040a46027913960400191505060405180910390fd5b6002821162000a855760405162461bcd60e51b8152600401808060200182810382526024815260200180620040cb6024913960400191505060405180910390fd5b600c82111562000ac75760405162461bcd60e51b8152600401808060200182810382526024815260200180620040cb6024913960400191505060405180910390fd5b336001600160a01b0316876001600160a01b0316636352211e886040518263ffffffff1660e01b81526004018082815260200191505060206040518083038186803b15801562000b1657600080fd5b505afa15801562000b2b573d6000803e3d6000fd5b505050506040513d602081101562000b4257600080fd5b50516001600160a01b03161462000b8b5760405162461bcd60e51b8152600401808060200182810382526027815260200180620041376027913960400191505060405180910390fd5b606a8054600101908190556065546068546067546066546040513095946001600160a01b03908116948e948e948e948e948e948e9490821693908216928e929091169062000bd9906200148c565b808e6001600160a01b031681526020018d81526020018c6001600160a01b031681526020018b6001600160a01b031681526020018a815260200189815260200188815260200180602001866001600160a01b03168152602001856001600160a01b03168152602001848152602001836001600160a01b031681526020018281038252888882818152602001925060200280828437600081840152601f19601f8201169050808301925050509e505050505050505050505050505050604051809103906000f08015801562000cb1573d6000803e3d6000fd5b50606a805460009081526069602052604080822080546001600160a01b0319166001600160a01b039586161790559154815220541663f2fde38b62000cf5620007c6565b6040518263ffffffff1660e01b815260040180826001600160a01b03168152602001915050600060405180830381600087803b15801562000d3557600080fd5b505af115801562000d4a573d6000803e3d6000fd5b5050606a546000908152606960205260408082205481516323b872dd60e01b81523360048201526001600160a01b039182166024820152604481018c90529151908c1694506323b872dd93506064808301939282900301818387803b15801562000db357600080fd5b505af115801562000dc8573d6000803e3d6000fd5b5050606a5460408051918252517f9e0023bebcc752baaa41057318405b5a6a8e9c6372b519717cfdf238e5caa7959350908190036020019150a15050505050505050565b62000e1662001206565b6001600160a01b031662000e29620007c6565b6001600160a01b03161462000e74576040805162461bcd60e51b81526020600482018190526024820152600080516020620040ef833981519152604482015290519081900360640190fd5b6001600160a01b03811662000ebb5760405162461bcd60e51b815260040180806020018281038252602c81526020018062004022602c913960400191505060405180910390fd5b606780546001600160a01b0319166001600160a01b0392909216919091179055565b62000ee762001206565b6001600160a01b031662000efa620007c6565b6001600160a01b03161462000f45576040805162461bcd60e51b81526020600482018190526024820152600080516020620040ef833981519152604482015290519081900360640190fd5b6001600160a01b03811662000f8c5760405162461bcd60e51b815260040180806020018281038252602681526020018062003fa66026913960400191505060405180910390fd5b6033546040516001600160a01b038084169216907f8be0079c531659141344cd1fd0a4f28419497f9722a3daafe3b4186f6b6457e090600090a3603380546001600160a01b0319166001600160a01b0392909216919091179055565b600054610100900460ff1680620010045750620010046200120a565b8062001013575060005460ff16155b620010505760405162461bcd60e51b815260040180806020018281038252602e8152602001806200404e602e913960400191505060405180910390fd5b600054610100900460ff161580156200107c576000805460ff1961ff0019909116610100171660011790555b6001600160a01b038516620010c35760405162461bcd60e51b81526004018080602001828103825260288152602001806200410f6028913960400191505060405180910390fd5b6001600160a01b0384166200110a5760405162461bcd60e51b8152600401808060200182810382526039815260200180620041856039913960400191505060405180910390fd5b6001600160a01b038316620011515760405162461bcd60e51b815260040180806020018281038252602c81526020018062004022602c913960400191505060405180910390fd5b6001600160a01b038216620011985760405162461bcd60e51b815260040180806020018281038252602881526020018062003fcc6028913960400191505060405180910390fd5b606580546001600160a01b038088166001600160a01b03199283161790925560668054878416908316179055606780548684169083161790556068805492851692909116919091179055620011ec6200121d565b8015620011ff576000805461ff00191690555b5050505050565b3390565b60006200121730620012db565b15905090565b600054610100900460ff1680620012395750620012396200120a565b8062001248575060005460ff16155b620012855760405162461bcd60e51b815260040180806020018281038252602e8152602001806200404e602e913960400191505060405180910390fd5b600054610100900460ff16158015620012b1576000805460ff1961ff0019909116610100171660011790555b620012bb620012e1565b620012c562001389565b8015620012d8576000805461ff00191690555b50565b3b151590565b600054610100900460ff1680620012fd5750620012fd6200120a565b806200130c575060005460ff16155b620013495760405162461bcd60e51b815260040180806020018281038252602e8152602001806200404e602e913960400191505060405180910390fd5b600054610100900460ff16158015620012c5576000805460ff1961ff0019909116610100171660011790558015620012d8576000805461ff001916905550565b600054610100900460ff1680620013a55750620013a56200120a565b80620013b4575060005460ff16155b620013f15760405162461bcd60e51b815260040180806020018281038252602e8152602001806200404e602e913960400191505060405180910390fd5b600054610100900460ff161580156200141d576000805460ff1961ff0019909116610100171660011790555b60006200142962001206565b603380546001600160a01b0319166001600160a01b038316908117909155604051919250906000907f8be0079c531659141344cd1fd0a4f28419497f9722a3daafe3b4186f6b6457e0908290a3508015620012d8576000805461ff001916905550565b612b0b806200149b8339019056fe60806040523480156200001157600080fd5b5060405162002b0b38038062002b0b83398181016040526101808110156200003857600080fd5b815160208301516040808501516060860151608087015160a088015160c089015160e08a0180519651989a9799959894979396929591949391820192846401000000008211156200008857600080fd5b9083019060208201858111156200009e57600080fd5b8251866020820283011164010000000082111715620000bc57600080fd5b82525081516020918201928201910280838360005b83811015620000eb578181015183820152602001620000d1565b5050505091909101604090815260208301519083015160608401516080909401519195509350905060006200011f620005c0565b600080546001600160a01b0319166001600160a01b0383169081178255604051929350917f8be0079c531659141344cd1fd0a4f28419497f9722a3daafe3b4186f6b6457e0908290a3506000805460ff60a01b191690556001600160a01b038c16620001bd5760405162461bcd60e51b815260040180806020018281038252602481526020018062002a9f6024913960400191505060405180910390fd5b6001600160a01b038a16620002045760405162461bcd60e51b815260040180806020018281038252602181526020018062002aea6021913960400191505060405180910390fd5b6001600160a01b03891662000260576040805162461bcd60e51b815260206004820181905260248201527f4c6f74746572793a204e66742063616e6e6f7420626520302061646472657373604482015290519081900360640190fd5b6001600160a01b038116620002a75760405162461bcd60e51b815260040180806020018281038252603481526020018062002a256034913960400191505060405180910390fd5b6001600160a01b038316620002ee5760405162461bcd60e51b815260040180806020018281038252602581526020018062002a7a6025913960400191505060405180910390fd5b6001600160a01b038416620003355760405162461bcd60e51b815260040180806020018281038252602181526020018062002a596021913960400191505060405180910390fd5b6003855110156200038d576040805162461bcd60e51b815260206004820152601d60248201527f4c6f74746572793a20496e76616c696420646973747269627574696f6e000000604482015290519081900360640190fd5b8451600c1015620003e5576040805162461bcd60e51b815260206004820152601d60248201527f4c6f74746572793a20496e76616c696420646973747269627574696f6e000000604482015290519081900360640190fd5b845160011901600c556000805b865181101562000435576200042a8782815181106200040d57fe5b602002602001015183620005c460201b62001bce1790919060201c565b9150600101620003f2565b5080606414620004775760405162461bcd60e51b815260040180806020018281038252602781526020018062002ac36027913960400191505060405180910390fd5b8c600160006101000a8154816001600160a01b0302191690836001600160a01b031602179055508b6007819055508a600460006101000a8154816001600160a01b0302191690836001600160a01b0316021790555081600560006101000a8154816001600160a01b0302191690836001600160a01b0316021790555089600660006101000a8154816001600160a01b0302191690836001600160a01b031602179055508860088190555083600260006101000a8154816001600160a01b0302191690836001600160a01b0316021790555084600360006101000a8154816001600160a01b0302191690836001600160a01b0316021790555086600f8190555087600b819055506200058d6200062660201b60201c565b60098190558301600a558551620005ac9060109060208901906200062a565b505050505050505050505050505062000691565b3390565b6000828201838110156200061f576040805162461bcd60e51b815260206004820152601b60248201527f536166654d6174683a206164646974696f6e206f766572666c6f770000000000604482015290519081900360640190fd5b9392505050565b4290565b82805482825590600052602060002090810192821562000668579160200282015b82811115620006685782518255916020019190600101906200064b565b50620006769291506200067a565b5090565b5b808211156200067657600081556001016200067b565b61238480620006a16000396000f3fe608060405234801561001057600080fd5b506004361061023c5760003560e01c80636ed01ce21161013b5780639b6a1c40116100b8578063d2941c7f1161007c578063d2941c7f146105b2578063da649e6b146105cf578063e8eedc08146105d7578063eb46260e146105f4578063f2fde38b1461061a5761023c565b80639b6a1c401461058a578063ab9dbd0714610592578063b42243711461059a578063b88a802f146105a2578063c2b6b58c146105aa5761023c565b806384350e1d116100ff57806384350e1d146105625780638456cb591461056a57806387bb7ae0146105725780638da5cb5b1461057a578063932eb678146105825761023c565b80636ed01ce2146104d4578063715018a6146104dc5780637420901c146104e457806375329a99146104ec57806376c9772c1461055a5761023c565b80633f4ba83a116101c95780635edc958d1161018d5780635edc958d14610496578063601dd0e51461049e578063608620aa146104a657806368d90d5e146104ae578063692aa97e146104cc5761023c565b80633f4ba83a1461045057806344a040f514610458578063477601b81461047e5780635659f582146104865780635c975abb1461048e5761023c565b80632e1a7d4d116102105780632e1a7d4d1461038c5780632f3f8d23146103a9578063329398e4146103b15780633750c195146103cb5780633c2bcadc146104485761023c565b80621ace93146102415780630ad182bc1461027b5780630b2e6691146102f1578063109885cc14610368575b600080fd5b6102676004803603602081101561025757600080fd5b50356001600160a01b0316610640565b604080519115158252519081900360200190f35b6102a16004803603602081101561029157600080fd5b50356001600160a01b03166106dd565b60408051602080825283518183015283519192839290830191858101910280838360005b838110156102dd5781810151838201526020016102c5565b505050509050019250505060405180910390f35b6103666004803603604081101561030757600080fd5b81359190810190604081016020820135600160201b81111561032857600080fd5b82018360208201111561033a57600080fd5b803590602001918460208302840111600160201b8311171561035b57600080fd5b509092509050610749565b005b610370610b50565b604080516001600160a01b039092168252519081900360200190f35b610366600480360360208110156103a257600080fd5b5035610b5f565b6102a1610c1d565b6103b9610d24565b60408051918252519081900360200190f35b6103d3610d2a565b6040805160208082528351818301528351919283929083019185019080838360005b8381101561040d5781810151838201526020016103f5565b50505050905090810190601f16801561043a5780820380516001836020036101000a031916815260200191505b509250505060405180910390f35b610267610e6a565b610366610e74565b6103b96004803603602081101561046e57600080fd5b50356001600160a01b0316610ee0565b6103b9610fcb565b6102a1610fd1565b610267611029565b6103b9611039565b6103b961103f565b610366611045565b6104b6611399565b6040805160ff9092168252519081900360200190f35b61026761141a565b6103b9611442565b610366611448565b6103b96114f4565b6102a16004803603602081101561050257600080fd5b810190602081018135600160201b81111561051c57600080fd5b82018360208201111561052e57600080fd5b803590602001918460208302840111600160201b8311171561054f57600080fd5b5090925090506114fa565b6103d36115be565b6102a1611603565b61036661169c565b6103b9611706565b61037061170c565b61037061171b565b61026761172a565b6103b961172f565b6103d3611735565b61036661177a565b610267611a6a565b6103b9600480360360208110156105c857600080fd5b5035611a7e565b6103b9611a85565b610267600480360360208110156105ed57600080fd5b5035611a92565b6102676004803603602081101561060a57600080fd5b50356001600160a01b0316611aae565b6103666004803603602081101561063057600080fd5b50356001600160a01b0316611acc565b600c54600e54600091146106855760405162461bcd60e51b815260040180806020018281038252602781526020018061223f6027913960400191505060405180910390fd5b816001600160a01b031660126000600e6000815481106106a157fe5b600091825260208083209091015483528201929092526040019020546001600160a01b031614156106d4575060016106d8565b5060005b919050565b6001600160a01b03811660009081526013602090815260409182902080548351818402810184019094528084526060939283018282801561073d57602002820191906000526020600020905b815481526020019060010190808311610729575b50505050509050919050565b600954610754611c2f565b10156107915760405162461bcd60e51b815260040180806020018281038252602a8152602001806122ff602a913960400191505060405180910390fd5b600a5461079c611c2f565b106107d85760405162461bcd60e51b81526004018080602001828103825260218152602001806121a96021913960400191505060405180910390fd5b6107e0611029565b15610825576040805162461bcd60e51b815260206004820152601060248201526f14185d5cd8589b194e881c185d5cd95960821b604482015290519081900360640190fd5b808314610879576040805162461bcd60e51b815260206004820152601f60248201527f4c6f74746572793a20496e76616c69642063686f73656e206e756d6265727300604482015290519081900360640190fd5b60608367ffffffffffffffff8111801561089257600080fd5b506040519080825280602002602001820160405280156108bc578160200160208202803683370190505b5090506000805b8381101561098957600b54600a0a8585838181106108dd57fe5b90506020020135106109205760405162461bcd60e51b81526004018080602001828103825260268152602001806123296026913960400191505060405180910390fd5b600060128187878581811061093157fe5b60209081029290920135835250810191909152604001600020546001600160a01b0316141561098157600183828151811061096857fe5b6020026020010190151590811515815250506001820191505b6001016108c3565b5060006109a1600f5483611c3390919063ffffffff16565b60048054604080516323b872dd60e01b8152339381019390935230602484015260448301849052519293506001600160a01b0316916323b872dd916064808201926020929091908290030181600087803b1580156109fe57600080fd5b505af1158015610a12573d6000803e3d6000fd5b505050506040513d6020811015610a2857600080fd5b5050600d54610a379082611bce565b600d5560005b84811015610b0457838181518110610a5157fe5b602002602001015115610afc573360126000888885818110610a6f57fe5b90506020020135815260200190815260200160002060006101000a8154816001600160a01b0302191690836001600160a01b0316021790555060136000336001600160a01b03166001600160a01b03168152602001908152602001600020868683818110610ad957fe5b835460018101855560009485526020948590209190940292909201359190920155505b600101610a3d565b506011805483019055604080513381526020810184905281517f525b180638b7ca5cfb6b9e8c89581f1b6c731bfd617e813450f4b52c44d07bc5929181900390910190a1505050505050565b6004546001600160a01b031690565b600c54600e5414610ba15760405162461bcd60e51b815260040180806020018281038252602781526020018061223f6027913960400191505060405180910390fd5b610ba9611c8c565b6001600160a01b0316610bba61170c565b6001600160a01b031614610c03576040805162461bcd60e51b81526020600482018190526024820152600080516020612287833981519152604482015290519081900360640190fd5b600454610c1a906001600160a01b03163383611c90565b50565b600c54600e5460609114610c625760405162461bcd60e51b815260040180806020018281038252602781526020018061223f6027913960400191505060405180910390fd5b6060600c5467ffffffffffffffff81118015610c7d57600080fd5b50604051908082528060200260200182016040528015610ca7578160200160208202803683370190505b50905060005b600c54811015610d1e576000600e8281548110610cc657fe5b6000918252602080832090910154808352601290915260409091205484519192506001600160a01b031690849084908110610cfd57fe5b6001600160a01b039092166020928302919091019091015250600101610cad565b50905090565b60095490565b6060600460009054906101000a90046001600160a01b03166001600160a01b03166395d89b416040518163ffffffff1660e01b815260040160006040518083038186803b158015610d7a57600080fd5b505afa158015610d8e573d6000803e3d6000fd5b505050506040513d6000823e601f3d908101601f191682016040526020811015610db757600080fd5b8101908080516040519392919084600160201b821115610dd657600080fd5b908301906020820185811115610deb57600080fd5b8251600160201b811182820188101715610e0457600080fd5b82525081516020918201929091019080838360005b83811015610e31578181015183820152602001610e19565b50505050905090810190601f168015610e5e5780820380516001836020036101000a031916815260200191505b50604052505050905090565b600c54600e541490565b610e7c611c8c565b6001600160a01b0316610e8d61170c565b6001600160a01b031614610ed6576040805162461bcd60e51b81526020600482018190526024820152600080516020612287833981519152604482015290519081900360640190fd5b610ede611ce7565b565b600c54600e5460009114610f255760405162461bcd60e51b815260040180806020018281038252602781526020018061223f6027913960400191505060405180910390fd5b6000805b600c54811015610fc4576000600e8281548110610f4257fe5b600091825260208083209091015480835260129091526040909120549091506001600160a01b03908116908616811415610fba57610fb7610fb06064610faa60108781548110610f8e57fe5b9060005260206000200154600d54611c3390919063ffffffff16565b90611d8a565b8590611bce565b93505b5050600101610f29565b5092915050565b600a5490565b6060601080548060200260200160405190810160405280929190818152602001828054801561101f57602002820191906000526020600020905b81548152602001906001019080831161100b575b5050505050905090565b600054600160a01b900460ff1690565b600b5490565b600d5490565b600a54611050611c2f565b101561108d5760405162461bcd60e51b81526004018080602001828103825260298152602001806122166029913960400191505060405180910390fd5b611095611c8c565b6001600160a01b03166110a661170c565b6001600160a01b0316146110ef576040805162461bcd60e51b81526020600482018190526024820152600080516020612287833981519152604482015290519081900360640190fd5b600e541561112e5760405162461bcd60e51b815260040180806020018281038252602e8152602001806122a7602e913960400191505060405180910390fd5b600554600b54600c54604080516337347e0560e11b815260048101939093526024830191909152516001600160a01b0390921691636e68fc0a91604480820192600092909190829003018186803b15801561118857600080fd5b505afa15801561119c573d6000803e3d6000fd5b505050506040513d6000823e601f3d908101601f1916820160405260208110156111c557600080fd5b8101908080516040519392919084600160201b8211156111e457600080fd5b9083019060208201858111156111f957600080fd5b82518660208202830111600160201b8211171561121557600080fd5b82525081516020918201928201910280838360005b8381101561124257818101518382015260200161122a565b50505050919091016040525050825161126393600e93506020019150612148565b506010805460009190600019810190811061127a57fe5b906000526020600020015411156112cc57600254601080546112cc926001600160a01b0316916112b991606491610faa916000198101908110610f8e57fe5b6004546001600160a01b03169190611c90565b601080546000919060011981019081106112e257fe5b906000526020600020015411156113215760035460108054611321926001600160a01b0316916112b991606491610faa916001198101908110610f8e57fe5b7fb0f137151d6582b5d3bf7c348610be27187d15bbb0d28e553cb95e9cbcf30ba5600e6040518080602001828103825283818154815260200191508054801561138957602002820191906000526020600020905b815481526020019060010190808311611375575b50509250505060405180910390a1565b6000600460009054906101000a90046001600160a01b03166001600160a01b031663313ce5676040518163ffffffff1660e01b815260040160206040518083038186803b1580156113e957600080fd5b505afa1580156113fd573d6000803e3d6000fd5b505050506040513d602081101561141357600080fd5b5051905090565b6000600954611427611c2f565b1015801561143d5750600a5461143b611c2f565b105b905090565b60115490565b611450611c8c565b6001600160a01b031661146161170c565b6001600160a01b0316146114aa576040805162461bcd60e51b81526020600482018190526024820152600080516020612287833981519152604482015290519081900360640190fd5b600080546040516001600160a01b03909116907f8be0079c531659141344cd1fd0a4f28419497f9722a3daafe3b4186f6b6457e0908390a3600080546001600160a01b0319169055565b60085490565b6060808267ffffffffffffffff8111801561151457600080fd5b5060405190808252806020026020018201604052801561153e578160200160208202803683370190505b50905060005b838110156115b457600060128187878581811061155d57fe5b90506020020135815260200190815260200160002060009054906101000a90046001600160a01b03166001600160a01b03161482828151811061159c57fe5b91151560209283029190910190910152600101611544565b5090505b92915050565b60065460408051633942720b60e11b815290516060926001600160a01b031691637284e416916004808301926000929190829003018186803b158015610d7a57600080fd5b600c54600e54606091146116485760405162461bcd60e51b815260040180806020018281038252602781526020018061223f6027913960400191505060405180910390fd5b600e80548060200260200160405190810160405280929190818152602001828054801561101f576020028201919060005260206000209081548152602001906001019080831161100b575050505050905090565b6116a4611c8c565b6001600160a01b03166116b561170c565b6001600160a01b0316146116fe576040805162461bcd60e51b81526020600482018190526024820152600080516020612287833981519152604482015290519081900360640190fd5b610ede611df1565b600f5490565b6000546001600160a01b031690565b6006546001600160a01b031690565b600190565b60075490565b6006546040805163ab6167d360e01b815290516060926001600160a01b03169163ab6167d3916004808301926000929190829003018186803b158015610d7a57600080fd5b600a54611785611c2f565b10156117c25760405162461bcd60e51b81526004018080602001828103825260298152602001806122166029913960400191505060405180910390fd5b600c54600e54146118045760405162461bcd60e51b815260040180806020018281038252602781526020018061223f6027913960400191505060405180910390fd5b3360009081526014602052604081205460ff1615611869576040805162461bcd60e51b815260206004820152601860248201527f4c6f74746572793a20416c726561647920436c61696d65640000000000000000604482015290519081900360640190fd5b336001600160a01b031660126000600e60008154811061188557fe5b600091825260208083209091015483528201929092526040019020546001600160a01b031614156119255760065460085460408051632142170760e11b81523060048201523360248201526044810192909252516001600160a01b03909216916342842e0e9160648082019260009290919082900301818387803b15801561190c57600080fd5b505af1158015611920573d6000803e3d6000fd5b505050505b60005b600c54811015611996576000600e828154811061194157fe5b600091825260208083209091015480835260129091526040909120549091506001600160a01b03163381141561198c57611989610fb06064610faa60108781548110610f8e57fe5b93505b5050600101611928565b50600480546040805163a9059cbb60e01b8152339381019390935260248301849052516001600160a01b039091169163a9059cbb9160448083019260209291908290030181600087803b1580156119ec57600080fd5b505af1158015611a00573d6000803e3d6000fd5b505050506040513d6020811015611a1657600080fd5b505033600081815260146020908152604091829020805460ff19166001179055815192835290517fea61a2a22523394f29506de20cc9db2e881f096477982d51012058ec9032714a9281900390910190a150565b6000600a54611a77611c2f565b1015905090565b600f540290565b601154600b54600a0a0390565b6000908152601260205260409020546001600160a01b03161590565b6001600160a01b031660009081526014602052604090205460ff1690565b611ad4611c8c565b6001600160a01b0316611ae561170c565b6001600160a01b031614611b2e576040805162461bcd60e51b81526020600482018190526024820152600080516020612287833981519152604482015290519081900360640190fd5b6001600160a01b038116611b735760405162461bcd60e51b81526004018080602001828103825260268152602001806121ca6026913960400191505060405180910390fd5b600080546040516001600160a01b03808516939216917f8be0079c531659141344cd1fd0a4f28419497f9722a3daafe3b4186f6b6457e091a3600080546001600160a01b0319166001600160a01b0392909216919091179055565b600082820183811015611c28576040805162461bcd60e51b815260206004820152601b60248201527f536166654d6174683a206164646974696f6e206f766572666c6f770000000000604482015290519081900360640190fd5b9392505050565b4290565b600082611c42575060006115b8565b82820282848281611c4f57fe5b0414611c285760405162461bcd60e51b81526004018080602001828103825260218152602001806122666021913960400191505060405180910390fd5b3390565b604080516001600160a01b038416602482015260448082018490528251808303909101815260649091019091526020810180516001600160e01b031663a9059cbb60e01b179052611ce2908490611e7a565b505050565b611cef611029565b611d37576040805162461bcd60e51b815260206004820152601460248201527314185d5cd8589b194e881b9bdd081c185d5cd95960621b604482015290519081900360640190fd5b6000805460ff60a01b191690557f5db9ee0a495bf2e6ff9c91a7834c1ba4fdd244a5e8aa4e537bd38aeae4b073aa611d6d611c8c565b604080516001600160a01b039092168252519081900360200190a1565b6000808211611de0576040805162461bcd60e51b815260206004820152601a60248201527f536166654d6174683a206469766973696f6e206279207a65726f000000000000604482015290519081900360640190fd5b818381611de957fe5b049392505050565b611df9611029565b15611e3e576040805162461bcd60e51b815260206004820152601060248201526f14185d5cd8589b194e881c185d5cd95960821b604482015290519081900360640190fd5b6000805460ff60a01b1916600160a01b1790557f62e78cea01bee320cd4e420270b5ea74000d11b0c9f74754ebdbfc544b05a258611d6d611c8c565b6060611ecf826040518060400160405280602081526020017f5361666545524332303a206c6f772d6c6576656c2063616c6c206661696c6564815250856001600160a01b0316611f2b9092919063ffffffff16565b805190915015611ce257808060200190516020811015611eee57600080fd5b5051611ce25760405162461bcd60e51b815260040180806020018281038252602a8152602001806122d5602a913960400191505060405180910390fd5b6060611f3a8484600085611f42565b949350505050565b606082471015611f835760405162461bcd60e51b81526004018080602001828103825260268152602001806121f06026913960400191505060405180910390fd5b611f8c8561209e565b611fdd576040805162461bcd60e51b815260206004820152601d60248201527f416464726573733a2063616c6c20746f206e6f6e2d636f6e7472616374000000604482015290519081900360640190fd5b60006060866001600160a01b031685876040518082805190602001908083835b6020831061201c5780518252601f199092019160209182019101611ffd565b6001836020036101000a03801982511681845116808217855250505050505090500191505060006040518083038185875af1925050503d806000811461207e576040519150601f19603f3d011682016040523d82523d6000602084013e612083565b606091505b50915091506120938282866120a4565b979650505050505050565b3b151590565b606083156120b3575081611c28565b8251156120c35782518084602001fd5b8160405162461bcd60e51b81526004018080602001828103825283818151815260200191508051906020019080838360005b8381101561210d5781810151838201526020016120f5565b50505050905090810190601f16801561213a5780820380516001836020036101000a031916815260200191505b509250505060405180910390fd5b828054828255906000526020600020908101928215612183579160200282015b82811115612183578251825591602001919060010190612168565b5061218f929150612193565b5090565b5b8082111561218f576000815560010161219456fe4c6f74746572793a205469636b65742073656c6c696e6720697320636c6f7365644f776e61626c653a206e6577206f776e657220697320746865207a65726f2061646472657373416464726573733a20696e73756666696369656e742062616c616e636520666f722063616c6c4c6f74746572793a205469636b65742073656c6c696e67206973206e6f742079657420636c6f7365644c6f74746572793a2057696e6e696e67204e756d62657273206e6f742063686f73656e20796574536166654d6174683a206d756c7469706c69636174696f6e206f766572666c6f774f776e61626c653a2063616c6c6572206973206e6f7420746865206f776e65724c6f74746572793a204861766520616c726561647920647261776e207468652077696e6e696e67206e756d6265725361666545524332303a204552433230206f7065726174696f6e20646964206e6f7420737563636565644c6f74746572793a205469636b65742073656c6c696e67206973206e6f742079657420737461727465644c6f74746572793a205469636b6574204e756d626572206973206f7574206f662072616e6765a2646970667358221220b3c70f94005d58c4d1326912d83e28f07205585dfde292ec3a62ecda6ba4406364736f6c634300060c00334c6f74746572793a2052616e646f6d204e756d6265722047656e657261746f722063616e6e6f74206265203020616464726573734c6f74746572793a204275726e2063616e6e6f74206265203020616464726573734c6f74746572793a2054726561737572792063616e6e6f74206265203020616464726573734c6f74746572793a20466163746f72792063616e6e6f74206265203020616464726573734c6f74746572793a205072697a6520646973747269627574696f6e206973206e6f7420313030254c6f74746572793a20527562792063616e6e6f74206265203020616464726573734f776e61626c653a206e6577206f776e657220697320746865207a65726f20616464726573734c6f7474657279466163746f72793a204275726e2063616e6e6f74206265203020616464726573734c6f7474657279466163746f72793a20436f6c6c61746572616c2063616e6e6f74206265203020616464726573734c6f7474657279466163746f72793a2054726561737572792063616e6e6f7420626520302061646472657373496e697469616c697a61626c653a20636f6e747261637420697320616c726561647920696e697469616c697a65644c6f7474657279466163746f72793a20527562792063616e6e6f74206265203020616464726573734c6f7474657279466163746f72793a204e66742063616e6e6f74206265203020616464726573734c6f7474657279466163746f72793a20496e76616c696420646973747269627574696f6e4f776e61626c653a2063616c6c6572206973206e6f7420746865206f776e65724c6f7474657279466163746f72793a20727562792063616e6e6f74206265203020616464726573734c6f7474657279466163746f72793a204f776e6572206f66204e465420697320696e76616c69644c6f7474657279466163746f72793a20524e472063616e6e6f74206265203020616464726573734c6f7474657279466163746f72793a2072616e646f6d4e756d62657247656e657261746f722063616e6e6f7420626520302061646472657373a26469706673582212204b5a99b7194e22a7dfeb78bfd381696a0de5d709c361f633d0d956e43189c25264736f6c634300060c0033",
  "devdoc": {
    "kind": "dev",
    "methods": {
      "createNewLotto(address,address,uint256,uint256,uint256,uint256[],uint256)": {
        "params": {
          "_collateral": "The ERC20 address for token to buy tickets",
          "_distribution": "An array defining the distribution of the prize pool.",
          "_duration": "The duration until no more tickets will be sold for the lottery from now.",
          "_lotterySize": "Digit count of ticket.",
          "_nft": "The NFT address for bonus.",
          "_ticketPrice": "Cost per ticket in $ruby.",
          "_tokenId": "The Bonus NFT ID."
        }
      },
      "owner()": {
        "details": "Returns the address of the current owner."
      },
      "renounceOwnership()": {
        "details": "Leaves the contract without owner. It will not be possible to call `onlyOwner` functions anymore. Can only be called by the current owner. NOTE: Renouncing ownership will leave the contract without an owner, thereby removing any functionality that is only available to the owner."
      },
      "transferOwnership(address)": {
        "details": "Transfers ownership of the contract to a new account (`newOwner`). Can only be called by the current owner."
      }
    },
    "version": 1
  },
  "userdoc": {
    "kind": "user",
    "methods": {
      "createNewLotto(address,address,uint256,uint256,uint256,uint256[],uint256)": {
        "notice": "Create a new Lottery instance."
      }
    },
    "version": 1
  },
  "storageLayout": {
    "storage": [
      {
        "astId": 705,
        "contract": "contracts/lottery/LotteryFactory.sol:LotteryFactory",
        "label": "_initialized",
        "offset": 0,
        "slot": "0",
        "type": "t_bool"
      },
      {
        "astId": 708,
        "contract": "contracts/lottery/LotteryFactory.sol:LotteryFactory",
        "label": "_initializing",
        "offset": 1,
        "slot": "0",
        "type": "t_bool"
      },
      {
        "astId": 2910,
        "contract": "contracts/lottery/LotteryFactory.sol:LotteryFactory",
        "label": "__gap",
        "offset": 0,
        "slot": "1",
        "type": "t_array(t_uint256)50_storage"
      },
      {
        "astId": 136,
        "contract": "contracts/lottery/LotteryFactory.sol:LotteryFactory",
        "label": "_owner",
        "offset": 0,
        "slot": "51",
        "type": "t_address"
      },
      {
        "astId": 255,
        "contract": "contracts/lottery/LotteryFactory.sol:LotteryFactory",
        "label": "__gap",
        "offset": 0,
        "slot": "52",
        "type": "t_array(t_uint256)49_storage"
      },
      {
        "astId": 21781,
        "contract": "contracts/lottery/LotteryFactory.sol:LotteryFactory",
        "label": "ruby",
        "offset": 0,
        "slot": "101",
        "type": "t_address"
      },
      {
        "astId": 21783,
        "contract": "contracts/lottery/LotteryFactory.sol:LotteryFactory",
        "label": "RNG",
        "offset": 0,
        "slot": "102",
        "type": "t_address"
      },
      {
        "astId": 21785,
        "contract": "contracts/lottery/LotteryFactory.sol:LotteryFactory",
        "label": "treasury",
        "offset": 0,
        "slot": "103",
        "type": "t_address"
      },
      {
        "astId": 21787,
        "contract": "contracts/lottery/LotteryFactory.sol:LotteryFactory",
        "label": "burn",
        "offset": 0,
        "slot": "104",
        "type": "t_address"
      },
      {
        "astId": 21794,
        "contract": "contracts/lottery/LotteryFactory.sol:LotteryFactory",
        "label": "allLotteries",
        "offset": 0,
        "slot": "105",
        "type": "t_mapping(t_uint256,t_contract(Lottery)21670)"
      },
      {
        "astId": 21796,
        "contract": "contracts/lottery/LotteryFactory.sol:LotteryFactory",
        "label": "lotteryId",
        "offset": 0,
        "slot": "106",
        "type": "t_uint256"
      }
    ],
    "types": {
      "t_address": {
        "encoding": "inplace",
        "label": "address",
        "numberOfBytes": "20"
      },
      "t_array(t_uint256)49_storage": {
        "base": "t_uint256",
        "encoding": "inplace",
        "label": "uint256[49]",
        "numberOfBytes": "1568"
      },
      "t_array(t_uint256)50_storage": {
        "base": "t_uint256",
        "encoding": "inplace",
        "label": "uint256[50]",
        "numberOfBytes": "1600"
      },
      "t_bool": {
        "encoding": "inplace",
        "label": "bool",
        "numberOfBytes": "1"
      },
      "t_contract(Lottery)21670": {
        "encoding": "inplace",
        "label": "contract Lottery",
        "numberOfBytes": "20"
      },
      "t_mapping(t_uint256,t_contract(Lottery)21670)": {
        "encoding": "mapping",
        "key": "t_uint256",
        "label": "mapping(uint256 => contract Lottery)",
        "numberOfBytes": "32",
        "value": "t_contract(Lottery)21670"
      },
      "t_uint256": {
        "encoding": "inplace",
        "label": "uint256",
        "numberOfBytes": "32"
      }
    }
  }
}