{
  "address": "0xA72Fc5686cc618F871A27dc99d397E354AE07503",
  "abi": [
    {
      "anonymous": false,
      "inputs": [
        {
          "indexed": false,
          "internalType": "uint256",
          "name": "_lotteryId",
          "type": "uint256"
        }
      ],
      "name": "LotteryCreated",
      "type": "event"
    },
    {
      "anonymous": false,
      "inputs": [
        {
          "indexed": true,
          "internalType": "address",
          "name": "previousOwner",
          "type": "address"
        },
        {
          "indexed": true,
          "internalType": "address",
          "name": "newOwner",
          "type": "address"
        }
      ],
      "name": "OwnershipTransferred",
      "type": "event"
    },
    {
      "inputs": [
        {
          "internalType": "uint256",
          "name": "_ticketSize",
          "type": "uint256"
        }
      ],
      "name": "costToBuyTickets",
      "outputs": [
        {
          "internalType": "uint256",
          "name": "",
          "type": "uint256"
        }
      ],
      "stateMutability": "view",
      "type": "function"
    },
    {
      "inputs": [
        {
          "internalType": "address",
          "name": "_collateral",
          "type": "address"
        },
        {
          "internalType": "address",
          "name": "_nft",
          "type": "address"
        },
        {
          "internalType": "uint256",
          "name": "_tokenId",
          "type": "uint256"
        },
        {
          "internalType": "uint256",
          "name": "_lotterySize",
          "type": "uint256"
        },
        {
          "internalType": "uint256",
          "name": "_ticketPrice",
          "type": "uint256"
        },
        {
          "internalType": "uint256[]",
          "name": "_distribution",
          "type": "uint256[]"
        },
        {
          "internalType": "uint256",
          "name": "_duration",
          "type": "uint256"
        }
      ],
      "name": "createNewLotto",
      "outputs": [],
      "stateMutability": "nonpayable",
      "type": "function"
    },
    {
      "inputs": [],
      "name": "getBurn",
      "outputs": [
        {
          "internalType": "address",
          "name": "",
          "type": "address"
        }
      ],
      "stateMutability": "view",
      "type": "function"
    },
    {
      "inputs": [],
      "name": "getCurrentLotto",
      "outputs": [
        {
          "internalType": "address",
          "name": "",
          "type": "address"
        }
      ],
      "stateMutability": "view",
      "type": "function"
    },
    {
      "inputs": [],
      "name": "getCurrentLottoryId",
      "outputs": [
        {
          "internalType": "uint256",
          "name": "",
          "type": "uint256"
        }
      ],
      "stateMutability": "view",
      "type": "function"
    },
    {
      "inputs": [
        {
          "internalType": "uint256",
          "name": "_lotteryId",
          "type": "uint256"
        }
      ],
      "name": "getLotto",
      "outputs": [
        {
          "internalType": "address",
          "name": "",
          "type": "address"
        }
      ],
      "stateMutability": "view",
      "type": "function"
    },
    {
      "inputs": [],
      "name": "getRNG",
      "outputs": [
        {
          "internalType": "address",
          "name": "",
          "type": "address"
        }
      ],
      "stateMutability": "view",
      "type": "function"
    },
    {
      "inputs": [
        {
          "internalType": "address",
          "name": "to",
          "type": "address"
        }
      ],
      "name": "getRewardAmount",
      "outputs": [
        {
          "internalType": "uint256",
          "name": "",
          "type": "uint256"
        }
      ],
      "stateMutability": "view",
      "type": "function"
    },
    {
      "inputs": [
        {
          "internalType": "address",
          "name": "to",
          "type": "address"
        }
      ],
      "name": "getRewardNFT",
      "outputs": [
        {
          "internalType": "bool",
          "name": "",
          "type": "bool"
        }
      ],
      "stateMutability": "view",
      "type": "function"
    },
    {
      "inputs": [],
      "name": "getRuby",
      "outputs": [
        {
          "internalType": "address",
          "name": "",
          "type": "address"
        }
      ],
      "stateMutability": "view",
      "type": "function"
    },
    {
      "inputs": [],
      "name": "getTreasury",
      "outputs": [
        {
          "internalType": "address",
          "name": "",
          "type": "address"
        }
      ],
      "stateMutability": "view",
      "type": "function"
    },
    {
      "inputs": [],
      "name": "getWinningNumbers",
      "outputs": [
        {
          "internalType": "uint256[]",
          "name": "",
          "type": "uint256[]"
        }
      ],
      "stateMutability": "view",
      "type": "function"
    },
    {
      "inputs": [
        {
          "internalType": "address",
          "name": "_ruby",
          "type": "address"
        },
        {
          "internalType": "address",
          "name": "_randomNumberGenerator",
          "type": "address"
        },
        {
          "internalType": "address",
          "name": "_treasury",
          "type": "address"
        },
        {
          "internalType": "address",
          "name": "_burn",
          "type": "address"
        }
      ],
      "name": "initialize",
      "outputs": [],
      "stateMutability": "nonpayable",
      "type": "function"
    },
    {
      "inputs": [],
      "name": "owner",
      "outputs": [
        {
          "internalType": "address",
          "name": "",
          "type": "address"
        }
      ],
      "stateMutability": "view",
      "type": "function"
    },
    {
      "inputs": [],
      "name": "renounceOwnership",
      "outputs": [],
      "stateMutability": "nonpayable",
      "type": "function"
    },
    {
      "inputs": [
        {
          "internalType": "address",
          "name": "_burn",
          "type": "address"
        }
      ],
      "name": "setBurn",
      "outputs": [],
      "stateMutability": "nonpayable",
      "type": "function"
    },
    {
      "inputs": [
        {
          "internalType": "address",
          "name": "_RNG",
          "type": "address"
        }
      ],
      "name": "setRNG",
      "outputs": [],
      "stateMutability": "nonpayable",
      "type": "function"
    },
    {
      "inputs": [
        {
          "internalType": "address",
          "name": "_ruby",
          "type": "address"
        }
      ],
      "name": "setRuby",
      "outputs": [],
      "stateMutability": "nonpayable",
      "type": "function"
    },
    {
      "inputs": [
        {
          "internalType": "address",
          "name": "_treasury",
          "type": "address"
        }
      ],
      "name": "setTreasury",
      "outputs": [],
      "stateMutability": "nonpayable",
      "type": "function"
    },
    {
      "inputs": [
        {
          "internalType": "address",
          "name": "newOwner",
          "type": "address"
        }
      ],
      "name": "transferOwnership",
      "outputs": [],
      "stateMutability": "nonpayable",
      "type": "function"
    }
  ],
  "transactionHash": "0x66f05b718220c063d946cc237d78f693cb3a313be2cfc9f1ebddcb9230a1b9c0",
  "args": [],
  "numDeployments": 1,
  "solcInputHash": "430412a766b86909dd748f0fa01309e5",
  "bytecode": "0x608060405234801561001057600080fd5b5061422c806100206000396000f3fe60806040523480156200001157600080fd5b5060043610620001475760003560e01c80638da5cb5b11620000bd578063d2941c7f116200007b578063d2941c7f1462000329578063db51ccdb1462000349578063f0f4426014620003eb578063f2fde38b1462000414578063f8c8765e146200043d5762000147565b80638da5cb5b14620002d8578063aced73bd14620002e2578063b661c637146200030b578063b8ccaedd1462000315578063bb53cdbc146200031f5762000147565b806353a1ec43116200010b57806353a1ec4314620002355780636a8dfd3a146200023f578063715018a6146200024957806384350e1d1462000253578063868ca68e14620002af5762000147565b80621ace93146200014c5780630c65747814620001895780633b19e84a14620001c55780633b84edbd14620001cf57806344a040f514620001fa575b600080fd5b62000175600480360360208110156200016457600080fd5b50356001600160a01b03166200047e565b604080519115158252519081900360200190f35b620001a960048036036020811015620001a157600080fd5b50356200050a565b604080516001600160a01b039092168252519081900360200190f35b620001a962000525565b620001f860048036036020811015620001e757600080fd5b50356001600160a01b031662000534565b005b62000223600480360360208110156200021257600080fd5b50356001600160a01b031662000605565b60408051918252519081900360200190f35b620001a96200065e565b620001a96200066d565b620001f86200068b565b6200025d6200073d565b60408051602080825283518183015283519192839290830191858101910280838360005b838110156200029b57818101518382015260200162000281565b505050509050019250505060405180910390f35b620001f860048036036020811015620002c757600080fd5b50356001600160a01b031662000857565b620001a962000928565b620001f860048036036020811015620002fa57600080fd5b50356001600160a01b031662000937565b6200022362000a08565b620001a962000a0e565b620001a962000a1d565b62000223600480360360208110156200034157600080fd5b503562000a2c565b620001f8600480360360e08110156200036157600080fd5b6001600160a01b0382358116926020810135909116916040820135916060810135916080820135919081019060c0810160a0820135640100000000811115620003a957600080fd5b820183602082011115620003bc57600080fd5b80359060200191846020830284011164010000000083111715620003df57600080fd5b91935091503562000a7c565b620001f8600480360360208110156200040357600080fd5b50356001600160a01b031662000f30565b620001f8600480360360208110156200042c57600080fd5b50356001600160a01b031662001001565b620001f8600480360360808110156200045557600080fd5b506001600160a01b0381358116916020810135821691604082013581169160600135166200110c565b60006200048a6200066d565b6001600160a01b0316621ace93836040518263ffffffff1660e01b815260040180826001600160a01b0316815260200191505060206040518083038186803b158015620004d657600080fd5b505afa158015620004eb573d6000803e3d6000fd5b505050506040513d60208110156200050257600080fd5b505192915050565b6000908152606960205260409020546001600160a01b031690565b6067546001600160a01b031690565b6200053e6200132a565b6001600160a01b03166200055162000928565b6001600160a01b0316146200059c576040805162461bcd60e51b8152602060048201819052602482015260008051602062004128833981519152604482015290519081900360640190fd5b6001600160a01b038116620005e35760405162461bcd60e51b8152600401808060200182810382526027815260200180620041976027913960400191505060405180910390fd5b606680546001600160a01b0319166001600160a01b0392909216919091179055565b6000620006116200066d565b6001600160a01b03166344a040f5836040518263ffffffff1660e01b815260040180826001600160a01b0316815260200191505060206040518083038186803b158015620004d657600080fd5b6065546001600160a01b031690565b606a546000908152606960205260409020546001600160a01b031690565b620006956200132a565b6001600160a01b0316620006a862000928565b6001600160a01b031614620006f3576040805162461bcd60e51b8152602060048201819052602482015260008051602062004128833981519152604482015290519081900360640190fd5b6033546040516000916001600160a01b0316907f8be0079c531659141344cd1fd0a4f28419497f9722a3daafe3b4186f6b6457e0908390a3603380546001600160a01b0319169055565b6060620007496200066d565b6001600160a01b03166384350e1d6040518163ffffffff1660e01b815260040160006040518083038186803b1580156200078257600080fd5b505afa15801562000797573d6000803e3d6000fd5b505050506040513d6000823e601f3d908101601f191682016040526020811015620007c157600080fd5b8101908080516040519392919084640100000000821115620007e257600080fd5b908301906020820185811115620007f857600080fd5b82518660208202830111640100000000821117156200081657600080fd5b82525081516020918201928201910280838360005b83811015620008455781810151838201526020016200082b565b50505050905001604052505050905090565b620008616200132a565b6001600160a01b03166200087462000928565b6001600160a01b031614620008bf576040805162461bcd60e51b8152602060048201819052602482015260008051602062004128833981519152604482015290519081900360640190fd5b6001600160a01b038116620009065760405162461bcd60e51b8152600401808060200182810382526028815260200180620040b56028913960400191505060405180910390fd5b606580546001600160a01b0319166001600160a01b0392909216919091179055565b6033546001600160a01b031690565b620009416200132a565b6001600160a01b03166200095462000928565b6001600160a01b0316146200099f576040805162461bcd60e51b8152602060048201819052602482015260008051602062004128833981519152604482015290519081900360640190fd5b6001600160a01b038116620009e65760405162461bcd60e51b8152600401808060200182810382526028815260200180620040056028913960400191505060405180910390fd5b606880546001600160a01b0319166001600160a01b0392909216919091179055565b606a5490565b6068546001600160a01b031690565b6066546001600160a01b031690565b600062000a386200066d565b6001600160a01b031663d2941c7f836040518263ffffffff1660e01b81526004018082815260200191505060206040518083038186803b158015620004d657600080fd5b62000a866200132a565b6001600160a01b031662000a9962000928565b6001600160a01b03161462000ae4576040805162461bcd60e51b8152602060048201819052602482015260008051602062004128833981519152604482015290519081900360640190fd5b6001600160a01b03881662000b2b5760405162461bcd60e51b815260040180806020018281038252602e8152602001806200402d602e913960400191505060405180910390fd5b6001600160a01b03871662000b725760405162461bcd60e51b8152600401808060200182810382526027815260200180620040dd6027913960400191505060405180910390fd5b6002821162000bb35760405162461bcd60e51b8152600401808060200182810382526024815260200180620041046024913960400191505060405180910390fd5b600c82111562000bf55760405162461bcd60e51b8152600401808060200182810382526024815260200180620041046024913960400191505060405180910390fd5b336001600160a01b0316876001600160a01b0316636352211e886040518263ffffffff1660e01b81526004018082815260200191505060206040518083038186803b15801562000c4457600080fd5b505afa15801562000c59573d6000803e3d6000fd5b505050506040513d602081101562000c7057600080fd5b50516001600160a01b03161462000cb95760405162461bcd60e51b8152600401808060200182810382526027815260200180620041706027913960400191505060405180910390fd5b606a8054600101905560655460685460675460665460405130946001600160a01b03908116948d948d948d948d948d948d9490821693908216928d929091169062000d0490620015b0565b808d6001600160a01b031681526020018c6001600160a01b031681526020018b6001600160a01b031681526020018a815260200189815260200188815260200180602001866001600160a01b03168152602001856001600160a01b03168152602001848152602001836001600160a01b031681526020018281038252888882818152602001925060200280828437600081840152601f19601f8201169050808301925050509d5050505050505050505050505050604051809103906000f08015801562000dd5573d6000803e3d6000fd5b50606a805460009081526069602052604080822080546001600160a01b0319166001600160a01b039586161790559154815220541663f2fde38b62000e1962000928565b6040518263ffffffff1660e01b815260040180826001600160a01b03168152602001915050600060405180830381600087803b15801562000e5957600080fd5b505af115801562000e6e573d6000803e3d6000fd5b5050606a546000908152606960205260408082205481516323b872dd60e01b81523360048201526001600160a01b039182166024820152604481018c90529151908c1694506323b872dd93506064808301939282900301818387803b15801562000ed757600080fd5b505af115801562000eec573d6000803e3d6000fd5b5050606a5460408051918252517f9e0023bebcc752baaa41057318405b5a6a8e9c6372b519717cfdf238e5caa7959350908190036020019150a15050505050505050565b62000f3a6200132a565b6001600160a01b031662000f4d62000928565b6001600160a01b03161462000f98576040805162461bcd60e51b8152602060048201819052602482015260008051602062004128833981519152604482015290519081900360640190fd5b6001600160a01b03811662000fdf5760405162461bcd60e51b815260040180806020018281038252602c8152602001806200405b602c913960400191505060405180910390fd5b606780546001600160a01b0319166001600160a01b0392909216919091179055565b6200100b6200132a565b6001600160a01b03166200101e62000928565b6001600160a01b03161462001069576040805162461bcd60e51b8152602060048201819052602482015260008051602062004128833981519152604482015290519081900360640190fd5b6001600160a01b038116620010b05760405162461bcd60e51b815260040180806020018281038252602681526020018062003fdf6026913960400191505060405180910390fd5b6033546040516001600160a01b038084169216907f8be0079c531659141344cd1fd0a4f28419497f9722a3daafe3b4186f6b6457e090600090a3603380546001600160a01b0319166001600160a01b0392909216919091179055565b600054610100900460ff1680620011285750620011286200132e565b8062001137575060005460ff16155b620011745760405162461bcd60e51b815260040180806020018281038252602e81526020018062004087602e913960400191505060405180910390fd5b600054610100900460ff16158015620011a0576000805460ff1961ff0019909116610100171660011790555b6001600160a01b038516620011e75760405162461bcd60e51b8152600401808060200182810382526028815260200180620041486028913960400191505060405180910390fd5b6001600160a01b0384166200122e5760405162461bcd60e51b8152600401808060200182810382526039815260200180620041be6039913960400191505060405180910390fd5b6001600160a01b038316620012755760405162461bcd60e51b815260040180806020018281038252602c8152602001806200405b602c913960400191505060405180910390fd5b6001600160a01b038216620012bc5760405162461bcd60e51b8152600401808060200182810382526028815260200180620040056028913960400191505060405180910390fd5b606580546001600160a01b038088166001600160a01b031992831617909255606680548784169083161790556067805486841690831617905560688054928516929091169190911790556200131062001341565b801562001323576000805461ff00191690555b5050505050565b3390565b60006200133b30620013ff565b15905090565b600054610100900460ff16806200135d57506200135d6200132e565b806200136c575060005460ff16155b620013a95760405162461bcd60e51b815260040180806020018281038252602e81526020018062004087602e913960400191505060405180910390fd5b600054610100900460ff16158015620013d5576000805460ff1961ff0019909116610100171660011790555b620013df62001405565b620013e9620014ad565b8015620013fc576000805461ff00191690555b50565b3b151590565b600054610100900460ff1680620014215750620014216200132e565b8062001430575060005460ff16155b6200146d5760405162461bcd60e51b815260040180806020018281038252602e81526020018062004087602e913960400191505060405180910390fd5b600054610100900460ff16158015620013e9576000805460ff1961ff0019909116610100171660011790558015620013fc576000805461ff001916905550565b600054610100900460ff1680620014c95750620014c96200132e565b80620014d8575060005460ff16155b620015155760405162461bcd60e51b815260040180806020018281038252602e81526020018062004087602e913960400191505060405180910390fd5b600054610100900460ff1615801562001541576000805460ff1961ff0019909116610100171660011790555b60006200154d6200132a565b603380546001600160a01b0319166001600160a01b038316908117909155604051919250906000907f8be0079c531659141344cd1fd0a4f28419497f9722a3daafe3b4186f6b6457e0908290a3508015620013fc576000805461ff001916905550565b612a2080620015bf8339019056fe60806040523480156200001157600080fd5b5060405162002a2038038062002a2083398181016040526101608110156200003857600080fd5b815160208301516040808501516060860151608087015160a088015160c089018051955197999698949793969295919483019291846401000000008211156200008057600080fd5b9083019060208201858111156200009657600080fd5b8251866020820283011164010000000082111715620000b457600080fd5b82525081516020918201928201910280838360005b83811015620000e3578181015183820152602001620000c9565b505050509190910160409081526020830151908301516060840151608090940151919550935090506000620001176200051c565b600080546001600160a01b0319166001600160a01b0383169081178255604051929350917f8be0079c531659141344cd1fd0a4f28419497f9722a3daafe3b4186f6b6457e0908290a3506000805460ff60a01b191690556001600160a01b038b16620001b55760405162461bcd60e51b8152600401808060200182810382526024815260200180620029b46024913960400191505060405180910390fd5b6001600160a01b038a16620001fc5760405162461bcd60e51b8152600401808060200182810382526021815260200180620029ff6021913960400191505060405180910390fd5b6001600160a01b03891662000258576040805162461bcd60e51b815260206004820181905260248201527f4c6f74746572793a204e66742063616e6e6f7420626520302061646472657373604482015290519081900360640190fd5b6001600160a01b0381166200029f5760405162461bcd60e51b81526004018080602001828103825260348152602001806200293a6034913960400191505060405180910390fd5b6001600160a01b038316620002e65760405162461bcd60e51b81526004018080602001828103825260258152602001806200298f6025913960400191505060405180910390fd5b6001600160a01b0384166200032d5760405162461bcd60e51b81526004018080602001828103825260218152602001806200296e6021913960400191505060405180910390fd5b60038551101562000385576040805162461bcd60e51b815260206004820152601d60248201527f4c6f74746572793a20496e76616c696420646973747269627574696f6e000000604482015290519081900360640190fd5b8451600c1015620003dd576040805162461bcd60e51b815260206004820152601d60248201527f4c6f74746572793a20496e76616c696420646973747269627574696f6e000000604482015290519081900360640190fd5b845160011901600b556000805b86518110156200042d57620004228782815181106200040557fe5b6020026020010151836200052060201b62001b871790919060201c565b9150600101620003ea565b50806064146200046f5760405162461bcd60e51b8152600401808060200182810382526027815260200180620029d86027913960400191505060405180910390fd5b600180546001600160a01b03199081166001600160a01b038f8116919091179092556004805482168e84161790556005805482168584161790556006805482168d841617905560078b905560028054821687841617905560038054909116918716919091179055600e879055600a889055620004ea62000582565b6008819055830160095585516200050990600f90602089019062000586565b50505050505050505050505050620005ed565b3390565b6000828201838110156200057b576040805162461bcd60e51b815260206004820152601b60248201527f536166654d6174683a206164646974696f6e206f766572666c6f770000000000604482015290519081900360640190fd5b9392505050565b4290565b828054828255906000526020600020908101928215620005c4579160200282015b82811115620005c4578251825591602001919060010190620005a7565b50620005d2929150620005d6565b5090565b5b80821115620005d25760008155600101620005d7565b61233d80620005fd6000396000f3fe608060405234801561001057600080fd5b50600436106102265760003560e01c80636ed01ce211610130578063932eb678116100b8578063d2941c7f1161007c578063d2941c7f1461058c578063da649e6b146105a9578063e8eedc08146105b1578063eb46260e146105ce578063f2fde38b146105f457610226565b8063932eb678146105645780639b6a1c401461056c578063b422437114610574578063b88a802f1461057c578063c2b6b58c1461058457610226565b806376c9772c116100ff57806376c9772c1461052057806384350e1d146105285780638456cb591461053057806387bb7ae0146105385780638da5cb5b1461054057610226565b80636ed01ce21461049a578063715018a6146104a25780637420901c146104aa57806375329a99146104b257610226565b806344a040f5116101b35780635edc958d116101825780635edc958d1461045c578063601dd0e514610464578063608620aa1461046c57806368d90d5e14610474578063692aa97e1461049257610226565b806344a040f51461041e578063477601b8146104445780635659f5821461044c5780635c975abb1461045457610226565b80632f3f8d23116101fa5780632f3f8d231461036f578063329398e4146103775780633750c195146103915780633c2bcadc1461040e5780633f4ba83a1461041657610226565b80621ace931461022b5780630ad182bc146102655780630b2e6691146102db5780632e1a7d4d14610352575b600080fd5b6102516004803603602081101561024157600080fd5b50356001600160a01b031661061a565b604080519115158252519081900360200190f35b61028b6004803603602081101561027b57600080fd5b50356001600160a01b03166106b7565b60408051602080825283518183015283519192839290830191858101910280838360005b838110156102c75781810151838201526020016102af565b505050509050019250505060405180910390f35b610350600480360360408110156102f157600080fd5b81359190810190604081016020820135600160201b81111561031257600080fd5b82018360208201111561032457600080fd5b803590602001918460208302840111600160201b8311171561034557600080fd5b509092509050610723565b005b6103506004803603602081101561036857600080fd5b5035610b2a565b61028b610be8565b61037f610cef565b60408051918252519081900360200190f35b610399610cf5565b6040805160208082528351818301528351919283929083019185019080838360005b838110156103d35781810151838201526020016103bb565b50505050905090810190601f1680156104005780820380516001836020036101000a031916815260200191505b509250505060405180910390f35b610251610e35565b610350610e3f565b61037f6004803603602081101561043457600080fd5b50356001600160a01b0316610eab565b61037f610f96565b61028b610f9c565b610251610ff4565b61037f611004565b61037f61100a565b610350611010565b61047c61135b565b6040805160ff9092168252519081900360200190f35b6102516113dc565b61037f611404565b61035061140a565b61037f6114b6565b61028b600480360360208110156104c857600080fd5b810190602081018135600160201b8111156104e257600080fd5b8201836020820111156104f457600080fd5b803590602001918460208302840111600160201b8311171561051557600080fd5b5090925090506114bc565b610399611580565b61028b6115c5565b61035061165e565b61037f6116c8565b6105486116ce565b604080516001600160a01b039092168252519081900360200190f35b6105486116dd565b6102516116ec565b6103996116f1565b610350611736565b610251611a26565b61037f600480360360208110156105a257600080fd5b5035611a3a565b61037f611a41565b610251600480360360208110156105c757600080fd5b5035611a4b565b610251600480360360208110156105e457600080fd5b50356001600160a01b0316611a67565b6103506004803603602081101561060a57600080fd5b50356001600160a01b0316611a85565b600b54600d546000911461065f5760405162461bcd60e51b81526004018080602001828103825260278152602001806121f86027913960400191505060405180910390fd5b816001600160a01b031660116000600d60008154811061067b57fe5b600091825260208083209091015483528201929092526040019020546001600160a01b031614156106ae575060016106b2565b5060005b919050565b6001600160a01b03811660009081526012602090815260409182902080548351818402810184019094528084526060939283018282801561071757602002820191906000526020600020905b815481526020019060010190808311610703575b50505050509050919050565b60085461072e611be8565b101561076b5760405162461bcd60e51b815260040180806020018281038252602a8152602001806122b8602a913960400191505060405180910390fd5b600954610776611be8565b106107b25760405162461bcd60e51b81526004018080602001828103825260218152602001806121626021913960400191505060405180910390fd5b6107ba610ff4565b156107ff576040805162461bcd60e51b815260206004820152601060248201526f14185d5cd8589b194e881c185d5cd95960821b604482015290519081900360640190fd5b808314610853576040805162461bcd60e51b815260206004820152601f60248201527f4c6f74746572793a20496e76616c69642063686f73656e206e756d6265727300604482015290519081900360640190fd5b60608367ffffffffffffffff8111801561086c57600080fd5b50604051908082528060200260200182016040528015610896578160200160208202803683370190505b5090506000805b8381101561096357600a54600a0a8585838181106108b757fe5b90506020020135106108fa5760405162461bcd60e51b81526004018080602001828103825260268152602001806122e26026913960400191505060405180910390fd5b600060118187878581811061090b57fe5b60209081029290920135835250810191909152604001600020546001600160a01b0316141561095b57600183828151811061094257fe5b6020026020010190151590811515815250506001820191505b60010161089d565b50600061097b600e5483611bec90919063ffffffff16565b60048054604080516323b872dd60e01b8152339381019390935230602484015260448301849052519293506001600160a01b0316916323b872dd916064808201926020929091908290030181600087803b1580156109d857600080fd5b505af11580156109ec573d6000803e3d6000fd5b505050506040513d6020811015610a0257600080fd5b5050600c54610a119082611b87565b600c5560005b84811015610ade57838181518110610a2b57fe5b602002602001015115610ad6573360116000888885818110610a4957fe5b90506020020135815260200190815260200160002060006101000a8154816001600160a01b0302191690836001600160a01b0316021790555060126000336001600160a01b03166001600160a01b03168152602001908152602001600020868683818110610ab357fe5b835460018101855560009485526020948590209190940292909201359190920155505b600101610a17565b506010805483019055604080513381526020810184905281517f525b180638b7ca5cfb6b9e8c89581f1b6c731bfd617e813450f4b52c44d07bc5929181900390910190a1505050505050565b600b54600d5414610b6c5760405162461bcd60e51b81526004018080602001828103825260278152602001806121f86027913960400191505060405180910390fd5b610b74611c45565b6001600160a01b0316610b856116ce565b6001600160a01b031614610bce576040805162461bcd60e51b81526020600482018190526024820152600080516020612240833981519152604482015290519081900360640190fd5b600454610be5906001600160a01b03163383611c49565b50565b600b54600d5460609114610c2d5760405162461bcd60e51b81526004018080602001828103825260278152602001806121f86027913960400191505060405180910390fd5b6060600b5467ffffffffffffffff81118015610c4857600080fd5b50604051908082528060200260200182016040528015610c72578160200160208202803683370190505b50905060005b600b54811015610ce9576000600d8281548110610c9157fe5b6000918252602080832090910154808352601190915260409091205484519192506001600160a01b031690849084908110610cc857fe5b6001600160a01b039092166020928302919091019091015250600101610c78565b50905090565b60085490565b6060600460009054906101000a90046001600160a01b03166001600160a01b03166395d89b416040518163ffffffff1660e01b815260040160006040518083038186803b158015610d4557600080fd5b505afa158015610d59573d6000803e3d6000fd5b505050506040513d6000823e601f3d908101601f191682016040526020811015610d8257600080fd5b8101908080516040519392919084600160201b821115610da157600080fd5b908301906020820185811115610db657600080fd5b8251600160201b811182820188101715610dcf57600080fd5b82525081516020918201929091019080838360005b83811015610dfc578181015183820152602001610de4565b50505050905090810190601f168015610e295780820380516001836020036101000a031916815260200191505b50604052505050905090565b600b54600d541490565b610e47611c45565b6001600160a01b0316610e586116ce565b6001600160a01b031614610ea1576040805162461bcd60e51b81526020600482018190526024820152600080516020612240833981519152604482015290519081900360640190fd5b610ea9611ca0565b565b600b54600d5460009114610ef05760405162461bcd60e51b81526004018080602001828103825260278152602001806121f86027913960400191505060405180910390fd5b6000805b600b54811015610f8f576000600d8281548110610f0d57fe5b600091825260208083209091015480835260119091526040909120549091506001600160a01b03908116908616811415610f8557610f82610f7b6064610f75600f8781548110610f5957fe5b9060005260206000200154600c54611bec90919063ffffffff16565b90611d43565b8590611b87565b93505b5050600101610ef4565b5092915050565b60095490565b6060600f805480602002602001604051908101604052809291908181526020018280548015610fea57602002820191906000526020600020905b815481526020019060010190808311610fd6575b5050505050905090565b600054600160a01b900460ff1690565b600a5490565b600c5490565b60095461101b611be8565b10156110585760405162461bcd60e51b81526004018080602001828103825260298152602001806121cf6029913960400191505060405180910390fd5b611060611c45565b6001600160a01b03166110716116ce565b6001600160a01b0316146110ba576040805162461bcd60e51b81526020600482018190526024820152600080516020612240833981519152604482015290519081900360640190fd5b600d54156110f95760405162461bcd60e51b815260040180806020018281038252602e815260200180612260602e913960400191505060405180910390fd5b600554600a54600b54604080516337347e0560e11b815260048101939093526024830191909152516001600160a01b0390921691636e68fc0a91604480820192600092909190829003018186803b15801561115357600080fd5b505afa158015611167573d6000803e3d6000fd5b505050506040513d6000823e601f3d908101601f19168201604052602081101561119057600080fd5b8101908080516040519392919084600160201b8211156111af57600080fd5b9083019060208201858111156111c457600080fd5b82518660208202830111600160201b821117156111e057600080fd5b82525081516020918201928201910280838360005b8381101561120d5781810151838201526020016111f5565b50505050919091016040525050825161122e93600d93506020019150612101565b50600f805460009190600019810190811061124557fe5b9060005260206000200154111561129757600254600f8054611297926001600160a01b03169161128491606491610f75916000198101908110610f5957fe5b6004546001600160a01b03169190611c49565b600f80546000919060011981019081106112ad57fe5b906000526020600020015411156112e3576112e363deadbeef6112846064610f75600f6002600f805490500381548110610f5957fe5b7fb0f137151d6582b5d3bf7c348610be27187d15bbb0d28e553cb95e9cbcf30ba5600d6040518080602001828103825283818154815260200191508054801561134b57602002820191906000526020600020905b815481526020019060010190808311611337575b50509250505060405180910390a1565b6000600460009054906101000a90046001600160a01b03166001600160a01b031663313ce5676040518163ffffffff1660e01b815260040160206040518083038186803b1580156113ab57600080fd5b505afa1580156113bf573d6000803e3d6000fd5b505050506040513d60208110156113d557600080fd5b5051905090565b60006008546113e9611be8565b101580156113ff57506009546113fd611be8565b105b905090565b60105490565b611412611c45565b6001600160a01b03166114236116ce565b6001600160a01b03161461146c576040805162461bcd60e51b81526020600482018190526024820152600080516020612240833981519152604482015290519081900360640190fd5b600080546040516001600160a01b03909116907f8be0079c531659141344cd1fd0a4f28419497f9722a3daafe3b4186f6b6457e0908390a3600080546001600160a01b0319169055565b60075490565b6060808267ffffffffffffffff811180156114d657600080fd5b50604051908082528060200260200182016040528015611500578160200160208202803683370190505b50905060005b8381101561157657600060118187878581811061151f57fe5b90506020020135815260200190815260200160002060009054906101000a90046001600160a01b03166001600160a01b03161482828151811061155e57fe5b91151560209283029190910190910152600101611506565b5090505b92915050565b60065460408051633942720b60e11b815290516060926001600160a01b031691637284e416916004808301926000929190829003018186803b158015610d4557600080fd5b600b54600d546060911461160a5760405162461bcd60e51b81526004018080602001828103825260278152602001806121f86027913960400191505060405180910390fd5b600d805480602002602001604051908101604052809291908181526020018280548015610fea5760200282019190600052602060002090815481526020019060010190808311610fd6575050505050905090565b611666611c45565b6001600160a01b03166116776116ce565b6001600160a01b0316146116c0576040805162461bcd60e51b81526020600482018190526024820152600080516020612240833981519152604482015290519081900360640190fd5b610ea9611daa565b600e5490565b6000546001600160a01b031690565b6006546001600160a01b031690565b600190565b6006546040805163ab6167d360e01b815290516060926001600160a01b03169163ab6167d3916004808301926000929190829003018186803b158015610d4557600080fd5b600954611741611be8565b101561177e5760405162461bcd60e51b81526004018080602001828103825260298152602001806121cf6029913960400191505060405180910390fd5b600b54600d54146117c05760405162461bcd60e51b81526004018080602001828103825260278152602001806121f86027913960400191505060405180910390fd5b3360009081526013602052604081205460ff1615611825576040805162461bcd60e51b815260206004820152601860248201527f4c6f74746572793a20416c726561647920436c61696d65640000000000000000604482015290519081900360640190fd5b336001600160a01b031660116000600d60008154811061184157fe5b600091825260208083209091015483528201929092526040019020546001600160a01b031614156118e15760065460075460408051632142170760e11b81523060048201523360248201526044810192909252516001600160a01b03909216916342842e0e9160648082019260009290919082900301818387803b1580156118c857600080fd5b505af11580156118dc573d6000803e3d6000fd5b505050505b60005b600b54811015611952576000600d82815481106118fd57fe5b600091825260208083209091015480835260119091526040909120549091506001600160a01b03163381141561194857611945610f7b6064610f75600f8781548110610f5957fe5b93505b50506001016118e4565b50600480546040805163a9059cbb60e01b8152339381019390935260248301849052516001600160a01b039091169163a9059cbb9160448083019260209291908290030181600087803b1580156119a857600080fd5b505af11580156119bc573d6000803e3d6000fd5b505050506040513d60208110156119d257600080fd5b505033600081815260136020908152604091829020805460ff19166001179055815192835290517fea61a2a22523394f29506de20cc9db2e881f096477982d51012058ec9032714a9281900390910190a150565b6000600954611a33611be8565b1015905090565b600e540290565b601054600a540390565b6000908152601160205260409020546001600160a01b03161590565b6001600160a01b031660009081526013602052604090205460ff1690565b611a8d611c45565b6001600160a01b0316611a9e6116ce565b6001600160a01b031614611ae7576040805162461bcd60e51b81526020600482018190526024820152600080516020612240833981519152604482015290519081900360640190fd5b6001600160a01b038116611b2c5760405162461bcd60e51b81526004018080602001828103825260268152602001806121836026913960400191505060405180910390fd5b600080546040516001600160a01b03808516939216917f8be0079c531659141344cd1fd0a4f28419497f9722a3daafe3b4186f6b6457e091a3600080546001600160a01b0319166001600160a01b0392909216919091179055565b600082820183811015611be1576040805162461bcd60e51b815260206004820152601b60248201527f536166654d6174683a206164646974696f6e206f766572666c6f770000000000604482015290519081900360640190fd5b9392505050565b4290565b600082611bfb5750600061157a565b82820282848281611c0857fe5b0414611be15760405162461bcd60e51b815260040180806020018281038252602181526020018061221f6021913960400191505060405180910390fd5b3390565b604080516001600160a01b038416602482015260448082018490528251808303909101815260649091019091526020810180516001600160e01b031663a9059cbb60e01b179052611c9b908490611e33565b505050565b611ca8610ff4565b611cf0576040805162461bcd60e51b815260206004820152601460248201527314185d5cd8589b194e881b9bdd081c185d5cd95960621b604482015290519081900360640190fd5b6000805460ff60a01b191690557f5db9ee0a495bf2e6ff9c91a7834c1ba4fdd244a5e8aa4e537bd38aeae4b073aa611d26611c45565b604080516001600160a01b039092168252519081900360200190a1565b6000808211611d99576040805162461bcd60e51b815260206004820152601a60248201527f536166654d6174683a206469766973696f6e206279207a65726f000000000000604482015290519081900360640190fd5b818381611da257fe5b049392505050565b611db2610ff4565b15611df7576040805162461bcd60e51b815260206004820152601060248201526f14185d5cd8589b194e881c185d5cd95960821b604482015290519081900360640190fd5b6000805460ff60a01b1916600160a01b1790557f62e78cea01bee320cd4e420270b5ea74000d11b0c9f74754ebdbfc544b05a258611d26611c45565b6060611e88826040518060400160405280602081526020017f5361666545524332303a206c6f772d6c6576656c2063616c6c206661696c6564815250856001600160a01b0316611ee49092919063ffffffff16565b805190915015611c9b57808060200190516020811015611ea757600080fd5b5051611c9b5760405162461bcd60e51b815260040180806020018281038252602a81526020018061228e602a913960400191505060405180910390fd5b6060611ef38484600085611efb565b949350505050565b606082471015611f3c5760405162461bcd60e51b81526004018080602001828103825260268152602001806121a96026913960400191505060405180910390fd5b611f4585612057565b611f96576040805162461bcd60e51b815260206004820152601d60248201527f416464726573733a2063616c6c20746f206e6f6e2d636f6e7472616374000000604482015290519081900360640190fd5b60006060866001600160a01b031685876040518082805190602001908083835b60208310611fd55780518252601f199092019160209182019101611fb6565b6001836020036101000a03801982511681845116808217855250505050505090500191505060006040518083038185875af1925050503d8060008114612037576040519150601f19603f3d011682016040523d82523d6000602084013e61203c565b606091505b509150915061204c82828661205d565b979650505050505050565b3b151590565b6060831561206c575081611be1565b82511561207c5782518084602001fd5b8160405162461bcd60e51b81526004018080602001828103825283818151815260200191508051906020019080838360005b838110156120c65781810151838201526020016120ae565b50505050905090810190601f1680156120f35780820380516001836020036101000a031916815260200191505b509250505060405180910390fd5b82805482825590600052602060002090810192821561213c579160200282015b8281111561213c578251825591602001919060010190612121565b5061214892915061214c565b5090565b5b80821115612148576000815560010161214d56fe4c6f74746572793a205469636b65742073656c6c696e6720697320636c6f7365644f776e61626c653a206e6577206f776e657220697320746865207a65726f2061646472657373416464726573733a20696e73756666696369656e742062616c616e636520666f722063616c6c4c6f74746572793a205469636b65742073656c6c696e67206973206e6f742079657420636c6f7365644c6f74746572793a2057696e6e696e67204e756d62657273206e6f742063686f73656e20796574536166654d6174683a206d756c7469706c69636174696f6e206f766572666c6f774f776e61626c653a2063616c6c6572206973206e6f7420746865206f776e65724c6f74746572793a204861766520616c726561647920647261776e207468652077696e6e696e67206e756d6265725361666545524332303a204552433230206f7065726174696f6e20646964206e6f7420737563636565644c6f74746572793a205469636b65742073656c6c696e67206973206e6f742079657420737461727465644c6f74746572793a205469636b6574204e756d626572206973206f7574206f662072616e6765a26469706673582212200ca19fa6167373746f14a63271112d4e911ab9d59d5050c01637f9f489019b3464736f6c634300060c00334c6f74746572793a2052616e646f6d204e756d6265722047656e657261746f722063616e6e6f74206265203020616464726573734c6f74746572793a204275726e2063616e6e6f74206265203020616464726573734c6f74746572793a2054726561737572792063616e6e6f74206265203020616464726573734c6f74746572793a20466163746f72792063616e6e6f74206265203020616464726573734c6f74746572793a205072697a6520646973747269627574696f6e206973206e6f7420313030254c6f74746572793a20527562792063616e6e6f74206265203020616464726573734f776e61626c653a206e6577206f776e657220697320746865207a65726f20616464726573734c6f7474657279466163746f72793a204275726e2063616e6e6f74206265203020616464726573734c6f7474657279466163746f72793a20436f6c6c61746572616c2063616e6e6f74206265203020616464726573734c6f7474657279466163746f72793a2054726561737572792063616e6e6f7420626520302061646472657373496e697469616c697a61626c653a20636f6e747261637420697320616c726561647920696e697469616c697a65644c6f7474657279466163746f72793a20527562792063616e6e6f74206265203020616464726573734c6f7474657279466163746f72793a204e66742063616e6e6f74206265203020616464726573734c6f7474657279466163746f72793a20496e76616c696420646973747269627574696f6e4f776e61626c653a2063616c6c6572206973206e6f7420746865206f776e65724c6f7474657279466163746f72793a20727562792063616e6e6f74206265203020616464726573734c6f7474657279466163746f72793a204f776e6572206f66204e465420697320696e76616c69644c6f7474657279466163746f72793a20524e472063616e6e6f74206265203020616464726573734c6f7474657279466163746f72793a2072616e646f6d4e756d62657247656e657261746f722063616e6e6f7420626520302061646472657373a26469706673582212209769d78547c197d38e3da28e0ee5e903bbfca829a46e547e04daee85b24720a564736f6c634300060c0033",
  "devdoc": {
    "kind": "dev",
    "methods": {
      "createNewLotto(address,address,uint256,uint256,uint256,uint256[],uint256)": {
        "params": {
          "_collateral": "The ERC20 address for token to buy tickets",
          "_distribution": "An array defining the distribution of the prize pool.",
          "_duration": "The duration until no more tickets will be sold for the lottery from now.",
          "_lotterySize": "Digit count of ticket.",
          "_nft": "The NFT address for bonus.",
          "_ticketPrice": "Cost per ticket in $ruby.",
          "_tokenId": "The Bonus NFT ID."
        }
      },
      "owner()": {
        "details": "Returns the address of the current owner."
      },
      "renounceOwnership()": {
        "details": "Leaves the contract without owner. It will not be possible to call `onlyOwner` functions anymore. Can only be called by the current owner. NOTE: Renouncing ownership will leave the contract without an owner, thereby removing any functionality that is only available to the owner."
      },
      "transferOwnership(address)": {
        "details": "Transfers ownership of the contract to a new account (`newOwner`). Can only be called by the current owner."
      }
    },
    "version": 1
  },
  "userdoc": {
    "kind": "user",
    "methods": {
      "createNewLotto(address,address,uint256,uint256,uint256,uint256[],uint256)": {
        "notice": "Create a new Lottery instance."
      }
    },
    "version": 1
  },
  "storageLayout": {
    "storage": [
      {
        "astId": 705,
        "contract": "contracts/lottery/LotteryFactory.sol:LotteryFactory",
        "label": "_initialized",
        "offset": 0,
        "slot": "0",
        "type": "t_bool"
      },
      {
        "astId": 708,
        "contract": "contracts/lottery/LotteryFactory.sol:LotteryFactory",
        "label": "_initializing",
        "offset": 1,
        "slot": "0",
        "type": "t_bool"
      },
      {
        "astId": 2910,
        "contract": "contracts/lottery/LotteryFactory.sol:LotteryFactory",
        "label": "__gap",
        "offset": 0,
        "slot": "1",
        "type": "t_array(t_uint256)50_storage"
      },
      {
        "astId": 136,
        "contract": "contracts/lottery/LotteryFactory.sol:LotteryFactory",
        "label": "_owner",
        "offset": 0,
        "slot": "51",
        "type": "t_address"
      },
      {
        "astId": 255,
        "contract": "contracts/lottery/LotteryFactory.sol:LotteryFactory",
        "label": "__gap",
        "offset": 0,
        "slot": "52",
        "type": "t_array(t_uint256)49_storage"
      },
      {
        "astId": 21754,
        "contract": "contracts/lottery/LotteryFactory.sol:LotteryFactory",
        "label": "ruby",
        "offset": 0,
        "slot": "101",
        "type": "t_address"
      },
      {
        "astId": 21756,
        "contract": "contracts/lottery/LotteryFactory.sol:LotteryFactory",
        "label": "RNG",
        "offset": 0,
        "slot": "102",
        "type": "t_address"
      },
      {
        "astId": 21758,
        "contract": "contracts/lottery/LotteryFactory.sol:LotteryFactory",
        "label": "treasury",
        "offset": 0,
        "slot": "103",
        "type": "t_address"
      },
      {
        "astId": 21760,
        "contract": "contracts/lottery/LotteryFactory.sol:LotteryFactory",
        "label": "burn",
        "offset": 0,
        "slot": "104",
        "type": "t_address"
      },
      {
        "astId": 21767,
        "contract": "contracts/lottery/LotteryFactory.sol:LotteryFactory",
        "label": "allLotteries",
        "offset": 0,
        "slot": "105",
        "type": "t_mapping(t_uint256,t_contract(Lottery)21643)"
      },
      {
        "astId": 21769,
        "contract": "contracts/lottery/LotteryFactory.sol:LotteryFactory",
        "label": "lotteryId",
        "offset": 0,
        "slot": "106",
        "type": "t_uint256"
      }
    ],
    "types": {
      "t_address": {
        "encoding": "inplace",
        "label": "address",
        "numberOfBytes": "20"
      },
      "t_array(t_uint256)49_storage": {
        "base": "t_uint256",
        "encoding": "inplace",
        "label": "uint256[49]",
        "numberOfBytes": "1568"
      },
      "t_array(t_uint256)50_storage": {
        "base": "t_uint256",
        "encoding": "inplace",
        "label": "uint256[50]",
        "numberOfBytes": "1600"
      },
      "t_bool": {
        "encoding": "inplace",
        "label": "bool",
        "numberOfBytes": "1"
      },
      "t_contract(Lottery)21643": {
        "encoding": "inplace",
        "label": "contract Lottery",
        "numberOfBytes": "20"
      },
      "t_mapping(t_uint256,t_contract(Lottery)21643)": {
        "encoding": "mapping",
        "key": "t_uint256",
        "label": "mapping(uint256 => contract Lottery)",
        "numberOfBytes": "32",
        "value": "t_contract(Lottery)21643"
      },
      "t_uint256": {
        "encoding": "inplace",
        "label": "uint256",
        "numberOfBytes": "32"
      }
    }
  }
}