{
  "address": "0x964B89D43568Ec48C81639168D2745bfB68Ed2F8",
  "abi": [
    {
      "anonymous": false,
      "inputs": [
        {
          "indexed": false,
          "internalType": "uint256",
          "name": "_lotteryId",
          "type": "uint256"
        }
      ],
      "name": "LotteryCreated",
      "type": "event"
    },
    {
      "anonymous": false,
      "inputs": [
        {
          "indexed": true,
          "internalType": "address",
          "name": "previousOwner",
          "type": "address"
        },
        {
          "indexed": true,
          "internalType": "address",
          "name": "newOwner",
          "type": "address"
        }
      ],
      "name": "OwnershipTransferred",
      "type": "event"
    },
    {
      "inputs": [
        {
          "internalType": "uint256",
          "name": "_ticketSize",
          "type": "uint256"
        }
      ],
      "name": "costToBuyTickets",
      "outputs": [
        {
          "internalType": "uint256",
          "name": "",
          "type": "uint256"
        }
      ],
      "stateMutability": "view",
      "type": "function"
    },
    {
      "inputs": [
        {
          "internalType": "address",
          "name": "_nft",
          "type": "address"
        },
        {
          "internalType": "uint256",
          "name": "_tokenId",
          "type": "uint256"
        },
        {
          "internalType": "uint256",
          "name": "_lotterySize",
          "type": "uint256"
        },
        {
          "internalType": "uint256",
          "name": "ticketPrice",
          "type": "uint256"
        },
        {
          "internalType": "uint256[]",
          "name": "distribution",
          "type": "uint256[]"
        },
        {
          "internalType": "address",
          "name": "_treasury",
          "type": "address"
        },
        {
          "internalType": "uint256",
          "name": "duration",
          "type": "uint256"
        }
      ],
      "name": "createNewLotto",
      "outputs": [],
      "stateMutability": "nonpayable",
      "type": "function"
    },
    {
      "inputs": [],
      "name": "getCurrentLotto",
      "outputs": [
        {
          "internalType": "address",
          "name": "",
          "type": "address"
        }
      ],
      "stateMutability": "view",
      "type": "function"
    },
    {
      "inputs": [],
      "name": "getCurrentLottoryId",
      "outputs": [
        {
          "internalType": "uint256",
          "name": "",
          "type": "uint256"
        }
      ],
      "stateMutability": "view",
      "type": "function"
    },
    {
      "inputs": [
        {
          "internalType": "uint256",
          "name": "_lotteryId",
          "type": "uint256"
        }
      ],
      "name": "getLotto",
      "outputs": [
        {
          "internalType": "address",
          "name": "",
          "type": "address"
        }
      ],
      "stateMutability": "view",
      "type": "function"
    },
    {
      "inputs": [],
      "name": "getRNG",
      "outputs": [
        {
          "internalType": "address",
          "name": "",
          "type": "address"
        }
      ],
      "stateMutability": "view",
      "type": "function"
    },
    {
      "inputs": [
        {
          "internalType": "address",
          "name": "to",
          "type": "address"
        }
      ],
      "name": "getRewardAmount",
      "outputs": [
        {
          "internalType": "uint256",
          "name": "",
          "type": "uint256"
        }
      ],
      "stateMutability": "view",
      "type": "function"
    },
    {
      "inputs": [
        {
          "internalType": "address",
          "name": "to",
          "type": "address"
        }
      ],
      "name": "getRewardNFT",
      "outputs": [
        {
          "internalType": "bool",
          "name": "",
          "type": "bool"
        }
      ],
      "stateMutability": "view",
      "type": "function"
    },
    {
      "inputs": [],
      "name": "getRuby",
      "outputs": [
        {
          "internalType": "address",
          "name": "",
          "type": "address"
        }
      ],
      "stateMutability": "view",
      "type": "function"
    },
    {
      "inputs": [],
      "name": "getWinningNumbers",
      "outputs": [
        {
          "internalType": "uint256[]",
          "name": "",
          "type": "uint256[]"
        }
      ],
      "stateMutability": "view",
      "type": "function"
    },
    {
      "inputs": [
        {
          "internalType": "address",
          "name": "_ruby",
          "type": "address"
        },
        {
          "internalType": "address",
          "name": "_randomNumberGenerator",
          "type": "address"
        }
      ],
      "name": "initialize",
      "outputs": [],
      "stateMutability": "nonpayable",
      "type": "function"
    },
    {
      "inputs": [],
      "name": "owner",
      "outputs": [
        {
          "internalType": "address",
          "name": "",
          "type": "address"
        }
      ],
      "stateMutability": "view",
      "type": "function"
    },
    {
      "inputs": [],
      "name": "renounceOwnership",
      "outputs": [],
      "stateMutability": "nonpayable",
      "type": "function"
    },
    {
      "inputs": [
        {
          "internalType": "address",
          "name": "_RNG",
          "type": "address"
        }
      ],
      "name": "setRNG",
      "outputs": [],
      "stateMutability": "nonpayable",
      "type": "function"
    },
    {
      "inputs": [
        {
          "internalType": "address",
          "name": "_ruby",
          "type": "address"
        }
      ],
      "name": "setRuby",
      "outputs": [],
      "stateMutability": "nonpayable",
      "type": "function"
    },
    {
      "inputs": [
        {
          "internalType": "address",
          "name": "newOwner",
          "type": "address"
        }
      ],
      "name": "transferOwnership",
      "outputs": [],
      "stateMutability": "nonpayable",
      "type": "function"
    }
  ],
  "transactionHash": "0xc7a46432f8c77380cedac20c5c919092950d29898c605c4b1ee958da700a4f20",
  "args": [],
  "numDeployments": 1,
  "solcInputHash": "3a7102ad56567d9e552c3894123f32b5",
  "bytecode": "0x608060405234801561001057600080fd5b50613b51806100206000396000f3fe60806040523480156200001157600080fd5b5060043610620001175760003560e01c8063715018a611620000a5578063b661c637116200006f578063b661c637146200037f578063bb53cdbc1462000389578063d2941c7f1462000393578063f2fde38b14620003b35762000117565b8063715018a614620002e657806384350e1d14620002f0578063868ca68e146200034c5780638da5cb5b14620003755762000117565b806344a040f511620000e757806344a040f51462000266578063485cc95514620002a157806353a1ec4314620002d25780636a8dfd3a14620002dc5762000117565b80621ace93146200011c5780630c65747814620001595780633b84edbd146200019557806343ea26c414620001c0575b600080fd5b62000145600480360360208110156200013457600080fd5b50356001600160a01b0316620003dc565b604080519115158252519081900360200190f35b62000179600480360360208110156200017157600080fd5b503562000468565b604080516001600160a01b039092168252519081900360200190f35b620001be60048036036020811015620001ad57600080fd5b50356001600160a01b031662000483565b005b620001be600480360360e0811015620001d857600080fd5b6001600160a01b038235169160208101359160408201359160608101359181019060a0810160808201356401000000008111156200021557600080fd5b8201836020820111156200022857600080fd5b803590602001918460208302840111640100000000831117156200024b57600080fd5b91935091506001600160a01b03813516906020013562000554565b6200028f600480360360208110156200027e57600080fd5b50356001600160a01b0316620009a4565b60408051918252519081900360200190f35b620001be60048036036040811015620002b957600080fd5b506001600160a01b0381358116916020013516620009fd565b6200017962000b71565b6200017962000b80565b620001be62000b9e565b620002fa62000c50565b60408051602080825283518183015283519192839290830191858101910280838360005b83811015620003385781810151838201526020016200031e565b505050509050019250505060405180910390f35b620001be600480360360208110156200036457600080fd5b50356001600160a01b031662000d6a565b6200017962000e3b565b6200028f62000e4a565b6200017962000e50565b6200028f60048036036020811015620003ab57600080fd5b503562000e5f565b620001be60048036036020811015620003cb57600080fd5b50356001600160a01b031662000eaf565b6000620003e862000b80565b6001600160a01b0316621ace93836040518263ffffffff1660e01b815260040180826001600160a01b0316815260200191505060206040518083038186803b1580156200043457600080fd5b505afa15801562000449573d6000803e3d6000fd5b505050506040513d60208110156200046057600080fd5b505192915050565b6000908152606760205260409020546001600160a01b031690565b6200048d62000fba565b6001600160a01b0316620004a062000e3b565b6001600160a01b031614620004eb576040805162461bcd60e51b8152602060048201819052602482015260008051602062003a4d833981519152604482015290519081900360640190fd5b6001600160a01b038116620005325760405162461bcd60e51b815260040180806020018281038252602781526020018062003abc6027913960400191505060405180910390fd5b606680546001600160a01b0319166001600160a01b0392909216919091179055565b6200055e62000fba565b6001600160a01b03166200057162000e3b565b6001600160a01b031614620005bc576040805162461bcd60e51b8152602060048201819052602482015260008051602062003a4d833981519152604482015290519081900360640190fd5b6001600160a01b038816620006035760405162461bcd60e51b815260040180806020018281038252602781526020018062003a026027913960400191505060405180910390fd5b6002831015620006455760405162461bcd60e51b815260040180806020018281038252602481526020018062003a296024913960400191505060405180910390fd5b600b831115620006875760405162461bcd60e51b815260040180806020018281038252602481526020018062003a296024913960400191505060405180910390fd5b336001600160a01b0316886001600160a01b0316636352211e896040518263ffffffff1660e01b81526004018082815260200191505060206040518083038186803b158015620006d657600080fd5b505afa158015620006eb573d6000803e3d6000fd5b505050506040513d60208110156200070257600080fd5b50516001600160a01b0316146200074b5760405162461bcd60e51b815260040180806020018281038252602781526020018062003a956027913960400191505060405180910390fd5b60688054600101905560655460665460405130926001600160a01b03908116928c928c928c928c928c928c928c928c92909116906200078a9062001240565b808c6001600160a01b031681526020018b6001600160a01b031681526020018a6001600160a01b0316815260200189815260200188815260200187815260200180602001856001600160a01b03168152602001848152602001836001600160a01b0316815260200182810382528787828181526020019250602002808284376000838201819052604051601f909201601f19169093018190039f509d50909b505050505050505050505050f08015801562000849573d6000803e3d6000fd5b506068805460009081526067602052604080822080546001600160a01b0319166001600160a01b039586161790559154815220541663f2fde38b6200088d62000e3b565b6040518263ffffffff1660e01b815260040180826001600160a01b03168152602001915050600060405180830381600087803b158015620008cd57600080fd5b505af1158015620008e2573d6000803e3d6000fd5b50506068546000908152606760205260408082205481516323b872dd60e01b81523360048201526001600160a01b039182166024820152604481018d90529151908d1694506323b872dd93506064808301939282900301818387803b1580156200094b57600080fd5b505af115801562000960573d6000803e3d6000fd5b505060685460408051918252517f9e0023bebcc752baaa41057318405b5a6a8e9c6372b519717cfdf238e5caa7959350908190036020019150a15050505050505050565b6000620009b062000b80565b6001600160a01b03166344a040f5836040518263ffffffff1660e01b815260040180826001600160a01b0316815260200191505060206040518083038186803b1580156200043457600080fd5b600054610100900460ff168062000a19575062000a1962000fbe565b8062000a28575060005460ff16155b62000a655760405162461bcd60e51b815260040180806020018281038252602e815260200180620039ac602e913960400191505060405180910390fd5b600054610100900460ff1615801562000a91576000805460ff1961ff0019909116610100171660011790555b6001600160a01b03831662000ad85760405162461bcd60e51b815260040180806020018281038252602881526020018062003a6d6028913960400191505060405180910390fd5b6001600160a01b03821662000b1f5760405162461bcd60e51b815260040180806020018281038252603981526020018062003ae36039913960400191505060405180910390fd5b606580546001600160a01b038086166001600160a01b031992831617909255606680549285169290911691909117905562000b5962000fd1565b801562000b6c576000805461ff00191690555b505050565b6065546001600160a01b031690565b6068546000908152606760205260409020546001600160a01b031690565b62000ba862000fba565b6001600160a01b031662000bbb62000e3b565b6001600160a01b03161462000c06576040805162461bcd60e51b8152602060048201819052602482015260008051602062003a4d833981519152604482015290519081900360640190fd5b6033546040516000916001600160a01b0316907f8be0079c531659141344cd1fd0a4f28419497f9722a3daafe3b4186f6b6457e0908390a3603380546001600160a01b0319169055565b606062000c5c62000b80565b6001600160a01b03166384350e1d6040518163ffffffff1660e01b815260040160006040518083038186803b15801562000c9557600080fd5b505afa15801562000caa573d6000803e3d6000fd5b505050506040513d6000823e601f3d908101601f19168201604052602081101562000cd457600080fd5b810190808051604051939291908464010000000082111562000cf557600080fd5b90830190602082018581111562000d0b57600080fd5b825186602082028301116401000000008211171562000d2957600080fd5b82525081516020918201928201910280838360005b8381101562000d5857818101518382015260200162000d3e565b50505050905001604052505050905090565b62000d7462000fba565b6001600160a01b031662000d8762000e3b565b6001600160a01b03161462000dd2576040805162461bcd60e51b8152602060048201819052602482015260008051602062003a4d833981519152604482015290519081900360640190fd5b6001600160a01b03811662000e195760405162461bcd60e51b8152600401808060200182810382526028815260200180620039da6028913960400191505060405180910390fd5b606580546001600160a01b0319166001600160a01b0392909216919091179055565b6033546001600160a01b031690565b60685490565b6066546001600160a01b031690565b600062000e6b62000b80565b6001600160a01b031663d2941c7f836040518263ffffffff1660e01b81526004018082815260200191505060206040518083038186803b1580156200043457600080fd5b62000eb962000fba565b6001600160a01b031662000ecc62000e3b565b6001600160a01b03161462000f17576040805162461bcd60e51b8152602060048201819052602482015260008051602062003a4d833981519152604482015290519081900360640190fd5b6001600160a01b03811662000f5e5760405162461bcd60e51b8152600401808060200182810382526026815260200180620039866026913960400191505060405180910390fd5b6033546040516001600160a01b038084169216907f8be0079c531659141344cd1fd0a4f28419497f9722a3daafe3b4186f6b6457e090600090a3603380546001600160a01b0319166001600160a01b0392909216919091179055565b3390565b600062000fcb306200108f565b15905090565b600054610100900460ff168062000fed575062000fed62000fbe565b8062000ffc575060005460ff16155b620010395760405162461bcd60e51b815260040180806020018281038252602e815260200180620039ac602e913960400191505060405180910390fd5b600054610100900460ff1615801562001065576000805460ff1961ff0019909116610100171660011790555b6200106f62001095565b620010796200113d565b80156200108c576000805461ff00191690555b50565b3b151590565b600054610100900460ff1680620010b15750620010b162000fbe565b80620010c0575060005460ff16155b620010fd5760405162461bcd60e51b815260040180806020018281038252602e815260200180620039ac602e913960400191505060405180910390fd5b600054610100900460ff1615801562001079576000805460ff1961ff00199091166101001716600117905580156200108c576000805461ff001916905550565b600054610100900460ff16806200115957506200115962000fbe565b8062001168575060005460ff16155b620011a55760405162461bcd60e51b815260040180806020018281038252602e815260200180620039ac602e913960400191505060405180910390fd5b600054610100900460ff16158015620011d1576000805460ff1961ff0019909116610100171660011790555b6000620011dd62000fba565b603380546001600160a01b0319166001600160a01b038316908117909155604051919250906000907f8be0079c531659141344cd1fd0a4f28419497f9722a3daafe3b4186f6b6457e0908290a35080156200108c576000805461ff001916905550565b612737806200124f8339019056fe60806040523480156200001157600080fd5b50604051620027373803806200273783398181016040526101408110156200003857600080fd5b815160208301516040808501516060860151608087015160a088015160c089018051955197999698949793969295919483019291846401000000008211156200008057600080fd5b9083019060208201858111156200009657600080fd5b8251866020820283011164010000000082111715620000b457600080fd5b82525081516020918201928201910280838360005b83811015620000e3578181015183820152602001620000c9565b505050509190910160409081526020830151908301516060909301519094509192506000905062000113620004c9565b600080546001600160a01b0319166001600160a01b0383169081178255604051929350917f8be0079c531659141344cd1fd0a4f28419497f9722a3daafe3b4186f6b6457e0908290a3506000805460ff60a01b191690556001600160a01b038916620001b15760405162461bcd60e51b8152600401808060200182810382526021815260200180620027166021913960400191505060405180910390fd5b6001600160a01b038a16620001f85760405162461bcd60e51b8152600401808060200182810382526024815260200180620026cb6024913960400191505060405180910390fd5b6001600160a01b03881662000254576040805162461bcd60e51b815260206004820181905260248201527f4c6f74746572793a204e66742063616e6e6f7420626520302061646472657373604482015290519081900360640190fd5b6001600160a01b0381166200029b5760405162461bcd60e51b8152600401808060200182810382526034815260200180620026726034913960400191505060405180910390fd5b6001600160a01b038316620002e25760405162461bcd60e51b8152600401808060200182810382526025815260200180620026a66025913960400191505060405180910390fd5b6003845110156200033a576040805162461bcd60e51b815260206004820152601d60248201527f4c6f74746572793a20496e76616c696420646973747269627574696f6e000000604482015290519081900360640190fd5b8351600c101562000392576040805162461bcd60e51b815260206004820152601d60248201527f4c6f74746572793a20496e76616c696420646973747269627574696f6e000000604482015290519081900360640190fd5b8351600119016009556000805b8551811015620003e257620003d7868281518110620003ba57fe5b602002602001015183620004cd60201b620018b71790919060201c565b91506001016200039f565b5080606414620004245760405162461bcd60e51b8152600401808060200182810382526027815260200180620026ef6027913960400191505060405180910390fd5b6001601281905580546001600160a01b03199081166001600160a01b038e8116919091179092556002805482168d84161790556003805482168584161790556004805482168c841617905560058a9055600e8054909116918616919091179055600c8690556008879055620004986200052f565b600681905583016007558451620004b790600d90602088019062000533565b5050505050505050505050506200059a565b3390565b60008282018381101562000528576040805162461bcd60e51b815260206004820152601b60248201527f536166654d6174683a206164646974696f6e206f766572666c6f770000000000604482015290519081900360640190fd5b9392505050565b4290565b82805482825590600052602060002090810192821562000571579160200282015b828111156200057157825182559160200191906001019062000554565b506200057f92915062000583565b5090565b5b808211156200057f576000815560010162000584565b6120c880620005aa6000396000f3fe608060405234801561001057600080fd5b50600436106101d95760003560e01c8063608620aa116101045780638da5cb5b116100a2578063c01f8b5f11610071578063c01f8b5f146104bf578063c2b6b58c146104dc578063d2941c7f146104e4578063f2fde38b14610501576101d9565b80638da5cb5b14610483578063932eb678146104a7578063b4224371146104af578063b88a802f146104b7576101d9565b80637420901c116100de5780637420901c146103ee57806376c9772c146103f657806384350e1d146104735780638456cb591461047b576101d9565b8063608620aa146103d6578063692aa97e146103de578063715018a6146103e6576101d9565b80633f4ba83a1161017c5780635659f5821161014b5780635659f582146103b65780635c975abb146103be5780635edc958d146103c6578063601dd0e5146103ce576101d9565b80633f4ba83a1461036357806344a040f51461036b578063477601b8146103915780634a66ae2714610399576101d9565b806315981650116101b857806315981650146103075780632e1a7d4d14610324578063329398e4146103415780633c2bcadc1461035b576101d9565b80621ace93146101de5780630ad182bc146102185780630b2e66911461028e575b600080fd5b610204600480360360208110156101f457600080fd5b50356001600160a01b0316610527565b604080519115158252519081900360200190f35b61023e6004803603602081101561022e57600080fd5b50356001600160a01b03166105c4565b60408051602080825283518183015283519192839290830191858101910280838360005b8381101561027a578181015183820152602001610262565b505050509050019250505060405180910390f35b610305600480360360408110156102a457600080fd5b813591908101906040810160208201356401000000008111156102c657600080fd5b8201836020820111156102d857600080fd5b803590602001918460208302840111640100000000831117156102fa57600080fd5b509092509050610630565b005b6103056004803603602081101561031d57600080fd5b5035610aa7565b6103056004803603602081101561033a57600080fd5b5035610b0e565b610349610bcc565b60408051918252519081900360200190f35b610204610bd2565b610305610bdc565b6103496004803603602081101561038157600080fd5b50356001600160a01b0316610c48565b610349610d33565b610305600480360360208110156103af57600080fd5b5035610d39565b61023e610da0565b610204610df8565b610349610e08565b610349610e0e565b610305610e14565b610204611113565b61030561113b565b6103496111e7565b6103fe6111ed565b6040805160208082528351818301528351919283929083019185019080838360005b83811015610438578181015183820152602001610420565b50505050905090810190601f1680156104655780820380516001836020036101000a031916815260200191505b509250505060405180910390f35b61023e61132f565b6103056113c8565b61048b611432565b604080516001600160a01b039092168252519081900360200190f35b61048b611441565b6103fe611450565b6103056114a0565b610305600480360360208110156104d557600080fd5b5035611733565b61020461179a565b610349600480360360208110156104fa57600080fd5b50356117ae565b6103056004803603602081101561051757600080fd5b50356001600160a01b03166117b5565b600954600b546000911461056c5760405162461bcd60e51b8152600401808060200182810382526027815260200180611f536027913960400191505060405180910390fd5b816001600160a01b0316600f6000600b60008154811061058857fe5b600091825260208083209091015483528201929092526040019020546001600160a01b031614156105bb575060016105bf565b5060005b919050565b6001600160a01b03811660009081526011602090815260409182902080548351818402810184019094528084526060939283018282801561062457602002820191906000526020600020905b815481526020019060010190808311610610575b50505050509050919050565b60065461063b61191a565b10156106785760405162461bcd60e51b815260040180806020018281038252602a815260200180612013602a913960400191505060405180910390fd5b60075461068361191a565b106106bf5760405162461bcd60e51b8152600401808060200182810382526021815260200180611e966021913960400191505060405180910390fd5b6106c7610df8565b1561070c576040805162461bcd60e51b815260206004820152601060248201526f14185d5cd8589b194e881c185d5cd95960821b604482015290519081900360640190fd5b808314610760576040805162461bcd60e51b815260206004820152601f60248201527f4c6f74746572793a20496e76616c69642063686f73656e206e756d6265727300604482015290519081900360640190fd5b60128054600101905560005b818110156108d457600854600a0a83838381811061078657fe5b90506020020135106107c95760405162461bcd60e51b815260040180806020018281038252602681526020018061203d6026913960400191505060405180910390fd5b6000600f818585858181106107da57fe5b60209081029290920135835250810191909152604001600020546001600160a01b0316146108395760405162461bcd60e51b8152600401808060200182810382526027815260200180611edd6027913960400191505060405180910390fd5b6012546010600085858581811061084c57fe5b90506020020135815260200190815260200160002054141561089f5760405162461bcd60e51b81526004018080602001828103825260308152602001806120636030913960400191505060405180910390fd5b601254601060008585858181106108b257fe5b602090810292909201358352508101919091526040016000205560010161076c565b5060006108ec600c548561191e90919063ffffffff16565b600254604080516323b872dd60e01b81523360048201523060248201526044810184905290519293506001600160a01b03909116916323b872dd916064808201926020929091908290030181600087803b15801561094957600080fd5b505af115801561095d573d6000803e3d6000fd5b505050506040513d602081101561097357600080fd5b5050600a5461098290826118b7565b600a5560005b82811015610a355733600f60008686858181106109a157fe5b90506020020135815260200190815260200160002060006101000a8154816001600160a01b0302191690836001600160a01b0316021790555060116000336001600160a01b03166001600160a01b03168152602001908152602001600020848483818110610a0b57fe5b83546001808201865560009586526020958690209290950293909301359201919091555001610988565b507f27c5e501eb43fd045a53af63d8557af7ac8810c8550dbc296c823bd73527315084848460405180848152602001806020018281038252848482818152602001925060200280828437600083820152604051601f909101601f1916909201829003965090945050505050a150505050565b610aaf611977565b6001600160a01b0316610ac0611432565b6001600160a01b031614610b09576040805162461bcd60e51b81526020600482018190526024820152600080516020611f9b833981519152604482015290519081900360640190fd5b600c55565b600954600b5414610b505760405162461bcd60e51b8152600401808060200182810382526027815260200180611f536027913960400191505060405180910390fd5b610b58611977565b6001600160a01b0316610b69611432565b6001600160a01b031614610bb2576040805162461bcd60e51b81526020600482018190526024820152600080516020611f9b833981519152604482015290519081900360640190fd5b600254610bc9906001600160a01b0316338361197b565b50565b60065490565b600954600b541490565b610be4611977565b6001600160a01b0316610bf5611432565b6001600160a01b031614610c3e576040805162461bcd60e51b81526020600482018190526024820152600080516020611f9b833981519152604482015290519081900360640190fd5b610c466119d2565b565b600954600b5460009114610c8d5760405162461bcd60e51b8152600401808060200182810382526027815260200180611f536027913960400191505060405180910390fd5b6000805b600954811015610d2c576000600b8281548110610caa57fe5b6000918252602080832090910154808352600f9091526040909120549091506001600160a01b03908116908616811415610d2257610d1f610d186064610d12600d8781548110610cf657fe5b9060005260206000200154600a5461191e90919063ffffffff16565b90611a75565b85906118b7565b93505b5050600101610c91565b5092915050565b60075490565b610d41611977565b6001600160a01b0316610d52611432565b6001600160a01b031614610d9b576040805162461bcd60e51b81526020600482018190526024820152600080516020611f9b833981519152604482015290519081900360640190fd5b600755565b6060600d805480602002602001604051908101604052809291908181526020018280548015610dee57602002820191906000526020600020905b815481526020019060010190808311610dda575b5050505050905090565b600054600160a01b900460ff1690565b60085490565b600a5490565b600754610e1f61191a565b1015610e5c5760405162461bcd60e51b8152600401808060200182810382526029815260200180611f2a6029913960400191505060405180910390fd5b610e64611977565b6001600160a01b0316610e75611432565b6001600160a01b031614610ebe576040805162461bcd60e51b81526020600482018190526024820152600080516020611f9b833981519152604482015290519081900360640190fd5b600b5415610efd5760405162461bcd60e51b815260040180806020018281038252602e815260200180611fbb602e913960400191505060405180910390fd5b600354600854600954604080516337347e0560e11b815260048101939093526024830191909152516001600160a01b0390921691636e68fc0a91604480820192600092909190829003018186803b158015610f5757600080fd5b505afa158015610f6b573d6000803e3d6000fd5b505050506040513d6000823e601f3d908101601f191682016040526020811015610f9457600080fd5b8101908080516040519392919084640100000000821115610fb457600080fd5b908301906020820185811115610fc957600080fd5b8251866020820283011164010000000082111715610fe657600080fd5b82525081516020918201928201910280838360005b83811015611013578181015183820152602001610ffb565b50505050919091016040525050825161103493600b93506020019150611e35565b50600e54600d8054611076926001600160a01b03169161106391606491610d12916000198101908110610cf657fe5b6002546001600160a01b0316919061197b565b61109b63deadbeef6110636064610d12600d6002600d805490500381548110610cf657fe5b7fb0f137151d6582b5d3bf7c348610be27187d15bbb0d28e553cb95e9cbcf30ba5600b6040518080602001828103825283818154815260200191508054801561110357602002820191906000526020600020905b8154815260200190600101908083116110ef575b50509250505060405180910390a1565b600060065461112061191a565b10158015611136575060075461113461191a565b105b905090565b611143611977565b6001600160a01b0316611154611432565b6001600160a01b03161461119d576040805162461bcd60e51b81526020600482018190526024820152600080516020611f9b833981519152604482015290519081900360640190fd5b600080546040516001600160a01b03909116907f8be0079c531659141344cd1fd0a4f28419497f9722a3daafe3b4186f6b6457e0908390a3600080546001600160a01b0319169055565b60055490565b6060600460009054906101000a90046001600160a01b03166001600160a01b0316637284e4166040518163ffffffff1660e01b815260040160006040518083038186803b15801561123d57600080fd5b505afa158015611251573d6000803e3d6000fd5b505050506040513d6000823e601f3d908101601f19168201604052602081101561127a57600080fd5b810190808051604051939291908464010000000082111561129a57600080fd5b9083019060208201858111156112af57600080fd5b82516401000000008111828201881017156112c957600080fd5b82525081516020918201929091019080838360005b838110156112f65781810151838201526020016112de565b50505050905090810190601f1680156113235780820380516001836020036101000a031916815260200191505b50604052505050905090565b600954600b54606091146113745760405162461bcd60e51b8152600401808060200182810382526027815260200180611f536027913960400191505060405180910390fd5b600b805480602002602001604051908101604052809291908181526020018280548015610dee5760200282019190600052602060002090815481526020019060010190808311610dda575050505050905090565b6113d0611977565b6001600160a01b03166113e1611432565b6001600160a01b03161461142a576040805162461bcd60e51b81526020600482018190526024820152600080516020611f9b833981519152604482015290519081900360640190fd5b610c46611adc565b6000546001600160a01b031690565b6004546001600160a01b031690565b6060600460009054906101000a90046001600160a01b03166001600160a01b031663ab6167d36040518163ffffffff1660e01b815260040160006040518083038186803b15801561123d57600080fd5b6007546114ab61191a565b10156114e85760405162461bcd60e51b8152600401808060200182810382526029815260200180611f2a6029913960400191505060405180910390fd5b600954600b541461152a5760405162461bcd60e51b8152600401808060200182810382526027815260200180611f536027913960400191505060405180910390fd5b6000336001600160a01b0316600f6000600b60008154811061154857fe5b600091825260208083209091015483528201929092526040019020546001600160a01b031614156115ea576004805460055460408051632142170760e11b815230948101949094523360248501526044840191909152516001600160a01b03909116916342842e0e91606480830192600092919082900301818387803b1580156115d157600080fd5b505af11580156115e5573d6000803e3d6000fd5b505050505b60005b60095481101561167c576000600b828154811061160657fe5b6000918252602080832090910154808352600f9091526040909120549091506001600160a01b031633811415611672576000828152600f6020526040902080546001600160a01b0319169055600d805461166f91610d1891606491610d129188908110610cf657fe5b93505b50506001016115ed565b506002546040805163a9059cbb60e01b81523360048201526024810184905290516001600160a01b039092169163a9059cbb916044808201926020929091908290030181600087803b1580156116d157600080fd5b505af11580156116e5573d6000803e3d6000fd5b505050506040513d60208110156116fb57600080fd5b50506040805133815290517fea61a2a22523394f29506de20cc9db2e881f096477982d51012058ec9032714a9181900360200190a150565b61173b611977565b6001600160a01b031661174c611432565b6001600160a01b031614611795576040805162461bcd60e51b81526020600482018190526024820152600080516020611f9b833981519152604482015290519081900360640190fd5b600655565b60006007546117a761191a565b1015905090565b600c540290565b6117bd611977565b6001600160a01b03166117ce611432565b6001600160a01b031614611817576040805162461bcd60e51b81526020600482018190526024820152600080516020611f9b833981519152604482015290519081900360640190fd5b6001600160a01b03811661185c5760405162461bcd60e51b8152600401808060200182810382526026815260200180611eb76026913960400191505060405180910390fd5b600080546040516001600160a01b03808516939216917f8be0079c531659141344cd1fd0a4f28419497f9722a3daafe3b4186f6b6457e091a3600080546001600160a01b0319166001600160a01b0392909216919091179055565b600082820183811015611911576040805162461bcd60e51b815260206004820152601b60248201527f536166654d6174683a206164646974696f6e206f766572666c6f770000000000604482015290519081900360640190fd5b90505b92915050565b4290565b60008261192d57506000611914565b8282028284828161193a57fe5b04146119115760405162461bcd60e51b8152600401808060200182810382526021815260200180611f7a6021913960400191505060405180910390fd5b3390565b604080516001600160a01b038416602482015260448082018490528251808303909101815260649091019091526020810180516001600160e01b031663a9059cbb60e01b1790526119cd908490611b65565b505050565b6119da610df8565b611a22576040805162461bcd60e51b815260206004820152601460248201527314185d5cd8589b194e881b9bdd081c185d5cd95960621b604482015290519081900360640190fd5b6000805460ff60a01b191690557f5db9ee0a495bf2e6ff9c91a7834c1ba4fdd244a5e8aa4e537bd38aeae4b073aa611a58611977565b604080516001600160a01b039092168252519081900360200190a1565b6000808211611acb576040805162461bcd60e51b815260206004820152601a60248201527f536166654d6174683a206469766973696f6e206279207a65726f000000000000604482015290519081900360640190fd5b818381611ad457fe5b049392505050565b611ae4610df8565b15611b29576040805162461bcd60e51b815260206004820152601060248201526f14185d5cd8589b194e881c185d5cd95960821b604482015290519081900360640190fd5b6000805460ff60a01b1916600160a01b1790557f62e78cea01bee320cd4e420270b5ea74000d11b0c9f74754ebdbfc544b05a258611a58611977565b6060611bba826040518060400160405280602081526020017f5361666545524332303a206c6f772d6c6576656c2063616c6c206661696c6564815250856001600160a01b0316611c169092919063ffffffff16565b8051909150156119cd57808060200190516020811015611bd957600080fd5b50516119cd5760405162461bcd60e51b815260040180806020018281038252602a815260200180611fe9602a913960400191505060405180910390fd5b6060611c258484600085611c2f565b90505b9392505050565b606082471015611c705760405162461bcd60e51b8152600401808060200182810382526026815260200180611f046026913960400191505060405180910390fd5b611c7985611d8b565b611cca576040805162461bcd60e51b815260206004820152601d60248201527f416464726573733a2063616c6c20746f206e6f6e2d636f6e7472616374000000604482015290519081900360640190fd5b60006060866001600160a01b031685876040518082805190602001908083835b60208310611d095780518252601f199092019160209182019101611cea565b6001836020036101000a03801982511681845116808217855250505050505090500191505060006040518083038185875af1925050503d8060008114611d6b576040519150601f19603f3d011682016040523d82523d6000602084013e611d70565b606091505b5091509150611d80828286611d91565b979650505050505050565b3b151590565b60608315611da0575081611c28565b825115611db05782518084602001fd5b8160405162461bcd60e51b81526004018080602001828103825283818151815260200191508051906020019080838360005b83811015611dfa578181015183820152602001611de2565b50505050905090810190601f168015611e275780820380516001836020036101000a031916815260200191505b509250505060405180910390fd5b828054828255906000526020600020908101928215611e70579160200282015b82811115611e70578251825591602001919060010190611e55565b50611e7c929150611e80565b5090565b5b80821115611e7c5760008155600101611e8156fe4c6f74746572793a205469636b65742073656c6c696e6720697320636c6f7365644f776e61626c653a206e6577206f776e657220697320746865207a65726f20616464726573734c6f74746572793a205469636b6574204e756d62657220697320616c7265616479206578697374416464726573733a20696e73756666696369656e742062616c616e636520666f722063616c6c4c6f74746572793a205469636b65742073656c6c696e67206973206e6f742079657420636c6f7365644c6f74746572793a2057696e6e696e67204e756d62657273206e6f742063686f73656e20796574536166654d6174683a206d756c7469706c69636174696f6e206f766572666c6f774f776e61626c653a2063616c6c6572206973206e6f7420746865206f776e65724c6f74746572793a204861766520616c726561647920647261776e207468652077696e6e696e67206e756d6265725361666545524332303a204552433230206f7065726174696f6e20646964206e6f7420737563636565644c6f74746572793a205469636b65742073656c6c696e67206973206e6f742079657420737461727465644c6f74746572793a205469636b6574204e756d626572206973206f7574206f662072616e67654c6f74746572793a20526571756573746564205469636b6574204e756d6265727320617265206e6f7420756e69717565a2646970667358221220f875244d0565f77f783da82ac0ae73f5bd2fbfa9b942becac744bd9463f4971164736f6c634300060c00334c6f74746572793a2052616e646f6d204e756d6265722047656e657261746f722063616e6e6f74206265203020616464726573734c6f74746572793a2054726561737572792063616e6e6f74206265203020616464726573734c6f74746572793a20466163746f72792063616e6e6f74206265203020616464726573734c6f74746572793a205072697a6520646973747269627574696f6e206973206e6f7420313030254c6f74746572793a20527562792063616e6e6f74206265203020616464726573734f776e61626c653a206e6577206f776e657220697320746865207a65726f2061646472657373496e697469616c697a61626c653a20636f6e747261637420697320616c726561647920696e697469616c697a65644c6f7474657279466163746f72793a20527562792063616e6e6f74206265203020616464726573734c6f7474657279466163746f72793a204e66742063616e6e6f74206265203020616464726573734c6f7474657279466163746f72793a20496e76616c696420646973747269627574696f6e4f776e61626c653a2063616c6c6572206973206e6f7420746865206f776e65724c6f7474657279466163746f72793a20727562792063616e6e6f74206265203020616464726573734c6f7474657279466163746f72793a204f776e6572206f66204e465420697320696e76616c69644c6f7474657279466163746f72793a20524e472063616e6e6f74206265203020616464726573734c6f7474657279466163746f72793a2072616e646f6d4e756d62657247656e657261746f722063616e6e6f7420626520302061646472657373a2646970667358221220dde52e2533644542dc918d35be249a020b7cbc85f3acda4e8ba3322391a3d74064736f6c634300060c0033",
  "devdoc": {
    "kind": "dev",
    "methods": {
      "createNewLotto(address,uint256,uint256,uint256,uint256[],address,uint256)": {
        "params": {
          "_lotterySize": "Digit count of ticket.",
          "_nft": "The NFT address for bonus.",
          "_tokenId": "The Bonus NFT ID.",
          "distribution": "An array defining the distribution of the prize pool.",
          "duration": "The duration until no more tickets will be sold for the lottery from now.",
          "ticketPrice": "Cost per ticket in $ruby."
        }
      },
      "owner()": {
        "details": "Returns the address of the current owner."
      },
      "renounceOwnership()": {
        "details": "Leaves the contract without owner. It will not be possible to call `onlyOwner` functions anymore. Can only be called by the current owner. NOTE: Renouncing ownership will leave the contract without an owner, thereby removing any functionality that is only available to the owner."
      },
      "transferOwnership(address)": {
        "details": "Transfers ownership of the contract to a new account (`newOwner`). Can only be called by the current owner."
      }
    },
    "version": 1
  },
  "userdoc": {
    "kind": "user",
    "methods": {
      "createNewLotto(address,uint256,uint256,uint256,uint256[],address,uint256)": {
        "notice": "Create a new Lottery instance."
      }
    },
    "version": 1
  },
  "storageLayout": {
    "storage": [
      {
        "astId": 705,
        "contract": "contracts/lottery/LotteryFactory.sol:LotteryFactory",
        "label": "_initialized",
        "offset": 0,
        "slot": "0",
        "type": "t_bool"
      },
      {
        "astId": 708,
        "contract": "contracts/lottery/LotteryFactory.sol:LotteryFactory",
        "label": "_initializing",
        "offset": 1,
        "slot": "0",
        "type": "t_bool"
      },
      {
        "astId": 2910,
        "contract": "contracts/lottery/LotteryFactory.sol:LotteryFactory",
        "label": "__gap",
        "offset": 0,
        "slot": "1",
        "type": "t_array(t_uint256)50_storage"
      },
      {
        "astId": 136,
        "contract": "contracts/lottery/LotteryFactory.sol:LotteryFactory",
        "label": "_owner",
        "offset": 0,
        "slot": "51",
        "type": "t_address"
      },
      {
        "astId": 255,
        "contract": "contracts/lottery/LotteryFactory.sol:LotteryFactory",
        "label": "__gap",
        "offset": 0,
        "slot": "52",
        "type": "t_array(t_uint256)49_storage"
      },
      {
        "astId": 21456,
        "contract": "contracts/lottery/LotteryFactory.sol:LotteryFactory",
        "label": "ruby",
        "offset": 0,
        "slot": "101",
        "type": "t_address"
      },
      {
        "astId": 21458,
        "contract": "contracts/lottery/LotteryFactory.sol:LotteryFactory",
        "label": "RNG",
        "offset": 0,
        "slot": "102",
        "type": "t_address"
      },
      {
        "astId": 21465,
        "contract": "contracts/lottery/LotteryFactory.sol:LotteryFactory",
        "label": "allLotteries",
        "offset": 0,
        "slot": "103",
        "type": "t_mapping(t_uint256,t_contract(Lottery)21437)"
      },
      {
        "astId": 21467,
        "contract": "contracts/lottery/LotteryFactory.sol:LotteryFactory",
        "label": "lotteryId",
        "offset": 0,
        "slot": "104",
        "type": "t_uint256"
      }
    ],
    "types": {
      "t_address": {
        "encoding": "inplace",
        "label": "address",
        "numberOfBytes": "20"
      },
      "t_array(t_uint256)49_storage": {
        "base": "t_uint256",
        "encoding": "inplace",
        "label": "uint256[49]",
        "numberOfBytes": "1568"
      },
      "t_array(t_uint256)50_storage": {
        "base": "t_uint256",
        "encoding": "inplace",
        "label": "uint256[50]",
        "numberOfBytes": "1600"
      },
      "t_bool": {
        "encoding": "inplace",
        "label": "bool",
        "numberOfBytes": "1"
      },
      "t_contract(Lottery)21437": {
        "encoding": "inplace",
        "label": "contract Lottery",
        "numberOfBytes": "20"
      },
      "t_mapping(t_uint256,t_contract(Lottery)21437)": {
        "encoding": "mapping",
        "key": "t_uint256",
        "label": "mapping(uint256 => contract Lottery)",
        "numberOfBytes": "32",
        "value": "t_contract(Lottery)21437"
      },
      "t_uint256": {
        "encoding": "inplace",
        "label": "uint256",
        "numberOfBytes": "32"
      }
    }
  }
}