{
  "address": "0xCE13bC9a8216c51Fab50478Efde184851D9b0542",
  "abi": [
    {
      "inputs": [],
      "stateMutability": "nonpayable",
      "type": "constructor"
    },
    {
      "inputs": [
        {
          "internalType": "uint256",
          "name": "lotterySize",
          "type": "uint256"
        }
      ],
      "name": "getRandomNumber",
      "outputs": [
        {
          "internalType": "uint256",
          "name": "randomness",
          "type": "uint256"
        }
      ],
      "stateMutability": "nonpayable",
      "type": "function"
    }
  ],
  "transactionHash": "0xcea32d2c4ec5d39e7050e40a0a02ea808c2ebc28ef6d174a1284aa8df9abeea5",
  "args": [],
  "numDeployments": 1,
  "solcInputHash": "7aa7e42edecf6f63eb36e406f51b9e04",
  "bytecode": "0x608060405234801561001057600080fd5b5060c48061001f6000396000f3fe6080604052348015600f57600080fd5b506004361060285760003560e01c8063b37217a414602d575b600080fd5b604760048036036020811015604157600080fd5b50356059565b60408051918252519081900360200190f35b600081600a0a60656072565b81606b57fe5b0692915050565b60405160009080602081848060185afa608757fe5b505191905056fea2646970667358221220372ec65a768e5ba81a6befb148b8615ed654eae039fa94f63eb95f583ccb453164736f6c634300060c0033",
  "devdoc": {
    "kind": "dev",
    "methods": {},
    "version": 1
  },
  "userdoc": {
    "kind": "user",
    "methods": {},
    "version": 1
  },
  "storageLayout": {
    "storage": [],
    "types": null
  }
}