{
  "address": "0xBCEF331A0216a5A4A64382BE09FEDC6dfDbCc23B",
  "abi": [
    {
      "inputs": [],
      "stateMutability": "nonpayable",
      "type": "constructor"
    },
    {
      "inputs": [],
      "name": "getRandom",
      "outputs": [
        {
          "internalType": "bytes32",
          "name": "addr",
          "type": "bytes32"
        }
      ],
      "stateMutability": "view",
      "type": "function"
    },
    {
      "inputs": [
        {
          "internalType": "uint256",
          "name": "lotterySize",
          "type": "uint256"
        },
        {
          "internalType": "uint256",
          "name": "count",
          "type": "uint256"
        }
      ],
      "name": "getRandomNumber",
      "outputs": [
        {
          "internalType": "uint256[]",
          "name": "",
          "type": "uint256[]"
        }
      ],
      "stateMutability": "view",
      "type": "function"
    }
  ],
  "transactionHash": "0x0ee2d4a39e23b3394db9d5d9541bf7e791ab28ce09cb3d7dba9ae0933c1c4f2f",
  "args": [],
  "numDeployments": 1,
  "solcInputHash": "3a7102ad56567d9e552c3894123f32b5",
  "bytecode": "0x608060405234801561001057600080fd5b506101bf806100206000396000f3fe608060405234801561001057600080fd5b50600436106100365760003560e01c80636e68fc0a1461003b578063aacc5a17146100ae575b600080fd5b61005e6004803603604081101561005157600080fd5b50803590602001356100c8565b60408051602080825283518183015283519192839290830191858101910280838360005b8381101561009a578181015183820152602001610082565b505050509050019250505060405180910390f35b6100b661016c565b60408051918252519081900360200190f35b6060808267ffffffffffffffff811180156100e257600080fd5b5060405190808252806020026020018201604052801561010c578160200160208202803683370190505b509050600061011961016c565b905060005b848110156101625785600a0a828161013257fe5b0683828151811061013f57fe5b60200260200101818152505085600a0a828161015757fe5b04915060010161011e565b5090949350505050565b60405160009080602081848060185afa61018257fe5b505191905056fea264697066735822122079e01cde6cd8b13838340d95c92b0d3c6a356a61fde029f0e73db4315b45dafe64736f6c634300060c0033",
  "devdoc": {
    "kind": "dev",
    "methods": {},
    "version": 1
  },
  "userdoc": {
    "kind": "user",
    "methods": {},
    "version": 1
  },
  "storageLayout": {
    "storage": [],
    "types": null
  }
}