{
  "address": "0x758EB6ECdda8d9A0DA8AfbEc4B3216c855c9dCf7",
  "abi": [
    {
      "anonymous": false,
      "inputs": [
        {
          "indexed": false,
          "internalType": "address",
          "name": "newAmmRouter",
          "type": "address"
        }
      ],
      "name": "AmmRouterSet",
      "type": "event"
    },
    {
      "anonymous": false,
      "inputs": [
        {
          "indexed": false,
          "internalType": "uint256",
          "name": "maxSwapHops",
          "type": "uint256"
        }
      ],
      "name": "MaxHopsSet",
      "type": "event"
    },
    {
      "anonymous": false,
      "inputs": [
        {
          "indexed": false,
          "internalType": "address",
          "name": "newNftAdmin",
          "type": "address"
        }
      ],
      "name": "NftAdminSet",
      "type": "event"
    },
    {
      "anonymous": false,
      "inputs": [
        {
          "indexed": true,
          "internalType": "address",
          "name": "previousOwner",
          "type": "address"
        },
        {
          "indexed": true,
          "internalType": "address",
          "name": "newOwner",
          "type": "address"
        }
      ],
      "name": "OwnershipTransferred",
      "type": "event"
    },
    {
      "anonymous": false,
      "inputs": [
        {
          "indexed": false,
          "internalType": "address",
          "name": "stablePool",
          "type": "address"
        }
      ],
      "name": "StablePoolDisabled",
      "type": "event"
    },
    {
      "anonymous": false,
      "inputs": [
        {
          "indexed": false,
          "internalType": "address",
          "name": "stablePool",
          "type": "address"
        }
      ],
      "name": "StablePoolEnabled",
      "type": "event"
    },
    {
      "inputs": [],
      "name": "ammRouter",
      "outputs": [
        {
          "internalType": "contract IUniswapV2Router02",
          "name": "",
          "type": "address"
        }
      ],
      "stateMutability": "view",
      "type": "function"
    },
    {
      "inputs": [
        {
          "internalType": "contract ISwap",
          "name": "stablePool",
          "type": "address"
        }
      ],
      "name": "disableStablePool",
      "outputs": [],
      "stateMutability": "nonpayable",
      "type": "function"
    },
    {
      "inputs": [
        {
          "internalType": "contract ISwap",
          "name": "stablePool",
          "type": "address"
        }
      ],
      "name": "enableStablePool",
      "outputs": [],
      "stateMutability": "nonpayable",
      "type": "function"
    },
    {
      "inputs": [
        {
          "internalType": "contract ISwap",
          "name": "",
          "type": "address"
        }
      ],
      "name": "enabledStablePools",
      "outputs": [
        {
          "internalType": "bool",
          "name": "",
          "type": "bool"
        }
      ],
      "stateMutability": "view",
      "type": "function"
    },
    {
      "inputs": [
        {
          "internalType": "address",
          "name": "_owner",
          "type": "address"
        },
        {
          "internalType": "contract IUniswapV2Router02",
          "name": "_ammRouter",
          "type": "address"
        },
        {
          "internalType": "contract ISwap",
          "name": "_stablePool",
          "type": "address"
        },
        {
          "internalType": "contract IRubyNFTAdmin",
          "name": "_nftAdmin",
          "type": "address"
        },
        {
          "internalType": "uint256",
          "name": "maxSwapHops_",
          "type": "uint256"
        }
      ],
      "name": "initialize",
      "outputs": [],
      "stateMutability": "nonpayable",
      "type": "function"
    },
    {
      "inputs": [],
      "name": "nftAdmin",
      "outputs": [
        {
          "internalType": "contract IRubyNFTAdmin",
          "name": "",
          "type": "address"
        }
      ],
      "stateMutability": "view",
      "type": "function"
    },
    {
      "inputs": [],
      "name": "owner",
      "outputs": [
        {
          "internalType": "address",
          "name": "",
          "type": "address"
        }
      ],
      "stateMutability": "view",
      "type": "function"
    },
    {
      "inputs": [],
      "name": "renounceOwnership",
      "outputs": [],
      "stateMutability": "nonpayable",
      "type": "function"
    },
    {
      "inputs": [
        {
          "internalType": "contract IUniswapV2Router02",
          "name": "newAmmRouter",
          "type": "address"
        }
      ],
      "name": "setAmmRouter",
      "outputs": [],
      "stateMutability": "nonpayable",
      "type": "function"
    },
    {
      "inputs": [
        {
          "internalType": "uint256",
          "name": "maxSwapHops",
          "type": "uint256"
        }
      ],
      "name": "setMaxHops",
      "outputs": [],
      "stateMutability": "nonpayable",
      "type": "function"
    },
    {
      "inputs": [
        {
          "internalType": "contract IRubyNFTAdmin",
          "name": "newNftAdmin",
          "type": "address"
        }
      ],
      "name": "setNftAdmin",
      "outputs": [],
      "stateMutability": "nonpayable",
      "type": "function"
    },
    {
      "inputs": [
        {
          "components": [
            {
              "components": [
                {
                  "internalType": "enum AMMSwapType",
                  "name": "swapType",
                  "type": "uint8"
                },
                {
                  "internalType": "uint256",
                  "name": "amountIn",
                  "type": "uint256"
                },
                {
                  "internalType": "uint256",
                  "name": "amountOut",
                  "type": "uint256"
                },
                {
                  "internalType": "address[]",
                  "name": "path",
                  "type": "address[]"
                },
                {
                  "internalType": "address",
                  "name": "to",
                  "type": "address"
                },
                {
                  "internalType": "uint256",
                  "name": "deadline",
                  "type": "uint256"
                }
              ],
              "internalType": "struct AMMSwapDetails[]",
              "name": "ammSwaps",
              "type": "tuple[]"
            },
            {
              "components": [
                {
                  "internalType": "address",
                  "name": "stablePool",
                  "type": "address"
                },
                {
                  "internalType": "uint8",
                  "name": "tokenIndexFrom",
                  "type": "uint8"
                },
                {
                  "internalType": "uint8",
                  "name": "tokenIndexTo",
                  "type": "uint8"
                },
                {
                  "internalType": "uint256",
                  "name": "dx",
                  "type": "uint256"
                },
                {
                  "internalType": "uint256",
                  "name": "minDy",
                  "type": "uint256"
                },
                {
                  "internalType": "uint256",
                  "name": "deadline",
                  "type": "uint256"
                }
              ],
              "internalType": "struct StableSwapDetails[]",
              "name": "stableSwaps",
              "type": "tuple[]"
            },
            {
              "internalType": "enum SwapType[]",
              "name": "order",
              "type": "uint8[]"
            }
          ],
          "internalType": "struct SwapDetails",
          "name": "swapDetails",
          "type": "tuple"
        }
      ],
      "name": "swap",
      "outputs": [
        {
          "internalType": "uint256",
          "name": "outputAmount",
          "type": "uint256"
        }
      ],
      "stateMutability": "nonpayable",
      "type": "function"
    },
    {
      "inputs": [
        {
          "internalType": "address",
          "name": "newOwner",
          "type": "address"
        }
      ],
      "name": "transferOwnership",
      "outputs": [],
      "stateMutability": "nonpayable",
      "type": "function"
    }
  ],
  "transactionHash": "0xb834e5ac97f236c5f1bf34489f0f8338c7a16059cce0001cb92d874b9479ad1e",
  "args": [],
  "numDeployments": 1,
  "solcInputHash": "ded42666859d13d7d3190f27597bbb1d",
  "bytecode": "0x608060405234801561001057600080fd5b50612e93806100206000396000f3fe608060405234801561001057600080fd5b50600436106100cf5760003560e01c80639360bfad1161008c578063c39b2e9911610066578063c39b2e9914610185578063f2fde38b14610198578063f7013ef6146101ab578063fefcbe13146101be576100cf565b80639360bfad1461014a578063a26f579614610152578063b8af6a5314610172576100cf565b806339c6980b146100d457806362ea3db2146100e9578063715018a6146101125780637e29ca871461011a5780638da5cb5b1461012d57806390b3c4e714610142575b600080fd5b6100e76100e23660046121d9565b6101d1565b005b6100fc6100f7366004612345565b610295565b6040516101099190612c5b565b60405180910390f35b6100e76104a8565b6100e76101283660046121d9565b610531565b6101356105e9565b60405161010991906124bb565b6101356105f8565b610135610607565b6101656101603660046121d9565b610616565b6040516101099190612526565b6100e76101803660046123d1565b61062b565b6100e76101933660046121d9565b6106bf565b6100e76101a63660046121d9565b610774565b6100e76101b9366004612211565b610835565b6100e76101cc3660046121d9565b6109e4565b6101d9610a94565b6001600160a01b03166101ea6105e9565b6001600160a01b0316146102195760405162461bcd60e51b8152600401610210906129d3565b60405180910390fd5b6001600160a01b03811661023f5760405162461bcd60e51b815260040161021090612bd2565b606580546001600160a01b0319166001600160a01b0383161790556040517fd02944e734a676af7bc6d3c180fcb9a5635972ee68667190d0ec9e1bcedde47b9061028a9083906124bb565b60405180910390a150565b6068546000906102a86040840184612d10565b905011156102c85760405162461bcd60e51b815260040161021090612ac0565b6102d182610a98565b60008060005b6102e46040860186612d10565b90508110156104345760006102fc6040870187612d10565b8381811061030657fe5b905060200201602081019061031b9190612329565b600181111561032657fe5b14806103685750600161033c6040870187612d10565b8381811061034657fe5b905060200201602081019061035b9190612329565b600181111561036657fe5b145b6103845760405162461bcd60e51b815260040161021090612593565b60006103936040870187612d10565b8381811061039d57fe5b90506020020160208101906103b29190612329565b60018111156103bd57fe5b14156103fe576103f16103d08680612d10565b858181106103da57fe5b90506020028101906103ec9190612d9e565b611024565b935060019092019161042c565b61042361040e6020870187612d57565b8481811061041857fe5b905060c00201611277565b93506001909101905b6001016102d7565b5061043f8484611430565b60665460405163818ef01960e01b81526001600160a01b039091169063818ef0199061046f9032906004016124bb565b600060405180830381600087803b15801561048957600080fd5b505af115801561049d573d6000803e3d6000fd5b505050505050919050565b6104b0610a94565b6001600160a01b03166104c16105e9565b6001600160a01b0316146104e75760405162461bcd60e51b8152600401610210906129d3565b6033546040516000916001600160a01b0316907f8be0079c531659141344cd1fd0a4f28419497f9722a3daafe3b4186f6b6457e0908390a3603380546001600160a01b0319169055565b610539610a94565b6001600160a01b031661054a6105e9565b6001600160a01b0316146105705760405162461bcd60e51b8152600401610210906129d3565b6001600160a01b0381166105965760405162461bcd60e51b81526004016102109061274a565b6001600160a01b03811660009081526067602052604090819020805460ff19166001179055517f763ba138b73b63a43de614b1d4efd85711b3240cdb9c79a0a6a67647a95c4a319061028a9083906124bb565b6033546001600160a01b031690565b6065546001600160a01b031681565b6066546001600160a01b031681565b60676020526000908152604090205460ff1681565b610633610a94565b6001600160a01b03166106446105e9565b6001600160a01b03161461066a5760405162461bcd60e51b8152600401610210906129d3565b6000811161068a5760405162461bcd60e51b815260040161021090612c19565b60688190556040517f47db5040426af8ac88cc15012b2cf38e2bee85044b14306a1771c34636a8d2b29061028a908390612c5b565b6106c7610a94565b6001600160a01b03166106d86105e9565b6001600160a01b0316146106fe5760405162461bcd60e51b8152600401610210906129d3565b6001600160a01b0381166107245760405162461bcd60e51b81526004016102109061274a565b6001600160a01b03811660009081526067602052604090819020805460ff19169055517f62825d4e3dc47438cdd2a3014131db621a70e653474b90da2dd00d8ddb90bfca9061028a9083906124bb565b61077c610a94565b6001600160a01b031661078d6105e9565b6001600160a01b0316146107b35760405162461bcd60e51b8152600401610210906129d3565b6001600160a01b0381166107d95760405162461bcd60e51b8152600401610210906125ca565b6033546040516001600160a01b038084169216907f8be0079c531659141344cd1fd0a4f28419497f9722a3daafe3b4186f6b6457e090600090a3603380546001600160a01b0319166001600160a01b0392909216919091179055565b600054610100900460ff168061084e575061084e611650565b8061085c575060005460ff16155b6108785760405162461bcd60e51b81526004016102109061293d565b600054610100900460ff161580156108a3576000805460ff1961ff0019909116610100171660011790555b6001600160a01b0386166108c95760405162461bcd60e51b8152600401610210906128cf565b6001600160a01b0385166108ef5760405162461bcd60e51b815260040161021090612bd2565b6001600160a01b0384166109155760405162461bcd60e51b815260040161021090612610565b6001600160a01b03831661093b5760405162461bcd60e51b815260040161021090612b8c565b816109585760405162461bcd60e51b8152600401610210906127cd565b610960611661565b61096986610774565b606580546001600160a01b038088166001600160a01b031992831617909255606680549286169290911691909117905560688290556109a784610531565b6001600160a01b0384166000908152606760205260409020805460ff1916600117905580156109dc576000805461ff00191690555b505050505050565b6109ec610a94565b6001600160a01b03166109fd6105e9565b6001600160a01b031614610a235760405162461bcd60e51b8152600401610210906129d3565b6001600160a01b038116610a495760405162461bcd60e51b815260040161021090612b8c565b606680546001600160a01b0319166001600160a01b0383161790556040517f709a60e72bf092aafa932d3f93f26f1cc30afcdda76e5b1f24ccb06e79242edb9061028a9083906124bb565b3390565b60008080610aa96040850185612d10565b6000818110610ab457fe5b9050602002016020810190610ac99190612329565b6001811115610ad457fe5b1415610eca5760606000610ae88580612d10565b6000818110610af357fe5b9050602002810190610b059190612d9e565b610b13906020810190612329565b6001811115610b1e57fe5b1415610cbf576065546040805163c45a015560e01b81529051610cb8926001600160a01b03169163c45a0155916004808301926020929190829003018186803b158015610b6a57600080fd5b505afa158015610b7e573d6000803e3d6000fd5b505050506040513d601f19601f82011682018060405250810190610ba291906121f5565b610bac8680612d10565b6000818110610bb757fe5b9050602002810190610bc99190612d9e565b60200135610bd78780612d10565b6000818110610be257fe5b9050602002810190610bf49190612d9e565b610c02906060810190612d10565b808060200260200160405190810160405280939291908181526020018383602002808284376000920191909152505060665460405163ea60f36160e01b81526001600160a01b03909116925063ea60f3619150610c639032906004016124bb565b60206040518083038186803b158015610c7b57600080fd5b505afa158015610c8f573d6000803e3d6000fd5b505050506040513d601f19601f82011682018060405250810190610cb391906123e9565b6116f4565b9050610e56565b6065546040805163c45a015560e01b81529051610e53926001600160a01b03169163c45a0155916004808301926020929190829003018186803b158015610d0557600080fd5b505afa158015610d19573d6000803e3d6000fd5b505050506040513d601f19601f82011682018060405250810190610d3d91906121f5565b610d478680612d10565b6000818110610d5257fe5b9050602002810190610d649190612d9e565b60400135610d728780612d10565b6000818110610d7d57fe5b9050602002810190610d8f9190612d9e565b610d9d906060810190612d10565b808060200260200160405190810160405280939291908181526020018383602002808284376000920191909152505060665460405163ea60f36160e01b81526001600160a01b03909116925063ea60f3619150610dfe9032906004016124bb565b60206040518083038186803b158015610e1657600080fd5b505afa158015610e2a573d6000803e3d6000fd5b505050506040513d601f19601f82011682018060405250810190610e4e91906123e9565b61180d565b90505b610e608480612d10565b6000818110610e6b57fe5b9050602002810190610e7d9190612d9e565b610e8b906060810190612d10565b6000818110610e9657fe5b9050602002016020810190610eab91906121d9565b925080600081518110610eba57fe5b6020026020010151915050611008565b6000610ed96020850185612d57565b6000818110610ee457fe5b610efa92602060c09092020190810191506121d9565b6001600160a01b03811660009081526067602052604090205490915060ff16610f355760405162461bcd60e51b815260040161021090612a08565b6001600160a01b0381166382b86600610f516020870187612d57565b6000818110610f5c57fe5b905060c002016020016020810190610f749190612401565b6040518263ffffffff1660e01b8152600401610f909190612cd7565b60206040518083038186803b158015610fa857600080fd5b505afa158015610fbc573d6000803e3d6000fd5b505050506040513d601f19601f82011682018060405250810190610fe091906121f5565b9250610fef6020850185612d57565b6000818110610ffa57fe5b905060c00201606001359150505b8161101e6001600160a01b038216333085611911565b50505050565b6000806110346020840184612329565b600181111561103f57fe5b1480611062575060016110556020840184612329565b600181111561106057fe5b145b61107e5760405162461bcd60e51b8152600401610210906126bd565b60606110c561108f84830185612d10565b600081811061109a57fe5b90506020020160208101906110af91906121d9565b6065546001600160a01b03166020860135611969565b60006110d46020850185612329565b60018111156110df57fe5b14156111a0576065546001600160a01b03166338ed17396020850135604086013561110d6060880188612d10565b61111d60a08a0160808b016121d9565b8960a001356040518763ffffffff1660e01b815260040161114396959493929190612c64565b600060405180830381600087803b15801561115d57600080fd5b505af1158015611171573d6000803e3d6000fd5b505050506040513d6000823e601f3d908101601f191682016040526111999190810190612274565b9050611257565b6065546001600160a01b0316638803dbee604085013560208601356111c86060880188612d10565b6111d860a08a0160808b016121d9565b8960a001356040518763ffffffff1660e01b81526004016111fe96959493929190612c64565b600060405180830381600087803b15801561121857600080fd5b505af115801561122c573d6000803e3d6000fd5b505050506040513d6000823e601f3d908101601f191682016040526112549190810190612274565b90505b8060018251038151811061126757fe5b6020026020010151915050919050565b60008061128760208401846121d9565b6001600160a01b03811660009081526067602052604090205490915060ff166112c25760405162461bcd60e51b815260040161021090612a08565b60006001600160a01b0382166382b866006112e36040870160208801612401565b6040518263ffffffff1660e01b81526004016112ff9190612cd7565b60206040518083038186803b15801561131757600080fd5b505afa15801561132b573d6000803e3d6000fd5b505050506040513d601f19601f8201168201806040525081019061134f91906121f5565b905061136c8161136260208701876121d9565b8660600135611969565b61137960208501856121d9565b6001600160a01b031663916955866113976040870160208801612401565b6113a76060880160408901612401565b876060013588608001358960a001356040518663ffffffff1660e01b81526004016113d6959493929190612ce5565b602060405180830381600087803b1580156113f057600080fd5b505af1158015611404573d6000803e3d6000fd5b505050506040513d601f19601f8201168201806040525081019061142891906123e9565b949350505050565b60008060016114426040860186612d10565b919091039150600090506114596040860186612d10565b8381811061146357fe5b90506020020160208101906114789190612329565b600181111561148357fe5b141561153b57600060016114978680612d10565b9190910391506000905060016114ad8780612d10565b848181106114b757fe5b90506020028101906114c99190612d9e565b6114d7906060810190612d10565b9190910391506114e990508680612d10565b838181106114f357fe5b90506020028101906115059190612d9e565b611513906060810190612d10565b8281811061151d57fe5b905060200201602081019061153291906121d9565b93505050611634565b6000600161154c6020870187612d57565b905003905060008580602001906115639190612d57565b8381811061156d57fe5b61158392602060c09092020190810191506121d9565b90506001600160a01b0381166382b866006115a16020890189612d57565b858181106115ab57fe5b905060c0020160400160208101906115c39190612401565b6040518263ffffffff1660e01b81526004016115df9190612cd7565b60206040518083038186803b1580156115f757600080fd5b505afa15801561160b573d6000803e3d6000fd5b505050506040513d601f19601f8201168201806040525081019061162f91906121f5565b935050505b816116496001600160a01b0382163386611a0a565b5050505050565b600061165b30611a2e565b15905090565b600054610100900460ff168061167a575061167a611650565b80611688575060005460ff16155b6116a45760405162461bcd60e51b81526004016102109061293d565b600054610100900460ff161580156116cf576000805460ff1961ff0019909116610100171660011790555b6116d7611a34565b6116df611ab5565b80156116f1576000805461ff00191690555b50565b60606002835110156117185760405162461bcd60e51b815260040161021090612906565b825167ffffffffffffffff8111801561173057600080fd5b5060405190808252806020026020018201604052801561175a578160200160208202803683370190505b509050838160008151811061176b57fe5b60200260200101818152505060005b6001845103811015611804576000806117bd8887858151811061179957fe5b60200260200101518886600101815181106117b057fe5b6020026020010151611b8f565b915091506117e08484815181106117d057fe5b6020026020010151838388611c68565b8484600101815181106117ef57fe5b6020908102919091010152505060010161177a565b50949350505050565b60606002835110156118315760405162461bcd60e51b815260040161021090612906565b825167ffffffffffffffff8111801561184957600080fd5b50604051908082528060200260200182016040528015611873578160200160208202803683370190505b509050838160018351038151811061188757fe5b60209081029190910101528251600019015b8015611804576000806118c9888760018603815181106118b557fe5b60200260200101518886815181106117b057fe5b915091506118ec8484815181106118dc57fe5b6020026020010151838388611d31565b8460018503815181106118fb57fe5b6020908102919091010152505060001901611899565b61101e846323b872dd60e01b858585604051602401611932939291906124e9565b60408051601f198184030181529190526020810180516001600160e01b03166001600160e01b031990931692909217909152611dfa565b604051636eb1769f60e11b815283906000906001600160a01b0383169063dd62ed3e9061199c90309088906004016124cf565b60206040518083038186803b1580156119b457600080fd5b505afa1580156119c8573d6000803e3d6000fd5b505050506040513d601f19601f820116820180604052508101906119ec91906123e9565b905082811015611649576116496001600160a01b0383168585611e89565b611a298363a9059cbb60e01b848460405160240161193292919061250d565b505050565b3b151590565b600054610100900460ff1680611a4d5750611a4d611650565b80611a5b575060005460ff16155b611a775760405162461bcd60e51b81526004016102109061293d565b600054610100900460ff161580156116df576000805460ff1961ff00199091166101001716600117905580156116f1576000805461ff001916905550565b600054610100900460ff1680611ace5750611ace611650565b80611adc575060005460ff16155b611af85760405162461bcd60e51b81526004016102109061293d565b600054610100900460ff16158015611b23576000805460ff1961ff0019909116610100171660011790555b6000611b2d610a94565b603380546001600160a01b0319166001600160a01b038316908117909155604051919250906000907f8be0079c531659141344cd1fd0a4f28419497f9722a3daafe3b4186f6b6457e0908290a35080156116f1576000805461ff001916905550565b6000806000611b9e8585611f34565b509050600080611baf888888611fbe565b6001600160a01b0316630902f1ac6040518163ffffffff1660e01b815260040160606040518083038186803b158015611be757600080fd5b505afa158015611bfb573d6000803e3d6000fd5b505050506040513d601f19601f82011682018060405250810190611c1f919061237d565b506001600160701b031691506001600160701b03169150826001600160a01b0316876001600160a01b031614611c56578082611c59565b81815b90999098509650505050505050565b6000808511611c895760405162461bcd60e51b815260040161021090612b41565b600084118015611c995750600083115b611cb55760405162461bcd60e51b81526004016102109061298b565b6103e58210158015611cc957506103e88211155b611ce55760405162461bcd60e51b81526004016102109061280f565b6000611cf1868461202e565b90506000611cff828661202e565b90506000611d1983611d13896103e861202e565b9061206b565b9050808281611d2457fe5b0498975050505050505050565b6000808511611d525760405162461bcd60e51b8152600401610210906126fe565b600084118015611d625750600083115b611d7e5760405162461bcd60e51b81526004016102109061298b565b6103e58210158015611d9257506103e88211155b611dae5760405162461bcd60e51b81526004016102109061280f565b6000611dc66103e8611dc0878961202e565b9061202e565b90506000611dd884611dc0878a61208e565b9050611def6001828481611de857fe5b049061206b565b979650505050505050565b6060611e4f826040518060400160405280602081526020017f5361666545524332303a206c6f772d6c6576656c2063616c6c206661696c6564815250856001600160a01b03166120b19092919063ffffffff16565b805190915015611a295780806020019051810190611e6d9190612309565b611a295760405162461bcd60e51b815260040161021090612af7565b6000611f1382856001600160a01b031663dd62ed3e30876040518363ffffffff1660e01b8152600401611ebd9291906124cf565b60206040518083038186803b158015611ed557600080fd5b505afa158015611ee9573d6000803e3d6000fd5b505050506040513d601f19601f82011682018060405250810190611f0d91906123e9565b906120ca565b905061101e8463095ea7b360e01b858460405160240161193292919061250d565b600080826001600160a01b0316846001600160a01b03161415611f695760405162461bcd60e51b815260040161021090612844565b826001600160a01b0316846001600160a01b031610611f89578284611f8c565b83835b90925090506001600160a01b038216611fb75760405162461bcd60e51b815260040161021090612a89565b9250929050565b6000806000611fcd8585611f34565b91509150858282604051602001611fe5929190612422565b6040516020818303038152906040528051906020012060405160200161200c929190612465565b60408051601f1981840301815291905280516020909101209695505050505050565b60008115806120495750508082028282828161204657fe5b04145b6120655760405162461bcd60e51b815260040161021090612658565b92915050565b808201828110156120655760405162461bcd60e51b81526004016102109061279f565b808203828111156120655760405162461bcd60e51b815260040161021090612564565b60606120c084846000856120ef565b90505b9392505050565b6000828201838110156120c35760405162461bcd60e51b815260040161021090612686565b6060824710156121115760405162461bcd60e51b815260040161021090612889565b61211a85611a2e565b6121365760405162461bcd60e51b815260040161021090612a52565b60006060866001600160a01b031685876040516121539190612449565b60006040518083038185875af1925050503d8060008114612190576040519150601f19603f3d011682016040523d82523d6000602084013e612195565b606091505b5091509150611def828286606083156121af5750816120c3565b8251156121bf5782518084602001fd5b8160405162461bcd60e51b81526004016102109190612531565b6000602082840312156121ea578081fd5b81356120c381612e26565b600060208284031215612206578081fd5b81516120c381612e26565b600080600080600060a08688031215612228578081fd5b853561223381612e26565b9450602086013561224381612e26565b9350604086013561225381612e26565b9250606086013561226381612e26565b949793965091946080013592915050565b60006020808385031215612286578182fd5b825167ffffffffffffffff81111561229c578283fd5b8301601f810185136122ac578283fd5b80516122bf6122ba82612dda565b612db3565b81815283810190838501858402850186018910156122db578687fd5b8694505b838510156122fd5780518352600194909401939185019185016122df565b50979650505050505050565b60006020828403121561231a578081fd5b815180151581146120c3578182fd5b60006020828403121561233a578081fd5b81356120c381612e3b565b600060208284031215612356578081fd5b813567ffffffffffffffff81111561236c578182fd5b8201606081850312156120c3578182fd5b600080600060608486031215612391578283fd5b835161239c81612e48565b60208501519093506123ad81612e48565b604085015190925063ffffffff811681146123c6578182fd5b809150509250925092565b6000602082840312156123e2578081fd5b5035919050565b6000602082840312156123fa578081fd5b5051919050565b600060208284031215612412578081fd5b813560ff811681146120c3578182fd5b6bffffffffffffffffffffffff19606093841b811682529190921b16601482015260280190565b6000825161245b818460208701612dfa565b9190910192915050565b6001600160f81b0319815260609290921b6bffffffffffffffffffffffff1916600183015260158201527fba9f7d123cf1f1b0f57891be300d90939d1a591af80a90cfb7e904a821927963603582015260550190565b6001600160a01b0391909116815260200190565b6001600160a01b0392831681529116602082015260400190565b6001600160a01b039384168152919092166020820152604081019190915260600190565b6001600160a01b03929092168252602082015260400190565b901515815260200190565b6000602082528251806020840152612550816040850160208701612dfa565b601f01601f19169190910160400192915050565b60208082526015908201527464732d6d6174682d7375622d756e646572666c6f7760581b604082015260600190565b6020808252601d908201527f52756279526f757465723a20496e76616c696420737761702074797065000000604082015260600190565b60208082526026908201527f4f776e61626c653a206e6577206f776e657220697320746865207a65726f206160408201526564647265737360d01b606082015260800190565b60208082526028908201527f52756279526f757465723a20496e76616c696420537461626c6520506f6f6c2060408201526730b2323932b9b99760c11b606082015260800190565b60208082526014908201527364732d6d6174682d6d756c2d6f766572666c6f7760601b604082015260600190565b6020808252601b908201527f536166654d6174683a206164646974696f6e206f766572666c6f770000000000604082015260600190565b60208082526021908201527f52756279526f757465723a20496e76616c696420414d4d2073776170207479706040820152606560f81b606082015260800190565b6020808252602c908201527f556e697377617056324c6962726172793a20494e53554646494349454e545f4f60408201526b155514155517d05353d5539560a21b606082015260800190565b60208082526035908201527f52756279526f757465723a2054686520737461626c65506f6f6c2063616e6e6f6040820152747420626520746865207a65726f206164647265737360581b606082015260800190565b60208082526014908201527364732d6d6174682d6164642d6f766572666c6f7760601b604082015260600190565b60208082526022908201527f52756279526f757465723a20496e76616c6964206d6178207377617020686f70604082015261399760f11b606082015260800190565b6020808252818101527f556e697377617056324c6962726172793a204645455f4d554c5449504c494552604082015260600190565b60208082526025908201527f556e697377617056324c6962726172793a204944454e544943414c5f41444452604082015264455353455360d81b606082015260800190565b60208082526026908201527f416464726573733a20696e73756666696369656e742062616c616e636520666f6040820152651c8818d85b1b60d21b606082015260800190565b6020808252601a908201527f52756279526f757465723a20496e76616c6964206f776e65722e000000000000604082015260600190565b6020808252601e908201527f556e697377617056324c6962726172793a20494e56414c49445f504154480000604082015260600190565b6020808252602e908201527f496e697469616c697a61626c653a20636f6e747261637420697320616c72656160408201526d191e481a5b9a5d1a585b1a5e995960921b606082015260800190565b60208082526028908201527f556e697377617056324c6962726172793a20494e53554646494349454e545f4c604082015267495155494449545960c01b606082015260800190565b6020808252818101527f4f776e61626c653a2063616c6c6572206973206e6f7420746865206f776e6572604082015260600190565b6020808252602a908201527f52756279526f757465723a2054686520737461626c6520706f6f6c206973206e6040820152691bdd08195b98589b195960b21b606082015260800190565b6020808252601d908201527f416464726573733a2063616c6c20746f206e6f6e2d636f6e7472616374000000604082015260600190565b6020808252601e908201527f556e697377617056324c6962726172793a205a45524f5f414444524553530000604082015260600190565b6020808252601c908201527f496e76616c6964206e756d626572206f6620737761702063616c6c7300000000604082015260600190565b6020808252602a908201527f5361666545524332303a204552433230206f7065726174696f6e20646964206e6040820152691bdd081cdd58d8d9595960b21b606082015260800190565b6020808252602b908201527f556e697377617056324c6962726172793a20494e53554646494349454e545f4960408201526a1394155517d05353d5539560aa1b606082015260800190565b60208082526026908201527f52756279526f757465723a20496e76616c6964204e46542061646d696e206164604082015265323932b9b99760d11b606082015260800190565b60208082526027908201527f52756279526f757465723a20496e76616c696420414d4d20726f75746572206160408201526632323932b9b99760c91b606082015260800190565b60208082526022908201527f52756279526f757465723a20496e76616c6964206d6178207377617020686f70604082015261733b60f01b606082015260800190565b90815260200190565b868152602080820187905260a0604083018190528201859052600090869060c08401835b88811015612cb6578335612c9b81612e26565b6001600160a01b031682529282019290820190600101612c88565b506001600160a01b0396909616606085015250505060800152949350505050565b60ff91909116815260200190565b60ff958616815293909416602084015260408301919091526060820152608081019190915260a00190565b6000808335601e19843603018112612d26578283fd5b83018035915067ffffffffffffffff821115612d40578283fd5b6020908101925081023603821315611fb757600080fd5b6000808335601e19843603018112612d6d578283fd5b83018035915067ffffffffffffffff821115612d87578283fd5b602001915060c081023603821315611fb757600080fd5b6000823560be1983360301811261245b578182fd5b60405181810167ffffffffffffffff81118282101715612dd257600080fd5b604052919050565b600067ffffffffffffffff821115612df0578081fd5b5060209081020190565b60005b83811015612e15578181015183820152602001612dfd565b8381111561101e5750506000910152565b6001600160a01b03811681146116f157600080fd5b600281106116f157600080fd5b6001600160701b03811681146116f157600080fdfea2646970667358221220fc9bb8614f558105bbd9fd2debe3cc9ef47c239031bb917cafff4bc31d0747d764736f6c634300060c0033",
  "devdoc": {
    "kind": "dev",
    "methods": {
      "owner()": {
        "details": "Returns the address of the current owner."
      },
      "renounceOwnership()": {
        "details": "Leaves the contract without owner. It will not be possible to call `onlyOwner` functions anymore. Can only be called by the current owner. NOTE: Renouncing ownership will leave the contract without an owner, thereby removing any functionality that is only available to the owner."
      },
      "transferOwnership(address)": {
        "details": "Transfers ownership of the contract to a new account (`newOwner`). Can only be called by the current owner."
      }
    },
    "version": 1
  },
  "userdoc": {
    "kind": "user",
    "methods": {},
    "version": 1
  },
  "storageLayout": {
    "storage": [
      {
        "astId": 705,
        "contract": "contracts/ruby_router/RubyRouter.sol:RubyRouter",
        "label": "_initialized",
        "offset": 0,
        "slot": "0",
        "type": "t_bool"
      },
      {
        "astId": 708,
        "contract": "contracts/ruby_router/RubyRouter.sol:RubyRouter",
        "label": "_initializing",
        "offset": 1,
        "slot": "0",
        "type": "t_bool"
      },
      {
        "astId": 2910,
        "contract": "contracts/ruby_router/RubyRouter.sol:RubyRouter",
        "label": "__gap",
        "offset": 0,
        "slot": "1",
        "type": "t_array(t_uint256)50_storage"
      },
      {
        "astId": 136,
        "contract": "contracts/ruby_router/RubyRouter.sol:RubyRouter",
        "label": "_owner",
        "offset": 0,
        "slot": "51",
        "type": "t_address"
      },
      {
        "astId": 255,
        "contract": "contracts/ruby_router/RubyRouter.sol:RubyRouter",
        "label": "__gap",
        "offset": 0,
        "slot": "52",
        "type": "t_array(t_uint256)49_storage"
      },
      {
        "astId": 22137,
        "contract": "contracts/ruby_router/RubyRouter.sol:RubyRouter",
        "label": "ammRouter",
        "offset": 0,
        "slot": "101",
        "type": "t_contract(IUniswapV2Router02)17978"
      },
      {
        "astId": 22139,
        "contract": "contracts/ruby_router/RubyRouter.sol:RubyRouter",
        "label": "nftAdmin",
        "offset": 0,
        "slot": "102",
        "type": "t_contract(IRubyNFTAdmin)19791"
      },
      {
        "astId": 22143,
        "contract": "contracts/ruby_router/RubyRouter.sol:RubyRouter",
        "label": "enabledStablePools",
        "offset": 0,
        "slot": "103",
        "type": "t_mapping(t_contract(ISwap)28054,t_bool)"
      },
      {
        "astId": 22145,
        "contract": "contracts/ruby_router/RubyRouter.sol:RubyRouter",
        "label": "_maxSwapHops",
        "offset": 0,
        "slot": "104",
        "type": "t_uint256"
      }
    ],
    "types": {
      "t_address": {
        "encoding": "inplace",
        "label": "address",
        "numberOfBytes": "20"
      },
      "t_array(t_uint256)49_storage": {
        "base": "t_uint256",
        "encoding": "inplace",
        "label": "uint256[49]",
        "numberOfBytes": "1568"
      },
      "t_array(t_uint256)50_storage": {
        "base": "t_uint256",
        "encoding": "inplace",
        "label": "uint256[50]",
        "numberOfBytes": "1600"
      },
      "t_bool": {
        "encoding": "inplace",
        "label": "bool",
        "numberOfBytes": "1"
      },
      "t_contract(IRubyNFTAdmin)19791": {
        "encoding": "inplace",
        "label": "contract IRubyNFTAdmin",
        "numberOfBytes": "20"
      },
      "t_contract(ISwap)28054": {
        "encoding": "inplace",
        "label": "contract ISwap",
        "numberOfBytes": "20"
      },
      "t_contract(IUniswapV2Router02)17978": {
        "encoding": "inplace",
        "label": "contract IUniswapV2Router02",
        "numberOfBytes": "20"
      },
      "t_mapping(t_contract(ISwap)28054,t_bool)": {
        "encoding": "mapping",
        "key": "t_contract(ISwap)28054",
        "label": "mapping(contract ISwap => bool)",
        "numberOfBytes": "32",
        "value": "t_bool"
      },
      "t_uint256": {
        "encoding": "inplace",
        "label": "uint256",
        "numberOfBytes": "32"
      }
    }
  }
}