{
  "address": "0x812DC983EF1B5bD25c11306991aA45332268B6E3",
  "abi": [
    {
      "anonymous": false,
      "inputs": [
        {
          "indexed": false,
          "internalType": "uint256",
          "name": "maxSwapHops",
          "type": "uint256"
        }
      ],
      "name": "MaxSwapHopsSet",
      "type": "event"
    },
    {
      "anonymous": false,
      "inputs": [
        {
          "indexed": true,
          "internalType": "address",
          "name": "previousOwner",
          "type": "address"
        },
        {
          "indexed": true,
          "internalType": "address",
          "name": "newOwner",
          "type": "address"
        }
      ],
      "name": "OwnershipTransferred",
      "type": "event"
    },
    {
      "anonymous": false,
      "inputs": [
        {
          "indexed": true,
          "internalType": "contract ISwap",
          "name": "stablePool",
          "type": "address"
        }
      ],
      "name": "StablePoolDisabled",
      "type": "event"
    },
    {
      "anonymous": false,
      "inputs": [
        {
          "indexed": true,
          "internalType": "contract ISwap",
          "name": "stablePool",
          "type": "address"
        }
      ],
      "name": "StablePoolEnabled",
      "type": "event"
    },
    {
      "inputs": [],
      "name": "ammRouter",
      "outputs": [
        {
          "internalType": "contract IUniswapV2Router02",
          "name": "",
          "type": "address"
        }
      ],
      "stateMutability": "view",
      "type": "function"
    },
    {
      "inputs": [
        {
          "internalType": "contract ISwap",
          "name": "stablePool",
          "type": "address"
        }
      ],
      "name": "disableStablePool",
      "outputs": [],
      "stateMutability": "nonpayable",
      "type": "function"
    },
    {
      "inputs": [
        {
          "internalType": "contract ISwap",
          "name": "stablePool",
          "type": "address"
        }
      ],
      "name": "enableStablePool",
      "outputs": [],
      "stateMutability": "nonpayable",
      "type": "function"
    },
    {
      "inputs": [
        {
          "internalType": "contract ISwap",
          "name": "",
          "type": "address"
        }
      ],
      "name": "enabledStablePools",
      "outputs": [
        {
          "internalType": "bool",
          "name": "",
          "type": "bool"
        }
      ],
      "stateMutability": "view",
      "type": "function"
    },
    {
      "inputs": [
        {
          "internalType": "address",
          "name": "_owner",
          "type": "address"
        },
        {
          "internalType": "contract IUniswapV2Router02",
          "name": "_ammRouter",
          "type": "address"
        },
        {
          "internalType": "contract ISwap",
          "name": "_stablePool",
          "type": "address"
        },
        {
          "internalType": "contract IRubyNFTAdmin",
          "name": "_nftAdmin",
          "type": "address"
        },
        {
          "internalType": "uint256",
          "name": "maxSwapHops_",
          "type": "uint256"
        }
      ],
      "name": "initialize",
      "outputs": [],
      "stateMutability": "nonpayable",
      "type": "function"
    },
    {
      "inputs": [],
      "name": "nftAdmin",
      "outputs": [
        {
          "internalType": "contract IRubyNFTAdmin",
          "name": "",
          "type": "address"
        }
      ],
      "stateMutability": "view",
      "type": "function"
    },
    {
      "inputs": [],
      "name": "owner",
      "outputs": [
        {
          "internalType": "address",
          "name": "",
          "type": "address"
        }
      ],
      "stateMutability": "view",
      "type": "function"
    },
    {
      "inputs": [],
      "name": "renounceOwnership",
      "outputs": [],
      "stateMutability": "nonpayable",
      "type": "function"
    },
    {
      "inputs": [
        {
          "internalType": "contract IUniswapV2Router02",
          "name": "newAmmRouter",
          "type": "address"
        }
      ],
      "name": "setAmmRouter",
      "outputs": [],
      "stateMutability": "nonpayable",
      "type": "function"
    },
    {
      "inputs": [
        {
          "internalType": "uint256",
          "name": "maxSwapHops",
          "type": "uint256"
        }
      ],
      "name": "setMaxHops",
      "outputs": [],
      "stateMutability": "nonpayable",
      "type": "function"
    },
    {
      "inputs": [
        {
          "internalType": "contract IRubyNFTAdmin",
          "name": "newNftAdmin",
          "type": "address"
        }
      ],
      "name": "setNftAdmin",
      "outputs": [],
      "stateMutability": "nonpayable",
      "type": "function"
    },
    {
      "inputs": [
        {
          "components": [
            {
              "components": [
                {
                  "internalType": "enum AMMSwapType",
                  "name": "swapType",
                  "type": "uint8"
                },
                {
                  "internalType": "uint256",
                  "name": "amountIn",
                  "type": "uint256"
                },
                {
                  "internalType": "uint256",
                  "name": "amountOut",
                  "type": "uint256"
                },
                {
                  "internalType": "address[]",
                  "name": "path",
                  "type": "address[]"
                },
                {
                  "internalType": "address",
                  "name": "to",
                  "type": "address"
                },
                {
                  "internalType": "uint256",
                  "name": "deadline",
                  "type": "uint256"
                }
              ],
              "internalType": "struct AMMSwapDetails[]",
              "name": "ammSwaps",
              "type": "tuple[]"
            },
            {
              "components": [
                {
                  "internalType": "address",
                  "name": "stablePool",
                  "type": "address"
                },
                {
                  "internalType": "uint8",
                  "name": "tokenIndexFrom",
                  "type": "uint8"
                },
                {
                  "internalType": "uint8",
                  "name": "tokenIndexTo",
                  "type": "uint8"
                },
                {
                  "internalType": "uint256",
                  "name": "dx",
                  "type": "uint256"
                },
                {
                  "internalType": "uint256",
                  "name": "minDy",
                  "type": "uint256"
                },
                {
                  "internalType": "uint256",
                  "name": "deadline",
                  "type": "uint256"
                }
              ],
              "internalType": "struct StableSwapDetails[]",
              "name": "stableSwaps",
              "type": "tuple[]"
            },
            {
              "internalType": "enum SwapType[]",
              "name": "order",
              "type": "uint8[]"
            }
          ],
          "internalType": "struct SwapDetails",
          "name": "swapDetails",
          "type": "tuple"
        }
      ],
      "name": "swap",
      "outputs": [
        {
          "internalType": "uint256",
          "name": "outputAmount",
          "type": "uint256"
        }
      ],
      "stateMutability": "nonpayable",
      "type": "function"
    },
    {
      "inputs": [
        {
          "internalType": "address",
          "name": "newOwner",
          "type": "address"
        }
      ],
      "name": "transferOwnership",
      "outputs": [],
      "stateMutability": "nonpayable",
      "type": "function"
    }
  ],
  "transactionHash": "0x40eaf404c98c9adf448373fb7f39b144657aa10cb97046ae4cdc92b4e077fa93",
  "args": [],
  "numDeployments": 1,
  "solcInputHash": "61d97f42ca712b42a65338db63b2cd79",
  "bytecode": "0x608060405234801561001057600080fd5b50612df8806100206000396000f3fe608060405234801561001057600080fd5b50600436106100cf5760003560e01c80639360bfad1161008c578063c39b2e9911610066578063c39b2e9914610185578063f2fde38b14610198578063f7013ef6146101ab578063fefcbe13146101be576100cf565b80639360bfad1461014a578063a26f579614610152578063b8af6a5314610172576100cf565b806339c6980b146100d457806362ea3db2146100e9578063715018a6146101125780637e29ca871461011a5780638da5cb5b1461012d57806390b3c4e714610142575b600080fd5b6100e76100e236600461213e565b6101d1565b005b6100fc6100f73660046122aa565b610261565b6040516101099190612bc0565b60405180910390f35b6100e7610474565b6100e761012836600461213e565b6104fd565b6101356105ae565b6040516101099190612420565b6101356105bd565b6101356105cc565b61016561016036600461213e565b6105db565b604051610109919061248b565b6100e7610180366004612336565b6105f0565b6100e761019336600461213e565b610654565b6100e76101a636600461213e565b610702565b6100e76101b9366004612176565b6107c3565b6100e76101cc36600461213e565b610972565b6101d96109f9565b6001600160a01b03166101ea6105ae565b6001600160a01b0316146102195760405162461bcd60e51b815260040161021090612938565b60405180910390fd5b6001600160a01b03811661023f5760405162461bcd60e51b815260040161021090612b37565b606580546001600160a01b0319166001600160a01b0392909216919091179055565b6068546000906102746040840184612c75565b905011156102945760405162461bcd60e51b815260040161021090612a25565b61029d826109fd565b60008060005b6102b06040860186612c75565b90508110156104005760006102c86040870187612c75565b838181106102d257fe5b90506020020160208101906102e7919061228e565b60018111156102f257fe5b1480610334575060016103086040870187612c75565b8381811061031257fe5b9050602002016020810190610327919061228e565b600181111561033257fe5b145b6103505760405162461bcd60e51b8152600401610210906124f8565b600061035f6040870187612c75565b8381811061036957fe5b905060200201602081019061037e919061228e565b600181111561038957fe5b14156103ca576103bd61039c8680612c75565b858181106103a657fe5b90506020028101906103b89190612d03565b610f89565b93506001909201916103f8565b6103ef6103da6020870187612cbc565b848181106103e457fe5b905060c002016111dc565b93506001909101905b6001016102a3565b5061040b8484611395565b60665460405163818ef01960e01b81526001600160a01b039091169063818ef0199061043b903290600401612420565b600060405180830381600087803b15801561045557600080fd5b505af1158015610469573d6000803e3d6000fd5b505050505050919050565b61047c6109f9565b6001600160a01b031661048d6105ae565b6001600160a01b0316146104b35760405162461bcd60e51b815260040161021090612938565b6033546040516000916001600160a01b0316907f8be0079c531659141344cd1fd0a4f28419497f9722a3daafe3b4186f6b6457e0908390a3603380546001600160a01b0319169055565b6105056109f9565b6001600160a01b03166105166105ae565b6001600160a01b03161461053c5760405162461bcd60e51b815260040161021090612938565b6001600160a01b0381166105625760405162461bcd60e51b8152600401610210906126af565b6001600160a01b038116600081815260676020526040808220805460ff19166001179055517f763ba138b73b63a43de614b1d4efd85711b3240cdb9c79a0a6a67647a95c4a319190a250565b6033546001600160a01b031690565b6065546001600160a01b031681565b6066546001600160a01b031681565b60676020526000908152604090205460ff1681565b6105f86109f9565b6001600160a01b03166106096105ae565b6001600160a01b03161461062f5760405162461bcd60e51b815260040161021090612938565b6000811161064f5760405162461bcd60e51b815260040161021090612b7e565b606855565b61065c6109f9565b6001600160a01b031661066d6105ae565b6001600160a01b0316146106935760405162461bcd60e51b815260040161021090612938565b6001600160a01b0381166106b95760405162461bcd60e51b8152600401610210906126af565b6001600160a01b038116600081815260676020526040808220805460ff19169055517f62825d4e3dc47438cdd2a3014131db621a70e653474b90da2dd00d8ddb90bfca9190a250565b61070a6109f9565b6001600160a01b031661071b6105ae565b6001600160a01b0316146107415760405162461bcd60e51b815260040161021090612938565b6001600160a01b0381166107675760405162461bcd60e51b81526004016102109061252f565b6033546040516001600160a01b038084169216907f8be0079c531659141344cd1fd0a4f28419497f9722a3daafe3b4186f6b6457e090600090a3603380546001600160a01b0319166001600160a01b0392909216919091179055565b600054610100900460ff16806107dc57506107dc6115b5565b806107ea575060005460ff16155b6108065760405162461bcd60e51b8152600401610210906128a2565b600054610100900460ff16158015610831576000805460ff1961ff0019909116610100171660011790555b6001600160a01b0386166108575760405162461bcd60e51b815260040161021090612834565b6001600160a01b03851661087d5760405162461bcd60e51b815260040161021090612b37565b6001600160a01b0384166108a35760405162461bcd60e51b815260040161021090612575565b6001600160a01b0383166108c95760405162461bcd60e51b815260040161021090612af1565b816108e65760405162461bcd60e51b815260040161021090612732565b6108ee6115c6565b6108f786610702565b606580546001600160a01b038088166001600160a01b03199283161790925560668054928616929091169190911790556068829055610935846104fd565b6001600160a01b0384166000908152606760205260409020805460ff19166001179055801561096a576000805461ff00191690555b505050505050565b61097a6109f9565b6001600160a01b031661098b6105ae565b6001600160a01b0316146109b15760405162461bcd60e51b815260040161021090612938565b6001600160a01b0381166109d75760405162461bcd60e51b815260040161021090612af1565b606680546001600160a01b0319166001600160a01b0392909216919091179055565b3390565b60008080610a0e6040850185612c75565b6000818110610a1957fe5b9050602002016020810190610a2e919061228e565b6001811115610a3957fe5b1415610e2f5760606000610a4d8580612c75565b6000818110610a5857fe5b9050602002810190610a6a9190612d03565b610a7890602081019061228e565b6001811115610a8357fe5b1415610c24576065546040805163c45a015560e01b81529051610c1d926001600160a01b03169163c45a0155916004808301926020929190829003018186803b158015610acf57600080fd5b505afa158015610ae3573d6000803e3d6000fd5b505050506040513d601f19601f82011682018060405250810190610b07919061215a565b610b118680612c75565b6000818110610b1c57fe5b9050602002810190610b2e9190612d03565b60200135610b3c8780612c75565b6000818110610b4757fe5b9050602002810190610b599190612d03565b610b67906060810190612c75565b808060200260200160405190810160405280939291908181526020018383602002808284376000920191909152505060665460405163ea60f36160e01b81526001600160a01b03909116925063ea60f3619150610bc8903290600401612420565b60206040518083038186803b158015610be057600080fd5b505afa158015610bf4573d6000803e3d6000fd5b505050506040513d601f19601f82011682018060405250810190610c18919061234e565b611659565b9050610dbb565b6065546040805163c45a015560e01b81529051610db8926001600160a01b03169163c45a0155916004808301926020929190829003018186803b158015610c6a57600080fd5b505afa158015610c7e573d6000803e3d6000fd5b505050506040513d601f19601f82011682018060405250810190610ca2919061215a565b610cac8680612c75565b6000818110610cb757fe5b9050602002810190610cc99190612d03565b60400135610cd78780612c75565b6000818110610ce257fe5b9050602002810190610cf49190612d03565b610d02906060810190612c75565b808060200260200160405190810160405280939291908181526020018383602002808284376000920191909152505060665460405163ea60f36160e01b81526001600160a01b03909116925063ea60f3619150610d63903290600401612420565b60206040518083038186803b158015610d7b57600080fd5b505afa158015610d8f573d6000803e3d6000fd5b505050506040513d601f19601f82011682018060405250810190610db3919061234e565b611772565b90505b610dc58480612c75565b6000818110610dd057fe5b9050602002810190610de29190612d03565b610df0906060810190612c75565b6000818110610dfb57fe5b9050602002016020810190610e10919061213e565b925080600081518110610e1f57fe5b6020026020010151915050610f6d565b6000610e3e6020850185612cbc565b6000818110610e4957fe5b610e5f92602060c090920201908101915061213e565b6001600160a01b03811660009081526067602052604090205490915060ff16610e9a5760405162461bcd60e51b81526004016102109061296d565b6001600160a01b0381166382b86600610eb66020870187612cbc565b6000818110610ec157fe5b905060c002016020016020810190610ed99190612366565b6040518263ffffffff1660e01b8152600401610ef59190612c3c565b60206040518083038186803b158015610f0d57600080fd5b505afa158015610f21573d6000803e3d6000fd5b505050506040513d601f19601f82011682018060405250810190610f45919061215a565b9250610f546020850185612cbc565b6000818110610f5f57fe5b905060c00201606001359150505b81610f836001600160a01b038216333085611876565b50505050565b600080610f99602084018461228e565b6001811115610fa457fe5b1480610fc757506001610fba602084018461228e565b6001811115610fc557fe5b145b610fe35760405162461bcd60e51b815260040161021090612622565b606061102a610ff484830185612c75565b6000818110610fff57fe5b9050602002016020810190611014919061213e565b6065546001600160a01b031660208601356118ce565b6000611039602085018561228e565b600181111561104457fe5b1415611105576065546001600160a01b03166338ed1739602085013560408601356110726060880188612c75565b61108260a08a0160808b0161213e565b8960a001356040518763ffffffff1660e01b81526004016110a896959493929190612bc9565b600060405180830381600087803b1580156110c257600080fd5b505af11580156110d6573d6000803e3d6000fd5b505050506040513d6000823e601f3d908101601f191682016040526110fe91908101906121d9565b90506111bc565b6065546001600160a01b0316638803dbee6040850135602086013561112d6060880188612c75565b61113d60a08a0160808b0161213e565b8960a001356040518763ffffffff1660e01b815260040161116396959493929190612bc9565b600060405180830381600087803b15801561117d57600080fd5b505af1158015611191573d6000803e3d6000fd5b505050506040513d6000823e601f3d908101601f191682016040526111b991908101906121d9565b90505b806001825103815181106111cc57fe5b6020026020010151915050919050565b6000806111ec602084018461213e565b6001600160a01b03811660009081526067602052604090205490915060ff166112275760405162461bcd60e51b81526004016102109061296d565b60006001600160a01b0382166382b866006112486040870160208801612366565b6040518263ffffffff1660e01b81526004016112649190612c3c565b60206040518083038186803b15801561127c57600080fd5b505afa158015611290573d6000803e3d6000fd5b505050506040513d601f19601f820116820180604052508101906112b4919061215a565b90506112d1816112c7602087018761213e565b86606001356118ce565b6112de602085018561213e565b6001600160a01b031663916955866112fc6040870160208801612366565b61130c6060880160408901612366565b876060013588608001358960a001356040518663ffffffff1660e01b815260040161133b959493929190612c4a565b602060405180830381600087803b15801561135557600080fd5b505af1158015611369573d6000803e3d6000fd5b505050506040513d601f19601f8201168201806040525081019061138d919061234e565b949350505050565b60008060016113a76040860186612c75565b919091039150600090506113be6040860186612c75565b838181106113c857fe5b90506020020160208101906113dd919061228e565b60018111156113e857fe5b14156114a057600060016113fc8680612c75565b9190910391506000905060016114128780612c75565b8481811061141c57fe5b905060200281019061142e9190612d03565b61143c906060810190612c75565b91909103915061144e90508680612c75565b8381811061145857fe5b905060200281019061146a9190612d03565b611478906060810190612c75565b8281811061148257fe5b9050602002016020810190611497919061213e565b93505050611599565b600060016114b16020870187612cbc565b905003905060008580602001906114c89190612cbc565b838181106114d257fe5b6114e892602060c090920201908101915061213e565b90506001600160a01b0381166382b866006115066020890189612cbc565b8581811061151057fe5b905060c0020160400160208101906115289190612366565b6040518263ffffffff1660e01b81526004016115449190612c3c565b60206040518083038186803b15801561155c57600080fd5b505afa158015611570573d6000803e3d6000fd5b505050506040513d601f19601f82011682018060405250810190611594919061215a565b935050505b816115ae6001600160a01b038216338661196f565b5050505050565b60006115c030611993565b15905090565b600054610100900460ff16806115df57506115df6115b5565b806115ed575060005460ff16155b6116095760405162461bcd60e51b8152600401610210906128a2565b600054610100900460ff16158015611634576000805460ff1961ff0019909116610100171660011790555b61163c611999565b611644611a1a565b8015611656576000805461ff00191690555b50565b606060028351101561167d5760405162461bcd60e51b81526004016102109061286b565b825167ffffffffffffffff8111801561169557600080fd5b506040519080825280602002602001820160405280156116bf578160200160208202803683370190505b50905083816000815181106116d057fe5b60200260200101818152505060005b600184510381101561176957600080611722888785815181106116fe57fe5b602002602001015188866001018151811061171557fe5b6020026020010151611af4565b9150915061174584848151811061173557fe5b6020026020010151838388611bcd565b84846001018151811061175457fe5b602090810291909101015250506001016116df565b50949350505050565b60606002835110156117965760405162461bcd60e51b81526004016102109061286b565b825167ffffffffffffffff811180156117ae57600080fd5b506040519080825280602002602001820160405280156117d8578160200160208202803683370190505b50905083816001835103815181106117ec57fe5b60209081029190910101528251600019015b80156117695760008061182e8887600186038151811061181a57fe5b602002602001015188868151811061171557fe5b9150915061185184848151811061184157fe5b6020026020010151838388611c96565b84600185038151811061186057fe5b60209081029190910101525050600019016117fe565b610f83846323b872dd60e01b8585856040516024016118979392919061244e565b60408051601f198184030181529190526020810180516001600160e01b03166001600160e01b031990931692909217909152611d5f565b604051636eb1769f60e11b815283906000906001600160a01b0383169063dd62ed3e906119019030908890600401612434565b60206040518083038186803b15801561191957600080fd5b505afa15801561192d573d6000803e3d6000fd5b505050506040513d601f19601f82011682018060405250810190611951919061234e565b9050828110156115ae576115ae6001600160a01b0383168585611dee565b61198e8363a9059cbb60e01b8484604051602401611897929190612472565b505050565b3b151590565b600054610100900460ff16806119b257506119b26115b5565b806119c0575060005460ff16155b6119dc5760405162461bcd60e51b8152600401610210906128a2565b600054610100900460ff16158015611644576000805460ff1961ff0019909116610100171660011790558015611656576000805461ff001916905550565b600054610100900460ff1680611a335750611a336115b5565b80611a41575060005460ff16155b611a5d5760405162461bcd60e51b8152600401610210906128a2565b600054610100900460ff16158015611a88576000805460ff1961ff0019909116610100171660011790555b6000611a926109f9565b603380546001600160a01b0319166001600160a01b038316908117909155604051919250906000907f8be0079c531659141344cd1fd0a4f28419497f9722a3daafe3b4186f6b6457e0908290a3508015611656576000805461ff001916905550565b6000806000611b038585611e99565b509050600080611b14888888611f23565b6001600160a01b0316630902f1ac6040518163ffffffff1660e01b815260040160606040518083038186803b158015611b4c57600080fd5b505afa158015611b60573d6000803e3d6000fd5b505050506040513d601f19601f82011682018060405250810190611b8491906122e2565b506001600160701b031691506001600160701b03169150826001600160a01b0316876001600160a01b031614611bbb578082611bbe565b81815b90999098509650505050505050565b6000808511611bee5760405162461bcd60e51b815260040161021090612aa6565b600084118015611bfe5750600083115b611c1a5760405162461bcd60e51b8152600401610210906128f0565b6103e58210158015611c2e57506103e88211155b611c4a5760405162461bcd60e51b815260040161021090612774565b6000611c568684611f93565b90506000611c648286611f93565b90506000611c7e83611c78896103e8611f93565b90611fd0565b9050808281611c8957fe5b0498975050505050505050565b6000808511611cb75760405162461bcd60e51b815260040161021090612663565b600084118015611cc75750600083115b611ce35760405162461bcd60e51b8152600401610210906128f0565b6103e58210158015611cf757506103e88211155b611d135760405162461bcd60e51b815260040161021090612774565b6000611d2b6103e8611d258789611f93565b90611f93565b90506000611d3d84611d25878a611ff3565b9050611d546001828481611d4d57fe5b0490611fd0565b979650505050505050565b6060611db4826040518060400160405280602081526020017f5361666545524332303a206c6f772d6c6576656c2063616c6c206661696c6564815250856001600160a01b03166120169092919063ffffffff16565b80519091501561198e5780806020019051810190611dd2919061226e565b61198e5760405162461bcd60e51b815260040161021090612a5c565b6000611e7882856001600160a01b031663dd62ed3e30876040518363ffffffff1660e01b8152600401611e22929190612434565b60206040518083038186803b158015611e3a57600080fd5b505afa158015611e4e573d6000803e3d6000fd5b505050506040513d601f19601f82011682018060405250810190611e72919061234e565b9061202f565b9050610f838463095ea7b360e01b8584604051602401611897929190612472565b600080826001600160a01b0316846001600160a01b03161415611ece5760405162461bcd60e51b8152600401610210906127a9565b826001600160a01b0316846001600160a01b031610611eee578284611ef1565b83835b90925090506001600160a01b038216611f1c5760405162461bcd60e51b8152600401610210906129ee565b9250929050565b6000806000611f328585611e99565b91509150858282604051602001611f4a929190612387565b60405160208183030381529060405280519060200120604051602001611f719291906123ca565b60408051601f1981840301815291905280516020909101209695505050505050565b6000811580611fae57505080820282828281611fab57fe5b04145b611fca5760405162461bcd60e51b8152600401610210906125bd565b92915050565b80820182811015611fca5760405162461bcd60e51b815260040161021090612704565b80820382811115611fca5760405162461bcd60e51b8152600401610210906124c9565b60606120258484600085612054565b90505b9392505050565b6000828201838110156120285760405162461bcd60e51b8152600401610210906125eb565b6060824710156120765760405162461bcd60e51b8152600401610210906127ee565b61207f85611993565b61209b5760405162461bcd60e51b8152600401610210906129b7565b60006060866001600160a01b031685876040516120b891906123ae565b60006040518083038185875af1925050503d80600081146120f5576040519150601f19603f3d011682016040523d82523d6000602084013e6120fa565b606091505b5091509150611d5482828660608315612114575081612028565b8251156121245782518084602001fd5b8160405162461bcd60e51b81526004016102109190612496565b60006020828403121561214f578081fd5b813561202881612d8b565b60006020828403121561216b578081fd5b815161202881612d8b565b600080600080600060a0868803121561218d578081fd5b853561219881612d8b565b945060208601356121a881612d8b565b935060408601356121b881612d8b565b925060608601356121c881612d8b565b949793965091946080013592915050565b600060208083850312156121eb578182fd5b825167ffffffffffffffff811115612201578283fd5b8301601f81018513612211578283fd5b805161222461221f82612d3f565b612d18565b8181528381019083850185840285018601891015612240578687fd5b8694505b83851015612262578051835260019490940193918501918501612244565b50979650505050505050565b60006020828403121561227f578081fd5b81518015158114612028578182fd5b60006020828403121561229f578081fd5b813561202881612da0565b6000602082840312156122bb578081fd5b813567ffffffffffffffff8111156122d1578182fd5b820160608185031215612028578182fd5b6000806000606084860312156122f6578283fd5b835161230181612dad565b602085015190935061231281612dad565b604085015190925063ffffffff8116811461232b578182fd5b809150509250925092565b600060208284031215612347578081fd5b5035919050565b60006020828403121561235f578081fd5b5051919050565b600060208284031215612377578081fd5b813560ff81168114612028578182fd5b6bffffffffffffffffffffffff19606093841b811682529190921b16601482015260280190565b600082516123c0818460208701612d5f565b9190910192915050565b6001600160f81b0319815260609290921b6bffffffffffffffffffffffff1916600183015260158201527f091296cd72d3cdd7ff14c0ed262d21f03f1a8e5a0cedff7aa29720e9646d41ea603582015260550190565b6001600160a01b0391909116815260200190565b6001600160a01b0392831681529116602082015260400190565b6001600160a01b039384168152919092166020820152604081019190915260600190565b6001600160a01b03929092168252602082015260400190565b901515815260200190565b60006020825282518060208401526124b5816040850160208701612d5f565b601f01601f19169190910160400192915050565b60208082526015908201527464732d6d6174682d7375622d756e646572666c6f7760581b604082015260600190565b6020808252601d908201527f52756279526f757465723a20496e76616c696420737761702074797065000000604082015260600190565b60208082526026908201527f4f776e61626c653a206e6577206f776e657220697320746865207a65726f206160408201526564647265737360d01b606082015260800190565b60208082526028908201527f52756279526f757465723a20496e76616c696420537461626c6520506f6f6c2060408201526730b2323932b9b99760c11b606082015260800190565b60208082526014908201527364732d6d6174682d6d756c2d6f766572666c6f7760601b604082015260600190565b6020808252601b908201527f536166654d6174683a206164646974696f6e206f766572666c6f770000000000604082015260600190565b60208082526021908201527f52756279526f757465723a20496e76616c696420414d4d2073776170207479706040820152606560f81b606082015260800190565b6020808252602c908201527f556e697377617056324c6962726172793a20494e53554646494349454e545f4f60408201526b155514155517d05353d5539560a21b606082015260800190565b60208082526035908201527f52756279526f757465723a2054686520737461626c65506f6f6c2063616e6e6f6040820152747420626520746865207a65726f206164647265737360581b606082015260800190565b60208082526014908201527364732d6d6174682d6164642d6f766572666c6f7760601b604082015260600190565b60208082526022908201527f52756279526f757465723a20496e76616c6964206d6178207377617020686f70604082015261399760f11b606082015260800190565b6020808252818101527f556e697377617056324c6962726172793a204645455f4d554c5449504c494552604082015260600190565b60208082526025908201527f556e697377617056324c6962726172793a204944454e544943414c5f41444452604082015264455353455360d81b606082015260800190565b60208082526026908201527f416464726573733a20696e73756666696369656e742062616c616e636520666f6040820152651c8818d85b1b60d21b606082015260800190565b6020808252601a908201527f52756279526f757465723a20496e76616c6964206f776e65722e000000000000604082015260600190565b6020808252601e908201527f556e697377617056324c6962726172793a20494e56414c49445f504154480000604082015260600190565b6020808252602e908201527f496e697469616c697a61626c653a20636f6e747261637420697320616c72656160408201526d191e481a5b9a5d1a585b1a5e995960921b606082015260800190565b60208082526028908201527f556e697377617056324c6962726172793a20494e53554646494349454e545f4c604082015267495155494449545960c01b606082015260800190565b6020808252818101527f4f776e61626c653a2063616c6c6572206973206e6f7420746865206f776e6572604082015260600190565b6020808252602a908201527f52756279526f757465723a2054686520737461626c6520706f6f6c206973206e6040820152691bdd08195b98589b195960b21b606082015260800190565b6020808252601d908201527f416464726573733a2063616c6c20746f206e6f6e2d636f6e7472616374000000604082015260600190565b6020808252601e908201527f556e697377617056324c6962726172793a205a45524f5f414444524553530000604082015260600190565b6020808252601c908201527f496e76616c6964206e756d626572206f6620737761702063616c6c7300000000604082015260600190565b6020808252602a908201527f5361666545524332303a204552433230206f7065726174696f6e20646964206e6040820152691bdd081cdd58d8d9595960b21b606082015260800190565b6020808252602b908201527f556e697377617056324c6962726172793a20494e53554646494349454e545f4960408201526a1394155517d05353d5539560aa1b606082015260800190565b60208082526026908201527f52756279526f757465723a20496e76616c6964204e46542061646d696e206164604082015265323932b9b99760d11b606082015260800190565b60208082526027908201527f52756279526f757465723a20496e76616c696420414d4d20726f75746572206160408201526632323932b9b99760c91b606082015260800190565b60208082526022908201527f52756279526f757465723a20496e76616c6964206d6178207377617020686f70604082015261733b60f01b606082015260800190565b90815260200190565b868152602080820187905260a0604083018190528201859052600090869060c08401835b88811015612c1b578335612c0081612d8b565b6001600160a01b031682529282019290820190600101612bed565b506001600160a01b0396909616606085015250505060800152949350505050565b60ff91909116815260200190565b60ff958616815293909416602084015260408301919091526060820152608081019190915260a00190565b6000808335601e19843603018112612c8b578283fd5b83018035915067ffffffffffffffff821115612ca5578283fd5b6020908101925081023603821315611f1c57600080fd5b6000808335601e19843603018112612cd2578283fd5b83018035915067ffffffffffffffff821115612cec578283fd5b602001915060c081023603821315611f1c57600080fd5b6000823560be198336030181126123c0578182fd5b60405181810167ffffffffffffffff81118282101715612d3757600080fd5b604052919050565b600067ffffffffffffffff821115612d55578081fd5b5060209081020190565b60005b83811015612d7a578181015183820152602001612d62565b83811115610f835750506000910152565b6001600160a01b038116811461165657600080fd5b6002811061165657600080fd5b6001600160701b038116811461165657600080fdfea2646970667358221220b7670b84d39bbbebe5760df6120be51132bf8a21813073e26717328f9514d3f964736f6c634300060c0033",
  "devdoc": {
    "kind": "dev",
    "methods": {
      "owner()": {
        "details": "Returns the address of the current owner."
      },
      "renounceOwnership()": {
        "details": "Leaves the contract without owner. It will not be possible to call `onlyOwner` functions anymore. Can only be called by the current owner. NOTE: Renouncing ownership will leave the contract without an owner, thereby removing any functionality that is only available to the owner."
      },
      "transferOwnership(address)": {
        "details": "Transfers ownership of the contract to a new account (`newOwner`). Can only be called by the current owner."
      }
    },
    "version": 1
  },
  "userdoc": {
    "kind": "user",
    "methods": {},
    "version": 1
  },
  "storageLayout": {
    "storage": [
      {
        "astId": 705,
        "contract": "contracts/ruby_router/RubyRouter.sol:RubyRouter",
        "label": "_initialized",
        "offset": 0,
        "slot": "0",
        "type": "t_bool"
      },
      {
        "astId": 708,
        "contract": "contracts/ruby_router/RubyRouter.sol:RubyRouter",
        "label": "_initializing",
        "offset": 1,
        "slot": "0",
        "type": "t_bool"
      },
      {
        "astId": 2910,
        "contract": "contracts/ruby_router/RubyRouter.sol:RubyRouter",
        "label": "__gap",
        "offset": 0,
        "slot": "1",
        "type": "t_array(t_uint256)50_storage"
      },
      {
        "astId": 136,
        "contract": "contracts/ruby_router/RubyRouter.sol:RubyRouter",
        "label": "_owner",
        "offset": 0,
        "slot": "51",
        "type": "t_address"
      },
      {
        "astId": 255,
        "contract": "contracts/ruby_router/RubyRouter.sol:RubyRouter",
        "label": "__gap",
        "offset": 0,
        "slot": "52",
        "type": "t_array(t_uint256)49_storage"
      },
      {
        "astId": 22114,
        "contract": "contracts/ruby_router/RubyRouter.sol:RubyRouter",
        "label": "ammRouter",
        "offset": 0,
        "slot": "101",
        "type": "t_contract(IUniswapV2Router02)17955"
      },
      {
        "astId": 22116,
        "contract": "contracts/ruby_router/RubyRouter.sol:RubyRouter",
        "label": "nftAdmin",
        "offset": 0,
        "slot": "102",
        "type": "t_contract(IRubyNFTAdmin)19768"
      },
      {
        "astId": 22120,
        "contract": "contracts/ruby_router/RubyRouter.sol:RubyRouter",
        "label": "enabledStablePools",
        "offset": 0,
        "slot": "103",
        "type": "t_mapping(t_contract(ISwap)27999,t_bool)"
      },
      {
        "astId": 22122,
        "contract": "contracts/ruby_router/RubyRouter.sol:RubyRouter",
        "label": "_maxSwapHops",
        "offset": 0,
        "slot": "104",
        "type": "t_uint256"
      }
    ],
    "types": {
      "t_address": {
        "encoding": "inplace",
        "label": "address",
        "numberOfBytes": "20"
      },
      "t_array(t_uint256)49_storage": {
        "base": "t_uint256",
        "encoding": "inplace",
        "label": "uint256[49]",
        "numberOfBytes": "1568"
      },
      "t_array(t_uint256)50_storage": {
        "base": "t_uint256",
        "encoding": "inplace",
        "label": "uint256[50]",
        "numberOfBytes": "1600"
      },
      "t_bool": {
        "encoding": "inplace",
        "label": "bool",
        "numberOfBytes": "1"
      },
      "t_contract(IRubyNFTAdmin)19768": {
        "encoding": "inplace",
        "label": "contract IRubyNFTAdmin",
        "numberOfBytes": "20"
      },
      "t_contract(ISwap)27999": {
        "encoding": "inplace",
        "label": "contract ISwap",
        "numberOfBytes": "20"
      },
      "t_contract(IUniswapV2Router02)17955": {
        "encoding": "inplace",
        "label": "contract IUniswapV2Router02",
        "numberOfBytes": "20"
      },
      "t_mapping(t_contract(ISwap)27999,t_bool)": {
        "encoding": "mapping",
        "key": "t_contract(ISwap)27999",
        "label": "mapping(contract ISwap => bool)",
        "numberOfBytes": "32",
        "value": "t_bool"
      },
      "t_uint256": {
        "encoding": "inplace",
        "label": "uint256",
        "numberOfBytes": "32"
      }
    }
  }
}