{
  "address": "0x4A679253410272dd5232B3Ff7cF5dbB88f295319",
  "abi": [
    {
      "inputs": [
        {
          "internalType": "contract IERC20",
          "name": "_ruby",
          "type": "address"
        }
      ],
      "stateMutability": "nonpayable",
      "type": "constructor"
    },
    {
      "anonymous": false,
      "inputs": [
        {
          "indexed": true,
          "internalType": "address",
          "name": "owner",
          "type": "address"
        },
        {
          "indexed": true,
          "internalType": "address",
          "name": "spender",
          "type": "address"
        },
        {
          "indexed": false,
          "internalType": "uint256",
          "name": "value",
          "type": "uint256"
        }
      ],
      "name": "Approval",
      "type": "event"
    },
    {
      "anonymous": false,
      "inputs": [
        {
          "indexed": true,
          "internalType": "address",
          "name": "previousOwner",
          "type": "address"
        },
        {
          "indexed": true,
          "internalType": "address",
          "name": "newOwner",
          "type": "address"
        }
      ],
      "name": "OwnershipTransferred",
      "type": "event"
    },
    {
      "anonymous": false,
      "inputs": [
        {
          "indexed": true,
          "internalType": "address",
          "name": "rubyMakerAddress",
          "type": "address"
        },
        {
          "indexed": false,
          "internalType": "uint256",
          "name": "amount",
          "type": "uint256"
        }
      ],
      "name": "RubyMakerAllowanceSet",
      "type": "event"
    },
    {
      "anonymous": false,
      "inputs": [
        {
          "indexed": true,
          "internalType": "address",
          "name": "from",
          "type": "address"
        },
        {
          "indexed": true,
          "internalType": "address",
          "name": "to",
          "type": "address"
        },
        {
          "indexed": false,
          "internalType": "uint256",
          "name": "value",
          "type": "uint256"
        }
      ],
      "name": "Transfer",
      "type": "event"
    },
    {
      "inputs": [
        {
          "internalType": "address",
          "name": "owner",
          "type": "address"
        },
        {
          "internalType": "address",
          "name": "spender",
          "type": "address"
        }
      ],
      "name": "allowance",
      "outputs": [
        {
          "internalType": "uint256",
          "name": "",
          "type": "uint256"
        }
      ],
      "stateMutability": "view",
      "type": "function"
    },
    {
      "inputs": [
        {
          "internalType": "address",
          "name": "spender",
          "type": "address"
        },
        {
          "internalType": "uint256",
          "name": "amount",
          "type": "uint256"
        }
      ],
      "name": "approve",
      "outputs": [
        {
          "internalType": "bool",
          "name": "",
          "type": "bool"
        }
      ],
      "stateMutability": "nonpayable",
      "type": "function"
    },
    {
      "inputs": [
        {
          "internalType": "address",
          "name": "account",
          "type": "address"
        }
      ],
      "name": "balanceOf",
      "outputs": [
        {
          "internalType": "uint256",
          "name": "",
          "type": "uint256"
        }
      ],
      "stateMutability": "view",
      "type": "function"
    },
    {
      "inputs": [],
      "name": "claimOwnership",
      "outputs": [],
      "stateMutability": "nonpayable",
      "type": "function"
    },
    {
      "inputs": [],
      "name": "decimals",
      "outputs": [
        {
          "internalType": "uint8",
          "name": "",
          "type": "uint8"
        }
      ],
      "stateMutability": "view",
      "type": "function"
    },
    {
      "inputs": [
        {
          "internalType": "address",
          "name": "spender",
          "type": "address"
        },
        {
          "internalType": "uint256",
          "name": "subtractedValue",
          "type": "uint256"
        }
      ],
      "name": "decreaseAllowance",
      "outputs": [
        {
          "internalType": "bool",
          "name": "",
          "type": "bool"
        }
      ],
      "stateMutability": "nonpayable",
      "type": "function"
    },
    {
      "inputs": [
        {
          "internalType": "uint256",
          "name": "_amount",
          "type": "uint256"
        }
      ],
      "name": "enter",
      "outputs": [],
      "stateMutability": "nonpayable",
      "type": "function"
    },
    {
      "inputs": [
        {
          "internalType": "address",
          "name": "spender",
          "type": "address"
        },
        {
          "internalType": "uint256",
          "name": "addedValue",
          "type": "uint256"
        }
      ],
      "name": "increaseAllowance",
      "outputs": [
        {
          "internalType": "bool",
          "name": "",
          "type": "bool"
        }
      ],
      "stateMutability": "nonpayable",
      "type": "function"
    },
    {
      "inputs": [
        {
          "internalType": "uint256",
          "name": "_share",
          "type": "uint256"
        }
      ],
      "name": "leave",
      "outputs": [],
      "stateMutability": "nonpayable",
      "type": "function"
    },
    {
      "inputs": [],
      "name": "name",
      "outputs": [
        {
          "internalType": "string",
          "name": "",
          "type": "string"
        }
      ],
      "stateMutability": "view",
      "type": "function"
    },
    {
      "inputs": [],
      "name": "owner",
      "outputs": [
        {
          "internalType": "address",
          "name": "",
          "type": "address"
        }
      ],
      "stateMutability": "view",
      "type": "function"
    },
    {
      "inputs": [],
      "name": "pendingOwner",
      "outputs": [
        {
          "internalType": "address",
          "name": "",
          "type": "address"
        }
      ],
      "stateMutability": "view",
      "type": "function"
    },
    {
      "inputs": [],
      "name": "ruby",
      "outputs": [
        {
          "internalType": "contract IERC20",
          "name": "",
          "type": "address"
        }
      ],
      "stateMutability": "view",
      "type": "function"
    },
    {
      "inputs": [
        {
          "internalType": "address",
          "name": "rubyMakerAddress",
          "type": "address"
        },
        {
          "internalType": "uint256",
          "name": "amount",
          "type": "uint256"
        }
      ],
      "name": "setMakerAllowance",
      "outputs": [],
      "stateMutability": "nonpayable",
      "type": "function"
    },
    {
      "inputs": [],
      "name": "symbol",
      "outputs": [
        {
          "internalType": "string",
          "name": "",
          "type": "string"
        }
      ],
      "stateMutability": "view",
      "type": "function"
    },
    {
      "inputs": [],
      "name": "totalSupply",
      "outputs": [
        {
          "internalType": "uint256",
          "name": "",
          "type": "uint256"
        }
      ],
      "stateMutability": "view",
      "type": "function"
    },
    {
      "inputs": [
        {
          "internalType": "address",
          "name": "recipient",
          "type": "address"
        },
        {
          "internalType": "uint256",
          "name": "amount",
          "type": "uint256"
        }
      ],
      "name": "transfer",
      "outputs": [
        {
          "internalType": "bool",
          "name": "",
          "type": "bool"
        }
      ],
      "stateMutability": "nonpayable",
      "type": "function"
    },
    {
      "inputs": [
        {
          "internalType": "address",
          "name": "sender",
          "type": "address"
        },
        {
          "internalType": "address",
          "name": "recipient",
          "type": "address"
        },
        {
          "internalType": "uint256",
          "name": "amount",
          "type": "uint256"
        }
      ],
      "name": "transferFrom",
      "outputs": [
        {
          "internalType": "bool",
          "name": "",
          "type": "bool"
        }
      ],
      "stateMutability": "nonpayable",
      "type": "function"
    },
    {
      "inputs": [
        {
          "internalType": "address",
          "name": "newOwner",
          "type": "address"
        },
        {
          "internalType": "bool",
          "name": "direct",
          "type": "bool"
        },
        {
          "internalType": "bool",
          "name": "renounce",
          "type": "bool"
        }
      ],
      "name": "transferOwnership",
      "outputs": [],
      "stateMutability": "nonpayable",
      "type": "function"
    }
  ],
  "transactionHash": "0x21034005f9c4491c51d0ae5c82c5e90f1ba27ce009e71a3a7025407bc6fcf277",
  "args": [
    "0x5FC8d32690cc91D4c39d9d3abcBD16989F875707"
  ],
  "solcInputHash": "1f3656fc31748f602d989e40d1373c3b",
  "bytecode": "0x60806040523480156200001157600080fd5b506040516200170938038062001709833981810160405260208110156200003757600080fd5b50516040805180820182526007815266293ab13ca130b960c91b602082810191825283518085019094526005845264785255425960d81b908401528151919291620000859160039162000117565b5080516200009b90600490602084019062000117565b505060058054601260ff1990911617610100600160a81b03191661010033908102919091179091556040519091506000907f8be0079c531659141344cd1fd0a4f28419497f9722a3daafe3b4186f6b6457e0908290a3600780546001600160a01b0319166001600160a01b0392909216919091179055620001b3565b828054600181600116156101000203166002900490600052602060002090601f016020900481019282601f106200015a57805160ff19168380011785556200018a565b828001600101855582156200018a579182015b828111156200018a5782518255916020019190600101906200016d565b50620001989291506200019c565b5090565b5b808211156200019857600081556001016200019d565b61154680620001c36000396000f3fe608060405234801561001057600080fd5b50600436106101215760003560e01c80636fcf70cb116100ad578063a59f3e0c11610071578063a59f3e0c14610384578063a9059cbb146103a1578063d3229485146103cd578063dd62ed3e146103d5578063e30c39781461040357610121565b80636fcf70cb146102da57806370a08231146103065780638da5cb5b1461032c57806395d89b4114610350578063a457c2d71461035857610121565b806323b872dd116100f457806323b872dd14610235578063313ce5671461026b57806339509351146102895780634e71e0c8146102b557806367dfd4c9146102bd57610121565b806306fdde0314610126578063078dfbe7146101a3578063095ea7b3146101db57806318160ddd1461021b575b600080fd5b61012e61040b565b6040805160208082528351818301528351919283929083019185019080838360005b83811015610168578181015183820152602001610150565b50505050905090810190601f1680156101955780820380516001836020036101000a031916815260200191505b509250505060405180910390f35b6101d9600480360360608110156101b957600080fd5b506001600160a01b038135169060208101351515906040013515156104a1565b005b610207600480360360408110156101f157600080fd5b506001600160a01b0381351690602001356105ed565b604080519115158252519081900360200190f35b61022361060b565b60408051918252519081900360200190f35b6102076004803603606081101561024b57600080fd5b506001600160a01b03813581169160208101359091169060400135610611565b610273610698565b6040805160ff9092168252519081900360200190f35b6102076004803603604081101561029f57600080fd5b506001600160a01b0381351690602001356106a1565b6101d96106ef565b6101d9600480360360208110156102d357600080fd5b50356107c6565b6101d9600480360360408110156102f057600080fd5b506001600160a01b0381351690602001356108f5565b6102236004803603602081101561031c57600080fd5b50356001600160a01b0316610aaa565b610334610ac5565b604080516001600160a01b039092168252519081900360200190f35b61012e610ad9565b6102076004803603604081101561036e57600080fd5b506001600160a01b038135169060200135610b3a565b6101d96004803603602081101561039a57600080fd5b5035610ba2565b610207600480360360408110156103b757600080fd5b506001600160a01b038135169060200135610cbe565b610334610cd2565b610223600480360360408110156103eb57600080fd5b506001600160a01b0381358116916020013516610ce1565b610334610d0c565b60038054604080516020601f60026000196101006001881615020190951694909404938401819004810282018101909252828152606093909290918301828280156104975780601f1061046c57610100808354040283529160200191610497565b820191906000526020600020905b81548152906001019060200180831161047a57829003601f168201915b5050505050905090565b60055461010090046001600160a01b03163314610505576040805162461bcd60e51b815260206004820181905260248201527f4f776e61626c653a2063616c6c6572206973206e6f7420746865206f776e6572604482015290519081900360640190fd5b81156105cc576001600160a01b03831615158061051f5750805b610568576040805162461bcd60e51b81526020600482015260156024820152744f776e61626c653a207a65726f206164647265737360581b604482015290519081900360640190fd5b6005546040516001600160a01b0380861692610100900416907f8be0079c531659141344cd1fd0a4f28419497f9722a3daafe3b4186f6b6457e090600090a360058054610100600160a81b0319166101006001600160a01b038616021790556105e8565b600680546001600160a01b0319166001600160a01b0385161790555b505050565b60006106016105fa610d1b565b8484610d1f565b5060015b92915050565b60025490565b600061061e848484610e0b565b61068e8461062a610d1b565b61068985604051806060016040528060288152602001611438602891396001600160a01b038a16600090815260016020526040812090610668610d1b565b6001600160a01b031681526020810191909152604001600020549190610f66565b610d1f565b5060019392505050565b60055460ff1690565b60006106016106ae610d1b565b8461068985600160006106bf610d1b565b6001600160a01b03908116825260208083019390935260409182016000908120918c168152925290205490610ffd565b6006546001600160a01b031633811461074f576040805162461bcd60e51b815260206004820181905260248201527f4f776e61626c653a2063616c6c657220213d2070656e64696e67206f776e6572604482015290519081900360640190fd5b6005546040516001600160a01b0380841692610100900416907f8be0079c531659141344cd1fd0a4f28419497f9722a3daafe3b4186f6b6457e090600090a3600580546001600160a01b0390921661010002610100600160a81b0319909216919091179055600680546001600160a01b0319169055565b60006107d061060b565b600754604080516370a0823160e01b8152306004820152905192935060009261086492859261085e926001600160a01b03909216916370a0823191602480820192602092909190829003018186803b15801561082b57600080fd5b505afa15801561083f573d6000803e3d6000fd5b505050506040513d602081101561085557600080fd5b5051869061105e565b906110b7565b9050610870338461111e565b6007546040805163a9059cbb60e01b81523360048201526024810184905290516001600160a01b039092169163a9059cbb916044808201926020929091908290030181600087803b1580156108c457600080fd5b505af11580156108d8573d6000803e3d6000fd5b505050506040513d60208110156108ee57600080fd5b5050505050565b60055461010090046001600160a01b03163314610959576040805162461bcd60e51b815260206004820181905260248201527f4f776e61626c653a2063616c6c6572206973206e6f7420746865206f776e6572604482015290519081900360640190fd5b6001600160a01b03821661099e5760405162461bcd60e51b81526004018080602001828103825260228152602001806113f56022913960400191505060405180910390fd5b6007546040805163095ea7b360e01b81526001600160a01b038581166004830152602482018590529151600093929092169163095ea7b39160448082019260209290919082900301818787803b1580156109f757600080fd5b505af1158015610a0b573d6000803e3d6000fd5b505050506040513d6020811015610a2157600080fd5b50519050600181151514610a665760405162461bcd60e51b81526004018080602001828103825260228152602001806114606022913960400191505060405180910390fd5b6040805183815290516001600160a01b038516917fe594788015612f4e0b69a93c809f9998d20e979ac2f1078c2df35ba4fb8218b3919081900360200190a2505050565b6001600160a01b031660009081526020819052604090205490565b60055461010090046001600160a01b031681565b60048054604080516020601f60026000196101006001881615020190951694909404938401819004810282018101909252828152606093909290918301828280156104975780601f1061046c57610100808354040283529160200191610497565b6000610601610b47610d1b565b84610689856040518060600160405280602581526020016114ec6025913960016000610b71610d1b565b6001600160a01b03908116825260208083019390935260409182016000908120918d16815292529020549190610f66565b600754604080516370a0823160e01b815230600482015290516000926001600160a01b0316916370a08231916024808301926020929190829003018186803b158015610bed57600080fd5b505afa158015610c01573d6000803e3d6000fd5b505050506040513d6020811015610c1757600080fd5b505190506000610c2561060b565b9050801580610c32575081155b15610c4657610c41338461121a565b610c64565b6000610c568361085e868561105e565b9050610c62338261121a565b505b600754604080516323b872dd60e01b81523360048201523060248201526044810186905290516001600160a01b03909216916323b872dd916064808201926020929091908290030181600087803b1580156108c457600080fd5b6000610601610ccb610d1b565b8484610e0b565b6007546001600160a01b031681565b6001600160a01b03918216600090815260016020908152604080832093909416825291909152205490565b6006546001600160a01b031681565b3390565b6001600160a01b038316610d645760405162461bcd60e51b81526004018080602001828103825260248152602001806114c86024913960400191505060405180910390fd5b6001600160a01b038216610da95760405162461bcd60e51b81526004018080602001828103825260228152602001806113ad6022913960400191505060405180910390fd5b6001600160a01b03808416600081815260016020908152604080832094871680845294825291829020859055815185815291517f8c5be1e5ebec7d5bd14f71427d1e84f3dd0314c0f7b2291e5b200ac8c7c3b9259281900390910190a3505050565b6001600160a01b038316610e505760405162461bcd60e51b81526004018080602001828103825260258152602001806114a36025913960400191505060405180910390fd5b6001600160a01b038216610e955760405162461bcd60e51b81526004018080602001828103825260238152602001806113686023913960400191505060405180910390fd5b610ea08383836105e8565b610edd816040518060600160405280602681526020016113cf602691396001600160a01b0386166000908152602081905260409020549190610f66565b6001600160a01b038085166000908152602081905260408082209390935590841681522054610f0c9082610ffd565b6001600160a01b038084166000818152602081815260409182902094909455805185815290519193928716927fddf252ad1be2c89b69c2b068fc378daa952ba7f163c4a11628f55a4df523b3ef92918290030190a3505050565b60008184841115610ff55760405162461bcd60e51b81526004018080602001828103825283818151815260200191508051906020019080838360005b83811015610fba578181015183820152602001610fa2565b50505050905090810190601f168015610fe75780820380516001836020036101000a031916815260200191505b509250505060405180910390fd5b505050900390565b600082820183811015611057576040805162461bcd60e51b815260206004820152601b60248201527f536166654d6174683a206164646974696f6e206f766572666c6f770000000000604482015290519081900360640190fd5b9392505050565b60008261106d57506000610605565b8282028284828161107a57fe5b04146110575760405162461bcd60e51b81526004018080602001828103825260218152602001806114176021913960400191505060405180910390fd5b600080821161110d576040805162461bcd60e51b815260206004820152601a60248201527f536166654d6174683a206469766973696f6e206279207a65726f000000000000604482015290519081900360640190fd5b81838161111657fe5b049392505050565b6001600160a01b0382166111635760405162461bcd60e51b81526004018080602001828103825260218152602001806114826021913960400191505060405180910390fd5b61116f826000836105e8565b6111ac8160405180606001604052806022815260200161138b602291396001600160a01b0385166000908152602081905260409020549190610f66565b6001600160a01b0383166000908152602081905260409020556002546111d2908261130a565b6002556040805182815290516000916001600160a01b038516917fddf252ad1be2c89b69c2b068fc378daa952ba7f163c4a11628f55a4df523b3ef9181900360200190a35050565b6001600160a01b038216611275576040805162461bcd60e51b815260206004820152601f60248201527f45524332303a206d696e7420746f20746865207a65726f206164647265737300604482015290519081900360640190fd5b611281600083836105e8565b60025461128e9082610ffd565b6002556001600160a01b0382166000908152602081905260409020546112b49082610ffd565b6001600160a01b0383166000818152602081815260408083209490945583518581529351929391927fddf252ad1be2c89b69c2b068fc378daa952ba7f163c4a11628f55a4df523b3ef9281900390910190a35050565b600082821115611361576040805162461bcd60e51b815260206004820152601e60248201527f536166654d6174683a207375627472616374696f6e206f766572666c6f770000604482015290519081900360640190fd5b5090039056fe45524332303a207472616e7366657220746f20746865207a65726f206164647265737345524332303a206275726e20616d6f756e7420657863656564732062616c616e636545524332303a20617070726f766520746f20746865207a65726f206164647265737345524332303a207472616e7366657220616d6f756e7420657863656564732062616c616e6365527562794261723a20496e76616c696420527562794d616b65722061646472657373536166654d6174683a206d756c7469706c69636174696f6e206f766572666c6f7745524332303a207472616e7366657220616d6f756e74206578636565647320616c6c6f77616e6365527562794261723a20527562794d616b657220616c6c6f77616e6365206572726f7245524332303a206275726e2066726f6d20746865207a65726f206164647265737345524332303a207472616e736665722066726f6d20746865207a65726f206164647265737345524332303a20617070726f76652066726f6d20746865207a65726f206164647265737345524332303a2064656372656173656420616c6c6f77616e63652062656c6f77207a65726fa2646970667358221220f808abe6e5b08c6a5d426adfb3f3c2ee1ff111bb458bfbbc4ef0538da3df403364736f6c634300060c0033",
  "devdoc": {
    "kind": "dev",
    "methods": {
      "allowance(address,address)": {
        "details": "See {IERC20-allowance}."
      },
      "approve(address,uint256)": {
        "details": "See {IERC20-approve}. Requirements: - `spender` cannot be the zero address."
      },
      "balanceOf(address)": {
        "details": "See {IERC20-balanceOf}."
      },
      "decimals()": {
        "details": "Returns the number of decimals used to get its user representation. For example, if `decimals` equals `2`, a balance of `505` tokens should be displayed to a user as `5,05` (`505 / 10 ** 2`). Tokens usually opt for a value of 18, imitating the relationship between Ether and Wei. This is the value {ERC20} uses, unless {_setupDecimals} is called. NOTE: This information is only used for _display_ purposes: it in no way affects any of the arithmetic of the contract, including {IERC20-balanceOf} and {IERC20-transfer}."
      },
      "decreaseAllowance(address,uint256)": {
        "details": "Atomically decreases the allowance granted to `spender` by the caller. This is an alternative to {approve} that can be used as a mitigation for problems described in {IERC20-approve}. Emits an {Approval} event indicating the updated allowance. Requirements: - `spender` cannot be the zero address. - `spender` must have allowance for the caller of at least `subtractedValue`."
      },
      "increaseAllowance(address,uint256)": {
        "details": "Atomically increases the allowance granted to `spender` by the caller. This is an alternative to {approve} that can be used as a mitigation for problems described in {IERC20-approve}. Emits an {Approval} event indicating the updated allowance. Requirements: - `spender` cannot be the zero address."
      },
      "name()": {
        "details": "Returns the name of the token."
      },
      "symbol()": {
        "details": "Returns the symbol of the token, usually a shorter version of the name."
      },
      "totalSupply()": {
        "details": "See {IERC20-totalSupply}."
      },
      "transfer(address,uint256)": {
        "details": "See {IERC20-transfer}. Requirements: - `recipient` cannot be the zero address. - the caller must have a balance of at least `amount`."
      },
      "transferFrom(address,address,uint256)": {
        "details": "See {IERC20-transferFrom}. Emits an {Approval} event indicating the updated allowance. This is not required by the EIP. See the note at the beginning of {ERC20}. Requirements: - `sender` and `recipient` cannot be the zero address. - `sender` must have a balance of at least `amount`. - the caller must have allowance for ``sender``'s tokens of at least `amount`."
      }
    },
    "version": 1
  },
  "userdoc": {
    "kind": "user",
    "methods": {},
    "version": 1
  },
  "storageLayout": {
    "storage": [
      {
        "astId": 2743,
        "contract": "contracts/RubyBar.sol:RubyBar",
        "label": "_balances",
        "offset": 0,
        "slot": "0",
        "type": "t_mapping(t_address,t_uint256)"
      },
      {
        "astId": 2749,
        "contract": "contracts/RubyBar.sol:RubyBar",
        "label": "_allowances",
        "offset": 0,
        "slot": "1",
        "type": "t_mapping(t_address,t_mapping(t_address,t_uint256))"
      },
      {
        "astId": 2751,
        "contract": "contracts/RubyBar.sol:RubyBar",
        "label": "_totalSupply",
        "offset": 0,
        "slot": "2",
        "type": "t_uint256"
      },
      {
        "astId": 2753,
        "contract": "contracts/RubyBar.sol:RubyBar",
        "label": "_name",
        "offset": 0,
        "slot": "3",
        "type": "t_string_storage"
      },
      {
        "astId": 2755,
        "contract": "contracts/RubyBar.sol:RubyBar",
        "label": "_symbol",
        "offset": 0,
        "slot": "4",
        "type": "t_string_storage"
      },
      {
        "astId": 2757,
        "contract": "contracts/RubyBar.sol:RubyBar",
        "label": "_decimals",
        "offset": 0,
        "slot": "5",
        "type": "t_uint8"
      },
      {
        "astId": 6257,
        "contract": "contracts/RubyBar.sol:RubyBar",
        "label": "owner",
        "offset": 1,
        "slot": "5",
        "type": "t_address"
      },
      {
        "astId": 6259,
        "contract": "contracts/RubyBar.sol:RubyBar",
        "label": "pendingOwner",
        "offset": 0,
        "slot": "6",
        "type": "t_address"
      },
      {
        "astId": 6389,
        "contract": "contracts/RubyBar.sol:RubyBar",
        "label": "ruby",
        "offset": 0,
        "slot": "7",
        "type": "t_contract(IERC20)3366"
      }
    ],
    "types": {
      "t_address": {
        "encoding": "inplace",
        "label": "address",
        "numberOfBytes": "20"
      },
      "t_contract(IERC20)3366": {
        "encoding": "inplace",
        "label": "contract IERC20",
        "numberOfBytes": "20"
      },
      "t_mapping(t_address,t_mapping(t_address,t_uint256))": {
        "encoding": "mapping",
        "key": "t_address",
        "label": "mapping(address => mapping(address => uint256))",
        "numberOfBytes": "32",
        "value": "t_mapping(t_address,t_uint256)"
      },
      "t_mapping(t_address,t_uint256)": {
        "encoding": "mapping",
        "key": "t_address",
        "label": "mapping(address => uint256)",
        "numberOfBytes": "32",
        "value": "t_uint256"
      },
      "t_string_storage": {
        "encoding": "bytes",
        "label": "string",
        "numberOfBytes": "32"
      },
      "t_uint256": {
        "encoding": "inplace",
        "label": "uint256",
        "numberOfBytes": "32"
      },
      "t_uint8": {
        "encoding": "inplace",
        "label": "uint8",
        "numberOfBytes": "1"
      }
    }
  }
}