{
  "address": "0x9A9f2CCfdE556A7E9Ff0848998Aa4a0CFD8863AE",
  "abi": [
    {
      "inputs": [
        {
          "internalType": "contract RubyToken",
          "name": "_ruby",
          "type": "address"
        },
        {
          "internalType": "address",
          "name": "_treasuryAddr",
          "type": "address"
        },
        {
          "internalType": "uint256",
          "name": "_rubyPerSec",
          "type": "uint256"
        },
        {
          "internalType": "uint256",
          "name": "_startTimestamp",
          "type": "uint256"
        },
        {
          "internalType": "uint256",
          "name": "_treasuryPercent",
          "type": "uint256"
        }
      ],
      "stateMutability": "nonpayable",
      "type": "constructor"
    },
    {
      "anonymous": false,
      "inputs": [
        {
          "indexed": true,
          "internalType": "uint256",
          "name": "pid",
          "type": "uint256"
        },
        {
          "indexed": false,
          "internalType": "uint256",
          "name": "allocPoint",
          "type": "uint256"
        },
        {
          "indexed": true,
          "internalType": "contract IERC20",
          "name": "lpToken",
          "type": "address"
        },
        {
          "indexed": true,
          "internalType": "contract IRubyMasterChefRewarder",
          "name": "rewarder",
          "type": "address"
        }
      ],
      "name": "Add",
      "type": "event"
    },
    {
      "anonymous": false,
      "inputs": [
        {
          "indexed": true,
          "internalType": "address",
          "name": "user",
          "type": "address"
        },
        {
          "indexed": true,
          "internalType": "uint256",
          "name": "pid",
          "type": "uint256"
        },
        {
          "indexed": false,
          "internalType": "uint256",
          "name": "amount",
          "type": "uint256"
        }
      ],
      "name": "Deposit",
      "type": "event"
    },
    {
      "anonymous": false,
      "inputs": [
        {
          "indexed": true,
          "internalType": "address",
          "name": "user",
          "type": "address"
        },
        {
          "indexed": true,
          "internalType": "uint256",
          "name": "pid",
          "type": "uint256"
        },
        {
          "indexed": false,
          "internalType": "uint256",
          "name": "amount",
          "type": "uint256"
        }
      ],
      "name": "EmergencyWithdraw",
      "type": "event"
    },
    {
      "anonymous": false,
      "inputs": [
        {
          "indexed": true,
          "internalType": "address",
          "name": "user",
          "type": "address"
        },
        {
          "indexed": true,
          "internalType": "uint256",
          "name": "pid",
          "type": "uint256"
        },
        {
          "indexed": false,
          "internalType": "uint256",
          "name": "amount",
          "type": "uint256"
        }
      ],
      "name": "Harvest",
      "type": "event"
    },
    {
      "anonymous": false,
      "inputs": [
        {
          "indexed": true,
          "internalType": "address",
          "name": "previousOwner",
          "type": "address"
        },
        {
          "indexed": true,
          "internalType": "address",
          "name": "newOwner",
          "type": "address"
        }
      ],
      "name": "OwnershipTransferred",
      "type": "event"
    },
    {
      "anonymous": false,
      "inputs": [
        {
          "indexed": true,
          "internalType": "uint256",
          "name": "pid",
          "type": "uint256"
        },
        {
          "indexed": false,
          "internalType": "uint256",
          "name": "allocPoint",
          "type": "uint256"
        },
        {
          "indexed": true,
          "internalType": "contract IRubyMasterChefRewarder",
          "name": "rewarder",
          "type": "address"
        },
        {
          "indexed": false,
          "internalType": "bool",
          "name": "overwrite",
          "type": "bool"
        }
      ],
      "name": "Set",
      "type": "event"
    },
    {
      "anonymous": false,
      "inputs": [
        {
          "indexed": true,
          "internalType": "address",
          "name": "oldAddress",
          "type": "address"
        },
        {
          "indexed": true,
          "internalType": "address",
          "name": "newAddress",
          "type": "address"
        }
      ],
      "name": "SetTreasuryAddress",
      "type": "event"
    },
    {
      "anonymous": false,
      "inputs": [
        {
          "indexed": false,
          "internalType": "uint256",
          "name": "newPercent",
          "type": "uint256"
        }
      ],
      "name": "SetTreasuryPercent",
      "type": "event"
    },
    {
      "anonymous": false,
      "inputs": [
        {
          "indexed": true,
          "internalType": "address",
          "name": "user",
          "type": "address"
        },
        {
          "indexed": false,
          "internalType": "uint256",
          "name": "_rubyPerSec",
          "type": "uint256"
        }
      ],
      "name": "UpdateEmissionRate",
      "type": "event"
    },
    {
      "anonymous": false,
      "inputs": [
        {
          "indexed": true,
          "internalType": "uint256",
          "name": "pid",
          "type": "uint256"
        },
        {
          "indexed": false,
          "internalType": "uint256",
          "name": "lastRewardTimestamp",
          "type": "uint256"
        },
        {
          "indexed": false,
          "internalType": "uint256",
          "name": "lpSupply",
          "type": "uint256"
        },
        {
          "indexed": false,
          "internalType": "uint256",
          "name": "accRubyPerShare",
          "type": "uint256"
        }
      ],
      "name": "UpdatePool",
      "type": "event"
    },
    {
      "anonymous": false,
      "inputs": [
        {
          "indexed": true,
          "internalType": "address",
          "name": "user",
          "type": "address"
        },
        {
          "indexed": true,
          "internalType": "uint256",
          "name": "pid",
          "type": "uint256"
        },
        {
          "indexed": false,
          "internalType": "uint256",
          "name": "amount",
          "type": "uint256"
        }
      ],
      "name": "Withdraw",
      "type": "event"
    },
    {
      "inputs": [
        {
          "internalType": "uint256",
          "name": "_allocPoint",
          "type": "uint256"
        },
        {
          "internalType": "contract IERC20",
          "name": "_lpToken",
          "type": "address"
        },
        {
          "internalType": "contract IRubyMasterChefRewarder",
          "name": "_rewarder",
          "type": "address"
        }
      ],
      "name": "add",
      "outputs": [],
      "stateMutability": "nonpayable",
      "type": "function"
    },
    {
      "inputs": [
        {
          "internalType": "uint256",
          "name": "_pid",
          "type": "uint256"
        },
        {
          "internalType": "uint256",
          "name": "_amount",
          "type": "uint256"
        }
      ],
      "name": "deposit",
      "outputs": [],
      "stateMutability": "nonpayable",
      "type": "function"
    },
    {
      "inputs": [],
      "name": "devAddr",
      "outputs": [
        {
          "internalType": "address",
          "name": "",
          "type": "address"
        }
      ],
      "stateMutability": "view",
      "type": "function"
    },
    {
      "inputs": [
        {
          "internalType": "uint256",
          "name": "_pid",
          "type": "uint256"
        }
      ],
      "name": "emergencyWithdraw",
      "outputs": [],
      "stateMutability": "nonpayable",
      "type": "function"
    },
    {
      "inputs": [],
      "name": "massUpdatePools",
      "outputs": [],
      "stateMutability": "nonpayable",
      "type": "function"
    },
    {
      "inputs": [],
      "name": "owner",
      "outputs": [
        {
          "internalType": "address",
          "name": "",
          "type": "address"
        }
      ],
      "stateMutability": "view",
      "type": "function"
    },
    {
      "inputs": [
        {
          "internalType": "uint256",
          "name": "_pid",
          "type": "uint256"
        },
        {
          "internalType": "address",
          "name": "_user",
          "type": "address"
        }
      ],
      "name": "pendingTokens",
      "outputs": [
        {
          "internalType": "uint256",
          "name": "pendingRuby",
          "type": "uint256"
        },
        {
          "internalType": "address",
          "name": "bonusTokenAddress",
          "type": "address"
        },
        {
          "internalType": "string",
          "name": "bonusTokenSymbol",
          "type": "string"
        },
        {
          "internalType": "uint256",
          "name": "pendingBonusToken",
          "type": "uint256"
        }
      ],
      "stateMutability": "view",
      "type": "function"
    },
    {
      "inputs": [
        {
          "internalType": "uint256",
          "name": "",
          "type": "uint256"
        }
      ],
      "name": "poolInfo",
      "outputs": [
        {
          "internalType": "contract IERC20",
          "name": "lpToken",
          "type": "address"
        },
        {
          "internalType": "uint256",
          "name": "allocPoint",
          "type": "uint256"
        },
        {
          "internalType": "uint256",
          "name": "lastRewardTimestamp",
          "type": "uint256"
        },
        {
          "internalType": "uint256",
          "name": "accRubyPerShare",
          "type": "uint256"
        },
        {
          "internalType": "contract IRubyMasterChefRewarder",
          "name": "rewarder",
          "type": "address"
        }
      ],
      "stateMutability": "view",
      "type": "function"
    },
    {
      "inputs": [],
      "name": "poolLength",
      "outputs": [
        {
          "internalType": "uint256",
          "name": "",
          "type": "uint256"
        }
      ],
      "stateMutability": "view",
      "type": "function"
    },
    {
      "inputs": [],
      "name": "renounceOwnership",
      "outputs": [],
      "stateMutability": "nonpayable",
      "type": "function"
    },
    {
      "inputs": [
        {
          "internalType": "uint256",
          "name": "_pid",
          "type": "uint256"
        }
      ],
      "name": "rewarderBonusTokenInfo",
      "outputs": [
        {
          "internalType": "address",
          "name": "bonusTokenAddress",
          "type": "address"
        },
        {
          "internalType": "string",
          "name": "bonusTokenSymbol",
          "type": "string"
        }
      ],
      "stateMutability": "view",
      "type": "function"
    },
    {
      "inputs": [],
      "name": "ruby",
      "outputs": [
        {
          "internalType": "contract RubyToken",
          "name": "",
          "type": "address"
        }
      ],
      "stateMutability": "view",
      "type": "function"
    },
    {
      "inputs": [],
      "name": "rubyPerSec",
      "outputs": [
        {
          "internalType": "uint256",
          "name": "",
          "type": "uint256"
        }
      ],
      "stateMutability": "view",
      "type": "function"
    },
    {
      "inputs": [
        {
          "internalType": "uint256",
          "name": "_pid",
          "type": "uint256"
        },
        {
          "internalType": "uint256",
          "name": "_allocPoint",
          "type": "uint256"
        },
        {
          "internalType": "contract IRubyMasterChefRewarder",
          "name": "_rewarder",
          "type": "address"
        },
        {
          "internalType": "bool",
          "name": "overwrite",
          "type": "bool"
        }
      ],
      "name": "set",
      "outputs": [],
      "stateMutability": "nonpayable",
      "type": "function"
    },
    {
      "inputs": [
        {
          "internalType": "address",
          "name": "_treasuryAddr",
          "type": "address"
        }
      ],
      "name": "setTreasuryAddr",
      "outputs": [],
      "stateMutability": "nonpayable",
      "type": "function"
    },
    {
      "inputs": [
        {
          "internalType": "uint256",
          "name": "_newTreasuryPercent",
          "type": "uint256"
        }
      ],
      "name": "setTreasuryPercent",
      "outputs": [],
      "stateMutability": "nonpayable",
      "type": "function"
    },
    {
      "inputs": [],
      "name": "startTimestamp",
      "outputs": [
        {
          "internalType": "uint256",
          "name": "",
          "type": "uint256"
        }
      ],
      "stateMutability": "view",
      "type": "function"
    },
    {
      "inputs": [],
      "name": "totalAllocPoint",
      "outputs": [
        {
          "internalType": "uint256",
          "name": "",
          "type": "uint256"
        }
      ],
      "stateMutability": "view",
      "type": "function"
    },
    {
      "inputs": [
        {
          "internalType": "address",
          "name": "newOwner",
          "type": "address"
        }
      ],
      "name": "transferOwnership",
      "outputs": [],
      "stateMutability": "nonpayable",
      "type": "function"
    },
    {
      "inputs": [],
      "name": "treasuryAddr",
      "outputs": [
        {
          "internalType": "address",
          "name": "",
          "type": "address"
        }
      ],
      "stateMutability": "view",
      "type": "function"
    },
    {
      "inputs": [],
      "name": "treasuryPercent",
      "outputs": [
        {
          "internalType": "uint256",
          "name": "",
          "type": "uint256"
        }
      ],
      "stateMutability": "view",
      "type": "function"
    },
    {
      "inputs": [
        {
          "internalType": "uint256",
          "name": "_rubyPerSec",
          "type": "uint256"
        }
      ],
      "name": "updateEmissionRate",
      "outputs": [],
      "stateMutability": "nonpayable",
      "type": "function"
    },
    {
      "inputs": [
        {
          "internalType": "uint256",
          "name": "_pid",
          "type": "uint256"
        }
      ],
      "name": "updatePool",
      "outputs": [],
      "stateMutability": "nonpayable",
      "type": "function"
    },
    {
      "inputs": [
        {
          "internalType": "uint256",
          "name": "",
          "type": "uint256"
        },
        {
          "internalType": "address",
          "name": "",
          "type": "address"
        }
      ],
      "name": "userInfo",
      "outputs": [
        {
          "internalType": "uint256",
          "name": "amount",
          "type": "uint256"
        },
        {
          "internalType": "uint256",
          "name": "rewardDebt",
          "type": "uint256"
        }
      ],
      "stateMutability": "view",
      "type": "function"
    },
    {
      "inputs": [
        {
          "internalType": "uint256",
          "name": "_pid",
          "type": "uint256"
        },
        {
          "internalType": "uint256",
          "name": "_amount",
          "type": "uint256"
        }
      ],
      "name": "withdraw",
      "outputs": [],
      "stateMutability": "nonpayable",
      "type": "function"
    }
  ],
  "transactionHash": "0xa8d0a13a23e699cdfed116911991464dcd978a4ad6121f562bd560e59609819f",
  "args": [
    "0x5FC8d32690cc91D4c39d9d3abcBD16989F875707",
    "0xf39Fd6e51aad88F6F4ce6aB8827279cffFb92266",
    "10000000000000000000",
    "1631948400",
    "100"
  ],
  "solcInputHash": "1f3656fc31748f602d989e40d1373c3b",
  "bytecode": "0x60806040523480156200001157600080fd5b506040516200263638038062002636833981016040819052620000349162000103565b600062000040620000ff565b600080546001600160a01b0319166001600160a01b0383169081178255604051929350917f8be0079c531659141344cd1fd0a4f28419497f9722a3daafe3b4186f6b6457e0908290a3506103e8811115620000b85760405162461bcd60e51b8152600401620000af906200015a565b60405180910390fd5b600180546001600160a01b039687166001600160a01b0319918216179091556003805495909616941693909317909355600455600b919091556005556000600a55620001be565b3390565b600080600080600060a086880312156200011b578081fd5b85516200012881620001a5565b60208701519095506200013b81620001a5565b6040870151606088015160809098015196999198509695945092505050565b6020808252602b908201527f436f6e7374727563746f723a20696e76616c696420747265617375727920706560408201526a7263656e742076616c756560a81b606082015260800190565b6001600160a01b0381168114620001bb57600080fd5b50565b61246880620001ce6000396000f3fe608060405234801561001057600080fd5b50600436106101735760003560e01c806389a2bc25116100de578063bc70fdbc11610097578063e2bbb15811610071578063e2bbb158146102eb578063e6fd48bc146102fe578063f2fde38b14610306578063ffcd42631461031957610173565b8063bc70fdbc146102ba578063d3229485146102db578063da09c72c146102e357610173565b806389a2bc25146102505780638da5cb5b1461026357806393f1a40b1461026b578063a7e05b9c1461028c578063ab7de0981461029f578063af3315fd146102b257610173565b8063441a3e7011610130578063441a3e70146101f457806351eb05a6146102075780635312ea8e1461021a578063630b5ba11461022d578063715018a61461023557806388bba42f1461023d57610173565b806304ef9d5814610178578063081e3eda146101965780630ba84cd21461019e5780631526fe27146101b357806317caf6f1146101d757806330d9a62a146101df575b600080fd5b61018061033c565b60405161018d919061236b565b60405180910390f35b610180610342565b6101b16101ac366004611e02565b610348565b005b6101c66101c1366004611e02565b6103da565b60405161018d959493929190611fc9565b610180610425565b6101e761042b565b60405161018d9190611f54565b6101b1610202366004611ea2565b61043a565b6101b1610215366004611e02565b610649565b6101b1610228366004611e02565b6108d5565b6101b1610974565b6101b1610997565b6101b161024b366004611ec3565b610a20565b6101b161025e366004611e02565b610bcd565b6101e7610c6e565b61027e610279366004611e32565b610c7d565b60405161018d9291906123bf565b6101b161029a366004611d13565b610ca1565b6101b16102ad366004611e61565b610d17565b610180610f98565b6102cd6102c8366004611e02565b610f9e565b60405161018d929190611fa5565b6101e76110f7565b6101e7611106565b6101b16102f9366004611ea2565b611115565b610180611300565b6101b1610314366004611d13565b611306565b61032c610327366004611e32565b6113c6565b60405161018d9493929190612374565b60055481565b60065490565b6103506115ff565b6001600160a01b0316610361610c6e565b6001600160a01b0316146103905760405162461bcd60e51b8152600401610387906121d4565b60405180910390fd5b610398610974565b600481905560405133907fe2492e003bbe8afa53088b406f0c1cb5d9e280370fc72a74cf116ffd343c4053906103cf90849061236b565b60405180910390a250565b600681815481106103e757fe5b6000918252602090912060059091020180546001820154600283015460038401546004909401546001600160a01b0393841695509193909290911685565b600a5481565b6003546001600160a01b031681565b60006006838154811061044957fe5b6000918252602080832086845260098252604080852033865290925292208054600590920290920192508311156104925760405162461bcd60e51b81526004016103879061227e565b61049b84610649565b60006104d582600101546104cf64e8d4a510006104c98760030154876000015461160390919063ffffffff16565b90611646565b90611678565b90506104e133826116a0565b84336001600160a01b03167f71bab65ced2e5750775a0613be067df48ef06cf92a496ebf7663ae06609249548360405161051b919061236b565b60405180910390a3815461052f9085611678565b808355600384015461054c9164e8d4a51000916104c99190611603565b826001018190555060006006868154811061056357fe5b60009182526020909120600460059092020101546001600160a01b0316905080156105e957825460405163b8735ca360e01b81526001600160a01b0383169163b8735ca3916105b6913391600401611f68565b600060405180830381600087803b1580156105d057600080fd5b505af11580156105e4573d6000803e3d6000fd5b505050505b83546105ff906001600160a01b03163387611840565b85336001600160a01b03167ff279e6a1f5e320cca91135676d9cb6e44ca8a08c0b88342bcdb1144f6511b56887604051610639919061236b565b60405180910390a3505050505050565b60006006828154811061065857fe5b906000526020600020906005020190508060020154421161067957506108d2565b80546040516370a0823160e01b81526000916001600160a01b0316906370a08231906106a9903090600401611f54565b60206040518083038186803b1580156106c157600080fd5b505afa1580156106d5573d6000803e3d6000fd5b505050506040513d601f19601f820116820180604052508101906106f99190611e1a565b90508061070d5750426002909101556108d2565b600061072683600201544261167890919063ffffffff16565b90506000610753600a546104c9866001015461074d6004548761160390919063ffffffff16565b90611603565b6005546001546003549293506103e8828103936001600160a01b03928316936340c10f19939091169161078b916104c9908890611603565b6040518363ffffffff1660e01b81526004016107a8929190611f68565b600060405180830381600087803b1580156107c257600080fd5b505af11580156107d6573d6000803e3d6000fd5b50506001546001600160a01b031691506340c10f199050306107fe6103e86104c98787611603565b6040518363ffffffff1660e01b815260040161081b929190611f68565b600060405180830381600087803b15801561083557600080fd5b505af1158015610849573d6000803e3d6000fd5b505050506108816108766103e86104c98461074d896104c964e8d4a510008a61160390919063ffffffff16565b600387015490611936565b60038601819055426002870181905560405188927f3be3541fc42237d611b30329040bfa4569541d156560acdbbae57640d20b8f46926108c492909189916123cd565b60405180910390a250505050505b50565b6000600682815481106108e457fe5b60009182526020808320858452600982526040808520338087529352909320805460059093029093018054909450610929926001600160a01b03919091169190611840565b8054604051849133917fbb757047c2b5f3974fe26b7c10f732e7bce710b0952a71082702781e62ae05959161095d9161236b565b60405180910390a360008082556001909101555050565b60065460005b818110156109935761098b81610649565b60010161097a565b5050565b61099f6115ff565b6001600160a01b03166109b0610c6e565b6001600160a01b0316146109d65760405162461bcd60e51b8152600401610387906121d4565b600080546040516001600160a01b03909116907f8be0079c531659141344cd1fd0a4f28419497f9722a3daafe3b4186f6b6457e0908390a3600080546001600160a01b0319169055565b610a286115ff565b6001600160a01b0316610a39610c6e565b6001600160a01b031614610a5f5760405162461bcd60e51b8152600401610387906121d4565b610a688261195b565b80610a7a57506001600160a01b038216155b610a965760405162461bcd60e51b8152600401610387906122aa565b610a9e610974565b610adb83610ad560068781548110610ab257fe5b906000526020600020906005020160010154600a5461167890919063ffffffff16565b90611936565b600a819055508260068581548110610aef57fe5b9060005260206000209060050201600101819055508015610b4e578160068581548110610b1857fe5b906000526020600020906005020160040160006101000a8154816001600160a01b0302191690836001600160a01b031602179055505b80610b825760068481548110610b6057fe5b60009182526020909120600460059092020101546001600160a01b0316610b84565b815b6001600160a01b0316847fa54644aae5c48c5971516f334e4fe8ecbc7930e23f34877d4203c6551e67ffaa8584604051610bbf9291906123af565b60405180910390a350505050565b610bd56115ff565b6001600160a01b0316610be6610c6e565b6001600160a01b031614610c0c5760405162461bcd60e51b8152600401610387906121d4565b6103e8811115610c2e5760405162461bcd60e51b8152600401610387906120ad565b60058190556040517fcd5bca6a422e5cbcaeb47e746280c12e96040b2991cd5c6c4e98f08e4692c4b090610c6390839061236b565b60405180910390a150565b6000546001600160a01b031690565b60096020908152600092835260408084209091529082529020805460019091015482565b6003546001600160a01b03163314610ccb5760405162461bcd60e51b815260040161038790612209565b600380546001600160a01b0319166001600160a01b03831690811790915560405133907f61885cdba916be748ff3e3f6f15e4206153b8ea3b7acabade9d04b4063a8351090600090a350565b610d1f6115ff565b6001600160a01b0316610d30610c6e565b6001600160a01b031614610d565760405162461bcd60e51b8152600401610387906121d4565b610d5f8261195b565b610d7b5760405162461bcd60e51b815260040161038790612238565b610d848161195b565b80610d9657506001600160a01b038116155b610db25760405162461bcd60e51b8152600401610387906122f0565b610dbd600783611965565b15610dda5760405162461bcd60e51b8152600401610387906121a5565b610de2610974565b6000600b544211610df557600b54610df7565b425b600a54909150610e079085611936565b600a556040805160a0810182526001600160a01b038581168252602082018781529282018481526000606084018181528784166080860190815260068054600181018255935294517ff652222313e28459528d920b65115c16c04f3efc82aaedc97be59f3f377c0d3f600590930292830180546001600160a01b031990811692871692909217905595517ff652222313e28459528d920b65115c16c04f3efc82aaedc97be59f3f377c0d4083015591517ff652222313e28459528d920b65115c16c04f3efc82aaedc97be59f3f377c0d4182015590517ff652222313e28459528d920b65115c16c04f3efc82aaedc97be59f3f377c0d4282015591517ff652222313e28459528d920b65115c16c04f3efc82aaedc97be59f3f377c0d4390920180549093169116179055610f3c60078461197a565b506006546001600160a01b038084169190851690610f5b906001611678565b7f4b16bd2431ad24dc020ab0e1de7fcb6563dead6a24fb10089d6c23e97a70381f87604051610f8a919061236b565b60405180910390a450505050565b60045481565b60006060600060068481548110610fb157fe5b6000918252602090912060059091020160048101549091506001600160a01b0316156110f1576004808201546040805163f7c618c160e01b815290516001600160a01b039092169263f7c618c1928282019260209290829003018186803b15801561101b57600080fd5b505afa15801561102f573d6000803e3d6000fd5b505050506040513d601f19601f820116820180604052508101906110539190611d4b565b92506110ee8160040160009054906101000a90046001600160a01b03166001600160a01b031663f7c618c16040518163ffffffff1660e01b815260040160206040518083038186803b1580156110a857600080fd5b505afa1580156110bc573d6000803e3d6000fd5b505050506040513d601f19601f820116820180604052508101906110e09190611d4b565b6001600160a01b031661198f565b91505b50915091565b6001546001600160a01b031681565b6002546001600160a01b031681565b60006006838154811061112457fe5b6000918252602080832086845260098252604080852033865290925292206005909102909101915061115584610649565b8054156111da57600061118a82600101546104cf64e8d4a510006104c98760030154876000015461160390919063ffffffff16565b905061119633826116a0565b84336001600160a01b03167f71bab65ced2e5750775a0613be067df48ef06cf92a496ebf7663ae0660924954836040516111d0919061236b565b60405180910390a3505b80546111e69084611936565b80825560038301546112039164e8d4a51000916104c99190611603565b816001018190555060006006858154811061121a57fe5b60009182526020909120600460059092020101546001600160a01b0316905080156112a057815460405163b8735ca360e01b81526001600160a01b0383169163b8735ca39161126d913391600401611f68565b600060405180830381600087803b15801561128757600080fd5b505af115801561129b573d6000803e3d6000fd5b505050505b82546112b7906001600160a01b0316333087611a52565b84336001600160a01b03167f90890809c654f11d6e72a28fa60149770a0d11ec6c92319d6ceb2bb0a4ea1a15866040516112f1919061236b565b60405180910390a35050505050565b600b5481565b61130e6115ff565b6001600160a01b031661131f610c6e565b6001600160a01b0316146113455760405162461bcd60e51b8152600401610387906121d4565b6001600160a01b03811661136b5760405162461bcd60e51b815260040161038790612030565b600080546040516001600160a01b03808516939216917f8be0079c531659141344cd1fd0a4f28419497f9722a3daafe3b4186f6b6457e091a3600080546001600160a01b0319166001600160a01b0392909216919091179055565b6000806060600080600687815481106113db57fe5b600091825260208083208a84526009825260408085206001600160a01b03808d16875293528085206003600590950290920193840154845491516370a0823160e01b815294965091949193919216906370a082319061143e903090600401611f54565b60206040518083038186803b15801561145657600080fd5b505afa15801561146a573d6000803e3d6000fd5b505050506040513d601f19601f8201168201806040525081019061148e9190611e1a565b90508360020154421180156114a257508015155b156115215760006114c085600201544261167890919063ffffffff16565b905060006005546103e803905060006114fc6103e86104c98461074d600a546104c98d6001015461074d6004548c61160390919063ffffffff16565b905061151b611514856104c98464e8d4a51000611603565b8690611936565b94505050505b61154983600101546104cf64e8d4a510006104c986886000015461160390919063ffffffff16565b60048501549098506001600160a01b0316156115f2576115688a610f9e565b60048087015460405163c031a66f60e01b8152939a509198506001600160a01b039091169163c031a66f9161159f918d9101611f54565b60206040518083038186803b1580156115b757600080fd5b505afa1580156115cb573d6000803e3d6000fd5b505050506040513d601f19601f820116820180604052508101906115ef9190611e1a565b94505b5050505092959194509250565b3390565b60008261161257506000611640565b8282028284828161161f57fe5b041461163d5760405162461bcd60e51b815260040161038790612164565b90505b92915050565b60008082116116675760405162461bcd60e51b81526004016103879061212d565b81838161167057fe5b049392505050565b60008282111561169a5760405162461bcd60e51b8152600401610387906120f6565b50900390565b6001546040516370a0823160e01b81526000916001600160a01b0316906370a08231906116d1903090600401611f54565b60206040518083038186803b1580156116e957600080fd5b505afa1580156116fd573d6000803e3d6000fd5b505050506040513d601f19601f820116820180604052508101906117219190611e1a565b9050808211156117b55760015460405163a9059cbb60e01b81526001600160a01b039091169063a9059cbb9061175d9086908590600401611f68565b602060405180830381600087803b15801561177757600080fd5b505af115801561178b573d6000803e3d6000fd5b505050506040513d601f19601f820116820180604052508101906117af9190611d2f565b5061183b565b60015460405163a9059cbb60e01b81526001600160a01b039091169063a9059cbb906117e79086908690600401611f68565b602060405180830381600087803b15801561180157600080fd5b505af1158015611815573d6000803e3d6000fd5b505050506040513d601f19601f820116820180604052508101906118399190611d2f565b505b505050565b60006060846001600160a01b031663a9059cbb60e01b8585604051602401611869929190611f68565b60408051601f198184030181529181526020820180516001600160e01b03166001600160e01b03199094169390931790925290516118a79190611f38565b6000604051808303816000865af19150503d80600081146118e4576040519150601f19603f3d011682016040523d82523d6000602084013e6118e9565b606091505b50915091508180156119135750805115806119135750808060200190518101906119139190611d2f565b61192f5760405162461bcd60e51b815260040161038790611ff9565b5050505050565b60008282018381101561163d5760405162461bcd60e51b815260040161038790612076565b803b15155b919050565b600061163d836001600160a01b038416611b4b565b600061163d836001600160a01b038416611b63565b60408051600481526024810182526020810180516001600160e01b03166395d89b4160e01b179052905160609160009183916001600160a01b038616916119d69190611f38565b600060405180830381855afa9150503d8060008114611a11576040519150601f19603f3d011682016040523d82523d6000602084013e611a16565b606091505b509150915081611a4157604051806040016040528060038152602001623f3f3f60e81b815250611a4a565b611a4a81611bad565b949350505050565b60006060856001600160a01b03166323b872dd60e01b868686604051602401611a7d93929190611f81565b60408051601f198184030181529181526020820180516001600160e01b03166001600160e01b0319909416939093179092529051611abb9190611f38565b6000604051808303816000865af19150503d8060008114611af8576040519150601f19603f3d011682016040523d82523d6000602084013e611afd565b606091505b5091509150818015611b27575080511580611b27575080806020019051810190611b279190611d2f565b611b435760405162461bcd60e51b815260040161038790612336565b505050505050565b60009081526001919091016020526040902054151590565b6000611b6f8383611b4b565b611ba557508154600181810184556000848152602080822090930184905584548482528286019093526040902091909155611640565b506000611640565b60606040825110611bd35781806020019051810190611bcc9190611d67565b9050611960565b815160201415611cf35760005b60208160ff16108015611c0f5750828160ff1681518110611bfd57fe5b01602001516001600160f81b03191615155b15611c1c57600101611be0565b60608160ff1667ffffffffffffffff81118015611c3857600080fd5b506040519080825280601f01601f191660200182016040528015611c63576020820181803683370190505b509050600091505b60208260ff16108015611c9a5750838260ff1681518110611c8857fe5b01602001516001600160f81b03191615155b15611cea57838260ff1681518110611cae57fe5b602001015160f81c60f81b818360ff1681518110611cc857fe5b60200101906001600160f81b031916908160001a905350600190910190611c6b565b91506119609050565b506040805180820190915260038152623f3f3f60e81b6020820152611960565b600060208284031215611d24578081fd5b813561163d8161240f565b600060208284031215611d40578081fd5b815161163d81612424565b600060208284031215611d5c578081fd5b815161163d8161240f565b600060208284031215611d78578081fd5b815167ffffffffffffffff80821115611d8f578283fd5b818401915084601f830112611da2578283fd5b815181811115611db0578384fd5b604051601f8201601f191681016020018381118282101715611dd0578586fd5b604052818152838201602001871015611de7578485fd5b611df88260208301602087016123e3565b9695505050505050565b600060208284031215611e13578081fd5b5035919050565b600060208284031215611e2b578081fd5b5051919050565b60008060408385031215611e44578081fd5b823591506020830135611e568161240f565b809150509250929050565b600080600060608486031215611e75578081fd5b833592506020840135611e878161240f565b91506040840135611e978161240f565b809150509250925092565b60008060408385031215611eb4578182fd5b50508035926020909101359150565b60008060008060808587031215611ed8578081fd5b84359350602085013592506040850135611ef18161240f565b91506060850135611f0181612424565b939692955090935050565b60008151808452611f248160208601602086016123e3565b601f01601f19169290920160200192915050565b60008251611f4a8184602087016123e3565b9190910192915050565b6001600160a01b0391909116815260200190565b6001600160a01b03929092168252602082015260400190565b6001600160a01b039384168152919092166020820152604081019190915260600190565b6001600160a01b0383168152604060208201819052600090611a4a90830184611f0c565b6001600160a01b039586168152602081019490945260408401929092526060830152909116608082015260a00190565b6020808252601c908201527f426f72696e6745524332303a205472616e73666572206661696c656400000000604082015260600190565b60208082526026908201527f4f776e61626c653a206e6577206f776e657220697320746865207a65726f206160408201526564647265737360d01b606082015260800190565b6020808252601b908201527f536166654d6174683a206164646974696f6e206f766572666c6f770000000000604082015260600190565b60208082526029908201527f736574547265617375727950657263656e743a20696e76616c69642070657263604082015268656e742076616c756560b81b606082015260800190565b6020808252601e908201527f536166654d6174683a207375627472616374696f6e206f766572666c6f770000604082015260600190565b6020808252601a908201527f536166654d6174683a206469766973696f6e206279207a65726f000000000000604082015260600190565b60208082526021908201527f536166654d6174683a206d756c7469706c69636174696f6e206f766572666c6f6040820152607760f81b606082015260800190565b6020808252601590820152741859190e88131408185b1c9958591e481859191959605a1b604082015260600190565b6020808252818101527f4f776e61626c653a2063616c6c6572206973206e6f7420746865206f776e6572604082015260600190565b6020808252601590820152747365745472656173757279416464723a207775743f60581b604082015260600190565b60208082526026908201527f6164643a204c5020746f6b656e206d75737420626520612076616c696420636f6040820152651b9d1c9858dd60d21b606082015260800190565b6020808252601290820152711dda5d1a191c985dce881b9bdd0819dbdbd960721b604082015260600190565b60208082526026908201527f7365743a207265776172646572206d75737420626520636f6e7472616374206f60408201526572207a65726f60d01b606082015260800190565b60208082526026908201527f6164643a207265776172646572206d75737420626520636f6e7472616374206f60408201526572207a65726f60d01b606082015260800190565b6020808252818101527f426f72696e6745524332303a205472616e7366657246726f6d206661696c6564604082015260600190565b90815260200190565b8481526001600160a01b038416602082015260806040820181905260009061239e90830185611f0c565b905082606083015295945050505050565b9182521515602082015260400190565b918252602082015260400190565b9283526020830191909152604082015260600190565b60005b838110156123fe5781810151838201526020016123e6565b838111156118395750506000910152565b6001600160a01b03811681146108d257600080fd5b80151581146108d257600080fdfea2646970667358221220a3c6bf856a56d6795402799e31d4ff3d787f59f8d1a063a61f9c0ad9afce6be764736f6c634300060c0033",
  "devdoc": {
    "kind": "dev",
    "methods": {
      "owner()": {
        "details": "Returns the address of the current owner."
      },
      "renounceOwnership()": {
        "details": "Leaves the contract without owner. It will not be possible to call `onlyOwner` functions anymore. Can only be called by the current owner. NOTE: Renouncing ownership will leave the contract without an owner, thereby removing any functionality that is only available to the owner."
      },
      "transferOwnership(address)": {
        "details": "Transfers ownership of the contract to a new account (`newOwner`). Can only be called by the current owner."
      }
    },
    "version": 1
  },
  "userdoc": {
    "kind": "user",
    "methods": {},
    "version": 1
  },
  "storageLayout": {
    "storage": [
      {
        "astId": 2120,
        "contract": "contracts/RubyMasterChef.sol:RubyMasterChef",
        "label": "_owner",
        "offset": 0,
        "slot": "0",
        "type": "t_address"
      },
      {
        "astId": 7439,
        "contract": "contracts/RubyMasterChef.sol:RubyMasterChef",
        "label": "ruby",
        "offset": 0,
        "slot": "1",
        "type": "t_contract(RubyToken)9290"
      },
      {
        "astId": 7441,
        "contract": "contracts/RubyMasterChef.sol:RubyMasterChef",
        "label": "devAddr",
        "offset": 0,
        "slot": "2",
        "type": "t_address"
      },
      {
        "astId": 7443,
        "contract": "contracts/RubyMasterChef.sol:RubyMasterChef",
        "label": "treasuryAddr",
        "offset": 0,
        "slot": "3",
        "type": "t_address"
      },
      {
        "astId": 7445,
        "contract": "contracts/RubyMasterChef.sol:RubyMasterChef",
        "label": "rubyPerSec",
        "offset": 0,
        "slot": "4",
        "type": "t_uint256"
      },
      {
        "astId": 7447,
        "contract": "contracts/RubyMasterChef.sol:RubyMasterChef",
        "label": "treasuryPercent",
        "offset": 0,
        "slot": "5",
        "type": "t_uint256"
      },
      {
        "astId": 7450,
        "contract": "contracts/RubyMasterChef.sol:RubyMasterChef",
        "label": "poolInfo",
        "offset": 0,
        "slot": "6",
        "type": "t_array(t_struct(PoolInfo)7437_storage)dyn_storage"
      },
      {
        "astId": 7452,
        "contract": "contracts/RubyMasterChef.sol:RubyMasterChef",
        "label": "lpTokens",
        "offset": 0,
        "slot": "7",
        "type": "t_struct(AddressSet)5950_storage"
      },
      {
        "astId": 7458,
        "contract": "contracts/RubyMasterChef.sol:RubyMasterChef",
        "label": "userInfo",
        "offset": 0,
        "slot": "9",
        "type": "t_mapping(t_uint256,t_mapping(t_address,t_struct(UserInfo)7426_storage))"
      },
      {
        "astId": 7460,
        "contract": "contracts/RubyMasterChef.sol:RubyMasterChef",
        "label": "totalAllocPoint",
        "offset": 0,
        "slot": "10",
        "type": "t_uint256"
      },
      {
        "astId": 7462,
        "contract": "contracts/RubyMasterChef.sol:RubyMasterChef",
        "label": "startTimestamp",
        "offset": 0,
        "slot": "11",
        "type": "t_uint256"
      }
    ],
    "types": {
      "t_address": {
        "encoding": "inplace",
        "label": "address",
        "numberOfBytes": "20"
      },
      "t_array(t_bytes32)dyn_storage": {
        "base": "t_bytes32",
        "encoding": "dynamic_array",
        "label": "bytes32[]",
        "numberOfBytes": "32"
      },
      "t_array(t_struct(PoolInfo)7437_storage)dyn_storage": {
        "base": "t_struct(PoolInfo)7437_storage",
        "encoding": "dynamic_array",
        "label": "struct RubyMasterChef.PoolInfo[]",
        "numberOfBytes": "32"
      },
      "t_bytes32": {
        "encoding": "inplace",
        "label": "bytes32",
        "numberOfBytes": "32"
      },
      "t_contract(IERC20)3366": {
        "encoding": "inplace",
        "label": "contract IERC20",
        "numberOfBytes": "20"
      },
      "t_contract(IRubyMasterChefRewarder)14831": {
        "encoding": "inplace",
        "label": "contract IRubyMasterChefRewarder",
        "numberOfBytes": "20"
      },
      "t_contract(RubyToken)9290": {
        "encoding": "inplace",
        "label": "contract RubyToken",
        "numberOfBytes": "20"
      },
      "t_mapping(t_address,t_struct(UserInfo)7426_storage)": {
        "encoding": "mapping",
        "key": "t_address",
        "label": "mapping(address => struct RubyMasterChef.UserInfo)",
        "numberOfBytes": "32",
        "value": "t_struct(UserInfo)7426_storage"
      },
      "t_mapping(t_bytes32,t_uint256)": {
        "encoding": "mapping",
        "key": "t_bytes32",
        "label": "mapping(bytes32 => uint256)",
        "numberOfBytes": "32",
        "value": "t_uint256"
      },
      "t_mapping(t_uint256,t_mapping(t_address,t_struct(UserInfo)7426_storage))": {
        "encoding": "mapping",
        "key": "t_uint256",
        "label": "mapping(uint256 => mapping(address => struct RubyMasterChef.UserInfo))",
        "numberOfBytes": "32",
        "value": "t_mapping(t_address,t_struct(UserInfo)7426_storage)"
      },
      "t_struct(AddressSet)5950_storage": {
        "encoding": "inplace",
        "label": "struct EnumerableSet.AddressSet",
        "members": [
          {
            "astId": 5949,
            "contract": "contracts/RubyMasterChef.sol:RubyMasterChef",
            "label": "_inner",
            "offset": 0,
            "slot": "0",
            "type": "t_struct(Set)5685_storage"
          }
        ],
        "numberOfBytes": "64"
      },
      "t_struct(PoolInfo)7437_storage": {
        "encoding": "inplace",
        "label": "struct RubyMasterChef.PoolInfo",
        "members": [
          {
            "astId": 7428,
            "contract": "contracts/RubyMasterChef.sol:RubyMasterChef",
            "label": "lpToken",
            "offset": 0,
            "slot": "0",
            "type": "t_contract(IERC20)3366"
          },
          {
            "astId": 7430,
            "contract": "contracts/RubyMasterChef.sol:RubyMasterChef",
            "label": "allocPoint",
            "offset": 0,
            "slot": "1",
            "type": "t_uint256"
          },
          {
            "astId": 7432,
            "contract": "contracts/RubyMasterChef.sol:RubyMasterChef",
            "label": "lastRewardTimestamp",
            "offset": 0,
            "slot": "2",
            "type": "t_uint256"
          },
          {
            "astId": 7434,
            "contract": "contracts/RubyMasterChef.sol:RubyMasterChef",
            "label": "accRubyPerShare",
            "offset": 0,
            "slot": "3",
            "type": "t_uint256"
          },
          {
            "astId": 7436,
            "contract": "contracts/RubyMasterChef.sol:RubyMasterChef",
            "label": "rewarder",
            "offset": 0,
            "slot": "4",
            "type": "t_contract(IRubyMasterChefRewarder)14831"
          }
        ],
        "numberOfBytes": "160"
      },
      "t_struct(Set)5685_storage": {
        "encoding": "inplace",
        "label": "struct EnumerableSet.Set",
        "members": [
          {
            "astId": 5680,
            "contract": "contracts/RubyMasterChef.sol:RubyMasterChef",
            "label": "_values",
            "offset": 0,
            "slot": "0",
            "type": "t_array(t_bytes32)dyn_storage"
          },
          {
            "astId": 5684,
            "contract": "contracts/RubyMasterChef.sol:RubyMasterChef",
            "label": "_indexes",
            "offset": 0,
            "slot": "1",
            "type": "t_mapping(t_bytes32,t_uint256)"
          }
        ],
        "numberOfBytes": "64"
      },
      "t_struct(UserInfo)7426_storage": {
        "encoding": "inplace",
        "label": "struct RubyMasterChef.UserInfo",
        "members": [
          {
            "astId": 7423,
            "contract": "contracts/RubyMasterChef.sol:RubyMasterChef",
            "label": "amount",
            "offset": 0,
            "slot": "0",
            "type": "t_uint256"
          },
          {
            "astId": 7425,
            "contract": "contracts/RubyMasterChef.sol:RubyMasterChef",
            "label": "rewardDebt",
            "offset": 0,
            "slot": "1",
            "type": "t_uint256"
          }
        ],
        "numberOfBytes": "64"
      },
      "t_uint256": {
        "encoding": "inplace",
        "label": "uint256",
        "numberOfBytes": "32"
      }
    }
  }
}