{
  "address": "0x4A679253410272dd5232B3Ff7cF5dbB88f295319",
  "abi": [
    {
      "anonymous": false,
      "inputs": [
        {
          "indexed": false,
          "internalType": "uint256",
          "name": "maxSwapHops",
          "type": "uint256"
        }
      ],
      "name": "MaxSwapHopsSet",
      "type": "event"
    },
    {
      "anonymous": false,
      "inputs": [
        {
          "indexed": true,
          "internalType": "address",
          "name": "previousOwner",
          "type": "address"
        },
        {
          "indexed": true,
          "internalType": "address",
          "name": "newOwner",
          "type": "address"
        }
      ],
      "name": "OwnershipTransferred",
      "type": "event"
    },
    {
      "anonymous": false,
      "inputs": [
        {
          "indexed": true,
          "internalType": "contract ISwap",
          "name": "stablePool",
          "type": "address"
        }
      ],
      "name": "StablePoolDisabled",
      "type": "event"
    },
    {
      "anonymous": false,
      "inputs": [
        {
          "indexed": true,
          "internalType": "contract ISwap",
          "name": "stablePool",
          "type": "address"
        }
      ],
      "name": "StablePoolEnabled",
      "type": "event"
    },
    {
      "inputs": [],
      "name": "ammRouter",
      "outputs": [
        {
          "internalType": "contract IUniswapV2Router02",
          "name": "",
          "type": "address"
        }
      ],
      "stateMutability": "view",
      "type": "function"
    },
    {
      "inputs": [
        {
          "internalType": "contract ISwap",
          "name": "stablePool",
          "type": "address"
        }
      ],
      "name": "disableStablePool",
      "outputs": [],
      "stateMutability": "nonpayable",
      "type": "function"
    },
    {
      "inputs": [
        {
          "internalType": "contract ISwap",
          "name": "stablePool",
          "type": "address"
        }
      ],
      "name": "enableStablePool",
      "outputs": [],
      "stateMutability": "nonpayable",
      "type": "function"
    },
    {
      "inputs": [
        {
          "internalType": "contract ISwap",
          "name": "",
          "type": "address"
        }
      ],
      "name": "enabledStablePools",
      "outputs": [
        {
          "internalType": "bool",
          "name": "",
          "type": "bool"
        }
      ],
      "stateMutability": "view",
      "type": "function"
    },
    {
      "inputs": [
        {
          "internalType": "contract IUniswapV2Router02",
          "name": "ammRouter_",
          "type": "address"
        },
        {
          "internalType": "contract ISwap",
          "name": "stablePool",
          "type": "address"
        },
        {
          "internalType": "uint256",
          "name": "maxSwapHops_",
          "type": "uint256"
        }
      ],
      "name": "initialize",
      "outputs": [],
      "stateMutability": "nonpayable",
      "type": "function"
    },
    {
      "inputs": [],
      "name": "owner",
      "outputs": [
        {
          "internalType": "address",
          "name": "",
          "type": "address"
        }
      ],
      "stateMutability": "view",
      "type": "function"
    },
    {
      "inputs": [],
      "name": "renounceOwnership",
      "outputs": [],
      "stateMutability": "nonpayable",
      "type": "function"
    },
    {
      "inputs": [
        {
          "internalType": "uint256",
          "name": "maxSwapHops",
          "type": "uint256"
        }
      ],
      "name": "setMaxHops",
      "outputs": [],
      "stateMutability": "nonpayable",
      "type": "function"
    },
    {
      "inputs": [
        {
          "components": [
            {
              "components": [
                {
                  "internalType": "enum AMMSwapType",
                  "name": "swapType",
                  "type": "uint8"
                },
                {
                  "internalType": "uint256",
                  "name": "amountIn",
                  "type": "uint256"
                },
                {
                  "internalType": "uint256",
                  "name": "amountOut",
                  "type": "uint256"
                },
                {
                  "internalType": "address[]",
                  "name": "path",
                  "type": "address[]"
                },
                {
                  "internalType": "address",
                  "name": "to",
                  "type": "address"
                },
                {
                  "internalType": "uint256",
                  "name": "deadline",
                  "type": "uint256"
                }
              ],
              "internalType": "struct AMMSwapDetails[]",
              "name": "ammSwaps",
              "type": "tuple[]"
            },
            {
              "components": [
                {
                  "internalType": "address",
                  "name": "stablePool",
                  "type": "address"
                },
                {
                  "internalType": "uint8",
                  "name": "tokenIndexFrom",
                  "type": "uint8"
                },
                {
                  "internalType": "uint8",
                  "name": "tokenIndexTo",
                  "type": "uint8"
                },
                {
                  "internalType": "uint256",
                  "name": "dx",
                  "type": "uint256"
                },
                {
                  "internalType": "uint256",
                  "name": "minDy",
                  "type": "uint256"
                },
                {
                  "internalType": "uint256",
                  "name": "deadline",
                  "type": "uint256"
                }
              ],
              "internalType": "struct StableSwapDetails[]",
              "name": "stableSwaps",
              "type": "tuple[]"
            },
            {
              "internalType": "enum SwapType[]",
              "name": "order",
              "type": "uint8[]"
            }
          ],
          "internalType": "struct SwapDetails",
          "name": "swapDetails",
          "type": "tuple"
        }
      ],
      "name": "swap",
      "outputs": [
        {
          "internalType": "uint256",
          "name": "outputAmount",
          "type": "uint256"
        }
      ],
      "stateMutability": "nonpayable",
      "type": "function"
    },
    {
      "inputs": [
        {
          "internalType": "address",
          "name": "newOwner",
          "type": "address"
        }
      ],
      "name": "transferOwnership",
      "outputs": [],
      "stateMutability": "nonpayable",
      "type": "function"
    }
  ],
  "transactionHash": "0x581eadc7b3a9442bb963cd6795b0089c428e0a68113754a4e1368d3aa775fd90",
  "args": [],
  "solcInputHash": "acf860806122613f5e52c546156e2202",
  "bytecode": "0x608060405234801561001057600080fd5b50612d22806100206000396000f3fe608060405234801561001057600080fd5b506004361061009e5760003560e01c806390b3c4e71161006657806390b3c4e714610111578063a26f579614610119578063b8af6a5314610139578063c39b2e991461014c578063f2fde38b1461015f5761009e565b80631794bb3c146100a357806362ea3db2146100b8578063715018a6146100e15780637e29ca87146100e95780638da5cb5b146100fc575b600080fd5b6100b66100b136600461219e565b610172565b005b6100cb6100c63660046121fa565b6102be565b6040516100d89190612ac7565b60405180910390f35b6100b661061a565b6100b66100f73660046120b1565b6106a3565b610104610754565b6040516100d8919061239c565b610104610763565b61012c6101273660046120b1565b610772565b6040516100d89190612407565b6100b6610147366004612286565b610787565b6100b661015a3660046120b1565b6107eb565b6100b661016d3660046120b1565b610899565b600054610100900460ff168061018b575061018b61095a565b80610199575060005460ff16155b6101be5760405162461bcd60e51b81526004016101b590612836565b60405180910390fd5b600054610100900460ff161580156101e9576000805460ff1961ff0019909116610100171660011790555b6101f161096b565b6001600160a01b0384166102175760405162461bcd60e51b81526004016101b59061276a565b6001600160a01b03831661023d5760405162461bcd60e51b81526004016101b590612526565b8161025a5760405162461bcd60e51b81526004016101b5906126e3565b606580546001600160a01b0319166001600160a01b03861617905561027e836106a3565b6001600160a01b0383166000908152606660205260409020805460ff19166001179055606782905580156102b8576000805461ff00191690555b50505050565b6067546000906102d16040840184612b7c565b905011156102f15760405162461bcd60e51b81526004016101b5906129b9565b6103246040518060400160405280601281526020017129bbb0b83834b733903a37b5b2b73997171760711b8152506109fe565b61032d82610a41565b6103646040518060400160405280601681526020017524b7383aba103a37b5b2b7103430b7323632b217171760511b8152506109fe565b60008060005b6103776040860186612b7c565b905081101561059d57600061038f6040870187612b7c565b8381811061039957fe5b90506020020160208101906103ae91906121de565b60018111156103b957fe5b14806103fb575060016103cf6040870187612b7c565b838181106103d957fe5b90506020020160208101906103ee91906121de565b60018111156103f957fe5b145b6104175760405162461bcd60e51b81526004016101b5906124a9565b60006104266040870187612b7c565b8381811061043057fe5b905060200201602081019061044591906121de565b600181111561045057fe5b14156105075761048d604051806040016040528060168152602001752832b93337b936b4b7339030b6b69039bbb0b817171760511b8152506109fe565b6104bb61049a8680612b7c565b858181106104a457fe5b90506020028101906104b69190612c0a565b610ec9565b93506104fc6040518060400160405280602081526020017f416d6d207377617020646f6e652c206f757470757420616d6f756e743a2025738152508561111c565b600190920191610595565b6105456040518060400160405280601981526020017f506572666f726d696e6720737461626c6520737761702e2e2e000000000000008152506109fe565b61056a6105556020870187612bc3565b8481811061055f57fe5b905060c00201611165565b935061058e604051806060016040528060238152602001612cca602391398561111c565b6001909101905b60010161036a565b506105d4604051806040016040528060158152602001742430b7323634b7339037baba383aba103a37b5b2b760591b8152506109fe565b6105de848461131e565b6106136040518060400160405280601481526020017313dd5d1c1d5d081d1bdad95b881a185b991b195960621b8152506109fe565b5050919050565b61062261153e565b6001600160a01b0316610633610754565b6001600160a01b0316146106595760405162461bcd60e51b81526004016101b5906128cc565b6033546040516000916001600160a01b0316907f8be0079c531659141344cd1fd0a4f28419497f9722a3daafe3b4186f6b6457e0908390a3603380546001600160a01b0319169055565b6106ab61153e565b6001600160a01b03166106bc610754565b6001600160a01b0316146106e25760405162461bcd60e51b81526004016101b5906128cc565b6001600160a01b0381166107085760405162461bcd60e51b81526004016101b590612660565b6001600160a01b038116600081815260666020526040808220805460ff19166001179055517f763ba138b73b63a43de614b1d4efd85711b3240cdb9c79a0a6a67647a95c4a319190a250565b6033546001600160a01b031690565b6065546001600160a01b031681565b60666020526000908152604090205460ff1681565b61078f61153e565b6001600160a01b03166107a0610754565b6001600160a01b0316146107c65760405162461bcd60e51b81526004016101b5906128cc565b600081116107e65760405162461bcd60e51b81526004016101b590612a85565b606755565b6107f361153e565b6001600160a01b0316610804610754565b6001600160a01b03161461082a5760405162461bcd60e51b81526004016101b5906128cc565b6001600160a01b0381166108505760405162461bcd60e51b81526004016101b590612660565b6001600160a01b038116600081815260666020526040808220805460ff19169055517f62825d4e3dc47438cdd2a3014131db621a70e653474b90da2dd00d8ddb90bfca9190a250565b6108a161153e565b6001600160a01b03166108b2610754565b6001600160a01b0316146108d85760405162461bcd60e51b81526004016101b5906128cc565b6001600160a01b0381166108fe5760405162461bcd60e51b81526004016101b5906124e0565b6033546040516001600160a01b038084169216907f8be0079c531659141344cd1fd0a4f28419497f9722a3daafe3b4186f6b6457e090600090a3603380546001600160a01b0319166001600160a01b0392909216919091179055565b600061096530611542565b15905090565b600054610100900460ff1680610984575061098461095a565b80610992575060005460ff16155b6109ae5760405162461bcd60e51b81526004016101b590612836565b600054610100900460ff161580156109d9576000805460ff1961ff0019909116610100171660011790555b6109e1611548565b6109e96115c9565b80156109fb576000805461ff00191690555b50565b6109fb81604051602401610a129190612412565b60408051601f198184030181529190526020810180516001600160e01b031663104c13eb60e21b1790526116a3565b60008080610a526040850185612b7c565b6000818110610a5d57fe5b9050602002016020810190610a7291906121de565b6001811115610a7d57fe5b1415610d755760606000610a918580612b7c565b6000818110610a9c57fe5b9050602002810190610aae9190612c0a565b610abc9060208101906121de565b6001811115610ac757fe5b1415610be9576065546040805163c45a015560e01b81529051610be2926001600160a01b03169163c45a0155916004808301926020929190829003018186803b158015610b1357600080fd5b505afa158015610b27573d6000803e3d6000fd5b505050506040513d601f19601f82011682018060405250810190610b4b91906120cd565b610b558680612b7c565b6000818110610b6057fe5b9050602002810190610b729190612c0a565b60200135610b808780612b7c565b6000818110610b8b57fe5b9050602002810190610b9d9190612c0a565b610bab906060810190612b7c565b808060200260200160405190810160405280939291908181526020018383602002808284376000920191909152506116c492505050565b9050610d01565b6065546040805163c45a015560e01b81529051610cfe926001600160a01b03169163c45a0155916004808301926020929190829003018186803b158015610c2f57600080fd5b505afa158015610c43573d6000803e3d6000fd5b505050506040513d601f19601f82011682018060405250810190610c6791906120cd565b610c718680612b7c565b6000818110610c7c57fe5b9050602002810190610c8e9190612c0a565b60400135610c9c8780612b7c565b6000818110610ca757fe5b9050602002810190610cb99190612c0a565b610cc7906060810190612b7c565b808060200260200160405190810160405280939291908181526020018383602002808284376000920191909152506117db92505050565b90505b610d0b8480612b7c565b6000818110610d1657fe5b9050602002810190610d289190612c0a565b610d36906060810190612b7c565b6000818110610d4157fe5b9050602002016020810190610d5691906120b1565b925080600081518110610d6557fe5b6020026020010151915050610eb3565b6000610d846020850185612bc3565b6000818110610d8f57fe5b610da592602060c09092020190810191506120b1565b6001600160a01b03811660009081526066602052604090205490915060ff16610de05760405162461bcd60e51b81526004016101b590612901565b6001600160a01b0381166382b86600610dfc6020870187612bc3565b6000818110610e0757fe5b905060c002016020016020810190610e1f91906122b6565b6040518263ffffffff1660e01b8152600401610e3b9190612b43565b60206040518083038186803b158015610e5357600080fd5b505afa158015610e67573d6000803e3d6000fd5b505050506040513d601f19601f82011682018060405250810190610e8b91906120cd565b9250610e9a6020850185612bc3565b6000818110610ea557fe5b905060c00201606001359150505b816102b86001600160a01b0382163330856118de565b600080610ed960208401846121de565b6001811115610ee457fe5b1480610f0757506001610efa60208401846121de565b6001811115610f0557fe5b145b610f235760405162461bcd60e51b81526004016101b5906125d3565b6060610f6a610f3484830185612b7c565b6000818110610f3f57fe5b9050602002016020810190610f5491906120b1565b6065546001600160a01b03166020860135611936565b6000610f7960208501856121de565b6001811115610f8457fe5b1415611045576065546001600160a01b03166338ed173960208501356040860135610fb26060880188612b7c565b610fc260a08a0160808b016120b1565b8960a001356040518763ffffffff1660e01b8152600401610fe896959493929190612ad0565b600060405180830381600087803b15801561100257600080fd5b505af1158015611016573d6000803e3d6000fd5b505050506040513d6000823e601f3d908101601f1916820160405261103e91908101906120e9565b90506110fc565b6065546001600160a01b0316634a25d94a6040850135602086013561106d6060880188612b7c565b61107d60a08a0160808b016120b1565b8960a001356040518763ffffffff1660e01b81526004016110a396959493929190612ad0565b600060405180830381600087803b1580156110bd57600080fd5b505af11580156110d1573d6000803e3d6000fd5b505050506040513d6000823e601f3d908101601f191682016040526110f991908101906120e9565b90505b8060018251038151811061110c57fe5b6020026020010151915050919050565b6111618282604051602401611132929190612425565b60408051601f198184030181529190526020810180516001600160e01b03166309710a9d60e41b1790526116a3565b5050565b60008061117560208401846120b1565b6001600160a01b03811660009081526066602052604090205490915060ff166111b05760405162461bcd60e51b81526004016101b590612901565b60006001600160a01b0382166382b866006111d160408701602088016122b6565b6040518263ffffffff1660e01b81526004016111ed9190612b43565b60206040518083038186803b15801561120557600080fd5b505afa158015611219573d6000803e3d6000fd5b505050506040513d601f19601f8201168201806040525081019061123d91906120cd565b905061125a8161125060208701876120b1565b8660600135611936565b61126760208501856120b1565b6001600160a01b0316639169558661128560408701602088016122b6565b61129560608801604089016122b6565b876060013588608001358960a001356040518663ffffffff1660e01b81526004016112c4959493929190612b51565b602060405180830381600087803b1580156112de57600080fd5b505af11580156112f2573d6000803e3d6000fd5b505050506040513d601f19601f82011682018060405250810190611316919061229e565b949350505050565b60008060016113306040860186612b7c565b919091039150600090506113476040860186612b7c565b8381811061135157fe5b905060200201602081019061136691906121de565b600181111561137157fe5b141561142957600060016113858680612b7c565b91909103915060009050600161139b8780612b7c565b848181106113a557fe5b90506020028101906113b79190612c0a565b6113c5906060810190612b7c565b9190910391506113d790508680612b7c565b838181106113e157fe5b90506020028101906113f39190612c0a565b611401906060810190612b7c565b8281811061140b57fe5b905060200201602081019061142091906120b1565b93505050611522565b6000600161143a6020870187612bc3565b905003905060008580602001906114519190612bc3565b8381811061145b57fe5b61147192602060c09092020190810191506120b1565b90506001600160a01b0381166382b8660061148f6020890189612bc3565b8581811061149957fe5b905060c0020160400160208101906114b191906122b6565b6040518263ffffffff1660e01b81526004016114cd9190612b43565b60206040518083038186803b1580156114e557600080fd5b505afa1580156114f9573d6000803e3d6000fd5b505050506040513d601f19601f8201168201806040525081019061151d91906120cd565b935050505b816115376001600160a01b0382163386611a4a565b5050505050565b3390565b3b151590565b600054610100900460ff1680611561575061156161095a565b8061156f575060005460ff16155b61158b5760405162461bcd60e51b81526004016101b590612836565b600054610100900460ff161580156109e9576000805460ff1961ff00199091166101001716600117905580156109fb576000805461ff001916905550565b600054610100900460ff16806115e257506115e261095a565b806115f0575060005460ff16155b61160c5760405162461bcd60e51b81526004016101b590612836565b600054610100900460ff16158015611637576000805460ff1961ff0019909116610100171660011790555b600061164161153e565b603380546001600160a01b0319166001600160a01b038316908117909155604051919250906000907f8be0079c531659141344cd1fd0a4f28419497f9722a3daafe3b4186f6b6457e0908290a35080156109fb576000805461ff001916905550565b80516a636f6e736f6c652e6c6f67602083016000808483855afa5050505050565b60606002825110156116e85760405162461bcd60e51b81526004016101b5906127ff565b815167ffffffffffffffff8111801561170057600080fd5b5060405190808252806020026020018201604052801561172a578160200160208202803683370190505b509050828160008151811061173b57fe5b60200260200101818152505060005b60018351038110156117d35760008061178d8786858151811061176957fe5b602002602001015187866001018151811061178057fe5b6020026020010151611a6e565b915091506117af8484815181106117a057fe5b60200260200101518383611b47565b8484600101815181106117be57fe5b6020908102919091010152505060010161174a565b509392505050565b60606002825110156117ff5760405162461bcd60e51b81526004016101b5906127ff565b815167ffffffffffffffff8111801561181757600080fd5b50604051908082528060200260200182016040528015611841578160200160208202803683370190505b509050828160018351038151811061185557fe5b60209081029190910101528151600019015b80156117d3576000806118978786600186038151811061188357fe5b602002602001015187868151811061178057fe5b915091506118b98484815181106118aa57fe5b60200260200101518383611be1565b8460018503815181106118c857fe5b6020908102919091010152505060001901611867565b6102b8846323b872dd60e01b8585856040516024016118ff939291906123ca565b60408051601f198184030181529190526020810180516001600160e01b03166001600160e01b031990931692909217909152611c7b565b604051636eb1769f60e11b815283906000906001600160a01b0383169063dd62ed3e9061196990309088906004016123b0565b60206040518083038186803b15801561198157600080fd5b505afa158015611995573d6000803e3d6000fd5b505050506040513d601f19601f820116820180604052508101906119b9919061229e565b90506119f0604051806040016040528060128152602001713a37b5b2b71030b63637bbb0b731b297171760711b8152508286611d0a565b8281101561153757611a366040518060400160405280601c81526020017f696e6372656173696e6720746f6b656e416c6c6f77616e63652e2e2e000000008152506109fe565b6115376001600160a01b0383168585611d51565b611a698363a9059cbb60e01b84846040516024016118ff9291906123ee565b505050565b6000806000611a7d8585611dfc565b509050600080611a8e888888611e86565b6001600160a01b0316630902f1ac6040518163ffffffff1660e01b815260040160606040518083038186803b158015611ac657600080fd5b505afa158015611ada573d6000803e3d6000fd5b505050506040513d601f19601f82011682018060405250810190611afe9190612232565b506001600160701b031691506001600160701b03169150826001600160a01b0316876001600160a01b031614611b35578082611b38565b81815b90999098509650505050505050565b6000808411611b685760405162461bcd60e51b81526004016101b590612a3a565b600083118015611b785750600082115b611b945760405162461bcd60e51b81526004016101b590612884565b6000611ba2856103e5611ef6565b90506000611bb08285611ef6565b90506000611bca83611bc4886103e8611ef6565b90611f33565b9050808281611bd557fe5b04979650505050505050565b6000808411611c025760405162461bcd60e51b81526004016101b590612614565b600083118015611c125750600082115b611c2e5760405162461bcd60e51b81526004016101b590612884565b6000611c466103e8611c408688611ef6565b90611ef6565b90506000611c5a6103e5611c408689611f56565b9050611c716001828481611c6a57fe5b0490611f33565b9695505050505050565b6060611cd0826040518060400160405280602081526020017f5361666545524332303a206c6f772d6c6576656c2063616c6c206661696c6564815250856001600160a01b0316611f799092919063ffffffff16565b805190915015611a695780806020019051810190611cee919061217e565b611a695760405162461bcd60e51b81526004016101b5906129f0565b611a69838383604051602401611d2293929190612447565b60408051601f198184030181529190526020810180516001600160e01b031663e3849f7960e01b1790526116a3565b6000611ddb82856001600160a01b031663dd62ed3e30876040518363ffffffff1660e01b8152600401611d859291906123b0565b60206040518083038186803b158015611d9d57600080fd5b505afa158015611db1573d6000803e3d6000fd5b505050506040513d601f19601f82011682018060405250810190611dd5919061229e565b90611f92565b90506102b88463095ea7b360e01b85846040516024016118ff9291906123ee565b600080826001600160a01b0316846001600160a01b03161415611e315760405162461bcd60e51b81526004016101b590612725565b826001600160a01b0316846001600160a01b031610611e51578284611e54565b83835b90925090506001600160a01b038216611e7f5760405162461bcd60e51b81526004016101b590612982565b9250929050565b6000806000611e958585611dfc565b91509150858282604051602001611ead929190612303565b60405160208183030381529060405280519060200120604051602001611ed4929190612346565b60408051601f1981840301815291905280516020909101209695505050505050565b6000811580611f1157505080820282828281611f0e57fe5b04145b611f2d5760405162461bcd60e51b81526004016101b59061256e565b92915050565b80820182811015611f2d5760405162461bcd60e51b81526004016101b5906126b5565b80820382811115611f2d5760405162461bcd60e51b81526004016101b59061247a565b6060611f888484600085611fb7565b90505b9392505050565b600082820183811015611f8b5760405162461bcd60e51b81526004016101b59061259c565b606082471015611fd95760405162461bcd60e51b81526004016101b5906127b9565b611fe285611542565b611ffe5760405162461bcd60e51b81526004016101b59061294b565b60006060866001600160a01b0316858760405161201b919061232a565b60006040518083038185875af1925050503d8060008114612058576040519150601f19603f3d011682016040523d82523d6000602084013e61205d565b606091505b509150915061206d828286612078565b979650505050505050565b60608315612087575081611f8b565b8251156120975782518084602001fd5b8160405162461bcd60e51b81526004016101b59190612412565b6000602082840312156120c2578081fd5b8135611f8b81612c92565b6000602082840312156120de578081fd5b8151611f8b81612c92565b600060208083850312156120fb578182fd5b825167ffffffffffffffff811115612111578283fd5b8301601f81018513612121578283fd5b805161213461212f82612c46565b612c1f565b8181528381019083850185840285018601891015612150578687fd5b8694505b83851015612172578051835260019490940193918501918501612154565b50979650505050505050565b60006020828403121561218f578081fd5b81518015158114611f8b578182fd5b6000806000606084860312156121b2578182fd5b83356121bd81612c92565b925060208401356121cd81612c92565b929592945050506040919091013590565b6000602082840312156121ef578081fd5b8135611f8b81612ca7565b60006020828403121561220b578081fd5b813567ffffffffffffffff811115612221578182fd5b820160608185031215611f8b578182fd5b600080600060608486031215612246578283fd5b835161225181612cb4565b602085015190935061226281612cb4565b604085015190925063ffffffff8116811461227b578182fd5b809150509250925092565b600060208284031215612297578081fd5b5035919050565b6000602082840312156122af578081fd5b5051919050565b6000602082840312156122c7578081fd5b813560ff81168114611f8b578182fd5b600081518084526122ef816020860160208601612c66565b601f01601f19169290920160200192915050565b6bffffffffffffffffffffffff19606093841b811682529190921b16601482015260280190565b6000825161233c818460208701612c66565b9190910192915050565b6001600160f81b0319815260609290921b6bffffffffffffffffffffffff1916600183015260158201527f0a7459fd509713423fae10bc598e33f725397f71fd0785bbecc2a4745e162beb603582015260550190565b6001600160a01b0391909116815260200190565b6001600160a01b0392831681529116602082015260400190565b6001600160a01b039384168152919092166020820152604081019190915260600190565b6001600160a01b03929092168252602082015260400190565b901515815260200190565b600060208252611f8b60208301846122d7565b60006040825261243860408301856122d7565b90508260208301529392505050565b60006060825261245a60608301866122d7565b6020830194909452506001600160a01b0391909116604090910152919050565b60208082526015908201527464732d6d6174682d7375622d756e646572666c6f7760581b604082015260600190565b6020808252601d908201527f52756279526f757465723a20496e76616c696420737761702074797065000000604082015260600190565b60208082526026908201527f4f776e61626c653a206e6577206f776e657220697320746865207a65726f206160408201526564647265737360d01b606082015260800190565b60208082526028908201527f52756279526f757465723a20496e76616c696420537461626c6520506f6f6c2060408201526730b2323932b9b99760c11b606082015260800190565b60208082526014908201527364732d6d6174682d6d756c2d6f766572666c6f7760601b604082015260600190565b6020808252601b908201527f536166654d6174683a206164646974696f6e206f766572666c6f770000000000604082015260600190565b60208082526021908201527f52756279526f757465723a20496e76616c696420414d4d2073776170207479706040820152606560f81b606082015260800190565b6020808252602c908201527f556e697377617056324c6962726172793a20494e53554646494349454e545f4f60408201526b155514155517d05353d5539560a21b606082015260800190565b60208082526035908201527f52756279526f757465723a2054686520737461626c65506f6f6c2063616e6e6f6040820152747420626520746865207a65726f206164647265737360581b606082015260800190565b60208082526014908201527364732d6d6174682d6164642d6f766572666c6f7760601b604082015260600190565b60208082526022908201527f52756279526f757465723a20496e76616c6964206d6178207377617020686f70604082015261399760f11b606082015260800190565b60208082526025908201527f556e697377617056324c6962726172793a204944454e544943414c5f41444452604082015264455353455360d81b606082015260800190565b6020808252602f908201527f52756279526f757465723a20496e76616c696420414d4d20726f75746572206160408201526e32323932b9b99030b2323932b9b99760891b606082015260800190565b60208082526026908201527f416464726573733a20696e73756666696369656e742062616c616e636520666f6040820152651c8818d85b1b60d21b606082015260800190565b6020808252601e908201527f556e697377617056324c6962726172793a20494e56414c49445f504154480000604082015260600190565b6020808252602e908201527f496e697469616c697a61626c653a20636f6e747261637420697320616c72656160408201526d191e481a5b9a5d1a585b1a5e995960921b606082015260800190565b60208082526028908201527f556e697377617056324c6962726172793a20494e53554646494349454e545f4c604082015267495155494449545960c01b606082015260800190565b6020808252818101527f4f776e61626c653a2063616c6c6572206973206e6f7420746865206f776e6572604082015260600190565b6020808252602a908201527f52756279526f757465723a2054686520737461626c6520706f6f6c206973206e6040820152691bdd08195b98589b195960b21b606082015260800190565b6020808252601d908201527f416464726573733a2063616c6c20746f206e6f6e2d636f6e7472616374000000604082015260600190565b6020808252601e908201527f556e697377617056324c6962726172793a205a45524f5f414444524553530000604082015260600190565b6020808252601c908201527f496e76616c6964206e756d626572206f6620737761702063616c6c7300000000604082015260600190565b6020808252602a908201527f5361666545524332303a204552433230206f7065726174696f6e20646964206e6040820152691bdd081cdd58d8d9595960b21b606082015260800190565b6020808252602b908201527f556e697377617056324c6962726172793a20494e53554646494349454e545f4960408201526a1394155517d05353d5539560aa1b606082015260800190565b60208082526022908201527f52756279526f757465723a20496e76616c6964206d6178207377617020686f70604082015261733b60f01b606082015260800190565b90815260200190565b868152602080820187905260a0604083018190528201859052600090869060c08401835b88811015612b22578335612b0781612c92565b6001600160a01b031682529282019290820190600101612af4565b506001600160a01b0396909616606085015250505060800152949350505050565b60ff91909116815260200190565b60ff958616815293909416602084015260408301919091526060820152608081019190915260a00190565b6000808335601e19843603018112612b92578283fd5b83018035915067ffffffffffffffff821115612bac578283fd5b6020908101925081023603821315611e7f57600080fd5b6000808335601e19843603018112612bd9578283fd5b83018035915067ffffffffffffffff821115612bf3578283fd5b602001915060c081023603821315611e7f57600080fd5b6000823560be1983360301811261233c578182fd5b60405181810167ffffffffffffffff81118282101715612c3e57600080fd5b604052919050565b600067ffffffffffffffff821115612c5c578081fd5b5060209081020190565b60005b83811015612c81578181015183820152602001612c69565b838111156102b85750506000910152565b6001600160a01b03811681146109fb57600080fd5b600281106109fb57600080fd5b6001600160701b03811681146109fb57600080fdfe537461626c65207377617020646f6e652c206f757470757420616d6f756e743a202573a264697066735822122035c57e4deb0aa08f7e57f1d6860e1051dc40c7543e0eadfd875326199cbd67c564736f6c634300060c0033",
  "devdoc": {
    "kind": "dev",
    "methods": {
      "owner()": {
        "details": "Returns the address of the current owner."
      },
      "renounceOwnership()": {
        "details": "Leaves the contract without owner. It will not be possible to call `onlyOwner` functions anymore. Can only be called by the current owner. NOTE: Renouncing ownership will leave the contract without an owner, thereby removing any functionality that is only available to the owner."
      },
      "transferOwnership(address)": {
        "details": "Transfers ownership of the contract to a new account (`newOwner`). Can only be called by the current owner."
      }
    },
    "version": 1
  },
  "userdoc": {
    "kind": "user",
    "methods": {},
    "version": 1
  },
  "storageLayout": {
    "storage": [
      {
        "astId": 618,
        "contract": "contracts/ruby_router/RubyRouter.sol:RubyRouter",
        "label": "_initialized",
        "offset": 0,
        "slot": "0",
        "type": "t_bool"
      },
      {
        "astId": 621,
        "contract": "contracts/ruby_router/RubyRouter.sol:RubyRouter",
        "label": "_initializing",
        "offset": 1,
        "slot": "0",
        "type": "t_bool"
      },
      {
        "astId": 1657,
        "contract": "contracts/ruby_router/RubyRouter.sol:RubyRouter",
        "label": "__gap",
        "offset": 0,
        "slot": "1",
        "type": "t_array(t_uint256)50_storage"
      },
      {
        "astId": 136,
        "contract": "contracts/ruby_router/RubyRouter.sol:RubyRouter",
        "label": "_owner",
        "offset": 0,
        "slot": "51",
        "type": "t_address"
      },
      {
        "astId": 255,
        "contract": "contracts/ruby_router/RubyRouter.sol:RubyRouter",
        "label": "__gap",
        "offset": 0,
        "slot": "52",
        "type": "t_array(t_uint256)49_storage"
      },
      {
        "astId": 16752,
        "contract": "contracts/ruby_router/RubyRouter.sol:RubyRouter",
        "label": "ammRouter",
        "offset": 0,
        "slot": "101",
        "type": "t_contract(IUniswapV2Router02)14068"
      },
      {
        "astId": 16756,
        "contract": "contracts/ruby_router/RubyRouter.sol:RubyRouter",
        "label": "enabledStablePools",
        "offset": 0,
        "slot": "102",
        "type": "t_mapping(t_contract(ISwap)22597,t_bool)"
      },
      {
        "astId": 16758,
        "contract": "contracts/ruby_router/RubyRouter.sol:RubyRouter",
        "label": "_maxSwapHops",
        "offset": 0,
        "slot": "103",
        "type": "t_uint256"
      }
    ],
    "types": {
      "t_address": {
        "encoding": "inplace",
        "label": "address",
        "numberOfBytes": "20"
      },
      "t_array(t_uint256)49_storage": {
        "base": "t_uint256",
        "encoding": "inplace",
        "label": "uint256[49]",
        "numberOfBytes": "1568"
      },
      "t_array(t_uint256)50_storage": {
        "base": "t_uint256",
        "encoding": "inplace",
        "label": "uint256[50]",
        "numberOfBytes": "1600"
      },
      "t_bool": {
        "encoding": "inplace",
        "label": "bool",
        "numberOfBytes": "1"
      },
      "t_contract(ISwap)22597": {
        "encoding": "inplace",
        "label": "contract ISwap",
        "numberOfBytes": "20"
      },
      "t_contract(IUniswapV2Router02)14068": {
        "encoding": "inplace",
        "label": "contract IUniswapV2Router02",
        "numberOfBytes": "20"
      },
      "t_mapping(t_contract(ISwap)22597,t_bool)": {
        "encoding": "mapping",
        "key": "t_contract(ISwap)22597",
        "label": "mapping(contract ISwap => bool)",
        "numberOfBytes": "32",
        "value": "t_bool"
      },
      "t_uint256": {
        "encoding": "inplace",
        "label": "uint256",
        "numberOfBytes": "32"
      }
    }
  }
}