{
  "address": "0xe7f1725E7734CE288F8367e1Bb143E90bb3F0512",
  "abi": [
    {
      "inputs": [
        {
          "internalType": "contract IERC20",
          "name": "_ruby",
          "type": "address"
        },
        {
          "internalType": "address",
          "name": "_treasuryAddr",
          "type": "address"
        },
        {
          "internalType": "uint256",
          "name": "_rubyPerSec",
          "type": "uint256"
        },
        {
          "internalType": "uint256",
          "name": "_startTimestamp",
          "type": "uint256"
        },
        {
          "internalType": "uint256",
          "name": "_treasuryPercent",
          "type": "uint256"
        }
      ],
      "stateMutability": "nonpayable",
      "type": "constructor"
    },
    {
      "anonymous": false,
      "inputs": [
        {
          "indexed": true,
          "internalType": "uint256",
          "name": "pid",
          "type": "uint256"
        },
        {
          "indexed": false,
          "internalType": "uint256",
          "name": "allocPoint",
          "type": "uint256"
        },
        {
          "indexed": true,
          "internalType": "contract IERC20",
          "name": "lpToken",
          "type": "address"
        },
        {
          "indexed": true,
          "internalType": "contract IRubyMasterChefRewarder",
          "name": "rewarder",
          "type": "address"
        }
      ],
      "name": "Add",
      "type": "event"
    },
    {
      "anonymous": false,
      "inputs": [
        {
          "indexed": true,
          "internalType": "address",
          "name": "user",
          "type": "address"
        },
        {
          "indexed": true,
          "internalType": "uint256",
          "name": "pid",
          "type": "uint256"
        },
        {
          "indexed": false,
          "internalType": "uint256",
          "name": "amount",
          "type": "uint256"
        }
      ],
      "name": "Deposit",
      "type": "event"
    },
    {
      "anonymous": false,
      "inputs": [
        {
          "indexed": true,
          "internalType": "address",
          "name": "user",
          "type": "address"
        },
        {
          "indexed": true,
          "internalType": "uint256",
          "name": "pid",
          "type": "uint256"
        },
        {
          "indexed": false,
          "internalType": "uint256",
          "name": "amount",
          "type": "uint256"
        }
      ],
      "name": "EmergencyWithdraw",
      "type": "event"
    },
    {
      "anonymous": false,
      "inputs": [
        {
          "indexed": true,
          "internalType": "address",
          "name": "user",
          "type": "address"
        },
        {
          "indexed": true,
          "internalType": "uint256",
          "name": "pid",
          "type": "uint256"
        },
        {
          "indexed": false,
          "internalType": "uint256",
          "name": "amount",
          "type": "uint256"
        }
      ],
      "name": "Harvest",
      "type": "event"
    },
    {
      "anonymous": false,
      "inputs": [
        {
          "indexed": true,
          "internalType": "address",
          "name": "previousOwner",
          "type": "address"
        },
        {
          "indexed": true,
          "internalType": "address",
          "name": "newOwner",
          "type": "address"
        }
      ],
      "name": "OwnershipTransferred",
      "type": "event"
    },
    {
      "anonymous": false,
      "inputs": [
        {
          "indexed": true,
          "internalType": "address",
          "name": "to",
          "type": "address"
        },
        {
          "indexed": false,
          "internalType": "uint256",
          "name": "amount",
          "type": "uint256"
        }
      ],
      "name": "RubyEmergencyWithdrawal",
      "type": "event"
    },
    {
      "anonymous": false,
      "inputs": [
        {
          "indexed": true,
          "internalType": "uint256",
          "name": "pid",
          "type": "uint256"
        },
        {
          "indexed": false,
          "internalType": "uint256",
          "name": "allocPoint",
          "type": "uint256"
        },
        {
          "indexed": true,
          "internalType": "contract IRubyMasterChefRewarder",
          "name": "rewarder",
          "type": "address"
        },
        {
          "indexed": false,
          "internalType": "bool",
          "name": "overwrite",
          "type": "bool"
        }
      ],
      "name": "Set",
      "type": "event"
    },
    {
      "anonymous": false,
      "inputs": [
        {
          "indexed": true,
          "internalType": "address",
          "name": "oldAddress",
          "type": "address"
        },
        {
          "indexed": true,
          "internalType": "address",
          "name": "newAddress",
          "type": "address"
        }
      ],
      "name": "SetTreasuryAddress",
      "type": "event"
    },
    {
      "anonymous": false,
      "inputs": [
        {
          "indexed": false,
          "internalType": "uint256",
          "name": "newPercent",
          "type": "uint256"
        }
      ],
      "name": "SetTreasuryPercent",
      "type": "event"
    },
    {
      "anonymous": false,
      "inputs": [
        {
          "indexed": true,
          "internalType": "address",
          "name": "user",
          "type": "address"
        },
        {
          "indexed": false,
          "internalType": "uint256",
          "name": "_rubyPerSec",
          "type": "uint256"
        }
      ],
      "name": "UpdateEmissionRate",
      "type": "event"
    },
    {
      "anonymous": false,
      "inputs": [
        {
          "indexed": true,
          "internalType": "uint256",
          "name": "pid",
          "type": "uint256"
        },
        {
          "indexed": false,
          "internalType": "uint256",
          "name": "lastRewardTimestamp",
          "type": "uint256"
        },
        {
          "indexed": false,
          "internalType": "uint256",
          "name": "lpSupply",
          "type": "uint256"
        },
        {
          "indexed": false,
          "internalType": "uint256",
          "name": "accRubyPerShare",
          "type": "uint256"
        }
      ],
      "name": "UpdatePool",
      "type": "event"
    },
    {
      "anonymous": false,
      "inputs": [
        {
          "indexed": true,
          "internalType": "address",
          "name": "user",
          "type": "address"
        },
        {
          "indexed": true,
          "internalType": "uint256",
          "name": "pid",
          "type": "uint256"
        },
        {
          "indexed": false,
          "internalType": "uint256",
          "name": "amount",
          "type": "uint256"
        }
      ],
      "name": "Withdraw",
      "type": "event"
    },
    {
      "inputs": [],
      "name": "RUBY",
      "outputs": [
        {
          "internalType": "contract IERC20",
          "name": "",
          "type": "address"
        }
      ],
      "stateMutability": "view",
      "type": "function"
    },
    {
      "inputs": [
        {
          "internalType": "uint256",
          "name": "_allocPoint",
          "type": "uint256"
        },
        {
          "internalType": "contract IERC20",
          "name": "_lpToken",
          "type": "address"
        },
        {
          "internalType": "contract IRubyMasterChefRewarder",
          "name": "_rewarder",
          "type": "address"
        }
      ],
      "name": "add",
      "outputs": [],
      "stateMutability": "nonpayable",
      "type": "function"
    },
    {
      "inputs": [
        {
          "internalType": "uint256",
          "name": "_pid",
          "type": "uint256"
        },
        {
          "internalType": "uint256",
          "name": "_amount",
          "type": "uint256"
        }
      ],
      "name": "deposit",
      "outputs": [],
      "stateMutability": "nonpayable",
      "type": "function"
    },
    {
      "inputs": [
        {
          "internalType": "uint256",
          "name": "_pid",
          "type": "uint256"
        }
      ],
      "name": "emergencyWithdraw",
      "outputs": [],
      "stateMutability": "nonpayable",
      "type": "function"
    },
    {
      "inputs": [
        {
          "internalType": "address",
          "name": "to",
          "type": "address"
        },
        {
          "internalType": "uint256",
          "name": "amount",
          "type": "uint256"
        }
      ],
      "name": "emergencyWithdrawRubyTokens",
      "outputs": [],
      "stateMutability": "nonpayable",
      "type": "function"
    },
    {
      "inputs": [],
      "name": "massUpdatePools",
      "outputs": [],
      "stateMutability": "nonpayable",
      "type": "function"
    },
    {
      "inputs": [],
      "name": "owner",
      "outputs": [
        {
          "internalType": "address",
          "name": "",
          "type": "address"
        }
      ],
      "stateMutability": "view",
      "type": "function"
    },
    {
      "inputs": [
        {
          "internalType": "uint256",
          "name": "_pid",
          "type": "uint256"
        },
        {
          "internalType": "address",
          "name": "_user",
          "type": "address"
        }
      ],
      "name": "pendingTokens",
      "outputs": [
        {
          "internalType": "uint256",
          "name": "pendingRuby",
          "type": "uint256"
        },
        {
          "internalType": "address",
          "name": "bonusTokenAddress",
          "type": "address"
        },
        {
          "internalType": "string",
          "name": "bonusTokenSymbol",
          "type": "string"
        },
        {
          "internalType": "uint256",
          "name": "pendingBonusToken",
          "type": "uint256"
        }
      ],
      "stateMutability": "view",
      "type": "function"
    },
    {
      "inputs": [
        {
          "internalType": "uint256",
          "name": "",
          "type": "uint256"
        }
      ],
      "name": "poolInfo",
      "outputs": [
        {
          "internalType": "contract IERC20",
          "name": "lpToken",
          "type": "address"
        },
        {
          "internalType": "uint256",
          "name": "allocPoint",
          "type": "uint256"
        },
        {
          "internalType": "uint256",
          "name": "lastRewardTimestamp",
          "type": "uint256"
        },
        {
          "internalType": "uint256",
          "name": "accRubyPerShare",
          "type": "uint256"
        },
        {
          "internalType": "contract IRubyMasterChefRewarder",
          "name": "rewarder",
          "type": "address"
        }
      ],
      "stateMutability": "view",
      "type": "function"
    },
    {
      "inputs": [],
      "name": "poolLength",
      "outputs": [
        {
          "internalType": "uint256",
          "name": "",
          "type": "uint256"
        }
      ],
      "stateMutability": "view",
      "type": "function"
    },
    {
      "inputs": [],
      "name": "renounceOwnership",
      "outputs": [],
      "stateMutability": "nonpayable",
      "type": "function"
    },
    {
      "inputs": [
        {
          "internalType": "uint256",
          "name": "_pid",
          "type": "uint256"
        }
      ],
      "name": "rewarderBonusTokenInfo",
      "outputs": [
        {
          "internalType": "address",
          "name": "bonusTokenAddress",
          "type": "address"
        },
        {
          "internalType": "string",
          "name": "bonusTokenSymbol",
          "type": "string"
        }
      ],
      "stateMutability": "view",
      "type": "function"
    },
    {
      "inputs": [],
      "name": "rubyPerSec",
      "outputs": [
        {
          "internalType": "uint256",
          "name": "",
          "type": "uint256"
        }
      ],
      "stateMutability": "view",
      "type": "function"
    },
    {
      "inputs": [
        {
          "internalType": "uint256",
          "name": "_pid",
          "type": "uint256"
        },
        {
          "internalType": "uint256",
          "name": "_allocPoint",
          "type": "uint256"
        },
        {
          "internalType": "contract IRubyMasterChefRewarder",
          "name": "_rewarder",
          "type": "address"
        },
        {
          "internalType": "bool",
          "name": "overwrite",
          "type": "bool"
        }
      ],
      "name": "set",
      "outputs": [],
      "stateMutability": "nonpayable",
      "type": "function"
    },
    {
      "inputs": [
        {
          "internalType": "address",
          "name": "_treasuryAddr",
          "type": "address"
        }
      ],
      "name": "setTreasuryAddr",
      "outputs": [],
      "stateMutability": "nonpayable",
      "type": "function"
    },
    {
      "inputs": [
        {
          "internalType": "uint256",
          "name": "_newTreasuryPercent",
          "type": "uint256"
        }
      ],
      "name": "setTreasuryPercent",
      "outputs": [],
      "stateMutability": "nonpayable",
      "type": "function"
    },
    {
      "inputs": [],
      "name": "startTimestamp",
      "outputs": [
        {
          "internalType": "uint256",
          "name": "",
          "type": "uint256"
        }
      ],
      "stateMutability": "view",
      "type": "function"
    },
    {
      "inputs": [],
      "name": "totalAllocPoint",
      "outputs": [
        {
          "internalType": "uint256",
          "name": "",
          "type": "uint256"
        }
      ],
      "stateMutability": "view",
      "type": "function"
    },
    {
      "inputs": [
        {
          "internalType": "address",
          "name": "newOwner",
          "type": "address"
        }
      ],
      "name": "transferOwnership",
      "outputs": [],
      "stateMutability": "nonpayable",
      "type": "function"
    },
    {
      "inputs": [],
      "name": "treasuryAddr",
      "outputs": [
        {
          "internalType": "address",
          "name": "",
          "type": "address"
        }
      ],
      "stateMutability": "view",
      "type": "function"
    },
    {
      "inputs": [],
      "name": "treasuryPercent",
      "outputs": [
        {
          "internalType": "uint256",
          "name": "",
          "type": "uint256"
        }
      ],
      "stateMutability": "view",
      "type": "function"
    },
    {
      "inputs": [
        {
          "internalType": "uint256",
          "name": "_rubyPerSec",
          "type": "uint256"
        }
      ],
      "name": "updateEmissionRate",
      "outputs": [],
      "stateMutability": "nonpayable",
      "type": "function"
    },
    {
      "inputs": [
        {
          "internalType": "uint256",
          "name": "_pid",
          "type": "uint256"
        }
      ],
      "name": "updatePool",
      "outputs": [],
      "stateMutability": "nonpayable",
      "type": "function"
    },
    {
      "inputs": [
        {
          "internalType": "uint256",
          "name": "",
          "type": "uint256"
        },
        {
          "internalType": "address",
          "name": "",
          "type": "address"
        }
      ],
      "name": "userInfo",
      "outputs": [
        {
          "internalType": "uint256",
          "name": "amount",
          "type": "uint256"
        },
        {
          "internalType": "uint256",
          "name": "rewardDebt",
          "type": "uint256"
        }
      ],
      "stateMutability": "view",
      "type": "function"
    },
    {
      "inputs": [
        {
          "internalType": "uint256",
          "name": "_pid",
          "type": "uint256"
        },
        {
          "internalType": "uint256",
          "name": "_amount",
          "type": "uint256"
        }
      ],
      "name": "withdraw",
      "outputs": [],
      "stateMutability": "nonpayable",
      "type": "function"
    }
  ],
  "transactionHash": "0x615dc95bb6ab7eec6533c77d267284f6636d6cb29e6c09bd3a0fe9c0d2092631",
  "args": [
    "0x5FbDB2315678afecb367f032d93F642f64180aa3",
    "0xf39Fd6e51aad88F6F4ce6aB8827279cffFb92266",
    "10000000000000000000",
    "1631948400",
    "100"
  ],
  "solcInputHash": "239c2a8167b680759e40a21e0774e02a",
  "bytecode": "0x60a06040523480156200001157600080fd5b506040516200287238038062002872833981016040819052620000349162000108565b60006200004062000104565b600080546001600160a01b0319166001600160a01b0383169081178255604051929350917f8be0079c531659141344cd1fd0a4f28419497f9722a3daafe3b4186f6b6457e0908290a350600180556103e8811115620000bc5760405162461bcd60e51b8152600401620000b3906200015f565b60405180910390fd5b60609490941b6001600160601b031916608052600280546001600160a01b0319166001600160a01b039490941693909317909255600355600a556004556000600955620001c3565b3390565b600080600080600060a0868803121562000120578081fd5b85516200012d81620001aa565b60208701519095506200014081620001aa565b6040870151606088015160809098015196999198509695945092505050565b6020808252602b908201527f436f6e7374727563746f723a20696e76616c696420747265617375727920706560408201526a7263656e742076616c756560a81b606082015260800190565b6001600160a01b0381168114620001c057600080fd5b50565b60805160601c612678620001fa600039806103e7528061050452806105b452806106f552806109cb528061137052506126786000f3fe608060405234801561001057600080fd5b50600436106101735760003560e01c8063715018a6116100de578063ab7de09811610097578063e2bbb15811610071578063e2bbb158146102f6578063e6fd48bc14610309578063f2fde38b14610311578063ffcd42631461032457610173565b8063ab7de098146102ba578063af3315fd146102cd578063bc70fdbc146102d557610173565b8063715018a61461025057806388bba42f1461025857806389a2bc251461026b5780638da5cb5b1461027e57806393f1a40b14610286578063a7e05b9c146102a757610173565b806330d9a62a1161013057806330d9a62a146101f457806341c4b4e8146101fc578063441a3e701461020f57806351eb05a6146102225780635312ea8e14610235578063630b5ba11461024857610173565b806304ef9d5814610178578063081e3eda146101965780630ba84cd21461019e5780630cf64bbb146101b35780631526fe27146101c857806317caf6f1146101ec575b600080fd5b610180610347565b60405161018d9190612577565b60405180910390f35b61018061034d565b6101b16101ac366004611e92565b610353565b005b6101bb6103e5565b60405161018d9190611fe4565b6101db6101d6366004611e92565b610409565b60405161018d959493929190612059565b610180610454565b6101bb61045a565b6101b161020a366004611d94565b610469565b6101b161021d366004611f32565b610620565b6101b1610230366004611e92565b610888565b6101b1610243366004611e92565b610a6f565b6101b1610b3b565b6101b1610b5e565b6101b1610266366004611f53565b610be7565b6101b1610279366004611e92565b610d94565b6101bb610e35565b610299610294366004611ec2565b610e44565b60405161018d9291906125cb565b6101b16102b5366004611d78565b610e68565b6101b16102c8366004611ef1565b610ede565b610180611162565b6102e86102e3366004611e92565b611168565b60405161018d929190612035565b6101b1610304366004611f32565b6112c1565b610180611505565b6101b161031f366004611d78565b61150b565b610337610332366004611ec2565b6115cb565b60405161018d9493929190612580565b60045481565b60055490565b61035b611804565b6001600160a01b031661036c610e35565b6001600160a01b03161461039b5760405162461bcd60e51b81526004016103929061231e565b60405180910390fd5b6103a3610b3b565b600381905560405133907fe2492e003bbe8afa53088b406f0c1cb5d9e280370fc72a74cf116ffd343c4053906103da908490612577565b60405180910390a250565b7f000000000000000000000000000000000000000000000000000000000000000081565b6005818154811061041657fe5b6000918252602090912060059091020180546001820154600283015460038401546004909401546001600160a01b0393841695509193909290911685565b60095481565b6002546001600160a01b031681565b610471611804565b6001600160a01b0316610482610e35565b6001600160a01b0316146104a85760405162461bcd60e51b81526004016103929061231e565b6001600160a01b0382166104ce5760405162461bcd60e51b815260040161039290612251565b806104eb5760405162461bcd60e51b81526004016103929061213d565b6040516370a0823160e01b815281906001600160a01b037f000000000000000000000000000000000000000000000000000000000000000016906370a0823190610539903090600401611fe4565b60206040518083038186803b15801561055157600080fd5b505afa158015610565573d6000803e3d6000fd5b505050506040513d601f19601f820116820180604052508101906105899190611eaa565b10156105a75760405162461bcd60e51b815260040161039290612422565b6105db6001600160a01b037f0000000000000000000000000000000000000000000000000000000000000000168383611808565b816001600160a01b03167f56bd2482769266c159d6a44b5fc2a8c5ceee18843739a1a64720bdf06ea0374e826040516106149190612577565b60405180910390a25050565b600260015414156106435760405162461bcd60e51b815260040161039290612540565b600260018190555060006005838154811061065a57fe5b6000918252602080832086845260088252604080852033865290925292208054600590920290920192508311156106a35760405162461bcd60e51b8152600401610392906123f6565b6106ac84610888565b60006106e682600101546106e064e8d4a510006106da876003015487600001546118fe90919063ffffffff16565b90611941565b90611973565b905061071c6001600160a01b037f0000000000000000000000000000000000000000000000000000000000000000163383611808565b84336001600160a01b03167f71bab65ced2e5750775a0613be067df48ef06cf92a496ebf7663ae0660924954836040516107569190612577565b60405180910390a3815461076a9085611973565b80835560038401546107879164e8d4a51000916106da91906118fe565b826001018190555060006005868154811061079e57fe5b60009182526020909120600460059092020101546001600160a01b03169050801561082457825460405163b8735ca360e01b81526001600160a01b0383169163b8735ca3916107f1913391600401611ff8565b600060405180830381600087803b15801561080b57600080fd5b505af115801561081f573d6000803e3d6000fd5b505050505b835461083a906001600160a01b03163387611808565b85336001600160a01b03167ff279e6a1f5e320cca91135676d9cb6e44ca8a08c0b88342bcdb1144f6511b568876040516108749190612577565b60405180910390a350506001805550505050565b60006005828154811061089757fe5b90600052602060002090600502019050806002015442116108b85750610a6c565b80546040516370a0823160e01b81526000916001600160a01b0316906370a08231906108e8903090600401611fe4565b60206040518083038186803b15801561090057600080fd5b505afa158015610914573d6000803e3d6000fd5b505050506040513d601f19601f820116820180604052508101906109389190611eaa565b90508061094c575042600290910155610a6c565b600061096583600201544261197390919063ffffffff16565b905060006109926009546106da866001015461098c600354876118fe90919063ffffffff16565b906118fe565b6004546002549192506103e8818103926109f2926001600160a01b03909116916109c1916106da9087906118fe565b6001600160a01b037f0000000000000000000000000000000000000000000000000000000000000000169190611808565b610a1b610a106103e86106da8461098c89838964e8d4a510006118fe565b60038701549061199b565b60038601819055426002870181905560405188927f3be3541fc42237d611b30329040bfa4569541d156560acdbbae57640d20b8f4692610a5e92909189916125d9565b60405180910390a250505050505b50565b60026001541415610a925760405162461bcd60e51b815260040161039290612540565b6002600181905550600060058281548110610aa957fe5b60009182526020808320858452600882526040808520338087529352909320805460059093029093018054909450610aee926001600160a01b03919091169190611808565b8054604051849133917fbb757047c2b5f3974fe26b7c10f732e7bce710b0952a71082702781e62ae059591610b2291612577565b60405180910390a3600080825560019182015580555050565b60055460005b81811015610b5a57610b5281610888565b600101610b41565b5050565b610b66611804565b6001600160a01b0316610b77610e35565b6001600160a01b031614610b9d5760405162461bcd60e51b81526004016103929061231e565b600080546040516001600160a01b03909116907f8be0079c531659141344cd1fd0a4f28419497f9722a3daafe3b4186f6b6457e0908390a3600080546001600160a01b0319169055565b610bef611804565b6001600160a01b0316610c00610e35565b6001600160a01b031614610c265760405162461bcd60e51b81526004016103929061231e565b610c2f826119c0565b80610c4157506001600160a01b038216155b610c5d5760405162461bcd60e51b81526004016103929061247f565b610c65610b3b565b610ca283610c9c60058781548110610c7957fe5b90600052602060002090600502016001015460095461197390919063ffffffff16565b9061199b565b6009819055508260058581548110610cb657fe5b9060005260206000209060050201600101819055508015610d15578160058581548110610cdf57fe5b906000526020600020906005020160040160006101000a8154816001600160a01b0302191690836001600160a01b031602179055505b80610d495760058481548110610d2757fe5b60009182526020909120600460059092020101546001600160a01b0316610d4b565b815b6001600160a01b0316847fa54644aae5c48c5971516f334e4fe8ecbc7930e23f34877d4203c6551e67ffaa8584604051610d869291906125bb565b60405180910390a350505050565b610d9c611804565b6001600160a01b0316610dad610e35565b6001600160a01b031614610dd35760405162461bcd60e51b81526004016103929061231e565b6103e8811115610df55760405162461bcd60e51b81526004016103929061219a565b60048190556040517fcd5bca6a422e5cbcaeb47e746280c12e96040b2991cd5c6c4e98f08e4692c4b090610e2a908390612577565b60405180910390a150565b6000546001600160a01b031690565b60086020908152600092835260408084209091529082529020805460019091015482565b6002546001600160a01b03163314610e925760405162461bcd60e51b815260040161039290612353565b600280546001600160a01b0319166001600160a01b03831690811790915560405133907f61885cdba916be748ff3e3f6f15e4206153b8ea3b7acabade9d04b4063a8351090600090a350565b610ee6611804565b6001600160a01b0316610ef7610e35565b6001600160a01b031614610f1d5760405162461bcd60e51b81526004016103929061231e565b610f26826119c0565b610f425760405162461bcd60e51b8152600401610392906123b0565b610f4b816119c0565b80610f5d57506001600160a01b038116155b610f795760405162461bcd60e51b8152600401610392906124c5565b610f846006836119ca565b15610fa15760405162461bcd60e51b8152600401610392906122ef565b610fa9610b3b565b6000600a544211610fbc57600a54610fbe565b425b600954909150610fce908561199b565b6009556040805160a0810182526001600160a01b038086168252602082018781529282018481526000606084018181528784166080860190815260058054600181018255938190529551929095027f036b6384b5eca791c62761152d0c79bb0604c104a5fb6f4eb0703f3154bb3db0810180549386166001600160a01b031994851617905595517f036b6384b5eca791c62761152d0c79bb0604c104a5fb6f4eb0703f3154bb3db187015591517f036b6384b5eca791c62761152d0c79bb0604c104a5fb6f4eb0703f3154bb3db286015590517f036b6384b5eca791c62761152d0c79bb0604c104a5fb6f4eb0703f3154bb3db385015591517f036b6384b5eca791c62761152d0c79bb0604c104a5fb6f4eb0703f3154bb3db4909301805493909116929091169190911790556111066006846119df565b506005546001600160a01b038084169190851690611125906001611973565b7f4b16bd2431ad24dc020ab0e1de7fcb6563dead6a24fb10089d6c23e97a70381f876040516111549190612577565b60405180910390a450505050565b60035481565b6000606060006005848154811061117b57fe5b6000918252602090912060059091020160048101549091506001600160a01b0316156112bb576004808201546040805163f7c618c160e01b815290516001600160a01b039092169263f7c618c1928282019260209290829003018186803b1580156111e557600080fd5b505afa1580156111f9573d6000803e3d6000fd5b505050506040513d601f19601f8201168201806040525081019061121d9190611ddb565b92506112b88160040160009054906101000a90046001600160a01b03166001600160a01b031663f7c618c16040518163ffffffff1660e01b815260040160206040518083038186803b15801561127257600080fd5b505afa158015611286573d6000803e3d6000fd5b505050506040513d601f19601f820116820180604052508101906112aa9190611ddb565b6001600160a01b03166119f4565b91505b50915091565b600260015414156112e45760405162461bcd60e51b815260040161039290612540565b60026001819055506000600583815481106112fb57fe5b6000918252602080832086845260088252604080852033865290925292206005909102909101915061132c84610888565b8054156113db57600061136182600101546106e064e8d4a510006106da876003015487600001546118fe90919063ffffffff16565b90506113976001600160a01b037f0000000000000000000000000000000000000000000000000000000000000000163383611808565b84336001600160a01b03167f71bab65ced2e5750775a0613be067df48ef06cf92a496ebf7663ae0660924954836040516113d19190612577565b60405180910390a3505b80546113e7908461199b565b80825560038301546114049164e8d4a51000916106da91906118fe565b816001018190555060006005858154811061141b57fe5b60009182526020909120600460059092020101546001600160a01b0316905080156114a157815460405163b8735ca360e01b81526001600160a01b0383169163b8735ca39161146e913391600401611ff8565b600060405180830381600087803b15801561148857600080fd5b505af115801561149c573d6000803e3d6000fd5b505050505b82546114b8906001600160a01b0316333087611ab7565b84336001600160a01b03167f90890809c654f11d6e72a28fa60149770a0d11ec6c92319d6ceb2bb0a4ea1a15866040516114f29190612577565b60405180910390a3505060018055505050565b600a5481565b611513611804565b6001600160a01b0316611524610e35565b6001600160a01b03161461154a5760405162461bcd60e51b81526004016103929061231e565b6001600160a01b0381166115705760405162461bcd60e51b8152600401610392906120c0565b600080546040516001600160a01b03808516939216917f8be0079c531659141344cd1fd0a4f28419497f9722a3daafe3b4186f6b6457e091a3600080546001600160a01b0319166001600160a01b0392909216919091179055565b6000806060600080600587815481106115e057fe5b600091825260208083208a84526008825260408085206001600160a01b03808d16875293528085206003600590950290920193840154845491516370a0823160e01b815294965091949193919216906370a0823190611643903090600401611fe4565b60206040518083038186803b15801561165b57600080fd5b505afa15801561166f573d6000803e3d6000fd5b505050506040513d601f19601f820116820180604052508101906116939190611eaa565b90508360020154421180156116a757508015155b156117265760006116c585600201544261197390919063ffffffff16565b905060006004546103e803905060006117016103e86106da8461098c6009546106da8d6001015461098c6003548c6118fe90919063ffffffff16565b9050611720611719856106da8464e8d4a510006118fe565b869061199b565b94505050505b61174e83600101546106e064e8d4a510006106da8688600001546118fe90919063ffffffff16565b60048501549098506001600160a01b0316156117f75761176d8a611168565b60048087015460405163c031a66f60e01b8152939a509198506001600160a01b039091169163c031a66f916117a4918d9101611fe4565b60206040518083038186803b1580156117bc57600080fd5b505afa1580156117d0573d6000803e3d6000fd5b505050506040513d601f19601f820116820180604052508101906117f49190611eaa565b94505b5050505092959194509250565b3390565b60006060846001600160a01b031663a9059cbb60e01b8585604051602401611831929190611ff8565b60408051601f198184030181529181526020820180516001600160e01b03166001600160e01b031990941693909317909252905161186f9190611fc8565b6000604051808303816000865af19150503d80600081146118ac576040519150601f19603f3d011682016040523d82523d6000602084013e6118b1565b606091505b50915091508180156118db5750805115806118db5750808060200190518101906118db9190611dbf565b6118f75760405162461bcd60e51b815260040161039290612089565b5050505050565b60008261190d5750600061193b565b8282028284828161191a57fe5b04146119385760405162461bcd60e51b8152600401610392906122ae565b90505b92915050565b60008082116119625760405162461bcd60e51b81526004016103929061221a565b81838161196b57fe5b049392505050565b6000828211156119955760405162461bcd60e51b8152600401610392906121e3565b50900390565b6000828201838110156119385760405162461bcd60e51b815260040161039290612106565b803b15155b919050565b6000611938836001600160a01b038416611bb0565b6000611938836001600160a01b038416611bc8565b60408051600481526024810182526020810180516001600160e01b03166395d89b4160e01b179052905160609160009183916001600160a01b03861691611a3b9190611fc8565b600060405180830381855afa9150503d8060008114611a76576040519150601f19603f3d011682016040523d82523d6000602084013e611a7b565b606091505b509150915081611aa657604051806040016040528060038152602001623f3f3f60e81b815250611aaf565b611aaf81611c12565b949350505050565b60006060856001600160a01b03166323b872dd60e01b868686604051602401611ae293929190612011565b60408051601f198184030181529181526020820180516001600160e01b03166001600160e01b0319909416939093179092529051611b209190611fc8565b6000604051808303816000865af19150503d8060008114611b5d576040519150601f19603f3d011682016040523d82523d6000602084013e611b62565b606091505b5091509150818015611b8c575080511580611b8c575080806020019051810190611b8c9190611dbf565b611ba85760405162461bcd60e51b81526004016103929061250b565b505050505050565b60009081526001919091016020526040902054151590565b6000611bd48383611bb0565b611c0a5750815460018181018455600084815260208082209093018490558454848252828601909352604090209190915561193b565b50600061193b565b60606040825110611c385781806020019051810190611c319190611df7565b90506119c5565b815160201415611d585760005b60208160ff16108015611c745750828160ff1681518110611c6257fe5b01602001516001600160f81b03191615155b15611c8157600101611c45565b60608160ff1667ffffffffffffffff81118015611c9d57600080fd5b506040519080825280601f01601f191660200182016040528015611cc8576020820181803683370190505b509050600091505b60208260ff16108015611cff5750838260ff1681518110611ced57fe5b01602001516001600160f81b03191615155b15611d4f57838260ff1681518110611d1357fe5b602001015160f81c60f81b818360ff1681518110611d2d57fe5b60200101906001600160f81b031916908160001a905350600190910190611cd0565b91506119c59050565b506040805180820190915260038152623f3f3f60e81b60208201526119c5565b600060208284031215611d89578081fd5b81356119388161261f565b60008060408385031215611da6578081fd5b8235611db18161261f565b946020939093013593505050565b600060208284031215611dd0578081fd5b815161193881612634565b600060208284031215611dec578081fd5b81516119388161261f565b600060208284031215611e08578081fd5b815167ffffffffffffffff80821115611e1f578283fd5b818401915084601f830112611e32578283fd5b815181811115611e40578384fd5b604051601f8201601f191681016020018381118282101715611e60578586fd5b604052818152838201602001871015611e77578485fd5b611e888260208301602087016125ef565b9695505050505050565b600060208284031215611ea3578081fd5b5035919050565b600060208284031215611ebb578081fd5b5051919050565b60008060408385031215611ed4578182fd5b823591506020830135611ee68161261f565b809150509250929050565b600080600060608486031215611f05578081fd5b833592506020840135611f178161261f565b91506040840135611f278161261f565b809150509250925092565b60008060408385031215611f44578182fd5b50508035926020909101359150565b60008060008060808587031215611f68578081fd5b84359350602085013592506040850135611f818161261f565b91506060850135611f9181612634565b939692955090935050565b60008151808452611fb48160208601602086016125ef565b601f01601f19169290920160200192915050565b60008251611fda8184602087016125ef565b9190910192915050565b6001600160a01b0391909116815260200190565b6001600160a01b03929092168252602082015260400190565b6001600160a01b039384168152919092166020820152604081019190915260600190565b6001600160a01b0383168152604060208201819052600090611aaf90830184611f9c565b6001600160a01b039586168152602081019490945260408401929092526060830152909116608082015260a00190565b6020808252601c908201527f426f72696e6745524332303a205472616e73666572206661696c656400000000604082015260600190565b60208082526026908201527f4f776e61626c653a206e6577206f776e657220697320746865207a65726f206160408201526564647265737360d01b606082015260800190565b6020808252601b908201527f536166654d6174683a206164646974696f6e206f766572666c6f770000000000604082015260600190565b60208082526037908201527f656d657267656e6379576974686472617752756279546f6b656e733a20496e7660408201527f616c6964207769746864726177616c20616d6f756e742e000000000000000000606082015260800190565b60208082526029908201527f736574547265617375727950657263656e743a20696e76616c69642070657263604082015268656e742076616c756560b81b606082015260800190565b6020808252601e908201527f536166654d6174683a207375627472616374696f6e206f766572666c6f770000604082015260600190565b6020808252601a908201527f536166654d6174683a206469766973696f6e206279207a65726f000000000000604082015260600190565b60208082526038908201527f656d657267656e6379576974686472617752756279546f6b656e733a20496e7660408201527f616c6964207769746864726177616c20616464726573732e0000000000000000606082015260800190565b60208082526021908201527f536166654d6174683a206d756c7469706c69636174696f6e206f766572666c6f6040820152607760f81b606082015260800190565b6020808252601590820152741859190e88131408185b1c9958591e481859191959605a1b604082015260600190565b6020808252818101527f4f776e61626c653a2063616c6c6572206973206e6f7420746865206f776e6572604082015260600190565b6020808252603e908201527f7365745472656173757279416464723a206e6f7420656e6f756768207065726d60408201527f697373696f6e7320746f2065786563757465207468697320616374696f6e0000606082015260800190565b60208082526026908201527f6164643a204c5020746f6b656e206d75737420626520612076616c696420636f6040820152651b9d1c9858dd60d21b606082015260800190565b6020808252601290820152711dda5d1a191c985dce881b9bdd0819dbdbd960721b604082015260600190565b6020808252603c908201527f656d657267656e6379576974686472617752756279546f6b656e733a204e6f7460408201527f20656e6f7567682062616c616e636520746f2077697468647261772e00000000606082015260800190565b60208082526026908201527f7365743a207265776172646572206d75737420626520636f6e7472616374206f60408201526572207a65726f60d01b606082015260800190565b60208082526026908201527f6164643a207265776172646572206d75737420626520636f6e7472616374206f60408201526572207a65726f60d01b606082015260800190565b6020808252818101527f426f72696e6745524332303a205472616e7366657246726f6d206661696c6564604082015260600190565b6020808252601f908201527f5265656e7472616e637947756172643a207265656e7472616e742063616c6c00604082015260600190565b90815260200190565b8481526001600160a01b03841660208201526080604082018190526000906125aa90830185611f9c565b905082606083015295945050505050565b9182521515602082015260400190565b918252602082015260400190565b9283526020830191909152604082015260600190565b60005b8381101561260a5781810151838201526020016125f2565b83811115612619576000848401525b50505050565b6001600160a01b0381168114610a6c57600080fd5b8015158114610a6c57600080fdfea2646970667358221220502feda0e8bde63840d8bdd9fd47b9985de0a5dcb28a7d38b1a0c7e4d195e08064736f6c634300060c0033",
  "devdoc": {
    "kind": "dev",
    "methods": {
      "owner()": {
        "details": "Returns the address of the current owner."
      },
      "renounceOwnership()": {
        "details": "Leaves the contract without owner. It will not be possible to call `onlyOwner` functions anymore. Can only be called by the current owner. NOTE: Renouncing ownership will leave the contract without an owner, thereby removing any functionality that is only available to the owner."
      },
      "transferOwnership(address)": {
        "details": "Transfers ownership of the contract to a new account (`newOwner`). Can only be called by the current owner."
      }
    },
    "version": 1
  },
  "userdoc": {
    "kind": "user",
    "methods": {
      "emergencyWithdrawRubyTokens(address,uint256)": {
        "notice": "Owner should be able to withdraw all the RubyTokens in case of emergency. The owner should be able to withdraw the tokens to himself or another address The RubyMasterChef contract will be placed behind a timelock, and the owner/deployer will be a multisig, so this should not raise trust concerns. This function is needed because the RubyMasterChef will be pre-fed with all of the Ruby tokens dedicated for liquidity mining incentives, and incase of unfortunate situation they should be retreived."
      }
    },
    "version": 1
  },
  "storageLayout": {
    "storage": [
      {
        "astId": 2120,
        "contract": "contracts/RubyMasterChef.sol:RubyMasterChef",
        "label": "_owner",
        "offset": 0,
        "slot": "0",
        "type": "t_address"
      },
      {
        "astId": 6268,
        "contract": "contracts/RubyMasterChef.sol:RubyMasterChef",
        "label": "_status",
        "offset": 0,
        "slot": "1",
        "type": "t_uint256"
      },
      {
        "astId": 7576,
        "contract": "contracts/RubyMasterChef.sol:RubyMasterChef",
        "label": "treasuryAddr",
        "offset": 0,
        "slot": "2",
        "type": "t_address"
      },
      {
        "astId": 7578,
        "contract": "contracts/RubyMasterChef.sol:RubyMasterChef",
        "label": "rubyPerSec",
        "offset": 0,
        "slot": "3",
        "type": "t_uint256"
      },
      {
        "astId": 7580,
        "contract": "contracts/RubyMasterChef.sol:RubyMasterChef",
        "label": "treasuryPercent",
        "offset": 0,
        "slot": "4",
        "type": "t_uint256"
      },
      {
        "astId": 7583,
        "contract": "contracts/RubyMasterChef.sol:RubyMasterChef",
        "label": "poolInfo",
        "offset": 0,
        "slot": "5",
        "type": "t_array(t_struct(PoolInfo)7572_storage)dyn_storage"
      },
      {
        "astId": 7585,
        "contract": "contracts/RubyMasterChef.sol:RubyMasterChef",
        "label": "lpTokens",
        "offset": 0,
        "slot": "6",
        "type": "t_struct(AddressSet)6041_storage"
      },
      {
        "astId": 7591,
        "contract": "contracts/RubyMasterChef.sol:RubyMasterChef",
        "label": "userInfo",
        "offset": 0,
        "slot": "8",
        "type": "t_mapping(t_uint256,t_mapping(t_address,t_struct(UserInfo)7561_storage))"
      },
      {
        "astId": 7593,
        "contract": "contracts/RubyMasterChef.sol:RubyMasterChef",
        "label": "totalAllocPoint",
        "offset": 0,
        "slot": "9",
        "type": "t_uint256"
      },
      {
        "astId": 7598,
        "contract": "contracts/RubyMasterChef.sol:RubyMasterChef",
        "label": "startTimestamp",
        "offset": 0,
        "slot": "10",
        "type": "t_uint256"
      }
    ],
    "types": {
      "t_address": {
        "encoding": "inplace",
        "label": "address",
        "numberOfBytes": "20"
      },
      "t_array(t_bytes32)dyn_storage": {
        "base": "t_bytes32",
        "encoding": "dynamic_array",
        "label": "bytes32[]",
        "numberOfBytes": "32"
      },
      "t_array(t_struct(PoolInfo)7572_storage)dyn_storage": {
        "base": "t_struct(PoolInfo)7572_storage",
        "encoding": "dynamic_array",
        "label": "struct RubyMasterChef.PoolInfo[]",
        "numberOfBytes": "32"
      },
      "t_bytes32": {
        "encoding": "inplace",
        "label": "bytes32",
        "numberOfBytes": "32"
      },
      "t_contract(IERC20)3457": {
        "encoding": "inplace",
        "label": "contract IERC20",
        "numberOfBytes": "20"
      },
      "t_contract(IRubyMasterChefRewarder)15512": {
        "encoding": "inplace",
        "label": "contract IRubyMasterChefRewarder",
        "numberOfBytes": "20"
      },
      "t_mapping(t_address,t_struct(UserInfo)7561_storage)": {
        "encoding": "mapping",
        "key": "t_address",
        "label": "mapping(address => struct RubyMasterChef.UserInfo)",
        "numberOfBytes": "32",
        "value": "t_struct(UserInfo)7561_storage"
      },
      "t_mapping(t_bytes32,t_uint256)": {
        "encoding": "mapping",
        "key": "t_bytes32",
        "label": "mapping(bytes32 => uint256)",
        "numberOfBytes": "32",
        "value": "t_uint256"
      },
      "t_mapping(t_uint256,t_mapping(t_address,t_struct(UserInfo)7561_storage))": {
        "encoding": "mapping",
        "key": "t_uint256",
        "label": "mapping(uint256 => mapping(address => struct RubyMasterChef.UserInfo))",
        "numberOfBytes": "32",
        "value": "t_mapping(t_address,t_struct(UserInfo)7561_storage)"
      },
      "t_struct(AddressSet)6041_storage": {
        "encoding": "inplace",
        "label": "struct EnumerableSet.AddressSet",
        "members": [
          {
            "astId": 6040,
            "contract": "contracts/RubyMasterChef.sol:RubyMasterChef",
            "label": "_inner",
            "offset": 0,
            "slot": "0",
            "type": "t_struct(Set)5776_storage"
          }
        ],
        "numberOfBytes": "64"
      },
      "t_struct(PoolInfo)7572_storage": {
        "encoding": "inplace",
        "label": "struct RubyMasterChef.PoolInfo",
        "members": [
          {
            "astId": 7563,
            "contract": "contracts/RubyMasterChef.sol:RubyMasterChef",
            "label": "lpToken",
            "offset": 0,
            "slot": "0",
            "type": "t_contract(IERC20)3457"
          },
          {
            "astId": 7565,
            "contract": "contracts/RubyMasterChef.sol:RubyMasterChef",
            "label": "allocPoint",
            "offset": 0,
            "slot": "1",
            "type": "t_uint256"
          },
          {
            "astId": 7567,
            "contract": "contracts/RubyMasterChef.sol:RubyMasterChef",
            "label": "lastRewardTimestamp",
            "offset": 0,
            "slot": "2",
            "type": "t_uint256"
          },
          {
            "astId": 7569,
            "contract": "contracts/RubyMasterChef.sol:RubyMasterChef",
            "label": "accRubyPerShare",
            "offset": 0,
            "slot": "3",
            "type": "t_uint256"
          },
          {
            "astId": 7571,
            "contract": "contracts/RubyMasterChef.sol:RubyMasterChef",
            "label": "rewarder",
            "offset": 0,
            "slot": "4",
            "type": "t_contract(IRubyMasterChefRewarder)15512"
          }
        ],
        "numberOfBytes": "160"
      },
      "t_struct(Set)5776_storage": {
        "encoding": "inplace",
        "label": "struct EnumerableSet.Set",
        "members": [
          {
            "astId": 5771,
            "contract": "contracts/RubyMasterChef.sol:RubyMasterChef",
            "label": "_values",
            "offset": 0,
            "slot": "0",
            "type": "t_array(t_bytes32)dyn_storage"
          },
          {
            "astId": 5775,
            "contract": "contracts/RubyMasterChef.sol:RubyMasterChef",
            "label": "_indexes",
            "offset": 0,
            "slot": "1",
            "type": "t_mapping(t_bytes32,t_uint256)"
          }
        ],
        "numberOfBytes": "64"
      },
      "t_struct(UserInfo)7561_storage": {
        "encoding": "inplace",
        "label": "struct RubyMasterChef.UserInfo",
        "members": [
          {
            "astId": 7558,
            "contract": "contracts/RubyMasterChef.sol:RubyMasterChef",
            "label": "amount",
            "offset": 0,
            "slot": "0",
            "type": "t_uint256"
          },
          {
            "astId": 7560,
            "contract": "contracts/RubyMasterChef.sol:RubyMasterChef",
            "label": "rewardDebt",
            "offset": 0,
            "slot": "1",
            "type": "t_uint256"
          }
        ],
        "numberOfBytes": "64"
      },
      "t_uint256": {
        "encoding": "inplace",
        "label": "uint256",
        "numberOfBytes": "32"
      }
    }
  }
}