{
  "address": "0x7a2088a1bFc9d81c55368AE168C2C02570cB814F",
  "abi": [
    {
      "inputs": [
        {
          "internalType": "address",
          "name": "_factory",
          "type": "address"
        },
        {
          "internalType": "address",
          "name": "_bar",
          "type": "address"
        },
        {
          "internalType": "address",
          "name": "_ruby",
          "type": "address"
        },
        {
          "internalType": "address",
          "name": "_weth",
          "type": "address"
        },
        {
          "internalType": "uint256",
          "name": "_burnPercent",
          "type": "uint256"
        }
      ],
      "stateMutability": "nonpayable",
      "type": "constructor"
    },
    {
      "anonymous": false,
      "inputs": [
        {
          "indexed": false,
          "internalType": "uint256",
          "name": "newBurnPercent",
          "type": "uint256"
        }
      ],
      "name": "BurnPercentChanged",
      "type": "event"
    },
    {
      "anonymous": false,
      "inputs": [
        {
          "indexed": true,
          "internalType": "address",
          "name": "token",
          "type": "address"
        },
        {
          "indexed": true,
          "internalType": "address",
          "name": "bridge",
          "type": "address"
        }
      ],
      "name": "LogBridgeSet",
      "type": "event"
    },
    {
      "anonymous": false,
      "inputs": [
        {
          "indexed": true,
          "internalType": "address",
          "name": "server",
          "type": "address"
        },
        {
          "indexed": true,
          "internalType": "address",
          "name": "token0",
          "type": "address"
        },
        {
          "indexed": true,
          "internalType": "address",
          "name": "token1",
          "type": "address"
        },
        {
          "indexed": false,
          "internalType": "uint256",
          "name": "amount0",
          "type": "uint256"
        },
        {
          "indexed": false,
          "internalType": "uint256",
          "name": "amount1",
          "type": "uint256"
        },
        {
          "indexed": false,
          "internalType": "uint256",
          "name": "amountRubyDistributed",
          "type": "uint256"
        },
        {
          "indexed": false,
          "internalType": "uint256",
          "name": "amountRubyBurned",
          "type": "uint256"
        }
      ],
      "name": "LogConvert",
      "type": "event"
    },
    {
      "anonymous": false,
      "inputs": [
        {
          "indexed": true,
          "internalType": "address",
          "name": "previousOwner",
          "type": "address"
        },
        {
          "indexed": true,
          "internalType": "address",
          "name": "newOwner",
          "type": "address"
        }
      ],
      "name": "OwnershipTransferred",
      "type": "event"
    },
    {
      "inputs": [],
      "name": "bar",
      "outputs": [
        {
          "internalType": "address",
          "name": "",
          "type": "address"
        }
      ],
      "stateMutability": "view",
      "type": "function"
    },
    {
      "inputs": [
        {
          "internalType": "address",
          "name": "token",
          "type": "address"
        }
      ],
      "name": "bridgeFor",
      "outputs": [
        {
          "internalType": "address",
          "name": "bridge",
          "type": "address"
        }
      ],
      "stateMutability": "view",
      "type": "function"
    },
    {
      "inputs": [
        {
          "internalType": "address",
          "name": "token0",
          "type": "address"
        },
        {
          "internalType": "address",
          "name": "token1",
          "type": "address"
        }
      ],
      "name": "convert",
      "outputs": [],
      "stateMutability": "nonpayable",
      "type": "function"
    },
    {
      "inputs": [
        {
          "internalType": "address[]",
          "name": "token0",
          "type": "address[]"
        },
        {
          "internalType": "address[]",
          "name": "token1",
          "type": "address[]"
        }
      ],
      "name": "convertMultiple",
      "outputs": [],
      "stateMutability": "nonpayable",
      "type": "function"
    },
    {
      "inputs": [],
      "name": "factory",
      "outputs": [
        {
          "internalType": "contract IUniswapV2Factory",
          "name": "",
          "type": "address"
        }
      ],
      "stateMutability": "view",
      "type": "function"
    },
    {
      "inputs": [],
      "name": "owner",
      "outputs": [
        {
          "internalType": "address",
          "name": "",
          "type": "address"
        }
      ],
      "stateMutability": "view",
      "type": "function"
    },
    {
      "inputs": [],
      "name": "renounceOwnership",
      "outputs": [],
      "stateMutability": "nonpayable",
      "type": "function"
    },
    {
      "inputs": [
        {
          "internalType": "address",
          "name": "token",
          "type": "address"
        },
        {
          "internalType": "address",
          "name": "bridge",
          "type": "address"
        }
      ],
      "name": "setBridge",
      "outputs": [],
      "stateMutability": "nonpayable",
      "type": "function"
    },
    {
      "inputs": [
        {
          "internalType": "uint256",
          "name": "newBurnPercent",
          "type": "uint256"
        }
      ],
      "name": "setBurnPercent",
      "outputs": [],
      "stateMutability": "nonpayable",
      "type": "function"
    },
    {
      "inputs": [
        {
          "internalType": "address",
          "name": "newOwner",
          "type": "address"
        }
      ],
      "name": "transferOwnership",
      "outputs": [],
      "stateMutability": "nonpayable",
      "type": "function"
    }
  ],
  "transactionHash": "0xb7c25024e4ef19f89de941cf5fbcf344e96c955bf83cd4b76fb05478eb711609",
  "args": [
    "0x5FbDB2315678afecb367f032d93F642f64180aa3",
    "0x4A679253410272dd5232B3Ff7cF5dbB88f295319",
    "0x5FC8d32690cc91D4c39d9d3abcBD16989F875707",
    "0xe7f1725E7734CE288F8367e1Bb143E90bb3F0512",
    "20"
  ],
  "solcInputHash": "a8a5ff8ec2773546877d2eefd5c7becd",
  "bytecode": "0x6101006040523480156200001257600080fd5b5060405162001b9538038062001b95833981810160405260a08110156200003857600080fd5b5080516020820151604083015160608401516080909401519293919290919060006200006362000292565b600080546001600160a01b0319166001600160a01b0383169081178255604051929350917f8be0079c531659141344cd1fd0a4f28419497f9722a3daafe3b4186f6b6457e0908290a3506001600160a01b038516620000f45760405162461bcd60e51b815260040180806020018281038252602381526020018062001b726023913960400191505060405180910390fd5b6001600160a01b03841662000150576040805162461bcd60e51b815260206004820152601f60248201527f527562794d616b65723a20496e76616c69642062617220616464726573732e00604482015290519081900360640190fd5b6001600160a01b038316620001ac576040805162461bcd60e51b815260206004820181905260248201527f527562794d616b65723a20496e76616c6964207275627920616464726573732e604482015290519081900360640190fd5b6001600160a01b03821662000208576040805162461bcd60e51b815260206004820181905260248201527f527562794d616b65723a20496e76616c6964207765746820616464726573732e604482015290519081900360640190fd5b60648111156200025f576040805162461bcd60e51b815260206004820181905260248201527f527562794d616b65723a20496e76616c6964206275726e2070657263656e742e604482015290519081900360640190fd5b6001600160601b0319606095861b811660805293851b841660a05291841b831660c05290921b1660e05260015562000296565b3390565b60805160601c60a05160601c60c05160601c60e05160601c611822620003506000398061046e528061058c5280610e585280610e95528061103a528061107752806110a052806110cd528061110a52806111335250806104315280610b195280610dc25280610e075280610ef55280610f3a5280610f9e5280610fe352806112cb5250806108285280610b485280610e295280610f5c528061100552806112ed525080610702528061084e528061131d52506118226000f3fe608060405234801561001057600080fd5b506004361061009e5760003560e01c8063bb1570da11610066578063bb1570da146101e7578063bd1b820c14610204578063c45a015514610232578063f2fde38b1461023a578063febb0f7e146102605761009e565b8063303e6aa4146100a3578063715018a6146101675780638da5cb5b1461016f5780639d22ae8c14610193578063a761a939146101c1575b600080fd5b610165600480360360408110156100b957600080fd5b8101906020810181356401000000008111156100d457600080fd5b8201836020820111156100e657600080fd5b8035906020019184602083028401116401000000008311171561010857600080fd5b91939092909160208101903564010000000081111561012657600080fd5b82018360208201111561013857600080fd5b8035906020019184602083028401116401000000008311171561015a57600080fd5b509092509050610268565b005b610165610312565b6101776103be565b604080516001600160a01b039092168252519081900360200190f35b610165600480360360408110156101a957600080fd5b506001600160a01b03813581169160200135166103cd565b610177600480360360208110156101d757600080fd5b50356001600160a01b0316610569565b610165600480360360208110156101fd57600080fd5b50356105b1565b6101656004803603604081101561021a57600080fd5b506001600160a01b03813581169160200135166106a4565b610177610700565b6101656004803603602081101561025057600080fd5b50356001600160a01b0316610724565b610177610826565b3332146102b6576040805162461bcd60e51b8152602060048201526017602482015276527562794d616b65723a206d7573742075736520454f4160481b604482015290519081900360640190fd5b8260005b8181101561030a576103028686838181106102d157fe5b905060200201356001600160a01b03168585848181106102ed57fe5b905060200201356001600160a01b031661084a565b6001016102ba565b505050505050565b61031a610c28565b6001600160a01b031661032b6103be565b6001600160a01b031614610374576040805162461bcd60e51b815260206004820181905260248201526000805160206117cd833981519152604482015290519081900360640190fd5b600080546040516001600160a01b03909116907f8be0079c531659141344cd1fd0a4f28419497f9722a3daafe3b4186f6b6457e0908390a3600080546001600160a01b0319169055565b6000546001600160a01b031690565b6103d5610c28565b6001600160a01b03166103e66103be565b6001600160a01b03161461042f576040805162461bcd60e51b815260206004820181905260248201526000805160206117cd833981519152604482015290519081900360640190fd5b7f00000000000000000000000000000000000000000000000000000000000000006001600160a01b0316826001600160a01b0316141580156104a357507f00000000000000000000000000000000000000000000000000000000000000006001600160a01b0316826001600160a01b031614155b80156104c15750806001600160a01b0316826001600160a01b031614155b610512576040805162461bcd60e51b815260206004820152601960248201527f527562794d616b65723a20496e76616c69642062726964676500000000000000604482015290519081900360640190fd5b6001600160a01b0382811660008181526002602052604080822080546001600160a01b0319169486169485179055517f2e103aa707acc565f9a1547341914802b2bfe977fd79c595209f248ae4b006139190a35050565b6001600160a01b0380821660009081526002602052604090205416806105ac57507f00000000000000000000000000000000000000000000000000000000000000005b919050565b6105b9610c28565b6001600160a01b03166105ca6103be565b6001600160a01b031614610613576040805162461bcd60e51b815260206004820181905260248201526000805160206117cd833981519152604482015290519081900360640190fd5b6064811115610669576040805162461bcd60e51b815260206004820181905260248201527f527562794d616b65723a20496e76616c6964206275726e2070657263656e742e604482015290519081900360640190fd5b60018190556040805182815290517f9c4d4a96ad61cc9806d0a9c6ca3f7cb937f84b6139ceb5e7e8b8fcd4cd75f72b9181900360200190a150565b3332146106f2576040805162461bcd60e51b8152602060048201526017602482015276527562794d616b65723a206d7573742075736520454f4160481b604482015290519081900360640190fd5b6106fc828261084a565b5050565b7f000000000000000000000000000000000000000000000000000000000000000081565b61072c610c28565b6001600160a01b031661073d6103be565b6001600160a01b031614610786576040805162461bcd60e51b815260206004820181905260248201526000805160206117cd833981519152604482015290519081900360640190fd5b6001600160a01b0381166107cb5760405162461bcd60e51b81526004018080602001828103825260268152602001806117866026913960400191505060405180910390fd5b600080546040516001600160a01b03808516939216917f8be0079c531659141344cd1fd0a4f28419497f9722a3daafe3b4186f6b6457e091a3600080546001600160a01b0319166001600160a01b0392909216919091179055565b7f000000000000000000000000000000000000000000000000000000000000000081565b60007f00000000000000000000000000000000000000000000000000000000000000006001600160a01b031663e6a4390584846040518363ffffffff1660e01b815260040180836001600160a01b03168152602001826001600160a01b031681526020019250505060206040518083038186803b1580156108ca57600080fd5b505afa1580156108de573d6000803e3d6000fd5b505050506040513d60208110156108f457600080fd5b505190506001600160a01b038116610953576040805162461bcd60e51b815260206004820152601860248201527f527562794469676765723a20496e76616c696420706169720000000000000000604482015290519081900360640190fd5b6109e181826001600160a01b03166370a08231306040518263ffffffff1660e01b815260040180826001600160a01b0316815260200191505060206040518083038186803b1580156109a457600080fd5b505afa1580156109b8573d6000803e3d6000fd5b505050506040513d60208110156109ce57600080fd5b50516001600160a01b0384169190610c2c565b600080826001600160a01b03166389afcb44306040518263ffffffff1660e01b815260040180826001600160a01b031681526020019150506040805180830381600087803b158015610a3257600080fd5b505af1158015610a46573d6000803e3d6000fd5b505050506040513d6040811015610a5c57600080fd5b50805160209182015160408051630dfe168160e01b815290519295509093506001600160a01b03861692630dfe168192600480840193829003018186803b158015610aa657600080fd5b505afa158015610aba573d6000803e3d6000fd5b505050506040513d6020811015610ad057600080fd5b50516001600160a01b03868116911614610ae657905b6000610af486868585610d96565b90506000610b10606460015481610b0757fe5b84919004611207565b905080820391507f00000000000000000000000000000000000000000000000000000000000000006001600160a01b03166379cc67907f0000000000000000000000000000000000000000000000000000000000000000836040518363ffffffff1660e01b815260040180836001600160a01b0316815260200182815260200192505050600060405180830381600087803b158015610bae57600080fd5b505af1158015610bc2573d6000803e3d6000fd5b505060408051878152602081018790528082018690526060810185905290516001600160a01b03808b1694508b16925033917f24c161da1a42522d536b6562a1a7517a74a0fb9c0bd24666ec210d98c9ae8844919081900360800190a450505050505050565b3390565b604080516001600160a01b038481166024830152604480830185905283518084039091018152606490920183526020820180516001600160e01b031663a9059cbb60e01b178152925182516000946060949389169392918291908083835b60208310610ca95780518252601f199092019160209182019101610c8a565b6001836020036101000a0380198251168184511680821785525050505050509050019150506000604051808303816000865af19150503d8060008114610d0b576040519150601f19603f3d011682016040523d82523d6000602084013e610d10565b606091505b5091509150818015610d3e575080511580610d3e5750808060200190516020811015610d3b57600080fd5b50515b610d8f576040805162461bcd60e51b815260206004820152601a60248201527f5361666545524332303a205472616e73666572206661696c6564000000000000604482015290519081900360640190fd5b5050505050565b6000836001600160a01b0316856001600160a01b03161415610ef3576000610dbe8484611269565b90507f00000000000000000000000000000000000000000000000000000000000000006001600160a01b0316866001600160a01b03161415610e5657610e4e6001600160a01b037f0000000000000000000000000000000000000000000000000000000000000000167f000000000000000000000000000000000000000000000000000000000000000083610c2c565b809150610eed565b7f00000000000000000000000000000000000000000000000000000000000000006001600160a01b0316866001600160a01b03161415610ec157610eba7f0000000000000000000000000000000000000000000000000000000000000000826112c3565b9150610eed565b6000610ecc87610569565b9050610eda87828430611318565b9150610ee98182846000610d96565b9250505b506111ff565b7f00000000000000000000000000000000000000000000000000000000000000006001600160a01b0316856001600160a01b03161415610f9c57610f816001600160a01b037f0000000000000000000000000000000000000000000000000000000000000000167f000000000000000000000000000000000000000000000000000000000000000085610c2c565b610f9583610f8f86856112c3565b90611269565b90506111ff565b7f00000000000000000000000000000000000000000000000000000000000000006001600160a01b0316846001600160a01b031614156110385761102a6001600160a01b037f0000000000000000000000000000000000000000000000000000000000000000167f000000000000000000000000000000000000000000000000000000000000000084610c2c565b610f9582610f8f87866112c3565b7f00000000000000000000000000000000000000000000000000000000000000006001600160a01b0316856001600160a01b031614156110cb57610f957f00000000000000000000000000000000000000000000000000000000000000006110c685610f8f887f00000000000000000000000000000000000000000000000000000000000000008830611318565b6112c3565b7f00000000000000000000000000000000000000000000000000000000000000006001600160a01b0316846001600160a01b0316141561115957610f957f00000000000000000000000000000000000000000000000000000000000000006110c684610f8f897f00000000000000000000000000000000000000000000000000000000000000008930611318565b600061116486610569565b9050600061117186610569565b9050856001600160a01b0316826001600160a01b031614156111ab576111a4828761119e8a868a30611318565b87610d96565b92506111fc565b866001600160a01b0316816001600160a01b031614156111dc576111a48782876111d78a868a30611318565b610d96565b6111f982826111ed8a868a30611318565b6111d78a868a30611318565b92505b50505b949350505050565b60008261121657506000611263565b8282028284828161122357fe5b04146112605760405162461bcd60e51b81526004018080602001828103825260218152602001806117ac6021913960400191505060405180910390fd5b90505b92915050565b600082820183811015611260576040805162461bcd60e51b815260206004820152601b60248201527f536166654d6174683a206164646974696f6e206f766572666c6f770000000000604482015290519081900360640190fd5b6000611311837f0000000000000000000000000000000000000000000000000000000000000000847f0000000000000000000000000000000000000000000000000000000000000000611318565b9392505050565b6000807f00000000000000000000000000000000000000000000000000000000000000006001600160a01b031663e6a4390587876040518363ffffffff1660e01b815260040180836001600160a01b03168152602001826001600160a01b031681526020019250505060206040518083038186803b15801561139957600080fd5b505afa1580156113ad573d6000803e3d6000fd5b505050506040513d60208110156113c357600080fd5b505190506001600160a01b038116611422576040805162461bcd60e51b815260206004820152601960248201527f527562794d616b65723a2043616e6e6f7420636f6e7665727400000000000000604482015290519081900360640190fd5b600080826001600160a01b0316630902f1ac6040518163ffffffff1660e01b815260040160606040518083038186803b15801561145e57600080fd5b505afa158015611472573d6000803e3d6000fd5b505050506040513d606081101561148857600080fd5b5080516020909101516dffffffffffffffffffffffffffff918216935016905060006114b6876103e5611207565b9050836001600160a01b0316630dfe16816040518163ffffffff1660e01b815260040160206040518083038186803b1580156114f157600080fd5b505afa158015611505573d6000803e3d6000fd5b505050506040513d602081101561151b57600080fd5b50516001600160a01b038a8116911614156116565761154081610f8f856103e8611207565b61154a8284611207565b8161155157fe5b0494506115686001600160a01b038a168589610c2c565b604080516000808252602082019283905263022c0d9f60e01b835260248201818152604483018990526001600160a01b038a81166064850152608060848501908152845160a48601819052918a169563022c0d9f958c948e9491939092909160c4850191908083838b5b838110156115ea5781810151838201526020016115d2565b50505050905090810190601f1680156116175780820380516001836020036101000a031916815260200191505b5095505050505050600060405180830381600087803b15801561163957600080fd5b505af115801561164d573d6000803e3d6000fd5b50505050611779565b61166681610f8f846103e8611207565b6116708285611207565b8161167757fe5b04945061168e6001600160a01b038a168589610c2c565b604080516000808252602082019283905263022c0d9f60e01b835260248201888152604483018290526001600160a01b038a81166064850152608060848501908152845160a48601819052918a169563022c0d9f958c95948e9491939092909160c4850191908083838a5b838110156117115781810151838201526020016116f9565b50505050905090810190601f16801561173e5780820380516001836020036101000a031916815260200191505b5095505050505050600060405180830381600087803b15801561176057600080fd5b505af1158015611774573d6000803e3d6000fd5b505050505b5050505094935050505056fe4f776e61626c653a206e6577206f776e657220697320746865207a65726f2061646472657373536166654d6174683a206d756c7469706c69636174696f6e206f766572666c6f774f776e61626c653a2063616c6c6572206973206e6f7420746865206f776e6572a264697066735822122008b552d9b1a0952d193f08656c5e37dce263fe4b2af33aa141f23c95a0272fe364736f6c634300060c0033527562794d616b65723a20496e76616c696420666163746f727920616464726573732e",
  "devdoc": {
    "kind": "dev",
    "methods": {
      "owner()": {
        "details": "Returns the address of the current owner."
      },
      "renounceOwnership()": {
        "details": "Leaves the contract without owner. It will not be possible to call `onlyOwner` functions anymore. Can only be called by the current owner. NOTE: Renouncing ownership will leave the contract without an owner, thereby removing any functionality that is only available to the owner."
      },
      "transferOwnership(address)": {
        "details": "Transfers ownership of the contract to a new account (`newOwner`). Can only be called by the current owner."
      }
    },
    "version": 1
  },
  "userdoc": {
    "kind": "user",
    "methods": {},
    "version": 1
  },
  "storageLayout": {
    "storage": [
      {
        "astId": 2120,
        "contract": "contracts/RubyMaker.sol:RubyMaker",
        "label": "_owner",
        "offset": 0,
        "slot": "0",
        "type": "t_address"
      },
      {
        "astId": 6580,
        "contract": "contracts/RubyMaker.sol:RubyMaker",
        "label": "burnPercent",
        "offset": 0,
        "slot": "1",
        "type": "t_uint256"
      },
      {
        "astId": 6584,
        "contract": "contracts/RubyMaker.sol:RubyMaker",
        "label": "_bridges",
        "offset": 0,
        "slot": "2",
        "type": "t_mapping(t_address,t_address)"
      }
    ],
    "types": {
      "t_address": {
        "encoding": "inplace",
        "label": "address",
        "numberOfBytes": "20"
      },
      "t_mapping(t_address,t_address)": {
        "encoding": "mapping",
        "key": "t_address",
        "label": "mapping(address => address)",
        "numberOfBytes": "32",
        "value": "t_address"
      },
      "t_uint256": {
        "encoding": "inplace",
        "label": "uint256",
        "numberOfBytes": "32"
      }
    }
  }
}