{
  "address": "0x2279B7A0a67DB372996a5FaB50D91eAA73d2eBe6",
  "abi": [
    {
      "inputs": [
        {
          "internalType": "address",
          "name": "_rubyToken",
          "type": "address"
        }
      ],
      "stateMutability": "nonpayable",
      "type": "constructor"
    },
    {
      "anonymous": false,
      "inputs": [
        {
          "indexed": true,
          "internalType": "address",
          "name": "user",
          "type": "address"
        },
        {
          "indexed": false,
          "internalType": "uint256",
          "name": "amount",
          "type": "uint256"
        }
      ],
      "name": "ExpiredLocksWithdrawal",
      "type": "event"
    },
    {
      "anonymous": false,
      "inputs": [
        {
          "indexed": true,
          "internalType": "address",
          "name": "previousOwner",
          "type": "address"
        },
        {
          "indexed": true,
          "internalType": "address",
          "name": "newOwner",
          "type": "address"
        }
      ],
      "name": "OwnershipTransferred",
      "type": "event"
    },
    {
      "anonymous": false,
      "inputs": [
        {
          "indexed": false,
          "internalType": "address",
          "name": "token",
          "type": "address"
        },
        {
          "indexed": false,
          "internalType": "uint256",
          "name": "amount",
          "type": "uint256"
        }
      ],
      "name": "Recovered",
      "type": "event"
    },
    {
      "anonymous": false,
      "inputs": [
        {
          "indexed": false,
          "internalType": "uint256",
          "name": "reward",
          "type": "uint256"
        }
      ],
      "name": "RewardAdded",
      "type": "event"
    },
    {
      "anonymous": false,
      "inputs": [
        {
          "indexed": true,
          "internalType": "address",
          "name": "rewardToken",
          "type": "address"
        },
        {
          "indexed": true,
          "internalType": "address",
          "name": "distributor",
          "type": "address"
        }
      ],
      "name": "RewardDataRegistered",
      "type": "event"
    },
    {
      "anonymous": false,
      "inputs": [
        {
          "indexed": true,
          "internalType": "address",
          "name": "rewardToken",
          "type": "address"
        },
        {
          "indexed": true,
          "internalType": "address",
          "name": "distributor",
          "type": "address"
        },
        {
          "indexed": false,
          "internalType": "bool",
          "name": "approved",
          "type": "bool"
        }
      ],
      "name": "RewardDistributorApproved",
      "type": "event"
    },
    {
      "anonymous": false,
      "inputs": [
        {
          "indexed": true,
          "internalType": "address",
          "name": "rewardDistributor",
          "type": "address"
        }
      ],
      "name": "RewardDistributorSet",
      "type": "event"
    },
    {
      "anonymous": false,
      "inputs": [
        {
          "indexed": true,
          "internalType": "address",
          "name": "newRewardMinter",
          "type": "address"
        }
      ],
      "name": "RewardMinterSet",
      "type": "event"
    },
    {
      "anonymous": false,
      "inputs": [
        {
          "indexed": true,
          "internalType": "address",
          "name": "user",
          "type": "address"
        },
        {
          "indexed": true,
          "internalType": "address",
          "name": "rewardToken",
          "type": "address"
        },
        {
          "indexed": false,
          "internalType": "uint256",
          "name": "reward",
          "type": "uint256"
        }
      ],
      "name": "RewardPaid",
      "type": "event"
    },
    {
      "anonymous": false,
      "inputs": [
        {
          "indexed": false,
          "internalType": "address",
          "name": "token",
          "type": "address"
        },
        {
          "indexed": false,
          "internalType": "uint256",
          "name": "newDuration",
          "type": "uint256"
        }
      ],
      "name": "RewardsDurationUpdated",
      "type": "event"
    },
    {
      "anonymous": false,
      "inputs": [
        {
          "indexed": true,
          "internalType": "address",
          "name": "token",
          "type": "address"
        },
        {
          "indexed": true,
          "internalType": "address",
          "name": "to",
          "type": "address"
        },
        {
          "indexed": false,
          "internalType": "uint256",
          "name": "amount",
          "type": "uint256"
        }
      ],
      "name": "RubyTokenEmergencyWithdrawal",
      "type": "event"
    },
    {
      "anonymous": false,
      "inputs": [
        {
          "indexed": true,
          "internalType": "address",
          "name": "user",
          "type": "address"
        },
        {
          "indexed": false,
          "internalType": "uint256",
          "name": "amount",
          "type": "uint256"
        }
      ],
      "name": "Staked",
      "type": "event"
    },
    {
      "anonymous": false,
      "inputs": [
        {
          "indexed": true,
          "internalType": "address",
          "name": "user",
          "type": "address"
        },
        {
          "indexed": false,
          "internalType": "uint256",
          "name": "amount",
          "type": "uint256"
        }
      ],
      "name": "Withdrawal",
      "type": "event"
    },
    {
      "inputs": [
        {
          "internalType": "address",
          "name": "_rewardsToken",
          "type": "address"
        },
        {
          "internalType": "address",
          "name": "_distributor",
          "type": "address"
        }
      ],
      "name": "addReward",
      "outputs": [],
      "stateMutability": "nonpayable",
      "type": "function"
    },
    {
      "inputs": [
        {
          "internalType": "uint256",
          "name": "_rewardId",
          "type": "uint256"
        },
        {
          "internalType": "address",
          "name": "_distributor",
          "type": "address"
        },
        {
          "internalType": "bool",
          "name": "_approved",
          "type": "bool"
        }
      ],
      "name": "approveRewardDistributor",
      "outputs": [],
      "stateMutability": "nonpayable",
      "type": "function"
    },
    {
      "inputs": [
        {
          "internalType": "address",
          "name": "account",
          "type": "address"
        }
      ],
      "name": "claimableRewards",
      "outputs": [
        {
          "components": [
            {
              "internalType": "address",
              "name": "token",
              "type": "address"
            },
            {
              "internalType": "uint256",
              "name": "amount",
              "type": "uint256"
            }
          ],
          "internalType": "struct RubyStaker.RewardData[]",
          "name": "userRewards",
          "type": "tuple[]"
        }
      ],
      "stateMutability": "view",
      "type": "function"
    },
    {
      "inputs": [
        {
          "internalType": "address",
          "name": "user",
          "type": "address"
        }
      ],
      "name": "earnedBalances",
      "outputs": [
        {
          "internalType": "uint256",
          "name": "total",
          "type": "uint256"
        },
        {
          "components": [
            {
              "internalType": "uint256",
              "name": "amount",
              "type": "uint256"
            },
            {
              "internalType": "uint256",
              "name": "unlockTime",
              "type": "uint256"
            }
          ],
          "internalType": "struct RubyStaker.LockedBalance[]",
          "name": "earningsData",
          "type": "tuple[]"
        }
      ],
      "stateMutability": "view",
      "type": "function"
    },
    {
      "inputs": [
        {
          "internalType": "address",
          "name": "_receiver",
          "type": "address"
        },
        {
          "internalType": "uint256",
          "name": "_amount",
          "type": "uint256"
        }
      ],
      "name": "emergencyWithdrawRubyToken",
      "outputs": [],
      "stateMutability": "nonpayable",
      "type": "function"
    },
    {
      "inputs": [],
      "name": "exit",
      "outputs": [],
      "stateMutability": "nonpayable",
      "type": "function"
    },
    {
      "inputs": [],
      "name": "getReward",
      "outputs": [],
      "stateMutability": "nonpayable",
      "type": "function"
    },
    {
      "inputs": [
        {
          "internalType": "uint256",
          "name": "_rewardId",
          "type": "uint256"
        }
      ],
      "name": "getRewardForDuration",
      "outputs": [
        {
          "internalType": "uint256",
          "name": "",
          "type": "uint256"
        }
      ],
      "stateMutability": "view",
      "type": "function"
    },
    {
      "inputs": [
        {
          "internalType": "uint256",
          "name": "_rewardId",
          "type": "uint256"
        }
      ],
      "name": "lastTimeRewardApplicable",
      "outputs": [
        {
          "internalType": "uint256",
          "name": "",
          "type": "uint256"
        }
      ],
      "stateMutability": "view",
      "type": "function"
    },
    {
      "inputs": [],
      "name": "lockDuration",
      "outputs": [
        {
          "internalType": "uint256",
          "name": "",
          "type": "uint256"
        }
      ],
      "stateMutability": "view",
      "type": "function"
    },
    {
      "inputs": [
        {
          "internalType": "address",
          "name": "user",
          "type": "address"
        }
      ],
      "name": "lockedBalances",
      "outputs": [
        {
          "internalType": "uint256",
          "name": "total",
          "type": "uint256"
        },
        {
          "internalType": "uint256",
          "name": "unlockable",
          "type": "uint256"
        },
        {
          "internalType": "uint256",
          "name": "locked",
          "type": "uint256"
        },
        {
          "components": [
            {
              "internalType": "uint256",
              "name": "amount",
              "type": "uint256"
            },
            {
              "internalType": "uint256",
              "name": "unlockTime",
              "type": "uint256"
            }
          ],
          "internalType": "struct RubyStaker.LockedBalance[]",
          "name": "lockData",
          "type": "tuple[]"
        }
      ],
      "stateMutability": "view",
      "type": "function"
    },
    {
      "inputs": [],
      "name": "lockedSupply",
      "outputs": [
        {
          "internalType": "uint256",
          "name": "",
          "type": "uint256"
        }
      ],
      "stateMutability": "view",
      "type": "function"
    },
    {
      "inputs": [
        {
          "internalType": "address",
          "name": "user",
          "type": "address"
        },
        {
          "internalType": "uint256",
          "name": "amount",
          "type": "uint256"
        }
      ],
      "name": "mint",
      "outputs": [],
      "stateMutability": "nonpayable",
      "type": "function"
    },
    {
      "inputs": [
        {
          "internalType": "uint256",
          "name": "rewardId",
          "type": "uint256"
        },
        {
          "internalType": "uint256",
          "name": "reward",
          "type": "uint256"
        }
      ],
      "name": "notifyRewardAmount",
      "outputs": [],
      "stateMutability": "nonpayable",
      "type": "function"
    },
    {
      "inputs": [],
      "name": "numRewards",
      "outputs": [
        {
          "internalType": "uint256",
          "name": "",
          "type": "uint256"
        }
      ],
      "stateMutability": "view",
      "type": "function"
    },
    {
      "inputs": [],
      "name": "owner",
      "outputs": [
        {
          "internalType": "address",
          "name": "",
          "type": "address"
        }
      ],
      "stateMutability": "view",
      "type": "function"
    },
    {
      "inputs": [
        {
          "internalType": "address",
          "name": "tokenAddress",
          "type": "address"
        },
        {
          "internalType": "uint256",
          "name": "tokenAmount",
          "type": "uint256"
        }
      ],
      "name": "recoverERC20",
      "outputs": [],
      "stateMutability": "nonpayable",
      "type": "function"
    },
    {
      "inputs": [
        {
          "internalType": "address",
          "name": "",
          "type": "address"
        }
      ],
      "name": "registeredRewardTokens",
      "outputs": [
        {
          "internalType": "bool",
          "name": "",
          "type": "bool"
        }
      ],
      "stateMutability": "view",
      "type": "function"
    },
    {
      "inputs": [],
      "name": "renounceOwnership",
      "outputs": [],
      "stateMutability": "nonpayable",
      "type": "function"
    },
    {
      "inputs": [
        {
          "internalType": "uint256",
          "name": "",
          "type": "uint256"
        }
      ],
      "name": "rewardData",
      "outputs": [
        {
          "internalType": "address",
          "name": "rewardToken",
          "type": "address"
        },
        {
          "internalType": "uint256",
          "name": "periodFinish",
          "type": "uint256"
        },
        {
          "internalType": "uint256",
          "name": "rewardRate",
          "type": "uint256"
        },
        {
          "internalType": "uint256",
          "name": "lastUpdateTime",
          "type": "uint256"
        },
        {
          "internalType": "uint256",
          "name": "rewardPerTokenStored",
          "type": "uint256"
        }
      ],
      "stateMutability": "view",
      "type": "function"
    },
    {
      "inputs": [
        {
          "internalType": "uint256",
          "name": "",
          "type": "uint256"
        },
        {
          "internalType": "address",
          "name": "",
          "type": "address"
        }
      ],
      "name": "rewardDistributors",
      "outputs": [
        {
          "internalType": "bool",
          "name": "",
          "type": "bool"
        }
      ],
      "stateMutability": "view",
      "type": "function"
    },
    {
      "inputs": [],
      "name": "rewardMinter",
      "outputs": [
        {
          "internalType": "address",
          "name": "",
          "type": "address"
        }
      ],
      "stateMutability": "view",
      "type": "function"
    },
    {
      "inputs": [
        {
          "internalType": "uint256",
          "name": "_rewardId",
          "type": "uint256"
        }
      ],
      "name": "rewardPerToken",
      "outputs": [
        {
          "internalType": "uint256",
          "name": "",
          "type": "uint256"
        }
      ],
      "stateMutability": "view",
      "type": "function"
    },
    {
      "inputs": [
        {
          "internalType": "address",
          "name": "",
          "type": "address"
        },
        {
          "internalType": "uint256",
          "name": "",
          "type": "uint256"
        }
      ],
      "name": "rewards",
      "outputs": [
        {
          "internalType": "uint256",
          "name": "",
          "type": "uint256"
        }
      ],
      "stateMutability": "view",
      "type": "function"
    },
    {
      "inputs": [],
      "name": "rewardsDuration",
      "outputs": [
        {
          "internalType": "uint256",
          "name": "",
          "type": "uint256"
        }
      ],
      "stateMutability": "view",
      "type": "function"
    },
    {
      "inputs": [],
      "name": "rubyToken",
      "outputs": [
        {
          "internalType": "contract IERC20",
          "name": "",
          "type": "address"
        }
      ],
      "stateMutability": "view",
      "type": "function"
    },
    {
      "inputs": [
        {
          "internalType": "address",
          "name": "_rewardMinter",
          "type": "address"
        }
      ],
      "name": "setRewardMinter",
      "outputs": [],
      "stateMutability": "nonpayable",
      "type": "function"
    },
    {
      "inputs": [
        {
          "internalType": "uint256",
          "name": "amount",
          "type": "uint256"
        },
        {
          "internalType": "bool",
          "name": "lock",
          "type": "bool"
        }
      ],
      "name": "stake",
      "outputs": [],
      "stateMutability": "nonpayable",
      "type": "function"
    },
    {
      "inputs": [
        {
          "internalType": "address",
          "name": "user",
          "type": "address"
        }
      ],
      "name": "totalBalance",
      "outputs": [
        {
          "internalType": "uint256",
          "name": "amount",
          "type": "uint256"
        }
      ],
      "stateMutability": "view",
      "type": "function"
    },
    {
      "inputs": [],
      "name": "totalSupply",
      "outputs": [
        {
          "internalType": "uint256",
          "name": "",
          "type": "uint256"
        }
      ],
      "stateMutability": "view",
      "type": "function"
    },
    {
      "inputs": [
        {
          "internalType": "address",
          "name": "newOwner",
          "type": "address"
        }
      ],
      "name": "transferOwnership",
      "outputs": [],
      "stateMutability": "nonpayable",
      "type": "function"
    },
    {
      "inputs": [
        {
          "internalType": "address",
          "name": "user",
          "type": "address"
        }
      ],
      "name": "unlockedBalance",
      "outputs": [
        {
          "internalType": "uint256",
          "name": "amount",
          "type": "uint256"
        }
      ],
      "stateMutability": "view",
      "type": "function"
    },
    {
      "inputs": [
        {
          "internalType": "address",
          "name": "",
          "type": "address"
        },
        {
          "internalType": "uint256",
          "name": "",
          "type": "uint256"
        }
      ],
      "name": "userRewardPerTokenPaid",
      "outputs": [
        {
          "internalType": "uint256",
          "name": "",
          "type": "uint256"
        }
      ],
      "stateMutability": "view",
      "type": "function"
    },
    {
      "inputs": [
        {
          "internalType": "uint256",
          "name": "amount",
          "type": "uint256"
        }
      ],
      "name": "withdraw",
      "outputs": [],
      "stateMutability": "nonpayable",
      "type": "function"
    },
    {
      "inputs": [],
      "name": "withdrawExpiredLocks",
      "outputs": [],
      "stateMutability": "nonpayable",
      "type": "function"
    },
    {
      "inputs": [
        {
          "internalType": "address",
          "name": "user",
          "type": "address"
        }
      ],
      "name": "withdrawableBalance",
      "outputs": [
        {
          "internalType": "uint256",
          "name": "amount",
          "type": "uint256"
        },
        {
          "internalType": "uint256",
          "name": "penaltyAmount",
          "type": "uint256"
        }
      ],
      "stateMutability": "view",
      "type": "function"
    }
  ],
  "transactionHash": "0xf204dfc57781d3badaa73d9025ef2a553d4ebccd4b4bca08368f76cc873b1055",
  "args": [
    "0x5FC8d32690cc91D4c39d9d3abcBD16989F875707"
  ],
  "solcInputHash": "5d603c4e1a95f1aa8c4711bc20cde502",
  "bytecode": "0x60806040523480156200001157600080fd5b5060405162003a2638038062003a26833981016040819052620000349162000116565b60006200004062000112565b600080546001600160a01b0319166001600160a01b0383169081178255604051929350917f8be0079c531659141344cd1fd0a4f28419497f9722a3daafe3b4186f6b6457e0908290a350600180556001600160a01b038116620000c05760405162461bcd60e51b8152600401620000b79062000146565b60405180910390fd5b600280546001600160a01b03199081166001600160a01b03939093169283179091556006805460009081526007602052604090208054909216909217815542600390910155805460010190556200017d565b3390565b60006020828403121562000128578081fd5b81516001600160a01b03811681146200013f578182fd5b9392505050565b6020808252601f908201527f527562795374616b65723a20496e76616c6964207275627920746f6b656e2e00604082015260600190565b613899806200018d6000396000f3fe608060405234801561001057600080fd5b506004361061021c5760003560e01c80636eacd39811610125578063a7a0b84a116100ad578063dc01f60d1161007c578063dc01f60d14610456578063df37987614610476578063e9fad8ee14610497578063eeca15621461049f578063f2fde38b146104b25761021c565b8063a7a0b84a14610415578063abe50f1914610428578063b933ceac1461043b578063ca5c7b911461044e5761021c565b80638980f11f116100f45780638980f11f146103d75780638da5cb5b146103ea5780639b8e5563146103f25780639c09fda6146103fa578063a01c77bc1461040d5761021c565b80636eacd398146103a1578063715018a6146103b45780637d0d53ea146103bc578063874c120b146103c45761021c565b80633c079e28116101a857806340c10f191161017757806340c10f19146103405780635e0fac2e14610353578063620db60914610366578063665c545b1461037b5780636bc9b5611461038e5761021c565b80633c079e28146102ee5780633d18b912146103015780633e3cc2391461030957806340b47e1a1461032d5761021c565b80630e213a3d116101ef5780630e213a3d146102a357806318160ddd146102b6578063246132f9146102be5780632e1a7d4d146102d3578063386a9525146102e65761021c565b806302b6293814610221578063045544431461024b5780630483a7f614610260578063090b161114610283575b600080fd5b61023461022f366004612d47565b6104c5565b6040516102429291906137ac565b60405180910390f35b610253610604565b604051610242919061378a565b61027361026e366004612d47565b61060b565b60405161024294939291906137ba565b610296610291366004612d47565b610799565b6040516102429190613023565b6102536102b1366004612ddc565b6107ae565b6102536107d3565b6102d16102cc366004612e9e565b6107d9565b005b6102d16102e1366004612ddc565b610a3c565b610253610ec3565b6102966102fc366004612e0c565b610eca565b6102d1610eea565b61031c610317366004612ddc565b6111d3565b604051610242959493929190612f9d565b6102d161033b366004612d62565b61120c565b6102d161034e366004612d96565b61132b565b610253610361366004612d47565b611679565b61036e61170d565b6040516102429190612f4c565b6102d1610389366004612e2f565b61171c565b61025361039c366004612d96565b611826565b6102536103af366004612d47565b611843565b6102d161185e565b6102536118e7565b6102536103d2366004612ddc565b6118ed565b6102d16103e5366004612d96565b611915565b61036e611a14565b61036e611a23565b6102d1610408366004612d96565b611a32565b6102d1611bb6565b6102d1610423366004612d47565b611d37565b6102d1610436366004612e6f565b611dec565b610253610449366004612d96565b6121ad565b6102536121ca565b610469610464366004612d47565b6121d0565b6040516102429190612fcb565b610489610484366004612d47565b612308565b604051610242929190613793565b6102d161242c565b6102536104ad366004612ddc565b612673565b6102d16104c0366004612d47565b612690565b6001600160a01b0381166000908152600c602052604081206003810154829190156105d7576001600160a01b0384166000908152600e6020526040812054815b818110156105af576001600160a01b0387166000908152600e6020526040812080548390811061053157fe5b9060005260206000209060020201600001549050806000141561055457506105a7565b6001600160a01b0388166000908152600e6020526040902080544291908490811061057b57fe5b906000526020600020906002020160010154111561059957506105af565b6105a38482612750565b9350505b600101610505565b506105d260026105cc84866003015461277590919063ffffffff16565b9061279d565b935050505b6105fc826105f68360030154846001015461275090919063ffffffff16565b90612775565b925050915091565b6277f88081565b6001600160a01b0381166000908152600d602052604081208190819060609082805b8254811015610771574283828154811061064357fe5b906000526020600020906002020160010154111561073f57816106b957825481900367ffffffffffffffff8111801561067b57600080fd5b506040519080825280602002602001820160405280156106b557816020015b6106a2612cbc565b81526020019060019003908161069a5790505b5093505b8281815481106106c557fe5b9060005260206000209060020201604051806040016040529081600082015481526020016001820154815250508483815181106106fe57fe5b6020026020010181905250818060010192505061073883828154811061072057fe5b60009182526020909120600290910201548690612750565b9450610769565b61076683828154811061074e57fe5b60009182526020909120600290910201548790612750565b95505b60010161062d565b5050506001600160a01b0385166000908152600c602052604090206002015493509193509193565b60056020526000908152604090205460ff1681565b6000818152600760205260408120600201546107cd9062093a806127cf565b92915050565b600a5481565b6000828152600460209081526040808320338452909152902054829060ff1661081d5760405162461bcd60e51b81526004016108149061372d565b60405180910390fd5b600b54600090819061082f8282612809565b600080805260076020526000805160206138448339815191529190915561085590612673565b600080526007602052600080516020613824833981519152556001600160a01b038316156108fc576001600160a01b0383166000908152600c60205260408120600201546108a591859184612880565b6001600160a01b03841660008181526009602090815260408083208380528252808320949094556000805160206138448339815191525483835260088252848320838052825284832055918152600c909152205491505b50600a5460015b60065481116109ad576109168183612809565b60008281526007602052604090206004015561093181612673565b6000828152600760205260409020600301556001600160a01b038416156109a55761095e84828585612880565b6001600160a01b0385166000818152600960209081526040808320868452825280832094909455600781528382206004015492825260088152838220858352905291909120555b600101610903565b50600085116109ce5760405162461bcd60e51b81526004016108149061352f565b6000868152600760205260409020546001600160a01b03166109f2813330896128ed565b6109fc878761294b565b7fde88a922e0d3b88b24e9623efeb464919c6bf9f66857a65e2bfcf2ce87a9433d86604051610a2b919061378a565b60405180910390a150505050505050565b60026001541415610a5f5760405162461bcd60e51b8152600401610814906136ae565b6002600155600b543390600090610a768282612809565b6000808052600760205260008051602061384483398151915291909155610a9c90612673565b600080526007602052600080516020613824833981519152556001600160a01b03831615610b43576001600160a01b0383166000908152600c6020526040812060020154610aec91859184612880565b6001600160a01b03841660008181526009602090815260408083208380528252808320949094556000805160206138448339815191525483835260088252848320838052825284832055918152600c909152205491505b50600a5460015b6006548111610bf457610b5d8183612809565b600082815260076020526040902060040155610b7881612673565b6000828152600760205260409020600301556001600160a01b03841615610bec57610ba584828585612880565b6001600160a01b0385166000818152600960209081526040808320868452825280832094909455600781528382206004015492825260088152838220858352905291909120555b600101610b4a565b5060008411610c155760405162461bcd60e51b8152600401610814906130cf565b336000908152600c6020526040812060018101549091908611610c4b576001820154610c419087612775565b6001830155610e20565b6000610c6483600101548861277590919063ffffffff16565b90508083600301541015610c8a5760405162461bcd60e51b8152600401610814906133c8565b600060018401556003830154610ca09082612775565b600384015560005b336000908152600e60205260408120805483908110610cc357fe5b90600052602060002090600202016000015490508060001415610ce65750610e15565b83158015610d215750336000908152600e60205260409020805442919084908110610d0d57fe5b906000526020600020906002020160010154115b15610d93578293508285600301541015610d4d5760405162461bcd60e51b81526004016108149061326a565b6003850154610d5c9084612775565b60038601819055610d8557336000908152600e60205260408120610d7f91612cd6565b50610e1d565b610d908360026127cf565b92505b808311610dd657610da48184612775565b336000908152600e60205260409020805484908110610dbf57fe5b600091825260209091206002909102015550610e1d565b336000908152600e60205260409020805483908110610df157fe5b60009182526020822060029091020181815560010155610e118382612775565b9250505b600101610ca8565b50505b6000610e2c8783612750565b8354909150610e3b9082612775565b8355600a54610e4a9082612775565b600a55600254610e64906001600160a01b03163389612a29565b8115610e7557610e7560008361294b565b336001600160a01b03167f7fcf532c15f0a6db0bd6d0e038bea71d30d808c7d98cb3bf7268a95bf5081b6588604051610eae919061378a565b60405180910390a25050600180555050505050565b62093a8081565b600460209081526000928352604080842090915290825290205460ff1681565b60026001541415610f0d5760405162461bcd60e51b8152600401610814906136ae565b6002600155600b543390600090610f248282612809565b6000808052600760205260008051602061384483398151915291909155610f4a90612673565b600080526007602052600080516020613824833981519152556001600160a01b03831615610ff1576001600160a01b0383166000908152600c6020526040812060020154610f9a91859184612880565b6001600160a01b03841660008181526009602090815260408083208380528252808320949094556000805160206138448339815191525483835260088252848320838052825284832055918152600c909152205491505b50600a5460015b60065481116110a25761100b8183612809565b60008281526007602052604090206004015561102681612673565b6000828152600760205260409020600301556001600160a01b0384161561109a5761105384828585612880565b6001600160a01b0385166000818152600960209081526040808320868452825280832094909455600781528382206004015492825260088152838220858352905291909120555b600101610ff8565b5060005b60065481116111c95760008181526007602090815260408083205433845260098352818420858552835292819020548151808301909252601082526f5f72657761726473546f6b656e20257360801b928201929092526001600160a01b03909216916111129083612a4d565b61113d6040518060400160405280600981526020016872657761726420257360b81b81525082612a96565b80156111bf57336000818152600960209081526040808320878452909152812055611173906001600160a01b0384169083612a29565b816001600160a01b0316336001600160a01b03167f540798df468d7b23d11f156fdb954cb19ad414d150722a7b6d55ba369dea792e836040516111b6919061378a565b60405180910390a35b50506001016110a6565b5050600180555050565b600760205260009081526040902080546001820154600283015460038401546004909401546001600160a01b0390931693919290919085565b611214612adb565b6001600160a01b0316611225611a14565b6001600160a01b03161461124b5760405162461bcd60e51b8152600401610814906134fa565b6001600160a01b03821660009081526005602052604090205460ff16156112845760405162461bcd60e51b8152600401610814906132fe565b6001600160a01b0382811660008181526005602090815260408083208054600160ff199182168117909255600680548087526007865284872042600382018190558186015580546001600160a01b0319168917905560048652848720988a1680885298909552838620805490921683179091558054909101905551909392917f404846f3ec1aee6b703b7f9e49bfd8853de4a93edae98f2acf13e83891694bd191a3505050565b6003546001600160a01b031633146113555760405162461bcd60e51b815260040161081490613411565b600b5482906000906113678282612809565b600080805260076020526000805160206138448339815191529190915561138d90612673565b600080526007602052600080516020613824833981519152556001600160a01b03831615611434576001600160a01b0383166000908152600c60205260408120600201546113dd91859184612880565b6001600160a01b03841660008181526009602090815260408083208380528252808320949094556000805160206138448339815191525483835260088252848320838052825284832055918152600c909152205491505b50600a5460015b60065481116114e55761144e8183612809565b60008281526007602052604090206004015561146981612673565b6000828152600760205260409020600301556001600160a01b038416156114dd5761149684828585612880565b6001600160a01b0385166000818152600960209081526040808320868452825280832094909455600781528382206004015492825260088152838220858352905291909120555b60010161143b565b50600a546114f39085612750565b600a556001600160a01b0385166000908152600c60205260409020805461151a9086612750565b8155600381015461152b9086612750565b600382015560006115566277f88061155062093a8061154a428261279d565b906127cf565b90612750565b6001600160a01b0388166000908152600e602052604090208054919250908015806115a057508282600183038154811061158c57fe5b906000526020600020906002020160010154105b156115e257604080518082019091528881526020808201858152845460018181018755600087815293909320935160029091029093019283555191015561162d565b61160c888360018403815481106115f557fe5b600091825260209091206002909102015490612750565b82600183038154811061161b57fe5b60009182526020909120600290910201555b886001600160a01b03167f9e71bc8eea02a63969f509818f2dafb9254532904319f9dbda79b67bd34a5f3d89604051611666919061378a565b60405180910390a2505050505050505050565b6001600160a01b0381166000908152600c6020908152604080832060010154600e909252822090915b815481101561170657428282815481106116b857fe5b90600052602060002090600202016001015411156116d557611706565b6116fc8282815481106116e457fe5b60009182526020909120600290910201548490612750565b92506001016116a2565b5050919050565b6002546001600160a01b031681565b611724612adb565b6001600160a01b0316611735611a14565b6001600160a01b03161461175b5760405162461bcd60e51b8152600401610814906134fa565b6000831161177b5760405162461bcd60e51b8152600401610814906135af565b6000838152600760205260409020600301546117a95760405162461bcd60e51b815260040161081490613190565b60008381526004602090815260408083206001600160a01b03868116808652918452828520805460ff19168715151790558785526007909352928190205490519116907fd890240fb430b9ed4ff1d263f43a0a2922d16349b3d2d71015f86a3e1d3e884890611819908590613023565b60405180910390a3505050565b600860209081526000928352604080842090915290825290205481565b6001600160a01b03166000908152600c602052604090205490565b611866612adb565b6001600160a01b0316611877611a14565b6001600160a01b03161461189d5760405162461bcd60e51b8152600401610814906134fa565b600080546040516001600160a01b03909116907f8be0079c531659141344cd1fd0a4f28419497f9722a3daafe3b4186f6b6457e0908390a3600080546001600160a01b0319169055565b60065481565b60008082156118fe57600a54611902565b600b545b905061190e8382612809565b9392505050565b61191d612adb565b6001600160a01b031661192e611a14565b6001600160a01b0316146119545760405162461bcd60e51b8152600401610814906134fa565b6002546001600160a01b03838116911614156119825760405162461bcd60e51b815260040161081490613566565b6001600160a01b03821660009081526005602052604090205460ff16156119bb5760405162461bcd60e51b8152600401610814906136e5565b6119d76119c6611a14565b6001600160a01b0384169083612a29565b7f8c1256b8896378cd5044f80c202f9772b9d77dc85c8a6eb51967210b09bfaa288282604051611a08929190612f84565b60405180910390a15050565b6000546001600160a01b031690565b6003546001600160a01b031681565b611a3a612adb565b6001600160a01b0316611a4b611a14565b6001600160a01b031614611a715760405162461bcd60e51b8152600401610814906134fa565b6001600160a01b038216611a975760405162461bcd60e51b8152600401610814906135e6565b80611ab45760405162461bcd60e51b8152600401610814906131ed565b6002546040516370a0823160e01b815282916001600160a01b0316906370a0823190611ae4903090600401612f4c565b60206040518083038186803b158015611afc57600080fd5b505afa158015611b10573d6000803e3d6000fd5b505050506040513d601f19601f82011682018060405250810190611b349190612df4565b1015611b525760405162461bcd60e51b81526004016108149061346e565b600254611b69906001600160a01b03168383612a29565b6002546040516001600160a01b038085169216907f611ecce070d9fee1379f3494154f3af8e8ea5eac42d8328405b91fad8d36e60c90611baa90859061378a565b60405180910390a35050565b336000908152600d60209081526040808320600c909252822081549192909142846000198301838110611be557fe5b90600052602060002090600202016001015411611c22576002830154336000908152600d60205260408120919350611c1d9190612cd6565b611c97565b60005b81811015611c955742858281548110611c3a57fe5b9060005260206000209060020201600101541115611c5757611c95565b611c668582815481106116e457fe5b9250848181548110611c7457fe5b60009182526020822060029091020181815560019081019190915501611c25565b505b6002830154611ca69083612775565b60028401558254611cb79083612775565b8355600a54611cc69083612775565b600a55600b54611cd69083612775565b600b55600254611cf0906001600160a01b03163384612a29565b336001600160a01b03167f9d1e9c3047225903b4713486d5a2f267dcd41d8b979056b275dd20330107c54583604051611d29919061378a565b60405180910390a250505050565b611d3f612adb565b6001600160a01b0316611d50611a14565b6001600160a01b031614611d765760405162461bcd60e51b8152600401610814906134fa565b6001600160a01b038116611d9c5760405162461bcd60e51b81526004016108149061334b565b600380546001600160a01b0319166001600160a01b0383811691909117918290556040519116907f2ad2d6dc5545aec43acc94f1b5c82f80a64f6c7ffae5eb863a8b3d02d1bf973e90600090a250565b60026001541415611e0f5760405162461bcd60e51b8152600401610814906136ae565b6002600155600b543390600090611e268282612809565b6000808052600760205260008051602061384483398151915291909155611e4c90612673565b600080526007602052600080516020613824833981519152556001600160a01b03831615611ef3576001600160a01b0383166000908152600c6020526040812060020154611e9c91859184612880565b6001600160a01b03841660008181526009602090815260408083208380528252808320949094556000805160206138448339815191525483835260088252848320838052825284832055918152600c909152205491505b50600a5460015b6006548111611fa457611f0d8183612809565b600082815260076020526040902060040155611f2881612673565b6000828152600760205260409020600301556001600160a01b03841615611f9c57611f5584828585612880565b6001600160a01b0385166000818152600960209081526040808320868452825280832094909455600781528382206004015492825260088152838220858352905291909120555b600101611efa565b5060008511611fc55760405162461bcd60e51b81526004016108149061308d565b600a54611fd29086612750565b600a55336000908152600c602052604090208054611ff09087612750565b8155841561213357600b546120059087612750565b600b5560028101546120179087612750565b600282015560006120366277f88061155062093a8061154a428261279d565b336000908152600d60205260409020549091508015806120875750336000908152600d602052604090208054839190600019840190811061207357fe5b906000526020600020906002020160010154105b156120d657336000908152600d6020908152604080832081518083019092528b82528183018681528154600181810184559286529390942091516002909302909101918255915191015561212c565b336000908152600d6020526040902080546120fb918a9160001985019081106115f557fe5b336000908152600d602052604090208054600019840190811061211a57fe5b60009182526020909120600290910201555b5050612148565b60018101546121429087612750565b60018201555b600254612160906001600160a01b03163330896128ed565b336001600160a01b03167f9e71bc8eea02a63969f509818f2dafb9254532904319f9dbda79b67bd34a5f3d87604051612199919061378a565b60405180910390a250506001805550505050565b600960209081526000928352604080842090915290825290205481565b600b5481565b606060065460010167ffffffffffffffff811180156121ee57600080fd5b5060405190808252806020026020018201604052801561222857816020015b612215612cfa565b81526020019060019003908161220d5790505b50905060005b6006548111612302576000811561225d576001600160a01b0384166000908152600c602052604090205461227a565b6001600160a01b0384166000908152600c60205260409020600201545b90506000821561228c57600a54612290565b600b545b60008481526007602052604090205485519192506001600160a01b0316908590859081106122ba57fe5b60209081029190910101516001600160a01b0390911690526122de85848484612880565b8484815181106122ea57fe5b6020908102919091018101510152505060010161222e565b50919050565b6001600160a01b0381166000908152600e6020526040812060609082805b8254811015612424574283828154811061233c57fe5b906000526020600020906002020160010154111561241c57816123b257825481900367ffffffffffffffff8111801561237457600080fd5b506040519080825280602002602001820160405280156123ae57816020015b61239b612cbc565b8152602001906001900390816123935790505b5093505b8281815481106123be57fe5b9060005260206000209060020201604051806040016040529081600082015481526020016001820154815250508483815181106123f757fe5b6020026020010181905250818060010192505061241983828154811061072057fe5b94505b600101612326565b505050915091565b600b54339060009061243e8282612809565b600080805260076020526000805160206138448339815191529190915561246490612673565b600080526007602052600080516020613824833981519152556001600160a01b0383161561250b576001600160a01b0383166000908152600c60205260408120600201546124b491859184612880565b6001600160a01b03841660008181526009602090815260408083208380528252808320949094556000805160206138448339815191525483835260088252848320838052825284832055918152600c909152205491505b50600a5460015b60065481116125bc576125258183612809565b60008281526007602052604090206004015561254081612673565b6000828152600760205260409020600301556001600160a01b038416156125b45761256d84828585612880565b6001600160a01b0385166000818152600960209081526040808320868452825280832094909455600781528382206004015492825260088152838220858352905291909120555b600101612512565b506000806125c9336104c5565b336000908152600e602052604081209294509092506125e89190612cd6565b336000908152600c6020526040902060038101546001820154825461261292916105f69190612775565b8155600060018201819055600382015561263861262f8484612750565b600a5490612775565b600a55600254612652906001600160a01b03163385612a29565b81156126635761266360008361294b565b61266b610eea565b505050505050565b6000818152600760205260408120600101546107cd904290612adf565b612698612adb565b6001600160a01b03166126a9611a14565b6001600160a01b0316146126cf5760405162461bcd60e51b8152600401610814906134fa565b6001600160a01b0381166126f55760405162461bcd60e51b815260040161081490613113565b600080546040516001600160a01b03808516939216917f8be0079c531659141344cd1fd0a4f28419497f9722a3daafe3b4186f6b6457e091a3600080546001600160a01b0319166001600160a01b0392909216919091179055565b60008282018381101561190e5760405162461bcd60e51b815260040161081490613159565b6000828211156127975760405162461bcd60e51b815260040161081490613233565b50900390565b60008082116127be5760405162461bcd60e51b815260040161081490613391565b8183816127c757fe5b049392505050565b6000826127de575060006107cd565b828202828482816127eb57fe5b041461190e5760405162461bcd60e51b8152600401610814906134b9565b60008161282857506000828152600760205260409020600401546107cd565b6000838152600760205260409020600281015460039091015461190e916128689185916105cc91670de0b6b3a76400009161154a9182906105f68c612673565b60008581526007602052604090206004015490612750565b6001600160a01b03841660008181526009602090815260408083208784528252808320549383526008825280832087845290915281205490916128e49161155090670de0b6b3a7640000906105cc906128dd906105f68b8a612809565b88906127cf565b95945050505050565b612945846323b872dd60e01b85858560405160240161290e93929190612f60565b60408051601f198184030181529190526020810180516001600160e01b03166001600160e01b031990931692909217909152612af5565b50505050565b6000828152600760205260409020600101544210612987576129708162093a8061279d565b6000838152600760205260409020600201556129ec565b6000828152600760205260408120600101546129a39042612775565b600084815260076020526040812060020154919250906129c49083906127cf565b90506129d762093a806105cc8584612750565b60008581526007602052604090206002015550505b6000828152600760205260409020426003909101819055612a109062093a80612750565b6000928352600760205260409092206001019190915550565b612a488363a9059cbb60e01b848460405160240161290e929190612f84565b505050565b612a928282604051602401612a63929190613041565b60408051601f198184030181529190526020810180516001600160e01b031663319af33360e01b179052612b84565b5050565b612a928282604051602401612aac92919061306b565b60408051601f198184030181529190526020810180516001600160e01b03166309710a9d60e41b179052612b84565b3390565b6000818310612aee578161190e565b5090919050565b6060612b4a826040518060400160405280602081526020017f5361666545524332303a206c6f772d6c6576656c2063616c6c206661696c6564815250856001600160a01b0316612ba59092919063ffffffff16565b805190915015612a485780806020019051810190612b689190612dc0565b612a485760405162461bcd60e51b815260040161081490613664565b80516a636f6e736f6c652e6c6f67602083016000808483855afa5050505050565b6060612bb48484600085612bbc565b949350505050565b606082471015612bde5760405162461bcd60e51b8152600401610814906132b8565b612be785612c7d565b612c035760405162461bcd60e51b81526004016108149061362d565b60006060866001600160a01b03168587604051612c209190612f30565b60006040518083038185875af1925050503d8060008114612c5d576040519150601f19603f3d011682016040523d82523d6000602084013e612c62565b606091505b5091509150612c72828286612c83565b979650505050505050565b3b151590565b60608315612c9257508161190e565b825115612ca25782518084602001fd5b8160405162461bcd60e51b8152600401610814919061302e565b604051806040016040528060008152602001600081525090565b5080546000825560020290600052602060002090810190612cf79190612d11565b50565b604080518082019091526000808252602082015290565b5b80821115612d2c5760008082556001820155600201612d12565b5090565b80356001600160a01b03811681146107cd57600080fd5b600060208284031215612d58578081fd5b61190e8383612d30565b60008060408385031215612d74578081fd5b612d7e8484612d30565b9150612d8d8460208501612d30565b90509250929050565b60008060408385031215612da8578182fd5b612db28484612d30565b946020939093013593505050565b600060208284031215612dd1578081fd5b815161190e81613815565b600060208284031215612ded578081fd5b5035919050565b600060208284031215612e05578081fd5b5051919050565b60008060408385031215612e1e578182fd5b82359150612d8d8460208501612d30565b600080600060608486031215612e43578081fd5b83359250612e548560208601612d30565b91506040840135612e6481613815565b809150509250925092565b60008060408385031215612e81578182fd5b823591506020830135612e9381613815565b809150509250929050565b60008060408385031215612eb0578182fd5b50508035926020909101359150565b6000815180845260208085019450808401835b83811015612ef9578151805188528301518388015260409096019590820190600101612ed2565b509495945050505050565b60008151808452612f1c8160208601602086016137e9565b601f01601f19169290920160200192915050565b60008251612f428184602087016137e9565b9190910192915050565b6001600160a01b0391909116815260200190565b6001600160a01b039384168152919092166020820152604081019190915260600190565b6001600160a01b03929092168252602082015260400190565b6001600160a01b03959095168552602085019390935260408401919091526060830152608082015260a00190565b602080825282518282018190526000919060409081850190868401855b8281101561301657815180516001600160a01b03168552860151868501529284019290850190600101612fe8565b5091979650505050505050565b901515815260200190565b60006020825261190e6020830184612f04565b6000604082526130546040830185612f04565b905060018060a01b03831660208301529392505050565b60006040825261307e6040830185612f04565b90508260208301529392505050565b60208082526022908201527f527562795374616b65723a20496e76616c6964207374616b696e6720616d6f756040820152611b9d60f21b606082015260800190565b60208082526024908201527f527562795374616b65723a20496e76616c696420776974686472617720616d6f6040820152633ab73a1760e11b606082015260800190565b60208082526026908201527f4f776e61626c653a206e6577206f776e657220697320746865207a65726f206160408201526564647265737360d01b606082015260800190565b6020808252601b908201527f536166654d6174683a206164646974696f6e206f766572666c6f770000000000604082015260600190565b60208082526037908201527f527562795374616b65723a20496e76616c69642072657761726420646973747260408201527f696275746f7220617070726f76616c2072657175657374000000000000000000606082015260800190565b60208082526026908201527f527562795374616b65723a20496e76616c6964207769746864726177616c206160408201526536b7bab73a1760d11b606082015260800190565b6020808252601e908201527f536166654d6174683a207375627472616374696f6e206f766572666c6f770000604082015260600190565b6020808252602e908201527f527562795374616b65723a20496e73756666696369656e742062616c616e636560408201526d2061667465722070656e616c747960901b606082015260800190565b60208082526026908201527f416464726573733a20696e73756666696369656e742062616c616e636520666f6040820152651c8818d85b1b60d21b606082015260800190565b6020808252602d908201527f527562795374616b65723a205265776172647320746f6b656e20616c7265616460408201526c3c903932b3b4b9ba32b932b21760991b606082015260800190565b60208082526026908201527f527562795374616b65723a20496e76616c6964206e657720726577617264206d60408201526534b73a32b91760d11b606082015260800190565b6020808252601a908201527f536166654d6174683a206469766973696f6e206279207a65726f000000000000604082015260600190565b60208082526029908201527f527562795374616b65723a20496e73756666696369656e7420756e6c6f636b65604082015268642062616c616e636560b81b606082015260800190565b60208082526037908201527f527562795374616b65723a204f6e6c7920726577617264206d696e746572206360408201527f616e2065786563757465207468697320616374696f6e2e000000000000000000606082015260800190565b6020808252602b908201527f527562795374616b65723a204e6f7420656e6f7567682062616c616e6365207460408201526a37903bb4ba34323930bb9760a91b606082015260800190565b60208082526021908201527f536166654d6174683a206d756c7469706c69636174696f6e206f766572666c6f6040820152607760f81b606082015260800190565b6020808252818101527f4f776e61626c653a2063616c6c6572206973206e6f7420746865206f776e6572604082015260600190565b60208082526017908201527f527562795374616b696e673a204e6f207265776172642e000000000000000000604082015260600190565b60208082526029908201527f527562795374616b65723a2043616e6e6f74207769746864726177207374616b60408201526834b733903a37b5b2b760b91b606082015260800190565b6020808252601d908201527f527562795374616b65723a20496e76616c69642072657761726449642e000000604082015260600190565b60208082526027908201527f527562795374616b65723a20496e76616c6964207769746864726177616c206160408201526632323932b9b99760c91b606082015260800190565b6020808252601d908201527f416464726573733a2063616c6c20746f206e6f6e2d636f6e7472616374000000604082015260600190565b6020808252602a908201527f5361666545524332303a204552433230206f7065726174696f6e20646964206e6040820152691bdd081cdd58d8d9595960b21b606082015260800190565b6020808252601f908201527f5265656e7472616e637947756172643a207265656e7472616e742063616c6c00604082015260600190565b60208082526028908201527f527562795374616b65723a2043616e6e6f7420776974686472617720726577616040820152673932103a37b5b2b760c11b606082015260800190565b6020808252603c908201527f527562795374616b65723a204f6e6c792072657761726420646973747269627560408201527f746f722063616e2065786563757465207468697320616374696f6e2e00000000606082015260800190565b90815260200190565b600083825260406020830152612bb46040830184612ebf565b918252602082015260400190565b6000858252846020830152836040830152608060608301526137df6080830184612ebf565b9695505050505050565b60005b838110156138045781810151838201526020016137ec565b838111156129455750506000910152565b8015158114612cf757600080fdfe6d5257204ebe7d88fd91ae87941cb2dd9d8062b64ae5a2bd2d28ec40b9fbf6e26d5257204ebe7d88fd91ae87941cb2dd9d8062b64ae5a2bd2d28ec40b9fbf6e3a2646970667358221220c66ecd053df7f035750f20fe2be3a3de024f11e5bfc131a0192718f3aafd289d64736f6c634300060c0033",
  "devdoc": {
    "kind": "dev",
    "methods": {
      "owner()": {
        "details": "Returns the address of the current owner."
      },
      "renounceOwnership()": {
        "details": "Leaves the contract without owner. It will not be possible to call `onlyOwner` functions anymore. Can only be called by the current owner. NOTE: Renouncing ownership will leave the contract without an owner, thereby removing any functionality that is only available to the owner."
      },
      "transferOwnership(address)": {
        "details": "Transfers ownership of the contract to a new account (`newOwner`). Can only be called by the current owner."
      }
    },
    "version": 1
  },
  "userdoc": {
    "kind": "user",
    "methods": {
      "emergencyWithdrawRubyToken(address,uint256)": {
        "notice": "Owner should be able to withdraw all the Reward tokens in case of emergency. The owner should be able to withdraw the tokens to himself or another address The RubyStaker contract will be placed behind a timelock, and the owner/deployer will be a multisig, so this should not raise trust concerns. This function is needed because the RubyStaker will be pre-fed with all of the reward tokens (RUBY) tokens dedicated for liquidity mining incentives, and incase of unfortunate situation they should be retreived."
      }
    },
    "version": 1
  },
  "storageLayout": {
    "storage": [
      {
        "astId": 2120,
        "contract": "contracts/RubyStaker.sol:RubyStaker",
        "label": "_owner",
        "offset": 0,
        "slot": "0",
        "type": "t_address"
      },
      {
        "astId": 6341,
        "contract": "contracts/RubyStaker.sol:RubyStaker",
        "label": "_status",
        "offset": 0,
        "slot": "1",
        "type": "t_uint256"
      },
      {
        "astId": 8971,
        "contract": "contracts/RubyStaker.sol:RubyStaker",
        "label": "rubyToken",
        "offset": 0,
        "slot": "2",
        "type": "t_contract(IERC20)3530"
      },
      {
        "astId": 8973,
        "contract": "contracts/RubyStaker.sol:RubyStaker",
        "label": "rewardMinter",
        "offset": 0,
        "slot": "3",
        "type": "t_address"
      },
      {
        "astId": 8979,
        "contract": "contracts/RubyStaker.sol:RubyStaker",
        "label": "rewardDistributors",
        "offset": 0,
        "slot": "4",
        "type": "t_mapping(t_uint256,t_mapping(t_address,t_bool))"
      },
      {
        "astId": 8983,
        "contract": "contracts/RubyStaker.sol:RubyStaker",
        "label": "registeredRewardTokens",
        "offset": 0,
        "slot": "5",
        "type": "t_mapping(t_address,t_bool)"
      },
      {
        "astId": 8985,
        "contract": "contracts/RubyStaker.sol:RubyStaker",
        "label": "numRewards",
        "offset": 0,
        "slot": "6",
        "type": "t_uint256"
      },
      {
        "astId": 8989,
        "contract": "contracts/RubyStaker.sol:RubyStaker",
        "label": "rewardData",
        "offset": 0,
        "slot": "7",
        "type": "t_mapping(t_uint256,t_struct(Reward)8950_storage)"
      },
      {
        "astId": 9005,
        "contract": "contracts/RubyStaker.sol:RubyStaker",
        "label": "userRewardPerTokenPaid",
        "offset": 0,
        "slot": "8",
        "type": "t_mapping(t_address,t_mapping(t_uint256,t_uint256))"
      },
      {
        "astId": 9011,
        "contract": "contracts/RubyStaker.sol:RubyStaker",
        "label": "rewards",
        "offset": 0,
        "slot": "9",
        "type": "t_mapping(t_address,t_mapping(t_uint256,t_uint256))"
      },
      {
        "astId": 9013,
        "contract": "contracts/RubyStaker.sol:RubyStaker",
        "label": "totalSupply",
        "offset": 0,
        "slot": "10",
        "type": "t_uint256"
      },
      {
        "astId": 9015,
        "contract": "contracts/RubyStaker.sol:RubyStaker",
        "label": "lockedSupply",
        "offset": 0,
        "slot": "11",
        "type": "t_uint256"
      },
      {
        "astId": 9019,
        "contract": "contracts/RubyStaker.sol:RubyStaker",
        "label": "balances",
        "offset": 0,
        "slot": "12",
        "type": "t_mapping(t_address,t_struct(Balances)8959_storage)"
      },
      {
        "astId": 9024,
        "contract": "contracts/RubyStaker.sol:RubyStaker",
        "label": "userLocks",
        "offset": 0,
        "slot": "13",
        "type": "t_mapping(t_address,t_array(t_struct(LockedBalance)8964_storage)dyn_storage)"
      },
      {
        "astId": 9029,
        "contract": "contracts/RubyStaker.sol:RubyStaker",
        "label": "userEarnings",
        "offset": 0,
        "slot": "14",
        "type": "t_mapping(t_address,t_array(t_struct(LockedBalance)8964_storage)dyn_storage)"
      }
    ],
    "types": {
      "t_address": {
        "encoding": "inplace",
        "label": "address",
        "numberOfBytes": "20"
      },
      "t_array(t_struct(LockedBalance)8964_storage)dyn_storage": {
        "base": "t_struct(LockedBalance)8964_storage",
        "encoding": "dynamic_array",
        "label": "struct RubyStaker.LockedBalance[]",
        "numberOfBytes": "32"
      },
      "t_bool": {
        "encoding": "inplace",
        "label": "bool",
        "numberOfBytes": "1"
      },
      "t_contract(IERC20)3530": {
        "encoding": "inplace",
        "label": "contract IERC20",
        "numberOfBytes": "20"
      },
      "t_mapping(t_address,t_array(t_struct(LockedBalance)8964_storage)dyn_storage)": {
        "encoding": "mapping",
        "key": "t_address",
        "label": "mapping(address => struct RubyStaker.LockedBalance[])",
        "numberOfBytes": "32",
        "value": "t_array(t_struct(LockedBalance)8964_storage)dyn_storage"
      },
      "t_mapping(t_address,t_bool)": {
        "encoding": "mapping",
        "key": "t_address",
        "label": "mapping(address => bool)",
        "numberOfBytes": "32",
        "value": "t_bool"
      },
      "t_mapping(t_address,t_mapping(t_uint256,t_uint256))": {
        "encoding": "mapping",
        "key": "t_address",
        "label": "mapping(address => mapping(uint256 => uint256))",
        "numberOfBytes": "32",
        "value": "t_mapping(t_uint256,t_uint256)"
      },
      "t_mapping(t_address,t_struct(Balances)8959_storage)": {
        "encoding": "mapping",
        "key": "t_address",
        "label": "mapping(address => struct RubyStaker.Balances)",
        "numberOfBytes": "32",
        "value": "t_struct(Balances)8959_storage"
      },
      "t_mapping(t_uint256,t_mapping(t_address,t_bool))": {
        "encoding": "mapping",
        "key": "t_uint256",
        "label": "mapping(uint256 => mapping(address => bool))",
        "numberOfBytes": "32",
        "value": "t_mapping(t_address,t_bool)"
      },
      "t_mapping(t_uint256,t_struct(Reward)8950_storage)": {
        "encoding": "mapping",
        "key": "t_uint256",
        "label": "mapping(uint256 => struct RubyStaker.Reward)",
        "numberOfBytes": "32",
        "value": "t_struct(Reward)8950_storage"
      },
      "t_mapping(t_uint256,t_uint256)": {
        "encoding": "mapping",
        "key": "t_uint256",
        "label": "mapping(uint256 => uint256)",
        "numberOfBytes": "32",
        "value": "t_uint256"
      },
      "t_struct(Balances)8959_storage": {
        "encoding": "inplace",
        "label": "struct RubyStaker.Balances",
        "members": [
          {
            "astId": 8952,
            "contract": "contracts/RubyStaker.sol:RubyStaker",
            "label": "total",
            "offset": 0,
            "slot": "0",
            "type": "t_uint256"
          },
          {
            "astId": 8954,
            "contract": "contracts/RubyStaker.sol:RubyStaker",
            "label": "unlocked",
            "offset": 0,
            "slot": "1",
            "type": "t_uint256"
          },
          {
            "astId": 8956,
            "contract": "contracts/RubyStaker.sol:RubyStaker",
            "label": "locked",
            "offset": 0,
            "slot": "2",
            "type": "t_uint256"
          },
          {
            "astId": 8958,
            "contract": "contracts/RubyStaker.sol:RubyStaker",
            "label": "earned",
            "offset": 0,
            "slot": "3",
            "type": "t_uint256"
          }
        ],
        "numberOfBytes": "128"
      },
      "t_struct(LockedBalance)8964_storage": {
        "encoding": "inplace",
        "label": "struct RubyStaker.LockedBalance",
        "members": [
          {
            "astId": 8961,
            "contract": "contracts/RubyStaker.sol:RubyStaker",
            "label": "amount",
            "offset": 0,
            "slot": "0",
            "type": "t_uint256"
          },
          {
            "astId": 8963,
            "contract": "contracts/RubyStaker.sol:RubyStaker",
            "label": "unlockTime",
            "offset": 0,
            "slot": "1",
            "type": "t_uint256"
          }
        ],
        "numberOfBytes": "64"
      },
      "t_struct(Reward)8950_storage": {
        "encoding": "inplace",
        "label": "struct RubyStaker.Reward",
        "members": [
          {
            "astId": 8941,
            "contract": "contracts/RubyStaker.sol:RubyStaker",
            "label": "rewardToken",
            "offset": 0,
            "slot": "0",
            "type": "t_address"
          },
          {
            "astId": 8943,
            "contract": "contracts/RubyStaker.sol:RubyStaker",
            "label": "periodFinish",
            "offset": 0,
            "slot": "1",
            "type": "t_uint256"
          },
          {
            "astId": 8945,
            "contract": "contracts/RubyStaker.sol:RubyStaker",
            "label": "rewardRate",
            "offset": 0,
            "slot": "2",
            "type": "t_uint256"
          },
          {
            "astId": 8947,
            "contract": "contracts/RubyStaker.sol:RubyStaker",
            "label": "lastUpdateTime",
            "offset": 0,
            "slot": "3",
            "type": "t_uint256"
          },
          {
            "astId": 8949,
            "contract": "contracts/RubyStaker.sol:RubyStaker",
            "label": "rewardPerTokenStored",
            "offset": 0,
            "slot": "4",
            "type": "t_uint256"
          }
        ],
        "numberOfBytes": "160"
      },
      "t_uint256": {
        "encoding": "inplace",
        "label": "uint256",
        "numberOfBytes": "32"
      }
    }
  }
}