{
  "address": "0x91119C6AdA227c150C882381f1D5C06d483D8E1D",
  "abi": [
    {
      "inputs": [
        {
          "internalType": "address",
          "name": "_ruby",
          "type": "address"
        },
        {
          "internalType": "address",
          "name": "_usdp",
          "type": "address"
        },
        {
          "internalType": "address",
          "name": "_usdc",
          "type": "address"
        },
        {
          "internalType": "address",
          "name": "_usdt",
          "type": "address"
        },
        {
          "internalType": "address",
          "name": "_dai",
          "type": "address"
        }
      ],
      "stateMutability": "payable",
      "type": "constructor"
    },
    {
      "anonymous": false,
      "inputs": [
        {
          "indexed": true,
          "internalType": "address",
          "name": "previousOwner",
          "type": "address"
        },
        {
          "indexed": true,
          "internalType": "address",
          "name": "newOwner",
          "type": "address"
        }
      ],
      "name": "OwnershipTransferred",
      "type": "event"
    },
    {
      "stateMutability": "payable",
      "type": "fallback"
    },
    {
      "inputs": [],
      "name": "MINT_AMOUNT_ETH",
      "outputs": [
        {
          "internalType": "uint256",
          "name": "",
          "type": "uint256"
        }
      ],
      "stateMutability": "view",
      "type": "function"
    },
    {
      "inputs": [],
      "name": "MINT_AMOUNT_TOKEN_18",
      "outputs": [
        {
          "internalType": "uint256",
          "name": "",
          "type": "uint256"
        }
      ],
      "stateMutability": "view",
      "type": "function"
    },
    {
      "inputs": [],
      "name": "MINT_AMOUNT_TOKEN_6",
      "outputs": [
        {
          "internalType": "uint256",
          "name": "",
          "type": "uint256"
        }
      ],
      "stateMutability": "view",
      "type": "function"
    },
    {
      "inputs": [],
      "name": "dai",
      "outputs": [
        {
          "internalType": "address",
          "name": "",
          "type": "address"
        }
      ],
      "stateMutability": "view",
      "type": "function"
    },
    {
      "inputs": [
        {
          "internalType": "address payable",
          "name": "receiver",
          "type": "address"
        }
      ],
      "name": "mint",
      "outputs": [],
      "stateMutability": "nonpayable",
      "type": "function"
    },
    {
      "inputs": [],
      "name": "owner",
      "outputs": [
        {
          "internalType": "address",
          "name": "",
          "type": "address"
        }
      ],
      "stateMutability": "view",
      "type": "function"
    },
    {
      "inputs": [],
      "name": "renounceOwnership",
      "outputs": [],
      "stateMutability": "nonpayable",
      "type": "function"
    },
    {
      "inputs": [],
      "name": "ruby",
      "outputs": [
        {
          "internalType": "address",
          "name": "",
          "type": "address"
        }
      ],
      "stateMutability": "view",
      "type": "function"
    },
    {
      "inputs": [
        {
          "internalType": "address",
          "name": "newOwner",
          "type": "address"
        }
      ],
      "name": "transferOwnership",
      "outputs": [],
      "stateMutability": "nonpayable",
      "type": "function"
    },
    {
      "inputs": [],
      "name": "usdc",
      "outputs": [
        {
          "internalType": "address",
          "name": "",
          "type": "address"
        }
      ],
      "stateMutability": "view",
      "type": "function"
    },
    {
      "inputs": [],
      "name": "usdp",
      "outputs": [
        {
          "internalType": "address",
          "name": "",
          "type": "address"
        }
      ],
      "stateMutability": "view",
      "type": "function"
    },
    {
      "inputs": [],
      "name": "usdt",
      "outputs": [
        {
          "internalType": "address",
          "name": "",
          "type": "address"
        }
      ],
      "stateMutability": "view",
      "type": "function"
    },
    {
      "inputs": [],
      "name": "withdraw",
      "outputs": [],
      "stateMutability": "nonpayable",
      "type": "function"
    },
    {
      "stateMutability": "payable",
      "type": "receive"
    }
  ],
  "transactionHash": "0x4d3a6f31b606c6269ce4fe9277afb9cb17f620cf6d33d9b8339207c673da2c23",
  "args": [
    "0x58F2b35dde559F49B9870Ec101c3b1B8433C644d",
    "0x0EB4a542fcCBe6c985Eaa08e7A5De0f27cb50938",
    "0x788c12145E5E15717020095172d3471Fd6C0569f",
    "0x9DBFcCd94c26cd219b60754215abcC32c26F41c2",
    "0x059Fc87C315c659Bc11B0F7F524d20413A4A0fAC"
  ],
  "numDeployments": 1,
  "solcInputHash": "9950b26e12960fc1e3d82256d0e9aeed",
  "bytecode": "0x6080604052604051611042380380611042833981810160405260a081101561002657600080fd5b50805160208201516040830151606084015160809094015192939192909190600061004f6102c2565b600080546001600160a01b0319166001600160a01b0383169081178255604051929350917f8be0079c531659141344cd1fd0a4f28419497f9722a3daafe3b4186f6b6457e0908290a3506001600160a01b0385166100f4576040805162461bcd60e51b815260206004820152601c60248201527f4661756365743a20496e76616c69642052554259206164647265737300000000604482015290519081900360640190fd5b6001600160a01b03841661014f576040805162461bcd60e51b815260206004820152601c60248201527f4661756365743a20496e76616c69642055534450206164647265737300000000604482015290519081900360640190fd5b6001600160a01b0383166101aa576040805162461bcd60e51b815260206004820152601c60248201527f4661756365743a20496e76616c69642055534443206164647265737300000000604482015290519081900360640190fd5b6001600160a01b038216610205576040805162461bcd60e51b815260206004820152601c60248201527f4661756365743a20496e76616c69642055534454206164647265737300000000604482015290519081900360640190fd5b6001600160a01b038116610260576040805162461bcd60e51b815260206004820152601b60248201527f4661756365743a20496e76616c69642044414920616464726573730000000000604482015290519081900360640190fd5b600180546001600160a01b03199081166001600160a01b039788161790915560028054821695871695909517909455600380548516938616939093179092556004805484169185169190911790556005805490921692169190911790556102c6565b3390565b610d6d806102d56000396000f3fe6080604052600436106100c65760003560e01c8063715018a61161007f578063b852f1b611610059578063b852f1b6146101d8578063d3229485146101ed578063f2fde38b14610202578063f4b9fa7514610235576100cd565b8063715018a61461019957806374e6076c146101ae5780638da5cb5b146101c3576100cd565b806323336cc0146100cf5780632f48ab7d146100f65780633ccfd60b146101275780633e413bee1461013c5780636a627842146101515780636bf8c8bd14610184576100cd565b366100cd57005b005b3480156100db57600080fd5b506100e461024a565b60408051918252519081900360200190f35b34801561010257600080fd5b5061010b610256565b604080516001600160a01b039092168252519081900360200190f35b34801561013357600080fd5b506100cd610265565b34801561014857600080fd5b5061010b6107f2565b34801561015d57600080fd5b506100cd6004803603602081101561017457600080fd5b50356001600160a01b0316610801565b34801561019057600080fd5b506100e4610aea565b3480156101a557600080fd5b506100cd610af2565b3480156101ba57600080fd5b5061010b610bb0565b3480156101cf57600080fd5b5061010b610bbf565b3480156101e457600080fd5b506100e4610bce565b3480156101f957600080fd5b5061010b610bdb565b34801561020e57600080fd5b506100cd6004803603602081101561022557600080fd5b50356001600160a01b0316610bea565b34801561024157600080fd5b5061010b610cfe565b670429d069189e000081565b6004546001600160a01b031681565b61026d610d0d565b6001600160a01b031661027e610bbf565b6001600160a01b0316146102d9576040805162461bcd60e51b815260206004820181905260248201527f4f776e61626c653a2063616c6c6572206973206e6f7420746865206f776e6572604482015290519081900360640190fd5b60405133904780156108fc02916000818181858888f19350505050158015610305573d6000803e3d6000fd5b50600154604080516370a0823160e01b815230600482015290516001600160a01b039092169163a9059cbb91339184916370a08231916024808301926020929190829003018186803b15801561035a57600080fd5b505afa15801561036e573d6000803e3d6000fd5b505050506040513d602081101561038457600080fd5b5051604080516001600160e01b031960e086901b1681526001600160a01b03909316600484015260248301919091525160448083019260209291908290030181600087803b1580156103d557600080fd5b505af11580156103e9573d6000803e3d6000fd5b505050506040513d60208110156103ff57600080fd5b5050600254604080516370a0823160e01b815230600482015290516001600160a01b039092169163a9059cbb91339184916370a08231916024808301926020929190829003018186803b15801561045557600080fd5b505afa158015610469573d6000803e3d6000fd5b505050506040513d602081101561047f57600080fd5b5051604080516001600160e01b031960e086901b1681526001600160a01b03909316600484015260248301919091525160448083019260209291908290030181600087803b1580156104d057600080fd5b505af11580156104e4573d6000803e3d6000fd5b505050506040513d60208110156104fa57600080fd5b5050600554604080516370a0823160e01b815230600482015290516001600160a01b039092169163a9059cbb91339184916370a08231916024808301926020929190829003018186803b15801561055057600080fd5b505afa158015610564573d6000803e3d6000fd5b505050506040513d602081101561057a57600080fd5b5051604080516001600160e01b031960e086901b1681526001600160a01b03909316600484015260248301919091525160448083019260209291908290030181600087803b1580156105cb57600080fd5b505af11580156105df573d6000803e3d6000fd5b505050506040513d60208110156105f557600080fd5b5050600354604080516370a0823160e01b815230600482015290516001600160a01b039092169163a9059cbb91339184916370a08231916024808301926020929190829003018186803b15801561064b57600080fd5b505afa15801561065f573d6000803e3d6000fd5b505050506040513d602081101561067557600080fd5b5051604080516001600160e01b031960e086901b1681526001600160a01b03909316600484015260248301919091525160448083019260209291908290030181600087803b1580156106c657600080fd5b505af11580156106da573d6000803e3d6000fd5b505050506040513d60208110156106f057600080fd5b505060048054604080516370a0823160e01b81523093810193909352516001600160a01b039091169163a9059cbb91339184916370a0823191602480820192602092909190829003018186803b15801561074957600080fd5b505afa15801561075d573d6000803e3d6000fd5b505050506040513d602081101561077357600080fd5b5051604080516001600160e01b031960e086901b1681526001600160a01b03909316600484015260248301919091525160448083019260209291908290030181600087803b1580156107c457600080fd5b505af11580156107d8573d6000803e3d6000fd5b505050506040513d60208110156107ee57600080fd5b5050565b6003546001600160a01b031681565b6040516001600160a01b03821690600090670429d069189e00009082818181858883f1935050505015801561083a573d6000803e3d6000fd5b506001546040805163a9059cbb60e01b81526001600160a01b0384811660048301526801158e460913d0000060248301529151919092169163a9059cbb9160448083019260209291908290030181600087803b15801561089957600080fd5b505af11580156108ad573d6000803e3d6000fd5b505050506040513d60208110156108c357600080fd5b50506002546040805163a9059cbb60e01b81526001600160a01b0384811660048301526801158e460913d0000060248301529151919092169163a9059cbb9160448083019260209291908290030181600087803b15801561092357600080fd5b505af1158015610937573d6000803e3d6000fd5b505050506040513d602081101561094d57600080fd5b50506005546040805163a9059cbb60e01b81526001600160a01b0384811660048301526801158e460913d0000060248301529151919092169163a9059cbb9160448083019260209291908290030181600087803b1580156109ad57600080fd5b505af11580156109c1573d6000803e3d6000fd5b505050506040513d60208110156109d757600080fd5b50506003546040805163a9059cbb60e01b81526001600160a01b0384811660048301526301312d0060248301529151919092169163a9059cbb9160448083019260209291908290030181600087803b158015610a3257600080fd5b505af1158015610a46573d6000803e3d6000fd5b505050506040513d6020811015610a5c57600080fd5b5050600480546040805163a9059cbb60e01b81526001600160a01b03858116948201949094526301312d0060248201529051929091169163a9059cbb916044808201926020929091908290030181600087803b158015610abb57600080fd5b505af1158015610acf573d6000803e3d6000fd5b505050506040513d6020811015610ae557600080fd5b505050565b6301312d0081565b610afa610d0d565b6001600160a01b0316610b0b610bbf565b6001600160a01b031614610b66576040805162461bcd60e51b815260206004820181905260248201527f4f776e61626c653a2063616c6c6572206973206e6f7420746865206f776e6572604482015290519081900360640190fd5b600080546040516001600160a01b03909116907f8be0079c531659141344cd1fd0a4f28419497f9722a3daafe3b4186f6b6457e0908390a3600080546001600160a01b0319169055565b6002546001600160a01b031681565b6000546001600160a01b031690565b6801158e460913d0000081565b6001546001600160a01b031681565b610bf2610d0d565b6001600160a01b0316610c03610bbf565b6001600160a01b031614610c5e576040805162461bcd60e51b815260206004820181905260248201527f4f776e61626c653a2063616c6c6572206973206e6f7420746865206f776e6572604482015290519081900360640190fd5b6001600160a01b038116610ca35760405162461bcd60e51b8152600401808060200182810382526026815260200180610d126026913960400191505060405180910390fd5b600080546040516001600160a01b03808516939216917f8be0079c531659141344cd1fd0a4f28419497f9722a3daafe3b4186f6b6457e091a3600080546001600160a01b0319166001600160a01b0392909216919091179055565b6005546001600160a01b031681565b339056fe4f776e61626c653a206e6577206f776e657220697320746865207a65726f2061646472657373a2646970667358221220f235d3c28c2eab94b58dc314b2f67b5b6c9d71a44e60a501929da1faa93dd72d64736f6c634300060c0033",
  "devdoc": {
    "kind": "dev",
    "methods": {
      "owner()": {
        "details": "Returns the address of the current owner."
      },
      "renounceOwnership()": {
        "details": "Leaves the contract without owner. It will not be possible to call `onlyOwner` functions anymore. Can only be called by the current owner. NOTE: Renouncing ownership will leave the contract without an owner, thereby removing any functionality that is only available to the owner."
      },
      "transferOwnership(address)": {
        "details": "Transfers ownership of the contract to a new account (`newOwner`). Can only be called by the current owner."
      }
    },
    "version": 1
  },
  "userdoc": {
    "kind": "user",
    "methods": {},
    "version": 1
  },
  "storageLayout": {
    "storage": [
      {
        "astId": 2120,
        "contract": "contracts/faucet/Faucet.sol:Faucet",
        "label": "_owner",
        "offset": 0,
        "slot": "0",
        "type": "t_address"
      },
      {
        "astId": 16031,
        "contract": "contracts/faucet/Faucet.sol:Faucet",
        "label": "ruby",
        "offset": 0,
        "slot": "1",
        "type": "t_address"
      },
      {
        "astId": 16033,
        "contract": "contracts/faucet/Faucet.sol:Faucet",
        "label": "usdp",
        "offset": 0,
        "slot": "2",
        "type": "t_address"
      },
      {
        "astId": 16035,
        "contract": "contracts/faucet/Faucet.sol:Faucet",
        "label": "usdc",
        "offset": 0,
        "slot": "3",
        "type": "t_address"
      },
      {
        "astId": 16037,
        "contract": "contracts/faucet/Faucet.sol:Faucet",
        "label": "usdt",
        "offset": 0,
        "slot": "4",
        "type": "t_address"
      },
      {
        "astId": 16039,
        "contract": "contracts/faucet/Faucet.sol:Faucet",
        "label": "dai",
        "offset": 0,
        "slot": "5",
        "type": "t_address"
      }
    ],
    "types": {
      "t_address": {
        "encoding": "inplace",
        "label": "address",
        "numberOfBytes": "20"
      }
    }
  }
}