{
  "address": "0xb04a8253cad8D9Fa8F50A8b1601904d6fb293ef8",
  "abi": [
    {
      "inputs": [
        {
          "internalType": "address",
          "name": "_rubyToken",
          "type": "address"
        }
      ],
      "stateMutability": "nonpayable",
      "type": "constructor"
    },
    {
      "anonymous": false,
      "inputs": [
        {
          "indexed": true,
          "internalType": "address",
          "name": "user",
          "type": "address"
        },
        {
          "indexed": false,
          "internalType": "uint256",
          "name": "amount",
          "type": "uint256"
        }
      ],
      "name": "ExpiredLocksWithdrawal",
      "type": "event"
    },
    {
      "anonymous": false,
      "inputs": [
        {
          "indexed": true,
          "internalType": "address",
          "name": "previousOwner",
          "type": "address"
        },
        {
          "indexed": true,
          "internalType": "address",
          "name": "newOwner",
          "type": "address"
        }
      ],
      "name": "OwnershipTransferred",
      "type": "event"
    },
    {
      "anonymous": false,
      "inputs": [
        {
          "indexed": false,
          "internalType": "address",
          "name": "token",
          "type": "address"
        },
        {
          "indexed": false,
          "internalType": "uint256",
          "name": "amount",
          "type": "uint256"
        }
      ],
      "name": "Recovered",
      "type": "event"
    },
    {
      "anonymous": false,
      "inputs": [
        {
          "indexed": false,
          "internalType": "uint256",
          "name": "reward",
          "type": "uint256"
        }
      ],
      "name": "RewardAdded",
      "type": "event"
    },
    {
      "anonymous": false,
      "inputs": [
        {
          "indexed": true,
          "internalType": "address",
          "name": "rewardToken",
          "type": "address"
        },
        {
          "indexed": true,
          "internalType": "address",
          "name": "distributor",
          "type": "address"
        }
      ],
      "name": "RewardDataRegistered",
      "type": "event"
    },
    {
      "anonymous": false,
      "inputs": [
        {
          "indexed": true,
          "internalType": "address",
          "name": "rewardToken",
          "type": "address"
        },
        {
          "indexed": true,
          "internalType": "address",
          "name": "distributor",
          "type": "address"
        },
        {
          "indexed": false,
          "internalType": "bool",
          "name": "approved",
          "type": "bool"
        }
      ],
      "name": "RewardDistributorApproved",
      "type": "event"
    },
    {
      "anonymous": false,
      "inputs": [
        {
          "indexed": true,
          "internalType": "address",
          "name": "rewardDistributor",
          "type": "address"
        }
      ],
      "name": "RewardDistributorSet",
      "type": "event"
    },
    {
      "anonymous": false,
      "inputs": [
        {
          "indexed": true,
          "internalType": "address",
          "name": "newRewardMinter",
          "type": "address"
        }
      ],
      "name": "RewardMinterSet",
      "type": "event"
    },
    {
      "anonymous": false,
      "inputs": [
        {
          "indexed": true,
          "internalType": "address",
          "name": "user",
          "type": "address"
        },
        {
          "indexed": true,
          "internalType": "address",
          "name": "rewardToken",
          "type": "address"
        },
        {
          "indexed": false,
          "internalType": "uint256",
          "name": "reward",
          "type": "uint256"
        }
      ],
      "name": "RewardPaid",
      "type": "event"
    },
    {
      "anonymous": false,
      "inputs": [
        {
          "indexed": false,
          "internalType": "address",
          "name": "token",
          "type": "address"
        },
        {
          "indexed": false,
          "internalType": "uint256",
          "name": "newDuration",
          "type": "uint256"
        }
      ],
      "name": "RewardsDurationUpdated",
      "type": "event"
    },
    {
      "anonymous": false,
      "inputs": [
        {
          "indexed": true,
          "internalType": "address",
          "name": "token",
          "type": "address"
        },
        {
          "indexed": true,
          "internalType": "address",
          "name": "to",
          "type": "address"
        },
        {
          "indexed": false,
          "internalType": "uint256",
          "name": "amount",
          "type": "uint256"
        }
      ],
      "name": "RubyTokenEmergencyWithdrawal",
      "type": "event"
    },
    {
      "anonymous": false,
      "inputs": [
        {
          "indexed": true,
          "internalType": "address",
          "name": "user",
          "type": "address"
        },
        {
          "indexed": false,
          "internalType": "uint256",
          "name": "amount",
          "type": "uint256"
        }
      ],
      "name": "Staked",
      "type": "event"
    },
    {
      "anonymous": false,
      "inputs": [
        {
          "indexed": true,
          "internalType": "address",
          "name": "user",
          "type": "address"
        },
        {
          "indexed": false,
          "internalType": "uint256",
          "name": "amount",
          "type": "uint256"
        }
      ],
      "name": "Withdrawal",
      "type": "event"
    },
    {
      "inputs": [
        {
          "internalType": "address",
          "name": "_rewardsToken",
          "type": "address"
        },
        {
          "internalType": "address",
          "name": "_distributor",
          "type": "address"
        }
      ],
      "name": "addReward",
      "outputs": [],
      "stateMutability": "nonpayable",
      "type": "function"
    },
    {
      "inputs": [
        {
          "internalType": "uint256",
          "name": "_rewardId",
          "type": "uint256"
        },
        {
          "internalType": "address",
          "name": "_distributor",
          "type": "address"
        },
        {
          "internalType": "bool",
          "name": "_approved",
          "type": "bool"
        }
      ],
      "name": "approveRewardDistributor",
      "outputs": [],
      "stateMutability": "nonpayable",
      "type": "function"
    },
    {
      "inputs": [
        {
          "internalType": "address",
          "name": "account",
          "type": "address"
        }
      ],
      "name": "claimableRewards",
      "outputs": [
        {
          "components": [
            {
              "internalType": "address",
              "name": "token",
              "type": "address"
            },
            {
              "internalType": "uint256",
              "name": "amount",
              "type": "uint256"
            }
          ],
          "internalType": "struct RubyStaker.RewardData[]",
          "name": "userRewards",
          "type": "tuple[]"
        }
      ],
      "stateMutability": "view",
      "type": "function"
    },
    {
      "inputs": [
        {
          "internalType": "address",
          "name": "user",
          "type": "address"
        }
      ],
      "name": "earnedBalances",
      "outputs": [
        {
          "internalType": "uint256",
          "name": "total",
          "type": "uint256"
        },
        {
          "components": [
            {
              "internalType": "uint256",
              "name": "amount",
              "type": "uint256"
            },
            {
              "internalType": "uint256",
              "name": "unlockTime",
              "type": "uint256"
            }
          ],
          "internalType": "struct RubyStaker.LockedBalance[]",
          "name": "earningsData",
          "type": "tuple[]"
        }
      ],
      "stateMutability": "view",
      "type": "function"
    },
    {
      "inputs": [
        {
          "internalType": "address",
          "name": "_receiver",
          "type": "address"
        },
        {
          "internalType": "uint256",
          "name": "_amount",
          "type": "uint256"
        }
      ],
      "name": "emergencyWithdrawRubyToken",
      "outputs": [],
      "stateMutability": "nonpayable",
      "type": "function"
    },
    {
      "inputs": [],
      "name": "exit",
      "outputs": [],
      "stateMutability": "nonpayable",
      "type": "function"
    },
    {
      "inputs": [],
      "name": "getReward",
      "outputs": [],
      "stateMutability": "nonpayable",
      "type": "function"
    },
    {
      "inputs": [
        {
          "internalType": "uint256",
          "name": "_rewardId",
          "type": "uint256"
        }
      ],
      "name": "getRewardForDuration",
      "outputs": [
        {
          "internalType": "uint256",
          "name": "",
          "type": "uint256"
        }
      ],
      "stateMutability": "view",
      "type": "function"
    },
    {
      "inputs": [
        {
          "internalType": "uint256",
          "name": "_rewardId",
          "type": "uint256"
        }
      ],
      "name": "lastTimeRewardApplicable",
      "outputs": [
        {
          "internalType": "uint256",
          "name": "",
          "type": "uint256"
        }
      ],
      "stateMutability": "view",
      "type": "function"
    },
    {
      "inputs": [],
      "name": "lockDuration",
      "outputs": [
        {
          "internalType": "uint256",
          "name": "",
          "type": "uint256"
        }
      ],
      "stateMutability": "view",
      "type": "function"
    },
    {
      "inputs": [
        {
          "internalType": "address",
          "name": "user",
          "type": "address"
        }
      ],
      "name": "lockedBalances",
      "outputs": [
        {
          "internalType": "uint256",
          "name": "total",
          "type": "uint256"
        },
        {
          "internalType": "uint256",
          "name": "unlockable",
          "type": "uint256"
        },
        {
          "internalType": "uint256",
          "name": "locked",
          "type": "uint256"
        },
        {
          "components": [
            {
              "internalType": "uint256",
              "name": "amount",
              "type": "uint256"
            },
            {
              "internalType": "uint256",
              "name": "unlockTime",
              "type": "uint256"
            }
          ],
          "internalType": "struct RubyStaker.LockedBalance[]",
          "name": "lockData",
          "type": "tuple[]"
        }
      ],
      "stateMutability": "view",
      "type": "function"
    },
    {
      "inputs": [],
      "name": "lockedSupply",
      "outputs": [
        {
          "internalType": "uint256",
          "name": "",
          "type": "uint256"
        }
      ],
      "stateMutability": "view",
      "type": "function"
    },
    {
      "inputs": [
        {
          "internalType": "address",
          "name": "user",
          "type": "address"
        },
        {
          "internalType": "uint256",
          "name": "amount",
          "type": "uint256"
        }
      ],
      "name": "mint",
      "outputs": [],
      "stateMutability": "nonpayable",
      "type": "function"
    },
    {
      "inputs": [
        {
          "internalType": "uint256",
          "name": "rewardId",
          "type": "uint256"
        },
        {
          "internalType": "uint256",
          "name": "reward",
          "type": "uint256"
        }
      ],
      "name": "notifyRewardAmount",
      "outputs": [],
      "stateMutability": "nonpayable",
      "type": "function"
    },
    {
      "inputs": [],
      "name": "numRewards",
      "outputs": [
        {
          "internalType": "uint256",
          "name": "",
          "type": "uint256"
        }
      ],
      "stateMutability": "view",
      "type": "function"
    },
    {
      "inputs": [],
      "name": "owner",
      "outputs": [
        {
          "internalType": "address",
          "name": "",
          "type": "address"
        }
      ],
      "stateMutability": "view",
      "type": "function"
    },
    {
      "inputs": [
        {
          "internalType": "address",
          "name": "tokenAddress",
          "type": "address"
        },
        {
          "internalType": "uint256",
          "name": "tokenAmount",
          "type": "uint256"
        }
      ],
      "name": "recoverERC20",
      "outputs": [],
      "stateMutability": "nonpayable",
      "type": "function"
    },
    {
      "inputs": [
        {
          "internalType": "address",
          "name": "",
          "type": "address"
        }
      ],
      "name": "registeredRewardTokens",
      "outputs": [
        {
          "internalType": "bool",
          "name": "",
          "type": "bool"
        }
      ],
      "stateMutability": "view",
      "type": "function"
    },
    {
      "inputs": [],
      "name": "renounceOwnership",
      "outputs": [],
      "stateMutability": "nonpayable",
      "type": "function"
    },
    {
      "inputs": [
        {
          "internalType": "uint256",
          "name": "",
          "type": "uint256"
        }
      ],
      "name": "rewardData",
      "outputs": [
        {
          "internalType": "address",
          "name": "rewardToken",
          "type": "address"
        },
        {
          "internalType": "uint256",
          "name": "periodFinish",
          "type": "uint256"
        },
        {
          "internalType": "uint256",
          "name": "rewardRate",
          "type": "uint256"
        },
        {
          "internalType": "uint256",
          "name": "lastUpdateTime",
          "type": "uint256"
        },
        {
          "internalType": "uint256",
          "name": "rewardPerTokenStored",
          "type": "uint256"
        }
      ],
      "stateMutability": "view",
      "type": "function"
    },
    {
      "inputs": [
        {
          "internalType": "uint256",
          "name": "",
          "type": "uint256"
        },
        {
          "internalType": "address",
          "name": "",
          "type": "address"
        }
      ],
      "name": "rewardDistributors",
      "outputs": [
        {
          "internalType": "bool",
          "name": "",
          "type": "bool"
        }
      ],
      "stateMutability": "view",
      "type": "function"
    },
    {
      "inputs": [],
      "name": "rewardMinter",
      "outputs": [
        {
          "internalType": "address",
          "name": "",
          "type": "address"
        }
      ],
      "stateMutability": "view",
      "type": "function"
    },
    {
      "inputs": [
        {
          "internalType": "uint256",
          "name": "_rewardId",
          "type": "uint256"
        }
      ],
      "name": "rewardPerToken",
      "outputs": [
        {
          "internalType": "uint256",
          "name": "",
          "type": "uint256"
        }
      ],
      "stateMutability": "view",
      "type": "function"
    },
    {
      "inputs": [
        {
          "internalType": "address",
          "name": "",
          "type": "address"
        },
        {
          "internalType": "uint256",
          "name": "",
          "type": "uint256"
        }
      ],
      "name": "rewards",
      "outputs": [
        {
          "internalType": "uint256",
          "name": "",
          "type": "uint256"
        }
      ],
      "stateMutability": "view",
      "type": "function"
    },
    {
      "inputs": [],
      "name": "rewardsDuration",
      "outputs": [
        {
          "internalType": "uint256",
          "name": "",
          "type": "uint256"
        }
      ],
      "stateMutability": "view",
      "type": "function"
    },
    {
      "inputs": [],
      "name": "rubyToken",
      "outputs": [
        {
          "internalType": "contract IERC20",
          "name": "",
          "type": "address"
        }
      ],
      "stateMutability": "view",
      "type": "function"
    },
    {
      "inputs": [
        {
          "internalType": "address",
          "name": "_rewardMinter",
          "type": "address"
        }
      ],
      "name": "setRewardMinter",
      "outputs": [],
      "stateMutability": "nonpayable",
      "type": "function"
    },
    {
      "inputs": [
        {
          "internalType": "uint256",
          "name": "amount",
          "type": "uint256"
        },
        {
          "internalType": "bool",
          "name": "lock",
          "type": "bool"
        }
      ],
      "name": "stake",
      "outputs": [],
      "stateMutability": "nonpayable",
      "type": "function"
    },
    {
      "inputs": [
        {
          "internalType": "address",
          "name": "user",
          "type": "address"
        }
      ],
      "name": "totalBalance",
      "outputs": [
        {
          "internalType": "uint256",
          "name": "amount",
          "type": "uint256"
        }
      ],
      "stateMutability": "view",
      "type": "function"
    },
    {
      "inputs": [],
      "name": "totalSupply",
      "outputs": [
        {
          "internalType": "uint256",
          "name": "",
          "type": "uint256"
        }
      ],
      "stateMutability": "view",
      "type": "function"
    },
    {
      "inputs": [
        {
          "internalType": "address",
          "name": "newOwner",
          "type": "address"
        }
      ],
      "name": "transferOwnership",
      "outputs": [],
      "stateMutability": "nonpayable",
      "type": "function"
    },
    {
      "inputs": [
        {
          "internalType": "address",
          "name": "user",
          "type": "address"
        }
      ],
      "name": "unlockedBalance",
      "outputs": [
        {
          "internalType": "uint256",
          "name": "amount",
          "type": "uint256"
        }
      ],
      "stateMutability": "view",
      "type": "function"
    },
    {
      "inputs": [
        {
          "internalType": "address",
          "name": "",
          "type": "address"
        },
        {
          "internalType": "uint256",
          "name": "",
          "type": "uint256"
        }
      ],
      "name": "userRewardPerTokenPaid",
      "outputs": [
        {
          "internalType": "uint256",
          "name": "",
          "type": "uint256"
        }
      ],
      "stateMutability": "view",
      "type": "function"
    },
    {
      "inputs": [
        {
          "internalType": "uint256",
          "name": "amount",
          "type": "uint256"
        }
      ],
      "name": "withdraw",
      "outputs": [],
      "stateMutability": "nonpayable",
      "type": "function"
    },
    {
      "inputs": [],
      "name": "withdrawExpiredLocks",
      "outputs": [],
      "stateMutability": "nonpayable",
      "type": "function"
    },
    {
      "inputs": [
        {
          "internalType": "address",
          "name": "user",
          "type": "address"
        }
      ],
      "name": "withdrawableBalance",
      "outputs": [
        {
          "internalType": "uint256",
          "name": "amount",
          "type": "uint256"
        },
        {
          "internalType": "uint256",
          "name": "penaltyAmount",
          "type": "uint256"
        }
      ],
      "stateMutability": "view",
      "type": "function"
    }
  ],
  "transactionHash": "0x115b54ea68babe374b3480fea5ff5e2bbd3bb343ed3122d1aa1592c0fa930dc8",
  "args": [
    "0x58F2b35dde559F49B9870Ec101c3b1B8433C644d"
  ],
  "solcInputHash": "8b75ed266f40e6abf4518ee2f1992b99",
  "bytecode": "0x60806040523480156200001157600080fd5b50604051620038c3380380620038c3833981016040819052620000349162000116565b60006200004062000112565b600080546001600160a01b0319166001600160a01b0383169081178255604051929350917f8be0079c531659141344cd1fd0a4f28419497f9722a3daafe3b4186f6b6457e0908290a350600180556001600160a01b038116620000c05760405162461bcd60e51b8152600401620000b79062000146565b60405180910390fd5b600280546001600160a01b03199081166001600160a01b03939093169283179091556006805460009081526007602052604090208054909216909217815542600390910155805460010190556200017d565b3390565b60006020828403121562000128578081fd5b81516001600160a01b03811681146200013f578182fd5b9392505050565b6020808252601f908201527f527562795374616b65723a20496e76616c6964207275627920746f6b656e2e00604082015260600190565b613736806200018d6000396000f3fe608060405234801561001057600080fd5b506004361061021c5760003560e01c80636eacd39811610125578063a7a0b84a116100ad578063dc01f60d1161007c578063dc01f60d14610456578063df37987614610476578063e9fad8ee14610497578063eeca15621461049f578063f2fde38b146104b25761021c565b8063a7a0b84a14610415578063abe50f1914610428578063b933ceac1461043b578063ca5c7b911461044e5761021c565b80638980f11f116100f45780638980f11f146103d75780638da5cb5b146103ea5780639b8e5563146103f25780639c09fda6146103fa578063a01c77bc1461040d5761021c565b80636eacd398146103a1578063715018a6146103b45780637d0d53ea146103bc578063874c120b146103c45761021c565b80633c079e28116101a857806340c10f191161017757806340c10f19146103405780635e0fac2e14610353578063620db60914610366578063665c545b1461037b5780636bc9b5611461038e5761021c565b80633c079e28146102ee5780633d18b912146103015780633e3cc2391461030957806340b47e1a1461032d5761021c565b80630e213a3d116101ef5780630e213a3d146102a357806318160ddd146102b6578063246132f9146102be5780632e1a7d4d146102d3578063386a9525146102e65761021c565b806302b6293814610221578063045544431461024b5780630483a7f614610260578063090b161114610283575b600080fd5b61023461022f366004612c3c565b6104c5565b604051610242929190613649565b60405180910390f35b610253610604565b6040516102429190613627565b61027361026e366004612c3c565b61060b565b6040516102429493929190613657565b610296610291366004612c3c565b610799565b6040516102429190612eec565b6102536102b1366004612cd1565b6107ae565b6102536107d3565b6102d16102cc366004612d93565b6107d9565b005b6102d16102e1366004612cd1565b610a3c565b610253610ec3565b6102966102fc366004612d01565b610eca565b6102d1610eea565b61031c610317366004612cd1565b611177565b604051610242959493929190612e66565b6102d161033b366004612c57565b6111b0565b6102d161034e366004612c8b565b6112cf565b610253610361366004612c3c565b61161d565b61036e6116b1565b6040516102429190612e15565b6102d1610389366004612d24565b6116c0565b61025361039c366004612c8b565b6117ca565b6102536103af366004612c3c565b6117e7565b6102d1611802565b61025361188b565b6102536103d2366004612cd1565b611891565b6102d16103e5366004612c8b565b6118b9565b61036e6119b8565b61036e6119c7565b6102d1610408366004612c8b565b6119d6565b6102d1611b5a565b6102d1610423366004612c3c565b611cdb565b6102d1610436366004612d64565b611d90565b610253610449366004612c8b565b612151565b61025361216e565b610469610464366004612c3c565b612174565b6040516102429190612e94565b610489610484366004612c3c565b6122ac565b604051610242929190613630565b6102d16123d0565b6102536104ad366004612cd1565b612617565b6102d16104c0366004612c3c565b612634565b6001600160a01b0381166000908152600c602052604081206003810154829190156105d7576001600160a01b0384166000908152600e6020526040812054815b818110156105af576001600160a01b0387166000908152600e6020526040812080548390811061053157fe5b9060005260206000209060020201600001549050806000141561055457506105a7565b6001600160a01b0388166000908152600e6020526040902080544291908490811061057b57fe5b906000526020600020906002020160010154111561059957506105af565b6105a384826126f4565b9350505b600101610505565b506105d260026105cc84866003015461271990919063ffffffff16565b90612741565b935050505b6105fc826105f6836003015484600101546126f490919063ffffffff16565b90612719565b925050915091565b6277f88081565b6001600160a01b0381166000908152600d602052604081208190819060609082805b8254811015610771574283828154811061064357fe5b906000526020600020906002020160010154111561073f57816106b957825481900367ffffffffffffffff8111801561067b57600080fd5b506040519080825280602002602001820160405280156106b557816020015b6106a2612bb1565b81526020019060019003908161069a5790505b5093505b8281815481106106c557fe5b9060005260206000209060020201604051806040016040529081600082015481526020016001820154815250508483815181106106fe57fe5b6020026020010181905250818060010192505061073883828154811061072057fe5b600091825260209091206002909102015486906126f4565b9450610769565b61076683828154811061074e57fe5b600091825260209091206002909102015487906126f4565b95505b60010161062d565b5050506001600160a01b0385166000908152600c602052604090206002015493509193509193565b60056020526000908152604090205460ff1681565b6000818152600760205260408120600201546107cd9062093a80612773565b92915050565b600a5481565b6000828152600460209081526040808320338452909152902054829060ff1661081d5760405162461bcd60e51b8152600401610814906135ca565b60405180910390fd5b600b54600090819061082f82826127ad565b600080805260076020526000805160206136e18339815191529190915561085590612617565b6000805260076020526000805160206136c1833981519152556001600160a01b038316156108fc576001600160a01b0383166000908152600c60205260408120600201546108a591859184612824565b6001600160a01b03841660008181526009602090815260408083208380528252808320949094556000805160206136e18339815191525483835260088252848320838052825284832055918152600c909152205491505b50600a5460015b60065481116109ad5761091681836127ad565b60008281526007602052604090206004015561093181612617565b6000828152600760205260409020600301556001600160a01b038416156109a55761095e84828585612824565b6001600160a01b0385166000818152600960209081526040808320868452825280832094909455600781528382206004015492825260088152838220858352905291909120555b600101610903565b50600085116109ce5760405162461bcd60e51b8152600401610814906133cc565b6000868152600760205260409020546001600160a01b03166109f281333089612891565b6109fc87876128ef565b7fde88a922e0d3b88b24e9623efeb464919c6bf9f66857a65e2bfcf2ce87a9433d86604051610a2b9190613627565b60405180910390a150505050505050565b60026001541415610a5f5760405162461bcd60e51b81526004016108149061354b565b6002600155600b543390600090610a7682826127ad565b600080805260076020526000805160206136e183398151915291909155610a9c90612617565b6000805260076020526000805160206136c1833981519152556001600160a01b03831615610b43576001600160a01b0383166000908152600c6020526040812060020154610aec91859184612824565b6001600160a01b03841660008181526009602090815260408083208380528252808320949094556000805160206136e18339815191525483835260088252848320838052825284832055918152600c909152205491505b50600a5460015b6006548111610bf457610b5d81836127ad565b600082815260076020526040902060040155610b7881612617565b6000828152600760205260409020600301556001600160a01b03841615610bec57610ba584828585612824565b6001600160a01b0385166000818152600960209081526040808320868452825280832094909455600781528382206004015492825260088152838220858352905291909120555b600101610b4a565b5060008411610c155760405162461bcd60e51b815260040161081490612f6c565b336000908152600c6020526040812060018101549091908611610c4b576001820154610c419087612719565b6001830155610e20565b6000610c6483600101548861271990919063ffffffff16565b90508083600301541015610c8a5760405162461bcd60e51b815260040161081490613265565b600060018401556003830154610ca09082612719565b600384015560005b336000908152600e60205260408120805483908110610cc357fe5b90600052602060002090600202016000015490508060001415610ce65750610e15565b83158015610d215750336000908152600e60205260409020805442919084908110610d0d57fe5b906000526020600020906002020160010154115b15610d93578293508285600301541015610d4d5760405162461bcd60e51b815260040161081490613107565b6003850154610d5c9084612719565b60038601819055610d8557336000908152600e60205260408120610d7f91612bcb565b50610e1d565b610d90836002612773565b92505b808311610dd657610da48184612719565b336000908152600e60205260409020805484908110610dbf57fe5b600091825260209091206002909102015550610e1d565b336000908152600e60205260409020805483908110610df157fe5b60009182526020822060029091020181815560010155610e118382612719565b9250505b600101610ca8565b50505b6000610e2c87836126f4565b8354909150610e3b9082612719565b8355600a54610e4a9082612719565b600a55600254610e64906001600160a01b031633896129cd565b8115610e7557610e756000836128ef565b336001600160a01b03167f7fcf532c15f0a6db0bd6d0e038bea71d30d808c7d98cb3bf7268a95bf5081b6588604051610eae9190613627565b60405180910390a25050600180555050505050565b62093a8081565b600460209081526000928352604080842090915290825290205460ff1681565b60026001541415610f0d5760405162461bcd60e51b81526004016108149061354b565b6002600155600b543390600090610f2482826127ad565b600080805260076020526000805160206136e183398151915291909155610f4a90612617565b6000805260076020526000805160206136c1833981519152556001600160a01b03831615610ff1576001600160a01b0383166000908152600c6020526040812060020154610f9a91859184612824565b6001600160a01b03841660008181526009602090815260408083208380528252808320949094556000805160206136e18339815191525483835260088252848320838052825284832055918152600c909152205491505b50600a5460015b60065481116110a25761100b81836127ad565b60008281526007602052604090206004015561102681612617565b6000828152600760205260409020600301556001600160a01b0384161561109a5761105384828585612824565b6001600160a01b0385166000818152600960209081526040808320868452825280832094909455600781528382206004015492825260088152838220858352905291909120555b600101610ff8565b5060005b600654811161116d5760008181526007602090815260408083205433845260098352818420858552909252909120546001600160a01b0390911690801561116357336000818152600960209081526040808320878452909152812055611117906001600160a01b03841690836129cd565b816001600160a01b0316336001600160a01b03167f540798df468d7b23d11f156fdb954cb19ad414d150722a7b6d55ba369dea792e8360405161115a9190613627565b60405180910390a35b50506001016110a6565b5050600180555050565b600760205260009081526040902080546001820154600283015460038401546004909401546001600160a01b0390931693919290919085565b6111b86129f1565b6001600160a01b03166111c96119b8565b6001600160a01b0316146111ef5760405162461bcd60e51b815260040161081490613397565b6001600160a01b03821660009081526005602052604090205460ff16156112285760405162461bcd60e51b81526004016108149061319b565b6001600160a01b0382811660008181526005602090815260408083208054600160ff199182168117909255600680548087526007865284872042600382018190558186015580546001600160a01b0319168917905560048652848720988a1680885298909552838620805490921683179091558054909101905551909392917f404846f3ec1aee6b703b7f9e49bfd8853de4a93edae98f2acf13e83891694bd191a3505050565b6003546001600160a01b031633146112f95760405162461bcd60e51b8152600401610814906132ae565b600b54829060009061130b82826127ad565b600080805260076020526000805160206136e18339815191529190915561133190612617565b6000805260076020526000805160206136c1833981519152556001600160a01b038316156113d8576001600160a01b0383166000908152600c602052604081206002015461138191859184612824565b6001600160a01b03841660008181526009602090815260408083208380528252808320949094556000805160206136e18339815191525483835260088252848320838052825284832055918152600c909152205491505b50600a5460015b6006548111611489576113f281836127ad565b60008281526007602052604090206004015561140d81612617565b6000828152600760205260409020600301556001600160a01b038416156114815761143a84828585612824565b6001600160a01b0385166000818152600960209081526040808320868452825280832094909455600781528382206004015492825260088152838220858352905291909120555b6001016113df565b50600a5461149790856126f4565b600a556001600160a01b0385166000908152600c6020526040902080546114be90866126f4565b815560038101546114cf90866126f4565b600382015560006114fa6277f8806114f462093a806114ee4282612741565b90612773565b906126f4565b6001600160a01b0388166000908152600e6020526040902080549192509080158061154457508282600183038154811061153057fe5b906000526020600020906002020160010154105b156115865760408051808201909152888152602080820185815284546001818101875560008781529390932093516002909102909301928355519101556115d1565b6115b08883600184038154811061159957fe5b6000918252602090912060029091020154906126f4565b8260018303815481106115bf57fe5b60009182526020909120600290910201555b886001600160a01b03167f9e71bc8eea02a63969f509818f2dafb9254532904319f9dbda79b67bd34a5f3d8960405161160a9190613627565b60405180910390a2505050505050505050565b6001600160a01b0381166000908152600c6020908152604080832060010154600e909252822090915b81548110156116aa574282828154811061165c57fe5b9060005260206000209060020201600101541115611679576116aa565b6116a082828154811061168857fe5b600091825260209091206002909102015484906126f4565b9250600101611646565b5050919050565b6002546001600160a01b031681565b6116c86129f1565b6001600160a01b03166116d96119b8565b6001600160a01b0316146116ff5760405162461bcd60e51b815260040161081490613397565b6000831161171f5760405162461bcd60e51b81526004016108149061344c565b60008381526007602052604090206003015461174d5760405162461bcd60e51b81526004016108149061302d565b60008381526004602090815260408083206001600160a01b03868116808652918452828520805460ff19168715151790558785526007909352928190205490519116907fd890240fb430b9ed4ff1d263f43a0a2922d16349b3d2d71015f86a3e1d3e8848906117bd908590612eec565b60405180910390a3505050565b600860209081526000928352604080842090915290825290205481565b6001600160a01b03166000908152600c602052604090205490565b61180a6129f1565b6001600160a01b031661181b6119b8565b6001600160a01b0316146118415760405162461bcd60e51b815260040161081490613397565b600080546040516001600160a01b03909116907f8be0079c531659141344cd1fd0a4f28419497f9722a3daafe3b4186f6b6457e0908390a3600080546001600160a01b0319169055565b60065481565b60008082156118a257600a546118a6565b600b545b90506118b283826127ad565b9392505050565b6118c16129f1565b6001600160a01b03166118d26119b8565b6001600160a01b0316146118f85760405162461bcd60e51b815260040161081490613397565b6002546001600160a01b03838116911614156119265760405162461bcd60e51b815260040161081490613403565b6001600160a01b03821660009081526005602052604090205460ff161561195f5760405162461bcd60e51b815260040161081490613582565b61197b61196a6119b8565b6001600160a01b03841690836129cd565b7f8c1256b8896378cd5044f80c202f9772b9d77dc85c8a6eb51967210b09bfaa2882826040516119ac929190612e4d565b60405180910390a15050565b6000546001600160a01b031690565b6003546001600160a01b031681565b6119de6129f1565b6001600160a01b03166119ef6119b8565b6001600160a01b031614611a155760405162461bcd60e51b815260040161081490613397565b6001600160a01b038216611a3b5760405162461bcd60e51b815260040161081490613483565b80611a585760405162461bcd60e51b81526004016108149061308a565b6002546040516370a0823160e01b815282916001600160a01b0316906370a0823190611a88903090600401612e15565b60206040518083038186803b158015611aa057600080fd5b505afa158015611ab4573d6000803e3d6000fd5b505050506040513d601f19601f82011682018060405250810190611ad89190612ce9565b1015611af65760405162461bcd60e51b81526004016108149061330b565b600254611b0d906001600160a01b031683836129cd565b6002546040516001600160a01b038085169216907f611ecce070d9fee1379f3494154f3af8e8ea5eac42d8328405b91fad8d36e60c90611b4e908590613627565b60405180910390a35050565b336000908152600d60209081526040808320600c909252822081549192909142846000198301838110611b8957fe5b90600052602060002090600202016001015411611bc6576002830154336000908152600d60205260408120919350611bc19190612bcb565b611c3b565b60005b81811015611c395742858281548110611bde57fe5b9060005260206000209060020201600101541115611bfb57611c39565b611c0a85828154811061168857fe5b9250848181548110611c1857fe5b60009182526020822060029091020181815560019081019190915501611bc9565b505b6002830154611c4a9083612719565b60028401558254611c5b9083612719565b8355600a54611c6a9083612719565b600a55600b54611c7a9083612719565b600b55600254611c94906001600160a01b031633846129cd565b336001600160a01b03167f9d1e9c3047225903b4713486d5a2f267dcd41d8b979056b275dd20330107c54583604051611ccd9190613627565b60405180910390a250505050565b611ce36129f1565b6001600160a01b0316611cf46119b8565b6001600160a01b031614611d1a5760405162461bcd60e51b815260040161081490613397565b6001600160a01b038116611d405760405162461bcd60e51b8152600401610814906131e8565b600380546001600160a01b0319166001600160a01b0383811691909117918290556040519116907f2ad2d6dc5545aec43acc94f1b5c82f80a64f6c7ffae5eb863a8b3d02d1bf973e90600090a250565b60026001541415611db35760405162461bcd60e51b81526004016108149061354b565b6002600155600b543390600090611dca82826127ad565b600080805260076020526000805160206136e183398151915291909155611df090612617565b6000805260076020526000805160206136c1833981519152556001600160a01b03831615611e97576001600160a01b0383166000908152600c6020526040812060020154611e4091859184612824565b6001600160a01b03841660008181526009602090815260408083208380528252808320949094556000805160206136e18339815191525483835260088252848320838052825284832055918152600c909152205491505b50600a5460015b6006548111611f4857611eb181836127ad565b600082815260076020526040902060040155611ecc81612617565b6000828152600760205260409020600301556001600160a01b03841615611f4057611ef984828585612824565b6001600160a01b0385166000818152600960209081526040808320868452825280832094909455600781528382206004015492825260088152838220858352905291909120555b600101611e9e565b5060008511611f695760405162461bcd60e51b815260040161081490612f2a565b600a54611f7690866126f4565b600a55336000908152600c602052604090208054611f9490876126f4565b815584156120d757600b54611fa990876126f4565b600b556002810154611fbb90876126f4565b60028201556000611fda6277f8806114f462093a806114ee4282612741565b336000908152600d602052604090205490915080158061202b5750336000908152600d602052604090208054839190600019840190811061201757fe5b906000526020600020906002020160010154105b1561207a57336000908152600d6020908152604080832081518083019092528b8252818301868152815460018181018455928652939094209151600290930290910191825591519101556120d0565b336000908152600d60205260409020805461209f918a91600019850190811061159957fe5b336000908152600d60205260409020805460001984019081106120be57fe5b60009182526020909120600290910201555b50506120ec565b60018101546120e690876126f4565b60018201555b600254612104906001600160a01b0316333089612891565b336001600160a01b03167f9e71bc8eea02a63969f509818f2dafb9254532904319f9dbda79b67bd34a5f3d8760405161213d9190613627565b60405180910390a250506001805550505050565b600960209081526000928352604080842090915290825290205481565b600b5481565b606060065460010167ffffffffffffffff8111801561219257600080fd5b506040519080825280602002602001820160405280156121cc57816020015b6121b9612bef565b8152602001906001900390816121b15790505b50905060005b60065481116122a65760008115612201576001600160a01b0384166000908152600c602052604090205461221e565b6001600160a01b0384166000908152600c60205260409020600201545b90506000821561223057600a54612234565b600b545b60008481526007602052604090205485519192506001600160a01b03169085908590811061225e57fe5b60209081029190910101516001600160a01b03909116905261228285848484612824565b84848151811061228e57fe5b602090810291909101810151015250506001016121d2565b50919050565b6001600160a01b0381166000908152600e6020526040812060609082805b82548110156123c857428382815481106122e057fe5b90600052602060002090600202016001015411156123c0578161235657825481900367ffffffffffffffff8111801561231857600080fd5b5060405190808252806020026020018201604052801561235257816020015b61233f612bb1565b8152602001906001900390816123375790505b5093505b82818154811061236257fe5b90600052602060002090600202016040518060400160405290816000820154815260200160018201548152505084838151811061239b57fe5b602002602001018190525081806001019250506123bd83828154811061072057fe5b94505b6001016122ca565b505050915091565b600b5433906000906123e282826127ad565b600080805260076020526000805160206136e18339815191529190915561240890612617565b6000805260076020526000805160206136c1833981519152556001600160a01b038316156124af576001600160a01b0383166000908152600c602052604081206002015461245891859184612824565b6001600160a01b03841660008181526009602090815260408083208380528252808320949094556000805160206136e18339815191525483835260088252848320838052825284832055918152600c909152205491505b50600a5460015b6006548111612560576124c981836127ad565b6000828152600760205260409020600401556124e481612617565b6000828152600760205260409020600301556001600160a01b038416156125585761251184828585612824565b6001600160a01b0385166000818152600960209081526040808320868452825280832094909455600781528382206004015492825260088152838220858352905291909120555b6001016124b6565b5060008061256d336104c5565b336000908152600e6020526040812092945090925061258c9190612bcb565b336000908152600c602052604090206003810154600182015482546125b692916105f69190612719565b815560006001820181905560038201556125dc6125d384846126f4565b600a5490612719565b600a556002546125f6906001600160a01b031633856129cd565b8115612607576126076000836128ef565b61260f610eea565b505050505050565b6000818152600760205260408120600101546107cd9042906129f5565b61263c6129f1565b6001600160a01b031661264d6119b8565b6001600160a01b0316146126735760405162461bcd60e51b815260040161081490613397565b6001600160a01b0381166126995760405162461bcd60e51b815260040161081490612fb0565b600080546040516001600160a01b03808516939216917f8be0079c531659141344cd1fd0a4f28419497f9722a3daafe3b4186f6b6457e091a3600080546001600160a01b0319166001600160a01b0392909216919091179055565b6000828201838110156118b25760405162461bcd60e51b815260040161081490612ff6565b60008282111561273b5760405162461bcd60e51b8152600401610814906130d0565b50900390565b60008082116127625760405162461bcd60e51b81526004016108149061322e565b81838161276b57fe5b049392505050565b600082612782575060006107cd565b8282028284828161278f57fe5b04146118b25760405162461bcd60e51b815260040161081490613356565b6000816127cc57506000828152600760205260409020600401546107cd565b600083815260076020526040902060028101546003909101546118b29161280c9185916105cc91670de0b6b3a7640000916114ee9182906105f68c612617565b600085815260076020526040902060040154906126f4565b6001600160a01b0384166000818152600960209081526040808320878452825280832054938352600882528083208784529091528120549091612888916114f490670de0b6b3a7640000906105cc90612881906105f68b8a6127ad565b8890612773565b95945050505050565b6128e9846323b872dd60e01b8585856040516024016128b293929190612e29565b60408051601f198184030181529190526020810180516001600160e01b03166001600160e01b031990931692909217909152612a0b565b50505050565b600082815260076020526040902060010154421061292b576129148162093a80612741565b600083815260076020526040902060020155612990565b6000828152600760205260408120600101546129479042612719565b60008481526007602052604081206002015491925090612968908390612773565b905061297b62093a806105cc85846126f4565b60008581526007602052604090206002015550505b60008281526007602052604090204260039091018190556129b49062093a806126f4565b6000928352600760205260409092206001019190915550565b6129ec8363a9059cbb60e01b84846040516024016128b2929190612e4d565b505050565b3390565b6000818310612a0457816118b2565b5090919050565b6060612a60826040518060400160405280602081526020017f5361666545524332303a206c6f772d6c6576656c2063616c6c206661696c6564815250856001600160a01b0316612a9a9092919063ffffffff16565b8051909150156129ec5780806020019051810190612a7e9190612cb5565b6129ec5760405162461bcd60e51b815260040161081490613501565b6060612aa98484600085612ab1565b949350505050565b606082471015612ad35760405162461bcd60e51b815260040161081490613155565b612adc85612b72565b612af85760405162461bcd60e51b8152600401610814906134ca565b60006060866001600160a01b03168587604051612b159190612df9565b60006040518083038185875af1925050503d8060008114612b52576040519150601f19603f3d011682016040523d82523d6000602084013e612b57565b606091505b5091509150612b67828286612b78565b979650505050505050565b3b151590565b60608315612b875750816118b2565b825115612b975782518084602001fd5b8160405162461bcd60e51b81526004016108149190612ef7565b604051806040016040528060008152602001600081525090565b5080546000825560020290600052602060002090810190612bec9190612c06565b50565b604080518082019091526000808252602082015290565b5b80821115612c215760008082556001820155600201612c07565b5090565b80356001600160a01b03811681146107cd57600080fd5b600060208284031215612c4d578081fd5b6118b28383612c25565b60008060408385031215612c69578081fd5b612c738484612c25565b9150612c828460208501612c25565b90509250929050565b60008060408385031215612c9d578182fd5b612ca78484612c25565b946020939093013593505050565b600060208284031215612cc6578081fd5b81516118b2816136b2565b600060208284031215612ce2578081fd5b5035919050565b600060208284031215612cfa578081fd5b5051919050565b60008060408385031215612d13578182fd5b82359150612c828460208501612c25565b600080600060608486031215612d38578081fd5b83359250612d498560208601612c25565b91506040840135612d59816136b2565b809150509250925092565b60008060408385031215612d76578182fd5b823591506020830135612d88816136b2565b809150509250929050565b60008060408385031215612da5578182fd5b50508035926020909101359150565b6000815180845260208085019450808401835b83811015612dee578151805188528301518388015260409096019590820190600101612dc7565b509495945050505050565b60008251612e0b818460208701613686565b9190910192915050565b6001600160a01b0391909116815260200190565b6001600160a01b039384168152919092166020820152604081019190915260600190565b6001600160a01b03929092168252602082015260400190565b6001600160a01b03959095168552602085019390935260408401919091526060830152608082015260a00190565b602080825282518282018190526000919060409081850190868401855b82811015612edf57815180516001600160a01b03168552860151868501529284019290850190600101612eb1565b5091979650505050505050565b901515815260200190565b6000602082528251806020840152612f16816040850160208701613686565b601f01601f19169190910160400192915050565b60208082526022908201527f527562795374616b65723a20496e76616c6964207374616b696e6720616d6f756040820152611b9d60f21b606082015260800190565b60208082526024908201527f527562795374616b65723a20496e76616c696420776974686472617720616d6f6040820152633ab73a1760e11b606082015260800190565b60208082526026908201527f4f776e61626c653a206e6577206f776e657220697320746865207a65726f206160408201526564647265737360d01b606082015260800190565b6020808252601b908201527f536166654d6174683a206164646974696f6e206f766572666c6f770000000000604082015260600190565b60208082526037908201527f527562795374616b65723a20496e76616c69642072657761726420646973747260408201527f696275746f7220617070726f76616c2072657175657374000000000000000000606082015260800190565b60208082526026908201527f527562795374616b65723a20496e76616c6964207769746864726177616c206160408201526536b7bab73a1760d11b606082015260800190565b6020808252601e908201527f536166654d6174683a207375627472616374696f6e206f766572666c6f770000604082015260600190565b6020808252602e908201527f527562795374616b65723a20496e73756666696369656e742062616c616e636560408201526d2061667465722070656e616c747960901b606082015260800190565b60208082526026908201527f416464726573733a20696e73756666696369656e742062616c616e636520666f6040820152651c8818d85b1b60d21b606082015260800190565b6020808252602d908201527f527562795374616b65723a205265776172647320746f6b656e20616c7265616460408201526c3c903932b3b4b9ba32b932b21760991b606082015260800190565b60208082526026908201527f527562795374616b65723a20496e76616c6964206e657720726577617264206d60408201526534b73a32b91760d11b606082015260800190565b6020808252601a908201527f536166654d6174683a206469766973696f6e206279207a65726f000000000000604082015260600190565b60208082526029908201527f527562795374616b65723a20496e73756666696369656e7420756e6c6f636b65604082015268642062616c616e636560b81b606082015260800190565b60208082526037908201527f527562795374616b65723a204f6e6c7920726577617264206d696e746572206360408201527f616e2065786563757465207468697320616374696f6e2e000000000000000000606082015260800190565b6020808252602b908201527f527562795374616b65723a204e6f7420656e6f7567682062616c616e6365207460408201526a37903bb4ba34323930bb9760a91b606082015260800190565b60208082526021908201527f536166654d6174683a206d756c7469706c69636174696f6e206f766572666c6f6040820152607760f81b606082015260800190565b6020808252818101527f4f776e61626c653a2063616c6c6572206973206e6f7420746865206f776e6572604082015260600190565b60208082526017908201527f527562795374616b696e673a204e6f207265776172642e000000000000000000604082015260600190565b60208082526029908201527f527562795374616b65723a2043616e6e6f74207769746864726177207374616b60408201526834b733903a37b5b2b760b91b606082015260800190565b6020808252601d908201527f527562795374616b65723a20496e76616c69642072657761726449642e000000604082015260600190565b60208082526027908201527f527562795374616b65723a20496e76616c6964207769746864726177616c206160408201526632323932b9b99760c91b606082015260800190565b6020808252601d908201527f416464726573733a2063616c6c20746f206e6f6e2d636f6e7472616374000000604082015260600190565b6020808252602a908201527f5361666545524332303a204552433230206f7065726174696f6e20646964206e6040820152691bdd081cdd58d8d9595960b21b606082015260800190565b6020808252601f908201527f5265656e7472616e637947756172643a207265656e7472616e742063616c6c00604082015260600190565b60208082526028908201527f527562795374616b65723a2043616e6e6f7420776974686472617720726577616040820152673932103a37b5b2b760c11b606082015260800190565b6020808252603c908201527f527562795374616b65723a204f6e6c792072657761726420646973747269627560408201527f746f722063616e2065786563757465207468697320616374696f6e2e00000000606082015260800190565b90815260200190565b600083825260406020830152612aa96040830184612db4565b918252602082015260400190565b60008582528460208301528360408301526080606083015261367c6080830184612db4565b9695505050505050565b60005b838110156136a1578181015183820152602001613689565b838111156128e95750506000910152565b8015158114612bec57600080fdfe6d5257204ebe7d88fd91ae87941cb2dd9d8062b64ae5a2bd2d28ec40b9fbf6e26d5257204ebe7d88fd91ae87941cb2dd9d8062b64ae5a2bd2d28ec40b9fbf6e3a264697066735822122099fae2185c5019b65a13166fa26f430f9f769cefc0952f3d896320084fabf82d64736f6c634300060c0033",
  "devdoc": {
    "kind": "dev",
    "methods": {
      "owner()": {
        "details": "Returns the address of the current owner."
      },
      "renounceOwnership()": {
        "details": "Leaves the contract without owner. It will not be possible to call `onlyOwner` functions anymore. Can only be called by the current owner. NOTE: Renouncing ownership will leave the contract without an owner, thereby removing any functionality that is only available to the owner."
      },
      "transferOwnership(address)": {
        "details": "Transfers ownership of the contract to a new account (`newOwner`). Can only be called by the current owner."
      }
    },
    "version": 1
  },
  "userdoc": {
    "kind": "user",
    "methods": {
      "emergencyWithdrawRubyToken(address,uint256)": {
        "notice": "Owner should be able to withdraw all the Reward tokens in case of emergency. The owner should be able to withdraw the tokens to himself or another address The RubyStaker contract will be placed behind a timelock, and the owner/deployer will be a multisig, so this should not raise trust concerns. This function is needed because the RubyStaker will be pre-fed with all of the reward tokens (RUBY) tokens dedicated for liquidity mining incentives, and incase of unfortunate situation they should be retreived."
      }
    },
    "version": 1
  },
  "storageLayout": {
    "storage": [
      {
        "astId": 2120,
        "contract": "contracts/RubyStaker.sol:RubyStaker",
        "label": "_owner",
        "offset": 0,
        "slot": "0",
        "type": "t_address"
      },
      {
        "astId": 6341,
        "contract": "contracts/RubyStaker.sol:RubyStaker",
        "label": "_status",
        "offset": 0,
        "slot": "1",
        "type": "t_uint256"
      },
      {
        "astId": 8954,
        "contract": "contracts/RubyStaker.sol:RubyStaker",
        "label": "rubyToken",
        "offset": 0,
        "slot": "2",
        "type": "t_contract(IERC20)3530"
      },
      {
        "astId": 8956,
        "contract": "contracts/RubyStaker.sol:RubyStaker",
        "label": "rewardMinter",
        "offset": 0,
        "slot": "3",
        "type": "t_address"
      },
      {
        "astId": 8962,
        "contract": "contracts/RubyStaker.sol:RubyStaker",
        "label": "rewardDistributors",
        "offset": 0,
        "slot": "4",
        "type": "t_mapping(t_uint256,t_mapping(t_address,t_bool))"
      },
      {
        "astId": 8966,
        "contract": "contracts/RubyStaker.sol:RubyStaker",
        "label": "registeredRewardTokens",
        "offset": 0,
        "slot": "5",
        "type": "t_mapping(t_address,t_bool)"
      },
      {
        "astId": 8968,
        "contract": "contracts/RubyStaker.sol:RubyStaker",
        "label": "numRewards",
        "offset": 0,
        "slot": "6",
        "type": "t_uint256"
      },
      {
        "astId": 8972,
        "contract": "contracts/RubyStaker.sol:RubyStaker",
        "label": "rewardData",
        "offset": 0,
        "slot": "7",
        "type": "t_mapping(t_uint256,t_struct(Reward)8933_storage)"
      },
      {
        "astId": 8988,
        "contract": "contracts/RubyStaker.sol:RubyStaker",
        "label": "userRewardPerTokenPaid",
        "offset": 0,
        "slot": "8",
        "type": "t_mapping(t_address,t_mapping(t_uint256,t_uint256))"
      },
      {
        "astId": 8994,
        "contract": "contracts/RubyStaker.sol:RubyStaker",
        "label": "rewards",
        "offset": 0,
        "slot": "9",
        "type": "t_mapping(t_address,t_mapping(t_uint256,t_uint256))"
      },
      {
        "astId": 8996,
        "contract": "contracts/RubyStaker.sol:RubyStaker",
        "label": "totalSupply",
        "offset": 0,
        "slot": "10",
        "type": "t_uint256"
      },
      {
        "astId": 8998,
        "contract": "contracts/RubyStaker.sol:RubyStaker",
        "label": "lockedSupply",
        "offset": 0,
        "slot": "11",
        "type": "t_uint256"
      },
      {
        "astId": 9002,
        "contract": "contracts/RubyStaker.sol:RubyStaker",
        "label": "balances",
        "offset": 0,
        "slot": "12",
        "type": "t_mapping(t_address,t_struct(Balances)8942_storage)"
      },
      {
        "astId": 9007,
        "contract": "contracts/RubyStaker.sol:RubyStaker",
        "label": "userLocks",
        "offset": 0,
        "slot": "13",
        "type": "t_mapping(t_address,t_array(t_struct(LockedBalance)8947_storage)dyn_storage)"
      },
      {
        "astId": 9012,
        "contract": "contracts/RubyStaker.sol:RubyStaker",
        "label": "userEarnings",
        "offset": 0,
        "slot": "14",
        "type": "t_mapping(t_address,t_array(t_struct(LockedBalance)8947_storage)dyn_storage)"
      }
    ],
    "types": {
      "t_address": {
        "encoding": "inplace",
        "label": "address",
        "numberOfBytes": "20"
      },
      "t_array(t_struct(LockedBalance)8947_storage)dyn_storage": {
        "base": "t_struct(LockedBalance)8947_storage",
        "encoding": "dynamic_array",
        "label": "struct RubyStaker.LockedBalance[]",
        "numberOfBytes": "32"
      },
      "t_bool": {
        "encoding": "inplace",
        "label": "bool",
        "numberOfBytes": "1"
      },
      "t_contract(IERC20)3530": {
        "encoding": "inplace",
        "label": "contract IERC20",
        "numberOfBytes": "20"
      },
      "t_mapping(t_address,t_array(t_struct(LockedBalance)8947_storage)dyn_storage)": {
        "encoding": "mapping",
        "key": "t_address",
        "label": "mapping(address => struct RubyStaker.LockedBalance[])",
        "numberOfBytes": "32",
        "value": "t_array(t_struct(LockedBalance)8947_storage)dyn_storage"
      },
      "t_mapping(t_address,t_bool)": {
        "encoding": "mapping",
        "key": "t_address",
        "label": "mapping(address => bool)",
        "numberOfBytes": "32",
        "value": "t_bool"
      },
      "t_mapping(t_address,t_mapping(t_uint256,t_uint256))": {
        "encoding": "mapping",
        "key": "t_address",
        "label": "mapping(address => mapping(uint256 => uint256))",
        "numberOfBytes": "32",
        "value": "t_mapping(t_uint256,t_uint256)"
      },
      "t_mapping(t_address,t_struct(Balances)8942_storage)": {
        "encoding": "mapping",
        "key": "t_address",
        "label": "mapping(address => struct RubyStaker.Balances)",
        "numberOfBytes": "32",
        "value": "t_struct(Balances)8942_storage"
      },
      "t_mapping(t_uint256,t_mapping(t_address,t_bool))": {
        "encoding": "mapping",
        "key": "t_uint256",
        "label": "mapping(uint256 => mapping(address => bool))",
        "numberOfBytes": "32",
        "value": "t_mapping(t_address,t_bool)"
      },
      "t_mapping(t_uint256,t_struct(Reward)8933_storage)": {
        "encoding": "mapping",
        "key": "t_uint256",
        "label": "mapping(uint256 => struct RubyStaker.Reward)",
        "numberOfBytes": "32",
        "value": "t_struct(Reward)8933_storage"
      },
      "t_mapping(t_uint256,t_uint256)": {
        "encoding": "mapping",
        "key": "t_uint256",
        "label": "mapping(uint256 => uint256)",
        "numberOfBytes": "32",
        "value": "t_uint256"
      },
      "t_struct(Balances)8942_storage": {
        "encoding": "inplace",
        "label": "struct RubyStaker.Balances",
        "members": [
          {
            "astId": 8935,
            "contract": "contracts/RubyStaker.sol:RubyStaker",
            "label": "total",
            "offset": 0,
            "slot": "0",
            "type": "t_uint256"
          },
          {
            "astId": 8937,
            "contract": "contracts/RubyStaker.sol:RubyStaker",
            "label": "unlocked",
            "offset": 0,
            "slot": "1",
            "type": "t_uint256"
          },
          {
            "astId": 8939,
            "contract": "contracts/RubyStaker.sol:RubyStaker",
            "label": "locked",
            "offset": 0,
            "slot": "2",
            "type": "t_uint256"
          },
          {
            "astId": 8941,
            "contract": "contracts/RubyStaker.sol:RubyStaker",
            "label": "earned",
            "offset": 0,
            "slot": "3",
            "type": "t_uint256"
          }
        ],
        "numberOfBytes": "128"
      },
      "t_struct(LockedBalance)8947_storage": {
        "encoding": "inplace",
        "label": "struct RubyStaker.LockedBalance",
        "members": [
          {
            "astId": 8944,
            "contract": "contracts/RubyStaker.sol:RubyStaker",
            "label": "amount",
            "offset": 0,
            "slot": "0",
            "type": "t_uint256"
          },
          {
            "astId": 8946,
            "contract": "contracts/RubyStaker.sol:RubyStaker",
            "label": "unlockTime",
            "offset": 0,
            "slot": "1",
            "type": "t_uint256"
          }
        ],
        "numberOfBytes": "64"
      },
      "t_struct(Reward)8933_storage": {
        "encoding": "inplace",
        "label": "struct RubyStaker.Reward",
        "members": [
          {
            "astId": 8924,
            "contract": "contracts/RubyStaker.sol:RubyStaker",
            "label": "rewardToken",
            "offset": 0,
            "slot": "0",
            "type": "t_address"
          },
          {
            "astId": 8926,
            "contract": "contracts/RubyStaker.sol:RubyStaker",
            "label": "periodFinish",
            "offset": 0,
            "slot": "1",
            "type": "t_uint256"
          },
          {
            "astId": 8928,
            "contract": "contracts/RubyStaker.sol:RubyStaker",
            "label": "rewardRate",
            "offset": 0,
            "slot": "2",
            "type": "t_uint256"
          },
          {
            "astId": 8930,
            "contract": "contracts/RubyStaker.sol:RubyStaker",
            "label": "lastUpdateTime",
            "offset": 0,
            "slot": "3",
            "type": "t_uint256"
          },
          {
            "astId": 8932,
            "contract": "contracts/RubyStaker.sol:RubyStaker",
            "label": "rewardPerTokenStored",
            "offset": 0,
            "slot": "4",
            "type": "t_uint256"
          }
        ],
        "numberOfBytes": "160"
      },
      "t_uint256": {
        "encoding": "inplace",
        "label": "uint256",
        "numberOfBytes": "32"
      }
    }
  }
}