{
  "address": "0x699D09C9B1E33518eC3715F30ac696C59a2d34c8",
  "abi": [
    {
      "anonymous": false,
      "inputs": [
        {
          "indexed": false,
          "internalType": "uint256",
          "name": "maxSwapHops",
          "type": "uint256"
        }
      ],
      "name": "MaxSwapHopsSet",
      "type": "event"
    },
    {
      "anonymous": false,
      "inputs": [
        {
          "indexed": true,
          "internalType": "address",
          "name": "previousOwner",
          "type": "address"
        },
        {
          "indexed": true,
          "internalType": "address",
          "name": "newOwner",
          "type": "address"
        }
      ],
      "name": "OwnershipTransferred",
      "type": "event"
    },
    {
      "anonymous": false,
      "inputs": [
        {
          "indexed": true,
          "internalType": "contract ISwap",
          "name": "stablePool",
          "type": "address"
        }
      ],
      "name": "StablePoolDisabled",
      "type": "event"
    },
    {
      "anonymous": false,
      "inputs": [
        {
          "indexed": true,
          "internalType": "contract ISwap",
          "name": "stablePool",
          "type": "address"
        }
      ],
      "name": "StablePoolEnabled",
      "type": "event"
    },
    {
      "inputs": [],
      "name": "ammRouter",
      "outputs": [
        {
          "internalType": "contract IUniswapV2Router02",
          "name": "",
          "type": "address"
        }
      ],
      "stateMutability": "view",
      "type": "function"
    },
    {
      "inputs": [
        {
          "internalType": "contract ISwap",
          "name": "stablePool",
          "type": "address"
        }
      ],
      "name": "disableStablePool",
      "outputs": [],
      "stateMutability": "nonpayable",
      "type": "function"
    },
    {
      "inputs": [
        {
          "internalType": "contract ISwap",
          "name": "stablePool",
          "type": "address"
        }
      ],
      "name": "enableStablePool",
      "outputs": [],
      "stateMutability": "nonpayable",
      "type": "function"
    },
    {
      "inputs": [
        {
          "internalType": "contract ISwap",
          "name": "",
          "type": "address"
        }
      ],
      "name": "enabledStablePools",
      "outputs": [
        {
          "internalType": "bool",
          "name": "",
          "type": "bool"
        }
      ],
      "stateMutability": "view",
      "type": "function"
    },
    {
      "inputs": [
        {
          "internalType": "contract IUniswapV2Router02",
          "name": "ammRouter_",
          "type": "address"
        },
        {
          "internalType": "contract ISwap",
          "name": "stablePool",
          "type": "address"
        },
        {
          "internalType": "uint256",
          "name": "maxSwapHops_",
          "type": "uint256"
        }
      ],
      "name": "initialize",
      "outputs": [],
      "stateMutability": "nonpayable",
      "type": "function"
    },
    {
      "inputs": [],
      "name": "owner",
      "outputs": [
        {
          "internalType": "address",
          "name": "",
          "type": "address"
        }
      ],
      "stateMutability": "view",
      "type": "function"
    },
    {
      "inputs": [],
      "name": "renounceOwnership",
      "outputs": [],
      "stateMutability": "nonpayable",
      "type": "function"
    },
    {
      "inputs": [
        {
          "internalType": "uint256",
          "name": "maxSwapHops",
          "type": "uint256"
        }
      ],
      "name": "setMaxHops",
      "outputs": [],
      "stateMutability": "nonpayable",
      "type": "function"
    },
    {
      "inputs": [
        {
          "components": [
            {
              "components": [
                {
                  "internalType": "enum AMMSwapType",
                  "name": "swapType",
                  "type": "uint8"
                },
                {
                  "internalType": "uint256",
                  "name": "amountIn",
                  "type": "uint256"
                },
                {
                  "internalType": "uint256",
                  "name": "amountOut",
                  "type": "uint256"
                },
                {
                  "internalType": "address[]",
                  "name": "path",
                  "type": "address[]"
                },
                {
                  "internalType": "address",
                  "name": "to",
                  "type": "address"
                },
                {
                  "internalType": "uint256",
                  "name": "deadline",
                  "type": "uint256"
                }
              ],
              "internalType": "struct AMMSwapDetails[]",
              "name": "ammSwaps",
              "type": "tuple[]"
            },
            {
              "components": [
                {
                  "internalType": "address",
                  "name": "stablePool",
                  "type": "address"
                },
                {
                  "internalType": "uint8",
                  "name": "tokenIndexFrom",
                  "type": "uint8"
                },
                {
                  "internalType": "uint8",
                  "name": "tokenIndexTo",
                  "type": "uint8"
                },
                {
                  "internalType": "uint256",
                  "name": "dx",
                  "type": "uint256"
                },
                {
                  "internalType": "uint256",
                  "name": "minDy",
                  "type": "uint256"
                },
                {
                  "internalType": "uint256",
                  "name": "deadline",
                  "type": "uint256"
                }
              ],
              "internalType": "struct StableSwapDetails[]",
              "name": "stableSwaps",
              "type": "tuple[]"
            },
            {
              "internalType": "enum SwapType[]",
              "name": "order",
              "type": "uint8[]"
            }
          ],
          "internalType": "struct SwapDetails",
          "name": "swapDetails",
          "type": "tuple"
        }
      ],
      "name": "swap",
      "outputs": [
        {
          "internalType": "uint256",
          "name": "outputAmount",
          "type": "uint256"
        }
      ],
      "stateMutability": "nonpayable",
      "type": "function"
    },
    {
      "inputs": [
        {
          "internalType": "address",
          "name": "newOwner",
          "type": "address"
        }
      ],
      "name": "transferOwnership",
      "outputs": [],
      "stateMutability": "nonpayable",
      "type": "function"
    }
  ],
  "transactionHash": "0x986dd92cfce3bb94185e89c48655a7f554b72c00f00981695a08c2ade3394612",
  "args": [],
  "solcInputHash": "8b75ed266f40e6abf4518ee2f1992b99",
  "bytecode": "0x608060405234801561001057600080fd5b506129a2806100206000396000f3fe608060405234801561001057600080fd5b506004361061009e5760003560e01c806390b3c4e71161006657806390b3c4e714610111578063a26f579614610119578063b8af6a5314610139578063c39b2e991461014c578063f2fde38b1461015f5761009e565b80631794bb3c146100a357806362ea3db2146100b8578063715018a6146100e15780637e29ca87146100e95780638da5cb5b146100fc575b600080fd5b6100b66100b1366004611e8c565b610172565b005b6100cb6100c6366004611ee8565b6102be565b6040516100d89190612754565b60405180910390f35b6100b661046f565b6100b66100f7366004611d9f565b6104f8565b6101046105a9565b6040516100d8919061205e565b6101046105b8565b61012c610127366004611d9f565b6105c7565b6040516100d891906120c9565b6100b6610147366004611f74565b6105dc565b6100b661015a366004611d9f565b610640565b6100b661016d366004611d9f565b6106ee565b600054610100900460ff168061018b575061018b6107af565b80610199575060005460ff16155b6101be5760405162461bcd60e51b81526004016101b5906124c3565b60405180910390fd5b600054610100900460ff161580156101e9576000805460ff1961ff0019909116610100171660011790555b6101f16107c0565b6001600160a01b0384166102175760405162461bcd60e51b81526004016101b5906123f7565b6001600160a01b03831661023d5760405162461bcd60e51b81526004016101b5906121b3565b8161025a5760405162461bcd60e51b81526004016101b590612370565b606580546001600160a01b0319166001600160a01b03861617905561027e836104f8565b6001600160a01b0383166000908152606660205260409020805460ff19166001179055606782905580156102b8576000805461ff00191690555b50505050565b6067546000906102d16040840184612850565b905011156102f15760405162461bcd60e51b81526004016101b590612646565b6102fa82610853565b60008060005b61030d6040860186612850565b905081101561045d5760006103256040870187612850565b8381811061032f57fe5b90506020020160208101906103449190611ecc565b600181111561034f57fe5b1480610391575060016103656040870187612850565b8381811061036f57fe5b90506020020160208101906103849190611ecc565b600181111561038f57fe5b145b6103ad5760405162461bcd60e51b81526004016101b590612136565b60006103bc6040870187612850565b838181106103c657fe5b90506020020160208101906103db9190611ecc565b60018111156103e657fe5b14156104275761041a6103f98680612850565b8581811061040357fe5b905060200281019061041591906128ad565b610cdb565b9350600190920191610455565b61044c6104376020870187612866565b8481811061044157fe5b905060c00201610f2e565b93506001909101905b600101610300565b5061046884846110e7565b5050919050565b610477611307565b6001600160a01b03166104886105a9565b6001600160a01b0316146104ae5760405162461bcd60e51b81526004016101b590612559565b6033546040516000916001600160a01b0316907f8be0079c531659141344cd1fd0a4f28419497f9722a3daafe3b4186f6b6457e0908390a3603380546001600160a01b0319169055565b610500611307565b6001600160a01b03166105116105a9565b6001600160a01b0316146105375760405162461bcd60e51b81526004016101b590612559565b6001600160a01b03811661055d5760405162461bcd60e51b81526004016101b5906122ed565b6001600160a01b038116600081815260666020526040808220805460ff19166001179055517f763ba138b73b63a43de614b1d4efd85711b3240cdb9c79a0a6a67647a95c4a319190a250565b6033546001600160a01b031690565b6065546001600160a01b031681565b60666020526000908152604090205460ff1681565b6105e4611307565b6001600160a01b03166105f56105a9565b6001600160a01b03161461061b5760405162461bcd60e51b81526004016101b590612559565b6000811161063b5760405162461bcd60e51b81526004016101b590612712565b606755565b610648611307565b6001600160a01b03166106596105a9565b6001600160a01b03161461067f5760405162461bcd60e51b81526004016101b590612559565b6001600160a01b0381166106a55760405162461bcd60e51b81526004016101b5906122ed565b6001600160a01b038116600081815260666020526040808220805460ff19169055517f62825d4e3dc47438cdd2a3014131db621a70e653474b90da2dd00d8ddb90bfca9190a250565b6106f6611307565b6001600160a01b03166107076105a9565b6001600160a01b03161461072d5760405162461bcd60e51b81526004016101b590612559565b6001600160a01b0381166107535760405162461bcd60e51b81526004016101b59061216d565b6033546040516001600160a01b038084169216907f8be0079c531659141344cd1fd0a4f28419497f9722a3daafe3b4186f6b6457e090600090a3603380546001600160a01b0319166001600160a01b0392909216919091179055565b60006107ba3061130b565b15905090565b600054610100900460ff16806107d957506107d96107af565b806107e7575060005460ff16155b6108035760405162461bcd60e51b81526004016101b5906124c3565b600054610100900460ff1615801561082e576000805460ff1961ff0019909116610100171660011790555b610836611311565b61083e611392565b8015610850576000805461ff00191690555b50565b600080806108646040850185612850565b600081811061086f57fe5b90506020020160208101906108849190611ecc565b600181111561088f57fe5b1415610b8757606060006108a38580612850565b60008181106108ae57fe5b90506020028101906108c091906128ad565b6108ce906020810190611ecc565b60018111156108d957fe5b14156109fb576065546040805163c45a015560e01b815290516109f4926001600160a01b03169163c45a0155916004808301926020929190829003018186803b15801561092557600080fd5b505afa158015610939573d6000803e3d6000fd5b505050506040513d601f19601f8201168201806040525081019061095d9190611dbb565b6109678680612850565b600081811061097257fe5b905060200281019061098491906128ad565b602001356109928780612850565b600081811061099d57fe5b90506020028101906109af91906128ad565b6109bd906060810190612809565b8080602002602001604051908101604052809392919081815260200183836020028082843760009201919091525061146c92505050565b9050610b13565b6065546040805163c45a015560e01b81529051610b10926001600160a01b03169163c45a0155916004808301926020929190829003018186803b158015610a4157600080fd5b505afa158015610a55573d6000803e3d6000fd5b505050506040513d601f19601f82011682018060405250810190610a799190611dbb565b610a838680612850565b6000818110610a8e57fe5b9050602002810190610aa091906128ad565b60400135610aae8780612850565b6000818110610ab957fe5b9050602002810190610acb91906128ad565b610ad9906060810190612809565b8080602002602001604051908101604052809392919081815260200183836020028082843760009201919091525061158392505050565b90505b610b1d8480612850565b6000818110610b2857fe5b9050602002810190610b3a91906128ad565b610b48906060810190612809565b6000818110610b5357fe5b9050602002016020810190610b689190611d9f565b925080600081518110610b7757fe5b6020026020010151915050610cc5565b6000610b966020850185612866565b6000818110610ba157fe5b610bb792602060c0909202019081019150611d9f565b6001600160a01b03811660009081526066602052604090205490915060ff16610bf25760405162461bcd60e51b81526004016101b59061258e565b6001600160a01b0381166382b86600610c0e6020870187612866565b6000818110610c1957fe5b905060c002016020016020810190610c319190611fa4565b6040518263ffffffff1660e01b8152600401610c4d91906127d0565b60206040518083038186803b158015610c6557600080fd5b505afa158015610c79573d6000803e3d6000fd5b505050506040513d601f19601f82011682018060405250810190610c9d9190611dbb565b9250610cac6020850185612866565b6000818110610cb757fe5b905060c00201606001359150505b816102b86001600160a01b038216333085611686565b600080610ceb6020840184611ecc565b6001811115610cf657fe5b1480610d1957506001610d0c6020840184611ecc565b6001811115610d1757fe5b145b610d355760405162461bcd60e51b81526004016101b590612260565b6060610d7c610d4684830185612809565b6000818110610d5157fe5b9050602002016020810190610d669190611d9f565b6065546001600160a01b031660208601356116de565b6000610d8b6020850185611ecc565b6001811115610d9657fe5b1415610e57576065546001600160a01b03166338ed173960208501356040860135610dc46060880188612809565b610dd460a08a0160808b01611d9f565b8960a001356040518763ffffffff1660e01b8152600401610dfa9695949392919061275d565b600060405180830381600087803b158015610e1457600080fd5b505af1158015610e28573d6000803e3d6000fd5b505050506040513d6000823e601f3d908101601f19168201604052610e509190810190611dd7565b9050610f0e565b6065546001600160a01b0316638803dbee60408501356020860135610e7f6060880188612809565b610e8f60a08a0160808b01611d9f565b8960a001356040518763ffffffff1660e01b8152600401610eb59695949392919061275d565b600060405180830381600087803b158015610ecf57600080fd5b505af1158015610ee3573d6000803e3d6000fd5b505050506040513d6000823e601f3d908101601f19168201604052610f0b9190810190611dd7565b90505b80600182510381518110610f1e57fe5b6020026020010151915050919050565b600080610f3e6020840184611d9f565b6001600160a01b03811660009081526066602052604090205490915060ff16610f795760405162461bcd60e51b81526004016101b59061258e565b60006001600160a01b0382166382b86600610f9a6040870160208801611fa4565b6040518263ffffffff1660e01b8152600401610fb691906127d0565b60206040518083038186803b158015610fce57600080fd5b505afa158015610fe2573d6000803e3d6000fd5b505050506040513d601f19601f820116820180604052508101906110069190611dbb565b9050611023816110196020870187611d9f565b86606001356116de565b6110306020850185611d9f565b6001600160a01b0316639169558661104e6040870160208801611fa4565b61105e6060880160408901611fa4565b876060013588608001358960a001356040518663ffffffff1660e01b815260040161108d9594939291906127de565b602060405180830381600087803b1580156110a757600080fd5b505af11580156110bb573d6000803e3d6000fd5b505050506040513d601f19601f820116820180604052508101906110df9190611f8c565b949350505050565b60008060016110f96040860186612850565b919091039150600090506111106040860186612850565b8381811061111a57fe5b905060200201602081019061112f9190611ecc565b600181111561113a57fe5b14156111f2576000600161114e8680612850565b9190910391506000905060016111648780612850565b8481811061116e57fe5b905060200281019061118091906128ad565b61118e906060810190612809565b9190910391506111a090508680612850565b838181106111aa57fe5b90506020028101906111bc91906128ad565b6111ca906060810190612809565b828181106111d457fe5b90506020020160208101906111e99190611d9f565b935050506112eb565b600060016112036020870187612866565b9050039050600085806020019061121a9190612866565b8381811061122457fe5b61123a92602060c0909202019081019150611d9f565b90506001600160a01b0381166382b866006112586020890189612866565b8581811061126257fe5b905060c00201604001602081019061127a9190611fa4565b6040518263ffffffff1660e01b815260040161129691906127d0565b60206040518083038186803b1580156112ae57600080fd5b505afa1580156112c2573d6000803e3d6000fd5b505050506040513d601f19601f820116820180604052508101906112e69190611dbb565b935050505b816113006001600160a01b038216338661177f565b5050505050565b3390565b3b151590565b600054610100900460ff168061132a575061132a6107af565b80611338575060005460ff16155b6113545760405162461bcd60e51b81526004016101b5906124c3565b600054610100900460ff1615801561083e576000805460ff1961ff0019909116610100171660011790558015610850576000805461ff001916905550565b600054610100900460ff16806113ab57506113ab6107af565b806113b9575060005460ff16155b6113d55760405162461bcd60e51b81526004016101b5906124c3565b600054610100900460ff16158015611400576000805460ff1961ff0019909116610100171660011790555b600061140a611307565b603380546001600160a01b0319166001600160a01b038316908117909155604051919250906000907f8be0079c531659141344cd1fd0a4f28419497f9722a3daafe3b4186f6b6457e0908290a3508015610850576000805461ff001916905550565b60606002825110156114905760405162461bcd60e51b81526004016101b59061248c565b815167ffffffffffffffff811180156114a857600080fd5b506040519080825280602002602001820160405280156114d2578160200160208202803683370190505b50905082816000815181106114e357fe5b60200260200101818152505060005b600183510381101561157b576000806115358786858151811061151157fe5b602002602001015187866001018151811061152857fe5b60200260200101516117a3565b9150915061155784848151811061154857fe5b6020026020010151838361187c565b84846001018151811061156657fe5b602090810291909101015250506001016114f2565b509392505050565b60606002825110156115a75760405162461bcd60e51b81526004016101b59061248c565b815167ffffffffffffffff811180156115bf57600080fd5b506040519080825280602002602001820160405280156115e9578160200160208202803683370190505b50905082816001835103815181106115fd57fe5b60209081029190910101528151600019015b801561157b5760008061163f8786600186038151811061162b57fe5b602002602001015187868151811061152857fe5b9150915061166184848151811061165257fe5b60200260200101518383611916565b84600185038151811061167057fe5b602090810291909101015250506000190161160f565b6102b8846323b872dd60e01b8585856040516024016116a79392919061208c565b60408051601f198184030181529190526020810180516001600160e01b03166001600160e01b0319909316929092179091526119b0565b604051636eb1769f60e11b815283906000906001600160a01b0383169063dd62ed3e906117119030908890600401612072565b60206040518083038186803b15801561172957600080fd5b505afa15801561173d573d6000803e3d6000fd5b505050506040513d601f19601f820116820180604052508101906117619190611f8c565b905082811015611300576113006001600160a01b0383168585611a3f565b61179e8363a9059cbb60e01b84846040516024016116a79291906120b0565b505050565b60008060006117b28585611aea565b5090506000806117c3888888611b74565b6001600160a01b0316630902f1ac6040518163ffffffff1660e01b815260040160606040518083038186803b1580156117fb57600080fd5b505afa15801561180f573d6000803e3d6000fd5b505050506040513d601f19601f820116820180604052508101906118339190611f20565b506001600160701b031691506001600160701b03169150826001600160a01b0316876001600160a01b03161461186a57808261186d565b81815b90999098509650505050505050565b600080841161189d5760405162461bcd60e51b81526004016101b5906126c7565b6000831180156118ad5750600082115b6118c95760405162461bcd60e51b81526004016101b590612511565b60006118d7856103e5611be4565b905060006118e58285611be4565b905060006118ff836118f9886103e8611be4565b90611c21565b905080828161190a57fe5b04979650505050505050565b60008084116119375760405162461bcd60e51b81526004016101b5906122a1565b6000831180156119475750600082115b6119635760405162461bcd60e51b81526004016101b590612511565b600061197b6103e86119758688611be4565b90611be4565b9050600061198f6103e56119758689611c44565b90506119a6600182848161199f57fe5b0490611c21565b9695505050505050565b6060611a05826040518060400160405280602081526020017f5361666545524332303a206c6f772d6c6576656c2063616c6c206661696c6564815250856001600160a01b0316611c679092919063ffffffff16565b80519091501561179e5780806020019051810190611a239190611e6c565b61179e5760405162461bcd60e51b81526004016101b59061267d565b6000611ac982856001600160a01b031663dd62ed3e30876040518363ffffffff1660e01b8152600401611a73929190612072565b60206040518083038186803b158015611a8b57600080fd5b505afa158015611a9f573d6000803e3d6000fd5b505050506040513d601f19601f82011682018060405250810190611ac39190611f8c565b90611c80565b90506102b88463095ea7b360e01b85846040516024016116a79291906120b0565b600080826001600160a01b0316846001600160a01b03161415611b1f5760405162461bcd60e51b81526004016101b5906123b2565b826001600160a01b0316846001600160a01b031610611b3f578284611b42565b83835b90925090506001600160a01b038216611b6d5760405162461bcd60e51b81526004016101b59061260f565b9250929050565b6000806000611b838585611aea565b91509150858282604051602001611b9b929190611fc5565b60405160208183030381529060405280519060200120604051602001611bc2929190612008565b60408051601f1981840301815291905280516020909101209695505050505050565b6000811580611bff57505080820282828281611bfc57fe5b04145b611c1b5760405162461bcd60e51b81526004016101b5906121fb565b92915050565b80820182811015611c1b5760405162461bcd60e51b81526004016101b590612342565b80820382811115611c1b5760405162461bcd60e51b81526004016101b590612107565b6060611c768484600085611ca5565b90505b9392505050565b600082820183811015611c795760405162461bcd60e51b81526004016101b590612229565b606082471015611cc75760405162461bcd60e51b81526004016101b590612446565b611cd08561130b565b611cec5760405162461bcd60e51b81526004016101b5906125d8565b60006060866001600160a01b03168587604051611d099190611fec565b60006040518083038185875af1925050503d8060008114611d46576040519150601f19603f3d011682016040523d82523d6000602084013e611d4b565b606091505b5091509150611d5b828286611d66565b979650505050505050565b60608315611d75575081611c79565b825115611d855782518084602001fd5b8160405162461bcd60e51b81526004016101b591906120d4565b600060208284031215611db0578081fd5b8135611c7981612935565b600060208284031215611dcc578081fd5b8151611c7981612935565b60006020808385031215611de9578182fd5b825167ffffffffffffffff811115611dff578283fd5b8301601f81018513611e0f578283fd5b8051611e22611e1d826128e9565b6128c2565b8181528381019083850185840285018601891015611e3e578687fd5b8694505b83851015611e60578051835260019490940193918501918501611e42565b50979650505050505050565b600060208284031215611e7d578081fd5b81518015158114611c79578182fd5b600080600060608486031215611ea0578182fd5b8335611eab81612935565b92506020840135611ebb81612935565b929592945050506040919091013590565b600060208284031215611edd578081fd5b8135611c798161294a565b600060208284031215611ef9578081fd5b813567ffffffffffffffff811115611f0f578182fd5b820160608185031215611c79578182fd5b600080600060608486031215611f34578283fd5b8351611f3f81612957565b6020850151909350611f5081612957565b604085015190925063ffffffff81168114611f69578182fd5b809150509250925092565b600060208284031215611f85578081fd5b5035919050565b600060208284031215611f9d578081fd5b5051919050565b600060208284031215611fb5578081fd5b813560ff81168114611c79578182fd5b6bffffffffffffffffffffffff19606093841b811682529190921b16601482015260280190565b60008251611ffe818460208701612909565b9190910192915050565b6001600160f81b0319815260609290921b6bffffffffffffffffffffffff1916600183015260158201527fa0f80de0dc21d1d892ac8c8c804bb2945a43ec20fbd363e94272c4db65343f20603582015260550190565b6001600160a01b0391909116815260200190565b6001600160a01b0392831681529116602082015260400190565b6001600160a01b039384168152919092166020820152604081019190915260600190565b6001600160a01b03929092168252602082015260400190565b901515815260200190565b60006020825282518060208401526120f3816040850160208701612909565b601f01601f19169190910160400192915050565b60208082526015908201527464732d6d6174682d7375622d756e646572666c6f7760581b604082015260600190565b6020808252601d908201527f52756279526f757465723a20496e76616c696420737761702074797065000000604082015260600190565b60208082526026908201527f4f776e61626c653a206e6577206f776e657220697320746865207a65726f206160408201526564647265737360d01b606082015260800190565b60208082526028908201527f52756279526f757465723a20496e76616c696420537461626c6520506f6f6c2060408201526730b2323932b9b99760c11b606082015260800190565b60208082526014908201527364732d6d6174682d6d756c2d6f766572666c6f7760601b604082015260600190565b6020808252601b908201527f536166654d6174683a206164646974696f6e206f766572666c6f770000000000604082015260600190565b60208082526021908201527f52756279526f757465723a20496e76616c696420414d4d2073776170207479706040820152606560f81b606082015260800190565b6020808252602c908201527f556e697377617056324c6962726172793a20494e53554646494349454e545f4f60408201526b155514155517d05353d5539560a21b606082015260800190565b60208082526035908201527f52756279526f757465723a2054686520737461626c65506f6f6c2063616e6e6f6040820152747420626520746865207a65726f206164647265737360581b606082015260800190565b60208082526014908201527364732d6d6174682d6164642d6f766572666c6f7760601b604082015260600190565b60208082526022908201527f52756279526f757465723a20496e76616c6964206d6178207377617020686f70604082015261399760f11b606082015260800190565b60208082526025908201527f556e697377617056324c6962726172793a204944454e544943414c5f41444452604082015264455353455360d81b606082015260800190565b6020808252602f908201527f52756279526f757465723a20496e76616c696420414d4d20726f75746572206160408201526e32323932b9b99030b2323932b9b99760891b606082015260800190565b60208082526026908201527f416464726573733a20696e73756666696369656e742062616c616e636520666f6040820152651c8818d85b1b60d21b606082015260800190565b6020808252601e908201527f556e697377617056324c6962726172793a20494e56414c49445f504154480000604082015260600190565b6020808252602e908201527f496e697469616c697a61626c653a20636f6e747261637420697320616c72656160408201526d191e481a5b9a5d1a585b1a5e995960921b606082015260800190565b60208082526028908201527f556e697377617056324c6962726172793a20494e53554646494349454e545f4c604082015267495155494449545960c01b606082015260800190565b6020808252818101527f4f776e61626c653a2063616c6c6572206973206e6f7420746865206f776e6572604082015260600190565b6020808252602a908201527f52756279526f757465723a2054686520737461626c6520706f6f6c206973206e6040820152691bdd08195b98589b195960b21b606082015260800190565b6020808252601d908201527f416464726573733a2063616c6c20746f206e6f6e2d636f6e7472616374000000604082015260600190565b6020808252601e908201527f556e697377617056324c6962726172793a205a45524f5f414444524553530000604082015260600190565b6020808252601c908201527f496e76616c6964206e756d626572206f6620737761702063616c6c7300000000604082015260600190565b6020808252602a908201527f5361666545524332303a204552433230206f7065726174696f6e20646964206e6040820152691bdd081cdd58d8d9595960b21b606082015260800190565b6020808252602b908201527f556e697377617056324c6962726172793a20494e53554646494349454e545f4960408201526a1394155517d05353d5539560aa1b606082015260800190565b60208082526022908201527f52756279526f757465723a20496e76616c6964206d6178207377617020686f70604082015261733b60f01b606082015260800190565b90815260200190565b868152602080820187905260a0604083018190528201859052600090869060c08401835b888110156127af57833561279481612935565b6001600160a01b031682529282019290820190600101612781565b506001600160a01b0396909616606085015250505060800152949350505050565b60ff91909116815260200190565b60ff958616815293909416602084015260408301919091526060820152608081019190915260a00190565b6000808335601e1984360301811261281f578283fd5b83018035915067ffffffffffffffff821115612839578283fd5b6020908101925081023603821315611b6d57600080fd5b6000808335601e1984360301811261281f578182fd5b6000808335601e1984360301811261287c578283fd5b83018035915067ffffffffffffffff821115612896578283fd5b602001915060c081023603821315611b6d57600080fd5b6000823560be19833603018112611ffe578182fd5b60405181810167ffffffffffffffff811182821017156128e157600080fd5b604052919050565b600067ffffffffffffffff8211156128ff578081fd5b5060209081020190565b60005b8381101561292457818101518382015260200161290c565b838111156102b85750506000910152565b6001600160a01b038116811461085057600080fd5b6002811061085057600080fd5b6001600160701b038116811461085057600080fdfea26469706673582212207a4818ffee3a8526c29f944a2766e760a0a00a7d41d96776e3fe30a237762c5864736f6c634300060c0033",
  "devdoc": {
    "kind": "dev",
    "methods": {
      "owner()": {
        "details": "Returns the address of the current owner."
      },
      "renounceOwnership()": {
        "details": "Leaves the contract without owner. It will not be possible to call `onlyOwner` functions anymore. Can only be called by the current owner. NOTE: Renouncing ownership will leave the contract without an owner, thereby removing any functionality that is only available to the owner."
      },
      "transferOwnership(address)": {
        "details": "Transfers ownership of the contract to a new account (`newOwner`). Can only be called by the current owner."
      }
    },
    "version": 1
  },
  "userdoc": {
    "kind": "user",
    "methods": {},
    "version": 1
  },
  "storageLayout": {
    "storage": [
      {
        "astId": 618,
        "contract": "contracts/ruby_router/RubyRouter.sol:RubyRouter",
        "label": "_initialized",
        "offset": 0,
        "slot": "0",
        "type": "t_bool"
      },
      {
        "astId": 621,
        "contract": "contracts/ruby_router/RubyRouter.sol:RubyRouter",
        "label": "_initializing",
        "offset": 1,
        "slot": "0",
        "type": "t_bool"
      },
      {
        "astId": 1657,
        "contract": "contracts/ruby_router/RubyRouter.sol:RubyRouter",
        "label": "__gap",
        "offset": 0,
        "slot": "1",
        "type": "t_array(t_uint256)50_storage"
      },
      {
        "astId": 136,
        "contract": "contracts/ruby_router/RubyRouter.sol:RubyRouter",
        "label": "_owner",
        "offset": 0,
        "slot": "51",
        "type": "t_address"
      },
      {
        "astId": 255,
        "contract": "contracts/ruby_router/RubyRouter.sol:RubyRouter",
        "label": "__gap",
        "offset": 0,
        "slot": "52",
        "type": "t_array(t_uint256)49_storage"
      },
      {
        "astId": 17981,
        "contract": "contracts/ruby_router/RubyRouter.sol:RubyRouter",
        "label": "ammRouter",
        "offset": 0,
        "slot": "101",
        "type": "t_contract(IUniswapV2Router02)15241"
      },
      {
        "astId": 17985,
        "contract": "contracts/ruby_router/RubyRouter.sol:RubyRouter",
        "label": "enabledStablePools",
        "offset": 0,
        "slot": "102",
        "type": "t_mapping(t_contract(ISwap)23762,t_bool)"
      },
      {
        "astId": 17987,
        "contract": "contracts/ruby_router/RubyRouter.sol:RubyRouter",
        "label": "_maxSwapHops",
        "offset": 0,
        "slot": "103",
        "type": "t_uint256"
      }
    ],
    "types": {
      "t_address": {
        "encoding": "inplace",
        "label": "address",
        "numberOfBytes": "20"
      },
      "t_array(t_uint256)49_storage": {
        "base": "t_uint256",
        "encoding": "inplace",
        "label": "uint256[49]",
        "numberOfBytes": "1568"
      },
      "t_array(t_uint256)50_storage": {
        "base": "t_uint256",
        "encoding": "inplace",
        "label": "uint256[50]",
        "numberOfBytes": "1600"
      },
      "t_bool": {
        "encoding": "inplace",
        "label": "bool",
        "numberOfBytes": "1"
      },
      "t_contract(ISwap)23762": {
        "encoding": "inplace",
        "label": "contract ISwap",
        "numberOfBytes": "20"
      },
      "t_contract(IUniswapV2Router02)15241": {
        "encoding": "inplace",
        "label": "contract IUniswapV2Router02",
        "numberOfBytes": "20"
      },
      "t_mapping(t_contract(ISwap)23762,t_bool)": {
        "encoding": "mapping",
        "key": "t_contract(ISwap)23762",
        "label": "mapping(contract ISwap => bool)",
        "numberOfBytes": "32",
        "value": "t_bool"
      },
      "t_uint256": {
        "encoding": "inplace",
        "label": "uint256",
        "numberOfBytes": "32"
      }
    }
  }
}