{
  "address": "0x1cc834e2E31A8173f45c5A9F44f3b83C608842d0",
  "abi": [
    {
      "inputs": [
        {
          "internalType": "address",
          "name": "_ruby",
          "type": "address"
        },
        {
          "internalType": "address",
          "name": "_rubyStaker",
          "type": "address"
        },
        {
          "internalType": "address",
          "name": "_treasuryAddr",
          "type": "address"
        },
        {
          "internalType": "uint256",
          "name": "_rubyPerSec",
          "type": "uint256"
        },
        {
          "internalType": "uint256",
          "name": "_startTimestamp",
          "type": "uint256"
        },
        {
          "internalType": "uint256",
          "name": "_treasuryPercent",
          "type": "uint256"
        }
      ],
      "stateMutability": "nonpayable",
      "type": "constructor"
    },
    {
      "anonymous": false,
      "inputs": [
        {
          "indexed": true,
          "internalType": "uint256",
          "name": "pid",
          "type": "uint256"
        },
        {
          "indexed": false,
          "internalType": "uint256",
          "name": "allocPoint",
          "type": "uint256"
        },
        {
          "indexed": true,
          "internalType": "contract IERC20",
          "name": "lpToken",
          "type": "address"
        },
        {
          "indexed": true,
          "internalType": "contract IRubyMasterChefRewarder",
          "name": "rewarder",
          "type": "address"
        }
      ],
      "name": "AddPool",
      "type": "event"
    },
    {
      "anonymous": false,
      "inputs": [
        {
          "indexed": true,
          "internalType": "address",
          "name": "user",
          "type": "address"
        },
        {
          "indexed": true,
          "internalType": "uint256",
          "name": "pid",
          "type": "uint256"
        },
        {
          "indexed": false,
          "internalType": "uint256",
          "name": "amount",
          "type": "uint256"
        }
      ],
      "name": "Deposit",
      "type": "event"
    },
    {
      "anonymous": false,
      "inputs": [
        {
          "indexed": true,
          "internalType": "address",
          "name": "user",
          "type": "address"
        },
        {
          "indexed": true,
          "internalType": "uint256",
          "name": "pid",
          "type": "uint256"
        },
        {
          "indexed": false,
          "internalType": "uint256",
          "name": "amount",
          "type": "uint256"
        }
      ],
      "name": "EmergencyWithdraw",
      "type": "event"
    },
    {
      "anonymous": false,
      "inputs": [
        {
          "indexed": true,
          "internalType": "address",
          "name": "user",
          "type": "address"
        },
        {
          "indexed": true,
          "internalType": "uint256",
          "name": "pid",
          "type": "uint256"
        },
        {
          "indexed": false,
          "internalType": "uint256",
          "name": "amount",
          "type": "uint256"
        }
      ],
      "name": "Harvest",
      "type": "event"
    },
    {
      "anonymous": false,
      "inputs": [
        {
          "indexed": true,
          "internalType": "address",
          "name": "user",
          "type": "address"
        },
        {
          "indexed": false,
          "internalType": "uint256",
          "name": "amount",
          "type": "uint256"
        }
      ],
      "name": "MultiHarvest",
      "type": "event"
    },
    {
      "anonymous": false,
      "inputs": [
        {
          "indexed": true,
          "internalType": "address",
          "name": "previousOwner",
          "type": "address"
        },
        {
          "indexed": true,
          "internalType": "address",
          "name": "newOwner",
          "type": "address"
        }
      ],
      "name": "OwnershipTransferred",
      "type": "event"
    },
    {
      "anonymous": false,
      "inputs": [
        {
          "indexed": true,
          "internalType": "address",
          "name": "to",
          "type": "address"
        },
        {
          "indexed": false,
          "internalType": "uint256",
          "name": "amount",
          "type": "uint256"
        }
      ],
      "name": "RubyTokenEmergencyWithdrawal",
      "type": "event"
    },
    {
      "anonymous": false,
      "inputs": [
        {
          "indexed": true,
          "internalType": "uint256",
          "name": "pid",
          "type": "uint256"
        },
        {
          "indexed": false,
          "internalType": "uint256",
          "name": "allocPoint",
          "type": "uint256"
        },
        {
          "indexed": true,
          "internalType": "contract IRubyMasterChefRewarder",
          "name": "rewarder",
          "type": "address"
        },
        {
          "indexed": false,
          "internalType": "bool",
          "name": "overwrite",
          "type": "bool"
        }
      ],
      "name": "SetPool",
      "type": "event"
    },
    {
      "anonymous": false,
      "inputs": [
        {
          "indexed": true,
          "internalType": "address",
          "name": "newRubyStaker",
          "type": "address"
        }
      ],
      "name": "SetRubyStaker",
      "type": "event"
    },
    {
      "anonymous": false,
      "inputs": [
        {
          "indexed": true,
          "internalType": "address",
          "name": "oldAddress",
          "type": "address"
        },
        {
          "indexed": true,
          "internalType": "address",
          "name": "newAddress",
          "type": "address"
        }
      ],
      "name": "SetTreasuryAddress",
      "type": "event"
    },
    {
      "anonymous": false,
      "inputs": [
        {
          "indexed": false,
          "internalType": "uint256",
          "name": "newPercent",
          "type": "uint256"
        }
      ],
      "name": "SetTreasuryPercent",
      "type": "event"
    },
    {
      "anonymous": false,
      "inputs": [
        {
          "indexed": true,
          "internalType": "address",
          "name": "user",
          "type": "address"
        },
        {
          "indexed": false,
          "internalType": "uint256",
          "name": "_rubyPerSec",
          "type": "uint256"
        }
      ],
      "name": "UpdateEmissionRate",
      "type": "event"
    },
    {
      "anonymous": false,
      "inputs": [
        {
          "indexed": true,
          "internalType": "uint256",
          "name": "pid",
          "type": "uint256"
        },
        {
          "indexed": false,
          "internalType": "uint256",
          "name": "lastRewardTimestamp",
          "type": "uint256"
        },
        {
          "indexed": false,
          "internalType": "uint256",
          "name": "lpSupply",
          "type": "uint256"
        },
        {
          "indexed": false,
          "internalType": "uint256",
          "name": "accRubyPerShare",
          "type": "uint256"
        }
      ],
      "name": "UpdatePool",
      "type": "event"
    },
    {
      "anonymous": false,
      "inputs": [
        {
          "indexed": true,
          "internalType": "address",
          "name": "user",
          "type": "address"
        },
        {
          "indexed": true,
          "internalType": "uint256",
          "name": "pid",
          "type": "uint256"
        },
        {
          "indexed": false,
          "internalType": "uint256",
          "name": "amount",
          "type": "uint256"
        }
      ],
      "name": "Withdraw",
      "type": "event"
    },
    {
      "inputs": [],
      "name": "RUBY",
      "outputs": [
        {
          "internalType": "contract IERC20",
          "name": "",
          "type": "address"
        }
      ],
      "stateMutability": "view",
      "type": "function"
    },
    {
      "inputs": [
        {
          "internalType": "uint256",
          "name": "_allocPoint",
          "type": "uint256"
        },
        {
          "internalType": "contract IERC20",
          "name": "_lpToken",
          "type": "address"
        },
        {
          "internalType": "contract IRubyMasterChefRewarder",
          "name": "_rewarder",
          "type": "address"
        }
      ],
      "name": "add",
      "outputs": [],
      "stateMutability": "nonpayable",
      "type": "function"
    },
    {
      "inputs": [
        {
          "internalType": "uint256[]",
          "name": "_pids",
          "type": "uint256[]"
        }
      ],
      "name": "claim",
      "outputs": [],
      "stateMutability": "nonpayable",
      "type": "function"
    },
    {
      "inputs": [
        {
          "internalType": "uint256",
          "name": "_pid",
          "type": "uint256"
        },
        {
          "internalType": "uint256",
          "name": "_amount",
          "type": "uint256"
        }
      ],
      "name": "deposit",
      "outputs": [],
      "stateMutability": "nonpayable",
      "type": "function"
    },
    {
      "inputs": [
        {
          "internalType": "uint256",
          "name": "_pid",
          "type": "uint256"
        }
      ],
      "name": "emergencyWithdraw",
      "outputs": [],
      "stateMutability": "nonpayable",
      "type": "function"
    },
    {
      "inputs": [
        {
          "internalType": "address",
          "name": "_receiver",
          "type": "address"
        },
        {
          "internalType": "uint256",
          "name": "_amount",
          "type": "uint256"
        }
      ],
      "name": "emergencyWithdrawRubyTokens",
      "outputs": [],
      "stateMutability": "nonpayable",
      "type": "function"
    },
    {
      "inputs": [],
      "name": "massUpdatePools",
      "outputs": [],
      "stateMutability": "nonpayable",
      "type": "function"
    },
    {
      "inputs": [],
      "name": "owner",
      "outputs": [
        {
          "internalType": "address",
          "name": "",
          "type": "address"
        }
      ],
      "stateMutability": "view",
      "type": "function"
    },
    {
      "inputs": [
        {
          "internalType": "uint256",
          "name": "_pid",
          "type": "uint256"
        },
        {
          "internalType": "address",
          "name": "_user",
          "type": "address"
        }
      ],
      "name": "pendingTokens",
      "outputs": [
        {
          "internalType": "uint256",
          "name": "pendingRuby",
          "type": "uint256"
        },
        {
          "internalType": "address",
          "name": "bonusTokenAddress",
          "type": "address"
        },
        {
          "internalType": "string",
          "name": "bonusTokenSymbol",
          "type": "string"
        },
        {
          "internalType": "uint256",
          "name": "pendingBonusToken",
          "type": "uint256"
        }
      ],
      "stateMutability": "view",
      "type": "function"
    },
    {
      "inputs": [
        {
          "internalType": "uint256",
          "name": "",
          "type": "uint256"
        }
      ],
      "name": "poolInfo",
      "outputs": [
        {
          "internalType": "contract IERC20",
          "name": "lpToken",
          "type": "address"
        },
        {
          "internalType": "uint256",
          "name": "allocPoint",
          "type": "uint256"
        },
        {
          "internalType": "uint256",
          "name": "lastRewardTimestamp",
          "type": "uint256"
        },
        {
          "internalType": "uint256",
          "name": "accRubyPerShare",
          "type": "uint256"
        },
        {
          "internalType": "contract IRubyMasterChefRewarder",
          "name": "rewarder",
          "type": "address"
        }
      ],
      "stateMutability": "view",
      "type": "function"
    },
    {
      "inputs": [],
      "name": "poolLength",
      "outputs": [
        {
          "internalType": "uint256",
          "name": "",
          "type": "uint256"
        }
      ],
      "stateMutability": "view",
      "type": "function"
    },
    {
      "inputs": [],
      "name": "renounceOwnership",
      "outputs": [],
      "stateMutability": "nonpayable",
      "type": "function"
    },
    {
      "inputs": [
        {
          "internalType": "uint256",
          "name": "_pid",
          "type": "uint256"
        }
      ],
      "name": "rewarderBonusTokenInfo",
      "outputs": [
        {
          "internalType": "address",
          "name": "bonusTokenAddress",
          "type": "address"
        },
        {
          "internalType": "string",
          "name": "bonusTokenSymbol",
          "type": "string"
        }
      ],
      "stateMutability": "view",
      "type": "function"
    },
    {
      "inputs": [],
      "name": "rubyPerSec",
      "outputs": [
        {
          "internalType": "uint256",
          "name": "",
          "type": "uint256"
        }
      ],
      "stateMutability": "view",
      "type": "function"
    },
    {
      "inputs": [],
      "name": "rubyStaker",
      "outputs": [
        {
          "internalType": "contract IRubyStaker",
          "name": "",
          "type": "address"
        }
      ],
      "stateMutability": "view",
      "type": "function"
    },
    {
      "inputs": [
        {
          "internalType": "uint256",
          "name": "_pid",
          "type": "uint256"
        },
        {
          "internalType": "uint256",
          "name": "_allocPoint",
          "type": "uint256"
        },
        {
          "internalType": "contract IRubyMasterChefRewarder",
          "name": "_rewarder",
          "type": "address"
        },
        {
          "internalType": "bool",
          "name": "overwrite",
          "type": "bool"
        }
      ],
      "name": "set",
      "outputs": [],
      "stateMutability": "nonpayable",
      "type": "function"
    },
    {
      "inputs": [
        {
          "internalType": "address",
          "name": "_newRubyStaker",
          "type": "address"
        }
      ],
      "name": "setRubyStaker",
      "outputs": [],
      "stateMutability": "nonpayable",
      "type": "function"
    },
    {
      "inputs": [
        {
          "internalType": "address",
          "name": "_treasuryAddr",
          "type": "address"
        }
      ],
      "name": "setTreasuryAddr",
      "outputs": [],
      "stateMutability": "nonpayable",
      "type": "function"
    },
    {
      "inputs": [
        {
          "internalType": "uint256",
          "name": "_newTreasuryPercent",
          "type": "uint256"
        }
      ],
      "name": "setTreasuryPercent",
      "outputs": [],
      "stateMutability": "nonpayable",
      "type": "function"
    },
    {
      "inputs": [],
      "name": "startTimestamp",
      "outputs": [
        {
          "internalType": "uint256",
          "name": "",
          "type": "uint256"
        }
      ],
      "stateMutability": "view",
      "type": "function"
    },
    {
      "inputs": [],
      "name": "totalAllocPoint",
      "outputs": [
        {
          "internalType": "uint256",
          "name": "",
          "type": "uint256"
        }
      ],
      "stateMutability": "view",
      "type": "function"
    },
    {
      "inputs": [
        {
          "internalType": "address",
          "name": "newOwner",
          "type": "address"
        }
      ],
      "name": "transferOwnership",
      "outputs": [],
      "stateMutability": "nonpayable",
      "type": "function"
    },
    {
      "inputs": [],
      "name": "treasuryAddr",
      "outputs": [
        {
          "internalType": "address",
          "name": "",
          "type": "address"
        }
      ],
      "stateMutability": "view",
      "type": "function"
    },
    {
      "inputs": [],
      "name": "treasuryPercent",
      "outputs": [
        {
          "internalType": "uint256",
          "name": "",
          "type": "uint256"
        }
      ],
      "stateMutability": "view",
      "type": "function"
    },
    {
      "inputs": [
        {
          "internalType": "uint256",
          "name": "_rubyPerSec",
          "type": "uint256"
        }
      ],
      "name": "updateEmissionRate",
      "outputs": [],
      "stateMutability": "nonpayable",
      "type": "function"
    },
    {
      "inputs": [
        {
          "internalType": "uint256",
          "name": "_pid",
          "type": "uint256"
        }
      ],
      "name": "updatePool",
      "outputs": [],
      "stateMutability": "nonpayable",
      "type": "function"
    },
    {
      "inputs": [
        {
          "internalType": "uint256",
          "name": "",
          "type": "uint256"
        },
        {
          "internalType": "address",
          "name": "",
          "type": "address"
        }
      ],
      "name": "userInfo",
      "outputs": [
        {
          "internalType": "uint256",
          "name": "amount",
          "type": "uint256"
        },
        {
          "internalType": "uint256",
          "name": "rewardDebt",
          "type": "uint256"
        }
      ],
      "stateMutability": "view",
      "type": "function"
    },
    {
      "inputs": [
        {
          "internalType": "uint256",
          "name": "_pid",
          "type": "uint256"
        },
        {
          "internalType": "uint256",
          "name": "_amount",
          "type": "uint256"
        }
      ],
      "name": "withdraw",
      "outputs": [],
      "stateMutability": "nonpayable",
      "type": "function"
    }
  ],
  "transactionHash": "0x4763c58617c9e7fb4dc9e811a8b1b117d382de27a706a563ac76341685d9d05f",
  "args": [
    "0x58F2b35dde559F49B9870Ec101c3b1B8433C644d",
    "0x81AFd52E1C261C06b1D78DBbab0dfe211aaB1F49",
    "0xF63Bb14E7E9bD2882957129c3E3197E6D18933B4",
    "2000000000000000000",
    "1642540000",
    "100"
  ],
  "solcInputHash": "840d1bb9af63cee779dbc4446fd870fd",
  "bytecode": "0x60a06040523480156200001157600080fd5b5060405162002dc638038062002dc68339810160408190526200003491620001d4565b600062000040620001b2565b600080546001600160a01b0319166001600160a01b0383169081178255604051929350917f8be0079c531659141344cd1fd0a4f28419497f9722a3daafe3b4186f6b6457e0908290a350600180556001600160a01b038616620000c05760405162461bcd60e51b8152600401620000b79062000287565b60405180910390fd5b6001600160a01b038516620000e95760405162461bcd60e51b8152600401620000b7906200023c565b6001600160a01b038416620001125760405162461bcd60e51b8152600401620000b790620002d1565b82620001325760405162461bcd60e51b8152600401620000b7906200031a565b6103e8811115620001575760405162461bcd60e51b8152600401620000b79062000367565b60609590951b6001600160601b031916608052600280546001600160a01b03199081166001600160a01b0396871617909155600380549091169390941692909217909255600491909155600b556005556000600a55620003b6565b3390565b80516001600160a01b0381168114620001ce57600080fd5b92915050565b60008060008060008060c08789031215620001ed578182fd5b620001f98888620001b6565b95506200020a8860208901620001b6565b94506200021b8860408901620001b6565b9350606087015192506080870151915060a087015190509295509295509295565b6020808252602b908201527f527562794d6173746572436865663a20496e76616c696420527562795374616b60408201526a32b91030b2323932b9b99760a91b606082015260800190565b6020808252602a908201527f527562794d6173746572436865663a20496e76616c69642052756279546f6b65604082015269371030b2323932b9b99760b11b606082015260800190565b60208082526029908201527f527562794d6173746572436865663a20496e76616c69642074726561737572796040820152681030b2323932b9b99760b91b606082015260800190565b6020808252602d908201527f527562794d6173746572436865663a20496e76616c696420656d697373696f6e60408201526c103930ba329030b6b7bab73a1760991b606082015260800190565b6020808252602f908201527f527562794d6173746572436865663a20696e76616c696420747265617375727960408201526e103832b931b2b73a103b30b63ab29760891b606082015260800190565b60805160601c6129de620003e860003980610466528061063252806106e25280610ad65280611c5152506129de6000f3fe608060405234801561001057600080fd5b50600436106101c45760003560e01c8063715018a6116100f9578063af3315fd11610097578063e2bbb15811610071578063e2bbb15814610375578063e6fd48bc14610388578063f2fde38b14610390578063ffcd4263146103a3576101c4565b8063af3315fd14610344578063bc70fdbc1461034c578063c0a0a5a21461036d576101c4565b80638da5cb5b116100d35780638da5cb5b146102f557806393f1a40b146102fd578063a7e05b9c1461031e578063ab7de09814610331576101c4565b8063715018a6146102c757806388bba42f146102cf57806389a2bc25146102e2576101c4565b806330d9a62a1161016657806351eb05a61161014057806351eb05a6146102865780635312ea8e14610299578063630b5ba1146102ac5780636ba4c138146102b4576101c4565b806330d9a62a1461025857806341c4b4e814610260578063441a3e7014610273576101c4565b80630cf64bbb116101a25780630cf64bbb1461020457806312c09a3a146102195780631526fe271461022c57806317caf6f114610250576101c4565b806304ef9d58146101c9578063081e3eda146101e75780630ba84cd2146101ef575b600080fd5b6101d16103c6565b6040516101de91906128dd565b60405180910390f35b6101d16103cc565b6102026101fd3660046121e1565b6103d2565b005b61020c610464565b6040516101de9190612333565b610202610227366004612058565b610488565b61023f61023a3660046121e1565b610537565b6040516101de9594939291906123a8565b6101d1610582565b61020c610588565b61020261026e366004612074565b610597565b610202610281366004612281565b61074e565b6102026102943660046121e1565b610993565b6102026102a73660046121e1565b610b7a565b610202610c46565b6102026102c236600461209f565b610c69565b610202610dbe565b6102026102dd3660046122a2565b610e47565b6102026102f03660046121e1565b610ff4565b61020c611095565b61031061030b366004612211565b6110a4565b6040516101de929190612931565b61020261032c366004612058565b6110c8565b61020261033f366004612240565b61113e565b6101d16113bf565b61035f61035a3660046121e1565b6113c5565b6040516101de929190612384565b61020c61151e565b610202610383366004612281565b61152d565b6101d1611747565b61020261039e366004612058565b61174d565b6103b66103b1366004612211565b61180d565b6040516101de94939291906128e6565b60055481565b60065490565b6103da611a46565b6001600160a01b03166103eb611095565b6001600160a01b03161461041a5760405162461bcd60e51b815260040161041190612697565b60405180910390fd5b610422610c46565b600481905560405133907fe2492e003bbe8afa53088b406f0c1cb5d9e280370fc72a74cf116ffd343c4053906104599084906128dd565b60405180910390a250565b7f000000000000000000000000000000000000000000000000000000000000000081565b610490611a46565b6001600160a01b03166104a1611095565b6001600160a01b0316146104c75760405162461bcd60e51b815260040161041190612697565b6001600160a01b0381166104ed5760405162461bcd60e51b81526004016104119061248c565b600280546001600160a01b0319166001600160a01b0383169081179091556040517f655a9d8a0fb724de9baabf3565fbf1811d7816028d8ef077381214d907ee9cb190600090a250565b6006818154811061054457fe5b6000918252602090912060059091020180546001820154600283015460038401546004909401546001600160a01b0393841695509193909290911685565b600a5481565b6003546001600160a01b031681565b61059f611a46565b6001600160a01b03166105b0611095565b6001600160a01b0316146105d65760405162461bcd60e51b815260040161041190612697565b6001600160a01b0382166105fc5760405162461bcd60e51b8152600401610411906125dc565b806106195760405162461bcd60e51b815260040161041190612729565b6040516370a0823160e01b815281906001600160a01b037f000000000000000000000000000000000000000000000000000000000000000016906370a0823190610667903090600401612333565b60206040518083038186803b15801561067f57600080fd5b505afa158015610693573d6000803e3d6000fd5b505050506040513d601f19601f820116820180604052508101906106b791906121f9565b10156106d55760405162461bcd60e51b81526004016104119061258d565b6107096001600160a01b037f0000000000000000000000000000000000000000000000000000000000000000168383611a4a565b816001600160a01b03167f97087e23afd36ddec15b9c40871fd3b322874ec0b2f759287d51f5f9b40d13ec8260405161074291906128dd565b60405180910390a25050565b600260015414156107715760405162461bcd60e51b8152600401610411906128a6565b600260018190555060006006838154811061078857fe5b6000918252602080832086845260098252604080852033865290925292208054600590920290920192508311156107d15760405162461bcd60e51b8152600401610411906127b9565b6107da84610993565b6000610814826001015461080e64e8d4a5100061080887600301548760000154611b4090919063ffffffff16565b90611b83565b90611bb5565b90508015610869576108263382611bdd565b84336001600160a01b03167f71bab65ced2e5750775a0613be067df48ef06cf92a496ebf7663ae06609249548360405161086091906128dd565b60405180910390a35b81546108759085611bb5565b80835560038401546108929164e8d4a51000916108089190611b40565b82600101819055506000600686815481106108a957fe5b60009182526020909120600460059092020101546001600160a01b03169050801561092f57825460405163b8735ca360e01b81526001600160a01b0383169163b8735ca3916108fc913391600401612347565b600060405180830381600087803b15801561091657600080fd5b505af115801561092a573d6000803e3d6000fd5b505050505b8354610945906001600160a01b03163387611a4a565b85336001600160a01b03167ff279e6a1f5e320cca91135676d9cb6e44ca8a08c0b88342bcdb1144f6511b5688760405161097f91906128dd565b60405180910390a350506001805550505050565b6000600682815481106109a257fe5b90600052602060002090600502019050806002015442116109c35750610b77565b80546040516370a0823160e01b81526000916001600160a01b0316906370a08231906109f3903090600401612333565b60206040518083038186803b158015610a0b57600080fd5b505afa158015610a1f573d6000803e3d6000fd5b505050506040513d601f19601f82011682018060405250810190610a4391906121f9565b905080610a57575042600290910155610b77565b6000610a70836002015442611bb590919063ffffffff16565b90506000610a9d600a546108088660010154610a9760045487611b4090919063ffffffff16565b90611b40565b6005546003549192506103e881810392610afd926001600160a01b0390911691610acc91610808908790611b40565b6001600160a01b037f0000000000000000000000000000000000000000000000000000000000000000169190611a4a565b610b26610b1b6103e861080884610a9789838964e8d4a51000611b40565b600387015490611c7b565b60038601819055426002870181905560405188927f3be3541fc42237d611b30329040bfa4569541d156560acdbbae57640d20b8f4692610b69929091899161293f565b60405180910390a250505050505b50565b60026001541415610b9d5760405162461bcd60e51b8152600401610411906128a6565b6002600181905550600060068281548110610bb457fe5b60009182526020808320858452600982526040808520338087529352909320805460059093029093018054909450610bf9926001600160a01b03919091169190611a4a565b8054604051849133917fbb757047c2b5f3974fe26b7c10f732e7bce710b0952a71082702781e62ae059591610c2d916128dd565b60405180910390a3600080825560019182015580555050565b60065460005b81811015610c6557610c5d81610993565b600101610c4c565b5050565b610c71610c46565b6000805b82811015610d675760006006858584818110610c8d57fe5b9050602002013581548110610c9e57fe5b90600052602060002090600502019050600060096000878786818110610cc057fe5b9050602002013581526020019081526020016000206000336001600160a01b03166001600160a01b031681526020019081526020016000209050610d30610d29826001015461080e64e8d4a5100061080887600301548760000154611b4090919063ffffffff16565b8590611c7b565b9350610d5664e8d4a5100061080884600301548460000154611b4090919063ffffffff16565b600191820155919091019050610c75565b508015610d7857610d783382611bdd565b336001600160a01b03167f351d209c2fc728f2b988517156e6600339c242b0121854aad347682479e0334a82604051610db191906128dd565b60405180910390a2505050565b610dc6611a46565b6001600160a01b0316610dd7611095565b6001600160a01b031614610dfd5760405162461bcd60e51b815260040161041190612697565b600080546040516001600160a01b03909116907f8be0079c531659141344cd1fd0a4f28419497f9722a3daafe3b4186f6b6457e0908390a3600080546001600160a01b0319169055565b610e4f611a46565b6001600160a01b0316610e60611095565b6001600160a01b031614610e865760405162461bcd60e51b815260040161041190612697565b610e8f82611ca0565b80610ea157506001600160a01b038216155b610ebd5760405162461bcd60e51b8152600401610411906127e5565b610ec5610c46565b610f0283610efc60068781548110610ed957fe5b906000526020600020906005020160010154600a54611bb590919063ffffffff16565b90611c7b565b600a819055508260068581548110610f1657fe5b9060005260206000209060050201600101819055508015610f75578160068581548110610f3f57fe5b906000526020600020906005020160040160006101000a8154816001600160a01b0302191690836001600160a01b031602179055505b80610fa95760068481548110610f8757fe5b60009182526020909120600460059092020101546001600160a01b0316610fab565b815b6001600160a01b0316847f5cc19c778e63c1c2263d75219c925ca41f42f892526d0d814a7d4beb1425ffb78584604051610fe6929190612921565b60405180910390a350505050565b610ffc611a46565b6001600160a01b031661100d611095565b6001600160a01b0316146110335760405162461bcd60e51b815260040161041190612697565b6103e88111156110555760405162461bcd60e51b8152600401610411906124d6565b60058190556040517fcd5bca6a422e5cbcaeb47e746280c12e96040b2991cd5c6c4e98f08e4692c4b09061108a9083906128dd565b60405180910390a150565b6000546001600160a01b031690565b60096020908152600092835260408084209091529082529020805460019091015482565b6003546001600160a01b031633146110f25760405162461bcd60e51b8152600401610411906126cc565b600380546001600160a01b0319166001600160a01b03831690811790915560405133907f61885cdba916be748ff3e3f6f15e4206153b8ea3b7acabade9d04b4063a8351090600090a350565b611146611a46565b6001600160a01b0316611157611095565b6001600160a01b03161461117d5760405162461bcd60e51b815260040161041190612697565b61118682611ca0565b6111a25760405162461bcd60e51b815260040161041190612773565b6111ab81611ca0565b806111bd57506001600160a01b038116155b6111d95760405162461bcd60e51b81526004016104119061282b565b6111e4600783611caa565b156112015760405162461bcd60e51b815260040161041190612668565b611209610c46565b6000600b54421161121c57600b5461121e565b425b600a5490915061122e9085611c7b565b600a556040805160a0810182526001600160a01b038581168252602082018781529282018481526000606084018181528784166080860190815260068054600181018255935294517ff652222313e28459528d920b65115c16c04f3efc82aaedc97be59f3f377c0d3f600590930292830180546001600160a01b031990811692871692909217905595517ff652222313e28459528d920b65115c16c04f3efc82aaedc97be59f3f377c0d4083015591517ff652222313e28459528d920b65115c16c04f3efc82aaedc97be59f3f377c0d4182015590517ff652222313e28459528d920b65115c16c04f3efc82aaedc97be59f3f377c0d4282015591517ff652222313e28459528d920b65115c16c04f3efc82aaedc97be59f3f377c0d4390920180549093169116179055611363600784611cbf565b506006546001600160a01b038084169190851690611382906001611bb5565b7f0621c8de33a230aec1aee0d4f7b6c81d97bd3ce0a2040ca33fbd668e521ecafe876040516113b191906128dd565b60405180910390a450505050565b60045481565b600060606000600684815481106113d857fe5b6000918252602090912060059091020160048101549091506001600160a01b031615611518576004808201546040805163f7c618c160e01b815290516001600160a01b039092169263f7c618c1928282019260209290829003018186803b15801561144257600080fd5b505afa158015611456573d6000803e3d6000fd5b505050506040513d601f19601f8201168201806040525081019061147a919061212a565b92506115158160040160009054906101000a90046001600160a01b03166001600160a01b031663f7c618c16040518163ffffffff1660e01b815260040160206040518083038186803b1580156114cf57600080fd5b505afa1580156114e3573d6000803e3d6000fd5b505050506040513d601f19601f82011682018060405250810190611507919061212a565b6001600160a01b0316611cd4565b91505b50915091565b6002546001600160a01b031681565b600260015414156115505760405162461bcd60e51b8152600401610411906128a6565b600260018190555060006006838154811061156757fe5b6000918252602080832086845260098252604080852033865290925292206005909102909101915061159884610993565b80541561161d5760006115cd826001015461080e64e8d4a5100061080887600301548760000154611b4090919063ffffffff16565b90506115d93382611bdd565b84336001600160a01b03167f71bab65ced2e5750775a0613be067df48ef06cf92a496ebf7663ae06609249548360405161161391906128dd565b60405180910390a3505b80546116299084611c7b565b80825560038301546116469164e8d4a51000916108089190611b40565b816001018190555060006006858154811061165d57fe5b60009182526020909120600460059092020101546001600160a01b0316905080156116e357815460405163b8735ca360e01b81526001600160a01b0383169163b8735ca3916116b0913391600401612347565b600060405180830381600087803b1580156116ca57600080fd5b505af11580156116de573d6000803e3d6000fd5b505050505b82546116fa906001600160a01b0316333087611d97565b84336001600160a01b03167f90890809c654f11d6e72a28fa60149770a0d11ec6c92319d6ceb2bb0a4ea1a158660405161173491906128dd565b60405180910390a3505060018055505050565b600b5481565b611755611a46565b6001600160a01b0316611766611095565b6001600160a01b03161461178c5760405162461bcd60e51b815260040161041190612697565b6001600160a01b0381166117b25760405162461bcd60e51b81526004016104119061240f565b600080546040516001600160a01b03808516939216917f8be0079c531659141344cd1fd0a4f28419497f9722a3daafe3b4186f6b6457e091a3600080546001600160a01b0319166001600160a01b0392909216919091179055565b60008060606000806006878154811061182257fe5b600091825260208083208a84526009825260408085206001600160a01b03808d16875293528085206003600590950290920193840154845491516370a0823160e01b815294965091949193919216906370a0823190611885903090600401612333565b60206040518083038186803b15801561189d57600080fd5b505afa1580156118b1573d6000803e3d6000fd5b505050506040513d601f19601f820116820180604052508101906118d591906121f9565b90508360020154421180156118e957508015155b15611968576000611907856002015442611bb590919063ffffffff16565b905060006005546103e803905060006119436103e861080884610a97600a546108088d60010154610a976004548c611b4090919063ffffffff16565b905061196261195b856108088464e8d4a51000611b40565b8690611c7b565b94505050505b611990836001015461080e64e8d4a51000610808868860000154611b4090919063ffffffff16565b60048501549098506001600160a01b031615611a39576119af8a6113c5565b60048087015460405163c031a66f60e01b8152939a509198506001600160a01b039091169163c031a66f916119e6918d9101612333565b60206040518083038186803b1580156119fe57600080fd5b505afa158015611a12573d6000803e3d6000fd5b505050506040513d601f19601f82011682018060405250810190611a3691906121f9565b94505b5050505092959194509250565b3390565b60006060846001600160a01b031663a9059cbb60e01b8585604051602401611a73929190612347565b60408051601f198184030181529181526020820180516001600160e01b03166001600160e01b0319909416939093179092529051611ab19190612317565b6000604051808303816000865af19150503d8060008114611aee576040519150601f19603f3d011682016040523d82523d6000602084013e611af3565b606091505b5091509150818015611b1d575080511580611b1d575080806020019051810190611b1d919061210e565b611b395760405162461bcd60e51b8152600401610411906123d8565b5050505050565b600082611b4f57506000611b7d565b82820282848281611b5c57fe5b0414611b7a5760405162461bcd60e51b815260040161041190612627565b90505b92915050565b6000808211611ba45760405162461bcd60e51b815260040161041190612556565b818381611bad57fe5b049392505050565b600082821115611bd75760405162461bcd60e51b81526004016104119061251f565b50900390565b6002546040516340c10f1960e01b81526001600160a01b03909116906340c10f1990611c0f9085908590600401612347565b600060405180830381600087803b158015611c2957600080fd5b505af1158015611c3d573d6000803e3d6000fd5b5050600254610c6592506001600160a01b037f0000000000000000000000000000000000000000000000000000000000000000811692501683611a4a565b600082820183811015611b7a5760405162461bcd60e51b815260040161041190612455565b803b15155b919050565b6000611b7a836001600160a01b038416611e90565b6000611b7a836001600160a01b038416611ea8565b60408051600481526024810182526020810180516001600160e01b03166395d89b4160e01b179052905160609160009183916001600160a01b03861691611d1b9190612317565b600060405180830381855afa9150503d8060008114611d56576040519150601f19603f3d011682016040523d82523d6000602084013e611d5b565b606091505b509150915081611d8657604051806040016040528060038152602001623f3f3f60e81b815250611d8f565b611d8f81611ef2565b949350505050565b60006060856001600160a01b03166323b872dd60e01b868686604051602401611dc293929190612360565b60408051601f198184030181529181526020820180516001600160e01b03166001600160e01b0319909416939093179092529051611e009190612317565b6000604051808303816000865af19150503d8060008114611e3d576040519150601f19603f3d011682016040523d82523d6000602084013e611e42565b606091505b5091509150818015611e6c575080511580611e6c575080806020019051810190611e6c919061210e565b611e885760405162461bcd60e51b815260040161041190612871565b505050505050565b60009081526001919091016020526040902054151590565b6000611eb48383611e90565b611eea57508154600181810184556000848152602080822090930184905584548482528286019093526040902091909155611b7d565b506000611b7d565b60606040825110611f185781806020019051810190611f119190612146565b9050611ca5565b8151602014156120385760005b60208160ff16108015611f545750828160ff1681518110611f4257fe5b01602001516001600160f81b03191615155b15611f6157600101611f25565b60608160ff1667ffffffffffffffff81118015611f7d57600080fd5b506040519080825280601f01601f191660200182016040528015611fa8576020820181803683370190505b509050600091505b60208260ff16108015611fdf5750838260ff1681518110611fcd57fe5b01602001516001600160f81b03191615155b1561202f57838260ff1681518110611ff357fe5b602001015160f81c60f81b818360ff168151811061200d57fe5b60200101906001600160f81b031916908160001a905350600190910190611fb0565b9150611ca59050565b506040805180820190915260038152623f3f3f60e81b6020820152611ca5565b600060208284031215612069578081fd5b8135611b7a81612985565b60008060408385031215612086578081fd5b823561209181612985565b946020939093013593505050565b600080602083850312156120b1578182fd5b823567ffffffffffffffff808211156120c8578384fd5b818501915085601f8301126120db578384fd5b8135818111156120e9578485fd5b86602080830285010111156120fc578485fd5b60209290920196919550909350505050565b60006020828403121561211f578081fd5b8151611b7a8161299a565b60006020828403121561213b578081fd5b8151611b7a81612985565b600060208284031215612157578081fd5b815167ffffffffffffffff8082111561216e578283fd5b818401915084601f830112612181578283fd5b81518181111561218f578384fd5b604051601f8201601f1916810160200183811182821017156121af578586fd5b6040528181528382016020018710156121c6578485fd5b6121d7826020830160208701612955565b9695505050505050565b6000602082840312156121f2578081fd5b5035919050565b60006020828403121561220a578081fd5b5051919050565b60008060408385031215612223578182fd5b82359150602083013561223581612985565b809150509250929050565b600080600060608486031215612254578081fd5b83359250602084013561226681612985565b9150604084013561227681612985565b809150509250925092565b60008060408385031215612293578182fd5b50508035926020909101359150565b600080600080608085870312156122b7578081fd5b843593506020850135925060408501356122d081612985565b915060608501356122e08161299a565b939692955090935050565b60008151808452612303816020860160208601612955565b601f01601f19169290920160200192915050565b60008251612329818460208701612955565b9190910192915050565b6001600160a01b0391909116815260200190565b6001600160a01b03929092168252602082015260400190565b6001600160a01b039384168152919092166020820152604081019190915260600190565b6001600160a01b0383168152604060208201819052600090611d8f908301846122eb565b6001600160a01b039586168152602081019490945260408401929092526060830152909116608082015260a00190565b6020808252601c908201527f426f72696e6745524332303a205472616e73666572206661696c656400000000604082015260600190565b60208082526026908201527f4f776e61626c653a206e6577206f776e657220697320746865207a65726f206160408201526564647265737360d01b606082015260800190565b6020808252601b908201527f536166654d6174683a206164646974696f6e206f766572666c6f770000000000604082015260600190565b6020808252602a908201527f736574527562795374616b65723a20696e76616c69642072756279206d696e746040820152696572206164647265737360b01b606082015260800190565b60208082526029908201527f736574547265617375727950657263656e743a20696e76616c69642070657263604082015268656e742076616c756560b81b606082015260800190565b6020808252601e908201527f536166654d6174683a207375627472616374696f6e206f766572666c6f770000604082015260600190565b6020808252601a908201527f536166654d6174683a206469766973696f6e206279207a65726f000000000000604082015260600190565b6020808252602f908201527f527562794d6173746572436865663a204e6f7420656e6f7567682062616c616e60408201526e31b2903a37903bb4ba34323930bb9760891b606082015260800190565b6020808252602b908201527f527562794d6173746572436865663a20496e76616c696420776974686472617760408201526a30b61030b2323932b9b99760a91b606082015260800190565b60208082526021908201527f536166654d6174683a206d756c7469706c69636174696f6e206f766572666c6f6040820152607760f81b606082015260800190565b6020808252601590820152741859190e88131408185b1c9958591e481859191959605a1b604082015260600190565b6020808252818101527f4f776e61626c653a2063616c6c6572206973206e6f7420746865206f776e6572604082015260600190565b6020808252603e908201527f7365745472656173757279416464723a206e6f7420656e6f756768207065726d60408201527f697373696f6e7320746f2065786563757465207468697320616374696f6e0000606082015260800190565b6020808252602a908201527f527562794d6173746572436865663a20496e76616c696420776974686472617760408201526930b61030b6b7bab73a1760b11b606082015260800190565b60208082526026908201527f6164643a204c5020746f6b656e206d75737420626520612076616c696420636f6040820152651b9d1c9858dd60d21b606082015260800190565b6020808252601290820152711dda5d1a191c985dce881b9bdd0819dbdbd960721b604082015260600190565b60208082526026908201527f7365743a207265776172646572206d75737420626520636f6e7472616374206f60408201526572207a65726f60d01b606082015260800190565b60208082526026908201527f6164643a207265776172646572206d75737420626520636f6e7472616374206f60408201526572207a65726f60d01b606082015260800190565b6020808252818101527f426f72696e6745524332303a205472616e7366657246726f6d206661696c6564604082015260600190565b6020808252601f908201527f5265656e7472616e637947756172643a207265656e7472616e742063616c6c00604082015260600190565b90815260200190565b8481526001600160a01b0384166020820152608060408201819052600090612910908301856122eb565b905082606083015295945050505050565b9182521515602082015260400190565b918252602082015260400190565b9283526020830191909152604082015260600190565b60005b83811015612970578181015183820152602001612958565b8381111561297f576000848401525b50505050565b6001600160a01b0381168114610b7757600080fd5b8015158114610b7757600080fdfea2646970667358221220a7d8d48d5ef3a2cfc6acd0e41ae1678e5673037511c7885dc5f89ccd362bdee164736f6c634300060c0033",
  "devdoc": {
    "kind": "dev",
    "methods": {
      "owner()": {
        "details": "Returns the address of the current owner."
      },
      "renounceOwnership()": {
        "details": "Leaves the contract without owner. It will not be possible to call `onlyOwner` functions anymore. Can only be called by the current owner. NOTE: Renouncing ownership will leave the contract without an owner, thereby removing any functionality that is only available to the owner."
      },
      "transferOwnership(address)": {
        "details": "Transfers ownership of the contract to a new account (`newOwner`). Can only be called by the current owner."
      }
    },
    "version": 1
  },
  "userdoc": {
    "kind": "user",
    "methods": {
      "emergencyWithdrawRubyTokens(address,uint256)": {
        "notice": "Owner should be able to withdraw all the Reward tokens in case of emergency. The owner should be able to withdraw the tokens to himself or another address The RubyMasterChef contract will be placed behind a timelock, and the owner/deployer will be a multisig, so this should not raise trust concerns. This function is needed because the RubyMasterChef will be pre-fed with all of the reward tokens (RUBY) tokens dedicated for liquidity mining incentives, and incase of unfortunate situation they should be retreived."
      }
    },
    "version": 1
  },
  "storageLayout": {
    "storage": [
      {
        "astId": 2120,
        "contract": "contracts/RubyMasterChef.sol:RubyMasterChef",
        "label": "_owner",
        "offset": 0,
        "slot": "0",
        "type": "t_address"
      },
      {
        "astId": 6341,
        "contract": "contracts/RubyMasterChef.sol:RubyMasterChef",
        "label": "_status",
        "offset": 0,
        "slot": "1",
        "type": "t_uint256"
      },
      {
        "astId": 7454,
        "contract": "contracts/RubyMasterChef.sol:RubyMasterChef",
        "label": "rubyStaker",
        "offset": 0,
        "slot": "2",
        "type": "t_contract(IRubyStaker)16580"
      },
      {
        "astId": 7456,
        "contract": "contracts/RubyMasterChef.sol:RubyMasterChef",
        "label": "treasuryAddr",
        "offset": 0,
        "slot": "3",
        "type": "t_address"
      },
      {
        "astId": 7458,
        "contract": "contracts/RubyMasterChef.sol:RubyMasterChef",
        "label": "rubyPerSec",
        "offset": 0,
        "slot": "4",
        "type": "t_uint256"
      },
      {
        "astId": 7460,
        "contract": "contracts/RubyMasterChef.sol:RubyMasterChef",
        "label": "treasuryPercent",
        "offset": 0,
        "slot": "5",
        "type": "t_uint256"
      },
      {
        "astId": 7463,
        "contract": "contracts/RubyMasterChef.sol:RubyMasterChef",
        "label": "poolInfo",
        "offset": 0,
        "slot": "6",
        "type": "t_array(t_struct(PoolInfo)7450_storage)dyn_storage"
      },
      {
        "astId": 7465,
        "contract": "contracts/RubyMasterChef.sol:RubyMasterChef",
        "label": "lpTokens",
        "offset": 0,
        "slot": "7",
        "type": "t_struct(AddressSet)6114_storage"
      },
      {
        "astId": 7471,
        "contract": "contracts/RubyMasterChef.sol:RubyMasterChef",
        "label": "userInfo",
        "offset": 0,
        "slot": "9",
        "type": "t_mapping(t_uint256,t_mapping(t_address,t_struct(UserInfo)7439_storage))"
      },
      {
        "astId": 7473,
        "contract": "contracts/RubyMasterChef.sol:RubyMasterChef",
        "label": "totalAllocPoint",
        "offset": 0,
        "slot": "10",
        "type": "t_uint256"
      },
      {
        "astId": 7478,
        "contract": "contracts/RubyMasterChef.sol:RubyMasterChef",
        "label": "startTimestamp",
        "offset": 0,
        "slot": "11",
        "type": "t_uint256"
      }
    ],
    "types": {
      "t_address": {
        "encoding": "inplace",
        "label": "address",
        "numberOfBytes": "20"
      },
      "t_array(t_bytes32)dyn_storage": {
        "base": "t_bytes32",
        "encoding": "dynamic_array",
        "label": "bytes32[]",
        "numberOfBytes": "32"
      },
      "t_array(t_struct(PoolInfo)7450_storage)dyn_storage": {
        "base": "t_struct(PoolInfo)7450_storage",
        "encoding": "dynamic_array",
        "label": "struct RubyMasterChef.PoolInfo[]",
        "numberOfBytes": "32"
      },
      "t_bytes32": {
        "encoding": "inplace",
        "label": "bytes32",
        "numberOfBytes": "32"
      },
      "t_contract(IERC20)3530": {
        "encoding": "inplace",
        "label": "contract IERC20",
        "numberOfBytes": "20"
      },
      "t_contract(IRubyMasterChefRewarder)16554": {
        "encoding": "inplace",
        "label": "contract IRubyMasterChefRewarder",
        "numberOfBytes": "20"
      },
      "t_contract(IRubyStaker)16580": {
        "encoding": "inplace",
        "label": "contract IRubyStaker",
        "numberOfBytes": "20"
      },
      "t_mapping(t_address,t_struct(UserInfo)7439_storage)": {
        "encoding": "mapping",
        "key": "t_address",
        "label": "mapping(address => struct RubyMasterChef.UserInfo)",
        "numberOfBytes": "32",
        "value": "t_struct(UserInfo)7439_storage"
      },
      "t_mapping(t_bytes32,t_uint256)": {
        "encoding": "mapping",
        "key": "t_bytes32",
        "label": "mapping(bytes32 => uint256)",
        "numberOfBytes": "32",
        "value": "t_uint256"
      },
      "t_mapping(t_uint256,t_mapping(t_address,t_struct(UserInfo)7439_storage))": {
        "encoding": "mapping",
        "key": "t_uint256",
        "label": "mapping(uint256 => mapping(address => struct RubyMasterChef.UserInfo))",
        "numberOfBytes": "32",
        "value": "t_mapping(t_address,t_struct(UserInfo)7439_storage)"
      },
      "t_struct(AddressSet)6114_storage": {
        "encoding": "inplace",
        "label": "struct EnumerableSet.AddressSet",
        "members": [
          {
            "astId": 6113,
            "contract": "contracts/RubyMasterChef.sol:RubyMasterChef",
            "label": "_inner",
            "offset": 0,
            "slot": "0",
            "type": "t_struct(Set)5849_storage"
          }
        ],
        "numberOfBytes": "64"
      },
      "t_struct(PoolInfo)7450_storage": {
        "encoding": "inplace",
        "label": "struct RubyMasterChef.PoolInfo",
        "members": [
          {
            "astId": 7441,
            "contract": "contracts/RubyMasterChef.sol:RubyMasterChef",
            "label": "lpToken",
            "offset": 0,
            "slot": "0",
            "type": "t_contract(IERC20)3530"
          },
          {
            "astId": 7443,
            "contract": "contracts/RubyMasterChef.sol:RubyMasterChef",
            "label": "allocPoint",
            "offset": 0,
            "slot": "1",
            "type": "t_uint256"
          },
          {
            "astId": 7445,
            "contract": "contracts/RubyMasterChef.sol:RubyMasterChef",
            "label": "lastRewardTimestamp",
            "offset": 0,
            "slot": "2",
            "type": "t_uint256"
          },
          {
            "astId": 7447,
            "contract": "contracts/RubyMasterChef.sol:RubyMasterChef",
            "label": "accRubyPerShare",
            "offset": 0,
            "slot": "3",
            "type": "t_uint256"
          },
          {
            "astId": 7449,
            "contract": "contracts/RubyMasterChef.sol:RubyMasterChef",
            "label": "rewarder",
            "offset": 0,
            "slot": "4",
            "type": "t_contract(IRubyMasterChefRewarder)16554"
          }
        ],
        "numberOfBytes": "160"
      },
      "t_struct(Set)5849_storage": {
        "encoding": "inplace",
        "label": "struct EnumerableSet.Set",
        "members": [
          {
            "astId": 5844,
            "contract": "contracts/RubyMasterChef.sol:RubyMasterChef",
            "label": "_values",
            "offset": 0,
            "slot": "0",
            "type": "t_array(t_bytes32)dyn_storage"
          },
          {
            "astId": 5848,
            "contract": "contracts/RubyMasterChef.sol:RubyMasterChef",
            "label": "_indexes",
            "offset": 0,
            "slot": "1",
            "type": "t_mapping(t_bytes32,t_uint256)"
          }
        ],
        "numberOfBytes": "64"
      },
      "t_struct(UserInfo)7439_storage": {
        "encoding": "inplace",
        "label": "struct RubyMasterChef.UserInfo",
        "members": [
          {
            "astId": 7436,
            "contract": "contracts/RubyMasterChef.sol:RubyMasterChef",
            "label": "amount",
            "offset": 0,
            "slot": "0",
            "type": "t_uint256"
          },
          {
            "astId": 7438,
            "contract": "contracts/RubyMasterChef.sol:RubyMasterChef",
            "label": "rewardDebt",
            "offset": 0,
            "slot": "1",
            "type": "t_uint256"
          }
        ],
        "numberOfBytes": "64"
      },
      "t_uint256": {
        "encoding": "inplace",
        "label": "uint256",
        "numberOfBytes": "32"
      }
    }
  }
}