{
  "address": "0x987B70353932AA26B819EdC61DB56b61011dC734",
  "abi": [
    {
      "inputs": [],
      "stateMutability": "nonpayable",
      "type": "constructor"
    },
    {
      "anonymous": false,
      "inputs": [
        {
          "indexed": true,
          "internalType": "address",
          "name": "owner",
          "type": "address"
        },
        {
          "indexed": true,
          "internalType": "address",
          "name": "spender",
          "type": "address"
        },
        {
          "indexed": false,
          "internalType": "uint256",
          "name": "value",
          "type": "uint256"
        }
      ],
      "name": "Approval",
      "type": "event"
    },
    {
      "anonymous": false,
      "inputs": [
        {
          "indexed": true,
          "internalType": "address",
          "name": "delegator",
          "type": "address"
        },
        {
          "indexed": true,
          "internalType": "address",
          "name": "fromDelegate",
          "type": "address"
        },
        {
          "indexed": true,
          "internalType": "address",
          "name": "toDelegate",
          "type": "address"
        }
      ],
      "name": "DelegateChanged",
      "type": "event"
    },
    {
      "anonymous": false,
      "inputs": [
        {
          "indexed": true,
          "internalType": "address",
          "name": "delegate",
          "type": "address"
        },
        {
          "indexed": false,
          "internalType": "uint256",
          "name": "previousBalance",
          "type": "uint256"
        },
        {
          "indexed": false,
          "internalType": "uint256",
          "name": "newBalance",
          "type": "uint256"
        }
      ],
      "name": "DelegateVotesChanged",
      "type": "event"
    },
    {
      "anonymous": false,
      "inputs": [
        {
          "indexed": true,
          "internalType": "bytes32",
          "name": "role",
          "type": "bytes32"
        },
        {
          "indexed": true,
          "internalType": "bytes32",
          "name": "previousAdminRole",
          "type": "bytes32"
        },
        {
          "indexed": true,
          "internalType": "bytes32",
          "name": "newAdminRole",
          "type": "bytes32"
        }
      ],
      "name": "RoleAdminChanged",
      "type": "event"
    },
    {
      "anonymous": false,
      "inputs": [
        {
          "indexed": true,
          "internalType": "bytes32",
          "name": "role",
          "type": "bytes32"
        },
        {
          "indexed": true,
          "internalType": "address",
          "name": "account",
          "type": "address"
        },
        {
          "indexed": true,
          "internalType": "address",
          "name": "sender",
          "type": "address"
        }
      ],
      "name": "RoleGranted",
      "type": "event"
    },
    {
      "anonymous": false,
      "inputs": [
        {
          "indexed": true,
          "internalType": "bytes32",
          "name": "role",
          "type": "bytes32"
        },
        {
          "indexed": true,
          "internalType": "address",
          "name": "account",
          "type": "address"
        },
        {
          "indexed": true,
          "internalType": "address",
          "name": "sender",
          "type": "address"
        }
      ],
      "name": "RoleRevoked",
      "type": "event"
    },
    {
      "anonymous": false,
      "inputs": [
        {
          "indexed": true,
          "internalType": "address",
          "name": "from",
          "type": "address"
        },
        {
          "indexed": true,
          "internalType": "address",
          "name": "to",
          "type": "address"
        },
        {
          "indexed": false,
          "internalType": "uint256",
          "name": "value",
          "type": "uint256"
        }
      ],
      "name": "Transfer",
      "type": "event"
    },
    {
      "inputs": [],
      "name": "BURNER_FROM_ROLE_MAKER",
      "outputs": [
        {
          "internalType": "bytes32",
          "name": "",
          "type": "bytes32"
        }
      ],
      "stateMutability": "view",
      "type": "function"
    },
    {
      "inputs": [],
      "name": "BURNER_ROLE_IMA",
      "outputs": [
        {
          "internalType": "bytes32",
          "name": "",
          "type": "bytes32"
        }
      ],
      "stateMutability": "view",
      "type": "function"
    },
    {
      "inputs": [],
      "name": "DEFAULT_ADMIN_ROLE",
      "outputs": [
        {
          "internalType": "bytes32",
          "name": "",
          "type": "bytes32"
        }
      ],
      "stateMutability": "view",
      "type": "function"
    },
    {
      "inputs": [],
      "name": "DELEGATION_TYPEHASH",
      "outputs": [
        {
          "internalType": "bytes32",
          "name": "",
          "type": "bytes32"
        }
      ],
      "stateMutability": "view",
      "type": "function"
    },
    {
      "inputs": [],
      "name": "DOMAIN_TYPEHASH",
      "outputs": [
        {
          "internalType": "bytes32",
          "name": "",
          "type": "bytes32"
        }
      ],
      "stateMutability": "view",
      "type": "function"
    },
    {
      "inputs": [],
      "name": "MAX_SUPPLY",
      "outputs": [
        {
          "internalType": "uint256",
          "name": "",
          "type": "uint256"
        }
      ],
      "stateMutability": "view",
      "type": "function"
    },
    {
      "inputs": [],
      "name": "MINTER_ROLE_IMA",
      "outputs": [
        {
          "internalType": "bytes32",
          "name": "",
          "type": "bytes32"
        }
      ],
      "stateMutability": "view",
      "type": "function"
    },
    {
      "inputs": [
        {
          "internalType": "address",
          "name": "owner",
          "type": "address"
        },
        {
          "internalType": "address",
          "name": "spender",
          "type": "address"
        }
      ],
      "name": "allowance",
      "outputs": [
        {
          "internalType": "uint256",
          "name": "",
          "type": "uint256"
        }
      ],
      "stateMutability": "view",
      "type": "function"
    },
    {
      "inputs": [
        {
          "internalType": "address",
          "name": "spender",
          "type": "address"
        },
        {
          "internalType": "uint256",
          "name": "amount",
          "type": "uint256"
        }
      ],
      "name": "approve",
      "outputs": [
        {
          "internalType": "bool",
          "name": "",
          "type": "bool"
        }
      ],
      "stateMutability": "nonpayable",
      "type": "function"
    },
    {
      "inputs": [
        {
          "internalType": "address",
          "name": "account",
          "type": "address"
        }
      ],
      "name": "balanceOf",
      "outputs": [
        {
          "internalType": "uint256",
          "name": "",
          "type": "uint256"
        }
      ],
      "stateMutability": "view",
      "type": "function"
    },
    {
      "inputs": [
        {
          "internalType": "uint256",
          "name": "amount",
          "type": "uint256"
        }
      ],
      "name": "burn",
      "outputs": [],
      "stateMutability": "nonpayable",
      "type": "function"
    },
    {
      "inputs": [
        {
          "internalType": "address",
          "name": "account",
          "type": "address"
        },
        {
          "internalType": "uint256",
          "name": "amount",
          "type": "uint256"
        }
      ],
      "name": "burnFrom",
      "outputs": [],
      "stateMutability": "nonpayable",
      "type": "function"
    },
    {
      "inputs": [],
      "name": "cap",
      "outputs": [
        {
          "internalType": "uint256",
          "name": "",
          "type": "uint256"
        }
      ],
      "stateMutability": "view",
      "type": "function"
    },
    {
      "inputs": [
        {
          "internalType": "address",
          "name": "",
          "type": "address"
        },
        {
          "internalType": "uint32",
          "name": "",
          "type": "uint32"
        }
      ],
      "name": "checkpoints",
      "outputs": [
        {
          "internalType": "uint32",
          "name": "fromBlock",
          "type": "uint32"
        },
        {
          "internalType": "uint256",
          "name": "votes",
          "type": "uint256"
        }
      ],
      "stateMutability": "view",
      "type": "function"
    },
    {
      "inputs": [],
      "name": "decimals",
      "outputs": [
        {
          "internalType": "uint8",
          "name": "",
          "type": "uint8"
        }
      ],
      "stateMutability": "view",
      "type": "function"
    },
    {
      "inputs": [
        {
          "internalType": "address",
          "name": "spender",
          "type": "address"
        },
        {
          "internalType": "uint256",
          "name": "subtractedValue",
          "type": "uint256"
        }
      ],
      "name": "decreaseAllowance",
      "outputs": [
        {
          "internalType": "bool",
          "name": "",
          "type": "bool"
        }
      ],
      "stateMutability": "nonpayable",
      "type": "function"
    },
    {
      "inputs": [
        {
          "internalType": "address",
          "name": "delegatee",
          "type": "address"
        }
      ],
      "name": "delegate",
      "outputs": [],
      "stateMutability": "nonpayable",
      "type": "function"
    },
    {
      "inputs": [
        {
          "internalType": "address",
          "name": "delegatee",
          "type": "address"
        },
        {
          "internalType": "uint256",
          "name": "nonce",
          "type": "uint256"
        },
        {
          "internalType": "uint256",
          "name": "expiry",
          "type": "uint256"
        },
        {
          "internalType": "uint8",
          "name": "v",
          "type": "uint8"
        },
        {
          "internalType": "bytes32",
          "name": "r",
          "type": "bytes32"
        },
        {
          "internalType": "bytes32",
          "name": "s",
          "type": "bytes32"
        }
      ],
      "name": "delegateBySig",
      "outputs": [],
      "stateMutability": "nonpayable",
      "type": "function"
    },
    {
      "inputs": [
        {
          "internalType": "address",
          "name": "delegator",
          "type": "address"
        }
      ],
      "name": "delegates",
      "outputs": [
        {
          "internalType": "address",
          "name": "",
          "type": "address"
        }
      ],
      "stateMutability": "view",
      "type": "function"
    },
    {
      "inputs": [
        {
          "internalType": "address",
          "name": "account",
          "type": "address"
        }
      ],
      "name": "getCurrentVotes",
      "outputs": [
        {
          "internalType": "uint256",
          "name": "",
          "type": "uint256"
        }
      ],
      "stateMutability": "view",
      "type": "function"
    },
    {
      "inputs": [
        {
          "internalType": "address",
          "name": "account",
          "type": "address"
        },
        {
          "internalType": "uint256",
          "name": "blockNumber",
          "type": "uint256"
        }
      ],
      "name": "getPriorVotes",
      "outputs": [
        {
          "internalType": "uint256",
          "name": "",
          "type": "uint256"
        }
      ],
      "stateMutability": "view",
      "type": "function"
    },
    {
      "inputs": [
        {
          "internalType": "bytes32",
          "name": "role",
          "type": "bytes32"
        }
      ],
      "name": "getRoleAdmin",
      "outputs": [
        {
          "internalType": "bytes32",
          "name": "",
          "type": "bytes32"
        }
      ],
      "stateMutability": "view",
      "type": "function"
    },
    {
      "inputs": [
        {
          "internalType": "bytes32",
          "name": "role",
          "type": "bytes32"
        },
        {
          "internalType": "uint256",
          "name": "index",
          "type": "uint256"
        }
      ],
      "name": "getRoleMember",
      "outputs": [
        {
          "internalType": "address",
          "name": "",
          "type": "address"
        }
      ],
      "stateMutability": "view",
      "type": "function"
    },
    {
      "inputs": [
        {
          "internalType": "bytes32",
          "name": "role",
          "type": "bytes32"
        }
      ],
      "name": "getRoleMemberCount",
      "outputs": [
        {
          "internalType": "uint256",
          "name": "",
          "type": "uint256"
        }
      ],
      "stateMutability": "view",
      "type": "function"
    },
    {
      "inputs": [
        {
          "internalType": "bytes32",
          "name": "role",
          "type": "bytes32"
        },
        {
          "internalType": "address",
          "name": "account",
          "type": "address"
        }
      ],
      "name": "grantRole",
      "outputs": [],
      "stateMutability": "nonpayable",
      "type": "function"
    },
    {
      "inputs": [
        {
          "internalType": "bytes32",
          "name": "role",
          "type": "bytes32"
        },
        {
          "internalType": "address",
          "name": "account",
          "type": "address"
        }
      ],
      "name": "hasRole",
      "outputs": [
        {
          "internalType": "bool",
          "name": "",
          "type": "bool"
        }
      ],
      "stateMutability": "view",
      "type": "function"
    },
    {
      "inputs": [
        {
          "internalType": "address",
          "name": "spender",
          "type": "address"
        },
        {
          "internalType": "uint256",
          "name": "addedValue",
          "type": "uint256"
        }
      ],
      "name": "increaseAllowance",
      "outputs": [
        {
          "internalType": "bool",
          "name": "",
          "type": "bool"
        }
      ],
      "stateMutability": "nonpayable",
      "type": "function"
    },
    {
      "inputs": [
        {
          "internalType": "address",
          "name": "to",
          "type": "address"
        },
        {
          "internalType": "uint256",
          "name": "amount",
          "type": "uint256"
        }
      ],
      "name": "mint",
      "outputs": [],
      "stateMutability": "nonpayable",
      "type": "function"
    },
    {
      "inputs": [],
      "name": "name",
      "outputs": [
        {
          "internalType": "string",
          "name": "",
          "type": "string"
        }
      ],
      "stateMutability": "view",
      "type": "function"
    },
    {
      "inputs": [
        {
          "internalType": "address",
          "name": "",
          "type": "address"
        }
      ],
      "name": "nonces",
      "outputs": [
        {
          "internalType": "uint256",
          "name": "",
          "type": "uint256"
        }
      ],
      "stateMutability": "view",
      "type": "function"
    },
    {
      "inputs": [
        {
          "internalType": "address",
          "name": "",
          "type": "address"
        }
      ],
      "name": "numCheckpoints",
      "outputs": [
        {
          "internalType": "uint32",
          "name": "",
          "type": "uint32"
        }
      ],
      "stateMutability": "view",
      "type": "function"
    },
    {
      "inputs": [
        {
          "internalType": "bytes32",
          "name": "role",
          "type": "bytes32"
        },
        {
          "internalType": "address",
          "name": "account",
          "type": "address"
        }
      ],
      "name": "renounceRole",
      "outputs": [],
      "stateMutability": "nonpayable",
      "type": "function"
    },
    {
      "inputs": [
        {
          "internalType": "bytes32",
          "name": "role",
          "type": "bytes32"
        },
        {
          "internalType": "address",
          "name": "account",
          "type": "address"
        }
      ],
      "name": "revokeRole",
      "outputs": [],
      "stateMutability": "nonpayable",
      "type": "function"
    },
    {
      "inputs": [],
      "name": "symbol",
      "outputs": [
        {
          "internalType": "string",
          "name": "",
          "type": "string"
        }
      ],
      "stateMutability": "view",
      "type": "function"
    },
    {
      "inputs": [],
      "name": "totalSupply",
      "outputs": [
        {
          "internalType": "uint256",
          "name": "",
          "type": "uint256"
        }
      ],
      "stateMutability": "view",
      "type": "function"
    },
    {
      "inputs": [
        {
          "internalType": "address",
          "name": "recipient",
          "type": "address"
        },
        {
          "internalType": "uint256",
          "name": "amount",
          "type": "uint256"
        }
      ],
      "name": "transfer",
      "outputs": [
        {
          "internalType": "bool",
          "name": "",
          "type": "bool"
        }
      ],
      "stateMutability": "nonpayable",
      "type": "function"
    },
    {
      "inputs": [
        {
          "internalType": "address",
          "name": "sender",
          "type": "address"
        },
        {
          "internalType": "address",
          "name": "recipient",
          "type": "address"
        },
        {
          "internalType": "uint256",
          "name": "amount",
          "type": "uint256"
        }
      ],
      "name": "transferFrom",
      "outputs": [
        {
          "internalType": "bool",
          "name": "",
          "type": "bool"
        }
      ],
      "stateMutability": "nonpayable",
      "type": "function"
    }
  ],
  "transactionHash": "0x29b7c3075355b0df9f1de2ab564033c398eb6f72c5d82610d709ddab22af05e1",
  "args": [],
  "solcInputHash": "76bccc5f2c0b45860e86346ead028704",
  "bytecode": "0x60806040523480156200001157600080fd5b506040805180820182526009815268293ab13caa37b5b2b760b91b6020808301918252835180850190945260048452635275627960e01b9084015281516aa56fa5b99019a5c800000093916200006b916003919062000210565b5080516200008190600490602084019062000210565b50506005805460ff191660121790555080620000e4576040805162461bcd60e51b815260206004820152601560248201527f45524332304361707065643a2063617020697320300000000000000000000000604482015290519081900360640190fd5b600655620000f4600033620000fa565b620002ac565b6200010682826200010a565b5050565b6000828152600760209081526040909120620001319183906200144c62000185821b17901c565b15620001065762000141620001a5565b6001600160a01b0316816001600160a01b0316837f2f8788117e7eff1d82e926ec794901d17c78024a50270940304540a733656f0d60405160405180910390a45050565b60006200019c836001600160a01b038416620001a9565b90505b92915050565b3390565b6000620001b78383620001f8565b620001ef575081546001818101845560008481526020808220909301849055845484825282860190935260409020919091556200019f565b5060006200019f565b60009081526001919091016020526040902054151590565b828054600181600116156101000203166002900490600052602060002090601f016020900481019282601f106200025357805160ff191683800117855562000283565b8280016001018555821562000283579182015b828111156200028357825182559160200191906001019062000266565b506200029192915062000295565b5090565b5b8082111562000291576000815560010162000296565b61246880620002bc6000396000f3fe608060405234801561001057600080fd5b50600436106102275760003560e01c80636fcfff4511610130578063a457c2d7116100b8578063ca15c8731161007c578063ca15c873146106e2578063d547741f146106ff578063dd62ed3e1461072b578063e7a324dc14610759578063f1127ed81461076157610227565b8063a457c2d714610615578063a9059cbb14610641578063b1e9c7831461066d578063b4b5ea5714610675578063c3cda5201461069b57610227565b80637ecebe00116100ff5780637ecebe00146105905780639010d07c146105b657806391d14854146105d957806395d89b4114610605578063a217fddf1461060d57610227565b80636fcfff45146104d357806370a0823114610512578063782d6fe11461053857806379cc67901461056457610227565b806332cb6b0c116101b357806340c10f191161018257806340c10f191461041a57806342966c6814610446578063587cde1e146104635780635c19a95c146104a557806363ba11b2146104cb57610227565b806332cb6b0c146103b2578063355274ea146103ba57806336568abe146103c257806339509351146103ee57610227565b806320606b70116101fa57806320606b701461030b57806323b872dd14610313578063248a9ca3146103495780632f2ff15d14610366578063313ce5671461039457610227565b806306fdde031461022c578063095ea7b3146102a95780630f60995d146102e957806318160ddd14610303575b600080fd5b6102346107b3565b6040805160208082528351818301528351919283929083019185019080838360005b8381101561026e578181015183820152602001610256565b50505050905090810190601f16801561029b5780820380516001836020036101000a031916815260200191505b509250505060405180910390f35b6102d5600480360360408110156102bf57600080fd5b506001600160a01b038135169060200135610849565b604080519115158252519081900360200190f35b6102f1610867565b60408051918252519081900360200190f35b6102f161088b565b6102f1610891565b6102d56004803603606081101561032957600080fd5b506001600160a01b038135811691602081013590911690604001356108b5565b6102f16004803603602081101561035f57600080fd5b503561093c565b6103926004803603604081101561037c57600080fd5b50803590602001356001600160a01b0316610951565b005b61039c6109bd565b6040805160ff9092168252519081900360200190f35b6102f16109c6565b6102f16109d5565b610392600480360360408110156103d857600080fd5b50803590602001356001600160a01b03166109db565b6102d56004803603604081101561040457600080fd5b506001600160a01b038135169060200135610a3c565b6103926004803603604081101561043057600080fd5b506001600160a01b038135169060200135610a8a565b6103926004803603602081101561045c57600080fd5b5035610b79565b6104896004803603602081101561047957600080fd5b50356001600160a01b0316610bf7565b604080516001600160a01b039092168252519081900360200190f35b610392600480360360208110156104bb57600080fd5b50356001600160a01b0316610c15565b6102f1610c1f565b6104f9600480360360208110156104e957600080fd5b50356001600160a01b0316610c43565b6040805163ffffffff9092168252519081900360200190f35b6102f16004803603602081101561052857600080fd5b50356001600160a01b0316610c5b565b6102f16004803603604081101561054e57600080fd5b506001600160a01b038135169060200135610c76565b6103926004803603604081101561057a57600080fd5b506001600160a01b038135169060200135610e7e565b6102f1600480360360208110156105a657600080fd5b50356001600160a01b0316610f3b565b610489600480360360408110156105cc57600080fd5b5080359060200135610f4d565b6102d5600480360360408110156105ef57600080fd5b50803590602001356001600160a01b0316610f6c565b610234610f84565b6102f1610fe5565b6102d56004803603604081101561062b57600080fd5b506001600160a01b038135169060200135610fea565b6102d56004803603604081101561065757600080fd5b506001600160a01b038135169060200135611052565b6102f1611066565b6102f16004803603602081101561068b57600080fd5b50356001600160a01b031661108a565b610392600480360360c08110156106b157600080fd5b506001600160a01b038135169060208101359060408101359060ff6060820135169060808101359060a001356110ed565b6102f1600480360360208110156106f857600080fd5b5035611360565b6103926004803603604081101561071557600080fd5b50803590602001356001600160a01b0316611377565b6102f16004803603604081101561074157600080fd5b506001600160a01b03813581169160200135166113d0565b6102f16113fb565b6107936004803603604081101561077757600080fd5b5080356001600160a01b0316906020013563ffffffff1661141f565b6040805163ffffffff909316835260208301919091528051918290030190f35b60038054604080516020601f600260001961010060018816150201909516949094049384018190048102820181019092528281526060939092909183018282801561083f5780601f106108145761010080835404028352916020019161083f565b820191906000526020600020905b81548152906001019060200180831161082257829003601f168201915b5050505050905090565b600061085d610856611461565b8484611465565b5060015b92915050565b7f3c11d16cbaffd01df69ce1c404f6340ee057498f5f00246190ea54220576a84881565b60025490565b7f8cad95687ba82c2ce50e74f7b754645e5117c3a5bec8151c0726d5857980a86681565b60006108c2848484611551565b610932846108ce611461565b61092d8560405180606001604052806028815260200161232b602891396001600160a01b038a1660009081526001602052604081209061090c611461565b6001600160a01b0316815260208101919091526040016000205491906116ac565b611465565b5060019392505050565b60009081526007602052604090206002015490565b6000828152600760205260409020600201546109749061096f611461565b610f6c565b6109af5760405162461bcd60e51b815260040180806020018281038252602f8152602001806120ff602f913960400191505060405180910390fd5b6109b98282611743565b5050565b60055460ff1690565b6aa56fa5b99019a5c800000081565b60065490565b6109e3611461565b6001600160a01b0316816001600160a01b031614610a325760405162461bcd60e51b815260040180806020018281038252602f815260200180612404602f913960400191505060405180910390fd5b6109b982826117ac565b600061085d610a49611461565b8461092d8560016000610a5a611461565b6001600160a01b03908116825260208083019390935260409182016000908120918c168152925290205490611815565b610ab47f2141c507a48f6057240859936eba5d6f844b3e83545fa0156b51455859d970cf33610f6c565b610aef5760405162461bcd60e51b81526004018080602001828103825260228152602001806121ec6022913960400191505060405180910390fd5b6aa56fa5b99019a5c8000000610b0d82610b0761088b565b90611815565b1115610b4a5760405162461bcd60e51b81526004018080602001828103825260258152602001806122e06025913960400191505060405180910390fd5b610b54828261186f565b6001600160a01b038083166000908152600860205260408120546109b992168361195f565b610ba37fb535f68b21a889706223c79ce73bbcb0b188d2af51ce86774f479cb5053434cb33610f6c565b610bde5760405162461bcd60e51b81526004018080602001828103825260228152602001806123536022913960400191505060405180910390fd5b610be83382611a9c565b610bf43360008361195f565b50565b6001600160a01b039081166000908152600860205260409020541690565b610bf43382611b98565b7fb535f68b21a889706223c79ce73bbcb0b188d2af51ce86774f479cb5053434cb81565b600a6020526000908152604090205463ffffffff1681565b6001600160a01b031660009081526020819052604090205490565b6000438210610cb65760405162461bcd60e51b815260040180806020018281038252602781526020018061215b6027913960400191505060405180910390fd5b6001600160a01b0383166000908152600a602052604090205463ffffffff1680610ce4576000915050610861565b6001600160a01b038416600090815260096020908152604080832063ffffffff600019860181168552925290912054168310610d53576001600160a01b03841660009081526009602090815260408083206000199490940163ffffffff16835292905220600101549050610861565b6001600160a01b038416600090815260096020908152604080832083805290915290205463ffffffff16831015610d8e576000915050610861565b600060001982015b8163ffffffff168163ffffffff161115610e4757600282820363ffffffff16048103610dc06120a2565b506001600160a01b038716600090815260096020908152604080832063ffffffff808616855290835292819020815180830190925280549093168082526001909301549181019190915290871415610e22576020015194506108619350505050565b805163ffffffff16871115610e3957819350610e40565b6001820392505b5050610d96565b506001600160a01b038516600090815260096020908152604080832063ffffffff9094168352929052206001015491505092915050565b610ea87f3c11d16cbaffd01df69ce1c404f6340ee057498f5f00246190ea54220576a84833610f6c565b610ee35760405162461bcd60e51b81526004018080602001828103825260268152602001806122866026913960400191505060405180910390fd5b6000610f13826040518060600160405280602d815260200161212e602d9139610f0c86336113d0565b91906116ac565b9050610f20833383611465565b610f2a8383611a9c565b610f368360008461195f565b505050565b600b6020526000908152604090205481565b6000828152600760205260408120610f659083611c2d565b9392505050565b6000828152600760205260408120610f659083611c39565b60048054604080516020601f600260001961010060018816150201909516949094049384018190048102820181019092528281526060939092909183018282801561083f5780601f106108145761010080835404028352916020019161083f565b600081565b600061085d610ff7611461565b8461092d856040518060600160405280602581526020016123df6025913960016000611021611461565b6001600160a01b03908116825260208083019390935260409182016000908120918d168152925290205491906116ac565b600061085d61105f611461565b8484611551565b7f2141c507a48f6057240859936eba5d6f844b3e83545fa0156b51455859d970cf81565b6001600160a01b0381166000908152600a602052604081205463ffffffff16806110b5576000610f65565b6001600160a01b038316600090815260096020908152604080832063ffffffff60001986011684529091529020600101549392505050565b60007f8cad95687ba82c2ce50e74f7b754645e5117c3a5bec8151c0726d5857980a8666111186107b3565b80519060200120611127611c4e565b60408051602080820195909552808201939093526060830191909152306080808401919091528151808403909101815260a0830182528051908401207fe48329057bfd03d55e49b547132e39cffd9c1820ad7b9d4c5307691425d15adf60c08401526001600160a01b038b1660e084015261010083018a90526101208084018a9052825180850390910181526101408401835280519085012061190160f01b6101608501526101628401829052610182808501829052835180860390910181526101a285018085528151918701919091206000918290526101c2860180865281905260ff8b166101e287015261020286018a90526102228601899052935192965090949293909260019261024280840193601f198301929081900390910190855afa15801561125a573d6000803e3d6000fd5b5050604051601f1901519150506001600160a01b0381166112ac5760405162461bcd60e51b815260040180806020018281038252602681526020018061220e6026913960400191505060405180910390fd5b6001600160a01b0381166000908152600b60205260409020805460018101909155891461130a5760405162461bcd60e51b81526004018080602001828103825260228152602001806122346022913960400191505060405180910390fd5b874211156113495760405162461bcd60e51b81526004018080602001828103825260268152602001806123056026913960400191505060405180910390fd5b611353818b611b98565b505050505b505050505050565b600081815260076020526040812061086190611c52565b6000828152600760205260409020600201546113959061096f611461565b610a325760405162461bcd60e51b81526004018080602001828103825260308152602001806122566030913960400191505060405180910390fd5b6001600160a01b03918216600090815260016020908152604080832093909416825291909152205490565b7fe48329057bfd03d55e49b547132e39cffd9c1820ad7b9d4c5307691425d15adf81565b60096020908152600092835260408084209091529082529020805460019091015463ffffffff9091169082565b6000610f65836001600160a01b038416611c5d565b3390565b6001600160a01b0383166114aa5760405162461bcd60e51b81526004018080602001828103825260248152602001806123bb6024913960400191505060405180910390fd5b6001600160a01b0382166114ef5760405162461bcd60e51b81526004018080602001828103825260228152602001806121a46022913960400191505060405180910390fd5b6001600160a01b03808416600081815260016020908152604080832094871680845294825291829020859055815185815291517f8c5be1e5ebec7d5bd14f71427d1e84f3dd0314c0f7b2291e5b200ac8c7c3b9259281900390910190a3505050565b6001600160a01b0383166115965760405162461bcd60e51b81526004018080602001828103825260258152602001806123966025913960400191505060405180910390fd5b6001600160a01b0382166115db5760405162461bcd60e51b81526004018080602001828103825260238152602001806120dc6023913960400191505060405180910390fd5b6115e6838383611ca7565b611623816040518060600160405280602681526020016121c6602691396001600160a01b03861660009081526020819052604090205491906116ac565b6001600160a01b0380851660009081526020819052604080822093909355908416815220546116529082611815565b6001600160a01b038084166000818152602081815260409182902094909455805185815290519193928716927fddf252ad1be2c89b69c2b068fc378daa952ba7f163c4a11628f55a4df523b3ef92918290030190a3505050565b6000818484111561173b5760405162461bcd60e51b81526004018080602001828103825283818151815260200191508051906020019080838360005b838110156117005781810151838201526020016116e8565b50505050905090810190601f16801561172d5780820380516001836020036101000a031916815260200191505b509250505060405180910390fd5b505050900390565b600082815260076020526040902061175b908261144c565b156109b957611768611461565b6001600160a01b0316816001600160a01b0316837f2f8788117e7eff1d82e926ec794901d17c78024a50270940304540a733656f0d60405160405180910390a45050565b60008281526007602052604090206117c49082611d27565b156109b9576117d1611461565b6001600160a01b0316816001600160a01b0316837ff6391f5c32d9c69d2a47ea670b442974b53935d1edc7fd64eb21e047a839171b60405160405180910390a45050565b600082820183811015610f65576040805162461bcd60e51b815260206004820152601b60248201527f536166654d6174683a206164646974696f6e206f766572666c6f770000000000604482015290519081900360640190fd5b6001600160a01b0382166118ca576040805162461bcd60e51b815260206004820152601f60248201527f45524332303a206d696e7420746f20746865207a65726f206164647265737300604482015290519081900360640190fd5b6118d660008383611ca7565b6002546118e39082611815565b6002556001600160a01b0382166000908152602081905260409020546119099082611815565b6001600160a01b0383166000818152602081815260408083209490945583518581529351929391927fddf252ad1be2c89b69c2b068fc378daa952ba7f163c4a11628f55a4df523b3ef9281900390910190a35050565b816001600160a01b0316836001600160a01b0316141580156119815750600081115b15610f36576001600160a01b03831615611a13576001600160a01b0383166000908152600a602052604081205463ffffffff1690816119c15760006119f3565b6001600160a01b038516600090815260096020908152604080832063ffffffff60001987011684529091529020600101545b90506000611a018285611d3c565b9050611a0f86848484611d99565b5050505b6001600160a01b03821615610f36576001600160a01b0382166000908152600a602052604081205463ffffffff169081611a4e576000611a80565b6001600160a01b038416600090815260096020908152604080832063ffffffff60001987011684529091529020600101545b90506000611a8e8285611815565b905061135885848484611d99565b6001600160a01b038216611ae15760405162461bcd60e51b81526004018080602001828103825260218152602001806123756021913960400191505060405180910390fd5b611aed82600083611ca7565b611b2a81604051806060016040528060228152602001612182602291396001600160a01b03851660009081526020819052604090205491906116ac565b6001600160a01b038316600090815260208190526040902055600254611b509082611d3c565b6002556040805182815290516000916001600160a01b038516917fddf252ad1be2c89b69c2b068fc378daa952ba7f163c4a11628f55a4df523b3ef9181900360200190a35050565b6001600160a01b0380831660009081526008602052604081205490911690611bbf84610c5b565b6001600160a01b0385811660008181526008602052604080822080546001600160a01b031916898616908117909155905194955093928616927f3134e8a2e6d97e929a7e54011ea5485d7d196dd5f0ba4d4ef95803e8e3fc257f9190a4611c2782848361195f565b50505050565b6000610f658383611efe565b6000610f65836001600160a01b038416611f62565b4690565b600061086182611f7a565b6000611c698383611f62565b611c9f57508154600181810184556000848152602080822090930184905584548482528286019093526040902091909155610861565b506000610861565b611cb2838383610f36565b6001600160a01b038316610f3657611cc86109d5565b611cd482610b0761088b565b1115610f36576040805162461bcd60e51b815260206004820152601960248201527f45524332304361707065643a2063617020657863656564656400000000000000604482015290519081900360640190fd5b6000610f65836001600160a01b038416611f7e565b600082821115611d93576040805162461bcd60e51b815260206004820152601e60248201527f536166654d6174683a207375627472616374696f6e206f766572666c6f770000604482015290519081900360640190fd5b50900390565b6000611dbd436040518060600160405280603481526020016122ac60349139612044565b905060008463ffffffff16118015611e0657506001600160a01b038516600090815260096020908152604080832063ffffffff6000198901811685529252909120548282169116145b15611e43576001600160a01b038516600090815260096020908152604080832063ffffffff60001989011684529091529020600101829055611eb4565b60408051808201825263ffffffff808416825260208083018681526001600160a01b038a166000818152600984528681208b8616825284528681209551865490861663ffffffff199182161787559251600196870155908152600a9092529390208054928801909116919092161790555b604080518481526020810184905281516001600160a01b038816927fdec2bacdd2f05b59de34da9b523dff8be42e5e38e818c82fdb0bae774387a724928290030190a25050505050565b81546000908210611f405760405162461bcd60e51b81526004018080602001828103825260228152602001806120ba6022913960400191505060405180910390fd5b826000018281548110611f4f57fe5b9060005260206000200154905092915050565b60009081526001919091016020526040902054151590565b5490565b6000818152600183016020526040812054801561203a5783546000198083019190810190600090879083908110611fb157fe5b9060005260206000200154905080876000018481548110611fce57fe5b600091825260208083209091019290925582815260018981019092526040902090840190558654879080611ffe57fe5b60019003818190600052602060002001600090559055866001016000878152602001908152602001600020600090556001945050505050610861565b6000915050610861565b600081640100000000841061209a5760405162461bcd60e51b81526020600482018181528351602484015283519092839260449091019190850190808383600083156117005781810151838201526020016116e8565b509192915050565b60408051808201909152600080825260208201529056fe456e756d657261626c655365743a20696e646578206f7574206f6620626f756e647345524332303a207472616e7366657220746f20746865207a65726f2061646472657373416363657373436f6e74726f6c3a2073656e646572206d75737420626520616e2061646d696e20746f206772616e74525542593a3a6275726e46726f6d3a206275726e20616d6f756e74206578636565647320616c6c6f77616e6365525542593a3a6765745072696f72566f7465733a206e6f74207965742064657465726d696e656445524332303a206275726e20616d6f756e7420657863656564732062616c616e636545524332303a20617070726f766520746f20746865207a65726f206164647265737345524332303a207472616e7366657220616d6f756e7420657863656564732062616c616e6365525542593a3a6d696e743a2043616c6c6572206973206e6f742061206d696e746572525542593a3a64656c656761746542795369673a20696e76616c6964207369676e6174757265525542593a3a64656c656761746542795369673a20696e76616c6964206e6f6e6365416363657373436f6e74726f6c3a2073656e646572206d75737420626520616e2061646d696e20746f207265766f6b65525542593a3a6275726e46726f6d3a2043616c6c6572206973206e6f742061206275726e6572525542593a3a5f7772697465436865636b706f696e743a20626c6f636b206e756d62657220657863656564732033322062697473525542593a3a6d696e743a2043616e6e6f7420657863656564206d617820737570706c792e525542593a3a64656c656761746542795369673a207369676e6174757265206578706972656445524332303a207472616e7366657220616d6f756e74206578636565647320616c6c6f77616e6365525542593a3a6275726e3a2043616c6c6572206973206e6f742061206275726e657245524332303a206275726e2066726f6d20746865207a65726f206164647265737345524332303a207472616e736665722066726f6d20746865207a65726f206164647265737345524332303a20617070726f76652066726f6d20746865207a65726f206164647265737345524332303a2064656372656173656420616c6c6f77616e63652062656c6f77207a65726f416363657373436f6e74726f6c3a2063616e206f6e6c792072656e6f756e636520726f6c657320666f722073656c66a264697066735822122057a82e269e7c1076ddb93575de5d8a36887dd4a65ac8c0553a9bde3e6944958f64736f6c634300060c0033",
  "devdoc": {
    "kind": "dev",
    "methods": {
      "allowance(address,address)": {
        "details": "See {IERC20-allowance}."
      },
      "approve(address,uint256)": {
        "details": "See {IERC20-approve}. Requirements: - `spender` cannot be the zero address."
      },
      "balanceOf(address)": {
        "details": "See {IERC20-balanceOf}."
      },
      "cap()": {
        "details": "Returns the cap on the token's total supply."
      },
      "decimals()": {
        "details": "Returns the number of decimals used to get its user representation. For example, if `decimals` equals `2`, a balance of `505` tokens should be displayed to a user as `5,05` (`505 / 10 ** 2`). Tokens usually opt for a value of 18, imitating the relationship between Ether and Wei. This is the value {ERC20} uses, unless {_setupDecimals} is called. NOTE: This information is only used for _display_ purposes: it in no way affects any of the arithmetic of the contract, including {IERC20-balanceOf} and {IERC20-transfer}."
      },
      "decreaseAllowance(address,uint256)": {
        "details": "Atomically decreases the allowance granted to `spender` by the caller. This is an alternative to {approve} that can be used as a mitigation for problems described in {IERC20-approve}. Emits an {Approval} event indicating the updated allowance. Requirements: - `spender` cannot be the zero address. - `spender` must have allowance for the caller of at least `subtractedValue`."
      },
      "delegate(address)": {
        "params": {
          "delegatee": "The address to delegate votes to"
        }
      },
      "delegateBySig(address,uint256,uint256,uint8,bytes32,bytes32)": {
        "params": {
          "delegatee": "The address to delegate votes to",
          "expiry": "The time at which to expire the signature",
          "nonce": "The contract state required to match the signature",
          "r": "Half of the ECDSA signature pair",
          "s": "Half of the ECDSA signature pair",
          "v": "The recovery byte of the signature"
        }
      },
      "delegates(address)": {
        "params": {
          "delegator": "The address to get delegatee for"
        }
      },
      "getCurrentVotes(address)": {
        "params": {
          "account": "The address to get votes balance"
        },
        "returns": {
          "_0": "The number of current votes for `account`"
        }
      },
      "getPriorVotes(address,uint256)": {
        "details": "Block number must be a finalized block or else this function will revert to prevent misinformation.",
        "params": {
          "account": "The address of the account to check",
          "blockNumber": "The block number to get the vote balance at"
        },
        "returns": {
          "_0": "The number of votes the account had as of the given block"
        }
      },
      "getRoleAdmin(bytes32)": {
        "details": "Returns the admin role that controls `role`. See {grantRole} and {revokeRole}. To change a role's admin, use {_setRoleAdmin}."
      },
      "getRoleMember(bytes32,uint256)": {
        "details": "Returns one of the accounts that have `role`. `index` must be a value between 0 and {getRoleMemberCount}, non-inclusive. Role bearers are not sorted in any particular way, and their ordering may change at any point. WARNING: When using {getRoleMember} and {getRoleMemberCount}, make sure you perform all queries on the same block. See the following https://forum.openzeppelin.com/t/iterating-over-elements-on-enumerableset-in-openzeppelin-contracts/2296[forum post] for more information."
      },
      "getRoleMemberCount(bytes32)": {
        "details": "Returns the number of accounts that have `role`. Can be used together with {getRoleMember} to enumerate all bearers of a role."
      },
      "grantRole(bytes32,address)": {
        "details": "Grants `role` to `account`. If `account` had not been already granted `role`, emits a {RoleGranted} event. Requirements: - the caller must have ``role``'s admin role."
      },
      "hasRole(bytes32,address)": {
        "details": "Returns `true` if `account` has been granted `role`."
      },
      "increaseAllowance(address,uint256)": {
        "details": "Atomically increases the allowance granted to `spender` by the caller. This is an alternative to {approve} that can be used as a mitigation for problems described in {IERC20-approve}. Emits an {Approval} event indicating the updated allowance. Requirements: - `spender` cannot be the zero address."
      },
      "name()": {
        "details": "Returns the name of the token."
      },
      "renounceRole(bytes32,address)": {
        "details": "Revokes `role` from the calling account. Roles are often managed via {grantRole} and {revokeRole}: this function's purpose is to provide a mechanism for accounts to lose their privileges if they are compromised (such as when a trusted device is misplaced). If the calling account had been granted `role`, emits a {RoleRevoked} event. Requirements: - the caller must be `account`."
      },
      "revokeRole(bytes32,address)": {
        "details": "Revokes `role` from `account`. If `account` had been granted `role`, emits a {RoleRevoked} event. Requirements: - the caller must have ``role``'s admin role."
      },
      "symbol()": {
        "details": "Returns the symbol of the token, usually a shorter version of the name."
      },
      "totalSupply()": {
        "details": "See {IERC20-totalSupply}."
      },
      "transfer(address,uint256)": {
        "details": "See {IERC20-transfer}. Requirements: - `recipient` cannot be the zero address. - the caller must have a balance of at least `amount`."
      },
      "transferFrom(address,address,uint256)": {
        "details": "See {IERC20-transferFrom}. Emits an {Approval} event indicating the updated allowance. This is not required by the EIP. See the note at the beginning of {ERC20}. Requirements: - `sender` and `recipient` cannot be the zero address. - `sender` must have a balance of at least `amount`. - the caller must have allowance for ``sender``'s tokens of at least `amount`."
      }
    },
    "stateVariables": {
      "_delegates": {
        "details": "A record of each accounts delegate"
      }
    },
    "title": "RubyToken with Governance",
    "version": 1
  },
  "userdoc": {
    "events": {
      "DelegateChanged(address,address,address)": {
        "notice": "An event thats emitted when an account changes its delegate"
      },
      "DelegateVotesChanged(address,uint256,uint256)": {
        "notice": "An event thats emitted when a delegate account's vote balance changes"
      }
    },
    "kind": "user",
    "methods": {
      "BURNER_FROM_ROLE_MAKER()": {
        "notice": "Burner role for the RubyMaker. The RubyMaker contract should be able to burn tokens from the RubyBar (distribute and burn mechanism)."
      },
      "DELEGATION_TYPEHASH()": {
        "notice": "The EIP-712 typehash for the delegation struct used by the contract"
      },
      "DOMAIN_TYPEHASH()": {
        "notice": "The EIP-712 typehash for the contract's domain"
      },
      "MAX_SUPPLY()": {
        "notice": "Total number of tokens"
      },
      "MINTER_ROLE_IMA()": {
        "notice": "Access control roles for the IMA TokenManager"
      },
      "burn(uint256)": {
        "notice": "Destroys `amount` of RUBY tokens from the msg.sender. Must only be called by the IMA TokenManager contract"
      },
      "burnFrom(address,uint256)": {
        "notice": "Destroys `amount` of RUBY tokens from account Must only be called by the RubyMaker contract The RubyMaker contract can only burn tokens from the RubyBar contract The appropriate allowance needs to be set to the RubyMaker for the RubyBar RUBY tokens."
      },
      "checkpoints(address,uint32)": {
        "notice": "A record of votes checkpoints for each account, by index"
      },
      "delegate(address)": {
        "notice": "Delegate votes from `msg.sender` to `delegatee`"
      },
      "delegateBySig(address,uint256,uint256,uint8,bytes32,bytes32)": {
        "notice": "Delegates votes from signatory to `delegatee`"
      },
      "delegates(address)": {
        "notice": "Delegate votes from `msg.sender` to `delegatee`"
      },
      "getCurrentVotes(address)": {
        "notice": "Gets the current votes balance for `account`"
      },
      "getPriorVotes(address,uint256)": {
        "notice": "Determine the prior number of votes for an account as of a block number"
      },
      "mint(address,uint256)": {
        "notice": "Creates `amount` token to `to`. Must only be called by the IMA TokenManager contract"
      },
      "nonces(address)": {
        "notice": "A record of states for signing / validating signatures"
      },
      "numCheckpoints(address)": {
        "notice": "The number of checkpoints for each account"
      }
    },
    "notice": "This version of the RubyToken is to be used on the SChain It features access control needed for the IMA TokenManager contract (bridging),  and also for the RubyMaker contract (distribute and burn mechanism)",
    "version": 1
  },
  "storageLayout": {
    "storage": [
      {
        "astId": 2743,
        "contract": "contracts/token_mappings/RubyToken.sol:RubyToken",
        "label": "_balances",
        "offset": 0,
        "slot": "0",
        "type": "t_mapping(t_address,t_uint256)"
      },
      {
        "astId": 2749,
        "contract": "contracts/token_mappings/RubyToken.sol:RubyToken",
        "label": "_allowances",
        "offset": 0,
        "slot": "1",
        "type": "t_mapping(t_address,t_mapping(t_address,t_uint256))"
      },
      {
        "astId": 2751,
        "contract": "contracts/token_mappings/RubyToken.sol:RubyToken",
        "label": "_totalSupply",
        "offset": 0,
        "slot": "2",
        "type": "t_uint256"
      },
      {
        "astId": 2753,
        "contract": "contracts/token_mappings/RubyToken.sol:RubyToken",
        "label": "_name",
        "offset": 0,
        "slot": "3",
        "type": "t_string_storage"
      },
      {
        "astId": 2755,
        "contract": "contracts/token_mappings/RubyToken.sol:RubyToken",
        "label": "_symbol",
        "offset": 0,
        "slot": "4",
        "type": "t_string_storage"
      },
      {
        "astId": 2757,
        "contract": "contracts/token_mappings/RubyToken.sol:RubyToken",
        "label": "_decimals",
        "offset": 0,
        "slot": "5",
        "type": "t_uint8"
      },
      {
        "astId": 3240,
        "contract": "contracts/token_mappings/RubyToken.sol:RubyToken",
        "label": "_cap",
        "offset": 0,
        "slot": "6",
        "type": "t_uint256"
      },
      {
        "astId": 1852,
        "contract": "contracts/token_mappings/RubyToken.sol:RubyToken",
        "label": "_roles",
        "offset": 0,
        "slot": "7",
        "type": "t_mapping(t_bytes32,t_struct(RoleData)1848_storage)"
      },
      {
        "astId": 19477,
        "contract": "contracts/token_mappings/RubyToken.sol:RubyToken",
        "label": "_delegates",
        "offset": 0,
        "slot": "8",
        "type": "t_mapping(t_address,t_address)"
      },
      {
        "astId": 19489,
        "contract": "contracts/token_mappings/RubyToken.sol:RubyToken",
        "label": "checkpoints",
        "offset": 0,
        "slot": "9",
        "type": "t_mapping(t_address,t_mapping(t_uint32,t_struct(Checkpoint)19482_storage))"
      },
      {
        "astId": 19494,
        "contract": "contracts/token_mappings/RubyToken.sol:RubyToken",
        "label": "numCheckpoints",
        "offset": 0,
        "slot": "10",
        "type": "t_mapping(t_address,t_uint32)"
      },
      {
        "astId": 19511,
        "contract": "contracts/token_mappings/RubyToken.sol:RubyToken",
        "label": "nonces",
        "offset": 0,
        "slot": "11",
        "type": "t_mapping(t_address,t_uint256)"
      }
    ],
    "types": {
      "t_address": {
        "encoding": "inplace",
        "label": "address",
        "numberOfBytes": "20"
      },
      "t_array(t_bytes32)dyn_storage": {
        "base": "t_bytes32",
        "encoding": "dynamic_array",
        "label": "bytes32[]",
        "numberOfBytes": "32"
      },
      "t_bytes32": {
        "encoding": "inplace",
        "label": "bytes32",
        "numberOfBytes": "32"
      },
      "t_mapping(t_address,t_address)": {
        "encoding": "mapping",
        "key": "t_address",
        "label": "mapping(address => address)",
        "numberOfBytes": "32",
        "value": "t_address"
      },
      "t_mapping(t_address,t_mapping(t_address,t_uint256))": {
        "encoding": "mapping",
        "key": "t_address",
        "label": "mapping(address => mapping(address => uint256))",
        "numberOfBytes": "32",
        "value": "t_mapping(t_address,t_uint256)"
      },
      "t_mapping(t_address,t_mapping(t_uint32,t_struct(Checkpoint)19482_storage))": {
        "encoding": "mapping",
        "key": "t_address",
        "label": "mapping(address => mapping(uint32 => struct RubyToken.Checkpoint))",
        "numberOfBytes": "32",
        "value": "t_mapping(t_uint32,t_struct(Checkpoint)19482_storage)"
      },
      "t_mapping(t_address,t_uint256)": {
        "encoding": "mapping",
        "key": "t_address",
        "label": "mapping(address => uint256)",
        "numberOfBytes": "32",
        "value": "t_uint256"
      },
      "t_mapping(t_address,t_uint32)": {
        "encoding": "mapping",
        "key": "t_address",
        "label": "mapping(address => uint32)",
        "numberOfBytes": "32",
        "value": "t_uint32"
      },
      "t_mapping(t_bytes32,t_struct(RoleData)1848_storage)": {
        "encoding": "mapping",
        "key": "t_bytes32",
        "label": "mapping(bytes32 => struct AccessControl.RoleData)",
        "numberOfBytes": "32",
        "value": "t_struct(RoleData)1848_storage"
      },
      "t_mapping(t_bytes32,t_uint256)": {
        "encoding": "mapping",
        "key": "t_bytes32",
        "label": "mapping(bytes32 => uint256)",
        "numberOfBytes": "32",
        "value": "t_uint256"
      },
      "t_mapping(t_uint32,t_struct(Checkpoint)19482_storage)": {
        "encoding": "mapping",
        "key": "t_uint32",
        "label": "mapping(uint32 => struct RubyToken.Checkpoint)",
        "numberOfBytes": "32",
        "value": "t_struct(Checkpoint)19482_storage"
      },
      "t_string_storage": {
        "encoding": "bytes",
        "label": "string",
        "numberOfBytes": "32"
      },
      "t_struct(AddressSet)5970_storage": {
        "encoding": "inplace",
        "label": "struct EnumerableSet.AddressSet",
        "members": [
          {
            "astId": 5969,
            "contract": "contracts/token_mappings/RubyToken.sol:RubyToken",
            "label": "_inner",
            "offset": 0,
            "slot": "0",
            "type": "t_struct(Set)5705_storage"
          }
        ],
        "numberOfBytes": "64"
      },
      "t_struct(Checkpoint)19482_storage": {
        "encoding": "inplace",
        "label": "struct RubyToken.Checkpoint",
        "members": [
          {
            "astId": 19479,
            "contract": "contracts/token_mappings/RubyToken.sol:RubyToken",
            "label": "fromBlock",
            "offset": 0,
            "slot": "0",
            "type": "t_uint32"
          },
          {
            "astId": 19481,
            "contract": "contracts/token_mappings/RubyToken.sol:RubyToken",
            "label": "votes",
            "offset": 0,
            "slot": "1",
            "type": "t_uint256"
          }
        ],
        "numberOfBytes": "64"
      },
      "t_struct(RoleData)1848_storage": {
        "encoding": "inplace",
        "label": "struct AccessControl.RoleData",
        "members": [
          {
            "astId": 1845,
            "contract": "contracts/token_mappings/RubyToken.sol:RubyToken",
            "label": "members",
            "offset": 0,
            "slot": "0",
            "type": "t_struct(AddressSet)5970_storage"
          },
          {
            "astId": 1847,
            "contract": "contracts/token_mappings/RubyToken.sol:RubyToken",
            "label": "adminRole",
            "offset": 0,
            "slot": "2",
            "type": "t_bytes32"
          }
        ],
        "numberOfBytes": "96"
      },
      "t_struct(Set)5705_storage": {
        "encoding": "inplace",
        "label": "struct EnumerableSet.Set",
        "members": [
          {
            "astId": 5700,
            "contract": "contracts/token_mappings/RubyToken.sol:RubyToken",
            "label": "_values",
            "offset": 0,
            "slot": "0",
            "type": "t_array(t_bytes32)dyn_storage"
          },
          {
            "astId": 5704,
            "contract": "contracts/token_mappings/RubyToken.sol:RubyToken",
            "label": "_indexes",
            "offset": 0,
            "slot": "1",
            "type": "t_mapping(t_bytes32,t_uint256)"
          }
        ],
        "numberOfBytes": "64"
      },
      "t_uint256": {
        "encoding": "inplace",
        "label": "uint256",
        "numberOfBytes": "32"
      },
      "t_uint32": {
        "encoding": "inplace",
        "label": "uint32",
        "numberOfBytes": "4"
      },
      "t_uint8": {
        "encoding": "inplace",
        "label": "uint8",
        "numberOfBytes": "1"
      }
    }
  }
}