{
  "address": "0x58F2b35dde559F49B9870Ec101c3b1B8433C644d",
  "abi": [
    {
      "inputs": [],
      "stateMutability": "nonpayable",
      "type": "constructor"
    },
    {
      "anonymous": false,
      "inputs": [
        {
          "indexed": true,
          "internalType": "address",
          "name": "owner",
          "type": "address"
        },
        {
          "indexed": true,
          "internalType": "address",
          "name": "spender",
          "type": "address"
        },
        {
          "indexed": false,
          "internalType": "uint256",
          "name": "value",
          "type": "uint256"
        }
      ],
      "name": "Approval",
      "type": "event"
    },
    {
      "anonymous": false,
      "inputs": [
        {
          "indexed": true,
          "internalType": "address",
          "name": "delegator",
          "type": "address"
        },
        {
          "indexed": true,
          "internalType": "address",
          "name": "fromDelegate",
          "type": "address"
        },
        {
          "indexed": true,
          "internalType": "address",
          "name": "toDelegate",
          "type": "address"
        }
      ],
      "name": "DelegateChanged",
      "type": "event"
    },
    {
      "anonymous": false,
      "inputs": [
        {
          "indexed": true,
          "internalType": "address",
          "name": "delegate",
          "type": "address"
        },
        {
          "indexed": false,
          "internalType": "uint256",
          "name": "previousBalance",
          "type": "uint256"
        },
        {
          "indexed": false,
          "internalType": "uint256",
          "name": "newBalance",
          "type": "uint256"
        }
      ],
      "name": "DelegateVotesChanged",
      "type": "event"
    },
    {
      "anonymous": false,
      "inputs": [
        {
          "indexed": true,
          "internalType": "bytes32",
          "name": "role",
          "type": "bytes32"
        },
        {
          "indexed": true,
          "internalType": "bytes32",
          "name": "previousAdminRole",
          "type": "bytes32"
        },
        {
          "indexed": true,
          "internalType": "bytes32",
          "name": "newAdminRole",
          "type": "bytes32"
        }
      ],
      "name": "RoleAdminChanged",
      "type": "event"
    },
    {
      "anonymous": false,
      "inputs": [
        {
          "indexed": true,
          "internalType": "bytes32",
          "name": "role",
          "type": "bytes32"
        },
        {
          "indexed": true,
          "internalType": "address",
          "name": "account",
          "type": "address"
        },
        {
          "indexed": true,
          "internalType": "address",
          "name": "sender",
          "type": "address"
        }
      ],
      "name": "RoleGranted",
      "type": "event"
    },
    {
      "anonymous": false,
      "inputs": [
        {
          "indexed": true,
          "internalType": "bytes32",
          "name": "role",
          "type": "bytes32"
        },
        {
          "indexed": true,
          "internalType": "address",
          "name": "account",
          "type": "address"
        },
        {
          "indexed": true,
          "internalType": "address",
          "name": "sender",
          "type": "address"
        }
      ],
      "name": "RoleRevoked",
      "type": "event"
    },
    {
      "anonymous": false,
      "inputs": [
        {
          "indexed": true,
          "internalType": "address",
          "name": "from",
          "type": "address"
        },
        {
          "indexed": true,
          "internalType": "address",
          "name": "to",
          "type": "address"
        },
        {
          "indexed": false,
          "internalType": "uint256",
          "name": "value",
          "type": "uint256"
        }
      ],
      "name": "Transfer",
      "type": "event"
    },
    {
      "inputs": [],
      "name": "BURNER_ROLE",
      "outputs": [
        {
          "internalType": "bytes32",
          "name": "",
          "type": "bytes32"
        }
      ],
      "stateMutability": "view",
      "type": "function"
    },
    {
      "inputs": [],
      "name": "DEFAULT_ADMIN_ROLE",
      "outputs": [
        {
          "internalType": "bytes32",
          "name": "",
          "type": "bytes32"
        }
      ],
      "stateMutability": "view",
      "type": "function"
    },
    {
      "inputs": [],
      "name": "DELEGATION_TYPEHASH",
      "outputs": [
        {
          "internalType": "bytes32",
          "name": "",
          "type": "bytes32"
        }
      ],
      "stateMutability": "view",
      "type": "function"
    },
    {
      "inputs": [],
      "name": "DOMAIN_TYPEHASH",
      "outputs": [
        {
          "internalType": "bytes32",
          "name": "",
          "type": "bytes32"
        }
      ],
      "stateMutability": "view",
      "type": "function"
    },
    {
      "inputs": [],
      "name": "MAX_SUPPLY",
      "outputs": [
        {
          "internalType": "uint256",
          "name": "",
          "type": "uint256"
        }
      ],
      "stateMutability": "view",
      "type": "function"
    },
    {
      "inputs": [],
      "name": "MINTER_ROLE",
      "outputs": [
        {
          "internalType": "bytes32",
          "name": "",
          "type": "bytes32"
        }
      ],
      "stateMutability": "view",
      "type": "function"
    },
    {
      "inputs": [
        {
          "internalType": "address",
          "name": "owner",
          "type": "address"
        },
        {
          "internalType": "address",
          "name": "spender",
          "type": "address"
        }
      ],
      "name": "allowance",
      "outputs": [
        {
          "internalType": "uint256",
          "name": "",
          "type": "uint256"
        }
      ],
      "stateMutability": "view",
      "type": "function"
    },
    {
      "inputs": [
        {
          "internalType": "address",
          "name": "spender",
          "type": "address"
        },
        {
          "internalType": "uint256",
          "name": "amount",
          "type": "uint256"
        }
      ],
      "name": "approve",
      "outputs": [
        {
          "internalType": "bool",
          "name": "",
          "type": "bool"
        }
      ],
      "stateMutability": "nonpayable",
      "type": "function"
    },
    {
      "inputs": [
        {
          "internalType": "address",
          "name": "account",
          "type": "address"
        }
      ],
      "name": "balanceOf",
      "outputs": [
        {
          "internalType": "uint256",
          "name": "",
          "type": "uint256"
        }
      ],
      "stateMutability": "view",
      "type": "function"
    },
    {
      "inputs": [
        {
          "internalType": "uint256",
          "name": "amount",
          "type": "uint256"
        }
      ],
      "name": "burn",
      "outputs": [],
      "stateMutability": "nonpayable",
      "type": "function"
    },
    {
      "inputs": [],
      "name": "cap",
      "outputs": [
        {
          "internalType": "uint256",
          "name": "",
          "type": "uint256"
        }
      ],
      "stateMutability": "view",
      "type": "function"
    },
    {
      "inputs": [
        {
          "internalType": "address",
          "name": "",
          "type": "address"
        },
        {
          "internalType": "uint32",
          "name": "",
          "type": "uint32"
        }
      ],
      "name": "checkpoints",
      "outputs": [
        {
          "internalType": "uint32",
          "name": "fromBlock",
          "type": "uint32"
        },
        {
          "internalType": "uint256",
          "name": "votes",
          "type": "uint256"
        }
      ],
      "stateMutability": "view",
      "type": "function"
    },
    {
      "inputs": [],
      "name": "decimals",
      "outputs": [
        {
          "internalType": "uint8",
          "name": "",
          "type": "uint8"
        }
      ],
      "stateMutability": "view",
      "type": "function"
    },
    {
      "inputs": [
        {
          "internalType": "address",
          "name": "spender",
          "type": "address"
        },
        {
          "internalType": "uint256",
          "name": "subtractedValue",
          "type": "uint256"
        }
      ],
      "name": "decreaseAllowance",
      "outputs": [
        {
          "internalType": "bool",
          "name": "",
          "type": "bool"
        }
      ],
      "stateMutability": "nonpayable",
      "type": "function"
    },
    {
      "inputs": [
        {
          "internalType": "address",
          "name": "delegatee",
          "type": "address"
        }
      ],
      "name": "delegate",
      "outputs": [],
      "stateMutability": "nonpayable",
      "type": "function"
    },
    {
      "inputs": [
        {
          "internalType": "address",
          "name": "delegatee",
          "type": "address"
        },
        {
          "internalType": "uint256",
          "name": "nonce",
          "type": "uint256"
        },
        {
          "internalType": "uint256",
          "name": "expiry",
          "type": "uint256"
        },
        {
          "internalType": "uint8",
          "name": "v",
          "type": "uint8"
        },
        {
          "internalType": "bytes32",
          "name": "r",
          "type": "bytes32"
        },
        {
          "internalType": "bytes32",
          "name": "s",
          "type": "bytes32"
        }
      ],
      "name": "delegateBySig",
      "outputs": [],
      "stateMutability": "nonpayable",
      "type": "function"
    },
    {
      "inputs": [
        {
          "internalType": "address",
          "name": "delegator",
          "type": "address"
        }
      ],
      "name": "delegates",
      "outputs": [
        {
          "internalType": "address",
          "name": "",
          "type": "address"
        }
      ],
      "stateMutability": "view",
      "type": "function"
    },
    {
      "inputs": [
        {
          "internalType": "address",
          "name": "account",
          "type": "address"
        }
      ],
      "name": "getCurrentVotes",
      "outputs": [
        {
          "internalType": "uint256",
          "name": "",
          "type": "uint256"
        }
      ],
      "stateMutability": "view",
      "type": "function"
    },
    {
      "inputs": [
        {
          "internalType": "address",
          "name": "account",
          "type": "address"
        },
        {
          "internalType": "uint256",
          "name": "blockNumber",
          "type": "uint256"
        }
      ],
      "name": "getPriorVotes",
      "outputs": [
        {
          "internalType": "uint256",
          "name": "",
          "type": "uint256"
        }
      ],
      "stateMutability": "view",
      "type": "function"
    },
    {
      "inputs": [
        {
          "internalType": "bytes32",
          "name": "role",
          "type": "bytes32"
        }
      ],
      "name": "getRoleAdmin",
      "outputs": [
        {
          "internalType": "bytes32",
          "name": "",
          "type": "bytes32"
        }
      ],
      "stateMutability": "view",
      "type": "function"
    },
    {
      "inputs": [
        {
          "internalType": "bytes32",
          "name": "role",
          "type": "bytes32"
        },
        {
          "internalType": "uint256",
          "name": "index",
          "type": "uint256"
        }
      ],
      "name": "getRoleMember",
      "outputs": [
        {
          "internalType": "address",
          "name": "",
          "type": "address"
        }
      ],
      "stateMutability": "view",
      "type": "function"
    },
    {
      "inputs": [
        {
          "internalType": "bytes32",
          "name": "role",
          "type": "bytes32"
        }
      ],
      "name": "getRoleMemberCount",
      "outputs": [
        {
          "internalType": "uint256",
          "name": "",
          "type": "uint256"
        }
      ],
      "stateMutability": "view",
      "type": "function"
    },
    {
      "inputs": [
        {
          "internalType": "bytes32",
          "name": "role",
          "type": "bytes32"
        },
        {
          "internalType": "address",
          "name": "account",
          "type": "address"
        }
      ],
      "name": "grantRole",
      "outputs": [],
      "stateMutability": "nonpayable",
      "type": "function"
    },
    {
      "inputs": [
        {
          "internalType": "bytes32",
          "name": "role",
          "type": "bytes32"
        },
        {
          "internalType": "address",
          "name": "account",
          "type": "address"
        }
      ],
      "name": "hasRole",
      "outputs": [
        {
          "internalType": "bool",
          "name": "",
          "type": "bool"
        }
      ],
      "stateMutability": "view",
      "type": "function"
    },
    {
      "inputs": [
        {
          "internalType": "address",
          "name": "spender",
          "type": "address"
        },
        {
          "internalType": "uint256",
          "name": "addedValue",
          "type": "uint256"
        }
      ],
      "name": "increaseAllowance",
      "outputs": [
        {
          "internalType": "bool",
          "name": "",
          "type": "bool"
        }
      ],
      "stateMutability": "nonpayable",
      "type": "function"
    },
    {
      "inputs": [
        {
          "internalType": "address",
          "name": "to",
          "type": "address"
        },
        {
          "internalType": "uint256",
          "name": "amount",
          "type": "uint256"
        }
      ],
      "name": "mint",
      "outputs": [],
      "stateMutability": "nonpayable",
      "type": "function"
    },
    {
      "inputs": [],
      "name": "name",
      "outputs": [
        {
          "internalType": "string",
          "name": "",
          "type": "string"
        }
      ],
      "stateMutability": "view",
      "type": "function"
    },
    {
      "inputs": [
        {
          "internalType": "address",
          "name": "",
          "type": "address"
        }
      ],
      "name": "nonces",
      "outputs": [
        {
          "internalType": "uint256",
          "name": "",
          "type": "uint256"
        }
      ],
      "stateMutability": "view",
      "type": "function"
    },
    {
      "inputs": [
        {
          "internalType": "address",
          "name": "",
          "type": "address"
        }
      ],
      "name": "numCheckpoints",
      "outputs": [
        {
          "internalType": "uint32",
          "name": "",
          "type": "uint32"
        }
      ],
      "stateMutability": "view",
      "type": "function"
    },
    {
      "inputs": [
        {
          "internalType": "bytes32",
          "name": "role",
          "type": "bytes32"
        },
        {
          "internalType": "address",
          "name": "account",
          "type": "address"
        }
      ],
      "name": "renounceRole",
      "outputs": [],
      "stateMutability": "nonpayable",
      "type": "function"
    },
    {
      "inputs": [
        {
          "internalType": "bytes32",
          "name": "role",
          "type": "bytes32"
        },
        {
          "internalType": "address",
          "name": "account",
          "type": "address"
        }
      ],
      "name": "revokeRole",
      "outputs": [],
      "stateMutability": "nonpayable",
      "type": "function"
    },
    {
      "inputs": [],
      "name": "symbol",
      "outputs": [
        {
          "internalType": "string",
          "name": "",
          "type": "string"
        }
      ],
      "stateMutability": "view",
      "type": "function"
    },
    {
      "inputs": [],
      "name": "totalSupply",
      "outputs": [
        {
          "internalType": "uint256",
          "name": "",
          "type": "uint256"
        }
      ],
      "stateMutability": "view",
      "type": "function"
    },
    {
      "inputs": [
        {
          "internalType": "address",
          "name": "recipient",
          "type": "address"
        },
        {
          "internalType": "uint256",
          "name": "amount",
          "type": "uint256"
        }
      ],
      "name": "transfer",
      "outputs": [
        {
          "internalType": "bool",
          "name": "",
          "type": "bool"
        }
      ],
      "stateMutability": "nonpayable",
      "type": "function"
    },
    {
      "inputs": [
        {
          "internalType": "address",
          "name": "sender",
          "type": "address"
        },
        {
          "internalType": "address",
          "name": "recipient",
          "type": "address"
        },
        {
          "internalType": "uint256",
          "name": "amount",
          "type": "uint256"
        }
      ],
      "name": "transferFrom",
      "outputs": [
        {
          "internalType": "bool",
          "name": "",
          "type": "bool"
        }
      ],
      "stateMutability": "nonpayable",
      "type": "function"
    }
  ],
  "transactionHash": "0x480474442f2816fa88cf656702928890a1961e5f5963c63e05cfdcce80d48a76",
  "args": [],
  "solcInputHash": "3f94a41d2609ad0b5c731cef42af4446",
  "bytecode": "0x60806040523480156200001157600080fd5b506040805180820182526009815268293ab13caa37b5b2b760b91b6020808301918252835180850190945260048452635275627960e01b9084015281516aa56fa5b99019a5c800000093916200006b916003919062000210565b5080516200008190600490602084019062000210565b50506005805460ff191660121790555080620000e4576040805162461bcd60e51b815260206004820152601560248201527f45524332304361707065643a2063617020697320300000000000000000000000604482015290519081900360640190fd5b600655620000f4600033620000fa565b620002ac565b6200010682826200010a565b5050565b6000828152600760209081526040909120620001319183906200132162000185821b17901c565b15620001065762000141620001a5565b6001600160a01b0316816001600160a01b0316837f2f8788117e7eff1d82e926ec794901d17c78024a50270940304540a733656f0d60405160405180910390a45050565b60006200019c836001600160a01b038416620001a9565b90505b92915050565b3390565b6000620001b78383620001f8565b620001ef575081546001818101845560008481526020808220909301849055845484825282860190935260409020919091556200019f565b5060006200019f565b60009081526001919091016020526040902054151590565b828054600181600116156101000203166002900490600052602060002090601f016020900481019282601f106200025357805160ff191683800117855562000283565b8280016001018555821562000283579182015b828111156200028357825182559160200191906001019062000266565b506200029192915062000295565b5090565b5b8082111562000291576000815560010162000296565b6122ef80620002bc6000396000f3fe608060405234801561001057600080fd5b50600436106102115760003560e01c80636fcfff4511610125578063a9059cbb116100ad578063d53913931161007c578063d5391393146106ad578063d547741f146106b5578063dd62ed3e146106e1578063e7a324dc1461070f578063f1127ed81461071757610211565b8063a9059cbb146105f7578063b4b5ea5714610623578063c3cda52014610649578063ca15c8731461069057610211565b80639010d07c116100f45780639010d07c1461056c57806391d148541461058f57806395d89b41146105bb578063a217fddf146105c3578063a457c2d7146105cb57610211565b80636fcfff45146104b557806370a08231146104f4578063782d6fe11461051a5780637ecebe001461054657610211565b8063313ce567116101a8578063395093511161017757806339509351146103d857806340c10f191461040457806342966c6814610430578063587cde1e1461044d5780635c19a95c1461048f57610211565b8063313ce5671461037e57806332cb6b0c1461039c578063355274ea146103a457806336568abe146103ac57610211565b806323b872dd116101e457806323b872dd146102f5578063248a9ca31461032b578063282c51f3146103485780632f2ff15d1461035057610211565b806306fdde0314610216578063095ea7b31461029357806318160ddd146102d357806320606b70146102ed575b600080fd5b61021e610769565b6040805160208082528351818301528351919283929083019185019080838360005b83811015610258578181015183820152602001610240565b50505050905090810190601f1680156102855780820380516001836020036101000a031916815260200191505b509250505060405180910390f35b6102bf600480360360408110156102a957600080fd5b506001600160a01b0381351690602001356107ff565b604080519115158252519081900360200190f35b6102db61081d565b60408051918252519081900360200190f35b6102db610823565b6102bf6004803603606081101561030b57600080fd5b506001600160a01b03813581169160208101359091169060400135610847565b6102db6004803603602081101561034157600080fd5b50356108ce565b6102db6108e3565b61037c6004803603604081101561036657600080fd5b50803590602001356001600160a01b0316610907565b005b610386610973565b6040805160ff9092168252519081900360200190f35b6102db61097c565b6102db61098b565b61037c600480360360408110156103c257600080fd5b50803590602001356001600160a01b0316610991565b6102bf600480360360408110156103ee57600080fd5b506001600160a01b0381351690602001356109f2565b61037c6004803603604081101561041a57600080fd5b506001600160a01b038135169060200135610a40565b61037c6004803603602081101561044657600080fd5b5035610b2f565b6104736004803603602081101561046357600080fd5b50356001600160a01b0316610bad565b604080516001600160a01b039092168252519081900360200190f35b61037c600480360360208110156104a557600080fd5b50356001600160a01b0316610bcb565b6104db600480360360208110156104cb57600080fd5b50356001600160a01b0316610bd5565b6040805163ffffffff9092168252519081900360200190f35b6102db6004803603602081101561050a57600080fd5b50356001600160a01b0316610bed565b6102db6004803603604081101561053057600080fd5b506001600160a01b038135169060200135610c08565b6102db6004803603602081101561055c57600080fd5b50356001600160a01b0316610e10565b6104736004803603604081101561058257600080fd5b5080359060200135610e22565b6102bf600480360360408110156105a557600080fd5b50803590602001356001600160a01b0316610e41565b61021e610e59565b6102db610eba565b6102bf600480360360408110156105e157600080fd5b506001600160a01b038135169060200135610ebf565b6102bf6004803603604081101561060d57600080fd5b506001600160a01b038135169060200135610f27565b6102db6004803603602081101561063957600080fd5b50356001600160a01b0316610f3b565b61037c600480360360c081101561065f57600080fd5b506001600160a01b038135169060208101359060408101359060ff6060820135169060808101359060a00135610f9e565b6102db600480360360208110156106a657600080fd5b5035611211565b6102db611228565b61037c600480360360408110156106cb57600080fd5b50803590602001356001600160a01b031661124c565b6102db600480360360408110156106f757600080fd5b506001600160a01b03813581169160200135166112a5565b6102db6112d0565b6107496004803603604081101561072d57600080fd5b5080356001600160a01b0316906020013563ffffffff166112f4565b6040805163ffffffff909316835260208301919091528051918290030190f35b60038054604080516020601f60026000196101006001881615020190951694909404938401819004810282018101909252828152606093909290918301828280156107f55780601f106107ca576101008083540402835291602001916107f5565b820191906000526020600020905b8154815290600101906020018083116107d857829003601f168201915b5050505050905090565b600061081361080c611336565b848461133a565b5060015b92915050565b60025490565b7f8cad95687ba82c2ce50e74f7b754645e5117c3a5bec8151c0726d5857980a86681565b6000610854848484611426565b6108c484610860611336565b6108bf856040518060600160405280602881526020016121b2602891396001600160a01b038a1660009081526001602052604081209061089e611336565b6001600160a01b031681526020810191909152604001600020549190611581565b61133a565b5060019392505050565b60009081526007602052604090206002015490565b7f3c11d16cbaffd01df69ce1c404f6340ee057498f5f00246190ea54220576a84881565b60008281526007602052604090206002015461092a90610925611336565b610e41565b6109655760405162461bcd60e51b815260040180806020018281038252602f815260200180611fd9602f913960400191505060405180910390fd5b61096f8282611618565b5050565b60055460ff1690565b6aa56fa5b99019a5c800000081565b60065490565b610999611336565b6001600160a01b0316816001600160a01b0316146109e85760405162461bcd60e51b815260040180806020018281038252602f81526020018061228b602f913960400191505060405180910390fd5b61096f8282611681565b60006108136109ff611336565b846108bf8560016000610a10611336565b6001600160a01b03908116825260208083019390935260409182016000908120918c1681529252902054906116ea565b610a6a7f9f2df0fed2c77648de5860a4cc508cd0818c85b8b8a1ab4ceeef8d981c8956a633610e41565b610aa55760405162461bcd60e51b81526004018080602001828103825260228152602001806120996022913960400191505060405180910390fd5b6aa56fa5b99019a5c8000000610ac382610abd61081d565b906116ea565b1115610b005760405162461bcd60e51b81526004018080602001828103825260258152602001806121676025913960400191505060405180910390fd5b610b0a8282611744565b6001600160a01b0380831660009081526008602052604081205461096f921683611834565b610b597f3c11d16cbaffd01df69ce1c404f6340ee057498f5f00246190ea54220576a84833610e41565b610b945760405162461bcd60e51b81526004018080602001828103825260228152602001806121da6022913960400191505060405180910390fd5b610b9e3382611976565b610baa33600083611834565b50565b6001600160a01b039081166000908152600860205260409020541690565b610baa3382611a72565b600a6020526000908152604090205463ffffffff1681565b6001600160a01b031660009081526020819052604090205490565b6000438210610c485760405162461bcd60e51b81526004018080602001828103825260278152602001806120086027913960400191505060405180910390fd5b6001600160a01b0383166000908152600a602052604090205463ffffffff1680610c76576000915050610817565b6001600160a01b038416600090815260096020908152604080832063ffffffff600019860181168552925290912054168310610ce5576001600160a01b03841660009081526009602090815260408083206000199490940163ffffffff16835292905220600101549050610817565b6001600160a01b038416600090815260096020908152604080832083805290915290205463ffffffff16831015610d20576000915050610817565b600060001982015b8163ffffffff168163ffffffff161115610dd957600282820363ffffffff16048103610d52611f7c565b506001600160a01b038716600090815260096020908152604080832063ffffffff808616855290835292819020815180830190925280549093168082526001909301549181019190915290871415610db4576020015194506108179350505050565b805163ffffffff16871115610dcb57819350610dd2565b6001820392505b5050610d28565b506001600160a01b038516600090815260096020908152604080832063ffffffff9094168352929052206001015491505092915050565b600b6020526000908152604090205481565b6000828152600760205260408120610e3a9083611b07565b9392505050565b6000828152600760205260408120610e3a9083611b13565b60048054604080516020601f60026000196101006001881615020190951694909404938401819004810282018101909252828152606093909290918301828280156107f55780601f106107ca576101008083540402835291602001916107f5565b600081565b6000610813610ecc611336565b846108bf856040518060600160405280602581526020016122666025913960016000610ef6611336565b6001600160a01b03908116825260208083019390935260409182016000908120918d16815292529020549190611581565b6000610813610f34611336565b8484611426565b6001600160a01b0381166000908152600a602052604081205463ffffffff1680610f66576000610e3a565b6001600160a01b038316600090815260096020908152604080832063ffffffff60001986011684529091529020600101549392505050565b60007f8cad95687ba82c2ce50e74f7b754645e5117c3a5bec8151c0726d5857980a866610fc9610769565b80519060200120610fd8611b28565b60408051602080820195909552808201939093526060830191909152306080808401919091528151808403909101815260a0830182528051908401207fe48329057bfd03d55e49b547132e39cffd9c1820ad7b9d4c5307691425d15adf60c08401526001600160a01b038b1660e084015261010083018a90526101208084018a9052825180850390910181526101408401835280519085012061190160f01b6101608501526101628401829052610182808501829052835180860390910181526101a285018085528151918701919091206000918290526101c2860180865281905260ff8b166101e287015261020286018a90526102228601899052935192965090949293909260019261024280840193601f198301929081900390910190855afa15801561110b573d6000803e3d6000fd5b5050604051601f1901519150506001600160a01b03811661115d5760405162461bcd60e51b81526004018080602001828103825260268152602001806120bb6026913960400191505060405180910390fd5b6001600160a01b0381166000908152600b6020526040902080546001810190915589146111bb5760405162461bcd60e51b81526004018080602001828103825260228152602001806120e16022913960400191505060405180910390fd5b874211156111fa5760405162461bcd60e51b815260040180806020018281038252602681526020018061218c6026913960400191505060405180910390fd5b611204818b611a72565b505050505b505050505050565b600081815260076020526040812061081790611b2c565b7f9f2df0fed2c77648de5860a4cc508cd0818c85b8b8a1ab4ceeef8d981c8956a681565b60008281526007602052604090206002015461126a90610925611336565b6109e85760405162461bcd60e51b81526004018080602001828103825260308152602001806121036030913960400191505060405180910390fd5b6001600160a01b03918216600090815260016020908152604080832093909416825291909152205490565b7fe48329057bfd03d55e49b547132e39cffd9c1820ad7b9d4c5307691425d15adf81565b60096020908152600092835260408084209091529082529020805460019091015463ffffffff9091169082565b6000610e3a836001600160a01b038416611b37565b3390565b6001600160a01b03831661137f5760405162461bcd60e51b81526004018080602001828103825260248152602001806122426024913960400191505060405180910390fd5b6001600160a01b0382166113c45760405162461bcd60e51b81526004018080602001828103825260228152602001806120516022913960400191505060405180910390fd5b6001600160a01b03808416600081815260016020908152604080832094871680845294825291829020859055815185815291517f8c5be1e5ebec7d5bd14f71427d1e84f3dd0314c0f7b2291e5b200ac8c7c3b9259281900390910190a3505050565b6001600160a01b03831661146b5760405162461bcd60e51b815260040180806020018281038252602581526020018061221d6025913960400191505060405180910390fd5b6001600160a01b0382166114b05760405162461bcd60e51b8152600401808060200182810382526023815260200180611fb66023913960400191505060405180910390fd5b6114bb838383611b81565b6114f881604051806060016040528060268152602001612073602691396001600160a01b0386166000908152602081905260409020549190611581565b6001600160a01b03808516600090815260208190526040808220939093559084168152205461152790826116ea565b6001600160a01b038084166000818152602081815260409182902094909455805185815290519193928716927fddf252ad1be2c89b69c2b068fc378daa952ba7f163c4a11628f55a4df523b3ef92918290030190a3505050565b600081848411156116105760405162461bcd60e51b81526004018080602001828103825283818151815260200191508051906020019080838360005b838110156115d55781810151838201526020016115bd565b50505050905090810190601f1680156116025780820380516001836020036101000a031916815260200191505b509250505060405180910390fd5b505050900390565b60008281526007602052604090206116309082611321565b1561096f5761163d611336565b6001600160a01b0316816001600160a01b0316837f2f8788117e7eff1d82e926ec794901d17c78024a50270940304540a733656f0d60405160405180910390a45050565b60008281526007602052604090206116999082611c01565b1561096f576116a6611336565b6001600160a01b0316816001600160a01b0316837ff6391f5c32d9c69d2a47ea670b442974b53935d1edc7fd64eb21e047a839171b60405160405180910390a45050565b600082820183811015610e3a576040805162461bcd60e51b815260206004820152601b60248201527f536166654d6174683a206164646974696f6e206f766572666c6f770000000000604482015290519081900360640190fd5b6001600160a01b03821661179f576040805162461bcd60e51b815260206004820152601f60248201527f45524332303a206d696e7420746f20746865207a65726f206164647265737300604482015290519081900360640190fd5b6117ab60008383611b81565b6002546117b890826116ea565b6002556001600160a01b0382166000908152602081905260409020546117de90826116ea565b6001600160a01b0383166000818152602081815260408083209490945583518581529351929391927fddf252ad1be2c89b69c2b068fc378daa952ba7f163c4a11628f55a4df523b3ef9281900390910190a35050565b816001600160a01b0316836001600160a01b0316141580156118565750600081115b15611971576001600160a01b038316156118e8576001600160a01b0383166000908152600a602052604081205463ffffffff1690816118965760006118c8565b6001600160a01b038516600090815260096020908152604080832063ffffffff60001987011684529091529020600101545b905060006118d68285611c16565b90506118e486848484611c73565b5050505b6001600160a01b03821615611971576001600160a01b0382166000908152600a602052604081205463ffffffff169081611923576000611955565b6001600160a01b038416600090815260096020908152604080832063ffffffff60001987011684529091529020600101545b9050600061196382856116ea565b905061120985848484611c73565b505050565b6001600160a01b0382166119bb5760405162461bcd60e51b81526004018080602001828103825260218152602001806121fc6021913960400191505060405180910390fd5b6119c782600083611b81565b611a048160405180606001604052806022815260200161202f602291396001600160a01b0385166000908152602081905260409020549190611581565b6001600160a01b038316600090815260208190526040902055600254611a2a9082611c16565b6002556040805182815290516000916001600160a01b038516917fddf252ad1be2c89b69c2b068fc378daa952ba7f163c4a11628f55a4df523b3ef9181900360200190a35050565b6001600160a01b0380831660009081526008602052604081205490911690611a9984610bed565b6001600160a01b0385811660008181526008602052604080822080546001600160a01b031916898616908117909155905194955093928616927f3134e8a2e6d97e929a7e54011ea5485d7d196dd5f0ba4d4ef95803e8e3fc257f9190a4611b01828483611834565b50505050565b6000610e3a8383611dd8565b6000610e3a836001600160a01b038416611e3c565b4690565b600061081782611e54565b6000611b438383611e3c565b611b7957508154600181810184556000848152602080822090930184905584548482528286019093526040902091909155610817565b506000610817565b611b8c838383611971565b6001600160a01b03831661197157611ba261098b565b611bae82610abd61081d565b1115611971576040805162461bcd60e51b815260206004820152601960248201527f45524332304361707065643a2063617020657863656564656400000000000000604482015290519081900360640190fd5b6000610e3a836001600160a01b038416611e58565b600082821115611c6d576040805162461bcd60e51b815260206004820152601e60248201527f536166654d6174683a207375627472616374696f6e206f766572666c6f770000604482015290519081900360640190fd5b50900390565b6000611c974360405180606001604052806034815260200161213360349139611f1e565b905060008463ffffffff16118015611ce057506001600160a01b038516600090815260096020908152604080832063ffffffff6000198901811685529252909120548282169116145b15611d1d576001600160a01b038516600090815260096020908152604080832063ffffffff60001989011684529091529020600101829055611d8e565b60408051808201825263ffffffff808416825260208083018681526001600160a01b038a166000818152600984528681208b8616825284528681209551865490861663ffffffff199182161787559251600196870155908152600a9092529390208054928801909116919092161790555b604080518481526020810184905281516001600160a01b038816927fdec2bacdd2f05b59de34da9b523dff8be42e5e38e818c82fdb0bae774387a724928290030190a25050505050565b81546000908210611e1a5760405162461bcd60e51b8152600401808060200182810382526022815260200180611f946022913960400191505060405180910390fd5b826000018281548110611e2957fe5b9060005260206000200154905092915050565b60009081526001919091016020526040902054151590565b5490565b60008181526001830160205260408120548015611f145783546000198083019190810190600090879083908110611e8b57fe5b9060005260206000200154905080876000018481548110611ea857fe5b600091825260208083209091019290925582815260018981019092526040902090840190558654879080611ed857fe5b60019003818190600052602060002001600090559055866001016000878152602001908152602001600020600090556001945050505050610817565b6000915050610817565b6000816401000000008410611f745760405162461bcd60e51b81526020600482018181528351602484015283519092839260449091019190850190808383600083156115d55781810151838201526020016115bd565b509192915050565b60408051808201909152600080825260208201529056fe456e756d657261626c655365743a20696e646578206f7574206f6620626f756e647345524332303a207472616e7366657220746f20746865207a65726f2061646472657373416363657373436f6e74726f6c3a2073656e646572206d75737420626520616e2061646d696e20746f206772616e74525542593a3a6765745072696f72566f7465733a206e6f74207965742064657465726d696e656445524332303a206275726e20616d6f756e7420657863656564732062616c616e636545524332303a20617070726f766520746f20746865207a65726f206164647265737345524332303a207472616e7366657220616d6f756e7420657863656564732062616c616e6365525542593a3a6d696e743a2043616c6c6572206973206e6f742061206d696e746572525542593a3a64656c656761746542795369673a20696e76616c6964207369676e6174757265525542593a3a64656c656761746542795369673a20696e76616c6964206e6f6e6365416363657373436f6e74726f6c3a2073656e646572206d75737420626520616e2061646d696e20746f207265766f6b65525542593a3a5f7772697465436865636b706f696e743a20626c6f636b206e756d62657220657863656564732033322062697473525542593a3a6d696e743a2043616e6e6f7420657863656564206d617820737570706c792e525542593a3a64656c656761746542795369673a207369676e6174757265206578706972656445524332303a207472616e7366657220616d6f756e74206578636565647320616c6c6f77616e6365525542593a3a6275726e3a2043616c6c6572206973206e6f742061206275726e657245524332303a206275726e2066726f6d20746865207a65726f206164647265737345524332303a207472616e736665722066726f6d20746865207a65726f206164647265737345524332303a20617070726f76652066726f6d20746865207a65726f206164647265737345524332303a2064656372656173656420616c6c6f77616e63652062656c6f77207a65726f416363657373436f6e74726f6c3a2063616e206f6e6c792072656e6f756e636520726f6c657320666f722073656c66a2646970667358221220e1f11e45f41638ed41f1d1e503f9ccdef49df3ef67ba743f027c32cf48b2e04b64736f6c634300060c0033",
  "devdoc": {
    "kind": "dev",
    "methods": {
      "allowance(address,address)": {
        "details": "See {IERC20-allowance}."
      },
      "approve(address,uint256)": {
        "details": "See {IERC20-approve}. Requirements: - `spender` cannot be the zero address."
      },
      "balanceOf(address)": {
        "details": "See {IERC20-balanceOf}."
      },
      "cap()": {
        "details": "Returns the cap on the token's total supply."
      },
      "decimals()": {
        "details": "Returns the number of decimals used to get its user representation. For example, if `decimals` equals `2`, a balance of `505` tokens should be displayed to a user as `5,05` (`505 / 10 ** 2`). Tokens usually opt for a value of 18, imitating the relationship between Ether and Wei. This is the value {ERC20} uses, unless {_setupDecimals} is called. NOTE: This information is only used for _display_ purposes: it in no way affects any of the arithmetic of the contract, including {IERC20-balanceOf} and {IERC20-transfer}."
      },
      "decreaseAllowance(address,uint256)": {
        "details": "Atomically decreases the allowance granted to `spender` by the caller. This is an alternative to {approve} that can be used as a mitigation for problems described in {IERC20-approve}. Emits an {Approval} event indicating the updated allowance. Requirements: - `spender` cannot be the zero address. - `spender` must have allowance for the caller of at least `subtractedValue`."
      },
      "delegate(address)": {
        "params": {
          "delegatee": "The address to delegate votes to"
        }
      },
      "delegateBySig(address,uint256,uint256,uint8,bytes32,bytes32)": {
        "params": {
          "delegatee": "The address to delegate votes to",
          "expiry": "The time at which to expire the signature",
          "nonce": "The contract state required to match the signature",
          "r": "Half of the ECDSA signature pair",
          "s": "Half of the ECDSA signature pair",
          "v": "The recovery byte of the signature"
        }
      },
      "delegates(address)": {
        "params": {
          "delegator": "The address to get delegatee for"
        }
      },
      "getCurrentVotes(address)": {
        "params": {
          "account": "The address to get votes balance"
        },
        "returns": {
          "_0": "The number of current votes for `account`"
        }
      },
      "getPriorVotes(address,uint256)": {
        "details": "Block number must be a finalized block or else this function will revert to prevent misinformation.",
        "params": {
          "account": "The address of the account to check",
          "blockNumber": "The block number to get the vote balance at"
        },
        "returns": {
          "_0": "The number of votes the account had as of the given block"
        }
      },
      "getRoleAdmin(bytes32)": {
        "details": "Returns the admin role that controls `role`. See {grantRole} and {revokeRole}. To change a role's admin, use {_setRoleAdmin}."
      },
      "getRoleMember(bytes32,uint256)": {
        "details": "Returns one of the accounts that have `role`. `index` must be a value between 0 and {getRoleMemberCount}, non-inclusive. Role bearers are not sorted in any particular way, and their ordering may change at any point. WARNING: When using {getRoleMember} and {getRoleMemberCount}, make sure you perform all queries on the same block. See the following https://forum.openzeppelin.com/t/iterating-over-elements-on-enumerableset-in-openzeppelin-contracts/2296[forum post] for more information."
      },
      "getRoleMemberCount(bytes32)": {
        "details": "Returns the number of accounts that have `role`. Can be used together with {getRoleMember} to enumerate all bearers of a role."
      },
      "grantRole(bytes32,address)": {
        "details": "Grants `role` to `account`. If `account` had not been already granted `role`, emits a {RoleGranted} event. Requirements: - the caller must have ``role``'s admin role."
      },
      "hasRole(bytes32,address)": {
        "details": "Returns `true` if `account` has been granted `role`."
      },
      "increaseAllowance(address,uint256)": {
        "details": "Atomically increases the allowance granted to `spender` by the caller. This is an alternative to {approve} that can be used as a mitigation for problems described in {IERC20-approve}. Emits an {Approval} event indicating the updated allowance. Requirements: - `spender` cannot be the zero address."
      },
      "name()": {
        "details": "Returns the name of the token."
      },
      "renounceRole(bytes32,address)": {
        "details": "Revokes `role` from the calling account. Roles are often managed via {grantRole} and {revokeRole}: this function's purpose is to provide a mechanism for accounts to lose their privileges if they are compromised (such as when a trusted device is misplaced). If the calling account had been granted `role`, emits a {RoleRevoked} event. Requirements: - the caller must be `account`."
      },
      "revokeRole(bytes32,address)": {
        "details": "Revokes `role` from `account`. If `account` had been granted `role`, emits a {RoleRevoked} event. Requirements: - the caller must have ``role``'s admin role."
      },
      "symbol()": {
        "details": "Returns the symbol of the token, usually a shorter version of the name."
      },
      "totalSupply()": {
        "details": "See {IERC20-totalSupply}."
      },
      "transfer(address,uint256)": {
        "details": "See {IERC20-transfer}. Requirements: - `recipient` cannot be the zero address. - the caller must have a balance of at least `amount`."
      },
      "transferFrom(address,address,uint256)": {
        "details": "See {IERC20-transferFrom}. Emits an {Approval} event indicating the updated allowance. This is not required by the EIP. See the note at the beginning of {ERC20}. Requirements: - `sender` and `recipient` cannot be the zero address. - `sender` must have a balance of at least `amount`. - the caller must have allowance for ``sender``'s tokens of at least `amount`."
      }
    },
    "stateVariables": {
      "_delegates": {
        "details": "A record of each accounts delegate"
      }
    },
    "title": "RubyToken with Governance",
    "version": 1
  },
  "userdoc": {
    "events": {
      "DelegateChanged(address,address,address)": {
        "notice": "An event thats emitted when an account changes its delegate"
      },
      "DelegateVotesChanged(address,uint256,uint256)": {
        "notice": "An event thats emitted when a delegate account's vote balance changes"
      }
    },
    "kind": "user",
    "methods": {
      "DELEGATION_TYPEHASH()": {
        "notice": "The EIP-712 typehash for the delegation struct used by the contract"
      },
      "DOMAIN_TYPEHASH()": {
        "notice": "The EIP-712 typehash for the contract's domain"
      },
      "MAX_SUPPLY()": {
        "notice": "Total number of tokens"
      },
      "MINTER_ROLE()": {
        "notice": "Access control roles for the IMA TokenManager"
      },
      "burn(uint256)": {
        "notice": "Destroys `amount` of RUBY tokens from the msg.sender. Must only be called by the IMA TokenManager contract and the RubyMaker contract"
      },
      "checkpoints(address,uint32)": {
        "notice": "A record of votes checkpoints for each account, by index"
      },
      "delegate(address)": {
        "notice": "Delegate votes from `msg.sender` to `delegatee`"
      },
      "delegateBySig(address,uint256,uint256,uint8,bytes32,bytes32)": {
        "notice": "Delegates votes from signatory to `delegatee`"
      },
      "delegates(address)": {
        "notice": "Delegate votes from `msg.sender` to `delegatee`"
      },
      "getCurrentVotes(address)": {
        "notice": "Gets the current votes balance for `account`"
      },
      "getPriorVotes(address,uint256)": {
        "notice": "Determine the prior number of votes for an account as of a block number"
      },
      "mint(address,uint256)": {
        "notice": "Creates `amount` token to `to`. Must only be called by the IMA TokenManager contract"
      },
      "nonces(address)": {
        "notice": "A record of states for signing / validating signatures"
      },
      "numCheckpoints(address)": {
        "notice": "The number of checkpoints for each account"
      }
    },
    "notice": "This version of the RubyToken is to be used on the SChain It features access control needed for the IMA TokenManager contract (bridging), and also for the RubyMaker contract (distribute and burn mechanism)",
    "version": 1
  },
  "storageLayout": {
    "storage": [
      {
        "astId": 2887,
        "contract": "contracts/token_mappings/RubyToken.sol:RubyToken",
        "label": "_balances",
        "offset": 0,
        "slot": "0",
        "type": "t_mapping(t_address,t_uint256)"
      },
      {
        "astId": 2893,
        "contract": "contracts/token_mappings/RubyToken.sol:RubyToken",
        "label": "_allowances",
        "offset": 0,
        "slot": "1",
        "type": "t_mapping(t_address,t_mapping(t_address,t_uint256))"
      },
      {
        "astId": 2895,
        "contract": "contracts/token_mappings/RubyToken.sol:RubyToken",
        "label": "_totalSupply",
        "offset": 0,
        "slot": "2",
        "type": "t_uint256"
      },
      {
        "astId": 2897,
        "contract": "contracts/token_mappings/RubyToken.sol:RubyToken",
        "label": "_name",
        "offset": 0,
        "slot": "3",
        "type": "t_string_storage"
      },
      {
        "astId": 2899,
        "contract": "contracts/token_mappings/RubyToken.sol:RubyToken",
        "label": "_symbol",
        "offset": 0,
        "slot": "4",
        "type": "t_string_storage"
      },
      {
        "astId": 2901,
        "contract": "contracts/token_mappings/RubyToken.sol:RubyToken",
        "label": "_decimals",
        "offset": 0,
        "slot": "5",
        "type": "t_uint8"
      },
      {
        "astId": 3384,
        "contract": "contracts/token_mappings/RubyToken.sol:RubyToken",
        "label": "_cap",
        "offset": 0,
        "slot": "6",
        "type": "t_uint256"
      },
      {
        "astId": 1852,
        "contract": "contracts/token_mappings/RubyToken.sol:RubyToken",
        "label": "_roles",
        "offset": 0,
        "slot": "7",
        "type": "t_mapping(t_bytes32,t_struct(RoleData)1848_storage)"
      },
      {
        "astId": 23843,
        "contract": "contracts/token_mappings/RubyToken.sol:RubyToken",
        "label": "_delegates",
        "offset": 0,
        "slot": "8",
        "type": "t_mapping(t_address,t_address)"
      },
      {
        "astId": 23855,
        "contract": "contracts/token_mappings/RubyToken.sol:RubyToken",
        "label": "checkpoints",
        "offset": 0,
        "slot": "9",
        "type": "t_mapping(t_address,t_mapping(t_uint32,t_struct(Checkpoint)23848_storage))"
      },
      {
        "astId": 23860,
        "contract": "contracts/token_mappings/RubyToken.sol:RubyToken",
        "label": "numCheckpoints",
        "offset": 0,
        "slot": "10",
        "type": "t_mapping(t_address,t_uint32)"
      },
      {
        "astId": 23877,
        "contract": "contracts/token_mappings/RubyToken.sol:RubyToken",
        "label": "nonces",
        "offset": 0,
        "slot": "11",
        "type": "t_mapping(t_address,t_uint256)"
      }
    ],
    "types": {
      "t_address": {
        "encoding": "inplace",
        "label": "address",
        "numberOfBytes": "20"
      },
      "t_array(t_bytes32)dyn_storage": {
        "base": "t_bytes32",
        "encoding": "dynamic_array",
        "label": "bytes32[]",
        "numberOfBytes": "32"
      },
      "t_bytes32": {
        "encoding": "inplace",
        "label": "bytes32",
        "numberOfBytes": "32"
      },
      "t_mapping(t_address,t_address)": {
        "encoding": "mapping",
        "key": "t_address",
        "label": "mapping(address => address)",
        "numberOfBytes": "32",
        "value": "t_address"
      },
      "t_mapping(t_address,t_mapping(t_address,t_uint256))": {
        "encoding": "mapping",
        "key": "t_address",
        "label": "mapping(address => mapping(address => uint256))",
        "numberOfBytes": "32",
        "value": "t_mapping(t_address,t_uint256)"
      },
      "t_mapping(t_address,t_mapping(t_uint32,t_struct(Checkpoint)23848_storage))": {
        "encoding": "mapping",
        "key": "t_address",
        "label": "mapping(address => mapping(uint32 => struct RubyToken.Checkpoint))",
        "numberOfBytes": "32",
        "value": "t_mapping(t_uint32,t_struct(Checkpoint)23848_storage)"
      },
      "t_mapping(t_address,t_uint256)": {
        "encoding": "mapping",
        "key": "t_address",
        "label": "mapping(address => uint256)",
        "numberOfBytes": "32",
        "value": "t_uint256"
      },
      "t_mapping(t_address,t_uint32)": {
        "encoding": "mapping",
        "key": "t_address",
        "label": "mapping(address => uint32)",
        "numberOfBytes": "32",
        "value": "t_uint32"
      },
      "t_mapping(t_bytes32,t_struct(RoleData)1848_storage)": {
        "encoding": "mapping",
        "key": "t_bytes32",
        "label": "mapping(bytes32 => struct AccessControl.RoleData)",
        "numberOfBytes": "32",
        "value": "t_struct(RoleData)1848_storage"
      },
      "t_mapping(t_bytes32,t_uint256)": {
        "encoding": "mapping",
        "key": "t_bytes32",
        "label": "mapping(bytes32 => uint256)",
        "numberOfBytes": "32",
        "value": "t_uint256"
      },
      "t_mapping(t_uint32,t_struct(Checkpoint)23848_storage)": {
        "encoding": "mapping",
        "key": "t_uint32",
        "label": "mapping(uint32 => struct RubyToken.Checkpoint)",
        "numberOfBytes": "32",
        "value": "t_struct(Checkpoint)23848_storage"
      },
      "t_string_storage": {
        "encoding": "bytes",
        "label": "string",
        "numberOfBytes": "32"
      },
      "t_struct(AddressSet)6114_storage": {
        "encoding": "inplace",
        "label": "struct EnumerableSet.AddressSet",
        "members": [
          {
            "astId": 6113,
            "contract": "contracts/token_mappings/RubyToken.sol:RubyToken",
            "label": "_inner",
            "offset": 0,
            "slot": "0",
            "type": "t_struct(Set)5849_storage"
          }
        ],
        "numberOfBytes": "64"
      },
      "t_struct(Checkpoint)23848_storage": {
        "encoding": "inplace",
        "label": "struct RubyToken.Checkpoint",
        "members": [
          {
            "astId": 23845,
            "contract": "contracts/token_mappings/RubyToken.sol:RubyToken",
            "label": "fromBlock",
            "offset": 0,
            "slot": "0",
            "type": "t_uint32"
          },
          {
            "astId": 23847,
            "contract": "contracts/token_mappings/RubyToken.sol:RubyToken",
            "label": "votes",
            "offset": 0,
            "slot": "1",
            "type": "t_uint256"
          }
        ],
        "numberOfBytes": "64"
      },
      "t_struct(RoleData)1848_storage": {
        "encoding": "inplace",
        "label": "struct AccessControl.RoleData",
        "members": [
          {
            "astId": 1845,
            "contract": "contracts/token_mappings/RubyToken.sol:RubyToken",
            "label": "members",
            "offset": 0,
            "slot": "0",
            "type": "t_struct(AddressSet)6114_storage"
          },
          {
            "astId": 1847,
            "contract": "contracts/token_mappings/RubyToken.sol:RubyToken",
            "label": "adminRole",
            "offset": 0,
            "slot": "2",
            "type": "t_bytes32"
          }
        ],
        "numberOfBytes": "96"
      },
      "t_struct(Set)5849_storage": {
        "encoding": "inplace",
        "label": "struct EnumerableSet.Set",
        "members": [
          {
            "astId": 5844,
            "contract": "contracts/token_mappings/RubyToken.sol:RubyToken",
            "label": "_values",
            "offset": 0,
            "slot": "0",
            "type": "t_array(t_bytes32)dyn_storage"
          },
          {
            "astId": 5848,
            "contract": "contracts/token_mappings/RubyToken.sol:RubyToken",
            "label": "_indexes",
            "offset": 0,
            "slot": "1",
            "type": "t_mapping(t_bytes32,t_uint256)"
          }
        ],
        "numberOfBytes": "64"
      },
      "t_uint256": {
        "encoding": "inplace",
        "label": "uint256",
        "numberOfBytes": "32"
      },
      "t_uint32": {
        "encoding": "inplace",
        "label": "uint32",
        "numberOfBytes": "4"
      },
      "t_uint8": {
        "encoding": "inplace",
        "label": "uint8",
        "numberOfBytes": "1"
      }
    }
  }
}