{
  "address": "0xC6a7ce894dDa11571dD270110Ba81bB7288C5390",
  "abi": [
    {
      "inputs": [
        {
          "internalType": "string",
          "name": "name",
          "type": "string"
        },
        {
          "internalType": "string",
          "name": "symbol",
          "type": "string"
        }
      ],
      "stateMutability": "nonpayable",
      "type": "constructor"
    },
    {
      "anonymous": false,
      "inputs": [
        {
          "indexed": true,
          "internalType": "address",
          "name": "owner",
          "type": "address"
        },
        {
          "indexed": true,
          "internalType": "address",
          "name": "approved",
          "type": "address"
        },
        {
          "indexed": true,
          "internalType": "uint256",
          "name": "tokenId",
          "type": "uint256"
        }
      ],
      "name": "Approval",
      "type": "event"
    },
    {
      "anonymous": false,
      "inputs": [
        {
          "indexed": true,
          "internalType": "address",
          "name": "owner",
          "type": "address"
        },
        {
          "indexed": true,
          "internalType": "address",
          "name": "operator",
          "type": "address"
        },
        {
          "indexed": false,
          "internalType": "bool",
          "name": "approved",
          "type": "bool"
        }
      ],
      "name": "ApprovalForAll",
      "type": "event"
    },
    {
      "anonymous": false,
      "inputs": [
        {
          "indexed": true,
          "internalType": "bytes32",
          "name": "role",
          "type": "bytes32"
        },
        {
          "indexed": true,
          "internalType": "bytes32",
          "name": "previousAdminRole",
          "type": "bytes32"
        },
        {
          "indexed": true,
          "internalType": "bytes32",
          "name": "newAdminRole",
          "type": "bytes32"
        }
      ],
      "name": "RoleAdminChanged",
      "type": "event"
    },
    {
      "anonymous": false,
      "inputs": [
        {
          "indexed": true,
          "internalType": "bytes32",
          "name": "role",
          "type": "bytes32"
        },
        {
          "indexed": true,
          "internalType": "address",
          "name": "account",
          "type": "address"
        },
        {
          "indexed": true,
          "internalType": "address",
          "name": "sender",
          "type": "address"
        }
      ],
      "name": "RoleGranted",
      "type": "event"
    },
    {
      "anonymous": false,
      "inputs": [
        {
          "indexed": true,
          "internalType": "bytes32",
          "name": "role",
          "type": "bytes32"
        },
        {
          "indexed": true,
          "internalType": "address",
          "name": "account",
          "type": "address"
        },
        {
          "indexed": true,
          "internalType": "address",
          "name": "sender",
          "type": "address"
        }
      ],
      "name": "RoleRevoked",
      "type": "event"
    },
    {
      "anonymous": false,
      "inputs": [
        {
          "indexed": true,
          "internalType": "address",
          "name": "from",
          "type": "address"
        },
        {
          "indexed": true,
          "internalType": "address",
          "name": "to",
          "type": "address"
        },
        {
          "indexed": true,
          "internalType": "uint256",
          "name": "tokenId",
          "type": "uint256"
        }
      ],
      "name": "Transfer",
      "type": "event"
    },
    {
      "inputs": [],
      "name": "BURNER_ROLE",
      "outputs": [
        {
          "internalType": "bytes32",
          "name": "",
          "type": "bytes32"
        }
      ],
      "stateMutability": "view",
      "type": "function"
    },
    {
      "inputs": [],
      "name": "DEFAULT_ADMIN_ROLE",
      "outputs": [
        {
          "internalType": "bytes32",
          "name": "",
          "type": "bytes32"
        }
      ],
      "stateMutability": "view",
      "type": "function"
    },
    {
      "inputs": [],
      "name": "MINTER_ROLE",
      "outputs": [
        {
          "internalType": "bytes32",
          "name": "",
          "type": "bytes32"
        }
      ],
      "stateMutability": "view",
      "type": "function"
    },
    {
      "inputs": [
        {
          "internalType": "address",
          "name": "to",
          "type": "address"
        },
        {
          "internalType": "uint256",
          "name": "tokenId",
          "type": "uint256"
        }
      ],
      "name": "approve",
      "outputs": [],
      "stateMutability": "nonpayable",
      "type": "function"
    },
    {
      "inputs": [
        {
          "internalType": "address",
          "name": "owner",
          "type": "address"
        }
      ],
      "name": "balanceOf",
      "outputs": [
        {
          "internalType": "uint256",
          "name": "",
          "type": "uint256"
        }
      ],
      "stateMutability": "view",
      "type": "function"
    },
    {
      "inputs": [],
      "name": "baseURI",
      "outputs": [
        {
          "internalType": "string",
          "name": "",
          "type": "string"
        }
      ],
      "stateMutability": "view",
      "type": "function"
    },
    {
      "inputs": [
        {
          "internalType": "uint256",
          "name": "tokenId",
          "type": "uint256"
        }
      ],
      "name": "burn",
      "outputs": [],
      "stateMutability": "nonpayable",
      "type": "function"
    },
    {
      "inputs": [
        {
          "internalType": "uint256",
          "name": "tokenId",
          "type": "uint256"
        }
      ],
      "name": "getApproved",
      "outputs": [
        {
          "internalType": "address",
          "name": "",
          "type": "address"
        }
      ],
      "stateMutability": "view",
      "type": "function"
    },
    {
      "inputs": [
        {
          "internalType": "bytes32",
          "name": "role",
          "type": "bytes32"
        }
      ],
      "name": "getRoleAdmin",
      "outputs": [
        {
          "internalType": "bytes32",
          "name": "",
          "type": "bytes32"
        }
      ],
      "stateMutability": "view",
      "type": "function"
    },
    {
      "inputs": [
        {
          "internalType": "bytes32",
          "name": "role",
          "type": "bytes32"
        },
        {
          "internalType": "uint256",
          "name": "index",
          "type": "uint256"
        }
      ],
      "name": "getRoleMember",
      "outputs": [
        {
          "internalType": "address",
          "name": "",
          "type": "address"
        }
      ],
      "stateMutability": "view",
      "type": "function"
    },
    {
      "inputs": [
        {
          "internalType": "bytes32",
          "name": "role",
          "type": "bytes32"
        }
      ],
      "name": "getRoleMemberCount",
      "outputs": [
        {
          "internalType": "uint256",
          "name": "",
          "type": "uint256"
        }
      ],
      "stateMutability": "view",
      "type": "function"
    },
    {
      "inputs": [
        {
          "internalType": "bytes32",
          "name": "role",
          "type": "bytes32"
        },
        {
          "internalType": "address",
          "name": "account",
          "type": "address"
        }
      ],
      "name": "grantRole",
      "outputs": [],
      "stateMutability": "nonpayable",
      "type": "function"
    },
    {
      "inputs": [
        {
          "internalType": "bytes32",
          "name": "role",
          "type": "bytes32"
        },
        {
          "internalType": "address",
          "name": "account",
          "type": "address"
        }
      ],
      "name": "hasRole",
      "outputs": [
        {
          "internalType": "bool",
          "name": "",
          "type": "bool"
        }
      ],
      "stateMutability": "view",
      "type": "function"
    },
    {
      "inputs": [
        {
          "internalType": "address",
          "name": "owner",
          "type": "address"
        },
        {
          "internalType": "address",
          "name": "operator",
          "type": "address"
        }
      ],
      "name": "isApprovedForAll",
      "outputs": [
        {
          "internalType": "bool",
          "name": "",
          "type": "bool"
        }
      ],
      "stateMutability": "view",
      "type": "function"
    },
    {
      "inputs": [
        {
          "internalType": "address",
          "name": "to",
          "type": "address"
        },
        {
          "internalType": "uint256",
          "name": "tokenId",
          "type": "uint256"
        }
      ],
      "name": "mint",
      "outputs": [],
      "stateMutability": "nonpayable",
      "type": "function"
    },
    {
      "inputs": [],
      "name": "name",
      "outputs": [
        {
          "internalType": "string",
          "name": "",
          "type": "string"
        }
      ],
      "stateMutability": "view",
      "type": "function"
    },
    {
      "inputs": [
        {
          "internalType": "uint256",
          "name": "tokenId",
          "type": "uint256"
        }
      ],
      "name": "ownerOf",
      "outputs": [
        {
          "internalType": "address",
          "name": "",
          "type": "address"
        }
      ],
      "stateMutability": "view",
      "type": "function"
    },
    {
      "inputs": [
        {
          "internalType": "bytes32",
          "name": "role",
          "type": "bytes32"
        },
        {
          "internalType": "address",
          "name": "account",
          "type": "address"
        }
      ],
      "name": "renounceRole",
      "outputs": [],
      "stateMutability": "nonpayable",
      "type": "function"
    },
    {
      "inputs": [
        {
          "internalType": "bytes32",
          "name": "role",
          "type": "bytes32"
        },
        {
          "internalType": "address",
          "name": "account",
          "type": "address"
        }
      ],
      "name": "revokeRole",
      "outputs": [],
      "stateMutability": "nonpayable",
      "type": "function"
    },
    {
      "inputs": [
        {
          "internalType": "address",
          "name": "from",
          "type": "address"
        },
        {
          "internalType": "address",
          "name": "to",
          "type": "address"
        },
        {
          "internalType": "uint256",
          "name": "tokenId",
          "type": "uint256"
        }
      ],
      "name": "safeTransferFrom",
      "outputs": [],
      "stateMutability": "nonpayable",
      "type": "function"
    },
    {
      "inputs": [
        {
          "internalType": "address",
          "name": "from",
          "type": "address"
        },
        {
          "internalType": "address",
          "name": "to",
          "type": "address"
        },
        {
          "internalType": "uint256",
          "name": "tokenId",
          "type": "uint256"
        },
        {
          "internalType": "bytes",
          "name": "_data",
          "type": "bytes"
        }
      ],
      "name": "safeTransferFrom",
      "outputs": [],
      "stateMutability": "nonpayable",
      "type": "function"
    },
    {
      "inputs": [
        {
          "internalType": "address",
          "name": "operator",
          "type": "address"
        },
        {
          "internalType": "bool",
          "name": "approved",
          "type": "bool"
        }
      ],
      "name": "setApprovalForAll",
      "outputs": [],
      "stateMutability": "nonpayable",
      "type": "function"
    },
    {
      "inputs": [
        {
          "internalType": "bytes4",
          "name": "interfaceId",
          "type": "bytes4"
        }
      ],
      "name": "supportsInterface",
      "outputs": [
        {
          "internalType": "bool",
          "name": "",
          "type": "bool"
        }
      ],
      "stateMutability": "view",
      "type": "function"
    },
    {
      "inputs": [],
      "name": "symbol",
      "outputs": [
        {
          "internalType": "string",
          "name": "",
          "type": "string"
        }
      ],
      "stateMutability": "view",
      "type": "function"
    },
    {
      "inputs": [
        {
          "internalType": "uint256",
          "name": "index",
          "type": "uint256"
        }
      ],
      "name": "tokenByIndex",
      "outputs": [
        {
          "internalType": "uint256",
          "name": "",
          "type": "uint256"
        }
      ],
      "stateMutability": "view",
      "type": "function"
    },
    {
      "inputs": [
        {
          "internalType": "address",
          "name": "owner",
          "type": "address"
        },
        {
          "internalType": "uint256",
          "name": "index",
          "type": "uint256"
        }
      ],
      "name": "tokenOfOwnerByIndex",
      "outputs": [
        {
          "internalType": "uint256",
          "name": "",
          "type": "uint256"
        }
      ],
      "stateMutability": "view",
      "type": "function"
    },
    {
      "inputs": [
        {
          "internalType": "uint256",
          "name": "tokenId",
          "type": "uint256"
        }
      ],
      "name": "tokenURI",
      "outputs": [
        {
          "internalType": "string",
          "name": "",
          "type": "string"
        }
      ],
      "stateMutability": "view",
      "type": "function"
    },
    {
      "inputs": [],
      "name": "totalSupply",
      "outputs": [
        {
          "internalType": "uint256",
          "name": "",
          "type": "uint256"
        }
      ],
      "stateMutability": "view",
      "type": "function"
    },
    {
      "inputs": [
        {
          "internalType": "address",
          "name": "from",
          "type": "address"
        },
        {
          "internalType": "address",
          "name": "to",
          "type": "address"
        },
        {
          "internalType": "uint256",
          "name": "tokenId",
          "type": "uint256"
        }
      ],
      "name": "transferFrom",
      "outputs": [],
      "stateMutability": "nonpayable",
      "type": "function"
    }
  ],
  "transactionHash": "0x390d33a4e6f869df8513ab5cc798f77cb067d61f9c2b80a92a1c40f1c0daf4c7",
  "args": [
    "ruby TestERC721",
    "rubyT721"
  ],
  "solcInputHash": "8b452c25face8f5ff6f7f9ad11ee1ea6",
  "bytecode": "0x60806040523480156200001157600080fd5b50604051620027dd380380620027dd833981810160405260408110156200003757600080fd5b81019080805160405193929190846401000000008211156200005857600080fd5b9083019060208201858111156200006e57600080fd5b82516401000000008111828201881017156200008957600080fd5b82525081516020918201929091019080838360005b83811015620000b85781810151838201526020016200009e565b50505050905090810190601f168015620000e65780820380516001836020036101000a031916815260200191505b50604052602001805160405193929190846401000000008211156200010a57600080fd5b9083019060208201858111156200012057600080fd5b82516401000000008111828201881017156200013b57600080fd5b82525081516020918201929091019080838360005b838110156200016a57818101518382015260200162000150565b50505050905090810190601f168015620001985780820380516001836020036101000a031916815260200191505b5060405250839150829050620001b56301ffc9a760e01b6200022f565b8151620001ca906007906020850190620003cb565b508051620001e0906008906020840190620003cb565b50620001f36380ac58cd60e01b6200022f565b62000205635b5e139f60e01b6200022f565b6200021763780e9d6360e01b6200022f565b50620002279050600033620002b7565b505062000467565b6001600160e01b031980821614156200028f576040805162461bcd60e51b815260206004820152601c60248201527f4552433136353a20696e76616c696420696e7465726661636520696400000000604482015290519081900360640190fd5b6001600160e01b0319166000908152600160208190526040909120805460ff19169091179055565b620002c38282620002c7565b5050565b600082815260208181526040909120620002ec9183906200118162000340821b17901c565b15620002c357620002fc62000360565b6001600160a01b0316816001600160a01b0316837f2f8788117e7eff1d82e926ec794901d17c78024a50270940304540a733656f0d60405160405180910390a45050565b600062000357836001600160a01b03841662000364565b90505b92915050565b3390565b6000620003728383620003b3565b620003aa575081546001818101845560008481526020808220909301849055845484825282860190935260409020919091556200035a565b5060006200035a565b60009081526001919091016020526040902054151590565b828054600181600116156101000203166002900490600052602060002090601f016020900481019282601f106200040e57805160ff19168380011785556200043e565b828001600101855582156200043e579182015b828111156200043e57825182559160200191906001019062000421565b506200044c92915062000450565b5090565b5b808211156200044c576000815560010162000451565b61236680620004776000396000f3fe608060405234801561001057600080fd5b50600436106101cf5760003560e01c80634f6ccce711610104578063a217fddf116100a2578063ca15c87311610071578063ca15c87314610643578063d539139314610660578063d547741f14610668578063e985e9c514610694576101cf565b8063a217fddf1461052a578063a22cb46514610532578063b88d4fde14610560578063c87b56dd14610626576101cf565b806370a08231116100de57806370a08231146104ad5780639010d07c146104d357806391d14854146104f657806395d89b4114610522576101cf565b80634f6ccce71461046b5780636352211e146104885780636c0360eb146104a5576101cf565b8063282c51f31161017157806336568abe1161014b57806336568abe146103c057806340c10f19146103ec57806342842e0e1461041857806342966c681461044e576101cf565b8063282c51f3146103605780632f2ff15d146103685780632f745c5914610394576101cf565b8063095ea7b3116101ad578063095ea7b3146102c557806318160ddd146102f357806323b872dd1461030d578063248a9ca314610343576101cf565b806301ffc9a7146101d457806306fdde031461020f578063081812fc1461028c575b600080fd5b6101fb600480360360208110156101ea57600080fd5b50356001600160e01b0319166106c2565b604080519115158252519081900360200190f35b6102176106e5565b6040805160208082528351818301528351919283929083019185019080838360005b83811015610251578181015183820152602001610239565b50505050905090810190601f16801561027e5780820380516001836020036101000a031916815260200191505b509250505060405180910390f35b6102a9600480360360208110156102a257600080fd5b503561077b565b604080516001600160a01b039092168252519081900360200190f35b6102f1600480360360408110156102db57600080fd5b506001600160a01b0381351690602001356107dd565b005b6102fb6108b8565b60408051918252519081900360200190f35b6102f16004803603606081101561032357600080fd5b506001600160a01b038135811691602081013590911690604001356108c9565b6102fb6004803603602081101561035957600080fd5b5035610920565b6102fb610935565b6102f16004803603604081101561037e57600080fd5b50803590602001356001600160a01b0316610959565b6102fb600480360360408110156103aa57600080fd5b506001600160a01b0381351690602001356109c5565b6102f1600480360360408110156103d657600080fd5b50803590602001356001600160a01b03166109f0565b6102f16004803603604081101561040257600080fd5b506001600160a01b038135169060200135610a51565b6102f16004803603606081101561042e57600080fd5b506001600160a01b03813581169160208101359091169060400135610acf565b6102f16004803603602081101561046457600080fd5b5035610aea565b6102fb6004803603602081101561048157600080fd5b5035610b3c565b6102a96004803603602081101561049e57600080fd5b5035610b52565b610217610b7a565b6102fb600480360360208110156104c357600080fd5b50356001600160a01b0316610bdb565b6102a9600480360360408110156104e957600080fd5b5080359060200135610c43565b6101fb6004803603604081101561050c57600080fd5b50803590602001356001600160a01b0316610c5b565b610217610c73565b6102fb610cd4565b6102f16004803603604081101561054857600080fd5b506001600160a01b0381351690602001351515610cd9565b6102f16004803603608081101561057657600080fd5b6001600160a01b038235811692602081013590911691604082013591908101906080810160608201356401000000008111156105b157600080fd5b8201836020820111156105c357600080fd5b803590602001918460018302840111640100000000831117156105e557600080fd5b91908080601f016020809104026020016040519081016040528093929190818152602001838380828437600092019190915250929550610dde945050505050565b6102176004803603602081101561063c57600080fd5b5035610e3c565b6102fb6004803603602081101561065957600080fd5b50356110bf565b6102fb6110d6565b6102f16004803603604081101561067e57600080fd5b50803590602001356001600160a01b03166110fa565b6101fb600480360360408110156106aa57600080fd5b506001600160a01b0381358116916020013516611153565b6001600160e01b0319811660009081526001602052604090205460ff165b919050565b60078054604080516020601f60026000196101006001881615020190951694909404938401819004810282018101909252828152606093909290918301828280156107715780601f1061074657610100808354040283529160200191610771565b820191906000526020600020905b81548152906001019060200180831161075457829003601f168201915b5050505050905090565b600061078682611196565b6107c15760405162461bcd60e51b815260040180806020018281038252602c8152602001806121fc602c913960400191505060405180910390fd5b506000908152600560205260409020546001600160a01b031690565b60006107e882610b52565b9050806001600160a01b0316836001600160a01b0316141561083b5760405162461bcd60e51b81526004018080602001828103825260218152602001806122806021913960400191505060405180910390fd5b806001600160a01b031661084d6111a3565b6001600160a01b0316148061086e575061086e816108696111a3565b611153565b6108a95760405162461bcd60e51b815260040180806020018281038252603881526020018061214f6038913960400191505060405180910390fd5b6108b383836111a7565b505050565b60006108c46003611215565b905090565b6108da6108d46111a3565b82611220565b6109155760405162461bcd60e51b81526004018080602001828103825260318152602001806122a16031913960400191505060405180910390fd5b6108b38383836112c4565b60009081526020819052604090206002015490565b7f3c11d16cbaffd01df69ce1c404f6340ee057498f5f00246190ea54220576a84881565b60008281526020819052604090206002015461097c906109776111a3565b610c5b565b6109b75760405162461bcd60e51b815260040180806020018281038252602f81526020018061206e602f913960400191505060405180910390fd5b6109c18282611410565b5050565b6001600160a01b03821660009081526002602052604081206109e79083611479565b90505b92915050565b6109f86111a3565b6001600160a01b0316816001600160a01b031614610a475760405162461bcd60e51b815260040180806020018281038252602f815260200180612302602f913960400191505060405180910390fd5b6109c18282611485565b610a7b7f9f2df0fed2c77648de5860a4cc508cd0818c85b8b8a1ab4ceeef8d981c8956a633610c5b565b610ac5576040805162461bcd60e51b815260206004820152601660248201527521b0b63632b91034b9903737ba10309036b4b73a32b960511b604482015290519081900360640190fd5b6109c182826114ee565b6108b383838360405180602001604052806000815250610dde565b610af56108d46111a3565b610b305760405162461bcd60e51b81526004018080602001828103825260308152602001806122d26030913960400191505060405180910390fd5b610b398161161c565b50565b600080610b4a6003846116e9565b509392505050565b60006109ea826040518060600160405280602981526020016121b16029913960039190611705565b600a8054604080516020601f60026000196101006001881615020190951694909404938401819004810282018101909252828152606093909290918301828280156107715780601f1061074657610100808354040283529160200191610771565b60006001600160a01b038216610c225760405162461bcd60e51b815260040180806020018281038252602a815260200180612187602a913960400191505060405180910390fd5b6001600160a01b03821660009081526002602052604090206109ea90611215565b60008281526020819052604081206109e79083611479565b60008281526020819052604081206109e7908361171c565b60088054604080516020601f60026000196101006001881615020190951694909404938401819004810282018101909252828152606093909290918301828280156107715780601f1061074657610100808354040283529160200191610771565b600081565b610ce16111a3565b6001600160a01b0316826001600160a01b03161415610d47576040805162461bcd60e51b815260206004820152601960248201527f4552433732313a20617070726f766520746f2063616c6c657200000000000000604482015290519081900360640190fd5b8060066000610d546111a3565b6001600160a01b03908116825260208083019390935260409182016000908120918716808252919093529120805460ff191692151592909217909155610d986111a3565b6001600160a01b03167f17307eab39ab6107e8899845ad3d59bd9653f200f220920489ca2b5937696c318360405180821515815260200191505060405180910390a35050565b610def610de96111a3565b83611220565b610e2a5760405162461bcd60e51b81526004018080602001828103825260318152602001806122a16031913960400191505060405180910390fd5b610e3684848484611731565b50505050565b6060610e4782611196565b610e825760405162461bcd60e51b815260040180806020018281038252602f815260200180612251602f913960400191505060405180910390fd5b60008281526009602090815260409182902080548351601f6002600019610100600186161502019093169290920491820184900484028101840190945280845260609392830182828015610f175780601f10610eec57610100808354040283529160200191610f17565b820191906000526020600020905b815481529060010190602001808311610efa57829003601f168201915b505050505090506060610f28610b7a565b9050805160001415610f3c575090506106e0565b815115610ffd5780826040516020018083805190602001908083835b60208310610f775780518252601f199092019160209182019101610f58565b51815160209384036101000a600019018019909216911617905285519190930192850191508083835b60208310610fbf5780518252601f199092019160209182019101610fa0565b6001836020036101000a03801982511681845116808217855250505050505090500192505050604051602081830303815290604052925050506106e0565b8061100785611783565b6040516020018083805190602001908083835b602083106110395780518252601f19909201916020918201910161101a565b51815160209384036101000a600019018019909216911617905285519190930192850191508083835b602083106110815780518252601f199092019160209182019101611062565b6001836020036101000a0380198251168184511680821785525050505050509050019250505060405160208183030381529060405292505050919050565b60008181526020819052604081206109ea90611215565b7f9f2df0fed2c77648de5860a4cc508cd0818c85b8b8a1ab4ceeef8d981c8956a681565b600082815260208190526040902060020154611118906109776111a3565b610a475760405162461bcd60e51b815260040180806020018281038252603081526020018061211f6030913960400191505060405180910390fd5b6001600160a01b03918216600090815260066020908152604080832093909416825291909152205460ff1690565b60006109e7836001600160a01b03841661185e565b60006109ea6003836118a8565b3390565b600081815260056020526040902080546001600160a01b0319166001600160a01b03841690811790915581906111dc82610b52565b6001600160a01b03167f8c5be1e5ebec7d5bd14f71427d1e84f3dd0314c0f7b2291e5b200ac8c7c3b92560405160405180910390a45050565b60006109ea826118b4565b600061122b82611196565b6112665760405162461bcd60e51b815260040180806020018281038252602c8152602001806120f3602c913960400191505060405180910390fd5b600061127183610b52565b9050806001600160a01b0316846001600160a01b031614806112ac5750836001600160a01b03166112a18461077b565b6001600160a01b0316145b806112bc57506112bc8185611153565b949350505050565b826001600160a01b03166112d782610b52565b6001600160a01b03161461131c5760405162461bcd60e51b81526004018080602001828103825260298152602001806122286029913960400191505060405180910390fd5b6001600160a01b0382166113615760405162461bcd60e51b81526004018080602001828103825260248152602001806120cf6024913960400191505060405180910390fd5b61136c8383836108b3565b6113776000826111a7565b6001600160a01b038316600090815260026020526040902061139990826118b8565b506001600160a01b03821660009081526002602052604090206113bc90826118c4565b506113c9600382846118d0565b5080826001600160a01b0316846001600160a01b03167fddf252ad1be2c89b69c2b068fc378daa952ba7f163c4a11628f55a4df523b3ef60405160405180910390a4505050565b60008281526020819052604090206114289082611181565b156109c1576114356111a3565b6001600160a01b0316816001600160a01b0316837f2f8788117e7eff1d82e926ec794901d17c78024a50270940304540a733656f0d60405160405180910390a45050565b60006109e783836118e6565b600082815260208190526040902061149d908261194a565b156109c1576114aa6111a3565b6001600160a01b0316816001600160a01b0316837ff6391f5c32d9c69d2a47ea670b442974b53935d1edc7fd64eb21e047a839171b60405160405180910390a45050565b6001600160a01b038216611549576040805162461bcd60e51b815260206004820181905260248201527f4552433732313a206d696e7420746f20746865207a65726f2061646472657373604482015290519081900360640190fd5b61155281611196565b156115a4576040805162461bcd60e51b815260206004820152601c60248201527f4552433732313a20746f6b656e20616c7265616479206d696e74656400000000604482015290519081900360640190fd5b6115b0600083836108b3565b6001600160a01b03821660009081526002602052604090206115d290826118c4565b506115df600382846118d0565b5060405181906001600160a01b038416906000907fddf252ad1be2c89b69c2b068fc378daa952ba7f163c4a11628f55a4df523b3ef908290a45050565b600061162782610b52565b9050611635816000846108b3565b6116406000836111a7565b600082815260096020526040902054600260001961010060018416150201909116041561167e57600082815260096020526040812061167e91611ff3565b6001600160a01b03811660009081526002602052604090206116a090836118b8565b506116ac60038361195f565b5060405182906000906001600160a01b038416907fddf252ad1be2c89b69c2b068fc378daa952ba7f163c4a11628f55a4df523b3ef908390a45050565b60008080806116f8868661196b565b9097909650945050505050565b60006117128484846119e6565b90505b9392505050565b60006109e7836001600160a01b038416611ab0565b61173c8484846112c4565b61174884848484611ac8565b610e365760405162461bcd60e51b815260040180806020018281038252603281526020018061209d6032913960400191505060405180910390fd5b6060816117a857506040805180820190915260018152600360fc1b60208201526106e0565b8160005b81156117c057600101600a820491506117ac565b60608167ffffffffffffffff811180156117d957600080fd5b506040519080825280601f01601f191660200182016040528015611804576020820181803683370190505b50859350905060001982015b831561185557600a840660300160f81b8282806001900393508151811061183357fe5b60200101906001600160f81b031916908160001a905350600a84049350611810565b50949350505050565b600061186a8383611ab0565b6118a0575081546001818101845560008481526020808220909301849055845484825282860190935260409020919091556109ea565b5060006109ea565b60006109e78383611ab0565b5490565b60006109e78383611c30565b60006109e7838361185e565b600061171284846001600160a01b038516611cf6565b815460009082106119285760405162461bcd60e51b815260040180806020018281038252602281526020018061204c6022913960400191505060405180910390fd5b82600001828154811061193757fe5b9060005260206000200154905092915050565b60006109e7836001600160a01b038416611c30565b60006109e78383611d8d565b8154600090819083106119af5760405162461bcd60e51b81526004018080602001828103825260228152602001806121da6022913960400191505060405180910390fd5b60008460000184815481106119c057fe5b906000526020600020906002020190508060000154816001015492509250509250929050565b60008281526001840160205260408120548281611a815760405162461bcd60e51b81526004018080602001828103825283818151815260200191508051906020019080838360005b83811015611a46578181015183820152602001611a2e565b50505050905090810190601f168015611a735780820380516001836020036101000a031916815260200191505b509250505060405180910390fd5b50846000016001820381548110611a9457fe5b9060005260206000209060020201600101549150509392505050565b60009081526001919091016020526040902054151590565b6000611adc846001600160a01b0316611e61565b611ae8575060016112bc565b6060611bf6630a85bd0160e11b611afd6111a3565b88878760405160240180856001600160a01b03168152602001846001600160a01b0316815260200183815260200180602001828103825283818151815260200191508051906020019080838360005b83811015611b64578181015183820152602001611b4c565b50505050905090810190601f168015611b915780820380516001836020036101000a031916815260200191505b5095505050505050604051602081830303815290604052906001600160e01b0319166020820180516001600160e01b03838183161783525050505060405180606001604052806032815260200161209d603291396001600160a01b0388169190611e67565b90506000818060200190516020811015611c0f57600080fd5b50516001600160e01b031916630a85bd0160e11b1492505050949350505050565b60008181526001830160205260408120548015611cec5783546000198083019190810190600090879083908110611c6357fe5b9060005260206000200154905080876000018481548110611c8057fe5b600091825260208083209091019290925582815260018981019092526040902090840190558654879080611cb057fe5b600190038181906000526020600020016000905590558660010160008781526020019081526020016000206000905560019450505050506109ea565b60009150506109ea565b600082815260018401602052604081205480611d5b575050604080518082018252838152602080820184815286546001818101895560008981528481209551600290930290950191825591519082015586548684528188019092529290912055611715565b82856000016001830381548110611d6e57fe5b9060005260206000209060020201600101819055506000915050611715565b60008181526001830160205260408120548015611cec5783546000198083019190810190600090879083908110611dc057fe5b9060005260206000209060020201905080876000018481548110611de057fe5b600091825260208083208454600290930201918255600193840154918401919091558354825289830190526040902090840190558654879080611e1f57fe5b60008281526020808220600260001990940193840201828155600190810183905592909355888152898201909252604082209190915594506109ea9350505050565b3b151590565b6060611712848460008585611e7b85611e61565b611ecc576040805162461bcd60e51b815260206004820152601d60248201527f416464726573733a2063616c6c20746f206e6f6e2d636f6e7472616374000000604482015290519081900360640190fd5b60006060866001600160a01b031685876040518082805190602001908083835b60208310611f0b5780518252601f199092019160209182019101611eec565b6001836020036101000a03801982511681845116808217855250505050505090500191505060006040518083038185875af1925050503d8060008114611f6d576040519150601f19603f3d011682016040523d82523d6000602084013e611f72565b606091505b5091509150611f82828286611f8d565b979650505050505050565b60608315611f9c575081611715565b825115611fac5782518084602001fd5b60405162461bcd60e51b8152602060048201818152845160248401528451859391928392604401919085019080838360008315611a46578181015183820152602001611a2e565b50805460018160011615610100020316600290046000825580601f106120195750610b39565b601f016020900490600052602060002090810190610b3991905b808211156120475760008155600101612033565b509056fe456e756d657261626c655365743a20696e646578206f7574206f6620626f756e6473416363657373436f6e74726f6c3a2073656e646572206d75737420626520616e2061646d696e20746f206772616e744552433732313a207472616e7366657220746f206e6f6e20455243373231526563656976657220696d706c656d656e7465724552433732313a207472616e7366657220746f20746865207a65726f20616464726573734552433732313a206f70657261746f7220717565727920666f72206e6f6e6578697374656e7420746f6b656e416363657373436f6e74726f6c3a2073656e646572206d75737420626520616e2061646d696e20746f207265766f6b654552433732313a20617070726f76652063616c6c6572206973206e6f74206f776e6572206e6f7220617070726f76656420666f7220616c6c4552433732313a2062616c616e636520717565727920666f7220746865207a65726f20616464726573734552433732313a206f776e657220717565727920666f72206e6f6e6578697374656e7420746f6b656e456e756d657261626c654d61703a20696e646578206f7574206f6620626f756e64734552433732313a20617070726f76656420717565727920666f72206e6f6e6578697374656e7420746f6b656e4552433732313a207472616e73666572206f6620746f6b656e2074686174206973206e6f74206f776e4552433732314d657461646174613a2055524920717565727920666f72206e6f6e6578697374656e7420746f6b656e4552433732313a20617070726f76616c20746f2063757272656e74206f776e65724552433732313a207472616e736665722063616c6c6572206973206e6f74206f776e6572206e6f7220617070726f7665644552433732314275726e61626c653a2063616c6c6572206973206e6f74206f776e6572206e6f7220617070726f766564416363657373436f6e74726f6c3a2063616e206f6e6c792072656e6f756e636520726f6c657320666f722073656c66a264697066735822122002f97a223cda7cfaa8f7507c4a8ed2809abaee29a91f24faf483b3a28e1084c164736f6c634300060c0033",
  "devdoc": {
    "kind": "dev",
    "methods": {
      "approve(address,uint256)": {
        "details": "See {IERC721-approve}."
      },
      "balanceOf(address)": {
        "details": "See {IERC721-balanceOf}."
      },
      "baseURI()": {
        "details": "Returns the base URI set via {_setBaseURI}. This will be automatically added as a prefix in {tokenURI} to each token's URI, or to the token ID if no specific URI is set for that token ID."
      },
      "burn(uint256)": {
        "details": "Burns `tokenId`. See {ERC721-_burn}. Requirements: - The caller must own `tokenId` or be an approved operator."
      },
      "getApproved(uint256)": {
        "details": "See {IERC721-getApproved}."
      },
      "getRoleAdmin(bytes32)": {
        "details": "Returns the admin role that controls `role`. See {grantRole} and {revokeRole}. To change a role's admin, use {_setRoleAdmin}."
      },
      "getRoleMember(bytes32,uint256)": {
        "details": "Returns one of the accounts that have `role`. `index` must be a value between 0 and {getRoleMemberCount}, non-inclusive. Role bearers are not sorted in any particular way, and their ordering may change at any point. WARNING: When using {getRoleMember} and {getRoleMemberCount}, make sure you perform all queries on the same block. See the following https://forum.openzeppelin.com/t/iterating-over-elements-on-enumerableset-in-openzeppelin-contracts/2296[forum post] for more information."
      },
      "getRoleMemberCount(bytes32)": {
        "details": "Returns the number of accounts that have `role`. Can be used together with {getRoleMember} to enumerate all bearers of a role."
      },
      "grantRole(bytes32,address)": {
        "details": "Grants `role` to `account`. If `account` had not been already granted `role`, emits a {RoleGranted} event. Requirements: - the caller must have ``role``'s admin role."
      },
      "hasRole(bytes32,address)": {
        "details": "Returns `true` if `account` has been granted `role`."
      },
      "isApprovedForAll(address,address)": {
        "details": "See {IERC721-isApprovedForAll}."
      },
      "name()": {
        "details": "See {IERC721Metadata-name}."
      },
      "ownerOf(uint256)": {
        "details": "See {IERC721-ownerOf}."
      },
      "renounceRole(bytes32,address)": {
        "details": "Revokes `role` from the calling account. Roles are often managed via {grantRole} and {revokeRole}: this function's purpose is to provide a mechanism for accounts to lose their privileges if they are compromised (such as when a trusted device is misplaced). If the calling account had been granted `role`, emits a {RoleRevoked} event. Requirements: - the caller must be `account`."
      },
      "revokeRole(bytes32,address)": {
        "details": "Revokes `role` from `account`. If `account` had been granted `role`, emits a {RoleRevoked} event. Requirements: - the caller must have ``role``'s admin role."
      },
      "safeTransferFrom(address,address,uint256)": {
        "details": "See {IERC721-safeTransferFrom}."
      },
      "safeTransferFrom(address,address,uint256,bytes)": {
        "details": "See {IERC721-safeTransferFrom}."
      },
      "setApprovalForAll(address,bool)": {
        "details": "See {IERC721-setApprovalForAll}."
      },
      "supportsInterface(bytes4)": {
        "details": "See {IERC165-supportsInterface}. Time complexity O(1), guaranteed to always use less than 30 000 gas."
      },
      "symbol()": {
        "details": "See {IERC721Metadata-symbol}."
      },
      "tokenByIndex(uint256)": {
        "details": "See {IERC721Enumerable-tokenByIndex}."
      },
      "tokenOfOwnerByIndex(address,uint256)": {
        "details": "See {IERC721Enumerable-tokenOfOwnerByIndex}."
      },
      "tokenURI(uint256)": {
        "details": "See {IERC721Metadata-tokenURI}."
      },
      "totalSupply()": {
        "details": "See {IERC721Enumerable-totalSupply}."
      },
      "transferFrom(address,address,uint256)": {
        "details": "See {IERC721-transferFrom}."
      }
    },
    "version": 1
  },
  "userdoc": {
    "kind": "user",
    "methods": {},
    "version": 1
  },
  "storageLayout": {
    "storage": [
      {
        "astId": 22,
        "contract": "contracts/SkaleMappedERC721Token.sol:SkaleMappedERC721Token",
        "label": "_roles",
        "offset": 0,
        "slot": "0",
        "type": "t_mapping(t_bytes32,t_struct(RoleData)18_storage)"
      },
      {
        "astId": 406,
        "contract": "contracts/SkaleMappedERC721Token.sol:SkaleMappedERC721Token",
        "label": "_supportedInterfaces",
        "offset": 0,
        "slot": "1",
        "type": "t_mapping(t_bytes4,t_bool)"
      },
      {
        "astId": 1656,
        "contract": "contracts/SkaleMappedERC721Token.sol:SkaleMappedERC721Token",
        "label": "_holderTokens",
        "offset": 0,
        "slot": "2",
        "type": "t_mapping(t_address,t_struct(UintSet)4102_storage)"
      },
      {
        "astId": 1658,
        "contract": "contracts/SkaleMappedERC721Token.sol:SkaleMappedERC721Token",
        "label": "_tokenOwners",
        "offset": 0,
        "slot": "3",
        "type": "t_struct(UintToAddressMap)3479_storage"
      },
      {
        "astId": 1662,
        "contract": "contracts/SkaleMappedERC721Token.sol:SkaleMappedERC721Token",
        "label": "_tokenApprovals",
        "offset": 0,
        "slot": "5",
        "type": "t_mapping(t_uint256,t_address)"
      },
      {
        "astId": 1668,
        "contract": "contracts/SkaleMappedERC721Token.sol:SkaleMappedERC721Token",
        "label": "_operatorApprovals",
        "offset": 0,
        "slot": "6",
        "type": "t_mapping(t_address,t_mapping(t_address,t_bool))"
      },
      {
        "astId": 1670,
        "contract": "contracts/SkaleMappedERC721Token.sol:SkaleMappedERC721Token",
        "label": "_name",
        "offset": 0,
        "slot": "7",
        "type": "t_string_storage"
      },
      {
        "astId": 1672,
        "contract": "contracts/SkaleMappedERC721Token.sol:SkaleMappedERC721Token",
        "label": "_symbol",
        "offset": 0,
        "slot": "8",
        "type": "t_string_storage"
      },
      {
        "astId": 1676,
        "contract": "contracts/SkaleMappedERC721Token.sol:SkaleMappedERC721Token",
        "label": "_tokenURIs",
        "offset": 0,
        "slot": "9",
        "type": "t_mapping(t_uint256,t_string_storage)"
      },
      {
        "astId": 1678,
        "contract": "contracts/SkaleMappedERC721Token.sol:SkaleMappedERC721Token",
        "label": "_baseURI",
        "offset": 0,
        "slot": "10",
        "type": "t_string_storage"
      }
    ],
    "types": {
      "t_address": {
        "encoding": "inplace",
        "label": "address",
        "numberOfBytes": "20"
      },
      "t_array(t_bytes32)dyn_storage": {
        "base": "t_bytes32",
        "encoding": "dynamic_array",
        "label": "bytes32[]",
        "numberOfBytes": "32"
      },
      "t_array(t_struct(MapEntry)3153_storage)dyn_storage": {
        "base": "t_struct(MapEntry)3153_storage",
        "encoding": "dynamic_array",
        "label": "struct EnumerableMap.MapEntry[]",
        "numberOfBytes": "32"
      },
      "t_bool": {
        "encoding": "inplace",
        "label": "bool",
        "numberOfBytes": "1"
      },
      "t_bytes32": {
        "encoding": "inplace",
        "label": "bytes32",
        "numberOfBytes": "32"
      },
      "t_bytes4": {
        "encoding": "inplace",
        "label": "bytes4",
        "numberOfBytes": "4"
      },
      "t_mapping(t_address,t_bool)": {
        "encoding": "mapping",
        "key": "t_address",
        "label": "mapping(address => bool)",
        "numberOfBytes": "32",
        "value": "t_bool"
      },
      "t_mapping(t_address,t_mapping(t_address,t_bool))": {
        "encoding": "mapping",
        "key": "t_address",
        "label": "mapping(address => mapping(address => bool))",
        "numberOfBytes": "32",
        "value": "t_mapping(t_address,t_bool)"
      },
      "t_mapping(t_address,t_struct(UintSet)4102_storage)": {
        "encoding": "mapping",
        "key": "t_address",
        "label": "mapping(address => struct EnumerableSet.UintSet)",
        "numberOfBytes": "32",
        "value": "t_struct(UintSet)4102_storage"
      },
      "t_mapping(t_bytes32,t_struct(RoleData)18_storage)": {
        "encoding": "mapping",
        "key": "t_bytes32",
        "label": "mapping(bytes32 => struct AccessControl.RoleData)",
        "numberOfBytes": "32",
        "value": "t_struct(RoleData)18_storage"
      },
      "t_mapping(t_bytes32,t_uint256)": {
        "encoding": "mapping",
        "key": "t_bytes32",
        "label": "mapping(bytes32 => uint256)",
        "numberOfBytes": "32",
        "value": "t_uint256"
      },
      "t_mapping(t_bytes4,t_bool)": {
        "encoding": "mapping",
        "key": "t_bytes4",
        "label": "mapping(bytes4 => bool)",
        "numberOfBytes": "32",
        "value": "t_bool"
      },
      "t_mapping(t_uint256,t_address)": {
        "encoding": "mapping",
        "key": "t_uint256",
        "label": "mapping(uint256 => address)",
        "numberOfBytes": "32",
        "value": "t_address"
      },
      "t_mapping(t_uint256,t_string_storage)": {
        "encoding": "mapping",
        "key": "t_uint256",
        "label": "mapping(uint256 => string)",
        "numberOfBytes": "32",
        "value": "t_string_storage"
      },
      "t_string_storage": {
        "encoding": "bytes",
        "label": "string",
        "numberOfBytes": "32"
      },
      "t_struct(AddressSet)3981_storage": {
        "encoding": "inplace",
        "label": "struct EnumerableSet.AddressSet",
        "members": [
          {
            "astId": 3980,
            "contract": "contracts/SkaleMappedERC721Token.sol:SkaleMappedERC721Token",
            "label": "_inner",
            "offset": 0,
            "slot": "0",
            "type": "t_struct(Set)3716_storage"
          }
        ],
        "numberOfBytes": "64"
      },
      "t_struct(Map)3161_storage": {
        "encoding": "inplace",
        "label": "struct EnumerableMap.Map",
        "members": [
          {
            "astId": 3156,
            "contract": "contracts/SkaleMappedERC721Token.sol:SkaleMappedERC721Token",
            "label": "_entries",
            "offset": 0,
            "slot": "0",
            "type": "t_array(t_struct(MapEntry)3153_storage)dyn_storage"
          },
          {
            "astId": 3160,
            "contract": "contracts/SkaleMappedERC721Token.sol:SkaleMappedERC721Token",
            "label": "_indexes",
            "offset": 0,
            "slot": "1",
            "type": "t_mapping(t_bytes32,t_uint256)"
          }
        ],
        "numberOfBytes": "64"
      },
      "t_struct(MapEntry)3153_storage": {
        "encoding": "inplace",
        "label": "struct EnumerableMap.MapEntry",
        "members": [
          {
            "astId": 3150,
            "contract": "contracts/SkaleMappedERC721Token.sol:SkaleMappedERC721Token",
            "label": "_key",
            "offset": 0,
            "slot": "0",
            "type": "t_bytes32"
          },
          {
            "astId": 3152,
            "contract": "contracts/SkaleMappedERC721Token.sol:SkaleMappedERC721Token",
            "label": "_value",
            "offset": 0,
            "slot": "1",
            "type": "t_bytes32"
          }
        ],
        "numberOfBytes": "64"
      },
      "t_struct(RoleData)18_storage": {
        "encoding": "inplace",
        "label": "struct AccessControl.RoleData",
        "members": [
          {
            "astId": 15,
            "contract": "contracts/SkaleMappedERC721Token.sol:SkaleMappedERC721Token",
            "label": "members",
            "offset": 0,
            "slot": "0",
            "type": "t_struct(AddressSet)3981_storage"
          },
          {
            "astId": 17,
            "contract": "contracts/SkaleMappedERC721Token.sol:SkaleMappedERC721Token",
            "label": "adminRole",
            "offset": 0,
            "slot": "2",
            "type": "t_bytes32"
          }
        ],
        "numberOfBytes": "96"
      },
      "t_struct(Set)3716_storage": {
        "encoding": "inplace",
        "label": "struct EnumerableSet.Set",
        "members": [
          {
            "astId": 3711,
            "contract": "contracts/SkaleMappedERC721Token.sol:SkaleMappedERC721Token",
            "label": "_values",
            "offset": 0,
            "slot": "0",
            "type": "t_array(t_bytes32)dyn_storage"
          },
          {
            "astId": 3715,
            "contract": "contracts/SkaleMappedERC721Token.sol:SkaleMappedERC721Token",
            "label": "_indexes",
            "offset": 0,
            "slot": "1",
            "type": "t_mapping(t_bytes32,t_uint256)"
          }
        ],
        "numberOfBytes": "64"
      },
      "t_struct(UintSet)4102_storage": {
        "encoding": "inplace",
        "label": "struct EnumerableSet.UintSet",
        "members": [
          {
            "astId": 4101,
            "contract": "contracts/SkaleMappedERC721Token.sol:SkaleMappedERC721Token",
            "label": "_inner",
            "offset": 0,
            "slot": "0",
            "type": "t_struct(Set)3716_storage"
          }
        ],
        "numberOfBytes": "64"
      },
      "t_struct(UintToAddressMap)3479_storage": {
        "encoding": "inplace",
        "label": "struct EnumerableMap.UintToAddressMap",
        "members": [
          {
            "astId": 3478,
            "contract": "contracts/SkaleMappedERC721Token.sol:SkaleMappedERC721Token",
            "label": "_inner",
            "offset": 0,
            "slot": "0",
            "type": "t_struct(Map)3161_storage"
          }
        ],
        "numberOfBytes": "64"
      },
      "t_uint256": {
        "encoding": "inplace",
        "label": "uint256",
        "numberOfBytes": "32"
      }
    }
  }
}