{
  "address": "0x2429b395445ef2fC288B54C572831a35C75c7364",
  "abi": [
    {
      "inputs": [
        {
          "internalType": "address",
          "name": "_factory",
          "type": "address"
        }
      ],
      "stateMutability": "nonpayable",
      "type": "constructor"
    },
    {
      "inputs": [
        {
          "internalType": "address",
          "name": "tokenA",
          "type": "address"
        },
        {
          "internalType": "address",
          "name": "tokenB",
          "type": "address"
        },
        {
          "internalType": "uint256",
          "name": "amountADesired",
          "type": "uint256"
        },
        {
          "internalType": "uint256",
          "name": "amountBDesired",
          "type": "uint256"
        },
        {
          "internalType": "uint256",
          "name": "amountAMin",
          "type": "uint256"
        },
        {
          "internalType": "uint256",
          "name": "amountBMin",
          "type": "uint256"
        },
        {
          "internalType": "address",
          "name": "to",
          "type": "address"
        },
        {
          "internalType": "uint256",
          "name": "deadline",
          "type": "uint256"
        }
      ],
      "name": "addLiquidity",
      "outputs": [
        {
          "internalType": "uint256",
          "name": "amountA",
          "type": "uint256"
        },
        {
          "internalType": "uint256",
          "name": "amountB",
          "type": "uint256"
        },
        {
          "internalType": "uint256",
          "name": "liquidity",
          "type": "uint256"
        }
      ],
      "stateMutability": "nonpayable",
      "type": "function"
    },
    {
      "inputs": [],
      "name": "factory",
      "outputs": [
        {
          "internalType": "address",
          "name": "",
          "type": "address"
        }
      ],
      "stateMutability": "view",
      "type": "function"
    },
    {
      "inputs": [
        {
          "internalType": "uint256",
          "name": "amountOut",
          "type": "uint256"
        },
        {
          "internalType": "uint256",
          "name": "reserveIn",
          "type": "uint256"
        },
        {
          "internalType": "uint256",
          "name": "reserveOut",
          "type": "uint256"
        }
      ],
      "name": "getAmountIn",
      "outputs": [
        {
          "internalType": "uint256",
          "name": "amountIn",
          "type": "uint256"
        }
      ],
      "stateMutability": "pure",
      "type": "function"
    },
    {
      "inputs": [
        {
          "internalType": "uint256",
          "name": "amountIn",
          "type": "uint256"
        },
        {
          "internalType": "uint256",
          "name": "reserveIn",
          "type": "uint256"
        },
        {
          "internalType": "uint256",
          "name": "reserveOut",
          "type": "uint256"
        }
      ],
      "name": "getAmountOut",
      "outputs": [
        {
          "internalType": "uint256",
          "name": "amountOut",
          "type": "uint256"
        }
      ],
      "stateMutability": "pure",
      "type": "function"
    },
    {
      "inputs": [
        {
          "internalType": "uint256",
          "name": "amountOut",
          "type": "uint256"
        },
        {
          "internalType": "address[]",
          "name": "path",
          "type": "address[]"
        }
      ],
      "name": "getAmountsIn",
      "outputs": [
        {
          "internalType": "uint256[]",
          "name": "amounts",
          "type": "uint256[]"
        }
      ],
      "stateMutability": "view",
      "type": "function"
    },
    {
      "inputs": [
        {
          "internalType": "uint256",
          "name": "amountIn",
          "type": "uint256"
        },
        {
          "internalType": "address[]",
          "name": "path",
          "type": "address[]"
        }
      ],
      "name": "getAmountsOut",
      "outputs": [
        {
          "internalType": "uint256[]",
          "name": "amounts",
          "type": "uint256[]"
        }
      ],
      "stateMutability": "view",
      "type": "function"
    },
    {
      "inputs": [
        {
          "internalType": "uint256",
          "name": "amountA",
          "type": "uint256"
        },
        {
          "internalType": "uint256",
          "name": "reserveA",
          "type": "uint256"
        },
        {
          "internalType": "uint256",
          "name": "reserveB",
          "type": "uint256"
        }
      ],
      "name": "quote",
      "outputs": [
        {
          "internalType": "uint256",
          "name": "amountB",
          "type": "uint256"
        }
      ],
      "stateMutability": "pure",
      "type": "function"
    },
    {
      "inputs": [
        {
          "internalType": "address",
          "name": "tokenA",
          "type": "address"
        },
        {
          "internalType": "address",
          "name": "tokenB",
          "type": "address"
        },
        {
          "internalType": "uint256",
          "name": "liquidity",
          "type": "uint256"
        },
        {
          "internalType": "uint256",
          "name": "amountAMin",
          "type": "uint256"
        },
        {
          "internalType": "uint256",
          "name": "amountBMin",
          "type": "uint256"
        },
        {
          "internalType": "address",
          "name": "to",
          "type": "address"
        },
        {
          "internalType": "uint256",
          "name": "deadline",
          "type": "uint256"
        }
      ],
      "name": "removeLiquidity",
      "outputs": [
        {
          "internalType": "uint256",
          "name": "amountA",
          "type": "uint256"
        },
        {
          "internalType": "uint256",
          "name": "amountB",
          "type": "uint256"
        }
      ],
      "stateMutability": "nonpayable",
      "type": "function"
    },
    {
      "inputs": [
        {
          "internalType": "address",
          "name": "tokenA",
          "type": "address"
        },
        {
          "internalType": "address",
          "name": "tokenB",
          "type": "address"
        },
        {
          "internalType": "uint256",
          "name": "liquidity",
          "type": "uint256"
        },
        {
          "internalType": "uint256",
          "name": "amountAMin",
          "type": "uint256"
        },
        {
          "internalType": "uint256",
          "name": "amountBMin",
          "type": "uint256"
        },
        {
          "internalType": "address",
          "name": "to",
          "type": "address"
        },
        {
          "internalType": "uint256",
          "name": "deadline",
          "type": "uint256"
        },
        {
          "internalType": "bool",
          "name": "approveMax",
          "type": "bool"
        },
        {
          "internalType": "uint8",
          "name": "v",
          "type": "uint8"
        },
        {
          "internalType": "bytes32",
          "name": "r",
          "type": "bytes32"
        },
        {
          "internalType": "bytes32",
          "name": "s",
          "type": "bytes32"
        }
      ],
      "name": "removeLiquidityWithPermit",
      "outputs": [
        {
          "internalType": "uint256",
          "name": "amountA",
          "type": "uint256"
        },
        {
          "internalType": "uint256",
          "name": "amountB",
          "type": "uint256"
        }
      ],
      "stateMutability": "nonpayable",
      "type": "function"
    },
    {
      "inputs": [
        {
          "internalType": "uint256",
          "name": "amountIn",
          "type": "uint256"
        },
        {
          "internalType": "uint256",
          "name": "amountOutMin",
          "type": "uint256"
        },
        {
          "internalType": "address[]",
          "name": "path",
          "type": "address[]"
        },
        {
          "internalType": "address",
          "name": "to",
          "type": "address"
        },
        {
          "internalType": "uint256",
          "name": "deadline",
          "type": "uint256"
        }
      ],
      "name": "swapExactTokensForTokens",
      "outputs": [
        {
          "internalType": "uint256[]",
          "name": "amounts",
          "type": "uint256[]"
        }
      ],
      "stateMutability": "nonpayable",
      "type": "function"
    },
    {
      "inputs": [
        {
          "internalType": "uint256",
          "name": "amountIn",
          "type": "uint256"
        },
        {
          "internalType": "uint256",
          "name": "amountOutMin",
          "type": "uint256"
        },
        {
          "internalType": "address[]",
          "name": "path",
          "type": "address[]"
        },
        {
          "internalType": "address",
          "name": "to",
          "type": "address"
        },
        {
          "internalType": "uint256",
          "name": "deadline",
          "type": "uint256"
        }
      ],
      "name": "swapExactTokensForTokensSupportingFeeOnTransferTokens",
      "outputs": [],
      "stateMutability": "nonpayable",
      "type": "function"
    },
    {
      "inputs": [
        {
          "internalType": "uint256",
          "name": "amountOut",
          "type": "uint256"
        },
        {
          "internalType": "uint256",
          "name": "amountInMax",
          "type": "uint256"
        },
        {
          "internalType": "address[]",
          "name": "path",
          "type": "address[]"
        },
        {
          "internalType": "address",
          "name": "to",
          "type": "address"
        },
        {
          "internalType": "uint256",
          "name": "deadline",
          "type": "uint256"
        }
      ],
      "name": "swapTokensForExactTokens",
      "outputs": [
        {
          "internalType": "uint256[]",
          "name": "amounts",
          "type": "uint256[]"
        }
      ],
      "stateMutability": "nonpayable",
      "type": "function"
    }
  ],
  "transactionHash": "0x99ad07fe0f076c5f242ab82c4930a49175ba19a21b308a96e45e5d762fc2338c",
  "args": [
    "0x16094F5E00e8bcA67e6a015A426c618ecCa5109d"
  ],
  "solcInputHash": "8b75ed266f40e6abf4518ee2f1992b99",
  "bytecode": "0x60a060405234801561001057600080fd5b506040516125803803806125808339818101604052602081101561003357600080fd5b5051606081901b6001600160601b0319166080526001600160a01b03166124c46100bc6000398061061052806106495280610784528061085b52806109875280610bf25280610cfb5280610ef35280610f1c5280610fa5528061169d52806116e0528061188252806119f85280611dee5280611ea95280611f80528061203452506124c46000f3fe608060405234801561001057600080fd5b50600436106100b45760003560e01c80638803dbee116100715780638803dbee146103b3578063ad615dec1461043c578063baa2abde14610465578063c45a0155146104b5578063d06ca61f146104d9578063e8e3370014610581576100b4565b8063054d50d4146100b95780631f00ca74146100f45780632195995c146101ec57806338ed1739146102765780635c11d795146102ff57806385f8c2591461038a575b600080fd5b6100e2600480360360608110156100cf57600080fd5b50803590602081013590604001356105f4565b60408051918252519081900360200190f35b61019c6004803603604081101561010a57600080fd5b81359190810190604081016020820135600160201b81111561012b57600080fd5b82018360208201111561013d57600080fd5b803590602001918460208302840111600160201b8311171561015e57600080fd5b919080806020026020016040519081016040528093929190818152602001838360200280828437600092019190915250929550610609945050505050565b60408051602080825283518183015283519192839290830191858101910280838360005b838110156101d85781810151838201526020016101c0565b505050509050019250505060405180910390f35b61025d600480360361016081101561020357600080fd5b506001600160a01b038135811691602081013582169160408201359160608101359160808201359160a08101359091169060c08101359060e081013515159060ff610100820135169061012081013590610140013561063f565b6040805192835260208301919091528051918290030190f35b61019c600480360360a081101561028c57600080fd5b813591602081013591810190606081016040820135600160201b8111156102b257600080fd5b8201836020820111156102c457600080fd5b803590602001918460208302840111600160201b831117156102e557600080fd5b91935091506001600160a01b038135169060200135610739565b610388600480360360a081101561031557600080fd5b813591602081013591810190606081016040820135600160201b81111561033b57600080fd5b82018360208201111561034d57600080fd5b803590602001918460208302840111600160201b8311171561036e57600080fd5b91935091506001600160a01b03813516906020013561091d565b005b6100e2600480360360608110156103a057600080fd5b5080359060208101359060400135610b9a565b61019c600480360360a08110156103c957600080fd5b813591602081013591810190606081016040820135600160201b8111156103ef57600080fd5b82018360208201111561040157600080fd5b803590602001918460208302840111600160201b8311171561042257600080fd5b91935091506001600160a01b038135169060200135610ba7565b6100e26004803603606081101561045257600080fd5b5080359060208101359060400135610ca0565b61025d600480360360e081101561047b57600080fd5b506001600160a01b038135811691602081013582169160408201359160608101359160808201359160a08101359091169060c00135610cad565b6104bd610ef1565b604080516001600160a01b039092168252519081900360200190f35b61019c600480360360408110156104ef57600080fd5b81359190810190604081016020820135600160201b81111561051057600080fd5b82018360208201111561052257600080fd5b803590602001918460208302840111600160201b8311171561054357600080fd5b919080806020026020016040519081016040528093929190818152602001838360200280828437600092019190915250929550610f15945050505050565b6105d6600480360361010081101561059857600080fd5b506001600160a01b038135811691602081013582169160408201359160608101359160808201359160a08101359160c0820135169060e00135610f42565b60408051938452602084019290925282820152519081900360600190f35b6000610601848484611075565b949350505050565b60606106367f0000000000000000000000000000000000000000000000000000000000000000848461114d565b90505b92915050565b600080600061066f7f00000000000000000000000000000000000000000000000000000000000000008f8f61129a565b905060008761067e578c610682565b6000195b6040805163d505accf60e01b815233600482015230602482015260448101839052606481018c905260ff8a16608482015260a4810189905260c4810188905290519192506001600160a01b0384169163d505accf9160e48082019260009290919082900301818387803b1580156106f857600080fd5b505af115801561070c573d6000803e3d6000fd5b5050505061071f8f8f8f8f8f8f8f610cad565b809450819550505050509b509b9950505050505050505050565b6060814281101561077f576040805162461bcd60e51b8152602060048201526018602482015260008051602061246f833981519152604482015290519081900360640190fd5b6107dd7f00000000000000000000000000000000000000000000000000000000000000008988888080602002602001604051908101604052809392919081815260200183836020028082843760009201919091525061135a92505050565b915086826001845103815181106107f057fe5b602002602001015110156108355760405162461bcd60e51b815260040180806020018281038252602b8152602001806123f5602b913960400191505060405180910390fd5b6108d38686600081811061084557fe5b905060200201356001600160a01b0316336108b97f00000000000000000000000000000000000000000000000000000000000000008a8a600081811061088757fe5b905060200201356001600160a01b03168b8b60018181106108a457fe5b905060200201356001600160a01b031661129a565b856000815181106108c657fe5b6020026020010151611491565b610912828787808060200260200160405190810160405280939291908181526020018383602002808284376000920191909152508992506115ee915050565b509695505050505050565b8042811015610961576040805162461bcd60e51b8152602060048201526018602482015260008051602061246f833981519152604482015290519081900360640190fd5b6109d68585600081811061097157fe5b905060200201356001600160a01b0316336109d07f0000000000000000000000000000000000000000000000000000000000000000898960008181106109b357fe5b905060200201356001600160a01b03168a8a60018181106108a457fe5b8a611491565b6000858560001981018181106109e857fe5b905060200201356001600160a01b03166001600160a01b03166370a08231856040518263ffffffff1660e01b815260040180826001600160a01b0316815260200191505060206040518083038186803b158015610a4457600080fd5b505afa158015610a58573d6000803e3d6000fd5b505050506040513d6020811015610a6e57600080fd5b50516040805160208881028281018201909352888252929350610ab092909189918991829185019084908082843760009201919091525088925061182b915050565b86610b538288886000198101818110610ac557fe5b905060200201356001600160a01b03166001600160a01b03166370a08231886040518263ffffffff1660e01b815260040180826001600160a01b0316815260200191505060206040518083038186803b158015610b2157600080fd5b505afa158015610b35573d6000803e3d6000fd5b505050506040513d6020811015610b4b57600080fd5b505190611b32565b1015610b905760405162461bcd60e51b815260040180806020018281038252602b8152602001806123f5602b913960400191505060405180910390fd5b5050505050505050565b6000610601848484611b82565b60608142811015610bed576040805162461bcd60e51b8152602060048201526018602482015260008051602061246f833981519152604482015290519081900360640190fd5b610c4b7f00000000000000000000000000000000000000000000000000000000000000008988888080602002602001604051908101604052809392919081815260200183836020028082843760009201919091525061114d92505050565b91508682600081518110610c5b57fe5b602002602001015111156108355760405162461bcd60e51b81526004018080602001828103825260278152602001806123876027913960400191505060405180910390fd5b6000610601848484611c5a565b6000808242811015610cf4576040805162461bcd60e51b8152602060048201526018602482015260008051602061246f833981519152604482015290519081900360640190fd5b6000610d217f00000000000000000000000000000000000000000000000000000000000000008c8c61129a565b604080516323b872dd60e01b81523360048201526001600160a01b03831660248201819052604482018d9052915192935090916323b872dd916064808201926020929091908290030181600087803b158015610d7c57600080fd5b505af1158015610d90573d6000803e3d6000fd5b505050506040513d6020811015610da657600080fd5b50506040805163226bf2d160e21b81526001600160a01b03888116600483015282516000938493928616926389afcb44926024808301939282900301818787803b158015610df357600080fd5b505af1158015610e07573d6000803e3d6000fd5b505050506040513d6040811015610e1d57600080fd5b50805160209091015190925090506000610e378e8e611d00565b509050806001600160a01b03168e6001600160a01b031614610e5a578183610e5d565b82825b90975095508a871015610ea15760405162461bcd60e51b81526004018080602001828103825260268152602001806123cf6026913960400191505060405180910390fd5b89861015610ee05760405162461bcd60e51b81526004018080602001828103825260268152602001806123146026913960400191505060405180910390fd5b505050505097509795505050505050565b7f000000000000000000000000000000000000000000000000000000000000000081565b60606106367f0000000000000000000000000000000000000000000000000000000000000000848461135a565b60008060008342811015610f8b576040805162461bcd60e51b8152602060048201526018602482015260008051602061246f833981519152604482015290519081900360640190fd5b610f998c8c8c8c8c8c611dde565b90945092506000610fcb7f00000000000000000000000000000000000000000000000000000000000000008e8e61129a565b9050610fd98d338388611491565b610fe58c338387611491565b806001600160a01b0316636a627842886040518263ffffffff1660e01b815260040180826001600160a01b03168152602001915050602060405180830381600087803b15801561103457600080fd5b505af1158015611048573d6000803e3d6000fd5b505050506040513d602081101561105e57600080fd5b5051949d939c50939a509198505050505050505050565b60008084116110b55760405162461bcd60e51b815260040180806020018281038252602b815260200180612444602b913960400191505060405180910390fd5b6000831180156110c55750600082115b6111005760405162461bcd60e51b815260040180806020018281038252602881526020018061233a6028913960400191505060405180910390fd5b600061110e856103e5612149565b9050600061111c8285612149565b9050600061113683611130886103e8612149565b906121ac565b905080828161114157fe5b04979650505050505050565b60606002825110156111a6576040805162461bcd60e51b815260206004820152601e60248201527f556e697377617056324c6962726172793a20494e56414c49445f504154480000604482015290519081900360640190fd5b815167ffffffffffffffff811180156111be57600080fd5b506040519080825280602002602001820160405280156111e8578160200160208202803683370190505b50905082816001835103815181106111fc57fe5b60209081029190910101528151600019015b80156112925760008061124b8786600186038151811061122a57fe5b602002602001015187868151811061123e57fe5b60200260200101516121fb565b9150915061126d84848151811061125e57fe5b60200260200101518383611b82565b84600185038151811061127c57fe5b602090810291909101015250506000190161120e565b509392505050565b60008060006112a98585611d00565b604080516bffffffffffffffffffffffff19606094851b811660208084019190915293851b81166034830152825160288184030181526048830184528051908501206001600160f81b031960688401529a90941b9093166069840152607d8301989098527fa0f80de0dc21d1d892ac8c8c804bb2945a43ec20fbd363e94272c4db65343f20609d808401919091528851808403909101815260bd909201909752805196019590952095945050505050565b60606002825110156113b3576040805162461bcd60e51b815260206004820152601e60248201527f556e697377617056324c6962726172793a20494e56414c49445f504154480000604482015290519081900360640190fd5b815167ffffffffffffffff811180156113cb57600080fd5b506040519080825280602002602001820160405280156113f5578160200160208202803683370190505b509050828160008151811061140657fe5b60200260200101818152505060005b60018351038110156112925760008061144b8786858151811061143457fe5b602002602001015187866001018151811061123e57fe5b9150915061146d84848151811061145e57fe5b60200260200101518383611075565b84846001018151811061147c57fe5b60209081029190910101525050600101611415565b604080516001600160a01b0385811660248301528481166044830152606480830185905283518084039091018152608490920183526020820180516001600160e01b03166323b872dd60e01b17815292518251600094606094938a169392918291908083835b602083106115165780518252601f1990920191602091820191016114f7565b6001836020036101000a0380198251168184511680821785525050505050509050019150506000604051808303816000865af19150503d8060008114611578576040519150601f19603f3d011682016040523d82523d6000602084013e61157d565b606091505b50915091508180156115ab5750805115806115ab57508080602001905160208110156115a857600080fd5b50515b6115e65760405162461bcd60e51b81526004018080602001828103825260248152602001806124206024913960400191505060405180910390fd5b505050505050565b60005b60018351038110156118255760008084838151811061160c57fe5b602002602001015185846001018151811061162357fe5b602002602001015191509150600061163b8383611d00565b509050600087856001018151811061164f57fe5b60200260200101519050600080836001600160a01b0316866001600160a01b03161461167d57826000611681565b6000835b91509150600060028a5103881061169857886116d9565b6116d97f0000000000000000000000000000000000000000000000000000000000000000878c8b600201815181106116cc57fe5b602002602001015161129a565b90506117067f0000000000000000000000000000000000000000000000000000000000000000888861129a565b6001600160a01b031663022c0d9f84848460006040519080825280601f01601f191660200182016040528015611743576020820181803683370190505b506040518563ffffffff1660e01b815260040180858152602001848152602001836001600160a01b0316815260200180602001828103825283818151815260200191508051906020019080838360005b838110156117ab578181015183820152602001611793565b50505050905090810190601f1680156117d85780820380516001836020036101000a031916815260200191505b5095505050505050600060405180830381600087803b1580156117fa57600080fd5b505af115801561180e573d6000803e3d6000fd5b5050600190990198506115f1975050505050505050565b50505050565b60005b6001835103811015611b2d5760008084838151811061184957fe5b602002602001015185846001018151811061186057fe5b60200260200101519150915060006118788383611d00565b50905060006118a87f0000000000000000000000000000000000000000000000000000000000000000858561129a565b9050600080600080846001600160a01b0316630902f1ac6040518163ffffffff1660e01b815260040160606040518083038186803b1580156118e957600080fd5b505afa1580156118fd573d6000803e3d6000fd5b505050506040513d606081101561191357600080fd5b5080516020909101516001600160701b0391821693501690506000806001600160a01b038a81169089161461194957828461194c565b83835b915091506119a1828b6001600160a01b03166370a082318a6040518263ffffffff1660e01b815260040180826001600160a01b0316815260200191505060206040518083038186803b158015610b2157600080fd5b95506119ae868383611075565b945050505050600080856001600160a01b0316886001600160a01b0316146119d8578260006119dc565b6000835b91509150600060028c51038a106119f3578a611a27565b611a277f0000000000000000000000000000000000000000000000000000000000000000898e8d600201815181106116cc57fe5b604080516000808252602082019283905263022c0d9f60e01b835260248201878152604483018790526001600160a01b038086166064850152608060848501908152845160a48601819052969750908c169563022c0d9f958a958a958a9591949193919260c486019290918190849084905b83811015611ab1578181015183820152602001611a99565b50505050905090810190601f168015611ade5780820380516001836020036101000a031916815260200191505b5095505050505050600060405180830381600087803b158015611b0057600080fd5b505af1158015611b14573d6000803e3d6000fd5b50506001909b019a5061182e9950505050505050505050565b505050565b80820382811115610639576040805162461bcd60e51b815260206004820152601560248201527464732d6d6174682d7375622d756e646572666c6f7760581b604482015290519081900360640190fd5b6000808411611bc25760405162461bcd60e51b815260040180806020018281038252602c8152602001806122c3602c913960400191505060405180910390fd5b600083118015611bd25750600082115b611c0d5760405162461bcd60e51b815260040180806020018281038252602881526020018061233a6028913960400191505060405180910390fd5b6000611c256103e8611c1f8688612149565b90612149565b90506000611c396103e5611c1f8689611b32565b9050611c506001828481611c4957fe5b04906121ac565b9695505050505050565b6000808411611c9a5760405162461bcd60e51b81526004018080602001828103825260258152602001806123626025913960400191505060405180910390fd5b600083118015611caa5750600082115b611ce55760405162461bcd60e51b815260040180806020018281038252602881526020018061233a6028913960400191505060405180910390fd5b82611cf08584612149565b81611cf757fe5b04949350505050565b600080826001600160a01b0316846001600160a01b03161415611d545760405162461bcd60e51b81526004018080602001828103825260258152602001806122ef6025913960400191505060405180910390fd5b826001600160a01b0316846001600160a01b031610611d74578284611d77565b83835b90925090506001600160a01b038216611dd7576040805162461bcd60e51b815260206004820152601e60248201527f556e697377617056324c6962726172793a205a45524f5f414444524553530000604482015290519081900360640190fd5b9250929050565b60008060006001600160a01b03167f00000000000000000000000000000000000000000000000000000000000000006001600160a01b031663e6a439058a8a6040518363ffffffff1660e01b815260040180836001600160a01b03168152602001826001600160a01b031681526020019250505060206040518083038186803b158015611e6a57600080fd5b505afa158015611e7e573d6000803e3d6000fd5b505050506040513d6020811015611e9457600080fd5b50516001600160a01b0316141561202c5760007f00000000000000000000000000000000000000000000000000000000000000006001600160a01b0316634e1516fa336040518263ffffffff1660e01b815260040180826001600160a01b0316815260200191505060206040518083038186803b158015611f1457600080fd5b505afa158015611f28573d6000803e3d6000fd5b505050506040513d6020811015611f3e57600080fd5b5051905080611f7e5760405162461bcd60e51b81526004018080602001828103825260218152602001806123ae6021913960400191505060405180910390fd5b7f00000000000000000000000000000000000000000000000000000000000000006001600160a01b031663c9c653968a8a6040518363ffffffff1660e01b815260040180836001600160a01b03168152602001826001600160a01b0316815260200192505050602060405180830381600087803b158015611ffe57600080fd5b505af1158015612012573d6000803e3d6000fd5b505050506040513d602081101561202857600080fd5b5050505b60008061205a7f00000000000000000000000000000000000000000000000000000000000000008b8b6121fb565b9150915081600014801561206c575080155b1561207c5787935086925061213c565b6000612089898484611c5a565b90508781116120dc57858110156120d15760405162461bcd60e51b81526004018080602001828103825260268152602001806123146026913960400191505060405180910390fd5b88945092508261213a565b60006120e9898486611c5a565b9050898111156120f557fe5b878110156121345760405162461bcd60e51b81526004018080602001828103825260268152602001806123cf6026913960400191505060405180910390fd5b94508793505b505b5050965096945050505050565b60008115806121645750508082028282828161216157fe5b04145b610639576040805162461bcd60e51b815260206004820152601460248201527364732d6d6174682d6d756c2d6f766572666c6f7760601b604482015290519081900360640190fd5b80820182811015610639576040805162461bcd60e51b815260206004820152601460248201527364732d6d6174682d6164642d6f766572666c6f7760601b604482015290519081900360640190fd5b600080600061220a8585611d00565b50905060008061221b88888861129a565b6001600160a01b0316630902f1ac6040518163ffffffff1660e01b815260040160606040518083038186803b15801561225357600080fd5b505afa158015612267573d6000803e3d6000fd5b505050506040513d606081101561227d57600080fd5b5080516020909101516001600160701b0391821693501690506001600160a01b03878116908416146122b05780826122b3565b81815b9099909850965050505050505056fe556e697377617056324c6962726172793a20494e53554646494349454e545f4f55545055545f414d4f554e54556e697377617056324c6962726172793a204944454e544943414c5f414444524553534553556e69737761705632526f757465723a20494e53554646494349454e545f425f414d4f554e54556e697377617056324c6962726172793a20494e53554646494349454e545f4c4951554944495459556e697377617056324c6962726172793a20494e53554646494349454e545f414d4f554e54556e69737761705632526f757465723a204558434553534956455f494e5055545f414d4f554e54556e69737761705632526f757465723a20504149525f4e4f545f43524541544544556e69737761705632526f757465723a20494e53554646494349454e545f415f414d4f554e54556e69737761705632526f757465723a20494e53554646494349454e545f4f55545055545f414d4f554e545472616e7366657248656c7065723a205452414e534645525f46524f4d5f4641494c4544556e697377617056324c6962726172793a20494e53554646494349454e545f494e5055545f414d4f554e54556e69737761705632526f757465723a20455850495245440000000000000000a2646970667358221220867bf737a58ecf948c37843aa12e42ec55ca732061b8bb988c13f2ff711772d264736f6c634300060c0033",
  "devdoc": {
    "kind": "dev",
    "methods": {},
    "version": 1
  },
  "userdoc": {
    "kind": "user",
    "methods": {},
    "version": 1
  },
  "storageLayout": {
    "storage": [],
    "types": null
  }
}