{
  "address": "0x9683ADC7FD56b81F1eb70040B30864a822C330f2",
  "abi": [
    {
      "inputs": [
        {
          "internalType": "address",
          "name": "_relayer",
          "type": "address"
        },
        {
          "internalType": "address",
          "name": "_aqua",
          "type": "address"
        }
      ],
      "stateMutability": "nonpayable",
      "type": "constructor"
    },
    {
      "anonymous": false,
      "inputs": [
        {
          "indexed": false,
          "internalType": "uint256",
          "name": "_dcaStorageId",
          "type": "uint256"
        },
        {
          "indexed": false,
          "internalType": "address",
          "name": "_dcaStorage",
          "type": "address"
        },
        {
          "indexed": false,
          "internalType": "address",
          "name": "_router",
          "type": "address"
        },
        {
          "indexed": false,
          "internalType": "address",
          "name": "_tokenQuote",
          "type": "address"
        },
        {
          "indexed": false,
          "internalType": "address",
          "name": "_tokenBase",
          "type": "address"
        }
      ],
      "name": "DCAStorageCreated",
      "type": "event"
    },
    {
      "anonymous": false,
      "inputs": [
        {
          "indexed": true,
          "internalType": "address",
          "name": "previousOwner",
          "type": "address"
        },
        {
          "indexed": true,
          "internalType": "address",
          "name": "newOwner",
          "type": "address"
        }
      ],
      "name": "OwnershipTransferred",
      "type": "event"
    },
    {
      "inputs": [],
      "name": "AQUA_ADDRESS",
      "outputs": [
        {
          "internalType": "address",
          "name": "",
          "type": "address"
        }
      ],
      "stateMutability": "view",
      "type": "function"
    },
    {
      "inputs": [],
      "name": "BurnAqua",
      "outputs": [],
      "stateMutability": "nonpayable",
      "type": "function"
    },
    {
      "inputs": [
        {
          "internalType": "uint256",
          "name": "_fee",
          "type": "uint256"
        }
      ],
      "name": "ChangeEntryFee",
      "outputs": [],
      "stateMutability": "nonpayable",
      "type": "function"
    },
    {
      "inputs": [
        {
          "internalType": "uint256",
          "name": "_maxOrders",
          "type": "uint256"
        }
      ],
      "name": "ChangeMaxOrders",
      "outputs": [],
      "stateMutability": "nonpayable",
      "type": "function"
    },
    {
      "inputs": [
        {
          "internalType": "address",
          "name": "_newRelayer",
          "type": "address"
        }
      ],
      "name": "ChangeRelayer",
      "outputs": [],
      "stateMutability": "nonpayable",
      "type": "function"
    },
    {
      "inputs": [
        {
          "internalType": "uint256",
          "name": "_dcaStorageID",
          "type": "uint256"
        },
        {
          "internalType": "uint256",
          "name": "_index",
          "type": "uint256"
        }
      ],
      "name": "DeleteOrder",
      "outputs": [],
      "stateMutability": "nonpayable",
      "type": "function"
    },
    {
      "inputs": [],
      "name": "EntryFee",
      "outputs": [
        {
          "internalType": "uint256",
          "name": "",
          "type": "uint256"
        }
      ],
      "stateMutability": "view",
      "type": "function"
    },
    {
      "inputs": [
        {
          "internalType": "uint256",
          "name": "_from",
          "type": "uint256"
        }
      ],
      "name": "ExecuteOrderRange",
      "outputs": [
        {
          "internalType": "uint256",
          "name": "",
          "type": "uint256"
        }
      ],
      "stateMutability": "nonpayable",
      "type": "function"
    },
    {
      "inputs": [
        {
          "internalType": "uint256",
          "name": "_dcaStorageID",
          "type": "uint256"
        },
        {
          "internalType": "bool",
          "name": "_buyOrder",
          "type": "bool"
        }
      ],
      "name": "ExecuteOrders",
      "outputs": [],
      "stateMutability": "nonpayable",
      "type": "function"
    },
    {
      "inputs": [
        {
          "internalType": "uint256",
          "name": "_dcaStorageID",
          "type": "uint256"
        },
        {
          "internalType": "address",
          "name": "_trader",
          "type": "address"
        }
      ],
      "name": "GetAllOrders",
      "outputs": [
        {
          "internalType": "uint256[]",
          "name": "",
          "type": "uint256[]"
        }
      ],
      "stateMutability": "view",
      "type": "function"
    },
    {
      "inputs": [
        {
          "internalType": "address",
          "name": "_storageAddress",
          "type": "address"
        }
      ],
      "name": "GetIndexUsingStorageAddress",
      "outputs": [
        {
          "internalType": "uint256",
          "name": "",
          "type": "uint256"
        }
      ],
      "stateMutability": "view",
      "type": "function"
    },
    {
      "inputs": [
        {
          "internalType": "uint256",
          "name": "_dcaStorageID",
          "type": "uint256"
        }
      ],
      "name": "GetLastPoolPrice",
      "outputs": [
        {
          "internalType": "uint256",
          "name": "",
          "type": "uint256"
        }
      ],
      "stateMutability": "view",
      "type": "function"
    },
    {
      "inputs": [
        {
          "internalType": "uint256",
          "name": "_dcaStorageID",
          "type": "uint256"
        },
        {
          "internalType": "uint256",
          "name": "_index",
          "type": "uint256"
        }
      ],
      "name": "GetOrderDetails",
      "outputs": [
        {
          "components": [
            {
              "internalType": "uint256",
              "name": "index",
              "type": "uint256"
            },
            {
              "internalType": "address",
              "name": "trader",
              "type": "address"
            },
            {
              "internalType": "uint256",
              "name": "interval",
              "type": "uint256"
            },
            {
              "internalType": "uint256",
              "name": "tokenPriceMin",
              "type": "uint256"
            },
            {
              "internalType": "uint256",
              "name": "tokenPriceMax",
              "type": "uint256"
            },
            {
              "internalType": "uint256",
              "name": "tokenAmount",
              "type": "uint256"
            },
            {
              "internalType": "bool",
              "name": "buyOrder",
              "type": "bool"
            },
            {
              "internalType": "uint256",
              "name": "lastSwapCount",
              "type": "uint256"
            },
            {
              "internalType": "uint256",
              "name": "lastSwapTime",
              "type": "uint256"
            },
            {
              "internalType": "uint256",
              "name": "totalSwapSum",
              "type": "uint256"
            }
          ],
          "internalType": "struct AquasDCAMulti.OrderDetails",
          "name": "",
          "type": "tuple"
        }
      ],
      "stateMutability": "view",
      "type": "function"
    },
    {
      "inputs": [
        {
          "internalType": "uint256",
          "name": "_dcaStorageID",
          "type": "uint256"
        }
      ],
      "name": "GetOrderFilled",
      "outputs": [
        {
          "internalType": "uint256",
          "name": "",
          "type": "uint256"
        }
      ],
      "stateMutability": "view",
      "type": "function"
    },
    {
      "inputs": [
        {
          "internalType": "uint256",
          "name": "_dcaStorageID",
          "type": "uint256"
        }
      ],
      "name": "GetOrderLength",
      "outputs": [
        {
          "internalType": "uint256",
          "name": "",
          "type": "uint256"
        }
      ],
      "stateMutability": "view",
      "type": "function"
    },
    {
      "inputs": [
        {
          "internalType": "uint256",
          "name": "_dcaStorageID",
          "type": "uint256"
        }
      ],
      "name": "GetOrdersTotal",
      "outputs": [
        {
          "internalType": "uint256",
          "name": "",
          "type": "uint256"
        }
      ],
      "stateMutability": "view",
      "type": "function"
    },
    {
      "inputs": [
        {
          "internalType": "uint256",
          "name": "_dcaStorageID",
          "type": "uint256"
        }
      ],
      "name": "GetStorageAddressUsingIndex",
      "outputs": [
        {
          "internalType": "address",
          "name": "",
          "type": "address"
        }
      ],
      "stateMutability": "view",
      "type": "function"
    },
    {
      "inputs": [
        {
          "internalType": "address",
          "name": "_router",
          "type": "address"
        },
        {
          "internalType": "address",
          "name": "_tokenQuote",
          "type": "address"
        },
        {
          "internalType": "address",
          "name": "_tokenBase",
          "type": "address"
        }
      ],
      "name": "GetStorageAddressUsingToken",
      "outputs": [
        {
          "internalType": "address",
          "name": "",
          "type": "address"
        }
      ],
      "stateMutability": "nonpayable",
      "type": "function"
    },
    {
      "inputs": [
        {
          "internalType": "uint256",
          "name": "_dcaStorageID",
          "type": "uint256"
        }
      ],
      "name": "GetTokenBaseUsingIndex",
      "outputs": [
        {
          "internalType": "address",
          "name": "",
          "type": "address"
        }
      ],
      "stateMutability": "view",
      "type": "function"
    },
    {
      "inputs": [
        {
          "internalType": "uint256",
          "name": "_dcaStorageID",
          "type": "uint256"
        }
      ],
      "name": "GetTokenQuoteUsingIndex",
      "outputs": [
        {
          "internalType": "address",
          "name": "",
          "type": "address"
        }
      ],
      "stateMutability": "view",
      "type": "function"
    },
    {
      "inputs": [
        {
          "internalType": "uint256",
          "name": "_dcaStorageID",
          "type": "uint256"
        }
      ],
      "name": "GetTokenRouterUsingIndex",
      "outputs": [
        {
          "internalType": "address",
          "name": "",
          "type": "address"
        }
      ],
      "stateMutability": "view",
      "type": "function"
    },
    {
      "inputs": [],
      "name": "MAX_ORDERS",
      "outputs": [
        {
          "internalType": "uint256",
          "name": "",
          "type": "uint256"
        }
      ],
      "stateMutability": "view",
      "type": "function"
    },
    {
      "inputs": [],
      "name": "NFTAddress",
      "outputs": [
        {
          "internalType": "address",
          "name": "",
          "type": "address"
        }
      ],
      "stateMutability": "view",
      "type": "function"
    },
    {
      "inputs": [],
      "name": "Relayer",
      "outputs": [
        {
          "internalType": "address",
          "name": "",
          "type": "address"
        }
      ],
      "stateMutability": "view",
      "type": "function"
    },
    {
      "inputs": [],
      "name": "StorageID",
      "outputs": [
        {
          "internalType": "uint256",
          "name": "",
          "type": "uint256"
        }
      ],
      "stateMutability": "view",
      "type": "function"
    },
    {
      "inputs": [
        {
          "internalType": "address",
          "name": "_router",
          "type": "address"
        },
        {
          "internalType": "address",
          "name": "_tokenQuote",
          "type": "address"
        },
        {
          "internalType": "address",
          "name": "_tokenBase",
          "type": "address"
        },
        {
          "internalType": "uint256",
          "name": "_intervalSeconds",
          "type": "uint256"
        },
        {
          "internalType": "uint256",
          "name": "_durationHours",
          "type": "uint256"
        },
        {
          "internalType": "uint256",
          "name": "_tokenPriceMin",
          "type": "uint256"
        },
        {
          "internalType": "uint256",
          "name": "_tokenPriceMax",
          "type": "uint256"
        },
        {
          "internalType": "uint256",
          "name": "_tokenAmount",
          "type": "uint256"
        },
        {
          "internalType": "bool",
          "name": "_buyOrder",
          "type": "bool"
        }
      ],
      "name": "SubmitDCAOrder",
      "outputs": [],
      "stateMutability": "nonpayable",
      "type": "function"
    },
    {
      "inputs": [
        {
          "internalType": "bool",
          "name": "_on_off",
          "type": "bool"
        }
      ],
      "name": "TradingCondition",
      "outputs": [],
      "stateMutability": "nonpayable",
      "type": "function"
    },
    {
      "inputs": [],
      "name": "TradingEnabled",
      "outputs": [
        {
          "internalType": "bool",
          "name": "",
          "type": "bool"
        }
      ],
      "stateMutability": "view",
      "type": "function"
    },
    {
      "inputs": [
        {
          "internalType": "uint256",
          "name": "",
          "type": "uint256"
        }
      ],
      "name": "allStorages",
      "outputs": [
        {
          "internalType": "contract DCAStorage",
          "name": "",
          "type": "address"
        }
      ],
      "stateMutability": "view",
      "type": "function"
    },
    {
      "inputs": [],
      "name": "index",
      "outputs": [
        {
          "internalType": "uint256",
          "name": "",
          "type": "uint256"
        }
      ],
      "stateMutability": "view",
      "type": "function"
    },
    {
      "inputs": [],
      "name": "owner",
      "outputs": [
        {
          "internalType": "address",
          "name": "",
          "type": "address"
        }
      ],
      "stateMutability": "view",
      "type": "function"
    },
    {
      "inputs": [],
      "name": "renounceOwnership",
      "outputs": [],
      "stateMutability": "nonpayable",
      "type": "function"
    },
    {
      "inputs": [
        {
          "internalType": "address",
          "name": "newAddress",
          "type": "address"
        }
      ],
      "name": "setNftAddress",
      "outputs": [],
      "stateMutability": "nonpayable",
      "type": "function"
    },
    {
      "inputs": [
        {
          "internalType": "address",
          "name": "newOwner",
          "type": "address"
        }
      ],
      "name": "transferOwnership",
      "outputs": [],
      "stateMutability": "nonpayable",
      "type": "function"
    }
  ],
  "transactionHash": "0x9970288e7ba823378871aa1e6347b408106f4a2107e74108fa9dff624d156891",
  "args": [
    "0xCDeb7F7974D89Fd71089487D65AA9731d7E846F5",
    "0xF7F957D88768126916dAF3C1705D13C291d2B7D8"
  ],
  "numDeployments": 9,
  "solcInputHash": "ffd5408bac37690b24500ba77256493d",
  "bytecode": "0x608060405260fa6004553480156200001657600080fd5b50604051620097583803806200975883398181016040528101906200003c9190620002ac565b60006200004e6200028d60201b60201c565b9050806000806101000a81548173ffffffffffffffffffffffffffffffffffffffff021916908373ffffffffffffffffffffffffffffffffffffffff1602179055508073ffffffffffffffffffffffffffffffffffffffff16600073ffffffffffffffffffffffffffffffffffffffff167f8be0079c531659141344cd1fd0a4f28419497f9722a3daafe3b4186f6b6457e060405160405180910390a350600073ffffffffffffffffffffffffffffffffffffffff168273ffffffffffffffffffffffffffffffffffffffff1614156200015f576040517f08c379a00000000000000000000000000000000000000000000000000000000081526004016200015690620003b9565b60405180910390fd5b600073ffffffffffffffffffffffffffffffffffffffff168173ffffffffffffffffffffffffffffffffffffffff161415620001d2576040517f08c379a0000000000000000000000000000000000000000000000000000000008152600401620001c99062000397565b60405180910390fd5b81600260006101000a81548173ffffffffffffffffffffffffffffffffffffffff021916908373ffffffffffffffffffffffffffffffffffffffff16021790555080600760006101000a81548173ffffffffffffffffffffffffffffffffffffffff021916908373ffffffffffffffffffffffffffffffffffffffff160217905550670de0b6b3a764000060038190555060018060146101000a81548160ff021916908315150217905550600060088190555050506200043a565b600033905090565b600081519050620002a68162000420565b92915050565b60008060408385031215620002c057600080fd5b6000620002d08582860162000295565b9250506020620002e38582860162000295565b9150509250929050565b6000620002fc602583620003db565b91507f466163746f72793a204d697373696e6720415155415f4144445245535320616460008301527f64726573730000000000000000000000000000000000000000000000000000006020830152604082019050919050565b600062000364602083620003db565b91507f466163746f72793a204d697373696e672052454c4159455220616464726573736000830152602082019050919050565b60006020820190508181036000830152620003b281620002ed565b9050919050565b60006020820190508181036000830152620003d48162000355565b9050919050565b600082825260208201905092915050565b6000620003f98262000400565b9050919050565b600073ffffffffffffffffffffffffffffffffffffffff82169050919050565b6200042b81620003ec565b81146200043757600080fd5b50565b61930e806200044a6000396000f3fe60806040523480156200001157600080fd5b5060043610620002385760003560e01c80637c17ad9d1162000135578063a0bdd72011620000bd578063d568cdec1162000087578063d568cdec14620006b9578063e2e78dfb14620006ef578063ec606041146200070f578063f2fde38b1462000745578063f4ba692614620007655762000238565b8063a0bdd7201462000621578063a32564a31462000641578063bc83d2d71462000677578063c839117314620006835762000238565b80638f37854f11620000ff5780638f37854f146200057357806393254b0e14620005a957806395003b0a14620005cb5780639665d9d414620006015762000238565b80637c17ad9d14620004d95780638230022d146200050f578063842c7cc8146200052f5780638da5cb5b14620005515762000238565b806330a7e0a111620001c55780634ccb8056116200018f5780634ccb8056146200043357806359fe8c841462000453578063715018a614620004755780637395de5214620004815780637996634514620004b75762000238565b806330a7e0a11462000383578063310c87cc14620003b957806345e8c81414620003db5780634677dd1a14620003fd5762000238565b8063224ecfea1162000207578063224ecfea14620002e9578063264949d8146200031f57806326749a9e14620003415780632986c0e514620003615762000238565b80630b102d1a146200023d5780630b40097c146200025d5780630d66bc94146200027d5780631814aada14620002b3575b600080fd5b6200025b600480360381019062000255919062003226565b6200079b565b005b6200027b6004803603810190620002759190620035fd565b620008d5565b005b6200029b60048036038101906200029591906200327e565b62000998565b604051620002aa9190620041c7565b60405180910390f35b620002d16004803603810190620002cb919062003474565b62000e15565b604051620002e0919062004262565b60405180910390f35b62000307600480360381019062000301919062003474565b62000e48565b604051620003169190620045f1565b60405180910390f35b6200032962000f22565b604051620003389190620041c7565b60405180910390f35b6200035f60048036038101906200035991906200341c565b62000f48565b005b6200036b62000fe8565b6040516200037a9190620045f1565b60405180910390f35b620003a160048036038101906200039b91906200363e565b62000fee565b604051620003b09190620045d3565b60405180910390f35b620003c36200116d565b604051620003d29190620041c7565b60405180910390f35b620003e562001193565b604051620003f49190620041c7565b60405180910390f35b6200041b600480360381019062000415919062003226565b620011b9565b6040516200042a9190620045f1565b60405180910390f35b6200045160048036038101906200044b91906200363e565b620012a7565b005b6200045d6200136a565b6040516200046c9190620045f1565b60405180910390f35b6200047f62001370565b005b6200049f600480360381019062000499919062003474565b620014b1565b604051620004ae9190620041c7565b60405180910390f35b620004c16200158b565b604051620004d0919062004245565b60405180910390f35b620004f76004803603810190620004f19190620034cc565b6200159e565b60405162000506919062004221565b60405180910390f35b6200052d600480360381019062000527919062003474565b62001735565b005b62000539620017c2565b604051620005489190620045f1565b60405180910390f35b6200055b620017c8565b6040516200056a9190620041c7565b60405180910390f35b6200059160048036038101906200058b919062003474565b620017f1565b604051620005a09190620045f1565b60405180910390f35b620005b362001a37565b604051620005c29190620045f1565b60405180910390f35b620005e96004803603810190620005e3919062003474565b62001a3d565b604051620005f89190620045f1565b60405180910390f35b6200061f600480360381019062000619919062003474565b62001b17565b005b6200063f6004803603810190620006399190620032d4565b62001ba4565b005b6200065f600480360381019062000659919062003474565b62001d61565b6040516200066e9190620041c7565b60405180910390f35b6200068162001e3b565b005b620006a160048036038101906200069b919062003474565b62001f84565b604051620006b09190620045f1565b60405180910390f35b620006d76004803603810190620006d1919062003474565b6200205e565b604051620006e69190620041c7565b60405180910390f35b6200070d600480360381019062000707919062003226565b62002129565b005b6200072d600480360381019062000727919062003474565b620021f0565b6040516200073c9190620041c7565b60405180910390f35b6200076360048036038101906200075d919062003226565b620022ca565b005b6200078360048036038101906200077d919062003474565b6200247d565b604051620007929190620045f1565b60405180910390f35b620007a562002557565b73ffffffffffffffffffffffffffffffffffffffff16620007c5620017c8565b73ffffffffffffffffffffffffffffffffffffffff16146200081e576040517f08c379a000000000000000000000000000000000000000000000000000000000815260040162000815906200447f565b60405180910390fd5b600073ffffffffffffffffffffffffffffffffffffffff168173ffffffffffffffffffffffffffffffffffffffff16141562000891576040517f08c379a0000000000000000000000000000000000000000000000000000000008152600401620008889062004391565b60405180910390fd5b80600160006101000a81548173ffffffffffffffffffffffffffffffffffffffff021916908373ffffffffffffffffffffffffffffffffffffffff16021790555050565b600082116200091b576040517f08c379a00000000000000000000000000000000000000000000000000000000081526004016200091290620044e5565b60405180910390fd5b62000926826200205e565b73ffffffffffffffffffffffffffffffffffffffff16638a2b9e78826040518263ffffffff1660e01b815260040162000960919062004245565b600060405180830381600087803b1580156200097b57600080fd5b505af115801562000990573d6000803e3d6000fd5b505050505050565b60008073ffffffffffffffffffffffffffffffffffffffff168373ffffffffffffffffffffffffffffffffffffffff16141562000a0c576040517f08c379a000000000000000000000000000000000000000000000000000000000815260040162000a0390620045b1565b60405180910390fd5b600073ffffffffffffffffffffffffffffffffffffffff168273ffffffffffffffffffffffffffffffffffffffff16141562000a7f576040517f08c379a000000000000000000000000000000000000000000000000000000000815260040162000a7690620045b1565b60405180910390fd5b600073ffffffffffffffffffffffffffffffffffffffff168473ffffffffffffffffffffffffffffffffffffffff16141562000af2576040517f08c379a000000000000000000000000000000000000000000000000000000000815260040162000ae9906200458f565b60405180910390fd5b6000600190505b600554811162000dfd57600062000b10826200205e565b905060008173ffffffffffffffffffffffffffffffffffffffff1663f1e0b56f6040518163ffffffff1660e01b815260040160206040518083038186803b15801562000b5b57600080fd5b505afa15801562000b70573d6000803e3d6000fd5b505050506040513d601f19601f8201168201806040525081019062000b96919062003252565b905060008273ffffffffffffffffffffffffffffffffffffffff1663c949ba9b6040518163ffffffff1660e01b815260040160206040518083038186803b15801562000be157600080fd5b505afa15801562000bf6573d6000803e3d6000fd5b505050506040513d601f19601f8201168201806040525081019062000c1c919062003252565b905060008373ffffffffffffffffffffffffffffffffffffffff1663a82ed9ec6040518163ffffffff1660e01b815260040160206040518083038186803b15801562000c6757600080fd5b505afa15801562000c7c573d6000803e3d6000fd5b505050506040513d601f19601f8201168201806040525081019062000ca2919062003252565b90508273ffffffffffffffffffffffffffffffffffffffff168873ffffffffffffffffffffffffffffffffffffffff1614801562000d0b57508173ffffffffffffffffffffffffffffffffffffffff168773ffffffffffffffffffffffffffffffffffffffff16145b801562000d4357508073ffffffffffffffffffffffffffffffffffffffff168973ffffffffffffffffffffffffffffffffffffffff16145b1562000deb5760008473ffffffffffffffffffffffffffffffffffffffff166375c653bc6040518163ffffffff1660e01b815260040160206040518083038186803b15801562000d9257600080fd5b505afa15801562000da7573d6000803e3d6000fd5b505050506040513d601f19601f8201168201806040525081019062000dcd9190620034a0565b905060045481101562000de95784965050505050505062000e0e565b505b50505050808060010191505062000af9565b5062000e0b8484846200255f565b90505b9392505050565b60066020528060005260406000206000915054906101000a900473ffffffffffffffffffffffffffffffffffffffff1681565b600080821162000e8f576040517f08c379a000000000000000000000000000000000000000000000000000000000815260040162000e8690620044e5565b60405180910390fd5b62000e9a826200205e565b73ffffffffffffffffffffffffffffffffffffffff1663ec4ca0f86040518163ffffffff1660e01b815260040160206040518083038186803b15801562000ee057600080fd5b505afa15801562000ef5573d6000803e3d6000fd5b505050506040513d601f19601f8201168201806040525081019062000f1b9190620034a0565b9050919050565b600260009054906101000a900473ffffffffffffffffffffffffffffffffffffffff1681565b62000f5262002557565b73ffffffffffffffffffffffffffffffffffffffff1662000f72620017c8565b73ffffffffffffffffffffffffffffffffffffffff161462000fcb576040517f08c379a000000000000000000000000000000000000000000000000000000000815260040162000fc2906200447f565b60405180910390fd5b80600160146101000a81548160ff02191690831515021790555050565b60085481565b62000ff862003096565b600080600080600080600080600080620010128d6200205e565b73ffffffffffffffffffffffffffffffffffffffff1663ffc5ea0d8d6040518263ffffffff1660e01b81526004016200104c9190620045f1565b6101406040518083038186803b1580156200106657600080fd5b505afa1580156200107b573d6000803e3d6000fd5b505050506040513d601f19601f82011682018060405250810190620010a191906200350d565b9950995099509950995099509950995099509950620010bf62003096565b8a81600001818152505089816020019073ffffffffffffffffffffffffffffffffffffffff16908173ffffffffffffffffffffffffffffffffffffffff1681525050888160400181815250508781606001818152505086816080018181525050858160a0018181525050848160c00190151590811515815250508281610100018181525050838160e00181815250508181610120018181525050809b50505050505050505050505092915050565b600160009054906101000a900473ffffffffffffffffffffffffffffffffffffffff1681565b600760009054906101000a900473ffffffffffffffffffffffffffffffffffffffff1681565b60008073ffffffffffffffffffffffffffffffffffffffff168273ffffffffffffffffffffffffffffffffffffffff1614156200122d576040517f08c379a00000000000000000000000000000000000000000000000000000000081526004016200122490620042a3565b60405180910390fd5b6000600190505b60055481116200129c5760006200124b826200205e565b90508373ffffffffffffffffffffffffffffffffffffffff168173ffffffffffffffffffffffffffffffffffffffff1614156200128d578192505050620012a2565b50808060010191505062001234565b50600090505b919050565b60008211620012ed576040517f08c379a0000000000000000000000000000000000000000000000000000000008152600401620012e49062004309565b60405180910390fd5b620012f8826200205e565b73ffffffffffffffffffffffffffffffffffffffff1663dad675ba826040518263ffffffff1660e01b8152600401620013329190620045f1565b600060405180830381600087803b1580156200134d57600080fd5b505af115801562001362573d6000803e3d6000fd5b505050505050565b60035481565b6200137a62002557565b73ffffffffffffffffffffffffffffffffffffffff166200139a620017c8565b73ffffffffffffffffffffffffffffffffffffffff1614620013f3576040517f08c379a0000000000000000000000000000000000000000000000000000000008152600401620013ea906200447f565b60405180910390fd5b600073ffffffffffffffffffffffffffffffffffffffff1660008054906101000a900473ffffffffffffffffffffffffffffffffffffffff1673ffffffffffffffffffffffffffffffffffffffff167f8be0079c531659141344cd1fd0a4f28419497f9722a3daafe3b4186f6b6457e060405160405180910390a360008060006101000a81548173ffffffffffffffffffffffffffffffffffffffff021916908373ffffffffffffffffffffffffffffffffffffffff160217905550565b6000808211620014f8576040517f08c379a0000000000000000000000000000000000000000000000000000000008152600401620014ef90620044e5565b60405180910390fd5b62001503826200205e565b73ffffffffffffffffffffffffffffffffffffffff1663c949ba9b6040518163ffffffff1660e01b815260040160206040518083038186803b1580156200154957600080fd5b505afa1580156200155e573d6000803e3d6000fd5b505050506040513d601f19601f8201168201806040525081019062001584919062003252565b9050919050565b600160149054906101000a900460ff1681565b606060008311620015e6576040517f08c379a0000000000000000000000000000000000000000000000000000000008152600401620015dd90620044c3565b60405180910390fd5b600073ffffffffffffffffffffffffffffffffffffffff168273ffffffffffffffffffffffffffffffffffffffff16141562001659576040517f08c379a00000000000000000000000000000000000000000000000000000000081526004016200165090620044a1565b60405180910390fd5b600062001666846200205e565b905060606000808373ffffffffffffffffffffffffffffffffffffffff166384d09e27876040518263ffffffff1660e01b8152600401620016a89190620041c7565b60006040518083038186803b158015620016c157600080fd5b505afa158015620016d6573d6000803e3d6000fd5b505050506040513d6000823e3d601f19601f82011682018060405250810190620017019190620033ad565b9250925092506000821180620017175750600081115b156200172a57829450505050506200172f565b505050505b92915050565b6200173f62002557565b73ffffffffffffffffffffffffffffffffffffffff166200175f620017c8565b73ffffffffffffffffffffffffffffffffffffffff1614620017b8576040517f08c379a0000000000000000000000000000000000000000000000000000000008152600401620017af906200447f565b60405180910390fd5b8060038190555050565b60055481565b60008060009054906101000a900473ffffffffffffffffffffffffffffffffffffffff16905090565b600080821162001838576040517f08c379a00000000000000000000000000000000000000000000000000000000081526004016200182f90620044e5565b60405180910390fd5b600080808490505b600554811162001a2a57600062001857826200205e565b905060008173ffffffffffffffffffffffffffffffffffffffff166375c653bc6040518163ffffffff1660e01b815260040160206040518083038186803b158015620018a257600080fd5b505afa158015620018b7573d6000803e3d6000fd5b505050506040513d601f19601f82011682018060405250810190620018dd9190620034a0565b9050620018f481856200283c90919063ffffffff16565b93506004546200190e85876200283c90919063ffffffff16565b11156200192357829550505050505062001a32565b8173ffffffffffffffffffffffffffffffffffffffff16638a2b9e7860016040518263ffffffff1660e01b81526004016200195f919062004245565b600060405180830381600087803b1580156200197a57600080fd5b505af11580156200198f573d6000803e3d6000fd5b505050508173ffffffffffffffffffffffffffffffffffffffff16638a2b9e7860006040518263ffffffff1660e01b8152600401620019cf919062004245565b600060405180830381600087803b158015620019ea57600080fd5b505af1158015620019ff573d6000803e3d6000fd5b5050505062001a1884866200283c90919063ffffffff16565b94505050808060010191505062001840565b506001925050505b919050565b60045481565b600080821162001a84576040517f08c379a000000000000000000000000000000000000000000000000000000000815260040162001a7b90620044e5565b60405180910390fd5b62001a8f826200205e565b73ffffffffffffffffffffffffffffffffffffffff16638b474f8d6040518163ffffffff1660e01b815260040160206040518083038186803b15801562001ad557600080fd5b505afa15801562001aea573d6000803e3d6000fd5b505050506040513d601f19601f8201168201806040525081019062001b109190620034a0565b9050919050565b62001b2162002557565b73ffffffffffffffffffffffffffffffffffffffff1662001b41620017c8565b73ffffffffffffffffffffffffffffffffffffffff161462001b9a576040517f08c379a000000000000000000000000000000000000000000000000000000000815260040162001b91906200447f565b60405180910390fd5b8060048190555050565b60011515600160149054906101000a900460ff1615151462001bfd576040517f08c379a000000000000000000000000000000000000000000000000000000000815260040162001bf4906200454b565b60405180910390fd5b600062001c0c8a8a8a62002894565b9050600073ffffffffffffffffffffffffffffffffffffffff168173ffffffffffffffffffffffffffffffffffffffff16141562001c81576040517f08c379a000000000000000000000000000000000000000000000000000000000815260040162001c78906200443b565b60405180910390fd5b600062001c8d62002a0a565b821562001cab5762001ca189858462002c6a565b6001905062001cbd565b62001cb88a858462002c6a565b600190505b801562001d54578173ffffffffffffffffffffffffffffffffffffffff166335245c036008548a8a8a8a8a8a6040518863ffffffff1660e01b815260040162001d0d9796959493929190620046d8565b600060405180830381600087803b15801562001d2857600080fd5b505af115801562001d3d573d6000803e3d6000fd5b505050506008600081548092919060010191905055505b5050505050505050505050565b600080821162001da8576040517f08c379a000000000000000000000000000000000000000000000000000000000815260040162001d9f90620044e5565b60405180910390fd5b62001db3826200205e565b73ffffffffffffffffffffffffffffffffffffffff1663a82ed9ec6040518163ffffffff1660e01b815260040160206040518083038186803b15801562001df957600080fd5b505afa15801562001e0e573d6000803e3d6000fd5b505050506040513d601f19601f8201168201806040525081019062001e34919062003252565b9050919050565b6000600760009054906101000a900473ffffffffffffffffffffffffffffffffffffffff1673ffffffffffffffffffffffffffffffffffffffff166370a08231306040518263ffffffff1660e01b815260040162001e9a9190620041c7565b60206040518083038186803b15801562001eb357600080fd5b505afa15801562001ec8573d6000803e3d6000fd5b505050506040513d601f19601f8201168201806040525081019062001eee9190620034a0565b9050600760009054906101000a900473ffffffffffffffffffffffffffffffffffffffff1673ffffffffffffffffffffffffffffffffffffffff166342966c68826040518263ffffffff1660e01b815260040162001f4d9190620045f1565b600060405180830381600087803b15801562001f6857600080fd5b505af115801562001f7d573d6000803e3d6000fd5b5050505050565b600080821162001fcb576040517f08c379a000000000000000000000000000000000000000000000000000000000815260040162001fc290620044e5565b60405180910390fd5b62001fd6826200205e565b73ffffffffffffffffffffffffffffffffffffffff1663dc7782a36040518163ffffffff1660e01b815260040160206040518083038186803b1580156200201c57600080fd5b505afa15801562002031573d6000803e3d6000fd5b505050506040513d601f19601f82011682018060405250810190620020579190620034a0565b9050919050565b6000600554821115620020a8576040517f08c379a00000000000000000000000000000000000000000000000000000000081526004016200209f90620043f7565b60405180910390fd5b60008211620020ee576040517f08c379a0000000000000000000000000000000000000000000000000000000008152600401620020e590620043f7565b60405180910390fd5b6006600083815260200190815260200160002060009054906101000a900473ffffffffffffffffffffffffffffffffffffffff169050919050565b6200213362002557565b73ffffffffffffffffffffffffffffffffffffffff1662002153620017c8565b73ffffffffffffffffffffffffffffffffffffffff1614620021ac576040517f08c379a0000000000000000000000000000000000000000000000000000000008152600401620021a3906200447f565b60405180910390fd5b80600260006101000a81548173ffffffffffffffffffffffffffffffffffffffff021916908373ffffffffffffffffffffffffffffffffffffffff16021790555050565b600080821162002237576040517f08c379a00000000000000000000000000000000000000000000000000000000081526004016200222e90620044e5565b60405180910390fd5b62002242826200205e565b73ffffffffffffffffffffffffffffffffffffffff1663f1e0b56f6040518163ffffffff1660e01b815260040160206040518083038186803b1580156200228857600080fd5b505afa1580156200229d573d6000803e3d6000fd5b505050506040513d601f19601f82011682018060405250810190620022c3919062003252565b9050919050565b620022d462002557565b73ffffffffffffffffffffffffffffffffffffffff16620022f4620017c8565b73ffffffffffffffffffffffffffffffffffffffff16146200234d576040517f08c379a000000000000000000000000000000000000000000000000000000000815260040162002344906200447f565b60405180910390fd5b600073ffffffffffffffffffffffffffffffffffffffff168173ffffffffffffffffffffffffffffffffffffffff161415620023c0576040517f08c379a0000000000000000000000000000000000000000000000000000000008152600401620023b7906200434d565b60405180910390fd5b8073ffffffffffffffffffffffffffffffffffffffff1660008054906101000a900473ffffffffffffffffffffffffffffffffffffffff1673ffffffffffffffffffffffffffffffffffffffff167f8be0079c531659141344cd1fd0a4f28419497f9722a3daafe3b4186f6b6457e060405160405180910390a3806000806101000a81548173ffffffffffffffffffffffffffffffffffffffff021916908373ffffffffffffffffffffffffffffffffffffffff16021790555050565b6000808211620024c4576040517f08c379a0000000000000000000000000000000000000000000000000000000008152600401620024bb90620044e5565b60405180910390fd5b620024cf826200205e565b73ffffffffffffffffffffffffffffffffffffffff166375c653bc6040518163ffffffff1660e01b815260040160206040518083038186803b1580156200251557600080fd5b505afa1580156200252a573d6000803e3d6000fd5b505050506040513d601f19601f82011682018060405250810190620025509190620034a0565b9050919050565b600033905090565b60008073ffffffffffffffffffffffffffffffffffffffff168373ffffffffffffffffffffffffffffffffffffffff161415620025d3576040517f08c379a0000000000000000000000000000000000000000000000000000000008152600401620025ca90620042c5565b60405180910390fd5b600073ffffffffffffffffffffffffffffffffffffffff168273ffffffffffffffffffffffffffffffffffffffff16141562002646576040517f08c379a00000000000000000000000000000000000000000000000000000000081526004016200263d906200432b565b60405180910390fd5b600073ffffffffffffffffffffffffffffffffffffffff168473ffffffffffffffffffffffffffffffffffffffff161415620026b9576040517f08c379a0000000000000000000000000000000000000000000000000000000008152600401620026b0906200445d565b60405180910390fd5b60056000815480929190600101919050555060055430858585600760009054906101000a900473ffffffffffffffffffffffffffffffffffffffff16604051620027039062003101565b62002714969594939291906200466b565b604051809103906000f08015801562002731573d6000803e3d6000fd5b5060066000600554815260200190815260200160002060006101000a81548173ffffffffffffffffffffffffffffffffffffffff021916908373ffffffffffffffffffffffffffffffffffffffff1602179055507f91fbc3c983ce8fed5e775e1aced49432a26b41da49a8f7e458c4f4eb8cb175be60055460066000600554815260200190815260200160002060009054906101000a900473ffffffffffffffffffffffffffffffffffffffff16868686604051620027f59594939291906200460e565b60405180910390a160066000600554815260200190815260200160002060009054906101000a900473ffffffffffffffffffffffffffffffffffffffff1690509392505050565b6000808284019050838110156200288a576040517f08c379a00000000000000000000000000000000000000000000000000000000081526004016200288190620043b3565b60405180910390fd5b8091505092915050565b60008073ffffffffffffffffffffffffffffffffffffffff168373ffffffffffffffffffffffffffffffffffffffff16141562002908576040517f08c379a0000000000000000000000000000000000000000000000000000000008152600401620028ff9062004419565b60405180910390fd5b600073ffffffffffffffffffffffffffffffffffffffff168273ffffffffffffffffffffffffffffffffffffffff1614156200297b576040517f08c379a0000000000000000000000000000000000000000000000000000000008152600401620029729062004419565b60405180910390fd5b600073ffffffffffffffffffffffffffffffffffffffff168473ffffffffffffffffffffffffffffffffffffffff161415620029ee576040517f08c379a0000000000000000000000000000000000000000000000000000000008152600401620029e5906200436f565b60405180910390fd5b6000620029fd85858562000998565b9050809150509392505050565b600033905060008073ffffffffffffffffffffffffffffffffffffffff16600160009054906101000a900473ffffffffffffffffffffffffffffffffffffffff1673ffffffffffffffffffffffffffffffffffffffff161462002b27576000600160009054906101000a900473ffffffffffffffffffffffffffffffffffffffff1673ffffffffffffffffffffffffffffffffffffffff166370a08231846040518263ffffffff1660e01b815260040162002ac69190620041c7565b60206040518083038186803b15801562002adf57600080fd5b505afa15801562002af4573d6000803e3d6000fd5b505050506040513d601f19601f8201168201806040525081019062002b1a9190620034a0565b111562002b2657600190505b5b801562002b3657505062002c68565b6000600760009054906101000a900473ffffffffffffffffffffffffffffffffffffffff1690506003548173ffffffffffffffffffffffffffffffffffffffff166370a08231856040518263ffffffff1660e01b815260040162002b9b9190620041c7565b60206040518083038186803b15801562002bb457600080fd5b505afa15801562002bc9573d6000803e3d6000fd5b505050506040513d601f19601f8201168201806040525081019062002bef9190620034a0565b101562002c33576040517f08c379a000000000000000000000000000000000000000000000000000000000815260040162002c2a90620042e7565b60405180910390fd5b62002c6483306003548473ffffffffffffffffffffffffffffffffffffffff1662002d7e909392919063ffffffff16565b5050505b565b60003390506000849050838173ffffffffffffffffffffffffffffffffffffffff166370a08231846040518263ffffffff1660e01b815260040162002cb09190620041c7565b60206040518083038186803b15801562002cc957600080fd5b505afa15801562002cde573d6000803e3d6000fd5b505050506040513d601f19601f8201168201806040525081019062002d049190620034a0565b101562002d48576040517f08c379a000000000000000000000000000000000000000000000000000000000815260040162002d3f9062004507565b60405180910390fd5b62002d778284868473ffffffffffffffffffffffffffffffffffffffff1662002d7e909392919063ffffffff16565b5050505050565b62002e05846323b872dd60e01b85858560405160240162002da293929190620041e4565b604051602081830303815290604052907bffffffffffffffffffffffffffffffffffffffffffffffffffffffff19166020820180517bffffffffffffffffffffffffffffffffffffffffffffffffffffffff838183161783525050505062002e0b565b50505050565b606062002e6f826040518060400160405280602081526020017f5361666545524332303a206c6f772d6c6576656c2063616c6c206661696c65648152508573ffffffffffffffffffffffffffffffffffffffff1662002eda9092919063ffffffff16565b905060008151111562002ed5578080602001905181019062002e92919062003448565b62002ed4576040517f08c379a000000000000000000000000000000000000000000000000000000000815260040162002ecb906200456d565b60405180910390fd5b5b505050565b606062002eeb848460008562002ef4565b90509392505050565b60608247101562002f3c576040517f08c379a000000000000000000000000000000000000000000000000000000000815260040162002f3390620043d5565b60405180910390fd5b62002f478562003017565b62002f89576040517f08c379a000000000000000000000000000000000000000000000000000000000815260040162002f809062004529565b60405180910390fd5b600060608673ffffffffffffffffffffffffffffffffffffffff16858760405162002fb59190620041ae565b60006040518083038185875af1925050503d806000811462002ff4576040519150601f19603f3d011682016040523d82523d6000602084013e62002ff9565b606091505b50915091506200300b8282866200302a565b92505050949350505050565b600080823b905060008111915050919050565b606083156200303c578290506200308f565b600083511115620030505782518084602001fd5b816040517f08c379a00000000000000000000000000000000000000000000000000000000081526004016200308691906200427f565b60405180910390fd5b9392505050565b60405180610140016040528060008152602001600073ffffffffffffffffffffffffffffffffffffffff168152602001600081526020016000815260200160008152602001600081526020016000151581526020016000815260200160008152602001600081525090565b6149ba806200491f83390190565b6000813590506200312081620048d0565b92915050565b6000815190506200313781620048d0565b92915050565b600082601f8301126200314f57600080fd5b815162003166620031608262004783565b62004755565b915081818352602084019350602081019050838560208402820111156200318c57600080fd5b60005b83811015620031c05781620031a588826200320f565b8452602084019350602083019250506001810190506200318f565b5050505092915050565b600081359050620031db81620048ea565b92915050565b600081519050620031f281620048ea565b92915050565b600081359050620032098162004904565b92915050565b600081519050620032208162004904565b92915050565b6000602082840312156200323957600080fd5b600062003249848285016200310f565b91505092915050565b6000602082840312156200326557600080fd5b6000620032758482850162003126565b91505092915050565b6000806000606084860312156200329457600080fd5b6000620032a4868287016200310f565b9350506020620032b7868287016200310f565b9250506040620032ca868287016200310f565b9150509250925092565b60008060008060008060008060006101208a8c031215620032f457600080fd5b6000620033048c828d016200310f565b9950506020620033178c828d016200310f565b98505060406200332a8c828d016200310f565b97505060606200333d8c828d01620031f8565b9650506080620033508c828d01620031f8565b95505060a0620033638c828d01620031f8565b94505060c0620033768c828d01620031f8565b93505060e0620033898c828d01620031f8565b9250506101006200339d8c828d01620031ca565b9150509295985092959850929598565b600080600060608486031215620033c357600080fd5b600084015167ffffffffffffffff811115620033de57600080fd5b620033ec868287016200313d565b9350506020620033ff868287016200320f565b925050604062003412868287016200320f565b9150509250925092565b6000602082840312156200342f57600080fd5b60006200343f84828501620031ca565b91505092915050565b6000602082840312156200345b57600080fd5b60006200346b84828501620031e1565b91505092915050565b6000602082840312156200348757600080fd5b60006200349784828501620031f8565b91505092915050565b600060208284031215620034b357600080fd5b6000620034c3848285016200320f565b91505092915050565b60008060408385031215620034e057600080fd5b6000620034f085828601620031f8565b925050602062003503858286016200310f565b9150509250929050565b6000806000806000806000806000806101408b8d0312156200352e57600080fd5b60006200353e8d828e016200320f565b9a50506020620035518d828e0162003126565b9950506040620035648d828e016200320f565b9850506060620035778d828e016200320f565b97505060806200358a8d828e016200320f565b96505060a06200359d8d828e016200320f565b95505060c0620035b08d828e01620031e1565b94505060e0620035c38d828e016200320f565b935050610100620035d78d828e016200320f565b925050610120620035eb8d828e016200320f565b9150509295989b9194979a5092959850565b600080604083850312156200361157600080fd5b60006200362185828601620031f8565b92505060206200363485828601620031ca565b9150509250929050565b600080604083850312156200365257600080fd5b60006200366285828601620031f8565b92505060206200367585828601620031f8565b9150509250929050565b60006200368d83836200418c565b60208301905092915050565b620036a48162004817565b82525050565b620036b58162004817565b82525050565b6000620036c882620047bc565b620036d48185620047ea565b9350620036e183620047ac565b8060005b8381101562003718578151620036fc88826200367f565b97506200370983620047dd565b925050600181019050620036e5565b5085935050505092915050565b62003730816200482b565b82525050565b62003741816200482b565b82525050565b60006200375482620047c7565b620037608185620047fb565b93506200377281856020860162004889565b80840191505092915050565b620037898162004861565b82525050565b60006200379c82620047d2565b620037a8818562004806565b9350620037ba81856020860162004889565b620037c581620048bf565b840191505092915050565b6000620037df60318362004806565b91507f41717561734443413a2044434153746f7261676549443a20696e636f7272656360008301527f742073746f7261676520616464726573730000000000000000000000000000006020830152604082019050919050565b60006200384760348362004806565b91507f41717561734443413a2044434153746f726167653a20746f6b656e51756f746560008301527f2063616e6e6f74206265203020616464726573730000000000000000000000006020830152604082019050919050565b6000620038af60298362004806565b91507f496e73756666696369656e7420746f6b656e2028415155415f4144445245535360008301527f292062616c616e636500000000000000000000000000000000000000000000006020830152604082019050919050565b60006200391760328362004806565b91507f41717561734443413a2044656c6574654f726465723a20696e636f727265637460008301527f206f726465725469636b65744e756d62657200000000000000000000000000006020830152604082019050919050565b60006200397f60338362004806565b91507f41717561734443413a2044434153746f726167653a20746f6b656e426173652060008301527f63616e6e6f7420626520302061646472657373000000000000000000000000006020830152604082019050919050565b6000620039e760268362004806565b91507f4f776e61626c653a206e6577206f776e657220697320746865207a65726f206160008301527f64647265737300000000000000000000000000000000000000000000000000006020830152604082019050919050565b600062003a4f60308362004806565b91507f41717561734443413a205f66696e64436f6e7472616374416464726573733a2060008301527f696e636f727265637420726f75746572000000000000000000000000000000006020830152604082019050919050565b600062003ab760188362004806565b91507f41717561734443413a206e65774e4654204164647265737300000000000000006000830152602082019050919050565b600062003af9601b8362004806565b91507f536166654d6174683a206164646974696f6e206f766572666c6f7700000000006000830152602082019050919050565b600062003b3b60268362004806565b91507f416464726573733a20696e73756666696369656e742062616c616e636520666f60008301527f722063616c6c00000000000000000000000000000000000000000000000000006020830152604082019050919050565b600062003ba360258362004806565b91507f41717561734443413a2044434153746f726167653a20696e636f72726563742060008301527f696e6465780000000000000000000000000000000000000000000000000000006020830152604082019050919050565b600062003c0b602f8362004806565b91507f41717561734443413a205f66696e64436f6e7472616374416464726573733a2060008301527f696e636f727265637420746f6b656e00000000000000000000000000000000006020830152604082019050919050565b600062003c7360238362004806565b91507f4e6f2053746f7261676520436f6e747261637420466f756e6420666f7220546f60008301527f6b656e00000000000000000000000000000000000000000000000000000000006020830152604082019050919050565b600062003cdb60308362004806565b91507f41717561734443413a2044434153746f726167653a20726f757465722063616e60008301527f6e6f7420626520302061646472657373000000000000000000000000000000006020830152604082019050919050565b600062003d4360208362004806565b91507f4f776e61626c653a2063616c6c6572206973206e6f7420746865206f776e65726000830152602082019050919050565b600062003d8560308362004806565b91507f41717561734443413a20476574416c6c4f72646572733a20696e636f7272656360008301527f74207472616465722061646472657373000000000000000000000000000000006020830152604082019050919050565b600062003ded60278362004806565b91507f41717561734443413a20476574416c6c4f72646572733a20696e636f7272656360008301527f7420696e646578000000000000000000000000000000000000000000000000006020830152604082019050919050565b600062003e5560278362004806565b91507f41717561734443413a2044434153746f7261676549443a20696e636f7272656360008301527f7420696e646578000000000000000000000000000000000000000000000000006020830152604082019050919050565b600062003ebd601a8362004806565b91507f496e73756666696369656e7420746f6b656e2062616c616e63650000000000006000830152602082019050919050565b600062003eff601d8362004806565b91507f416464726573733a2063616c6c20746f206e6f6e2d636f6e74726163740000006000830152602082019050919050565b600062003f41600e8362004806565b91507f54726164696e67206973206f66660000000000000000000000000000000000006000830152602082019050919050565b600062003f83602a8362004806565b91507f5361666545524332303a204552433230206f7065726174696f6e20646964206e60008301527f6f742073756363656564000000000000000000000000000000000000000000006020830152604082019050919050565b600062003feb60308362004806565b91507f41717561734443413a2044434153746f7261676549443a20696e636f7272656360008301527f7420726f757465722061646472657373000000000000000000000000000000006020830152604082019050919050565b600062004053602f8362004806565b91507f41717561734443413a2044434153746f7261676549443a20696e636f7272656360008301527f7420746f6b656e206164647265737300000000000000000000000000000000006020830152604082019050919050565b61014082016000820151620040c560008501826200418c565b506020820151620040da602085018262003699565b506040820151620040ef60408501826200418c565b5060608201516200410460608501826200418c565b5060808201516200411960808501826200418c565b5060a08201516200412e60a08501826200418c565b5060c08201516200414360c085018262003725565b5060e08201516200415860e08501826200418c565b506101008201516200416f6101008501826200418c565b50610120820151620041866101208501826200418c565b50505050565b620041978162004857565b82525050565b620041a88162004857565b82525050565b6000620041bc828462003747565b915081905092915050565b6000602082019050620041de6000830184620036aa565b92915050565b6000606082019050620041fb6000830186620036aa565b6200420a6020830185620036aa565b6200421960408301846200419d565b949350505050565b600060208201905081810360008301526200423d8184620036bb565b905092915050565b60006020820190506200425c600083018462003736565b92915050565b60006020820190506200427960008301846200377e565b92915050565b600060208201905081810360008301526200429b81846200378f565b905092915050565b60006020820190508181036000830152620042be81620037d0565b9050919050565b60006020820190508181036000830152620042e08162003838565b9050919050565b600060208201905081810360008301526200430281620038a0565b9050919050565b60006020820190508181036000830152620043248162003908565b9050919050565b60006020820190508181036000830152620043468162003970565b9050919050565b600060208201905081810360008301526200436881620039d8565b9050919050565b600060208201905081810360008301526200438a8162003a40565b9050919050565b60006020820190508181036000830152620043ac8162003aa8565b9050919050565b60006020820190508181036000830152620043ce8162003aea565b9050919050565b60006020820190508181036000830152620043f08162003b2c565b9050919050565b60006020820190508181036000830152620044128162003b94565b9050919050565b60006020820190508181036000830152620044348162003bfc565b9050919050565b60006020820190508181036000830152620044568162003c64565b9050919050565b60006020820190508181036000830152620044788162003ccc565b9050919050565b600060208201905081810360008301526200449a8162003d34565b9050919050565b60006020820190508181036000830152620044bc8162003d76565b9050919050565b60006020820190508181036000830152620044de8162003dde565b9050919050565b60006020820190508181036000830152620045008162003e46565b9050919050565b60006020820190508181036000830152620045228162003eae565b9050919050565b60006020820190508181036000830152620045448162003ef0565b9050919050565b60006020820190508181036000830152620045668162003f32565b9050919050565b60006020820190508181036000830152620045888162003f74565b9050919050565b60006020820190508181036000830152620045aa8162003fdc565b9050919050565b60006020820190508181036000830152620045cc8162004044565b9050919050565b600061014082019050620045eb6000830184620040ac565b92915050565b60006020820190506200460860008301846200419d565b92915050565b600060a0820190506200462560008301886200419d565b620046346020830187620036aa565b620046436040830186620036aa565b620046526060830185620036aa565b620046616080830184620036aa565b9695505050505050565b600060c0820190506200468260008301896200419d565b620046916020830188620036aa565b620046a06040830187620036aa565b620046af6060830186620036aa565b620046be6080830185620036aa565b620046cd60a0830184620036aa565b979650505050505050565b600060e082019050620046ef600083018a6200419d565b620046fe60208301896200419d565b6200470d60408301886200419d565b6200471c60608301876200419d565b6200472b60808301866200419d565b6200473a60a08301856200419d565b6200474960c083018462003736565b98975050505050505050565b6000604051905081810181811067ffffffffffffffff821117156200477957600080fd5b8060405250919050565b600067ffffffffffffffff8211156200479b57600080fd5b602082029050602081019050919050565b6000819050602082019050919050565b600081519050919050565b600081519050919050565b600081519050919050565b6000602082019050919050565b600082825260208201905092915050565b600081905092915050565b600082825260208201905092915050565b6000620048248262004837565b9050919050565b60008115159050919050565b600073ffffffffffffffffffffffffffffffffffffffff82169050919050565b6000819050919050565b60006200486e8262004875565b9050919050565b6000620048828262004837565b9050919050565b60005b83811015620048a95780820151818401526020810190506200488c565b83811115620048b9576000848401525b50505050565b6000601f19601f8301169050919050565b620048db8162004817565b8114620048e757600080fd5b50565b620048f5816200482b565b81146200490157600080fd5b50565b6200490f8162004857565b81146200491b57600080fd5b5056fe60806040523480156200001157600080fd5b50604051620049ba380380620049ba833981810160405260c08110156200003757600080fd5b8101908080519060200190929190805190602001909291908051906020019092919080519060200190929190805190602001909291908051906020019092919050505060006200008c6200052e60201b60201c565b9050806000806101000a81548173ffffffffffffffffffffffffffffffffffffffff021916908373ffffffffffffffffffffffffffffffffffffffff1602179055508073ffffffffffffffffffffffffffffffffffffffff16600073ffffffffffffffffffffffffffffffffffffffff167f8be0079c531659141344cd1fd0a4f28419497f9722a3daafe3b4186f6b6457e060405160405180910390a3508560018190555084600660006101000a81548173ffffffffffffffffffffffffffffffffffffffff021916908373ffffffffffffffffffffffffffffffffffffffff16021790555083600260006101000a81548173ffffffffffffffffffffffffffffffffffffffff021916908373ffffffffffffffffffffffffffffffffffffffff16021790555081600460006101000a81548173ffffffffffffffffffffffffffffffffffffffff021916908373ffffffffffffffffffffffffffffffffffffffff16021790555082600360006101000a81548173ffffffffffffffffffffffffffffffffffffffff021916908373ffffffffffffffffffffffffffffffffffffffff16021790555080600560006101000a81548173ffffffffffffffffffffffffffffffffffffffff021916908373ffffffffffffffffffffffffffffffffffffffff160217905550600267ffffffffffffffff811180156200028f57600080fd5b50604051908082528060200260200182016040528015620002bf5781602001602082028036833780820191505090505b50600c9080519060200190620002d792919062000536565b50600360009054906101000a900473ffffffffffffffffffffffffffffffffffffffff16600c6000815481106200030a57fe5b9060005260206000200160006101000a81548173ffffffffffffffffffffffffffffffffffffffff021916908373ffffffffffffffffffffffffffffffffffffffff160217905550600460009054906101000a900473ffffffffffffffffffffffffffffffffffffffff16600c6001815481106200038457fe5b9060005260206000200160006101000a81548173ffffffffffffffffffffffffffffffffffffffff021916908373ffffffffffffffffffffffffffffffffffffffff160217905550600267ffffffffffffffff81118015620003e557600080fd5b50604051908082528060200260200182016040528015620004155781602001602082028036833780820191505090505b50600b90805190602001906200042d92919062000536565b50600460009054906101000a900473ffffffffffffffffffffffffffffffffffffffff16600b6000815481106200046057fe5b9060005260206000200160006101000a81548173ffffffffffffffffffffffffffffffffffffffff021916908373ffffffffffffffffffffffffffffffffffffffff160217905550600360009054906101000a900473ffffffffffffffffffffffffffffffffffffffff16600b600181548110620004da57fe5b9060005260206000200160006101000a81548173ffffffffffffffffffffffffffffffffffffffff021916908373ffffffffffffffffffffffffffffffffffffffff16021790555050505050505062000602565b600033905090565b828054828255906000526020600020908101928215620005b2579160200282015b82811115620005b15782518260006101000a81548173ffffffffffffffffffffffffffffffffffffffff021916908373ffffffffffffffffffffffffffffffffffffffff1602179055509160200191906001019062000557565b5b509050620005c19190620005c5565b5090565b5b80821115620005fe57600081816101000a81549073ffffffffffffffffffffffffffffffffffffffff021916905550600101620005c6565b5090565b6143a880620006126000396000f3fe608060405234801561001057600080fd5b506004361061012c5760003560e01c8063922c7316116100ad578063dc7782a311610071578063dc7782a3146104fe578063ec4ca0f81461051c578063f1e0b56f1461053a578063f2fde38b1461056e578063ffc5ea0d146105b25761012c565b8063922c7316146103d9578063a82ed9ec1461040d578063c949ba9b14610441578063d449a83214610475578063dad675ba146104d05761012c565b806375c653bc116100f457806375c653bc1461029257806384d09e27146102b05780638a2b9e78146103575780638b474f8d146103875780638da5cb5b146103a55761012c565b806306b099af1461013157806328b11bae146101ca57806335245c03146101e857806345e8c81414610254578063715018a614610288575b600080fd5b61015d6004803603602081101561014757600080fd5b810190808035906020019092919050505061064b565b604051808b81526020018a73ffffffffffffffffffffffffffffffffffffffff16815260200189815260200188815260200187815260200186815260200185151581526020018481526020018381526020018281526020019a505050505050505050505060405180910390f35b6101d26106d9565b6040518082815260200191505060405180910390f35b610252600480360360e08110156101fe57600080fd5b810190808035906020019092919080359060200190929190803590602001909291908035906020019092919080359060200190929190803590602001909291908035151590602001909291905050506106df565b005b61025c610e06565b604051808273ffffffffffffffffffffffffffffffffffffffff16815260200191505060405180910390f35b610290610e2c565b005b61029a610f99565b6040518082815260200191505060405180910390f35b6102f2600480360360208110156102c657600080fd5b81019080803573ffffffffffffffffffffffffffffffffffffffff169060200190929190505050610f9f565b6040518080602001848152602001838152602001828103825285818151815260200191508051906020019060200280838360005b83811015610341578082015181840152602081019050610326565b5050505090500194505050505060405180910390f35b6103856004803603602081101561036d57600080fd5b810190808035151590602001909291905050506111cc565b005b61038f611aa6565b6040518082815260200191505060405180910390f35b6103ad611aac565b604051808273ffffffffffffffffffffffffffffffffffffffff16815260200191505060405180910390f35b6103e1611ad5565b604051808273ffffffffffffffffffffffffffffffffffffffff16815260200191505060405180910390f35b610415611afb565b604051808273ffffffffffffffffffffffffffffffffffffffff16815260200191505060405180910390f35b610449611b21565b604051808273ffffffffffffffffffffffffffffffffffffffff16815260200191505060405180910390f35b6104b76004803603602081101561048b57600080fd5b81019080803573ffffffffffffffffffffffffffffffffffffffff169060200190929190505050611b47565b604051808260ff16815260200191505060405180910390f35b6104fc600480360360208110156104e657600080fd5b8101908080359060200190929190505050611bd1565b005b610506611bdf565b6040518082815260200191505060405180910390f35b610524611be5565b6040518082815260200191505060405180910390f35b610542611beb565b604051808273ffffffffffffffffffffffffffffffffffffffff16815260200191505060405180910390f35b6105b06004803603602081101561058457600080fd5b81019080803573ffffffffffffffffffffffffffffffffffffffff169060200190929190505050611c11565b005b6105de600480360360208110156105c857600080fd5b8101908080359060200190929190505050611e03565b604051808b81526020018a73ffffffffffffffffffffffffffffffffffffffff16815260200189815260200188815260200187815260200186815260200185151581526020018481526020018381526020018281526020019a505050505050505050505060405180910390f35b600d818154811061065857fe5b90600052602060002090600a02016000915090508060000154908060010160009054906101000a900473ffffffffffffffffffffffffffffffffffffffff16908060020154908060030154908060040154908060050154908060060160009054906101000a900460ff1690806007015490806008015490806009015490508a565b60015481565b600660009054906101000a900473ffffffffffffffffffffffffffffffffffffffff1673ffffffffffffffffffffffffffffffffffffffff163373ffffffffffffffffffffffffffffffffffffffff16146107a2576040517f08c379a00000000000000000000000000000000000000000000000000000000081526004018080602001828103825260188152602001807f4f6e6c792066726f6d20466163746f727941646472657373000000000000000081525060200191505060405180910390fd5b6001861015610819576040517f08c379a00000000000000000000000000000000000000000000000000000000081526004018080602001828103825260178152602001807f496e636f7272656374205377617020496e74657276616c00000000000000000081525060200191505060405180910390fd5b6001851015610890576040517f08c379a000000000000000000000000000000000000000000000000000000000815260040180806020018281038252601b8152602001807f496e636f7272656374204475726174696f6e20496e74657276616c000000000081525060200191505060405180910390fd5b6001841015610907576040517f08c379a000000000000000000000000000000000000000000000000000000000815260040180806020018281038252601d8152602001807f496e636f727265637420546f6b656e204d696e696d756d20507269636500000081525060200191505060405180910390fd5b83831161097c576040517f08c379a000000000000000000000000000000000000000000000000000000000815260040180806020018281038252601d8152602001807f496e636f727265637420546f6b656e204d6178696d756d20507269636500000081525060200191505060405180910390fd5b60018210156109f3576040517f08c379a000000000000000000000000000000000000000000000000000000000815260040180806020018281038252601f8152602001807f496e73756666696369656e7420546f6b656e20496e70757420416d6f756e740081525060200191505060405180910390fd5b600115158115151480610a0a575060001515811515145b610a7c576040517f08c379a00000000000000000000000000000000000000000000000000000000081526004018080602001828103825260148152602001807f496e636f7272656374204f72646572205479706500000000000000000000000081525060200191505060405180910390fd5b7fffffffffffffffffffffffffffffffffffffffffffffffffffffffffffffffff600a5410610b13576040517f08c379a00000000000000000000000000000000000000000000000000000000081526004018080602001828103825260168152602001807f4d6178696d756d204f726465727320526561636865640000000000000000000081525060200191505060405180910390fd5b6000610b2a610e1087611fdb90919063ffffffff16565b90506000610b41888361206190919063ffffffff16565b90506001811015610bba576040517f08c379a000000000000000000000000000000000000000000000000000000000815260040180806020018281038252601b8152602001807f496e636f727265637420546f74616c205377617020526573756c74000000000081525060200191505060405180910390fd5b610bc2613f88565b8981600001818152505032816020019073ffffffffffffffffffffffffffffffffffffffff16908173ffffffffffffffffffffffffffffffffffffffff1681525050888160400181815250508681606001818152505085816080018181525050848160a0018181525050838160c001901515908115158152505060008161010001818152505060018160e00181815250508181610120018181525050600d8190806001815401808255809150506001900390600052602060002090600a02016000909190919091506000820151816000015560208201518160010160006101000a81548173ffffffffffffffffffffffffffffffffffffffff021916908373ffffffffffffffffffffffffffffffffffffffff16021790555060408201518160020155606082015181600301556080820151816004015560a0820151816005015560c08201518160060160006101000a81548160ff02191690831515021790555060e082015181600701556101008201518160080155610120820151816009015550507fc39f5b489956697850df4e848a5546d7a042a17c537e1d61207b4f7e9ce4b0c98a600154328c8c8c8c8c8c604051808a81526020018981526020018873ffffffffffffffffffffffffffffffffffffffff1681526020018781526020018681526020018581526020018481526020018381526020018215158152602001995050505050505050505060405180910390a1600a6000815480929190600101919050555060086000815480929190600101919050555050505050505050505050565b600560009054906101000a900473ffffffffffffffffffffffffffffffffffffffff1681565b610e346120ea565b73ffffffffffffffffffffffffffffffffffffffff16610e52611aac565b73ffffffffffffffffffffffffffffffffffffffff1614610edb576040517f08c379a00000000000000000000000000000000000000000000000000000000081526004018080602001828103825260208152602001807f4f776e61626c653a2063616c6c6572206973206e6f7420746865206f776e657281525060200191505060405180910390fd5b600073ffffffffffffffffffffffffffffffffffffffff1660008054906101000a900473ffffffffffffffffffffffffffffffffffffffff1673ffffffffffffffffffffffffffffffffffffffff167f8be0079c531659141344cd1fd0a4f28419497f9722a3daafe3b4186f6b6457e060405160405180910390a360008060006101000a81548173ffffffffffffffffffffffffffffffffffffffff021916908373ffffffffffffffffffffffffffffffffffffffff160217905550565b60085481565b60606000806000600d8054905090506001811015611025576040517f08c379a000000000000000000000000000000000000000000000000000000000815260040180806020018281038252601e8152602001807f496e73756666696369656e74206f72646572206c697374206c656e677468000081525060200191505060405180910390fd5b60008060608367ffffffffffffffff8111801561104157600080fd5b506040519080825280602002602001820160405280156110705781602001602082028036833780820191505090505b50905060005b848110156111b7578873ffffffffffffffffffffffffffffffffffffffff16600d82815481106110a257fe5b90600052602060002090600a020160010160009054906101000a900473ffffffffffffffffffffffffffffffffffffffff1673ffffffffffffffffffffffffffffffffffffffff1614156111aa57600d81815481106110fd57fe5b90600052602060002090600a02016000015482828151811061111b57fe5b60200260200101818152505060011515600d828154811061113857fe5b90600052602060002090600a020160060160009054906101000a900460ff16151514156111685783806001019450505b60001515600d828154811061117957fe5b90600052602060002090600a020160060160009054906101000a900460ff16151514156111a95782806001019350505b5b8080600101915050611076565b50808383965096509650505050509193909250565b600080600d8054905090506000806000905060608367ffffffffffffffff811180156111f757600080fd5b506040519080825280602002602001820160405280156112265781602001602082028036833780820191505090505b50905060005b8481101561127a577fffffffffffffffffffffffffffffffffffffffffffffffffffffffffffffffff82828151811061126157fe5b602002602001018181525050808060010191505061122c565b5060005b84811015611a185760006112d7600d838154811061129857fe5b90600052602060002090600a020160090154600d84815481106112b757fe5b90600052602060002090600a02016005015461206190919063ffffffff16565b9050600061130c600d84815481106112eb57fe5b90600052602060002090600a020160020154426120f290919063ffffffff16565b9050600d838154811061131b57fe5b90600052602060002090600a020160090154600d848154811061133a57fe5b90600052602060002090600a020160070154116119d15761139f600360009054906101000a900473ffffffffffffffffffffffffffffffffffffffff16600460009054906101000a900473ffffffffffffffffffffffffffffffffffffffff16612175565b955085600d84815481106113af57fe5b90600052602060002090600a0201600301541080156113eb575085600d84815481106113d757fe5b90600052602060002090600a020160040154115b156119cc5760011515600d848154811061140157fe5b90600052602060002090600a020160060160009054906101000a900460ff161515148015611433575060011515891515145b156116df576114438260016125cc565b945080600d848154811061145357fe5b90600052602060002090600a020160080154108015611473575060018210155b8015611480575060018510155b156116da57611514600460009054906101000a900473ffffffffffffffffffffffffffffffffffffffff16600360009054906101000a900473ffffffffffffffffffffffffffffffffffffffff168488600d88815481106114dd57fe5b90600052602060002090600a020160010160009054906101000a900473ffffffffffffffffffffffffffffffffffffffff166129c9565b42600d848154811061152257fe5b90600052602060002090600a020160080181905550600d838154811061154457fe5b90600052602060002090600a0201600701600081548092919060010191905055508780600101985050600d838154811061157a57fe5b90600052602060002090600a020160090154600d848154811061159957fe5b90600052602060002090600a02016007015411156115e957600d83815481106115be57fe5b90600052602060002090600a0201600001548484815181106115dc57fe5b6020026020010181815250505b6116d9600d84815481106115f957fe5b90600052602060002090600a020160405180610140016040529081600082015481526020016001820160009054906101000a900473ffffffffffffffffffffffffffffffffffffffff1673ffffffffffffffffffffffffffffffffffffffff1673ffffffffffffffffffffffffffffffffffffffff168152602001600282015481526020016003820154815260200160048201548152602001600582015481526020016006820160009054906101000a900460ff161515151581526020016007820154815260200160088201548152602001600982015481525050612f84565b5b6119cb565b60001515600d84815481106116f057fe5b90600052602060002090600a020160060160009054906101000a900460ff161515148015611722575060001515891515145b156119ca576117328260006125cc565b945080600d848154811061174257fe5b90600052602060002090600a020160080154108015611762575060018210155b801561176f575060018510155b156119c957611803600360009054906101000a900473ffffffffffffffffffffffffffffffffffffffff16600460009054906101000a900473ffffffffffffffffffffffffffffffffffffffff168488600d88815481106117cc57fe5b90600052602060002090600a020160010160009054906101000a900473ffffffffffffffffffffffffffffffffffffffff166129c9565b42600d848154811061181157fe5b90600052602060002090600a020160080181905550600d838154811061183357fe5b90600052602060002090600a0201600701600081548092919060010191905055508780600101985050600d838154811061186957fe5b90600052602060002090600a020160090154600d848154811061188857fe5b90600052602060002090600a02016007015411156118d857600d83815481106118ad57fe5b90600052602060002090600a0201600001548484815181106118cb57fe5b6020026020010181815250505b6119c8600d84815481106118e857fe5b90600052602060002090600a020160405180610140016040529081600082015481526020016001820160009054906101000a900473ffffffffffffffffffffffffffffffffffffffff1673ffffffffffffffffffffffffffffffffffffffff1673ffffffffffffffffffffffffffffffffffffffff168152602001600282015481526020016003820154815260200160048201548152602001600582015481526020016006820160009054906101000a900460ff161515151581526020016007820154815260200160088201548152602001600982015481525050612f84565b5b5b5b5b611a09565b600d83815481106119de57fe5b90600052602060002090600a0201600001548484815181106119fc57fe5b6020026020010181815250505b5050808060010191505061127e565b5060005b84811015611a82576000828281518110611a3257fe5b602002602001015190507fffffffffffffffffffffffffffffffffffffffffffffffffffffffffffffffff8114611a7457611a6e816001613052565b50611a82565b508080600101915050611a1c565b50611a98856009546137a290919063ffffffff16565b600981905550505050505050565b60095481565b60008060009054906101000a900473ffffffffffffffffffffffffffffffffffffffff16905090565b600660009054906101000a900473ffffffffffffffffffffffffffffffffffffffff1681565b600260009054906101000a900473ffffffffffffffffffffffffffffffffffffffff1681565b600460009054906101000a900473ffffffffffffffffffffffffffffffffffffffff1681565b60008173ffffffffffffffffffffffffffffffffffffffff1663313ce5676040518163ffffffff1660e01b815260040160206040518083038186803b158015611b8f57600080fd5b505afa158015611ba3573d6000803e3d6000fd5b505050506040513d6020811015611bb957600080fd5b81019080805190602001909291905050509050919050565b611bdc816000613052565b50565b600a5481565b60075481565b600360009054906101000a900473ffffffffffffffffffffffffffffffffffffffff1681565b611c196120ea565b73ffffffffffffffffffffffffffffffffffffffff16611c37611aac565b73ffffffffffffffffffffffffffffffffffffffff1614611cc0576040517f08c379a00000000000000000000000000000000000000000000000000000000081526004018080602001828103825260208152602001807f4f776e61626c653a2063616c6c6572206973206e6f7420746865206f776e657281525060200191505060405180910390fd5b600073ffffffffffffffffffffffffffffffffffffffff168173ffffffffffffffffffffffffffffffffffffffff161415611d46576040517f08c379a00000000000000000000000000000000000000000000000000000000081526004018080602001828103825260268152602001806141b66026913960400191505060405180910390fd5b8073ffffffffffffffffffffffffffffffffffffffff1660008054906101000a900473ffffffffffffffffffffffffffffffffffffffff1673ffffffffffffffffffffffffffffffffffffffff167f8be0079c531659141344cd1fd0a4f28419497f9722a3daafe3b4186f6b6457e060405160405180910390a3806000806101000a81548173ffffffffffffffffffffffffffffffffffffffff021916908373ffffffffffffffffffffffffffffffffffffffff16021790555050565b60008060008060008060008060008060005b600d80549050811015611fcd578b600d8281548110611e3057fe5b90600052602060002090600a0201600001541415611fc057600d8181548110611e5557fe5b90600052602060002090600a0201600001549a50600d8181548110611e7657fe5b90600052602060002090600a020160010160009054906101000a900473ffffffffffffffffffffffffffffffffffffffff169950600d8181548110611eb757fe5b90600052602060002090600a0201600201549850600d8181548110611ed857fe5b90600052602060002090600a0201600301549750600d8181548110611ef957fe5b90600052602060002090600a0201600401549650600d8181548110611f1a57fe5b90600052602060002090600a0201600501549550600d8181548110611f3b57fe5b90600052602060002090600a020160060160009054906101000a900460ff169450600d8181548110611f6957fe5b90600052602060002090600a0201600701549350600d8181548110611f8a57fe5b90600052602060002090600a0201600801549250600d8181548110611fab57fe5b90600052602060002090600a02016009015491505b8080600101915050611e15565b509193959799509193959799565b600080831415611fee576000905061205b565b6000828402905082848281611fff57fe5b0414612056576040517f08c379a000000000000000000000000000000000000000000000000000000000815260040180806020018281038252602181526020018061427d6021913960400191505060405180910390fd5b809150505b92915050565b60008082116120d8576040517f08c379a000000000000000000000000000000000000000000000000000000000815260040180806020018281038252601a8152602001807f536166654d6174683a206469766973696f6e206279207a65726f00000000000081525060200191505060405180910390fd5b8183816120e157fe5b04905092915050565b600033905090565b60008282111561216a576040517f08c379a000000000000000000000000000000000000000000000000000000000815260040180806020018281038252601e8152602001807f536166654d6174683a207375627472616374696f6e206f766572666c6f77000081525060200191505060405180910390fd5b818303905092915050565b6000806103e890506000670de0b6b3a76400009050600061219586611b47565b90506000600190506000600a905060008360ff16116121ff576040517f08c379a00000000000000000000000000000000000000000000000000000000081526004018080602001828103825260268152602001806142576026913960400191505060405180910390fd5b60128360ff161461221b578260ff168160ff160a8260ff160293505b84841015612274576040517f08c379a000000000000000000000000000000000000000000000000000000000815260040180806020018281038252602b8152602001806141dc602b913960400191505060405180910390fd5b600267ffffffffffffffff8111801561228c57600080fd5b506040519080825280602002602001820160405280156122bb5781602001602082028036833780820191505090505b50600c90805190602001906122d1929190613ff3565b5087600c6000815481106122e157fe5b9060005260206000200160006101000a81548173ffffffffffffffffffffffffffffffffffffffff021916908373ffffffffffffffffffffffffffffffffffffffff16021790555086600c60018154811061233857fe5b9060005260206000200160006101000a81548173ffffffffffffffffffffffffffffffffffffffff021916908373ffffffffffffffffffffffffffffffffffffffff1602179055506000612395868661206190919063ffffffff16565b905060008111156125bf576060600260009054906101000a900473ffffffffffffffffffffffffffffffffffffffff1673ffffffffffffffffffffffffffffffffffffffff16634955796c83600c6103e56040518463ffffffff1660e01b81526004018084815260200180602001838152602001828103825284818154815260200191508054801561247c57602002820191906000526020600020905b8160009054906101000a900473ffffffffffffffffffffffffffffffffffffffff1673ffffffffffffffffffffffffffffffffffffffff1681526020019060010190808311612432575b505094505050505060006040518083038186803b15801561249c57600080fd5b505afa1580156124b0573d6000803e3d6000fd5b505050506040513d6000823e3d601f19601f8201168201806040525060208110156124da57600080fd5b81019080805160405193929190846401000000008211156124fa57600080fd5b8382019150602082018581111561251057600080fd5b825186602082028301116401000000008211171561252d57600080fd5b8083526020830192505050908051906020019060200280838360005b83811015612564578082015181840152602081019050612549565b5050505090500160405250505090506000816001600c80549050038151811061258957fe5b602002602001015190506125a68882611fdb90919063ffffffff16565b90508060078190555080985050505050505050506125c6565b5050505050505b92915050565b60008082156127cc576060600260009054906101000a900473ffffffffffffffffffffffffffffffffffffffff1673ffffffffffffffffffffffffffffffffffffffff16634955796c86600b6103e56040518463ffffffff1660e01b8152600401808481526020018060200183815260200182810382528481815481526020019150805480156126b157602002820191906000526020600020905b8160009054906101000a900473ffffffffffffffffffffffffffffffffffffffff1673ffffffffffffffffffffffffffffffffffffffff1681526020019060010190808311612667575b505094505050505060006040518083038186803b1580156126d157600080fd5b505afa1580156126e5573d6000803e3d6000fd5b505050506040513d6000823e3d601f19601f82011682018060405250602081101561270f57600080fd5b810190808051604051939291908464010000000082111561272f57600080fd5b8382019150602082018581111561274557600080fd5b825186602082028301116401000000008211171561276257600080fd5b8083526020830192505050908051906020019060200280838360005b8381101561279957808201518184015260208101905061277e565b505050509050016040525050509050806001600b8054905003815181106127bc57fe5b60200260200101519150506129bf565b6060600260009054906101000a900473ffffffffffffffffffffffffffffffffffffffff1673ffffffffffffffffffffffffffffffffffffffff16634955796c86600c6103e56040518463ffffffff1660e01b8152600401808481526020018060200183815260200182810382528481815481526020019150805480156128a857602002820191906000526020600020905b8160009054906101000a900473ffffffffffffffffffffffffffffffffffffffff1673ffffffffffffffffffffffffffffffffffffffff168152602001906001019080831161285e575b505094505050505060006040518083038186803b1580156128c857600080fd5b505afa1580156128dc573d6000803e3d6000fd5b505050506040513d6000823e3d601f19601f82011682018060405250602081101561290657600080fd5b810190808051604051939291908464010000000082111561292657600080fd5b8382019150602082018581111561293c57600080fd5b825186602082028301116401000000008211171561295957600080fd5b8083526020830192505050908051906020019060200280838360005b83811015612990578082015181840152602081019050612975565b505050509050016040525050509050806001600c8054905003815181106129b357fe5b60200260200101519150505b8091505092915050565b6001831015612a23576040517f08c379a000000000000000000000000000000000000000000000000000000000815260040180806020018281038252602281526020018061416f6022913960400191505060405180910390fd5b6001821015612a7d576040517f08c379a00000000000000000000000000000000000000000000000000000000081526004018080602001828103825260238152602001806143506023913960400191505060405180910390fd5b600073ffffffffffffffffffffffffffffffffffffffff168573ffffffffffffffffffffffffffffffffffffffff161415612b03576040517f08c379a00000000000000000000000000000000000000000000000000000000081526004018080602001828103825260298152602001806142fd6029913960400191505060405180910390fd5b600073ffffffffffffffffffffffffffffffffffffffff168473ffffffffffffffffffffffffffffffffffffffff161415612b89576040517f08c379a000000000000000000000000000000000000000000000000000000000815260040180806020018281038252602a815260200180614207602a913960400191505060405180910390fd5b600073ffffffffffffffffffffffffffffffffffffffff168173ffffffffffffffffffffffffffffffffffffffff161415612c0f576040517f08c379a00000000000000000000000000000000000000000000000000000000081526004018080602001828103825260258152602001806141916025913960400191505060405180910390fd5b8473ffffffffffffffffffffffffffffffffffffffff1663095ea7b3600260009054906101000a900473ffffffffffffffffffffffffffffffffffffffff16856040518363ffffffff1660e01b8152600401808373ffffffffffffffffffffffffffffffffffffffff16815260200182815260200192505050602060405180830381600087803b158015612ca257600080fd5b505af1158015612cb6573d6000803e3d6000fd5b505050506040513d6020811015612ccc57600080fd5b8101908080519060200190929190505050506060600267ffffffffffffffff81118015612cf857600080fd5b50604051908082528060200260200182016040528015612d275781602001602082028036833780820191505090505b5090508581600081518110612d3857fe5b602002602001019073ffffffffffffffffffffffffffffffffffffffff16908173ffffffffffffffffffffffffffffffffffffffff16815250508481600181518110612d8057fe5b602002602001019073ffffffffffffffffffffffffffffffffffffffff16908173ffffffffffffffffffffffffffffffffffffffff1681525050600260009054906101000a900473ffffffffffffffffffffffffffffffffffffffff1673ffffffffffffffffffffffffffffffffffffffff166338ed173985858486426040518663ffffffff1660e01b815260040180868152602001858152602001806020018473ffffffffffffffffffffffffffffffffffffffff168152602001838152602001828103825285818151815260200191508051906020019060200280838360005b83811015612e7d578082015181840152602081019050612e62565b505050509050019650505050505050600060405180830381600087803b158015612ea657600080fd5b505af1158015612eba573d6000803e3d6000fd5b505050506040513d6000823e3d601f19601f820116820180604052506020811015612ee457600080fd5b8101908080516040519392919084640100000000821115612f0457600080fd5b83820191506020820185811115612f1a57600080fd5b8251866020820283011164010000000082111715612f3757600080fd5b8083526020830192505050908051906020019060200280838360005b83811015612f6e578082015181840152602081019050612f53565b5050505090500160405250505050505050505050565b7fe9a00e06037f5febd6a711e8d956dd587f873e20ca83e318f4660bdaf82f5961816000015160015483602001518460400151856060015186608001518760a001518860c001518960e001518a61010001518b6101200151604051808c81526020018b81526020018a73ffffffffffffffffffffffffffffffffffffffff16815260200189815260200188815260200187815260200186815260200185151581526020018481526020018381526020018281526020019b50505050505050505050505060405180910390a150565b600080600d80549050905060008060018310156130d7576040517f08c379a000000000000000000000000000000000000000000000000000000000815260040180806020018281038252601b8152602001807f496e636f7272656374204f7264657220496e64657820676976656e000000000081525060200191505060405180910390fd5b60005b838110156135115785156132be5786600d82815481106130f657fe5b90600052602060002090600a02016000015414156132b957600061315f600d838154811061312057fe5b90600052602060002090600a020160090154600d848154811061313f57fe5b90600052602060002090600a02016005015461206190919063ffffffff16565b905060006131976001600d858154811061317557fe5b90600052602060002090600a0201600701540383611fdb90919063ffffffff16565b905060006131cc82600d86815481106131ac57fe5b90600052602060002090600a0201600501546120f290919063ffffffff16565b905060011515600d85815481106131df57fe5b90600052602060002090600a020160060160009054906101000a900460ff16151514156132535761324e600d858154811061321657fe5b90600052602060002090600a020160010160009054906101000a900473ffffffffffffffffffffffffffffffffffffffff168261382a565b61329c565b61329b600d858154811061326357fe5b90600052602060002090600a020160010160009054906101000a900473ffffffffffffffffffffffffffffffffffffffff168261397b565b5b6001975083955087156132b157505050613511565b505050613504565b613503565b3273ffffffffffffffffffffffffffffffffffffffff16600d82815481106132e257fe5b90600052602060002090600a020160010160009054906101000a900473ffffffffffffffffffffffffffffffffffffffff1673ffffffffffffffffffffffffffffffffffffffff1614156135025786600d828154811061333e57fe5b90600052602060002090600a02016000015414156135015760006133a7600d838154811061336857fe5b90600052602060002090600a020160090154600d848154811061338757fe5b90600052602060002090600a02016005015461206190919063ffffffff16565b905060006133df6001600d85815481106133bd57fe5b90600052602060002090600a0201600701540383611fdb90919063ffffffff16565b9050600061341482600d86815481106133f457fe5b90600052602060002090600a0201600501546120f290919063ffffffff16565b905060011515600d858154811061342757fe5b90600052602060002090600a020160060160009054906101000a900460ff161515141561349b57613496600d858154811061345e57fe5b90600052602060002090600a020160010160009054906101000a900473ffffffffffffffffffffffffffffffffffffffff168261382a565b6134e4565b6134e3600d85815481106134ab57fe5b90600052602060002090600a020160010160009054906101000a900473ffffffffffffffffffffffffffffffffffffffff168261397b565b5b6001975083955087156134f957505050613511565b505050613504565b5b5b5b80806001019150506130da565b50831561377f576001831461376d5760008290505b6001840381101561365e57600d600182018154811061354157fe5b90600052602060002090600a0201600d828154811061355c57fe5b90600052602060002090600a0201600082015481600001556001820160009054906101000a900473ffffffffffffffffffffffffffffffffffffffff168160010160006101000a81548173ffffffffffffffffffffffffffffffffffffffff021916908373ffffffffffffffffffffffffffffffffffffffff160217905550600282015481600201556003820154816003015560048201548160040155600582015481600501556006820160009054906101000a900460ff168160060160006101000a81548160ff0219169083151502179055506007820154816007015560088201548160080155600982015481600901559050508080600101915050613526565b507fe42e84d3479ff44170d4370e19c3ff6685c784eef36bbbd1dbd438ad91244225600d600185038154811061369057fe5b90600052602060002090600a020160000154600154604051808381526020018281526020019250505060405180910390a1600d8054806136cc57fe5b60019003818190600052602060002090600a02016000808201600090556001820160006101000a81549073ffffffffffffffffffffffffffffffffffffffff021916905560028201600090556003820160009055600482016000905560058201600090556006820160006101000a81549060ff021916905560078201600090556008820160009055600982016000905550509055808060010191505061377e565b808060010191505061377d613acc565b5b5b613794816008546120f290919063ffffffff16565b600881905550505050505050565b600080828401905083811015613820576040517f08c379a000000000000000000000000000000000000000000000000000000000815260040180806020018281038252601b8152602001807f536166654d6174683a206164646974696f6e206f766572666c6f77000000000081525060200191505060405180910390fd5b8091505092915050565b6000600460009054906101000a900473ffffffffffffffffffffffffffffffffffffffff169050818173ffffffffffffffffffffffffffffffffffffffff166370a08231306040518263ffffffff1660e01b8152600401808273ffffffffffffffffffffffffffffffffffffffff16815260200191505060206040518083038186803b1580156138b957600080fd5b505afa1580156138cd573d6000803e3d6000fd5b505050506040513d60208110156138e357600080fd5b8101908080519060200190929190505050101561394b576040517f08c379a000000000000000000000000000000000000000000000000000000000815260040180806020018281038252602f81526020018061429e602f913960400191505060405180910390fd5b61397683838373ffffffffffffffffffffffffffffffffffffffff16613b579092919063ffffffff16565b505050565b6000600360009054906101000a900473ffffffffffffffffffffffffffffffffffffffff169050818173ffffffffffffffffffffffffffffffffffffffff166370a08231306040518263ffffffff1660e01b8152600401808273ffffffffffffffffffffffffffffffffffffffff16815260200191505060206040518083038186803b158015613a0a57600080fd5b505afa158015613a1e573d6000803e3d6000fd5b505050506040513d6020811015613a3457600080fd5b81019080805190602001909291905050501015613a9c576040517f08c379a00000000000000000000000000000000000000000000000000000000081526004018080602001828103825260308152602001806142cd6030913960400191505060405180910390fd5b613ac783838373ffffffffffffffffffffffffffffffffffffffff16613b579092919063ffffffff16565b505050565b6001600d8054905014613b47576040517f08c379a000000000000000000000000000000000000000000000000000000000815260040180806020018281038252601c8152602001807f4f726465724c69737420646f6573206e6f7420657175616c206f6e650000000081525060200191505060405180910390fd5b600d6000613b55919061407d565b565b613bf48363a9059cbb60e01b8484604051602401808373ffffffffffffffffffffffffffffffffffffffff16815260200182815260200192505050604051602081830303815290604052907bffffffffffffffffffffffffffffffffffffffffffffffffffffffff19166020820180517bffffffffffffffffffffffffffffffffffffffffffffffffffffffff8381831617835250505050613bf9565b505050565b6060613c5b826040518060400160405280602081526020017f5361666545524332303a206c6f772d6c6576656c2063616c6c206661696c65648152508573ffffffffffffffffffffffffffffffffffffffff16613ce89092919063ffffffff16565b9050600081511115613ce357808060200190516020811015613c7c57600080fd5b8101908080519060200190929190505050613ce2576040517f08c379a000000000000000000000000000000000000000000000000000000000815260040180806020018281038252602a815260200180614326602a913960400191505060405180910390fd5b5b505050565b6060613cf78484600085613d00565b90509392505050565b606082471015613d5b576040517f08c379a00000000000000000000000000000000000000000000000000000000081526004018080602001828103825260268152602001806142316026913960400191505060405180910390fd5b613d6485613ea9565b613dd6576040517f08c379a000000000000000000000000000000000000000000000000000000000815260040180806020018281038252601d8152602001807f416464726573733a2063616c6c20746f206e6f6e2d636f6e747261637400000081525060200191505060405180910390fd5b600060608673ffffffffffffffffffffffffffffffffffffffff1685876040518082805190602001908083835b60208310613e265780518252602082019150602081019050602083039250613e03565b6001836020036101000a03801982511681845116808217855250505050505090500191505060006040518083038185875af1925050503d8060008114613e88576040519150601f19603f3d011682016040523d82523d6000602084013e613e8d565b606091505b5091509150613e9d828286613ebc565b92505050949350505050565b600080823b905060008111915050919050565b60608315613ecc57829050613f81565b600083511115613edf5782518084602001fd5b816040517f08c379a00000000000000000000000000000000000000000000000000000000081526004018080602001828103825283818151815260200191508051906020019080838360005b83811015613f46578082015181840152602081019050613f2b565b50505050905090810190601f168015613f735780820380516001836020036101000a031916815260200191505b509250505060405180910390fd5b9392505050565b60405180610140016040528060008152602001600073ffffffffffffffffffffffffffffffffffffffff168152602001600081526020016000815260200160008152602001600081526020016000151581526020016000815260200160008152602001600081525090565b82805482825590600052602060002090810192821561406c579160200282015b8281111561406b5782518260006101000a81548173ffffffffffffffffffffffffffffffffffffffff021916908373ffffffffffffffffffffffffffffffffffffffff16021790555091602001919060010190614013565b5b50905061407991906140a1565b5090565b50805460008255600a029060005260206000209081019061409e91906140dc565b50565b5b808211156140d857600081816101000a81549073ffffffffffffffffffffffffffffffffffffffff0219169055506001016140a2565b5090565b5b8082111561416a576000808201600090556001820160006101000a81549073ffffffffffffffffffffffffffffffffffffffff021916905560028201600090556003820160009055600482016000905560058201600090556006820160006101000a81549060ff021916905560078201600090556008820160009055600982016000905550600a016140dd565b509056fe537761703a20496e73756666696369656e7420546f6b656e20496e20416d6f756e74537761703a205f746f2063616e6e6f7420626520746865207a65726f20616464726573732e4f776e61626c653a206e6577206f776e657220697320746865207a65726f20616464726573734171756173466565643a204d697373696e6720546f6b656e51756f746520496e70757420416d6f756e7473537761703a20746f6b656e4f75742063616e6e6f7420626520746865207a65726f20616464726573732e416464726573733a20696e73756666696369656e742062616c616e636520666f722063616c6c4171756173466565643a204d697373696e6720546f6b656e51756f746520446563696d616c73536166654d6174683a206d756c7469706c69636174696f6e206f766572666c6f77496e73756666696369656e74204f72646572426f6f6b53746f7261676520746f6b656e626173652062616c616e6365496e73756666696369656e74204f72646572426f6f6b53746f7261676520746f6b656e71756f74652062616c616e6365537761703a20746f6b656e496e2063616e6e6f7420626520746865207a65726f20616464726573732e5361666545524332303a204552433230206f7065726174696f6e20646964206e6f742073756363656564537761703a496e73756666696369656e7420546f6b656e204f7574204d696e696d756da2646970667358221220754e5e541b870a2153e24db1f938d04dec4159ce7857e8fd24df5f50efd527dc64736f6c634300060c0033a2646970667358221220ee448a1434eab52530b70cac67d8d4de78ab0ca615bdb320e92389316cde71af64736f6c634300060c0033",
  "devdoc": {
    "kind": "dev",
    "methods": {
      "owner()": {
        "details": "Returns the address of the current owner."
      },
      "renounceOwnership()": {
        "details": "Leaves the contract without owner. It will not be possible to call `onlyOwner` functions anymore. Can only be called by the current owner. NOTE: Renouncing ownership will leave the contract without an owner, thereby removing any functionality that is only available to the owner."
      },
      "transferOwnership(address)": {
        "details": "Transfers ownership of the contract to a new account (`newOwner`). Can only be called by the current owner."
      }
    },
    "version": 1
  },
  "userdoc": {
    "kind": "user",
    "methods": {},
    "version": 1
  },
  "storageLayout": {
    "storage": [
      {
        "astId": 3523,
        "contract": "contracts/dca/AquasDCAMulti.sol:AquasDCAMulti",
        "label": "_owner",
        "offset": 0,
        "slot": "0",
        "type": "t_address"
      },
      {
        "astId": 15799,
        "contract": "contracts/dca/AquasDCAMulti.sol:AquasDCAMulti",
        "label": "NFTAddress",
        "offset": 0,
        "slot": "1",
        "type": "t_address"
      },
      {
        "astId": 15801,
        "contract": "contracts/dca/AquasDCAMulti.sol:AquasDCAMulti",
        "label": "TradingEnabled",
        "offset": 20,
        "slot": "1",
        "type": "t_bool"
      },
      {
        "astId": 15803,
        "contract": "contracts/dca/AquasDCAMulti.sol:AquasDCAMulti",
        "label": "Relayer",
        "offset": 0,
        "slot": "2",
        "type": "t_address"
      },
      {
        "astId": 15805,
        "contract": "contracts/dca/AquasDCAMulti.sol:AquasDCAMulti",
        "label": "EntryFee",
        "offset": 0,
        "slot": "3",
        "type": "t_uint256"
      },
      {
        "astId": 15808,
        "contract": "contracts/dca/AquasDCAMulti.sol:AquasDCAMulti",
        "label": "MAX_ORDERS",
        "offset": 0,
        "slot": "4",
        "type": "t_uint256"
      },
      {
        "astId": 15810,
        "contract": "contracts/dca/AquasDCAMulti.sol:AquasDCAMulti",
        "label": "StorageID",
        "offset": 0,
        "slot": "5",
        "type": "t_uint256"
      },
      {
        "astId": 15814,
        "contract": "contracts/dca/AquasDCAMulti.sol:AquasDCAMulti",
        "label": "allStorages",
        "offset": 0,
        "slot": "6",
        "type": "t_mapping(t_uint256,t_contract(DCAStorage)18773)"
      },
      {
        "astId": 15816,
        "contract": "contracts/dca/AquasDCAMulti.sol:AquasDCAMulti",
        "label": "AQUA_ADDRESS",
        "offset": 0,
        "slot": "7",
        "type": "t_address"
      },
      {
        "astId": 15818,
        "contract": "contracts/dca/AquasDCAMulti.sol:AquasDCAMulti",
        "label": "index",
        "offset": 0,
        "slot": "8",
        "type": "t_uint256"
      }
    ],
    "types": {
      "t_address": {
        "encoding": "inplace",
        "label": "address",
        "numberOfBytes": "20"
      },
      "t_bool": {
        "encoding": "inplace",
        "label": "bool",
        "numberOfBytes": "1"
      },
      "t_contract(DCAStorage)18773": {
        "encoding": "inplace",
        "label": "contract DCAStorage",
        "numberOfBytes": "20"
      },
      "t_mapping(t_uint256,t_contract(DCAStorage)18773)": {
        "encoding": "mapping",
        "key": "t_uint256",
        "label": "mapping(uint256 => contract DCAStorage)",
        "numberOfBytes": "32",
        "value": "t_contract(DCAStorage)18773"
      },
      "t_uint256": {
        "encoding": "inplace",
        "label": "uint256",
        "numberOfBytes": "32"
      }
    }
  }
}