{
  "address": "0x980FA9c3F0837E9E03F5ab255D0fB938Acee26c1",
  "abi": [
    {
      "inputs": [
        {
          "internalType": "address",
          "name": "_aqua",
          "type": "address"
        }
      ],
      "stateMutability": "payable",
      "type": "constructor"
    },
    {
      "inputs": [],
      "name": "Aqua",
      "outputs": [
        {
          "internalType": "address",
          "name": "",
          "type": "address"
        }
      ],
      "stateMutability": "view",
      "type": "function"
    },
    {
      "inputs": [],
      "name": "LastAirDropToken",
      "outputs": [
        {
          "internalType": "contract IERC20",
          "name": "",
          "type": "address"
        }
      ],
      "stateMutability": "view",
      "type": "function"
    },
    {
      "inputs": [
        {
          "internalType": "address",
          "name": "tokenAddress",
          "type": "address"
        },
        {
          "internalType": "address[]",
          "name": "addresses",
          "type": "address[]"
        },
        {
          "internalType": "uint256[]",
          "name": "values",
          "type": "uint256[]"
        }
      ],
      "name": "doAirdrop",
      "outputs": [
        {
          "internalType": "uint256",
          "name": "",
          "type": "uint256"
        }
      ],
      "stateMutability": "nonpayable",
      "type": "function"
    },
    {
      "inputs": [],
      "name": "withdraw",
      "outputs": [],
      "stateMutability": "nonpayable",
      "type": "function"
    }
  ],
  "transactionHash": "0x0caffa612849e7e322ba7e2a4888e298bb58fb8a33e934ea7c693284297ade93",
  "args": [
    "0x74f63Fd5F06e2A8B19409e0b3959941276c66f8C"
  ],
  "numDeployments": 2,
  "solcInputHash": "e29a9e8d98d810474638a3ac379f65b1",
  "bytecode": "0x608060405260405161081d38038061081d8339818101604052602081101561002657600080fd5b8101908080519060200190929190505050600073ffffffffffffffffffffffffffffffffffffffff168173ffffffffffffffffffffffffffffffffffffffff1614156100bd576040517f08c379a00000000000000000000000000000000000000000000000000000000081526004018080602001828103825260238152602001806107fa6023913960400191505060405180910390fd5b806000806101000a81548173ffffffffffffffffffffffffffffffffffffffff021916908373ffffffffffffffffffffffffffffffffffffffff16021790555033600160006101000a81548173ffffffffffffffffffffffffffffffffffffffff021916908373ffffffffffffffffffffffffffffffffffffffff160217905550506106ac8061014e6000396000f3fe608060405234801561001057600080fd5b506004361061004c5760003560e01c80632f1afbac146100515780633ccfd60b146101535780636560cb251461015d578063e5aa2ff514610191575b600080fd5b61013d6004803603606081101561006757600080fd5b81019080803573ffffffffffffffffffffffffffffffffffffffff169060200190929190803590602001906401000000008111156100a457600080fd5b8201836020820111156100b657600080fd5b803590602001918460208302840111640100000000831117156100d857600080fd5b9091929391929390803590602001906401000000008111156100f957600080fd5b82018360208201111561010b57600080fd5b8035906020019184602083028401116401000000008311171561012d57600080fd5b90919293919293905050506101c5565b6040518082815260200191505060405180910390f35b61015b610358565b005b61016561062c565b604051808273ffffffffffffffffffffffffffffffffffffffff16815260200191505060405180910390f35b610199610652565b604051808273ffffffffffffffffffffffffffffffffffffffff16815260200191505060405180910390f35b6000806000905086600260006101000a81548173ffffffffffffffffffffffffffffffffffffffff021916908373ffffffffffffffffffffffffffffffffffffffff1602179055505b8585905081101561034b57600260009054906101000a900473ffffffffffffffffffffffffffffffffffffffff1673ffffffffffffffffffffffffffffffffffffffff166323b872dd3388888581811061026457fe5b9050602002013573ffffffffffffffffffffffffffffffffffffffff1687878681811061028d57fe5b905060200201356040518463ffffffff1660e01b8152600401808473ffffffffffffffffffffffffffffffffffffffff1681526020018373ffffffffffffffffffffffffffffffffffffffff1681526020018281526020019350505050602060405180830381600087803b15801561030457600080fd5b505af1158015610318573d6000803e3d6000fd5b505050506040513d602081101561032e57600080fd5b81019080805190602001909291905050505060018101905061020e565b8091505095945050505050565b6000600260009054906101000a900473ffffffffffffffffffffffffffffffffffffffff1673ffffffffffffffffffffffffffffffffffffffff166370a08231306040518263ffffffff1660e01b8152600401808273ffffffffffffffffffffffffffffffffffffffff16815260200191505060206040518083038186803b1580156103e357600080fd5b505afa1580156103f7573d6000803e3d6000fd5b505050506040513d602081101561040d57600080fd5b810190808051906020019092919050505090506000811015610497576040517f08c379a00000000000000000000000000000000000000000000000000000000081526004018080602001828103825260148152602001807f204e6f2066756e647320696e2041697264726f7000000000000000000000000081525060200191505060405180910390fd5b600160009054906101000a900473ffffffffffffffffffffffffffffffffffffffff1673ffffffffffffffffffffffffffffffffffffffff163373ffffffffffffffffffffffffffffffffffffffff161461055a576040517f08c379a000000000000000000000000000000000000000000000000000000000815260040180806020018281038252600a8152602001807f204e6f742061646d696e0000000000000000000000000000000000000000000081525060200191505060405180910390fd5b600260009054906101000a900473ffffffffffffffffffffffffffffffffffffffff1673ffffffffffffffffffffffffffffffffffffffff1663a9059cbb33836040518363ffffffff1660e01b8152600401808373ffffffffffffffffffffffffffffffffffffffff16815260200182815260200192505050602060405180830381600087803b1580156105ed57600080fd5b505af1158015610601573d6000803e3d6000fd5b505050506040513d602081101561061757600080fd5b81019080805190602001909291905050505050565b600260009054906101000a900473ffffffffffffffffffffffffffffffffffffffff1681565b60008054906101000a900473ffffffffffffffffffffffffffffffffffffffff168156fea2646970667358221220b95d1947b2f47785f5201d66b56682cfb2aa79ead737286be1d8baadf66a8e9964736f6c634300060c00334171756173547261646541697264726f703a20496e76616c6964202061646472657373",
  "devdoc": {
    "kind": "dev",
    "methods": {
      "doAirdrop(address,address[],uint256[])": {
        "details": "doAirdrop is the main method for distribution",
        "params": {
          "addresses": "address[] addresses to airdrop",
          "tokenAddress": "address ERC20 token to airdrop",
          "values": "address[] values for each address"
        }
      }
    },
    "title": "ERC20 Airdrop dapp smart contract",
    "version": 1
  },
  "userdoc": {
    "kind": "user",
    "methods": {},
    "version": 1
  },
  "storageLayout": {
    "storage": [
      {
        "astId": 9628,
        "contract": "contracts/airdrop/airdrop.sol:AquasTradeAirdrop",
        "label": "Aqua",
        "offset": 0,
        "slot": "0",
        "type": "t_address"
      },
      {
        "astId": 9630,
        "contract": "contracts/airdrop/airdrop.sol:AquasTradeAirdrop",
        "label": "admin",
        "offset": 0,
        "slot": "1",
        "type": "t_address"
      },
      {
        "astId": 9632,
        "contract": "contracts/airdrop/airdrop.sol:AquasTradeAirdrop",
        "label": "LastAirDropToken",
        "offset": 0,
        "slot": "2",
        "type": "t_contract(IERC20)9625"
      }
    ],
    "types": {
      "t_address": {
        "encoding": "inplace",
        "label": "address",
        "numberOfBytes": "20"
      },
      "t_contract(IERC20)9625": {
        "encoding": "inplace",
        "label": "contract IERC20",
        "numberOfBytes": "20"
      }
    }
  }
}