{
  "address": "0xF587ff043D0826601dC4e25167B21CB03390a6B5",
  "abi": [
    {
      "inputs": [
        {
          "internalType": "address",
          "name": "_relayer",
          "type": "address"
        },
        {
          "internalType": "address",
          "name": "_router",
          "type": "address"
        },
        {
          "internalType": "address",
          "name": "_usd",
          "type": "address"
        },
        {
          "internalType": "address",
          "name": "_aqua",
          "type": "address"
        }
      ],
      "stateMutability": "nonpayable",
      "type": "constructor"
    },
    {
      "anonymous": false,
      "inputs": [
        {
          "indexed": false,
          "internalType": "uint256",
          "name": "_dcaStorageId",
          "type": "uint256"
        },
        {
          "indexed": false,
          "internalType": "address",
          "name": "_dcaStorage",
          "type": "address"
        },
        {
          "indexed": false,
          "internalType": "address",
          "name": "_tokenXYZ",
          "type": "address"
        }
      ],
      "name": "DCAStorageCreated",
      "type": "event"
    },
    {
      "anonymous": false,
      "inputs": [
        {
          "indexed": true,
          "internalType": "address",
          "name": "previousOwner",
          "type": "address"
        },
        {
          "indexed": true,
          "internalType": "address",
          "name": "newOwner",
          "type": "address"
        }
      ],
      "name": "OwnershipTransferred",
      "type": "event"
    },
    {
      "inputs": [],
      "name": "AQUA_ADDRESS",
      "outputs": [
        {
          "internalType": "address",
          "name": "",
          "type": "address"
        }
      ],
      "stateMutability": "view",
      "type": "function"
    },
    {
      "inputs": [],
      "name": "BurnAqua",
      "outputs": [],
      "stateMutability": "nonpayable",
      "type": "function"
    },
    {
      "inputs": [
        {
          "internalType": "uint256",
          "name": "_fee",
          "type": "uint256"
        }
      ],
      "name": "ChangeEntryFee",
      "outputs": [],
      "stateMutability": "nonpayable",
      "type": "function"
    },
    {
      "inputs": [
        {
          "internalType": "uint256",
          "name": "_maxOrders",
          "type": "uint256"
        }
      ],
      "name": "ChangeMaxOrders",
      "outputs": [],
      "stateMutability": "nonpayable",
      "type": "function"
    },
    {
      "inputs": [
        {
          "internalType": "address",
          "name": "_newRelayer",
          "type": "address"
        }
      ],
      "name": "ChangeRelayer",
      "outputs": [],
      "stateMutability": "nonpayable",
      "type": "function"
    },
    {
      "inputs": [
        {
          "internalType": "uint256",
          "name": "_dcaStorageID",
          "type": "uint256"
        },
        {
          "internalType": "uint256",
          "name": "_index",
          "type": "uint256"
        }
      ],
      "name": "DeleteOrder",
      "outputs": [],
      "stateMutability": "nonpayable",
      "type": "function"
    },
    {
      "inputs": [],
      "name": "EntryFee",
      "outputs": [
        {
          "internalType": "uint256",
          "name": "",
          "type": "uint256"
        }
      ],
      "stateMutability": "view",
      "type": "function"
    },
    {
      "inputs": [
        {
          "internalType": "uint256",
          "name": "_from",
          "type": "uint256"
        }
      ],
      "name": "ExecuteOrderRange",
      "outputs": [
        {
          "internalType": "uint256",
          "name": "",
          "type": "uint256"
        }
      ],
      "stateMutability": "nonpayable",
      "type": "function"
    },
    {
      "inputs": [
        {
          "internalType": "uint256",
          "name": "_dcaStorageID",
          "type": "uint256"
        },
        {
          "internalType": "bool",
          "name": "_buyOrder",
          "type": "bool"
        }
      ],
      "name": "ExecuteOrders",
      "outputs": [],
      "stateMutability": "nonpayable",
      "type": "function"
    },
    {
      "inputs": [
        {
          "internalType": "uint256",
          "name": "_dcaStorageID",
          "type": "uint256"
        },
        {
          "internalType": "address",
          "name": "_trader",
          "type": "address"
        }
      ],
      "name": "GetAllOrders",
      "outputs": [
        {
          "internalType": "uint256[]",
          "name": "",
          "type": "uint256[]"
        }
      ],
      "stateMutability": "view",
      "type": "function"
    },
    {
      "inputs": [
        {
          "internalType": "address",
          "name": "_storageAddress",
          "type": "address"
        }
      ],
      "name": "GetIndexUsingStorageAddress",
      "outputs": [
        {
          "internalType": "uint256",
          "name": "",
          "type": "uint256"
        }
      ],
      "stateMutability": "view",
      "type": "function"
    },
    {
      "inputs": [
        {
          "internalType": "uint256",
          "name": "_dcaStorageID",
          "type": "uint256"
        }
      ],
      "name": "GetLastPoolPrice",
      "outputs": [
        {
          "internalType": "uint256",
          "name": "",
          "type": "uint256"
        }
      ],
      "stateMutability": "view",
      "type": "function"
    },
    {
      "inputs": [
        {
          "internalType": "uint256",
          "name": "_dcaStorageID",
          "type": "uint256"
        },
        {
          "internalType": "uint256",
          "name": "_index",
          "type": "uint256"
        }
      ],
      "name": "GetOrderDetails",
      "outputs": [
        {
          "components": [
            {
              "internalType": "uint256",
              "name": "index",
              "type": "uint256"
            },
            {
              "internalType": "address",
              "name": "trader",
              "type": "address"
            },
            {
              "internalType": "uint256",
              "name": "interval",
              "type": "uint256"
            },
            {
              "internalType": "uint256",
              "name": "tokenPriceMin",
              "type": "uint256"
            },
            {
              "internalType": "uint256",
              "name": "tokenPriceMax",
              "type": "uint256"
            },
            {
              "internalType": "uint256",
              "name": "tokenAmount",
              "type": "uint256"
            },
            {
              "internalType": "bool",
              "name": "buyOrder",
              "type": "bool"
            },
            {
              "internalType": "uint256",
              "name": "lastSwapCount",
              "type": "uint256"
            },
            {
              "internalType": "uint256",
              "name": "lastSwapTime",
              "type": "uint256"
            },
            {
              "internalType": "uint256",
              "name": "totalSwapSum",
              "type": "uint256"
            }
          ],
          "internalType": "struct AquasDCA.OrderDetails",
          "name": "",
          "type": "tuple"
        }
      ],
      "stateMutability": "view",
      "type": "function"
    },
    {
      "inputs": [
        {
          "internalType": "uint256",
          "name": "_dcaStorageID",
          "type": "uint256"
        }
      ],
      "name": "GetOrderFilled",
      "outputs": [
        {
          "internalType": "uint256",
          "name": "",
          "type": "uint256"
        }
      ],
      "stateMutability": "view",
      "type": "function"
    },
    {
      "inputs": [
        {
          "internalType": "uint256",
          "name": "_dcaStorageID",
          "type": "uint256"
        }
      ],
      "name": "GetOrderLength",
      "outputs": [
        {
          "internalType": "uint256",
          "name": "",
          "type": "uint256"
        }
      ],
      "stateMutability": "view",
      "type": "function"
    },
    {
      "inputs": [
        {
          "internalType": "uint256",
          "name": "_dcaStorageID",
          "type": "uint256"
        }
      ],
      "name": "GetOrdersTotal",
      "outputs": [
        {
          "internalType": "uint256",
          "name": "",
          "type": "uint256"
        }
      ],
      "stateMutability": "view",
      "type": "function"
    },
    {
      "inputs": [
        {
          "internalType": "uint256",
          "name": "_dcaStorageID",
          "type": "uint256"
        }
      ],
      "name": "GetStorageAddressUsingIndex",
      "outputs": [
        {
          "internalType": "address",
          "name": "",
          "type": "address"
        }
      ],
      "stateMutability": "view",
      "type": "function"
    },
    {
      "inputs": [
        {
          "internalType": "address",
          "name": "_tokenXYZ",
          "type": "address"
        }
      ],
      "name": "GetStorageAddressUsingToken",
      "outputs": [
        {
          "internalType": "address",
          "name": "",
          "type": "address"
        }
      ],
      "stateMutability": "nonpayable",
      "type": "function"
    },
    {
      "inputs": [
        {
          "internalType": "uint256",
          "name": "_dcaStorageID",
          "type": "uint256"
        }
      ],
      "name": "GetTokenXYZUsingIndex",
      "outputs": [
        {
          "internalType": "address",
          "name": "",
          "type": "address"
        }
      ],
      "stateMutability": "view",
      "type": "function"
    },
    {
      "inputs": [],
      "name": "MAX_ORDERS",
      "outputs": [
        {
          "internalType": "uint256",
          "name": "",
          "type": "uint256"
        }
      ],
      "stateMutability": "view",
      "type": "function"
    },
    {
      "inputs": [],
      "name": "NFTAddress",
      "outputs": [
        {
          "internalType": "address",
          "name": "",
          "type": "address"
        }
      ],
      "stateMutability": "view",
      "type": "function"
    },
    {
      "inputs": [],
      "name": "Relayer",
      "outputs": [
        {
          "internalType": "address",
          "name": "",
          "type": "address"
        }
      ],
      "stateMutability": "view",
      "type": "function"
    },
    {
      "inputs": [],
      "name": "Router",
      "outputs": [
        {
          "internalType": "address",
          "name": "",
          "type": "address"
        }
      ],
      "stateMutability": "view",
      "type": "function"
    },
    {
      "inputs": [],
      "name": "StorageID",
      "outputs": [
        {
          "internalType": "uint256",
          "name": "",
          "type": "uint256"
        }
      ],
      "stateMutability": "view",
      "type": "function"
    },
    {
      "inputs": [
        {
          "internalType": "address",
          "name": "_tokenXYZ",
          "type": "address"
        },
        {
          "internalType": "uint256",
          "name": "_intervalSeconds",
          "type": "uint256"
        },
        {
          "internalType": "uint256",
          "name": "_durationHours",
          "type": "uint256"
        },
        {
          "internalType": "uint256",
          "name": "_tokenPriceMin",
          "type": "uint256"
        },
        {
          "internalType": "uint256",
          "name": "_tokenPriceMax",
          "type": "uint256"
        },
        {
          "internalType": "uint256",
          "name": "_tokenAmount",
          "type": "uint256"
        },
        {
          "internalType": "bool",
          "name": "_buyOrder",
          "type": "bool"
        }
      ],
      "name": "SubmitDCAOrder",
      "outputs": [],
      "stateMutability": "nonpayable",
      "type": "function"
    },
    {
      "inputs": [
        {
          "internalType": "bool",
          "name": "_on_off",
          "type": "bool"
        }
      ],
      "name": "TradingCondition",
      "outputs": [],
      "stateMutability": "nonpayable",
      "type": "function"
    },
    {
      "inputs": [],
      "name": "TradingEnabled",
      "outputs": [
        {
          "internalType": "bool",
          "name": "",
          "type": "bool"
        }
      ],
      "stateMutability": "view",
      "type": "function"
    },
    {
      "inputs": [],
      "name": "USDC_ADDRESS",
      "outputs": [
        {
          "internalType": "address",
          "name": "",
          "type": "address"
        }
      ],
      "stateMutability": "view",
      "type": "function"
    },
    {
      "inputs": [
        {
          "internalType": "uint256",
          "name": "",
          "type": "uint256"
        }
      ],
      "name": "allStorages",
      "outputs": [
        {
          "internalType": "contract DCAStorage",
          "name": "",
          "type": "address"
        }
      ],
      "stateMutability": "view",
      "type": "function"
    },
    {
      "inputs": [],
      "name": "index",
      "outputs": [
        {
          "internalType": "uint256",
          "name": "",
          "type": "uint256"
        }
      ],
      "stateMutability": "view",
      "type": "function"
    },
    {
      "inputs": [],
      "name": "owner",
      "outputs": [
        {
          "internalType": "address",
          "name": "",
          "type": "address"
        }
      ],
      "stateMutability": "view",
      "type": "function"
    },
    {
      "inputs": [],
      "name": "renounceOwnership",
      "outputs": [],
      "stateMutability": "nonpayable",
      "type": "function"
    },
    {
      "inputs": [
        {
          "internalType": "address",
          "name": "newAddress",
          "type": "address"
        }
      ],
      "name": "setNftAddress",
      "outputs": [],
      "stateMutability": "nonpayable",
      "type": "function"
    },
    {
      "inputs": [
        {
          "internalType": "address",
          "name": "newOwner",
          "type": "address"
        }
      ],
      "name": "transferOwnership",
      "outputs": [],
      "stateMutability": "nonpayable",
      "type": "function"
    }
  ],
  "transactionHash": "0xe80ec0395e9beddf3b18a663191996cde0e5add2784249278f2dbfa129bd316c",
  "args": [
    "0xCDeb7F7974D89Fd71089487D65AA9731d7E846F5",
    "0x698EA133CBA3BACD4aA6405411d8e8c1726D5f61",
    "0x5F795bb52dAC3085f578f4877D450e2929D2F13d",
    "0xF7F957D88768126916dAF3C1705D13C291d2B7D8"
  ],
  "numDeployments": 1,
  "solcInputHash": "7b6d3bcf74442dad0c28b09e6d787e24",
  "bytecode": "0x608060405260fa6005553480156200001657600080fd5b5060405162008e4538038062008e4583398181016040528101906200003c919062000416565b60006200004e620003f760201b60201c565b9050806000806101000a81548173ffffffffffffffffffffffffffffffffffffffff021916908373ffffffffffffffffffffffffffffffffffffffff1602179055508073ffffffffffffffffffffffffffffffffffffffff16600073ffffffffffffffffffffffffffffffffffffffff167f8be0079c531659141344cd1fd0a4f28419497f9722a3daafe3b4186f6b6457e060405160405180910390a350600073ffffffffffffffffffffffffffffffffffffffff168473ffffffffffffffffffffffffffffffffffffffff1614156200015f576040517f08c379a000000000000000000000000000000000000000000000000000000000815260040162000156906200061a565b60405180910390fd5b600073ffffffffffffffffffffffffffffffffffffffff168373ffffffffffffffffffffffffffffffffffffffff161415620001d2576040517f08c379a0000000000000000000000000000000000000000000000000000000008152600401620001c990620005f8565b60405180910390fd5b600073ffffffffffffffffffffffffffffffffffffffff168273ffffffffffffffffffffffffffffffffffffffff16141562000245576040517f08c379a00000000000000000000000000000000000000000000000000000000081526004016200023c906200063c565b60405180910390fd5b600073ffffffffffffffffffffffffffffffffffffffff168173ffffffffffffffffffffffffffffffffffffffff161415620002b8576040517f08c379a0000000000000000000000000000000000000000000000000000000008152600401620002af90620005d6565b60405180910390fd5b83600260006101000a81548173ffffffffffffffffffffffffffffffffffffffff021916908373ffffffffffffffffffffffffffffffffffffffff16021790555082600360006101000a81548173ffffffffffffffffffffffffffffffffffffffff021916908373ffffffffffffffffffffffffffffffffffffffff16021790555081600860006101000a81548173ffffffffffffffffffffffffffffffffffffffff021916908373ffffffffffffffffffffffffffffffffffffffff16021790555080600960006101000a81548173ffffffffffffffffffffffffffffffffffffffff021916908373ffffffffffffffffffffffffffffffffffffffff160217905550670de0b6b3a764000060048190555060018060146101000a81548160ff0219169083151502179055506000600a8190555050505050620006bd565b600033905090565b6000815190506200041081620006a3565b92915050565b600080600080608085870312156200042d57600080fd5b60006200043d87828801620003ff565b94505060206200045087828801620003ff565b93505060406200046387828801620003ff565b92505060606200047687828801620003ff565b91505092959194509250565b6000620004916025836200065e565b91507f466163746f72793a204d697373696e6720415155415f4144445245535320616460008301527f64726573730000000000000000000000000000000000000000000000000000006020830152604082019050919050565b6000620004f9601f836200065e565b91507f466163746f72793a204d697373696e6720524f555445522061646472657373006000830152602082019050919050565b60006200053b6020836200065e565b91507f466163746f72793a204d697373696e672052454c4159455220616464726573736000830152602082019050919050565b60006200057d6024836200065e565b91507f466163746f72793a204d697373696e67205553445f414444524553532061646460008301527f72657373000000000000000000000000000000000000000000000000000000006020830152604082019050919050565b60006020820190508181036000830152620005f18162000482565b9050919050565b600060208201905081810360008301526200061381620004ea565b9050919050565b6000602082019050818103600083015262000635816200052c565b9050919050565b6000602082019050818103600083015262000657816200056e565b9050919050565b600082825260208201905092915050565b60006200067c8262000683565b9050919050565b600073ffffffffffffffffffffffffffffffffffffffff82169050919050565b620006ae816200066f565b8114620006ba57600080fd5b50565b61877880620006cd6000396000f3fe60806040523480156200001157600080fd5b5060043610620002385760003560e01c8063842c7cc81162000135578063bc83d2d711620000bd578063e2e78dfb1162000087578063e2e78dfb14620006a5578063eca5b0ff14620006c5578063f2fde38b14620006fb578063f4ba6926146200071b578063f6d7eade14620007515762000238565b8063bc83d2d714620005f7578063c83911731462000603578063d568cdec1462000639578063dbca3b6d146200066f5762000238565b806395003b0a11620000ff57806395003b0a146200055f5780639665d9d41462000595578063b65b6a8814620005b5578063bb09d9b714620005d55762000238565b8063842c7cc814620004c35780638da5cb5b14620004e55780638f37854f146200050757806393254b0e146200053d5762000238565b8063310c87cc11620001c557806359fe8c84116200018f57806359fe8c84146200041d578063715018a6146200043f57806379966345146200044b5780637c17ad9d146200046d5780638230022d14620004a35762000238565b8063310c87cc146200038357806345e8c81414620003a55780634677dd1a14620003c75780634ccb805614620003fd5762000238565b8063264949d81162000207578063264949d814620002e957806326749a9e146200030b5780632986c0e5146200032b57806330a7e0a1146200034d5762000238565b80630b102d1a146200023d5780630b40097c146200025d5780631814aada146200027d578063224ecfea14620002b3575b600080fd5b6200025b600480360381019062000255919062002dca565b62000773565b005b6200027b60048036038101906200027591906200311f565b620008ad565b005b6200029b600480360381019062000295919062002f96565b62000970565b604051620002aa919062003c4c565b60405180910390f35b620002d16004803603810190620002cb919062002f96565b620009a3565b604051620002e0919062003f75565b60405180910390f35b620002f362000a7d565b60405162000302919062003bb1565b60405180910390f35b62000329600480360381019062000323919062002f3e565b62000aa3565b005b6200033562000b43565b60405162000344919062003f75565b60405180910390f35b6200036b600480360381019062000365919062003160565b62000b49565b6040516200037a919062003f57565b60405180910390f35b6200038d62000cc8565b6040516200039c919062003bb1565b60405180910390f35b620003af62000cee565b604051620003be919062003bb1565b60405180910390f35b620003e56004803603810190620003df919062002dca565b62000d14565b604051620003f4919062003f75565b60405180910390f35b6200041b600480360381019062000415919062003160565b62000e02565b005b6200042762000ec5565b60405162000436919062003f75565b60405180910390f35b6200044962000ecb565b005b620004556200100c565b60405162000464919062003c2f565b60405180910390f35b6200048b600480360381019062000485919062002fee565b6200101f565b6040516200049a919062003c0b565b60405180910390f35b620004c16004803603810190620004bb919062002f96565b620011b6565b005b620004cd62001243565b604051620004dc919062003f75565b60405180910390f35b620004ef62001249565b604051620004fe919062003bb1565b60405180910390f35b6200052560048036038101906200051f919062002f96565b62001272565b60405162000534919062003f75565b60405180910390f35b62000547620014b8565b60405162000556919062003f75565b60405180910390f35b6200057d600480360381019062000577919062002f96565b620014be565b6040516200058c919062003f75565b60405180910390f35b620005b36004803603810190620005ad919062002f96565b62001598565b005b620005d36004803603810190620005cd919062002e22565b62001625565b005b620005df620017dd565b604051620005ee919062003bb1565b60405180910390f35b6200060162001803565b005b6200062160048036038101906200061b919062002f96565b6200194c565b60405162000630919062003f75565b60405180910390f35b62000657600480360381019062000651919062002f96565b62001a26565b60405162000666919062003bb1565b60405180910390f35b6200068d600480360381019062000687919062002dca565b62001af1565b6040516200069c919062003bb1565b60405180910390f35b620006c36004803603810190620006bd919062002dca565b62001d04565b005b620006e36004803603810190620006dd919062002f96565b62001dcb565b604051620006f2919062003bb1565b60405180910390f35b62000719600480360381019062000713919062002dca565b62001ea5565b005b62000739600480360381019062000733919062002f96565b62002058565b60405162000748919062003f75565b60405180910390f35b6200075b62002132565b6040516200076a919062003bb1565b60405180910390f35b6200077d62002158565b73ffffffffffffffffffffffffffffffffffffffff166200079d62001249565b73ffffffffffffffffffffffffffffffffffffffff1614620007f6576040517f08c379a0000000000000000000000000000000000000000000000000000000008152600401620007ed9062003e03565b60405180910390fd5b600073ffffffffffffffffffffffffffffffffffffffff168173ffffffffffffffffffffffffffffffffffffffff16141562000869576040517f08c379a0000000000000000000000000000000000000000000000000000000008152600401620008609062003d15565b60405180910390fd5b80600160006101000a81548173ffffffffffffffffffffffffffffffffffffffff021916908373ffffffffffffffffffffffffffffffffffffffff16021790555050565b60008211620008f3576040517f08c379a0000000000000000000000000000000000000000000000000000000008152600401620008ea9062003e69565b60405180910390fd5b620008fe8262001a26565b73ffffffffffffffffffffffffffffffffffffffff16638a2b9e78826040518263ffffffff1660e01b815260040162000938919062003c2f565b600060405180830381600087803b1580156200095357600080fd5b505af115801562000968573d6000803e3d6000fd5b505050505050565b60076020528060005260406000206000915054906101000a900473ffffffffffffffffffffffffffffffffffffffff1681565b6000808211620009ea576040517f08c379a0000000000000000000000000000000000000000000000000000000008152600401620009e19062003e69565b60405180910390fd5b620009f58262001a26565b73ffffffffffffffffffffffffffffffffffffffff1663ec4ca0f86040518163ffffffff1660e01b815260040160206040518083038186803b15801562000a3b57600080fd5b505afa15801562000a50573d6000803e3d6000fd5b505050506040513d601f19601f8201168201806040525081019062000a76919062002fc2565b9050919050565b600260009054906101000a900473ffffffffffffffffffffffffffffffffffffffff1681565b62000aad62002158565b73ffffffffffffffffffffffffffffffffffffffff1662000acd62001249565b73ffffffffffffffffffffffffffffffffffffffff161462000b26576040517f08c379a000000000000000000000000000000000000000000000000000000000815260040162000b1d9062003e03565b60405180910390fd5b80600160146101000a81548160ff02191690831515021790555050565b600a5481565b62000b5362002c3a565b60008060008060008060008060008062000b6d8d62001a26565b73ffffffffffffffffffffffffffffffffffffffff1663ffc5ea0d8d6040518263ffffffff1660e01b815260040162000ba7919062003f75565b6101406040518083038186803b15801562000bc157600080fd5b505afa15801562000bd6573d6000803e3d6000fd5b505050506040513d601f19601f8201168201806040525081019062000bfc91906200302f565b995099509950995099509950995099509950995062000c1a62002c3a565b8a81600001818152505089816020019073ffffffffffffffffffffffffffffffffffffffff16908173ffffffffffffffffffffffffffffffffffffffff1681525050888160400181815250508781606001818152505086816080018181525050858160a0018181525050848160c00190151590811515815250508281610100018181525050838160e00181815250508181610120018181525050809b50505050505050505050505092915050565b600160009054906101000a900473ffffffffffffffffffffffffffffffffffffffff1681565b600960009054906101000a900473ffffffffffffffffffffffffffffffffffffffff1681565b60008073ffffffffffffffffffffffffffffffffffffffff168273ffffffffffffffffffffffffffffffffffffffff16141562000d88576040517f08c379a000000000000000000000000000000000000000000000000000000000815260040162000d7f9062003c8d565b60405180910390fd5b6000600190505b600654811162000df757600062000da68262001a26565b90508373ffffffffffffffffffffffffffffffffffffffff168173ffffffffffffffffffffffffffffffffffffffff16141562000de857819250505062000dfd565b50808060010191505062000d8f565b50600090505b919050565b6000821162000e48576040517f08c379a000000000000000000000000000000000000000000000000000000000815260040162000e3f9062003cd1565b60405180910390fd5b62000e538262001a26565b73ffffffffffffffffffffffffffffffffffffffff1663dad675ba826040518263ffffffff1660e01b815260040162000e8d919062003f75565b600060405180830381600087803b15801562000ea857600080fd5b505af115801562000ebd573d6000803e3d6000fd5b505050505050565b60045481565b62000ed562002158565b73ffffffffffffffffffffffffffffffffffffffff1662000ef562001249565b73ffffffffffffffffffffffffffffffffffffffff161462000f4e576040517f08c379a000000000000000000000000000000000000000000000000000000000815260040162000f459062003e03565b60405180910390fd5b600073ffffffffffffffffffffffffffffffffffffffff1660008054906101000a900473ffffffffffffffffffffffffffffffffffffffff1673ffffffffffffffffffffffffffffffffffffffff167f8be0079c531659141344cd1fd0a4f28419497f9722a3daafe3b4186f6b6457e060405160405180910390a360008060006101000a81548173ffffffffffffffffffffffffffffffffffffffff021916908373ffffffffffffffffffffffffffffffffffffffff160217905550565b600160149054906101000a900460ff1681565b60606000831162001067576040517f08c379a00000000000000000000000000000000000000000000000000000000081526004016200105e9062003e47565b60405180910390fd5b600073ffffffffffffffffffffffffffffffffffffffff168273ffffffffffffffffffffffffffffffffffffffff161415620010da576040517f08c379a0000000000000000000000000000000000000000000000000000000008152600401620010d19062003e25565b60405180910390fd5b6000620010e78462001a26565b905060606000808373ffffffffffffffffffffffffffffffffffffffff166384d09e27876040518263ffffffff1660e01b815260040162001129919062003bb1565b60006040518083038186803b1580156200114257600080fd5b505afa15801562001157573d6000803e3d6000fd5b505050506040513d6000823e3d601f19601f8201168201806040525081019062001182919062002ecf565b9250925092506000821180620011985750600081115b15620011ab5782945050505050620011b0565b505050505b92915050565b620011c062002158565b73ffffffffffffffffffffffffffffffffffffffff16620011e062001249565b73ffffffffffffffffffffffffffffffffffffffff161462001239576040517f08c379a0000000000000000000000000000000000000000000000000000000008152600401620012309062003e03565b60405180910390fd5b8060048190555050565b60065481565b60008060009054906101000a900473ffffffffffffffffffffffffffffffffffffffff16905090565b6000808211620012b9576040517f08c379a0000000000000000000000000000000000000000000000000000000008152600401620012b09062003e69565b60405180910390fd5b600080808490505b6006548111620014ab576000620012d88262001a26565b905060008173ffffffffffffffffffffffffffffffffffffffff166375c653bc6040518163ffffffff1660e01b815260040160206040518083038186803b1580156200132357600080fd5b505afa15801562001338573d6000803e3d6000fd5b505050506040513d601f19601f820116820180604052508101906200135e919062002fc2565b90506200137581856200216090919063ffffffff16565b93506005546200138f85876200216090919063ffffffff16565b1115620013a4578295505050505050620014b3565b8173ffffffffffffffffffffffffffffffffffffffff16638a2b9e7860016040518263ffffffff1660e01b8152600401620013e0919062003c2f565b600060405180830381600087803b158015620013fb57600080fd5b505af115801562001410573d6000803e3d6000fd5b505050508173ffffffffffffffffffffffffffffffffffffffff16638a2b9e7860006040518263ffffffff1660e01b815260040162001450919062003c2f565b600060405180830381600087803b1580156200146b57600080fd5b505af115801562001480573d6000803e3d6000fd5b505050506200149984866200216090919063ffffffff16565b945050508080600101915050620012c1565b506001925050505b919050565b60055481565b600080821162001505576040517f08c379a0000000000000000000000000000000000000000000000000000000008152600401620014fc9062003e69565b60405180910390fd5b620015108262001a26565b73ffffffffffffffffffffffffffffffffffffffff16638b474f8d6040518163ffffffff1660e01b815260040160206040518083038186803b1580156200155657600080fd5b505afa1580156200156b573d6000803e3d6000fd5b505050506040513d601f19601f8201168201806040525081019062001591919062002fc2565b9050919050565b620015a262002158565b73ffffffffffffffffffffffffffffffffffffffff16620015c262001249565b73ffffffffffffffffffffffffffffffffffffffff16146200161b576040517f08c379a0000000000000000000000000000000000000000000000000000000008152600401620016129062003e03565b60405180910390fd5b8060058190555050565b60011515600160149054906101000a900460ff161515146200167e576040517f08c379a0000000000000000000000000000000000000000000000000000000008152600401620016759062003ef1565b60405180910390fd5b60006200168b88620021b8565b9050600073ffffffffffffffffffffffffffffffffffffffff168173ffffffffffffffffffffffffffffffffffffffff16141562001700576040517f08c379a0000000000000000000000000000000000000000000000000000000008152600401620016f79062003de1565b60405180910390fd5b60006200170c62002244565b821562001729576200171f8483620024a4565b600190506200173b565b62001736898584620025d9565b600190505b8015620017d2578173ffffffffffffffffffffffffffffffffffffffff166335245c03600a548a8a8a8a8a8a6040518863ffffffff1660e01b81526004016200178b97969594939291906200403c565b600060405180830381600087803b158015620017a657600080fd5b505af1158015620017bb573d6000803e3d6000fd5b50505050600a600081548092919060010191905055505b505050505050505050565b600860009054906101000a900473ffffffffffffffffffffffffffffffffffffffff1681565b6000600960009054906101000a900473ffffffffffffffffffffffffffffffffffffffff1673ffffffffffffffffffffffffffffffffffffffff166370a08231306040518263ffffffff1660e01b815260040162001862919062003bb1565b60206040518083038186803b1580156200187b57600080fd5b505afa15801562001890573d6000803e3d6000fd5b505050506040513d601f19601f82011682018060405250810190620018b6919062002fc2565b9050600960009054906101000a900473ffffffffffffffffffffffffffffffffffffffff1673ffffffffffffffffffffffffffffffffffffffff166342966c68826040518263ffffffff1660e01b815260040162001915919062003f75565b600060405180830381600087803b1580156200193057600080fd5b505af115801562001945573d6000803e3d6000fd5b5050505050565b600080821162001993576040517f08c379a00000000000000000000000000000000000000000000000000000000081526004016200198a9062003e69565b60405180910390fd5b6200199e8262001a26565b73ffffffffffffffffffffffffffffffffffffffff1663dc7782a36040518163ffffffff1660e01b815260040160206040518083038186803b158015620019e457600080fd5b505afa158015620019f9573d6000803e3d6000fd5b505050506040513d601f19601f8201168201806040525081019062001a1f919062002fc2565b9050919050565b600060065482111562001a70576040517f08c379a000000000000000000000000000000000000000000000000000000000815260040162001a679062003d9d565b60405180910390fd5b6000821162001ab6576040517f08c379a000000000000000000000000000000000000000000000000000000000815260040162001aad9062003d9d565b60405180910390fd5b6007600083815260200190815260200160002060009054906101000a900473ffffffffffffffffffffffffffffffffffffffff169050919050565b60008073ffffffffffffffffffffffffffffffffffffffff168273ffffffffffffffffffffffffffffffffffffffff16141562001b65576040517f08c379a000000000000000000000000000000000000000000000000000000000815260040162001b5c9062003f35565b60405180910390fd5b6000600190505b600654811162001cf057600062001b838262001a26565b905060008173ffffffffffffffffffffffffffffffffffffffff1663c10c85c36040518163ffffffff1660e01b815260040160206040518083038186803b15801562001bce57600080fd5b505afa15801562001be3573d6000803e3d6000fd5b505050506040513d601f19601f8201168201806040525081019062001c09919062002df6565b90508073ffffffffffffffffffffffffffffffffffffffff168573ffffffffffffffffffffffffffffffffffffffff16141562001ce05760008273ffffffffffffffffffffffffffffffffffffffff166375c653bc6040518163ffffffff1660e01b815260040160206040518083038186803b15801562001c8957600080fd5b505afa15801562001c9e573d6000803e3d6000fd5b505050506040513d601f19601f8201168201806040525081019062001cc4919062002fc2565b905060055481101562001cde578294505050505062001cff565b505b5050808060010191505062001b6c565b5062001cfc82620026ed565b90505b919050565b62001d0e62002158565b73ffffffffffffffffffffffffffffffffffffffff1662001d2e62001249565b73ffffffffffffffffffffffffffffffffffffffff161462001d87576040517f08c379a000000000000000000000000000000000000000000000000000000000815260040162001d7e9062003e03565b60405180910390fd5b80600260006101000a81548173ffffffffffffffffffffffffffffffffffffffff021916908373ffffffffffffffffffffffffffffffffffffffff16021790555050565b600080821162001e12576040517f08c379a000000000000000000000000000000000000000000000000000000000815260040162001e099062003e69565b60405180910390fd5b62001e1d8262001a26565b73ffffffffffffffffffffffffffffffffffffffff1663c10c85c36040518163ffffffff1660e01b815260040160206040518083038186803b15801562001e6357600080fd5b505afa15801562001e78573d6000803e3d6000fd5b505050506040513d601f19601f8201168201806040525081019062001e9e919062002df6565b9050919050565b62001eaf62002158565b73ffffffffffffffffffffffffffffffffffffffff1662001ecf62001249565b73ffffffffffffffffffffffffffffffffffffffff161462001f28576040517f08c379a000000000000000000000000000000000000000000000000000000000815260040162001f1f9062003e03565b60405180910390fd5b600073ffffffffffffffffffffffffffffffffffffffff168173ffffffffffffffffffffffffffffffffffffffff16141562001f9b576040517f08c379a000000000000000000000000000000000000000000000000000000000815260040162001f929062003cf3565b60405180910390fd5b8073ffffffffffffffffffffffffffffffffffffffff1660008054906101000a900473ffffffffffffffffffffffffffffffffffffffff1673ffffffffffffffffffffffffffffffffffffffff167f8be0079c531659141344cd1fd0a4f28419497f9722a3daafe3b4186f6b6457e060405160405180910390a3806000806101000a81548173ffffffffffffffffffffffffffffffffffffffff021916908373ffffffffffffffffffffffffffffffffffffffff16021790555050565b60008082116200209f576040517f08c379a0000000000000000000000000000000000000000000000000000000008152600401620020969062003e69565b60405180910390fd5b620020aa8262001a26565b73ffffffffffffffffffffffffffffffffffffffff166375c653bc6040518163ffffffff1660e01b815260040160206040518083038186803b158015620020f057600080fd5b505afa15801562002105573d6000803e3d6000fd5b505050506040513d601f19601f820116820180604052508101906200212b919062002fc2565b9050919050565b600360009054906101000a900473ffffffffffffffffffffffffffffffffffffffff1681565b600033905090565b600080828401905083811015620021ae576040517f08c379a0000000000000000000000000000000000000000000000000000000008152600401620021a59062003d37565b60405180910390fd5b8091505092915050565b60008073ffffffffffffffffffffffffffffffffffffffff168273ffffffffffffffffffffffffffffffffffffffff1614156200222c576040517f08c379a0000000000000000000000000000000000000000000000000000000008152600401620022239062003dbf565b60405180910390fd5b6000620022398362001af1565b905080915050919050565b600033905060008073ffffffffffffffffffffffffffffffffffffffff16600160009054906101000a900473ffffffffffffffffffffffffffffffffffffffff1673ffffffffffffffffffffffffffffffffffffffff161462002361576000600160009054906101000a900473ffffffffffffffffffffffffffffffffffffffff1673ffffffffffffffffffffffffffffffffffffffff166370a08231846040518263ffffffff1660e01b815260040162002300919062003bb1565b60206040518083038186803b1580156200231957600080fd5b505afa1580156200232e573d6000803e3d6000fd5b505050506040513d601f19601f8201168201806040525081019062002354919062002fc2565b11156200236057600190505b5b801562002370575050620024a2565b6000600960009054906101000a900473ffffffffffffffffffffffffffffffffffffffff1690506004548173ffffffffffffffffffffffffffffffffffffffff166370a08231856040518263ffffffff1660e01b8152600401620023d5919062003bb1565b60206040518083038186803b158015620023ee57600080fd5b505afa15801562002403573d6000803e3d6000fd5b505050506040513d601f19601f8201168201806040525081019062002429919062002fc2565b10156200246d576040517f08c379a0000000000000000000000000000000000000000000000000000000008152600401620024649062003caf565b60405180910390fd5b6200249e83306004548473ffffffffffffffffffffffffffffffffffffffff1662002922909392919063ffffffff16565b5050505b565b60003390506000600860009054906101000a900473ffffffffffffffffffffffffffffffffffffffff169050838173ffffffffffffffffffffffffffffffffffffffff166370a08231846040518263ffffffff1660e01b81526004016200250c919062003bb1565b60206040518083038186803b1580156200252557600080fd5b505afa1580156200253a573d6000803e3d6000fd5b505050506040513d601f19601f8201168201806040525081019062002560919062002fc2565b1015620025a4576040517f08c379a00000000000000000000000000000000000000000000000000000000081526004016200259b9062003d59565b60405180910390fd5b620025d38284868473ffffffffffffffffffffffffffffffffffffffff1662002922909392919063ffffffff16565b50505050565b60003390506000849050838173ffffffffffffffffffffffffffffffffffffffff166370a08231846040518263ffffffff1660e01b81526004016200261f919062003bb1565b60206040518083038186803b1580156200263857600080fd5b505afa1580156200264d573d6000803e3d6000fd5b505050506040513d601f19601f8201168201806040525081019062002673919062002fc2565b1015620026b7576040517f08c379a0000000000000000000000000000000000000000000000000000000008152600401620026ae9062003e8b565b60405180910390fd5b620026e68284868473ffffffffffffffffffffffffffffffffffffffff1662002922909392919063ffffffff16565b5050505050565b60008073ffffffffffffffffffffffffffffffffffffffff168273ffffffffffffffffffffffffffffffffffffffff16141562002761576040517f08c379a0000000000000000000000000000000000000000000000000000000008152600401620027589062003ead565b60405180910390fd5b60066000815480929190600101919050555060065430600360009054906101000a900473ffffffffffffffffffffffffffffffffffffffff16600860009054906101000a900473ffffffffffffffffffffffffffffffffffffffff1685600960009054906101000a900473ffffffffffffffffffffffffffffffffffffffff16604051620027ef9062002ca5565b620028009695949392919062003fcf565b604051809103906000f0801580156200281d573d6000803e3d6000fd5b5060076000600654815260200190815260200160002060006101000a81548173ffffffffffffffffffffffffffffffffffffffff021916908373ffffffffffffffffffffffffffffffffffffffff1602179055507f4cab06bdb796689a84c803f4a77d1b0f35422e699b9846ae85225e9570c74f1960065460076000600654815260200190815260200160002060009054906101000a900473ffffffffffffffffffffffffffffffffffffffff1684604051620028dd9392919062003f92565b60405180910390a160076000600654815260200190815260200160002060009054906101000a900473ffffffffffffffffffffffffffffffffffffffff169050919050565b620029a9846323b872dd60e01b858585604051602401620029469392919062003bce565b604051602081830303815290604052907bffffffffffffffffffffffffffffffffffffffffffffffffffffffff19166020820180517bffffffffffffffffffffffffffffffffffffffffffffffffffffffff8381831617835250505050620029af565b50505050565b606062002a13826040518060400160405280602081526020017f5361666545524332303a206c6f772d6c6576656c2063616c6c206661696c65648152508573ffffffffffffffffffffffffffffffffffffffff1662002a7e9092919063ffffffff16565b905060008151111562002a79578080602001905181019062002a36919062002f6a565b62002a78576040517f08c379a000000000000000000000000000000000000000000000000000000000815260040162002a6f9062003f13565b60405180910390fd5b5b505050565b606062002a8f848460008562002a98565b90509392505050565b60608247101562002ae0576040517f08c379a000000000000000000000000000000000000000000000000000000000815260040162002ad79062003d7b565b60405180910390fd5b62002aeb8562002bbb565b62002b2d576040517f08c379a000000000000000000000000000000000000000000000000000000000815260040162002b249062003ecf565b60405180910390fd5b600060608673ffffffffffffffffffffffffffffffffffffffff16858760405162002b59919062003b98565b60006040518083038185875af1925050503d806000811462002b98576040519150601f19603f3d011682016040523d82523d6000602084013e62002b9d565b606091505b509150915062002baf82828662002bce565b92505050949350505050565b600080823b905060008111915050919050565b6060831562002be05782905062002c33565b60008351111562002bf45782518084602001fd5b816040517f08c379a000000000000000000000000000000000000000000000000000000000815260040162002c2a919062003c69565b60405180910390fd5b9392505050565b60405180610140016040528060008152602001600073ffffffffffffffffffffffffffffffffffffffff168152602001600081526020016000815260200160008152602001600081526020016000151581526020016000815260200160008152602001600081525090565b6144c0806200428383390190565b60008135905062002cc48162004234565b92915050565b60008151905062002cdb8162004234565b92915050565b600082601f83011262002cf357600080fd5b815162002d0a62002d0482620040e7565b620040b9565b9150818183526020840193506020810190508385602084028201111562002d3057600080fd5b60005b8381101562002d64578162002d49888262002db3565b84526020840193506020830192505060018101905062002d33565b5050505092915050565b60008135905062002d7f816200424e565b92915050565b60008151905062002d96816200424e565b92915050565b60008135905062002dad8162004268565b92915050565b60008151905062002dc48162004268565b92915050565b60006020828403121562002ddd57600080fd5b600062002ded8482850162002cb3565b91505092915050565b60006020828403121562002e0957600080fd5b600062002e198482850162002cca565b91505092915050565b600080600080600080600060e0888a03121562002e3e57600080fd5b600062002e4e8a828b0162002cb3565b975050602062002e618a828b0162002d9c565b965050604062002e748a828b0162002d9c565b955050606062002e878a828b0162002d9c565b945050608062002e9a8a828b0162002d9c565b93505060a062002ead8a828b0162002d9c565b92505060c062002ec08a828b0162002d6e565b91505092959891949750929550565b60008060006060848603121562002ee557600080fd5b600084015167ffffffffffffffff81111562002f0057600080fd5b62002f0e8682870162002ce1565b935050602062002f218682870162002db3565b925050604062002f348682870162002db3565b9150509250925092565b60006020828403121562002f5157600080fd5b600062002f618482850162002d6e565b91505092915050565b60006020828403121562002f7d57600080fd5b600062002f8d8482850162002d85565b91505092915050565b60006020828403121562002fa957600080fd5b600062002fb98482850162002d9c565b91505092915050565b60006020828403121562002fd557600080fd5b600062002fe58482850162002db3565b91505092915050565b600080604083850312156200300257600080fd5b6000620030128582860162002d9c565b9250506020620030258582860162002cb3565b9150509250929050565b6000806000806000806000806000806101408b8d0312156200305057600080fd5b6000620030608d828e0162002db3565b9a50506020620030738d828e0162002cca565b9950506040620030868d828e0162002db3565b9850506060620030998d828e0162002db3565b9750506080620030ac8d828e0162002db3565b96505060a0620030bf8d828e0162002db3565b95505060c0620030d28d828e0162002d85565b94505060e0620030e58d828e0162002db3565b935050610100620030f98d828e0162002db3565b9250506101206200310d8d828e0162002db3565b9150509295989b9194979a5092959850565b600080604083850312156200313357600080fd5b6000620031438582860162002d9c565b9250506020620031568582860162002d6e565b9150509250929050565b600080604083850312156200317457600080fd5b6000620031848582860162002d9c565b9250506020620031978582860162002d9c565b9150509250929050565b6000620031af838362003b76565b60208301905092915050565b620031c6816200417b565b82525050565b620031d7816200417b565b82525050565b6000620031ea8262004120565b620031f681856200414e565b9350620032038362004110565b8060005b838110156200323a5781516200321e8882620031a1565b97506200322b8362004141565b92505060018101905062003207565b5085935050505092915050565b62003252816200418f565b82525050565b62003263816200418f565b82525050565b600062003276826200412b565b6200328281856200415f565b935062003294818560208601620041ed565b80840191505092915050565b620032ab81620041c5565b82525050565b6000620032be8262004136565b620032ca81856200416a565b9350620032dc818560208601620041ed565b620032e78162004223565b840191505092915050565b6000620033016031836200416a565b91507f41717561734443413a2044434153746f7261676549443a20696e636f7272656360008301527f742073746f7261676520616464726573730000000000000000000000000000006020830152604082019050919050565b6000620033696029836200416a565b91507f496e73756666696369656e7420746f6b656e2028415155415f4144445245535360008301527f292062616c616e636500000000000000000000000000000000000000000000006020830152604082019050919050565b6000620033d16032836200416a565b91507f41717561734443413a2044656c6574654f726465723a20696e636f727265637460008301527f206f726465725469636b65744e756d62657200000000000000000000000000006020830152604082019050919050565b6000620034396026836200416a565b91507f4f776e61626c653a206e6577206f776e657220697320746865207a65726f206160008301527f64647265737300000000000000000000000000000000000000000000000000006020830152604082019050919050565b6000620034a16018836200416a565b91507f41717561734443413a206e65774e4654204164647265737300000000000000006000830152602082019050919050565b6000620034e3601b836200416a565b91507f536166654d6174683a206164646974696f6e206f766572666c6f7700000000006000830152602082019050919050565b6000620035256029836200416a565b91507f496e73756666696369656e7420746f6b656e2028555344435f4144445245535360008301527f292062616c616e636500000000000000000000000000000000000000000000006020830152604082019050919050565b60006200358d6026836200416a565b91507f416464726573733a20696e73756666696369656e742062616c616e636520666f60008301527f722063616c6c00000000000000000000000000000000000000000000000000006020830152604082019050919050565b6000620035f56025836200416a565b91507f41717561734443413a2044434153746f726167653a20696e636f72726563742060008301527f696e6465780000000000000000000000000000000000000000000000000000006020830152604082019050919050565b60006200365d602f836200416a565b91507f41717561734443413a205f66696e64436f6e7472616374416464726573733a2060008301527f696e636f727265637420746f6b656e00000000000000000000000000000000006020830152604082019050919050565b6000620036c56023836200416a565b91507f4e6f2053746f7261676520436f6e747261637420466f756e6420666f7220546f60008301527f6b656e00000000000000000000000000000000000000000000000000000000006020830152604082019050919050565b60006200372d6020836200416a565b91507f4f776e61626c653a2063616c6c6572206973206e6f7420746865206f776e65726000830152602082019050919050565b60006200376f6030836200416a565b91507f41717561734443413a20476574416c6c4f72646572733a20696e636f7272656360008301527f74207472616465722061646472657373000000000000000000000000000000006020830152604082019050919050565b6000620037d76027836200416a565b91507f41717561734443413a20476574416c6c4f72646572733a20696e636f7272656360008301527f7420696e646578000000000000000000000000000000000000000000000000006020830152604082019050919050565b60006200383f6027836200416a565b91507f41717561734443413a2044434153746f7261676549443a20696e636f7272656360008301527f7420696e646578000000000000000000000000000000000000000000000000006020830152604082019050919050565b6000620038a7601a836200416a565b91507f496e73756666696369656e7420746f6b656e2062616c616e63650000000000006000830152602082019050919050565b6000620038e96032836200416a565b91507f41717561734443413a2044434153746f726167653a20746f6b656e58595a206360008301527f616e6e6f742062652030206164647265737300000000000000000000000000006020830152604082019050919050565b600062003951601d836200416a565b91507f416464726573733a2063616c6c20746f206e6f6e2d636f6e74726163740000006000830152602082019050919050565b600062003993600e836200416a565b91507f54726164696e67206973206f66660000000000000000000000000000000000006000830152602082019050919050565b6000620039d5602a836200416a565b91507f5361666545524332303a204552433230206f7065726174696f6e20646964206e60008301527f6f742073756363656564000000000000000000000000000000000000000000006020830152604082019050919050565b600062003a3d602f836200416a565b91507f41717561734443413a2044434153746f7261676549443a20696e636f7272656360008301527f7420746f6b656e206164647265737300000000000000000000000000000000006020830152604082019050919050565b6101408201600082015162003aaf600085018262003b76565b50602082015162003ac46020850182620031bb565b50604082015162003ad9604085018262003b76565b50606082015162003aee606085018262003b76565b50608082015162003b03608085018262003b76565b5060a082015162003b1860a085018262003b76565b5060c082015162003b2d60c085018262003247565b5060e082015162003b4260e085018262003b76565b5061010082015162003b5961010085018262003b76565b5061012082015162003b7061012085018262003b76565b50505050565b62003b8181620041bb565b82525050565b62003b9281620041bb565b82525050565b600062003ba6828462003269565b915081905092915050565b600060208201905062003bc86000830184620031cc565b92915050565b600060608201905062003be56000830186620031cc565b62003bf46020830185620031cc565b62003c03604083018462003b87565b949350505050565b6000602082019050818103600083015262003c278184620031dd565b905092915050565b600060208201905062003c46600083018462003258565b92915050565b600060208201905062003c636000830184620032a0565b92915050565b6000602082019050818103600083015262003c858184620032b1565b905092915050565b6000602082019050818103600083015262003ca881620032f2565b9050919050565b6000602082019050818103600083015262003cca816200335a565b9050919050565b6000602082019050818103600083015262003cec81620033c2565b9050919050565b6000602082019050818103600083015262003d0e816200342a565b9050919050565b6000602082019050818103600083015262003d308162003492565b9050919050565b6000602082019050818103600083015262003d5281620034d4565b9050919050565b6000602082019050818103600083015262003d748162003516565b9050919050565b6000602082019050818103600083015262003d96816200357e565b9050919050565b6000602082019050818103600083015262003db881620035e6565b9050919050565b6000602082019050818103600083015262003dda816200364e565b9050919050565b6000602082019050818103600083015262003dfc81620036b6565b9050919050565b6000602082019050818103600083015262003e1e816200371e565b9050919050565b6000602082019050818103600083015262003e408162003760565b9050919050565b6000602082019050818103600083015262003e6281620037c8565b9050919050565b6000602082019050818103600083015262003e848162003830565b9050919050565b6000602082019050818103600083015262003ea68162003898565b9050919050565b6000602082019050818103600083015262003ec881620038da565b9050919050565b6000602082019050818103600083015262003eea8162003942565b9050919050565b6000602082019050818103600083015262003f0c8162003984565b9050919050565b6000602082019050818103600083015262003f2e81620039c6565b9050919050565b6000602082019050818103600083015262003f508162003a2e565b9050919050565b60006101408201905062003f6f600083018462003a96565b92915050565b600060208201905062003f8c600083018462003b87565b92915050565b600060608201905062003fa9600083018662003b87565b62003fb86020830185620031cc565b62003fc76040830184620031cc565b949350505050565b600060c08201905062003fe6600083018962003b87565b62003ff56020830188620031cc565b620040046040830187620031cc565b620040136060830186620031cc565b620040226080830185620031cc565b6200403160a0830184620031cc565b979650505050505050565b600060e08201905062004053600083018a62003b87565b62004062602083018962003b87565b62004071604083018862003b87565b62004080606083018762003b87565b6200408f608083018662003b87565b6200409e60a083018562003b87565b620040ad60c083018462003258565b98975050505050505050565b6000604051905081810181811067ffffffffffffffff82111715620040dd57600080fd5b8060405250919050565b600067ffffffffffffffff821115620040ff57600080fd5b602082029050602081019050919050565b6000819050602082019050919050565b600081519050919050565b600081519050919050565b600081519050919050565b6000602082019050919050565b600082825260208201905092915050565b600081905092915050565b600082825260208201905092915050565b600062004188826200419b565b9050919050565b60008115159050919050565b600073ffffffffffffffffffffffffffffffffffffffff82169050919050565b6000819050919050565b6000620041d282620041d9565b9050919050565b6000620041e6826200419b565b9050919050565b60005b838110156200420d578082015181840152602081019050620041f0565b838111156200421d576000848401525b50505050565b6000601f19601f8301169050919050565b6200423f816200417b565b81146200424b57600080fd5b50565b62004259816200418f565b81146200426557600080fd5b50565b6200427381620041bb565b81146200427f57600080fd5b5056fe60806040523480156200001157600080fd5b50604051620044c0380380620044c0833981810160405260c08110156200003757600080fd5b8101908080519060200190929190805190602001909291908051906020019092919080519060200190929190805190602001909291908051906020019092919050505060006200008c6200052e60201b60201c565b9050806000806101000a81548173ffffffffffffffffffffffffffffffffffffffff021916908373ffffffffffffffffffffffffffffffffffffffff1602179055508073ffffffffffffffffffffffffffffffffffffffff16600073ffffffffffffffffffffffffffffffffffffffff167f8be0079c531659141344cd1fd0a4f28419497f9722a3daafe3b4186f6b6457e060405160405180910390a3508560018190555084600560006101000a81548173ffffffffffffffffffffffffffffffffffffffff021916908373ffffffffffffffffffffffffffffffffffffffff16021790555083600260006101000a81548173ffffffffffffffffffffffffffffffffffffffff021916908373ffffffffffffffffffffffffffffffffffffffff16021790555082600c60006101000a81548173ffffffffffffffffffffffffffffffffffffffff021916908373ffffffffffffffffffffffffffffffffffffffff16021790555081600360006101000a81548173ffffffffffffffffffffffffffffffffffffffff021916908373ffffffffffffffffffffffffffffffffffffffff16021790555080600460006101000a81548173ffffffffffffffffffffffffffffffffffffffff021916908373ffffffffffffffffffffffffffffffffffffffff160217905550600267ffffffffffffffff811180156200028f57600080fd5b50604051908082528060200260200182016040528015620002bf5781602001602082028036833780820191505090505b50600b9080519060200190620002d792919062000536565b50600360009054906101000a900473ffffffffffffffffffffffffffffffffffffffff16600b6000815481106200030a57fe5b9060005260206000200160006101000a81548173ffffffffffffffffffffffffffffffffffffffff021916908373ffffffffffffffffffffffffffffffffffffffff160217905550600c60009054906101000a900473ffffffffffffffffffffffffffffffffffffffff16600b6001815481106200038457fe5b9060005260206000200160006101000a81548173ffffffffffffffffffffffffffffffffffffffff021916908373ffffffffffffffffffffffffffffffffffffffff160217905550600267ffffffffffffffff81118015620003e557600080fd5b50604051908082528060200260200182016040528015620004155781602001602082028036833780820191505090505b50600a90805190602001906200042d92919062000536565b50600c60009054906101000a900473ffffffffffffffffffffffffffffffffffffffff16600a6000815481106200046057fe5b9060005260206000200160006101000a81548173ffffffffffffffffffffffffffffffffffffffff021916908373ffffffffffffffffffffffffffffffffffffffff160217905550600360009054906101000a900473ffffffffffffffffffffffffffffffffffffffff16600a600181548110620004da57fe5b9060005260206000200160006101000a81548173ffffffffffffffffffffffffffffffffffffffff021916908373ffffffffffffffffffffffffffffffffffffffff16021790555050505050505062000602565b600033905090565b828054828255906000526020600020908101928215620005b2579160200282015b82811115620005b15782518260006101000a81548173ffffffffffffffffffffffffffffffffffffffff021916908373ffffffffffffffffffffffffffffffffffffffff1602179055509160200191906001019062000557565b5b509050620005c19190620005c5565b5090565b5b80821115620005fe57600081816101000a81549073ffffffffffffffffffffffffffffffffffffffff021916905550600101620005c6565b5090565b613eae80620006126000396000f3fe608060405234801561001057600080fd5b50600436106101165760003560e01c80638da5cb5b116100a2578063dad675ba11610071578063dad675ba1461045f578063dc7782a31461048d578063ec4ca0f8146104ab578063f2fde38b146104c9578063ffc5ea0d1461050d57610116565b80638da5cb5b1461038f578063922c7316146103c3578063a82ed9ec146103f7578063c10c85c31461042b57610116565b8063715018a6116100e9578063715018a61461027257806375c653bc1461027c57806384d09e271461029a5780638a2b9e78146103415780638b474f8d1461037157610116565b806306b099af1461011b57806328b11bae146101b457806335245c03146101d257806345e8c8141461023e575b600080fd5b6101476004803603602081101561013157600080fd5b81019080803590602001909291905050506105a6565b604051808b81526020018a73ffffffffffffffffffffffffffffffffffffffff16815260200189815260200188815260200187815260200186815260200185151581526020018481526020018381526020018281526020019a505050505050505050505060405180910390f35b6101bc610634565b6040518082815260200191505060405180910390f35b61023c600480360360e08110156101e857600080fd5b8101908080359060200190929190803590602001909291908035906020019092919080359060200190929190803590602001909291908035906020019092919080351515906020019092919050505061063a565b005b610246610d61565b604051808273ffffffffffffffffffffffffffffffffffffffff16815260200191505060405180910390f35b61027a610d87565b005b610284610ef4565b6040518082815260200191505060405180910390f35b6102dc600480360360208110156102b057600080fd5b81019080803573ffffffffffffffffffffffffffffffffffffffff169060200190929190505050610efa565b6040518080602001848152602001838152602001828103825285818151815260200191508051906020019060200280838360005b8381101561032b578082015181840152602081019050610310565b5050505090500194505050505060405180910390f35b61036f6004803603602081101561035757600080fd5b81019080803515159060200190929190505050611127565b005b6103796119bb565b6040518082815260200191505060405180910390f35b6103976119c1565b604051808273ffffffffffffffffffffffffffffffffffffffff16815260200191505060405180910390f35b6103cb6119ea565b604051808273ffffffffffffffffffffffffffffffffffffffff16815260200191505060405180910390f35b6103ff611a10565b604051808273ffffffffffffffffffffffffffffffffffffffff16815260200191505060405180910390f35b610433611a36565b604051808273ffffffffffffffffffffffffffffffffffffffff16815260200191505060405180910390f35b61048b6004803603602081101561047557600080fd5b8101908080359060200190929190505050611a5c565b005b610495611a6a565b6040518082815260200191505060405180910390f35b6104b3611a70565b6040518082815260200191505060405180910390f35b61050b600480360360208110156104df57600080fd5b81019080803573ffffffffffffffffffffffffffffffffffffffff169060200190929190505050611a76565b005b6105396004803603602081101561052357600080fd5b8101908080359060200190929190505050611c68565b604051808b81526020018a73ffffffffffffffffffffffffffffffffffffffff16815260200189815260200188815260200187815260200186815260200185151581526020018481526020018381526020018281526020019a505050505050505050505060405180910390f35b600d81815481106105b357fe5b90600052602060002090600a02016000915090508060000154908060010160009054906101000a900473ffffffffffffffffffffffffffffffffffffffff16908060020154908060030154908060040154908060050154908060060160009054906101000a900460ff1690806007015490806008015490806009015490508a565b60015481565b600560009054906101000a900473ffffffffffffffffffffffffffffffffffffffff1673ffffffffffffffffffffffffffffffffffffffff163373ffffffffffffffffffffffffffffffffffffffff16146106fd576040517f08c379a00000000000000000000000000000000000000000000000000000000081526004018080602001828103825260188152602001807f4f6e6c792066726f6d20466163746f727941646472657373000000000000000081525060200191505060405180910390fd5b6001861015610774576040517f08c379a00000000000000000000000000000000000000000000000000000000081526004018080602001828103825260178152602001807f496e636f7272656374205377617020496e74657276616c00000000000000000081525060200191505060405180910390fd5b60018510156107eb576040517f08c379a000000000000000000000000000000000000000000000000000000000815260040180806020018281038252601b8152602001807f496e636f7272656374204475726174696f6e20496e74657276616c000000000081525060200191505060405180910390fd5b6001841015610862576040517f08c379a000000000000000000000000000000000000000000000000000000000815260040180806020018281038252601d8152602001807f496e636f727265637420546f6b656e204d696e696d756d20507269636500000081525060200191505060405180910390fd5b8383116108d7576040517f08c379a000000000000000000000000000000000000000000000000000000000815260040180806020018281038252601d8152602001807f496e636f727265637420546f6b656e204d6178696d756d20507269636500000081525060200191505060405180910390fd5b600182101561094e576040517f08c379a000000000000000000000000000000000000000000000000000000000815260040180806020018281038252601f8152602001807f496e73756666696369656e7420546f6b656e20496e70757420416d6f756e740081525060200191505060405180910390fd5b600115158115151480610965575060001515811515145b6109d7576040517f08c379a00000000000000000000000000000000000000000000000000000000081526004018080602001828103825260148152602001807f496e636f7272656374204f72646572205479706500000000000000000000000081525060200191505060405180910390fd5b7fffffffffffffffffffffffffffffffffffffffffffffffffffffffffffffffff60095410610a6e576040517f08c379a00000000000000000000000000000000000000000000000000000000081526004018080602001828103825260168152602001807f4d6178696d756d204f726465727320526561636865640000000000000000000081525060200191505060405180910390fd5b6000610a85610e1087611e4090919063ffffffff16565b90506000610a9c8883611ec690919063ffffffff16565b90506001811015610b15576040517f08c379a000000000000000000000000000000000000000000000000000000000815260040180806020018281038252601b8152602001807f496e636f727265637420546f74616c205377617020526573756c74000000000081525060200191505060405180910390fd5b610b1d613bd8565b8981600001818152505032816020019073ffffffffffffffffffffffffffffffffffffffff16908173ffffffffffffffffffffffffffffffffffffffff1681525050888160400181815250508681606001818152505085816080018181525050848160a0018181525050838160c001901515908115158152505060008161010001818152505060018160e00181815250508181610120018181525050600d8190806001815401808255809150506001900390600052602060002090600a02016000909190919091506000820151816000015560208201518160010160006101000a81548173ffffffffffffffffffffffffffffffffffffffff021916908373ffffffffffffffffffffffffffffffffffffffff16021790555060408201518160020155606082015181600301556080820151816004015560a0820151816005015560c08201518160060160006101000a81548160ff02191690831515021790555060e082015181600701556101008201518160080155610120820151816009015550507fc39f5b489956697850df4e848a5546d7a042a17c537e1d61207b4f7e9ce4b0c98a600154328c8c8c8c8c8c604051808a81526020018981526020018873ffffffffffffffffffffffffffffffffffffffff1681526020018781526020018681526020018581526020018481526020018381526020018215158152602001995050505050505050505060405180910390a160096000815480929190600101919050555060076000815480929190600101919050555050505050505050505050565b600460009054906101000a900473ffffffffffffffffffffffffffffffffffffffff1681565b610d8f611f4f565b73ffffffffffffffffffffffffffffffffffffffff16610dad6119c1565b73ffffffffffffffffffffffffffffffffffffffff1614610e36576040517f08c379a00000000000000000000000000000000000000000000000000000000081526004018080602001828103825260208152602001807f4f776e61626c653a2063616c6c6572206973206e6f7420746865206f776e657281525060200191505060405180910390fd5b600073ffffffffffffffffffffffffffffffffffffffff1660008054906101000a900473ffffffffffffffffffffffffffffffffffffffff1673ffffffffffffffffffffffffffffffffffffffff167f8be0079c531659141344cd1fd0a4f28419497f9722a3daafe3b4186f6b6457e060405160405180910390a360008060006101000a81548173ffffffffffffffffffffffffffffffffffffffff021916908373ffffffffffffffffffffffffffffffffffffffff160217905550565b60075481565b60606000806000600d8054905090506001811015610f80576040517f08c379a000000000000000000000000000000000000000000000000000000000815260040180806020018281038252601e8152602001807f496e73756666696369656e74206f72646572206c697374206c656e677468000081525060200191505060405180910390fd5b60008060608367ffffffffffffffff81118015610f9c57600080fd5b50604051908082528060200260200182016040528015610fcb5781602001602082028036833780820191505090505b50905060005b84811015611112578873ffffffffffffffffffffffffffffffffffffffff16600d8281548110610ffd57fe5b90600052602060002090600a020160010160009054906101000a900473ffffffffffffffffffffffffffffffffffffffff1673ffffffffffffffffffffffffffffffffffffffff16141561110557600d818154811061105857fe5b90600052602060002090600a02016000015482828151811061107657fe5b60200260200101818152505060011515600d828154811061109357fe5b90600052602060002090600a020160060160009054906101000a900460ff16151514156110c35783806001019450505b60001515600d82815481106110d457fe5b90600052602060002090600a020160060160009054906101000a900460ff16151514156111045782806001019350505b5b8080600101915050610fd1565b50808383965096509650505050509193909250565b600080600d8054905090506000806000905060608367ffffffffffffffff8111801561115257600080fd5b506040519080825280602002602001820160405280156111815781602001602082028036833780820191505090505b50905060005b848110156111d5577fffffffffffffffffffffffffffffffffffffffffffffffffffffffffffffffff8282815181106111bc57fe5b6020026020010181815250508080600101915050611187565b5060005b8481101561192d576000611232600d83815481106111f357fe5b90600052602060002090600a020160090154600d848154811061121257fe5b90600052602060002090600a020160050154611ec690919063ffffffff16565b90506000611267600d848154811061124657fe5b90600052602060002090600a02016002015442611f5790919063ffffffff16565b9050600d838154811061127657fe5b90600052602060002090600a020160090154600d848154811061129557fe5b90600052602060002090600a020160070154116118e6576112b4611fda565b955085600d84815481106112c457fe5b90600052602060002090600a020160030154108015611300575085600d84815481106112ec57fe5b90600052602060002090600a020160040154115b156118e15760011515600d848154811061131657fe5b90600052602060002090600a020160060160009054906101000a900460ff161515148015611348575060011515891515145b156115f45761135882600161221c565b945080600d848154811061136857fe5b90600052602060002090600a020160080154108015611388575060018210155b8015611395575060018510155b156115ef57611429600c60009054906101000a900473ffffffffffffffffffffffffffffffffffffffff16600360009054906101000a900473ffffffffffffffffffffffffffffffffffffffff168488600d88815481106113f257fe5b90600052602060002090600a020160010160009054906101000a900473ffffffffffffffffffffffffffffffffffffffff16612619565b42600d848154811061143757fe5b90600052602060002090600a020160080181905550600d838154811061145957fe5b90600052602060002090600a0201600701600081548092919060010191905055508780600101985050600d838154811061148f57fe5b90600052602060002090600a020160090154600d84815481106114ae57fe5b90600052602060002090600a02016007015411156114fe57600d83815481106114d357fe5b90600052602060002090600a0201600001548484815181106114f157fe5b6020026020010181815250505b6115ee600d848154811061150e57fe5b90600052602060002090600a020160405180610140016040529081600082015481526020016001820160009054906101000a900473ffffffffffffffffffffffffffffffffffffffff1673ffffffffffffffffffffffffffffffffffffffff1673ffffffffffffffffffffffffffffffffffffffff168152602001600282015481526020016003820154815260200160048201548152602001600582015481526020016006820160009054906101000a900460ff161515151581526020016007820154815260200160088201548152602001600982015481525050612bd4565b5b6118e0565b60001515600d848154811061160557fe5b90600052602060002090600a020160060160009054906101000a900460ff161515148015611637575060001515891515145b156118df5761164782600061221c565b945080600d848154811061165757fe5b90600052602060002090600a020160080154108015611677575060018210155b8015611684575060018510155b156118de57611718600360009054906101000a900473ffffffffffffffffffffffffffffffffffffffff16600c60009054906101000a900473ffffffffffffffffffffffffffffffffffffffff168488600d88815481106116e157fe5b90600052602060002090600a020160010160009054906101000a900473ffffffffffffffffffffffffffffffffffffffff16612619565b42600d848154811061172657fe5b90600052602060002090600a020160080181905550600d838154811061174857fe5b90600052602060002090600a0201600701600081548092919060010191905055508780600101985050600d838154811061177e57fe5b90600052602060002090600a020160090154600d848154811061179d57fe5b90600052602060002090600a02016007015411156117ed57600d83815481106117c257fe5b90600052602060002090600a0201600001548484815181106117e057fe5b6020026020010181815250505b6118dd600d84815481106117fd57fe5b90600052602060002090600a020160405180610140016040529081600082015481526020016001820160009054906101000a900473ffffffffffffffffffffffffffffffffffffffff1673ffffffffffffffffffffffffffffffffffffffff1673ffffffffffffffffffffffffffffffffffffffff168152602001600282015481526020016003820154815260200160048201548152602001600582015481526020016006820160009054906101000a900460ff161515151581526020016007820154815260200160088201548152602001600982015481525050612bd4565b5b5b5b5b61191e565b600d83815481106118f357fe5b90600052602060002090600a02016000015484848151811061191157fe5b6020026020010181815250505b505080806001019150506111d9565b5060005b8481101561199757600082828151811061194757fe5b602002602001015190507fffffffffffffffffffffffffffffffffffffffffffffffffffffffffffffffff811461198957611983816001612ca2565b50611997565b508080600101915050611931565b506119ad856008546133f290919063ffffffff16565b600881905550505050505050565b60085481565b60008060009054906101000a900473ffffffffffffffffffffffffffffffffffffffff16905090565b600560009054906101000a900473ffffffffffffffffffffffffffffffffffffffff1681565b600260009054906101000a900473ffffffffffffffffffffffffffffffffffffffff1681565b600360009054906101000a900473ffffffffffffffffffffffffffffffffffffffff1681565b611a67816000612ca2565b50565b60095481565b60065481565b611a7e611f4f565b73ffffffffffffffffffffffffffffffffffffffff16611a9c6119c1565b73ffffffffffffffffffffffffffffffffffffffff1614611b25576040517f08c379a00000000000000000000000000000000000000000000000000000000081526004018080602001828103825260208152602001807f4f776e61626c653a2063616c6c6572206973206e6f7420746865206f776e657281525060200191505060405180910390fd5b600073ffffffffffffffffffffffffffffffffffffffff168173ffffffffffffffffffffffffffffffffffffffff161415611bab576040517f08c379a0000000000000000000000000000000000000000000000000000000008152600401808060200182810382526026815260200180613d416026913960400191505060405180910390fd5b8073ffffffffffffffffffffffffffffffffffffffff1660008054906101000a900473ffffffffffffffffffffffffffffffffffffffff1673ffffffffffffffffffffffffffffffffffffffff167f8be0079c531659141344cd1fd0a4f28419497f9722a3daafe3b4186f6b6457e060405160405180910390a3806000806101000a81548173ffffffffffffffffffffffffffffffffffffffff021916908373ffffffffffffffffffffffffffffffffffffffff16021790555050565b60008060008060008060008060008060005b600d80549050811015611e32578b600d8281548110611c9557fe5b90600052602060002090600a0201600001541415611e2557600d8181548110611cba57fe5b90600052602060002090600a0201600001549a50600d8181548110611cdb57fe5b90600052602060002090600a020160010160009054906101000a900473ffffffffffffffffffffffffffffffffffffffff169950600d8181548110611d1c57fe5b90600052602060002090600a0201600201549850600d8181548110611d3d57fe5b90600052602060002090600a0201600301549750600d8181548110611d5e57fe5b90600052602060002090600a0201600401549650600d8181548110611d7f57fe5b90600052602060002090600a0201600501549550600d8181548110611da057fe5b90600052602060002090600a020160060160009054906101000a900460ff169450600d8181548110611dce57fe5b90600052602060002090600a0201600701549350600d8181548110611def57fe5b90600052602060002090600a0201600801549250600d8181548110611e1057fe5b90600052602060002090600a02016009015491505b8080600101915050611c7a565b509193959799509193959799565b600080831415611e535760009050611ec0565b6000828402905082848281611e6457fe5b0414611ebb576040517f08c379a0000000000000000000000000000000000000000000000000000000008152600401808060200182810382526021815260200180613de26021913960400191505060405180910390fd5b809150505b92915050565b6000808211611f3d576040517f08c379a000000000000000000000000000000000000000000000000000000000815260040180806020018281038252601a8152602001807f536166654d6174683a206469766973696f6e206279207a65726f00000000000081525060200191505060405180910390fd5b818381611f4657fe5b04905092915050565b600033905090565b600082821115611fcf576040517f08c379a000000000000000000000000000000000000000000000000000000000815260040180806020018281038252601e8152602001807f536166654d6174683a207375627472616374696f6e206f766572666c6f77000081525060200191505060405180910390fd5b818303905092915050565b600080670de0b6b3a764000090506000611fff6103e883611ec690919063ffffffff16565b90506060600260009054906101000a900473ffffffffffffffffffffffffffffffffffffffff1673ffffffffffffffffffffffffffffffffffffffff16634955796c83600b6103e56040518463ffffffff1660e01b8152600401808481526020018060200183815260200182810382528481815481526020019150805480156120dd57602002820191906000526020600020905b8160009054906101000a900473ffffffffffffffffffffffffffffffffffffffff1673ffffffffffffffffffffffffffffffffffffffff1681526020019060010190808311612093575b505094505050505060006040518083038186803b1580156120fd57600080fd5b505afa158015612111573d6000803e3d6000fd5b505050506040513d6000823e3d601f19601f82011682018060405250602081101561213b57600080fd5b810190808051604051939291908464010000000082111561215b57600080fd5b8382019150602082018581111561217157600080fd5b825186602082028301116401000000008211171561218e57600080fd5b8083526020830192505050908051906020019060200280838360005b838110156121c55780820151818401526020810190506121aa565b5050505090500160405250505090506000816001600b8054905003815181106121ea57fe5b602002602001015190506122096103e882611e4090919063ffffffff16565b9050806006819055508094505050505090565b600080821561241c576060600260009054906101000a900473ffffffffffffffffffffffffffffffffffffffff1673ffffffffffffffffffffffffffffffffffffffff16634955796c86600a6103e56040518463ffffffff1660e01b81526004018084815260200180602001838152602001828103825284818154815260200191508054801561230157602002820191906000526020600020905b8160009054906101000a900473ffffffffffffffffffffffffffffffffffffffff1673ffffffffffffffffffffffffffffffffffffffff16815260200190600101908083116122b7575b505094505050505060006040518083038186803b15801561232157600080fd5b505afa158015612335573d6000803e3d6000fd5b505050506040513d6000823e3d601f19601f82011682018060405250602081101561235f57600080fd5b810190808051604051939291908464010000000082111561237f57600080fd5b8382019150602082018581111561239557600080fd5b82518660208202830111640100000000821117156123b257600080fd5b8083526020830192505050908051906020019060200280838360005b838110156123e95780820151818401526020810190506123ce565b505050509050016040525050509050806001600a80549050038151811061240c57fe5b602002602001015191505061260f565b6060600260009054906101000a900473ffffffffffffffffffffffffffffffffffffffff1673ffffffffffffffffffffffffffffffffffffffff16634955796c86600b6103e56040518463ffffffff1660e01b8152600401808481526020018060200183815260200182810382528481815481526020019150805480156124f857602002820191906000526020600020905b8160009054906101000a900473ffffffffffffffffffffffffffffffffffffffff1673ffffffffffffffffffffffffffffffffffffffff16815260200190600101908083116124ae575b505094505050505060006040518083038186803b15801561251857600080fd5b505afa15801561252c573d6000803e3d6000fd5b505050506040513d6000823e3d601f19601f82011682018060405250602081101561255657600080fd5b810190808051604051939291908464010000000082111561257657600080fd5b8382019150602082018581111561258c57600080fd5b82518660208202830111640100000000821117156125a957600080fd5b8083526020830192505050908051906020019060200280838360005b838110156125e05780820151818401526020810190506125c5565b505050509050016040525050509050806001600b80549050038151811061260357fe5b60200260200101519150505b8091505092915050565b6001831015612673576040517f08c379a0000000000000000000000000000000000000000000000000000000008152600401808060200182810382526022815260200180613cfa6022913960400191505060405180910390fd5b60018210156126cd576040517f08c379a0000000000000000000000000000000000000000000000000000000008152600401808060200182810382526023815260200180613e566023913960400191505060405180910390fd5b600073ffffffffffffffffffffffffffffffffffffffff168573ffffffffffffffffffffffffffffffffffffffff161415612753576040517f08c379a0000000000000000000000000000000000000000000000000000000008152600401808060200182810382526029815260200180613e036029913960400191505060405180910390fd5b600073ffffffffffffffffffffffffffffffffffffffff168473ffffffffffffffffffffffffffffffffffffffff1614156127d9576040517f08c379a000000000000000000000000000000000000000000000000000000000815260040180806020018281038252602a815260200180613d92602a913960400191505060405180910390fd5b600073ffffffffffffffffffffffffffffffffffffffff168173ffffffffffffffffffffffffffffffffffffffff16141561285f576040517f08c379a0000000000000000000000000000000000000000000000000000000008152600401808060200182810382526025815260200180613d1c6025913960400191505060405180910390fd5b8473ffffffffffffffffffffffffffffffffffffffff1663095ea7b3600260009054906101000a900473ffffffffffffffffffffffffffffffffffffffff16856040518363ffffffff1660e01b8152600401808373ffffffffffffffffffffffffffffffffffffffff16815260200182815260200192505050602060405180830381600087803b1580156128f257600080fd5b505af1158015612906573d6000803e3d6000fd5b505050506040513d602081101561291c57600080fd5b8101908080519060200190929190505050506060600267ffffffffffffffff8111801561294857600080fd5b506040519080825280602002602001820160405280156129775781602001602082028036833780820191505090505b509050858160008151811061298857fe5b602002602001019073ffffffffffffffffffffffffffffffffffffffff16908173ffffffffffffffffffffffffffffffffffffffff168152505084816001815181106129d057fe5b602002602001019073ffffffffffffffffffffffffffffffffffffffff16908173ffffffffffffffffffffffffffffffffffffffff1681525050600260009054906101000a900473ffffffffffffffffffffffffffffffffffffffff1673ffffffffffffffffffffffffffffffffffffffff166338ed173985858486426040518663ffffffff1660e01b815260040180868152602001858152602001806020018473ffffffffffffffffffffffffffffffffffffffff168152602001838152602001828103825285818151815260200191508051906020019060200280838360005b83811015612acd578082015181840152602081019050612ab2565b505050509050019650505050505050600060405180830381600087803b158015612af657600080fd5b505af1158015612b0a573d6000803e3d6000fd5b505050506040513d6000823e3d601f19601f820116820180604052506020811015612b3457600080fd5b8101908080516040519392919084640100000000821115612b5457600080fd5b83820191506020820185811115612b6a57600080fd5b8251866020820283011164010000000082111715612b8757600080fd5b8083526020830192505050908051906020019060200280838360005b83811015612bbe578082015181840152602081019050612ba3565b5050505090500160405250505050505050505050565b7fe9a00e06037f5febd6a711e8d956dd587f873e20ca83e318f4660bdaf82f5961816000015160015483602001518460400151856060015186608001518760a001518860c001518960e001518a61010001518b6101200151604051808c81526020018b81526020018a73ffffffffffffffffffffffffffffffffffffffff16815260200189815260200188815260200187815260200186815260200185151581526020018481526020018381526020018281526020019b50505050505050505050505060405180910390a150565b600080600d8054905090506000806001831015612d27576040517f08c379a000000000000000000000000000000000000000000000000000000000815260040180806020018281038252601b8152602001807f496e636f7272656374204f7264657220496e64657820676976656e000000000081525060200191505060405180910390fd5b60005b83811015613161578515612f0e5786600d8281548110612d4657fe5b90600052602060002090600a0201600001541415612f09576000612daf600d8381548110612d7057fe5b90600052602060002090600a020160090154600d8481548110612d8f57fe5b90600052602060002090600a020160050154611ec690919063ffffffff16565b90506000612de76001600d8581548110612dc557fe5b90600052602060002090600a0201600701540383611e4090919063ffffffff16565b90506000612e1c82600d8681548110612dfc57fe5b90600052602060002090600a020160050154611f5790919063ffffffff16565b905060011515600d8581548110612e2f57fe5b90600052602060002090600a020160060160009054906101000a900460ff1615151415612ea357612e9e600d8581548110612e6657fe5b90600052602060002090600a020160010160009054906101000a900473ffffffffffffffffffffffffffffffffffffffff168261347a565b612eec565b612eeb600d8581548110612eb357fe5b90600052602060002090600a020160010160009054906101000a900473ffffffffffffffffffffffffffffffffffffffff16826135cb565b5b600197508395508715612f0157505050613161565b505050613154565b613153565b3273ffffffffffffffffffffffffffffffffffffffff16600d8281548110612f3257fe5b90600052602060002090600a020160010160009054906101000a900473ffffffffffffffffffffffffffffffffffffffff1673ffffffffffffffffffffffffffffffffffffffff1614156131525786600d8281548110612f8e57fe5b90600052602060002090600a0201600001541415613151576000612ff7600d8381548110612fb857fe5b90600052602060002090600a020160090154600d8481548110612fd757fe5b90600052602060002090600a020160050154611ec690919063ffffffff16565b9050600061302f6001600d858154811061300d57fe5b90600052602060002090600a0201600701540383611e4090919063ffffffff16565b9050600061306482600d868154811061304457fe5b90600052602060002090600a020160050154611f5790919063ffffffff16565b905060011515600d858154811061307757fe5b90600052602060002090600a020160060160009054906101000a900460ff16151514156130eb576130e6600d85815481106130ae57fe5b90600052602060002090600a020160010160009054906101000a900473ffffffffffffffffffffffffffffffffffffffff168261347a565b613134565b613133600d85815481106130fb57fe5b90600052602060002090600a020160010160009054906101000a900473ffffffffffffffffffffffffffffffffffffffff16826135cb565b5b60019750839550871561314957505050613161565b505050613154565b5b5b5b8080600101915050612d2a565b5083156133cf57600183146133bd5760008290505b600184038110156132ae57600d600182018154811061319157fe5b90600052602060002090600a0201600d82815481106131ac57fe5b90600052602060002090600a0201600082015481600001556001820160009054906101000a900473ffffffffffffffffffffffffffffffffffffffff168160010160006101000a81548173ffffffffffffffffffffffffffffffffffffffff021916908373ffffffffffffffffffffffffffffffffffffffff160217905550600282015481600201556003820154816003015560048201548160040155600582015481600501556006820160009054906101000a900460ff168160060160006101000a81548160ff0219169083151502179055506007820154816007015560088201548160080155600982015481600901559050508080600101915050613176565b507fe42e84d3479ff44170d4370e19c3ff6685c784eef36bbbd1dbd438ad91244225600d60018503815481106132e057fe5b90600052602060002090600a020160000154600154604051808381526020018281526020019250505060405180910390a1600d80548061331c57fe5b60019003818190600052602060002090600a02016000808201600090556001820160006101000a81549073ffffffffffffffffffffffffffffffffffffffff021916905560028201600090556003820160009055600482016000905560058201600090556006820160006101000a81549060ff02191690556007820160009055600882016000905560098201600090555050905580806001019150506133ce565b80806001019150506133cd61371c565b5b5b6133e481600754611f5790919063ffffffff16565b600781905550505050505050565b600080828401905083811015613470576040517f08c379a000000000000000000000000000000000000000000000000000000000815260040180806020018281038252601b8152602001807f536166654d6174683a206164646974696f6e206f766572666c6f77000000000081525060200191505060405180910390fd5b8091505092915050565b6000600c60009054906101000a900473ffffffffffffffffffffffffffffffffffffffff169050818173ffffffffffffffffffffffffffffffffffffffff166370a08231306040518263ffffffff1660e01b8152600401808273ffffffffffffffffffffffffffffffffffffffff16815260200191505060206040518083038186803b15801561350957600080fd5b505afa15801561351d573d6000803e3d6000fd5b505050506040513d602081101561353357600080fd5b8101908080519060200190929190505050101561359b576040517f08c379a000000000000000000000000000000000000000000000000000000000815260040180806020018281038252602b815260200180613d67602b913960400191505060405180910390fd5b6135c683838373ffffffffffffffffffffffffffffffffffffffff166137a79092919063ffffffff16565b505050565b6000600360009054906101000a900473ffffffffffffffffffffffffffffffffffffffff169050818173ffffffffffffffffffffffffffffffffffffffff166370a08231306040518263ffffffff1660e01b8152600401808273ffffffffffffffffffffffffffffffffffffffff16815260200191505060206040518083038186803b15801561365a57600080fd5b505afa15801561366e573d6000803e3d6000fd5b505050506040513d602081101561368457600080fd5b810190808051906020019092919050505010156136ec576040517f08c379a000000000000000000000000000000000000000000000000000000000815260040180806020018281038252602b815260200180613d67602b913960400191505060405180910390fd5b61371783838373ffffffffffffffffffffffffffffffffffffffff166137a79092919063ffffffff16565b505050565b6001600d8054905014613797576040517f08c379a000000000000000000000000000000000000000000000000000000000815260040180806020018281038252601c8152602001807f4f726465724c69737420646f6573206e6f7420657175616c206f6e650000000081525060200191505060405180910390fd5b600d60006137a59190613c43565b565b6138448363a9059cbb60e01b8484604051602401808373ffffffffffffffffffffffffffffffffffffffff16815260200182815260200192505050604051602081830303815290604052907bffffffffffffffffffffffffffffffffffffffffffffffffffffffff19166020820180517bffffffffffffffffffffffffffffffffffffffffffffffffffffffff8381831617835250505050613849565b505050565b60606138ab826040518060400160405280602081526020017f5361666545524332303a206c6f772d6c6576656c2063616c6c206661696c65648152508573ffffffffffffffffffffffffffffffffffffffff166139389092919063ffffffff16565b9050600081511115613933578080602001905160208110156138cc57600080fd5b8101908080519060200190929190505050613932576040517f08c379a000000000000000000000000000000000000000000000000000000000815260040180806020018281038252602a815260200180613e2c602a913960400191505060405180910390fd5b5b505050565b60606139478484600085613950565b90509392505050565b6060824710156139ab576040517f08c379a0000000000000000000000000000000000000000000000000000000008152600401808060200182810382526026815260200180613dbc6026913960400191505060405180910390fd5b6139b485613af9565b613a26576040517f08c379a000000000000000000000000000000000000000000000000000000000815260040180806020018281038252601d8152602001807f416464726573733a2063616c6c20746f206e6f6e2d636f6e747261637400000081525060200191505060405180910390fd5b600060608673ffffffffffffffffffffffffffffffffffffffff1685876040518082805190602001908083835b60208310613a765780518252602082019150602081019050602083039250613a53565b6001836020036101000a03801982511681845116808217855250505050505090500191505060006040518083038185875af1925050503d8060008114613ad8576040519150601f19603f3d011682016040523d82523d6000602084013e613add565b606091505b5091509150613aed828286613b0c565b92505050949350505050565b600080823b905060008111915050919050565b60608315613b1c57829050613bd1565b600083511115613b2f5782518084602001fd5b816040517f08c379a00000000000000000000000000000000000000000000000000000000081526004018080602001828103825283818151815260200191508051906020019080838360005b83811015613b96578082015181840152602081019050613b7b565b50505050905090810190601f168015613bc35780820380516001836020036101000a031916815260200191505b509250505060405180910390fd5b9392505050565b60405180610140016040528060008152602001600073ffffffffffffffffffffffffffffffffffffffff168152602001600081526020016000815260200160008152602001600081526020016000151581526020016000815260200160008152602001600081525090565b50805460008255600a0290600052602060002090810190613c649190613c67565b50565b5b80821115613cf5576000808201600090556001820160006101000a81549073ffffffffffffffffffffffffffffffffffffffff021916905560028201600090556003820160009055600482016000905560058201600090556006820160006101000a81549060ff021916905560078201600090556008820160009055600982016000905550600a01613c68565b509056fe537761703a20496e73756666696369656e7420546f6b656e20496e20416d6f756e74537761703a205f746f2063616e6e6f7420626520746865207a65726f20616464726573732e4f776e61626c653a206e6577206f776e657220697320746865207a65726f2061646472657373496e73756666696369656e74204f72646572426f6f6b53746f7261676520746f6b656e2062616c616e6365537761703a20746f6b656e4f75742063616e6e6f7420626520746865207a65726f20616464726573732e416464726573733a20696e73756666696369656e742062616c616e636520666f722063616c6c536166654d6174683a206d756c7469706c69636174696f6e206f766572666c6f77537761703a20746f6b656e496e2063616e6e6f7420626520746865207a65726f20616464726573732e5361666545524332303a204552433230206f7065726174696f6e20646964206e6f742073756363656564537761703a496e73756666696369656e7420546f6b656e204f7574204d696e696d756da26469706673582212206a0e727182fc2fac55e84a91792b931bb8fbdfe1ec3ff1f2d00c9a667cffa4d364736f6c634300060c0033a26469706673582212201deec5f123f187f2347e90abdd512b8fe4e795e4a255ff9841d403070ccea07e64736f6c634300060c0033",
  "devdoc": {
    "kind": "dev",
    "methods": {
      "owner()": {
        "details": "Returns the address of the current owner."
      },
      "renounceOwnership()": {
        "details": "Leaves the contract without owner. It will not be possible to call `onlyOwner` functions anymore. Can only be called by the current owner. NOTE: Renouncing ownership will leave the contract without an owner, thereby removing any functionality that is only available to the owner."
      },
      "transferOwnership(address)": {
        "details": "Transfers ownership of the contract to a new account (`newOwner`). Can only be called by the current owner."
      }
    },
    "version": 1
  },
  "userdoc": {
    "kind": "user",
    "methods": {},
    "version": 1
  },
  "storageLayout": {
    "storage": [
      {
        "astId": 3523,
        "contract": "contracts/dca/AquasDCA.sol:AquasDCA",
        "label": "_owner",
        "offset": 0,
        "slot": "0",
        "type": "t_address"
      },
      {
        "astId": 14272,
        "contract": "contracts/dca/AquasDCA.sol:AquasDCA",
        "label": "NFTAddress",
        "offset": 0,
        "slot": "1",
        "type": "t_address"
      },
      {
        "astId": 14274,
        "contract": "contracts/dca/AquasDCA.sol:AquasDCA",
        "label": "TradingEnabled",
        "offset": 20,
        "slot": "1",
        "type": "t_bool"
      },
      {
        "astId": 14276,
        "contract": "contracts/dca/AquasDCA.sol:AquasDCA",
        "label": "Relayer",
        "offset": 0,
        "slot": "2",
        "type": "t_address"
      },
      {
        "astId": 14278,
        "contract": "contracts/dca/AquasDCA.sol:AquasDCA",
        "label": "Router",
        "offset": 0,
        "slot": "3",
        "type": "t_address"
      },
      {
        "astId": 14280,
        "contract": "contracts/dca/AquasDCA.sol:AquasDCA",
        "label": "EntryFee",
        "offset": 0,
        "slot": "4",
        "type": "t_uint256"
      },
      {
        "astId": 14283,
        "contract": "contracts/dca/AquasDCA.sol:AquasDCA",
        "label": "MAX_ORDERS",
        "offset": 0,
        "slot": "5",
        "type": "t_uint256"
      },
      {
        "astId": 14285,
        "contract": "contracts/dca/AquasDCA.sol:AquasDCA",
        "label": "StorageID",
        "offset": 0,
        "slot": "6",
        "type": "t_uint256"
      },
      {
        "astId": 14289,
        "contract": "contracts/dca/AquasDCA.sol:AquasDCA",
        "label": "allStorages",
        "offset": 0,
        "slot": "7",
        "type": "t_mapping(t_uint256,t_contract(DCAStorage)17147)"
      },
      {
        "astId": 14291,
        "contract": "contracts/dca/AquasDCA.sol:AquasDCA",
        "label": "USDC_ADDRESS",
        "offset": 0,
        "slot": "8",
        "type": "t_address"
      },
      {
        "astId": 14293,
        "contract": "contracts/dca/AquasDCA.sol:AquasDCA",
        "label": "AQUA_ADDRESS",
        "offset": 0,
        "slot": "9",
        "type": "t_address"
      },
      {
        "astId": 14295,
        "contract": "contracts/dca/AquasDCA.sol:AquasDCA",
        "label": "index",
        "offset": 0,
        "slot": "10",
        "type": "t_uint256"
      }
    ],
    "types": {
      "t_address": {
        "encoding": "inplace",
        "label": "address",
        "numberOfBytes": "20"
      },
      "t_bool": {
        "encoding": "inplace",
        "label": "bool",
        "numberOfBytes": "1"
      },
      "t_contract(DCAStorage)17147": {
        "encoding": "inplace",
        "label": "contract DCAStorage",
        "numberOfBytes": "20"
      },
      "t_mapping(t_uint256,t_contract(DCAStorage)17147)": {
        "encoding": "mapping",
        "key": "t_uint256",
        "label": "mapping(uint256 => contract DCAStorage)",
        "numberOfBytes": "32",
        "value": "t_contract(DCAStorage)17147"
      },
      "t_uint256": {
        "encoding": "inplace",
        "label": "uint256",
        "numberOfBytes": "32"
      }
    }
  }
}