{
  "address": "0x6bD8a9f4d6478Ba1080dd750c0b3aD6d1D37C4f0",
  "abi": [
    {
      "inputs": [
        {
          "internalType": "address",
          "name": "_router",
          "type": "address"
        },
        {
          "internalType": "address",
          "name": "_factory",
          "type": "address"
        },
        {
          "internalType": "address",
          "name": "_nft",
          "type": "address"
        }
      ],
      "stateMutability": "nonpayable",
      "type": "constructor"
    },
    {
      "anonymous": false,
      "inputs": [
        {
          "indexed": false,
          "internalType": "uint256",
          "name": "_index",
          "type": "uint256"
        },
        {
          "indexed": false,
          "internalType": "address",
          "name": "_pool",
          "type": "address"
        }
      ],
      "name": "NewDataFeed",
      "type": "event"
    },
    {
      "anonymous": false,
      "inputs": [
        {
          "indexed": false,
          "internalType": "uint256",
          "name": "_index",
          "type": "uint256"
        },
        {
          "indexed": false,
          "internalType": "address",
          "name": "_pool",
          "type": "address"
        }
      ],
      "name": "NewPool",
      "type": "event"
    },
    {
      "anonymous": false,
      "inputs": [
        {
          "indexed": true,
          "internalType": "address",
          "name": "previousOwner",
          "type": "address"
        },
        {
          "indexed": true,
          "internalType": "address",
          "name": "newOwner",
          "type": "address"
        }
      ],
      "name": "OwnershipTransferred",
      "type": "event"
    },
    {
      "inputs": [],
      "name": "FeedID",
      "outputs": [
        {
          "internalType": "uint256",
          "name": "",
          "type": "uint256"
        }
      ],
      "stateMutability": "view",
      "type": "function"
    },
    {
      "inputs": [],
      "name": "FeedMaximum",
      "outputs": [
        {
          "internalType": "uint256",
          "name": "",
          "type": "uint256"
        }
      ],
      "stateMutability": "view",
      "type": "function"
    },
    {
      "inputs": [
        {
          "internalType": "uint256",
          "name": "",
          "type": "uint256"
        }
      ],
      "name": "Feeds",
      "outputs": [
        {
          "internalType": "uint256",
          "name": "id",
          "type": "uint256"
        },
        {
          "internalType": "address",
          "name": "router",
          "type": "address"
        },
        {
          "internalType": "address",
          "name": "pool",
          "type": "address"
        },
        {
          "internalType": "address",
          "name": "quote",
          "type": "address"
        },
        {
          "internalType": "address",
          "name": "base",
          "type": "address"
        },
        {
          "internalType": "uint256",
          "name": "priceFeed",
          "type": "uint256"
        },
        {
          "internalType": "uint256",
          "name": "pricePool",
          "type": "uint256"
        }
      ],
      "stateMutability": "view",
      "type": "function"
    },
    {
      "inputs": [],
      "name": "NFTAddress",
      "outputs": [
        {
          "internalType": "address",
          "name": "",
          "type": "address"
        }
      ],
      "stateMutability": "view",
      "type": "function"
    },
    {
      "inputs": [
        {
          "internalType": "uint256",
          "name": "",
          "type": "uint256"
        }
      ],
      "name": "PoolAddresses",
      "outputs": [
        {
          "internalType": "address",
          "name": "",
          "type": "address"
        }
      ],
      "stateMutability": "view",
      "type": "function"
    },
    {
      "inputs": [
        {
          "internalType": "uint256",
          "name": "",
          "type": "uint256"
        }
      ],
      "name": "PoolAssetBase",
      "outputs": [
        {
          "internalType": "address",
          "name": "",
          "type": "address"
        }
      ],
      "stateMutability": "view",
      "type": "function"
    },
    {
      "inputs": [
        {
          "internalType": "uint256",
          "name": "",
          "type": "uint256"
        }
      ],
      "name": "PoolAssetQuote",
      "outputs": [
        {
          "internalType": "address",
          "name": "",
          "type": "address"
        }
      ],
      "stateMutability": "view",
      "type": "function"
    },
    {
      "inputs": [],
      "name": "UNISWAP_V2_FACTORY",
      "outputs": [
        {
          "internalType": "address",
          "name": "",
          "type": "address"
        }
      ],
      "stateMutability": "view",
      "type": "function"
    },
    {
      "inputs": [],
      "name": "UNISWAP_V2_ROUTER",
      "outputs": [
        {
          "internalType": "address",
          "name": "",
          "type": "address"
        }
      ],
      "stateMutability": "view",
      "type": "function"
    },
    {
      "inputs": [
        {
          "internalType": "address",
          "name": "_ammPoolAddress",
          "type": "address"
        },
        {
          "internalType": "address",
          "name": "newTokenQuote",
          "type": "address"
        },
        {
          "internalType": "address",
          "name": "newTokenBase",
          "type": "address"
        }
      ],
      "name": "addDataFeed",
      "outputs": [],
      "stateMutability": "nonpayable",
      "type": "function"
    },
    {
      "inputs": [
        {
          "internalType": "uint256",
          "name": "_feedID",
          "type": "uint256"
        }
      ],
      "name": "consumeFeed",
      "outputs": [
        {
          "components": [
            {
              "internalType": "uint256",
              "name": "id",
              "type": "uint256"
            },
            {
              "internalType": "address",
              "name": "router",
              "type": "address"
            },
            {
              "internalType": "address",
              "name": "pool",
              "type": "address"
            },
            {
              "internalType": "address",
              "name": "quote",
              "type": "address"
            },
            {
              "internalType": "address",
              "name": "base",
              "type": "address"
            },
            {
              "internalType": "uint256",
              "name": "priceFeed",
              "type": "uint256"
            },
            {
              "internalType": "uint256",
              "name": "pricePool",
              "type": "uint256"
            }
          ],
          "internalType": "struct AquasOracle.Feed",
          "name": "",
          "type": "tuple"
        }
      ],
      "stateMutability": "view",
      "type": "function"
    },
    {
      "inputs": [],
      "name": "consumeFeeds",
      "outputs": [
        {
          "components": [
            {
              "internalType": "uint256",
              "name": "id",
              "type": "uint256"
            },
            {
              "internalType": "address",
              "name": "router",
              "type": "address"
            },
            {
              "internalType": "address",
              "name": "pool",
              "type": "address"
            },
            {
              "internalType": "address",
              "name": "quote",
              "type": "address"
            },
            {
              "internalType": "address",
              "name": "base",
              "type": "address"
            },
            {
              "internalType": "uint256",
              "name": "priceFeed",
              "type": "uint256"
            },
            {
              "internalType": "uint256",
              "name": "pricePool",
              "type": "uint256"
            }
          ],
          "internalType": "struct AquasOracle.Feed[]",
          "name": "",
          "type": "tuple[]"
        }
      ],
      "stateMutability": "view",
      "type": "function"
    },
    {
      "inputs": [
        {
          "internalType": "address",
          "name": "_token",
          "type": "address"
        }
      ],
      "name": "decimals",
      "outputs": [
        {
          "internalType": "uint8",
          "name": "",
          "type": "uint8"
        }
      ],
      "stateMutability": "view",
      "type": "function"
    },
    {
      "inputs": [
        {
          "internalType": "address",
          "name": "_poolAddress",
          "type": "address"
        }
      ],
      "name": "getPoolPriceWithAddress",
      "outputs": [
        {
          "internalType": "uint256",
          "name": "_price",
          "type": "uint256"
        }
      ],
      "stateMutability": "view",
      "type": "function"
    },
    {
      "inputs": [
        {
          "internalType": "uint256",
          "name": "_dataFeedIndex",
          "type": "uint256"
        }
      ],
      "name": "getPoolPriceWithIndex",
      "outputs": [
        {
          "internalType": "uint256",
          "name": "_price",
          "type": "uint256"
        }
      ],
      "stateMutability": "view",
      "type": "function"
    },
    {
      "inputs": [
        {
          "internalType": "address",
          "name": "_poolAddress",
          "type": "address"
        }
      ],
      "name": "getPriceWithAddress",
      "outputs": [
        {
          "internalType": "uint256",
          "name": "_price",
          "type": "uint256"
        }
      ],
      "stateMutability": "view",
      "type": "function"
    },
    {
      "inputs": [
        {
          "internalType": "uint256",
          "name": "_dataFeedIndex",
          "type": "uint256"
        }
      ],
      "name": "getPriceWithIndex",
      "outputs": [
        {
          "internalType": "uint256",
          "name": "_price",
          "type": "uint256"
        }
      ],
      "stateMutability": "view",
      "type": "function"
    },
    {
      "inputs": [],
      "name": "owner",
      "outputs": [
        {
          "internalType": "address",
          "name": "",
          "type": "address"
        }
      ],
      "stateMutability": "view",
      "type": "function"
    },
    {
      "inputs": [],
      "name": "renounceOwnership",
      "outputs": [],
      "stateMutability": "nonpayable",
      "type": "function"
    },
    {
      "inputs": [
        {
          "internalType": "address",
          "name": "newAddress",
          "type": "address"
        }
      ],
      "name": "setNftAddress",
      "outputs": [],
      "stateMutability": "nonpayable",
      "type": "function"
    },
    {
      "inputs": [
        {
          "internalType": "address",
          "name": "newOwner",
          "type": "address"
        }
      ],
      "name": "transferOwnership",
      "outputs": [],
      "stateMutability": "nonpayable",
      "type": "function"
    },
    {
      "inputs": [
        {
          "internalType": "uint256",
          "name": "_dataFeedIndex",
          "type": "uint256"
        },
        {
          "internalType": "uint256",
          "name": "_price",
          "type": "uint256"
        }
      ],
      "name": "updateFeed",
      "outputs": [],
      "stateMutability": "nonpayable",
      "type": "function"
    }
  ],
  "transactionHash": "0xf65f1865ab0f828865a985cf9a295c07d21c3d5b7f56bd20075e0fdd974a4193",
  "args": [
    "0x698EA133CBA3BACD4aA6405411d8e8c1726D5f61",
    "0xc318a82CB7c2B0faf7e355BB8F285016956aBF55",
    "0xcEcd42ff7eCC7b0BfF7a9CF95C6e7ce9aA052d8C"
  ],
  "numDeployments": 17,
  "solcInputHash": "b0facad37e6c19f4aac6960f5970d5ef",
  "bytecode": "0x60806040523480156200001157600080fd5b50604051620035123803806200351283398181016040528101906200003791906200029b565b6000620000496200026560201b60201c565b9050806000806101000a81548173ffffffffffffffffffffffffffffffffffffffff021916908373ffffffffffffffffffffffffffffffffffffffff1602179055508073ffffffffffffffffffffffffffffffffffffffff16600073ffffffffffffffffffffffffffffffffffffffff167f8be0079c531659141344cd1fd0a4f28419497f9722a3daafe3b4186f6b6457e060405160405180910390a35082600360006101000a81548173ffffffffffffffffffffffffffffffffffffffff021916908373ffffffffffffffffffffffffffffffffffffffff16021790555081600460006101000a81548173ffffffffffffffffffffffffffffffffffffffff021916908373ffffffffffffffffffffffffffffffffffffffff16021790555080600260006101000a81548173ffffffffffffffffffffffffffffffffffffffff021916908373ffffffffffffffffffffffffffffffffffffffff1602179055506000600581905550600460009054906101000a900473ffffffffffffffffffffffffffffffffffffffff1673ffffffffffffffffffffffffffffffffffffffff1663574f2ba36040518163ffffffff1660e01b815260040160206040518083038186803b1580156200021b57600080fd5b505afa15801562000230573d6000803e3d6000fd5b505050506040513d601f19601f82011682018060405250810190620002569190620002f1565b6006819055505050506200038f565b600033905090565b6000815190506200027e816200035b565b92915050565b600081519050620002958162000375565b92915050565b600080600060608486031215620002b157600080fd5b6000620002c1868287016200026d565b9350506020620002d4868287016200026d565b9250506040620002e7868287016200026d565b9150509250925092565b6000602082840312156200030457600080fd5b6000620003148482850162000284565b91505092915050565b60006200032a8262000331565b9050919050565b600073ffffffffffffffffffffffffffffffffffffffff82169050919050565b6000819050919050565b62000366816200031d565b81146200037257600080fd5b50565b620003808162000351565b81146200038c57600080fd5b50565b613173806200039f6000396000f3fe608060405234801561001057600080fd5b50600436106101425760003560e01c8063b40d78f8116100b8578063d449a8321161007c578063d449a83214610381578063ee279a9d146103b1578063f2fde38b146103cd578063f367f13b146103e9578063fbdd392114610419578063ff9cf37f1461044957610142565b8063b40d78f8146102b1578063b56d451f146102e1578063b848880714610317578063be82c9c014610347578063c53989cb1461036357610142565b80635aff87711161010a5780635aff8771146101ff578063715018a61461022f5780638da5cb5b146102395780638e52e8101461025757806399d8fae314610275578063a82ed9ec1461029357610142565b80630b102d1a146101475780632cc057fe14610163578063310c87cc146101815780633512d97d1461019f5780635550139f146101cf575b600080fd5b610161600480360381019061015c91906124d3565b610479565b005b61016b6105a9565b6040516101789190612e24565b60405180910390f35b6101896105af565b6040516101969190612c48565b60405180910390f35b6101b960048036038101906101b491906124d3565b6105d5565b6040516101c69190612e24565b60405180910390f35b6101e960048036038101906101e491906125b5565b61067d565b6040516101f69190612c48565b60405180910390f35b610219600480360381019061021491906125b5565b6106b0565b6040516102269190612c48565b60405180910390f35b6102376106e3565b005b61024161081d565b60405161024e9190612c48565b60405180910390f35b61025f610846565b60405161026c9190612e24565b60405180910390f35b61027d61084c565b60405161028a9190612c48565b60405180910390f35b61029b610872565b6040516102a89190612c48565b60405180910390f35b6102cb60048036038101906102c691906125b5565b610898565b6040516102d89190612e24565b60405180910390f35b6102fb60048036038101906102f691906125b5565b6108fa565b60405161030e9796959493929190612e68565b60405180910390f35b610331600480360381019061032c91906124d3565b6109bc565b60405161033e9190612e24565b60405180910390f35b610361600480360381019061035c9190612525565b610a64565b005b61036b611289565b6040516103789190612ca7565b60405180910390f35b61039b600480360381019061039691906124d3565b6114b6565b6040516103a89190612f15565b60405180910390f35b6103cb60048036038101906103c69190612607565b61153d565b005b6103e760048036038101906103e291906124d3565b611666565b005b61040360048036038101906103fe91906125b5565b61180f565b6040516104109190612c48565b60405180910390f35b610433600480360381019061042e91906125b5565b611842565b6040516104409190612e24565b60405180910390f35b610463600480360381019061045e91906125b5565b6118a4565b6040516104709190612e09565b60405180910390f35b610481611a47565b73ffffffffffffffffffffffffffffffffffffffff1661049f61081d565b73ffffffffffffffffffffffffffffffffffffffff16146104f5576040517f08c379a00000000000000000000000000000000000000000000000000000000081526004016104ec90612d69565b60405180910390fd5b600073ffffffffffffffffffffffffffffffffffffffff168173ffffffffffffffffffffffffffffffffffffffff161415610565576040517f08c379a000000000000000000000000000000000000000000000000000000000815260040161055c90612d89565b60405180910390fd5b80600260006101000a81548173ffffffffffffffffffffffffffffffffffffffff021916908373ffffffffffffffffffffffffffffffffffffffff16021790555050565b60065481565b600260009054906101000a900473ffffffffffffffffffffffffffffffffffffffff1681565b600080600090505b6005548111610676578273ffffffffffffffffffffffffffffffffffffffff166009600083815260200190815260200160002060009054906101000a900473ffffffffffffffffffffffffffffffffffffffff1673ffffffffffffffffffffffffffffffffffffffff161415610669576007600082815260200190815260200160002054915050610678565b80806001019150506105dd565b505b919050565b60096020528060005260406000206000915054906101000a900473ffffffffffffffffffffffffffffffffffffffff1681565b600b6020528060005260406000206000915054906101000a900473ffffffffffffffffffffffffffffffffffffffff1681565b6106eb611a47565b73ffffffffffffffffffffffffffffffffffffffff1661070961081d565b73ffffffffffffffffffffffffffffffffffffffff161461075f576040517f08c379a000000000000000000000000000000000000000000000000000000000815260040161075690612d69565b60405180910390fd5b600073ffffffffffffffffffffffffffffffffffffffff1660008054906101000a900473ffffffffffffffffffffffffffffffffffffffff1673ffffffffffffffffffffffffffffffffffffffff167f8be0079c531659141344cd1fd0a4f28419497f9722a3daafe3b4186f6b6457e060405160405180910390a360008060006101000a81548173ffffffffffffffffffffffffffffffffffffffff021916908373ffffffffffffffffffffffffffffffffffffffff160217905550565b60008060009054906101000a900473ffffffffffffffffffffffffffffffffffffffff16905090565b60055481565b600460009054906101000a900473ffffffffffffffffffffffffffffffffffffffff1681565b600360009054906101000a900473ffffffffffffffffffffffffffffffffffffffff1681565b60006005548211156108df576040517f08c379a00000000000000000000000000000000000000000000000000000000081526004016108d690612cc9565b60405180910390fd5b60086000838152602001908152602001600020549050919050565b600c6020528060005260406000206000915090508060000154908060010160009054906101000a900473ffffffffffffffffffffffffffffffffffffffff16908060020160009054906101000a900473ffffffffffffffffffffffffffffffffffffffff16908060030160009054906101000a900473ffffffffffffffffffffffffffffffffffffffff16908060040160009054906101000a900473ffffffffffffffffffffffffffffffffffffffff16908060050154908060060154905087565b600080600090505b6005548111610a5d578273ffffffffffffffffffffffffffffffffffffffff166009600083815260200190815260200160002060009054906101000a900473ffffffffffffffffffffffffffffffffffffffff1673ffffffffffffffffffffffffffffffffffffffff161415610a50576008600082815260200190815260200160002054915050610a5f565b80806001019150506109c4565b505b919050565b600073ffffffffffffffffffffffffffffffffffffffff168373ffffffffffffffffffffffffffffffffffffffff161415610ad4576040517f08c379a0000000000000000000000000000000000000000000000000000000008152600401610acb90612dc9565b60405180910390fd5b60005b6005548111610b5a578373ffffffffffffffffffffffffffffffffffffffff166009600083815260200190815260200160002060009054906101000a900473ffffffffffffffffffffffffffffffffffffffff1673ffffffffffffffffffffffffffffffffffffffff161415610b4d5750611284565b8080600101915050610ad7565b5060008073ffffffffffffffffffffffffffffffffffffffff16600260009054906101000a900473ffffffffffffffffffffffffffffffffffffffff1673ffffffffffffffffffffffffffffffffffffffff1614610c6b576000600260009054906101000a900473ffffffffffffffffffffffffffffffffffffffff1673ffffffffffffffffffffffffffffffffffffffff166370a08231336040518263ffffffff1660e01b8152600401610c0f9190612c63565b60206040518083038186803b158015610c2757600080fd5b505afa158015610c3b573d6000803e3d6000fd5b505050506040513d601f19601f82011682018060405250810190610c5f91906125de565b1115610c6a57600190505b5b6000600460009054906101000a900473ffffffffffffffffffffffffffffffffffffffff1673ffffffffffffffffffffffffffffffffffffffff1663574f2ba36040518163ffffffff1660e01b815260040160206040518083038186803b158015610cd557600080fd5b505afa158015610ce9573d6000803e3d6000fd5b505050506040513d601f19601f82011682018060405250810190610d0d91906125de565b90506000805b82811015610e11576000600460009054906101000a900473ffffffffffffffffffffffffffffffffffffffff1673ffffffffffffffffffffffffffffffffffffffff16631e3dd18b836040518263ffffffff1660e01b8152600401610d789190612e24565b60206040518083038186803b158015610d9057600080fd5b505afa158015610da4573d6000803e3d6000fd5b505050506040513d601f19601f82011682018060405250810190610dc891906124fc565b90508073ffffffffffffffffffffffffffffffffffffffff168873ffffffffffffffffffffffffffffffffffffffff161415610e0357600192505b508080600101915050610d13565b50828015610e1c5750805b15610f75578560096000600554815260200190815260200160002060006101000a81548173ffffffffffffffffffffffffffffffffffffffff021916908373ffffffffffffffffffffffffffffffffffffffff16021790555084600a6000600554815260200190815260200160002060006101000a81548173ffffffffffffffffffffffffffffffffffffffff021916908373ffffffffffffffffffffffffffffffffffffffff16021790555083600b6000600554815260200190815260200160002060006101000a81548173ffffffffffffffffffffffffffffffffffffffff021916908373ffffffffffffffffffffffffffffffffffffffff1602179055507f3e3ad6de2cf564556d2eaf74710af8ca62efd7a8451a9a7a95e40a9ef4882ad060055487604051610f50929190612e3f565b60405180910390a1610f628585611a4f565b6005600081548092919060010191905055505b600081158015610f825750835b1561103957600460009054906101000a900473ffffffffffffffffffffffffffffffffffffffff1673ffffffffffffffffffffffffffffffffffffffff1663c9c6539687876040518363ffffffff1660e01b8152600401610fe4929190612c7e565b602060405180830381600087803b158015610ffe57600080fd5b505af1158015611012573d6000803e3d6000fd5b505050506040513d601f19601f8201168201806040525081019061103691906124fc565b90505b838015611044575081155b156111d9578060096000600554815260200190815260200160002060006101000a81548173ffffffffffffffffffffffffffffffffffffffff021916908373ffffffffffffffffffffffffffffffffffffffff16021790555085600a6000600554815260200190815260200160002060006101000a81548173ffffffffffffffffffffffffffffffffffffffff021916908373ffffffffffffffffffffffffffffffffffffffff16021790555084600b6000600554815260200190815260200160002060006101000a81548173ffffffffffffffffffffffffffffffffffffffff021916908373ffffffffffffffffffffffffffffffffffffffff1602179055507f3e3ad6de2cf564556d2eaf74710af8ca62efd7a8451a9a7a95e40a9ef4882ad060055482604051611178929190612e3f565b60405180910390a17fcfdb757a17c7073437a01260a6760f5026efd70c96fb9a3f54d03c6ed2c372c360018401826040516111b4929190612e3f565b60405180910390a16111c68686611a4f565b6005600081548092919060010191905055505b600460009054906101000a900473ffffffffffffffffffffffffffffffffffffffff1673ffffffffffffffffffffffffffffffffffffffff1663574f2ba36040518163ffffffff1660e01b815260040160206040518083038186803b15801561124157600080fd5b505afa158015611255573d6000803e3d6000fd5b505050506040513d601f19601f8201168201806040525081019061127991906125de565b600681905550505050505b505050565b60606000600160055403905060608167ffffffffffffffff811180156112ae57600080fd5b506040519080825280602002602001820160405280156112e857816020015b6112d561228d565b8152602001906001900390816112cd5790505b50905060005b8281116114ad57600c60008281526020019081526020016000206040518060e0016040529081600082015481526020016001820160009054906101000a900473ffffffffffffffffffffffffffffffffffffffff1673ffffffffffffffffffffffffffffffffffffffff1673ffffffffffffffffffffffffffffffffffffffff1681526020016002820160009054906101000a900473ffffffffffffffffffffffffffffffffffffffff1673ffffffffffffffffffffffffffffffffffffffff1673ffffffffffffffffffffffffffffffffffffffff1681526020016003820160009054906101000a900473ffffffffffffffffffffffffffffffffffffffff1673ffffffffffffffffffffffffffffffffffffffff1673ffffffffffffffffffffffffffffffffffffffff1681526020016004820160009054906101000a900473ffffffffffffffffffffffffffffffffffffffff1673ffffffffffffffffffffffffffffffffffffffff1673ffffffffffffffffffffffffffffffffffffffff1681526020016005820154815260200160068201548152505082828151811061149557fe5b602002602001018190525080806001019150506112ee565b50809250505090565b60008173ffffffffffffffffffffffffffffffffffffffff1663313ce5676040518163ffffffff1660e01b815260040160206040518083038186803b1580156114fe57600080fd5b505afa158015611512573d6000803e3d6000fd5b505050506040513d601f19601f820116820180604052508101906115369190612643565b9050919050565b611545611a47565b73ffffffffffffffffffffffffffffffffffffffff1661156361081d565b73ffffffffffffffffffffffffffffffffffffffff16146115b9576040517f08c379a00000000000000000000000000000000000000000000000000000000081526004016115b090612d69565b60405180910390fd5b6005548211156115fe576040517f08c379a00000000000000000000000000000000000000000000000000000000081526004016115f590612cc9565b60405180910390fd5b60008111611641576040517f08c379a000000000000000000000000000000000000000000000000000000000815260040161163890612d29565b60405180910390fd5b80600760008481526020019081526020016000208190555061166282611eae565b5050565b61166e611a47565b73ffffffffffffffffffffffffffffffffffffffff1661168c61081d565b73ffffffffffffffffffffffffffffffffffffffff16146116e2576040517f08c379a00000000000000000000000000000000000000000000000000000000081526004016116d990612d69565b60405180910390fd5b600073ffffffffffffffffffffffffffffffffffffffff168173ffffffffffffffffffffffffffffffffffffffff161415611752576040517f08c379a000000000000000000000000000000000000000000000000000000000815260040161174990612ce9565b60405180910390fd5b8073ffffffffffffffffffffffffffffffffffffffff1660008054906101000a900473ffffffffffffffffffffffffffffffffffffffff1673ffffffffffffffffffffffffffffffffffffffff167f8be0079c531659141344cd1fd0a4f28419497f9722a3daafe3b4186f6b6457e060405160405180910390a3806000806101000a81548173ffffffffffffffffffffffffffffffffffffffff021916908373ffffffffffffffffffffffffffffffffffffffff16021790555050565b600a6020528060005260406000206000915054906101000a900473ffffffffffffffffffffffffffffffffffffffff1681565b6000600554821115611889576040517f08c379a000000000000000000000000000000000000000000000000000000000815260040161188090612cc9565b60405180910390fd5b60076000838152602001908152602001600020549050919050565b6118ac61228d565b600c60008381526020019081526020016000206040518060e0016040529081600082015481526020016001820160009054906101000a900473ffffffffffffffffffffffffffffffffffffffff1673ffffffffffffffffffffffffffffffffffffffff1673ffffffffffffffffffffffffffffffffffffffff1681526020016002820160009054906101000a900473ffffffffffffffffffffffffffffffffffffffff1673ffffffffffffffffffffffffffffffffffffffff1673ffffffffffffffffffffffffffffffffffffffff1681526020016003820160009054906101000a900473ffffffffffffffffffffffffffffffffffffffff1673ffffffffffffffffffffffffffffffffffffffff1673ffffffffffffffffffffffffffffffffffffffff1681526020016004820160009054906101000a900473ffffffffffffffffffffffffffffffffffffffff1673ffffffffffffffffffffffffffffffffffffffff1673ffffffffffffffffffffffffffffffffffffffff168152602001600582015481526020016006820154815250509050919050565b600033905090565b60006103e890506000670de0b6b3a764000090506000611a6e856114b6565b90506000600190506000600a905060008360ff1611611ac2576040517f08c379a0000000000000000000000000000000000000000000000000000000008152600401611ab990612de9565b60405180910390fd5b60128360ff1614611ade578260ff168160ff160a8260ff160293505b84841015611b21576040517f08c379a0000000000000000000000000000000000000000000000000000000008152600401611b1890612da9565b60405180910390fd5b600080600460009054906101000a900473ffffffffffffffffffffffffffffffffffffffff1673ffffffffffffffffffffffffffffffffffffffff1663e6a439058a8a6040518363ffffffff1660e01b8152600401611b81929190612c7e565b60206040518083038186803b158015611b9957600080fd5b505afa158015611bad573d6000803e3d6000fd5b505050506040513d601f19601f82011682018060405250810190611bd191906124fc565b9050600080600090505b6005548111611c60576009600082815260200190815260200160002060009054906101000a900473ffffffffffffffffffffffffffffffffffffffff1673ffffffffffffffffffffffffffffffffffffffff168373ffffffffffffffffffffffffffffffffffffffff161415611c5357600193508091505b8080600101915050611bdb565b508215611e9e57600267ffffffffffffffff81118015611c7f57600080fd5b50604051908082528060200260200182016040528015611cae5781602001602082028036833780820191505090505b5060019080519060200190611cc4929190612322565b50896001600081548110611cd457fe5b9060005260206000200160006101000a81548173ffffffffffffffffffffffffffffffffffffffff021916908373ffffffffffffffffffffffffffffffffffffffff1602179055508860018081548110611d2a57fe5b9060005260206000200160006101000a81548173ffffffffffffffffffffffffffffffffffffffff021916908373ffffffffffffffffffffffffffffffffffffffff1602179055506000611d8789896121c790919063ffffffff16565b90506000811115611e9c576060600360009054906101000a900473ffffffffffffffffffffffffffffffffffffffff1673ffffffffffffffffffffffffffffffffffffffff16634955796c8360016103e56040518463ffffffff1660e01b8152600401611df693929190612ed7565b60006040518083038186803b158015611e0e57600080fd5b505afa158015611e22573d6000803e3d6000fd5b505050506040513d6000823e3d601f19601f82011682018060405250810190611e4b9190612574565b9050600081600180805490500381518110611e6257fe5b60200260200101519050611e7f8b8261221d90919063ffffffff16565b905080600860008681526020019081526020016000208190555050505b505b6000925050505050505050505050565b611f1e600a600083815260200190815260200160002060009054906101000a900473ffffffffffffffffffffffffffffffffffffffff16600b600084815260200190815260200160002060009054906101000a900473ffffffffffffffffffffffffffffffffffffffff16611a4f565b6040518060e00160405280828152602001600360009054906101000a900473ffffffffffffffffffffffffffffffffffffffff1673ffffffffffffffffffffffffffffffffffffffff1681526020016009600084815260200190815260200160002060009054906101000a900473ffffffffffffffffffffffffffffffffffffffff1673ffffffffffffffffffffffffffffffffffffffff168152602001600a600084815260200190815260200160002060009054906101000a900473ffffffffffffffffffffffffffffffffffffffff1673ffffffffffffffffffffffffffffffffffffffff168152602001600b600084815260200190815260200160002060009054906101000a900473ffffffffffffffffffffffffffffffffffffffff1673ffffffffffffffffffffffffffffffffffffffff16815260200161206383611842565b815260200161207183610898565b815250600c60008381526020019081526020016000206000820151816000015560208201518160010160006101000a81548173ffffffffffffffffffffffffffffffffffffffff021916908373ffffffffffffffffffffffffffffffffffffffff16021790555060408201518160020160006101000a81548173ffffffffffffffffffffffffffffffffffffffff021916908373ffffffffffffffffffffffffffffffffffffffff16021790555060608201518160030160006101000a81548173ffffffffffffffffffffffffffffffffffffffff021916908373ffffffffffffffffffffffffffffffffffffffff16021790555060808201518160040160006101000a81548173ffffffffffffffffffffffffffffffffffffffff021916908373ffffffffffffffffffffffffffffffffffffffff16021790555060a0820151816005015560c0820151816006015590505050565b600080821161220b576040517f08c379a000000000000000000000000000000000000000000000000000000000815260040161220290612d09565b60405180910390fd5b81838161221457fe5b04905092915050565b6000808314156122305760009050612287565b600082840290508284828161224157fe5b0414612282576040517f08c379a000000000000000000000000000000000000000000000000000000000815260040161227990612d49565b60405180910390fd5b809150505b92915050565b6040518060e0016040528060008152602001600073ffffffffffffffffffffffffffffffffffffffff168152602001600073ffffffffffffffffffffffffffffffffffffffff168152602001600073ffffffffffffffffffffffffffffffffffffffff168152602001600073ffffffffffffffffffffffffffffffffffffffff16815260200160008152602001600081525090565b82805482825590600052602060002090810192821561239b579160200282015b8281111561239a5782518260006101000a81548173ffffffffffffffffffffffffffffffffffffffff021916908373ffffffffffffffffffffffffffffffffffffffff16021790555091602001919060010190612342565b5b5090506123a891906123ac565b5090565b5b808211156123e357600081816101000a81549073ffffffffffffffffffffffffffffffffffffffff0219169055506001016123ad565b5090565b6000813590506123f6816130f8565b92915050565b60008151905061240b816130f8565b92915050565b600082601f83011261242257600080fd5b815161243561243082612f5d565b612f30565b9150818183526020840193506020810190508385602084028201111561245a57600080fd5b60005b8381101561248a578161247088826124a9565b84526020840193506020830192505060018101905061245d565b5050505092915050565b6000813590506124a38161310f565b92915050565b6000815190506124b88161310f565b92915050565b6000815190506124cd81613126565b92915050565b6000602082840312156124e557600080fd5b60006124f3848285016123e7565b91505092915050565b60006020828403121561250e57600080fd5b600061251c848285016123fc565b91505092915050565b60008060006060848603121561253a57600080fd5b6000612548868287016123e7565b9350506020612559868287016123e7565b925050604061256a868287016123e7565b9150509250925092565b60006020828403121561258657600080fd5b600082015167ffffffffffffffff8111156125a057600080fd5b6125ac84828501612411565b91505092915050565b6000602082840312156125c757600080fd5b60006125d584828501612494565b91505092915050565b6000602082840312156125f057600080fd5b60006125fe848285016124a9565b91505092915050565b6000806040838503121561261a57600080fd5b600061262885828601612494565b925050602061263985828601612494565b9150509250929050565b60006020828403121561265557600080fd5b6000612663848285016124be565b91505092915050565b600061267883836126ab565b60208301905092915050565b60006126908383612aff565b60e08301905092915050565b6126a581613076565b82525050565b6126b48161302d565b82525050565b6126c38161302d565b82525050565b60006126d482612faa565b6126de8185612fda565b93506126e983612f85565b8060005b83811015612721576126fe826130d8565b612708888261266c565b975061271383612fc0565b9250506001810190506126ed565b5085935050505092915050565b600061273982612fb5565b6127438185612feb565b935061274e83612f9a565b8060005b8381101561277f5781516127668882612684565b975061277183612fcd565b925050600181019050612752565b5085935050505092915050565b61279581613088565b82525050565b60006127a8601b83612ffc565b91507f41717561734f7261636c653a204d697373696e672046656564494400000000006000830152602082019050919050565b60006127e8602683612ffc565b91507f4f776e61626c653a206e6577206f776e657220697320746865207a65726f206160008301527f64647265737300000000000000000000000000000000000000000000000000006020830152604082019050919050565b600061284e601a83612ffc565b91507f536166654d6174683a206469766973696f6e206279207a65726f0000000000006000830152602082019050919050565b600061288e602283612ffc565b91507f41717561734f7261636c653a20496e636f727265637420496e7075742050726960008301527f63650000000000000000000000000000000000000000000000000000000000006020830152604082019050919050565b60006128f4602183612ffc565b91507f536166654d6174683a206d756c7469706c69636174696f6e206f766572666c6f60008301527f77000000000000000000000000000000000000000000000000000000000000006020830152604082019050919050565b600061295a602083612ffc565b91507f4f776e61626c653a2063616c6c6572206973206e6f7420746865206f776e65726000830152602082019050919050565b600061299a601b83612ffc565b91507f41717561734f7261636c653a206e65774e4654204164647265737300000000006000830152602082019050919050565b60006129da602d83612ffc565b91507f41717561734f7261636c653a204d697373696e6720546f6b656e51756f74652060008301527f496e70757420416d6f756e7473000000000000000000000000000000000000006020830152604082019050919050565b6000612a40602a83612ffc565b91507f41717561734f7261636c653a205265717569726573204e65772044617461466560008301527f65642041646472657373000000000000000000000000000000000000000000006020830152604082019050919050565b6000612aa6602883612ffc565b91507f41717561734f7261636c653a204d697373696e6720546f6b656e51756f74652060008301527f446563696d616c730000000000000000000000000000000000000000000000006020830152604082019050919050565b60e082016000820151612b156000850182612c1b565b506020820151612b2860208501826126ab565b506040820151612b3b60408501826126ab565b506060820151612b4e60608501826126ab565b506080820151612b6160808501826126ab565b5060a0820151612b7460a0850182612c1b565b5060c0820151612b8760c0850182612c1b565b50505050565b60e082016000820151612ba36000850182612c1b565b506020820151612bb660208501826126ab565b506040820151612bc960408501826126ab565b506060820151612bdc60608501826126ab565b506080820151612bef60808501826126ab565b5060a0820151612c0260a0850182612c1b565b5060c0820151612c1560c0850182612c1b565b50505050565b612c248161305f565b82525050565b612c338161305f565b82525050565b612c4281613069565b82525050565b6000602082019050612c5d60008301846126ba565b92915050565b6000602082019050612c78600083018461269c565b92915050565b6000604082019050612c9360008301856126ba565b612ca060208301846126ba565b9392505050565b60006020820190508181036000830152612cc1818461272e565b905092915050565b60006020820190508181036000830152612ce28161279b565b9050919050565b60006020820190508181036000830152612d02816127db565b9050919050565b60006020820190508181036000830152612d2281612841565b9050919050565b60006020820190508181036000830152612d4281612881565b9050919050565b60006020820190508181036000830152612d62816128e7565b9050919050565b60006020820190508181036000830152612d828161294d565b9050919050565b60006020820190508181036000830152612da28161298d565b9050919050565b60006020820190508181036000830152612dc2816129cd565b9050919050565b60006020820190508181036000830152612de281612a33565b9050919050565b60006020820190508181036000830152612e0281612a99565b9050919050565b600060e082019050612e1e6000830184612b8d565b92915050565b6000602082019050612e396000830184612c2a565b92915050565b6000604082019050612e546000830185612c2a565b612e6160208301846126ba565b9392505050565b600060e082019050612e7d600083018a612c2a565b612e8a60208301896126ba565b612e9760408301886126ba565b612ea460608301876126ba565b612eb160808301866126ba565b612ebe60a0830185612c2a565b612ecb60c0830184612c2a565b98975050505050505050565b6000606082019050612eec6000830186612c2a565b8181036020830152612efe81856126c9565b9050612f0d604083018461278c565b949350505050565b6000602082019050612f2a6000830184612c39565b92915050565b6000604051905081810181811067ffffffffffffffff82111715612f5357600080fd5b8060405250919050565b600067ffffffffffffffff821115612f7457600080fd5b602082029050602081019050919050565b60008190508160005260206000209050919050565b6000819050602082019050919050565b600081549050919050565b600081519050919050565b6000600182019050919050565b6000602082019050919050565b600082825260208201905092915050565b600082825260208201905092915050565b600082825260208201905092915050565b600073ffffffffffffffffffffffffffffffffffffffff82169050919050565b60006130388261303f565b9050919050565b600073ffffffffffffffffffffffffffffffffffffffff82169050919050565b6000819050919050565b600060ff82169050919050565b60006130818261309a565b9050919050565b60006130938261305f565b9050919050565b60006130a5826130ac565b9050919050565b60006130b78261303f565b9050919050565b60006130d16130cc836130eb565b61300d565b9050919050565b60006130e482546130be565b9050919050565b60008160001c9050919050565b6131018161302d565b811461310c57600080fd5b50565b6131188161305f565b811461312357600080fd5b50565b61312f81613069565b811461313a57600080fd5b5056fea264697066735822122003a5d5fe70df956788ae170de8c1d78fb76f02a808f3843e7697159332df029864736f6c634300060c0033",
  "devdoc": {
    "kind": "dev",
    "methods": {
      "owner()": {
        "details": "Returns the address of the current owner."
      },
      "renounceOwnership()": {
        "details": "Leaves the contract without owner. It will not be possible to call `onlyOwner` functions anymore. Can only be called by the current owner. NOTE: Renouncing ownership will leave the contract without an owner, thereby removing any functionality that is only available to the owner."
      },
      "transferOwnership(address)": {
        "details": "Transfers ownership of the contract to a new account (`newOwner`). Can only be called by the current owner."
      }
    },
    "version": 1
  },
  "userdoc": {
    "kind": "user",
    "methods": {},
    "version": 1
  },
  "storageLayout": {
    "storage": [
      {
        "astId": 3523,
        "contract": "contracts/oracle/AquasOracle.sol:AquasOracle",
        "label": "_owner",
        "offset": 0,
        "slot": "0",
        "type": "t_address"
      },
      {
        "astId": 22890,
        "contract": "contracts/oracle/AquasOracle.sol:AquasOracle",
        "label": "pathSell",
        "offset": 0,
        "slot": "1",
        "type": "t_array(t_address)dyn_storage"
      },
      {
        "astId": 22898,
        "contract": "contracts/oracle/AquasOracle.sol:AquasOracle",
        "label": "NFTAddress",
        "offset": 0,
        "slot": "2",
        "type": "t_address"
      },
      {
        "astId": 22900,
        "contract": "contracts/oracle/AquasOracle.sol:AquasOracle",
        "label": "UNISWAP_V2_ROUTER",
        "offset": 0,
        "slot": "3",
        "type": "t_address"
      },
      {
        "astId": 22902,
        "contract": "contracts/oracle/AquasOracle.sol:AquasOracle",
        "label": "UNISWAP_V2_FACTORY",
        "offset": 0,
        "slot": "4",
        "type": "t_address"
      },
      {
        "astId": 22904,
        "contract": "contracts/oracle/AquasOracle.sol:AquasOracle",
        "label": "FeedID",
        "offset": 0,
        "slot": "5",
        "type": "t_uint256"
      },
      {
        "astId": 22906,
        "contract": "contracts/oracle/AquasOracle.sol:AquasOracle",
        "label": "FeedMaximum",
        "offset": 0,
        "slot": "6",
        "type": "t_uint256"
      },
      {
        "astId": 22910,
        "contract": "contracts/oracle/AquasOracle.sol:AquasOracle",
        "label": "DataFeedPrice",
        "offset": 0,
        "slot": "7",
        "type": "t_mapping(t_uint256,t_uint256)"
      },
      {
        "astId": 22914,
        "contract": "contracts/oracle/AquasOracle.sol:AquasOracle",
        "label": "PoolPrice",
        "offset": 0,
        "slot": "8",
        "type": "t_mapping(t_uint256,t_uint256)"
      },
      {
        "astId": 22918,
        "contract": "contracts/oracle/AquasOracle.sol:AquasOracle",
        "label": "PoolAddresses",
        "offset": 0,
        "slot": "9",
        "type": "t_mapping(t_uint256,t_address)"
      },
      {
        "astId": 22922,
        "contract": "contracts/oracle/AquasOracle.sol:AquasOracle",
        "label": "PoolAssetQuote",
        "offset": 0,
        "slot": "10",
        "type": "t_mapping(t_uint256,t_address)"
      },
      {
        "astId": 22926,
        "contract": "contracts/oracle/AquasOracle.sol:AquasOracle",
        "label": "PoolAssetBase",
        "offset": 0,
        "slot": "11",
        "type": "t_mapping(t_uint256,t_address)"
      },
      {
        "astId": 22957,
        "contract": "contracts/oracle/AquasOracle.sol:AquasOracle",
        "label": "Feeds",
        "offset": 0,
        "slot": "12",
        "type": "t_mapping(t_uint256,t_struct(Feed)22953_storage)"
      }
    ],
    "types": {
      "t_address": {
        "encoding": "inplace",
        "label": "address",
        "numberOfBytes": "20"
      },
      "t_array(t_address)dyn_storage": {
        "base": "t_address",
        "encoding": "dynamic_array",
        "label": "address[]",
        "numberOfBytes": "32"
      },
      "t_mapping(t_uint256,t_address)": {
        "encoding": "mapping",
        "key": "t_uint256",
        "label": "mapping(uint256 => address)",
        "numberOfBytes": "32",
        "value": "t_address"
      },
      "t_mapping(t_uint256,t_struct(Feed)22953_storage)": {
        "encoding": "mapping",
        "key": "t_uint256",
        "label": "mapping(uint256 => struct AquasOracle.Feed)",
        "numberOfBytes": "32",
        "value": "t_struct(Feed)22953_storage"
      },
      "t_mapping(t_uint256,t_uint256)": {
        "encoding": "mapping",
        "key": "t_uint256",
        "label": "mapping(uint256 => uint256)",
        "numberOfBytes": "32",
        "value": "t_uint256"
      },
      "t_struct(Feed)22953_storage": {
        "encoding": "inplace",
        "label": "struct AquasOracle.Feed",
        "members": [
          {
            "astId": 22940,
            "contract": "contracts/oracle/AquasOracle.sol:AquasOracle",
            "label": "id",
            "offset": 0,
            "slot": "0",
            "type": "t_uint256"
          },
          {
            "astId": 22942,
            "contract": "contracts/oracle/AquasOracle.sol:AquasOracle",
            "label": "router",
            "offset": 0,
            "slot": "1",
            "type": "t_address"
          },
          {
            "astId": 22944,
            "contract": "contracts/oracle/AquasOracle.sol:AquasOracle",
            "label": "pool",
            "offset": 0,
            "slot": "2",
            "type": "t_address"
          },
          {
            "astId": 22946,
            "contract": "contracts/oracle/AquasOracle.sol:AquasOracle",
            "label": "quote",
            "offset": 0,
            "slot": "3",
            "type": "t_address"
          },
          {
            "astId": 22948,
            "contract": "contracts/oracle/AquasOracle.sol:AquasOracle",
            "label": "base",
            "offset": 0,
            "slot": "4",
            "type": "t_address"
          },
          {
            "astId": 22950,
            "contract": "contracts/oracle/AquasOracle.sol:AquasOracle",
            "label": "priceFeed",
            "offset": 0,
            "slot": "5",
            "type": "t_uint256"
          },
          {
            "astId": 22952,
            "contract": "contracts/oracle/AquasOracle.sol:AquasOracle",
            "label": "pricePool",
            "offset": 0,
            "slot": "6",
            "type": "t_uint256"
          }
        ],
        "numberOfBytes": "224"
      },
      "t_uint256": {
        "encoding": "inplace",
        "label": "uint256",
        "numberOfBytes": "32"
      }
    }
  }
}