{
  "address": "0xA88b25EBb3cb5B0f08124e8FFBc6249aE026cB07",
  "abi": [
    {
      "inputs": [
        {
          "internalType": "address",
          "name": "_token",
          "type": "address"
        },
        {
          "internalType": "address[]",
          "name": "_stables",
          "type": "address[]"
        }
      ],
      "stateMutability": "nonpayable",
      "type": "constructor"
    },
    {
      "anonymous": false,
      "inputs": [
        {
          "indexed": false,
          "internalType": "address",
          "name": "token",
          "type": "address"
        },
        {
          "indexed": false,
          "internalType": "address",
          "name": "creator",
          "type": "address"
        }
      ],
      "name": "NewPresale",
      "type": "event"
    },
    {
      "anonymous": false,
      "inputs": [
        {
          "indexed": true,
          "internalType": "address",
          "name": "previousOwner",
          "type": "address"
        },
        {
          "indexed": true,
          "internalType": "address",
          "name": "newOwner",
          "type": "address"
        }
      ],
      "name": "OwnershipTransferred",
      "type": "event"
    },
    {
      "inputs": [
        {
          "internalType": "uint256",
          "name": "",
          "type": "uint256"
        }
      ],
      "name": "USD",
      "outputs": [
        {
          "internalType": "address",
          "name": "",
          "type": "address"
        }
      ],
      "stateMutability": "view",
      "type": "function"
    },
    {
      "inputs": [
        {
          "internalType": "address",
          "name": "",
          "type": "address"
        }
      ],
      "name": "allocations",
      "outputs": [
        {
          "internalType": "uint256",
          "name": "",
          "type": "uint256"
        }
      ],
      "stateMutability": "view",
      "type": "function"
    },
    {
      "inputs": [
        {
          "internalType": "address",
          "name": "_tokenIn",
          "type": "address"
        },
        {
          "internalType": "uint256",
          "name": "_amountIn",
          "type": "uint256"
        }
      ],
      "name": "buy",
      "outputs": [],
      "stateMutability": "nonpayable",
      "type": "function"
    },
    {
      "inputs": [],
      "name": "currentTokenSale",
      "outputs": [
        {
          "internalType": "contract IERC20",
          "name": "",
          "type": "address"
        }
      ],
      "stateMutability": "view",
      "type": "function"
    },
    {
      "inputs": [
        {
          "internalType": "address",
          "name": "_token",
          "type": "address"
        }
      ],
      "name": "decimals",
      "outputs": [
        {
          "internalType": "uint8",
          "name": "",
          "type": "uint8"
        }
      ],
      "stateMutability": "view",
      "type": "function"
    },
    {
      "inputs": [],
      "name": "getTokensBalance",
      "outputs": [
        {
          "internalType": "uint256",
          "name": "balance",
          "type": "uint256"
        }
      ],
      "stateMutability": "view",
      "type": "function"
    },
    {
      "inputs": [],
      "name": "isPaused",
      "outputs": [
        {
          "internalType": "bool",
          "name": "",
          "type": "bool"
        }
      ],
      "stateMutability": "view",
      "type": "function"
    },
    {
      "inputs": [],
      "name": "maxAllocation",
      "outputs": [
        {
          "internalType": "uint256",
          "name": "",
          "type": "uint256"
        }
      ],
      "stateMutability": "view",
      "type": "function"
    },
    {
      "inputs": [],
      "name": "owner",
      "outputs": [
        {
          "internalType": "address",
          "name": "",
          "type": "address"
        }
      ],
      "stateMutability": "view",
      "type": "function"
    },
    {
      "inputs": [],
      "name": "pauseSale",
      "outputs": [],
      "stateMutability": "nonpayable",
      "type": "function"
    },
    {
      "inputs": [],
      "name": "presaleOwner",
      "outputs": [
        {
          "internalType": "address",
          "name": "",
          "type": "address"
        }
      ],
      "stateMutability": "view",
      "type": "function"
    },
    {
      "inputs": [],
      "name": "price",
      "outputs": [
        {
          "internalType": "uint256",
          "name": "",
          "type": "uint256"
        }
      ],
      "stateMutability": "view",
      "type": "function"
    },
    {
      "inputs": [],
      "name": "renounceOwnership",
      "outputs": [],
      "stateMutability": "nonpayable",
      "type": "function"
    },
    {
      "inputs": [],
      "name": "restartSale",
      "outputs": [],
      "stateMutability": "nonpayable",
      "type": "function"
    },
    {
      "inputs": [
        {
          "internalType": "uint256",
          "name": "maxAllocation_",
          "type": "uint256"
        }
      ],
      "name": "setMaxAllocation",
      "outputs": [],
      "stateMutability": "nonpayable",
      "type": "function"
    },
    {
      "inputs": [
        {
          "internalType": "address",
          "name": "token_",
          "type": "address"
        }
      ],
      "name": "setToken",
      "outputs": [],
      "stateMutability": "nonpayable",
      "type": "function"
    },
    {
      "inputs": [
        {
          "internalType": "uint256",
          "name": "price_",
          "type": "uint256"
        }
      ],
      "name": "setTokenPrice",
      "outputs": [],
      "stateMutability": "nonpayable",
      "type": "function"
    },
    {
      "inputs": [],
      "name": "startSale",
      "outputs": [],
      "stateMutability": "nonpayable",
      "type": "function"
    },
    {
      "inputs": [
        {
          "internalType": "address",
          "name": "newOwner",
          "type": "address"
        }
      ],
      "name": "transferOwnership",
      "outputs": [],
      "stateMutability": "nonpayable",
      "type": "function"
    },
    {
      "inputs": [],
      "name": "withdrawTokens",
      "outputs": [],
      "stateMutability": "nonpayable",
      "type": "function"
    }
  ],
  "transactionHash": "0x11b3d09de11b36273e7c6df880ddff6a01430ad53b1c44b41658a8819cbac09f",
  "args": [
    "0xF7F957D88768126916dAF3C1705D13C291d2B7D8",
    [
      "0x5F795bb52dAC3085f578f4877D450e2929D2F13d",
      "0x1c0491E3396AD6a35f061c62387a95d7218FC515",
      "0x73d22d8a2D1f59Bf5Bcf62cA382481a2073FAF58",
      "0xD05C4be5f3be302d376518c9492EC0147Fa5A718"
    ]
  ],
  "numDeployments": 4,
  "solcInputHash": "65471138405c868e07f357c0a12c4333",
  "bytecode": "0x60806040523480156200001157600080fd5b50604051620020ad380380620020ad833981810160405260408110156200003757600080fd5b8101908080519060200190929190805160405193929190846401000000008211156200006257600080fd5b838201915060208201858111156200007957600080fd5b82518660208202830111640100000000821117156200009757600080fd5b8083526020830192505050908051906020019060200280838360005b83811015620000d0578082015181840152602081019050620000b3565b505050509050016040525050506000620000ef6200026a60201b60201c565b9050806000806101000a81548173ffffffffffffffffffffffffffffffffffffffff021916908373ffffffffffffffffffffffffffffffffffffffff1602179055508073ffffffffffffffffffffffffffffffffffffffff16600073ffffffffffffffffffffffffffffffffffffffff167f8be0079c531659141344cd1fd0a4f28419497f9722a3daafe3b4186f6b6457e060405160405180910390a3506001600660006101000a81548160ff02191690831515021790555033600160006101000a81548173ffffffffffffffffffffffffffffffffffffffff021916908373ffffffffffffffffffffffffffffffffffffffff160217905550670de0b6b3a7640000600481905550683635c9adc5dea0000060058190555081600360006101000a81548173ffffffffffffffffffffffffffffffffffffffff021916908373ffffffffffffffffffffffffffffffffffffffff16021790555080600290805190602001906200026192919062000272565b5050506200033e565b600033905090565b828054828255906000526020600020908101928215620002ee579160200282015b82811115620002ed5782518260006101000a81548173ffffffffffffffffffffffffffffffffffffffff021916908373ffffffffffffffffffffffffffffffffffffffff1602179055509160200191906001019062000293565b5b509050620002fd919062000301565b5090565b5b808211156200033a57600081816101000a81549073ffffffffffffffffffffffffffffffffffffffff02191690555060010162000302565b5090565b611d5f806200034e6000396000f3fe608060405234801561001057600080fd5b506004361061012c5760003560e01c80638d8f2adb116100ad578063b187bd2611610071578063b187bd261461039f578063b66a0e5d146103bf578063cce7ec13146103c9578063d449a83214610417578063f2fde38b146104725761012c565b80638d8f2adb146102f15780638da5cb5b146102fb5780639b3ba79f1461032f5780639c89a10a1461034d578063a035b1fe146103815761012c565b8063715018a6116100f4578063715018a61461025d57806372f123441461026757806374711285146102955780638181847c1461029f57806388680489146102bd5761012c565b80630c560c6414610131578063144fa6d71461018957806352a9039c146101cd57806355367ba9146102255780636a61e5fc1461022f575b600080fd5b61015d6004803603602081101561014757600080fd5b81019080803590602001909291905050506104b6565b604051808273ffffffffffffffffffffffffffffffffffffffff16815260200191505060405180910390f35b6101cb6004803603602081101561019f57600080fd5b81019080803573ffffffffffffffffffffffffffffffffffffffff1690602001909291905050506104f2565b005b61020f600480360360208110156101e357600080fd5b81019080803573ffffffffffffffffffffffffffffffffffffffff169060200190929190505050610684565b6040518082815260200191505060405180910390f35b61022d61069c565b005b61025b6004803603602081101561024557600080fd5b8101908080359060200190929190505050610783565b005b610265610857565b005b6102936004803603602081101561027d57600080fd5b81019080803590602001909291905050506109c4565b005b61029d610a98565b005b6102a7610c1f565b6040518082815260200191505060405180910390f35b6102c5610cea565b604051808273ffffffffffffffffffffffffffffffffffffffff16815260200191505060405180910390f35b6102f9610d10565b005b610303610eaa565b604051808273ffffffffffffffffffffffffffffffffffffffff16815260200191505060405180910390f35b610337610ed3565b6040518082815260200191505060405180910390f35b610355610ed9565b604051808273ffffffffffffffffffffffffffffffffffffffff16815260200191505060405180910390f35b610389610eff565b6040518082815260200191505060405180910390f35b6103a7610f05565b60405180821515815260200191505060405180910390f35b6103c7610f18565b005b610415600480360360408110156103df57600080fd5b81019080803573ffffffffffffffffffffffffffffffffffffffff16906020019092919080359060200190929190505050610fff565b005b6104596004803603602081101561042d57600080fd5b81019080803573ffffffffffffffffffffffffffffffffffffffff1690602001909291905050506114e9565b604051808260ff16815260200191505060405180910390f35b6104b46004803603602081101561048857600080fd5b81019080803573ffffffffffffffffffffffffffffffffffffffff169060200190929190505050611573565b005b600281815481106104c357fe5b906000526020600020016000915054906101000a900473ffffffffffffffffffffffffffffffffffffffff1681565b600660009054906101000a900460ff16610557576040517f08c379a000000000000000000000000000000000000000000000000000000000815260040180806020018281038252602a815260200180611cd6602a913960400191505060405180910390fd5b6000600660006101000a81548160ff02191690831515021790555033600160006101000a81548173ffffffffffffffffffffffffffffffffffffffff021916908373ffffffffffffffffffffffffffffffffffffffff1602179055507fc069527707769c5bc5bab5379c1951054985579d31b607c054cb3fb6bb1841a981600160009054906101000a900473ffffffffffffffffffffffffffffffffffffffff16604051808373ffffffffffffffffffffffffffffffffffffffff1681526020018273ffffffffffffffffffffffffffffffffffffffff1681526020019250505060405180910390a180600360006101000a81548173ffffffffffffffffffffffffffffffffffffffff021916908373ffffffffffffffffffffffffffffffffffffffff16021790555050565b60076020528060005260406000206000915090505481565b6106a4611765565b73ffffffffffffffffffffffffffffffffffffffff16600160009054906101000a900473ffffffffffffffffffffffffffffffffffffffff1673ffffffffffffffffffffffffffffffffffffffff1614610766576040517f08c379a000000000000000000000000000000000000000000000000000000000815260040180806020018281038252601e8152602001807f417175617350726573616c653a204e6f7420796f75722050726573616c65000081525060200191505060405180910390fd5b6001600660006101000a81548160ff021916908315150217905550565b61078b611765565b73ffffffffffffffffffffffffffffffffffffffff16600160009054906101000a900473ffffffffffffffffffffffffffffffffffffffff1673ffffffffffffffffffffffffffffffffffffffff161461084d576040517f08c379a000000000000000000000000000000000000000000000000000000000815260040180806020018281038252601e8152602001807f417175617350726573616c653a204e6f7420796f75722050726573616c65000081525060200191505060405180910390fd5b8060048190555050565b61085f611765565b73ffffffffffffffffffffffffffffffffffffffff1661087d610eaa565b73ffffffffffffffffffffffffffffffffffffffff1614610906576040517f08c379a00000000000000000000000000000000000000000000000000000000081526004018080602001828103825260208152602001807f4f776e61626c653a2063616c6c6572206973206e6f7420746865206f776e657281525060200191505060405180910390fd5b600073ffffffffffffffffffffffffffffffffffffffff1660008054906101000a900473ffffffffffffffffffffffffffffffffffffffff1673ffffffffffffffffffffffffffffffffffffffff167f8be0079c531659141344cd1fd0a4f28419497f9722a3daafe3b4186f6b6457e060405160405180910390a360008060006101000a81548173ffffffffffffffffffffffffffffffffffffffff021916908373ffffffffffffffffffffffffffffffffffffffff160217905550565b6109cc611765565b73ffffffffffffffffffffffffffffffffffffffff16600160009054906101000a900473ffffffffffffffffffffffffffffffffffffffff1673ffffffffffffffffffffffffffffffffffffffff1614610a8e576040517f08c379a000000000000000000000000000000000000000000000000000000000815260040180806020018281038252601e8152602001807f417175617350726573616c653a204e6f7420796f75722050726573616c65000081525060200191505060405180910390fd5b8060058190555050565b610aa0611765565b73ffffffffffffffffffffffffffffffffffffffff16610abe610eaa565b73ffffffffffffffffffffffffffffffffffffffff1614610b47576040517f08c379a00000000000000000000000000000000000000000000000000000000081526004018080602001828103825260208152602001807f4f776e61626c653a2063616c6c6572206973206e6f7420746865206f776e657281525060200191505060405180910390fd5b610bbd600160009054906101000a900473ffffffffffffffffffffffffffffffffffffffff16610b75610c1f565b600360009054906101000a900473ffffffffffffffffffffffffffffffffffffffff1673ffffffffffffffffffffffffffffffffffffffff1661176d9092919063ffffffff16565b33600160006101000a81548173ffffffffffffffffffffffffffffffffffffffff021916908373ffffffffffffffffffffffffffffffffffffffff160217905550670de0b6b3a7640000600481905550683635c9adc5dea00000600581905550565b6000600360009054906101000a900473ffffffffffffffffffffffffffffffffffffffff1673ffffffffffffffffffffffffffffffffffffffff166370a08231306040518263ffffffff1660e01b8152600401808273ffffffffffffffffffffffffffffffffffffffff16815260200191505060206040518083038186803b158015610caa57600080fd5b505afa158015610cbe573d6000803e3d6000fd5b505050506040513d6020811015610cd457600080fd5b8101908080519060200190929190505050905090565b600360009054906101000a900473ffffffffffffffffffffffffffffffffffffffff1681565b610d18611765565b73ffffffffffffffffffffffffffffffffffffffff16600160009054906101000a900473ffffffffffffffffffffffffffffffffffffffff1673ffffffffffffffffffffffffffffffffffffffff161480610da55750610d76610eaa565b73ffffffffffffffffffffffffffffffffffffffff163373ffffffffffffffffffffffffffffffffffffffff16145b610e17576040517f08c379a000000000000000000000000000000000000000000000000000000000815260040180806020018281038252601e8152602001807f417175617350726573616c653a204e6f7420796f75722050726573616c65000081525060200191505060405180910390fd5b610e8d600160009054906101000a900473ffffffffffffffffffffffffffffffffffffffff16610e45610c1f565b600360009054906101000a900473ffffffffffffffffffffffffffffffffffffffff1673ffffffffffffffffffffffffffffffffffffffff1661176d9092919063ffffffff16565b6001600660006101000a81548160ff021916908315150217905550565b60008060009054906101000a900473ffffffffffffffffffffffffffffffffffffffff16905090565b60055481565b600160009054906101000a900473ffffffffffffffffffffffffffffffffffffffff1681565b60045481565b600660009054906101000a900460ff1681565b610f20611765565b73ffffffffffffffffffffffffffffffffffffffff16600160009054906101000a900473ffffffffffffffffffffffffffffffffffffffff1673ffffffffffffffffffffffffffffffffffffffff1614610fe2576040517f08c379a000000000000000000000000000000000000000000000000000000000815260040180806020018281038252601e8152602001807f417175617350726573616c653a204e6f7420796f75722050726573616c65000081525060200191505060405180910390fd5b6000600660006101000a81548160ff021916908315150217905550565b600660009054906101000a900460ff1615611065576040517f08c379a000000000000000000000000000000000000000000000000000000000815260040180806020018281038252602f815260200180611bc5602f913960400191505060405180910390fd5b6000805b6002805490508110156110f3578373ffffffffffffffffffffffffffffffffffffffff166002828154811061109a57fe5b9060005260206000200160009054906101000a900473ffffffffffffffffffffffffffffffffffffffff1673ffffffffffffffffffffffffffffffffffffffff1614156110e657600191505b8080600101915050611069565b5080156114e457600060129050600061110b856114e9565b90506000818303905060008260ff1611611170576040517f08c379a0000000000000000000000000000000000000000000000000000000008152600401808060200182810382526029815260200180611c8c6029913960400191505060405180910390fd5b6000808260ff161461118c578160ff16600a0a86029050611190565b8590505b6004548110156111eb576040517f08c379a000000000000000000000000000000000000000000000000000000000815260040180806020018281038252603c815260200180611c1a603c913960400191505060405180910390fd5b6000611218600360009054906101000a900473ffffffffffffffffffffffffffffffffffffffff166114e9565b60ff16600a0a600454838161122957fe5b04029050600554811115611288576040517f08c379a0000000000000000000000000000000000000000000000000000000008152600401808060200182810382526036815260200180611c566036913960400191505060405180910390fd5b80600360009054906101000a900473ffffffffffffffffffffffffffffffffffffffff1673ffffffffffffffffffffffffffffffffffffffff166370a08231306040518263ffffffff1660e01b8152600401808273ffffffffffffffffffffffffffffffffffffffff16815260200191505060206040518083038186803b15801561131257600080fd5b505afa158015611326573d6000803e3d6000fd5b505050506040513d602081101561133c57600080fd5b810190808051906020019092919050505010156113a4576040517f08c379a0000000000000000000000000000000000000000000000000000000008152600401808060200182810382526021815260200180611cb56021913960400191505060405180910390fd5b8773ffffffffffffffffffffffffffffffffffffffff166323b872dd33600160009054906101000a900473ffffffffffffffffffffffffffffffffffffffff168a6040518463ffffffff1660e01b8152600401808473ffffffffffffffffffffffffffffffffffffffff1681526020018373ffffffffffffffffffffffffffffffffffffffff1681526020018281526020019350505050602060405180830381600087803b15801561145557600080fd5b505af1158015611469573d6000803e3d6000fd5b505050506040513d602081101561147f57600080fd5b8101908080519060200190929190505050506114de3382600360009054906101000a900473ffffffffffffffffffffffffffffffffffffffff1673ffffffffffffffffffffffffffffffffffffffff1661176d9092919063ffffffff16565b50505050505b505050565b60008173ffffffffffffffffffffffffffffffffffffffff1663313ce5676040518163ffffffff1660e01b815260040160206040518083038186803b15801561153157600080fd5b505afa158015611545573d6000803e3d6000fd5b505050506040513d602081101561155b57600080fd5b81019080805190602001909291905050509050919050565b61157b611765565b73ffffffffffffffffffffffffffffffffffffffff16611599610eaa565b73ffffffffffffffffffffffffffffffffffffffff1614611622576040517f08c379a00000000000000000000000000000000000000000000000000000000081526004018080602001828103825260208152602001807f4f776e61626c653a2063616c6c6572206973206e6f7420746865206f776e657281525060200191505060405180910390fd5b600073ffffffffffffffffffffffffffffffffffffffff168173ffffffffffffffffffffffffffffffffffffffff1614156116a8576040517f08c379a0000000000000000000000000000000000000000000000000000000008152600401808060200182810382526026815260200180611b9f6026913960400191505060405180910390fd5b8073ffffffffffffffffffffffffffffffffffffffff1660008054906101000a900473ffffffffffffffffffffffffffffffffffffffff1673ffffffffffffffffffffffffffffffffffffffff167f8be0079c531659141344cd1fd0a4f28419497f9722a3daafe3b4186f6b6457e060405160405180910390a3806000806101000a81548173ffffffffffffffffffffffffffffffffffffffff021916908373ffffffffffffffffffffffffffffffffffffffff16021790555050565b600033905090565b61180a8363a9059cbb60e01b8484604051602401808373ffffffffffffffffffffffffffffffffffffffff16815260200182815260200192505050604051602081830303815290604052907bffffffffffffffffffffffffffffffffffffffffffffffffffffffff19166020820180517bffffffffffffffffffffffffffffffffffffffffffffffffffffffff838183161783525050505061180f565b505050565b6060611871826040518060400160405280602081526020017f5361666545524332303a206c6f772d6c6576656c2063616c6c206661696c65648152508573ffffffffffffffffffffffffffffffffffffffff166118fe9092919063ffffffff16565b90506000815111156118f95780806020019051602081101561189257600080fd5b81019080805190602001909291905050506118f8576040517f08c379a000000000000000000000000000000000000000000000000000000000815260040180806020018281038252602a815260200180611d00602a913960400191505060405180910390fd5b5b505050565b606061190d8484600085611916565b90509392505050565b606082471015611971576040517f08c379a0000000000000000000000000000000000000000000000000000000008152600401808060200182810382526026815260200180611bf46026913960400191505060405180910390fd5b61197a85611abf565b6119ec576040517f08c379a000000000000000000000000000000000000000000000000000000000815260040180806020018281038252601d8152602001807f416464726573733a2063616c6c20746f206e6f6e2d636f6e747261637400000081525060200191505060405180910390fd5b600060608673ffffffffffffffffffffffffffffffffffffffff1685876040518082805190602001908083835b60208310611a3c5780518252602082019150602081019050602083039250611a19565b6001836020036101000a03801982511681845116808217855250505050505090500191505060006040518083038185875af1925050503d8060008114611a9e576040519150601f19603f3d011682016040523d82523d6000602084013e611aa3565b606091505b5091509150611ab3828286611ad2565b92505050949350505050565b600080823b905060008111915050919050565b60608315611ae257829050611b97565b600083511115611af55782518084602001fd5b816040517f08c379a00000000000000000000000000000000000000000000000000000000081526004018080602001828103825283818151815260200191508051906020019080838360005b83811015611b5c578082015181840152602081019050611b41565b50505050905090810190601f168015611b895780820380516001836020036101000a031916815260200191505b509250505060405180910390fd5b939250505056fe4f776e61626c653a206e6577206f776e657220697320746865207a65726f2061646472657373417175617350726573616c653a2073616c65206973206e6f74206163746976652061742074686973206d6f6d656e74416464726573733a20696e73756666696369656e742062616c616e636520666f722063616c6c417175617350726573616c653a204d696e2c20696e70757420746f6f20736d616c6c20666f722063757272656e742070726573616c65205072696365417175617350726573616c653a20427579206f757420697320746f6f206c617267652c2054727920736d616c6c657220616d6f756e74417175617350726573616c653a204d697373696e6720546f6b656e51756f746520446563696d616c7350726573616c653a2050726573616c65206973204f7574206f6620546f6b656e73417175617350726573616c653a204d757374207761697420666f722050726573616c6520746f20656e645361666545524332303a204552433230206f7065726174696f6e20646964206e6f742073756363656564a2646970667358221220003f5e33e9273a1be775dd4720a28b99cc9e9f7152c7be898f3778e17084e09c64736f6c634300060c0033",
  "devdoc": {
    "kind": "dev",
    "methods": {
      "constructor": {
        "details": "Returns the symbol of the token."
      },
      "decimals(address)": {
        "details": "Returns the symbol of the token."
      },
      "getTokensBalance()": {
        "details": "Returns the symbol of the token."
      },
      "owner()": {
        "details": "Returns the address of the current owner."
      },
      "renounceOwnership()": {
        "details": "Leaves the contract without owner. It will not be possible to call `onlyOwner` functions anymore. Can only be called by the current owner. NOTE: Renouncing ownership will leave the contract without an owner, thereby removing any functionality that is only available to the owner."
      },
      "setToken(address)": {
        "details": "anyone can list a token and accept all Stables for that token"
      },
      "transferOwnership(address)": {
        "details": "Transfers ownership of the contract to a new account (`newOwner`). Can only be called by the current owner."
      }
    },
    "version": 1
  },
  "userdoc": {
    "kind": "user",
    "methods": {
      "buy(address,uint256)": {
        "notice": "Main method for buying Whole tokens"
      },
      "pauseSale()": {
        "notice": "Method for pause sale (Buying will be not possible until sale will be started)"
      },
      "restartSale()": {
        "notice": "Method for restart presale auction"
      },
      "setMaxAllocation(uint256)": {
        "notice": "Changing allocation per one wallet"
      },
      "setTokenPrice(uint256)": {
        "notice": "Changing price per one token"
      },
      "startSale()": {
        "notice": "Method for start auction"
      },
      "withdrawTokens()": {
        "notice": "Method for withdraw all tokens for sale from contract"
      }
    },
    "version": 1
  },
  "storageLayout": {
    "storage": [
      {
        "astId": 3523,
        "contract": "contracts/AquasPresale.sol:AquasPresale",
        "label": "_owner",
        "offset": 0,
        "slot": "0",
        "type": "t_address"
      },
      {
        "astId": 8127,
        "contract": "contracts/AquasPresale.sol:AquasPresale",
        "label": "presaleOwner",
        "offset": 0,
        "slot": "1",
        "type": "t_address"
      },
      {
        "astId": 8130,
        "contract": "contracts/AquasPresale.sol:AquasPresale",
        "label": "USD",
        "offset": 0,
        "slot": "2",
        "type": "t_array(t_address)dyn_storage"
      },
      {
        "astId": 8132,
        "contract": "contracts/AquasPresale.sol:AquasPresale",
        "label": "currentTokenSale",
        "offset": 0,
        "slot": "3",
        "type": "t_contract(IERC20)5204"
      },
      {
        "astId": 8134,
        "contract": "contracts/AquasPresale.sol:AquasPresale",
        "label": "price",
        "offset": 0,
        "slot": "4",
        "type": "t_uint256"
      },
      {
        "astId": 8136,
        "contract": "contracts/AquasPresale.sol:AquasPresale",
        "label": "maxAllocation",
        "offset": 0,
        "slot": "5",
        "type": "t_uint256"
      },
      {
        "astId": 8138,
        "contract": "contracts/AquasPresale.sol:AquasPresale",
        "label": "isPaused",
        "offset": 0,
        "slot": "6",
        "type": "t_bool"
      },
      {
        "astId": 8142,
        "contract": "contracts/AquasPresale.sol:AquasPresale",
        "label": "allocations",
        "offset": 0,
        "slot": "7",
        "type": "t_mapping(t_address,t_uint256)"
      }
    ],
    "types": {
      "t_address": {
        "encoding": "inplace",
        "label": "address",
        "numberOfBytes": "20"
      },
      "t_array(t_address)dyn_storage": {
        "base": "t_address",
        "encoding": "dynamic_array",
        "label": "address[]",
        "numberOfBytes": "32"
      },
      "t_bool": {
        "encoding": "inplace",
        "label": "bool",
        "numberOfBytes": "1"
      },
      "t_contract(IERC20)5204": {
        "encoding": "inplace",
        "label": "contract IERC20",
        "numberOfBytes": "20"
      },
      "t_mapping(t_address,t_uint256)": {
        "encoding": "mapping",
        "key": "t_address",
        "label": "mapping(address => uint256)",
        "numberOfBytes": "32",
        "value": "t_uint256"
      },
      "t_uint256": {
        "encoding": "inplace",
        "label": "uint256",
        "numberOfBytes": "32"
      }
    }
  }
}