{
  "address": "0x6D06D41886d8AD428Dc244441564D76c54f66337",
  "abi": [
    {
      "inputs": [
        {
          "internalType": "address",
          "name": "_payToken",
          "type": "address"
        }
      ],
      "stateMutability": "nonpayable",
      "type": "constructor"
    },
    {
      "anonymous": false,
      "inputs": [
        {
          "indexed": false,
          "internalType": "address",
          "name": "player",
          "type": "address"
        },
        {
          "indexed": false,
          "internalType": "uint256",
          "name": "amount",
          "type": "uint256"
        }
      ],
      "name": "gameLost",
      "type": "event"
    },
    {
      "anonymous": false,
      "inputs": [
        {
          "indexed": false,
          "internalType": "address",
          "name": "player",
          "type": "address"
        },
        {
          "indexed": false,
          "internalType": "uint256",
          "name": "amount",
          "type": "uint256"
        }
      ],
      "name": "gameWon",
      "type": "event"
    },
    {
      "inputs": [],
      "name": "PayToken",
      "outputs": [
        {
          "internalType": "address",
          "name": "",
          "type": "address"
        }
      ],
      "stateMutability": "view",
      "type": "function"
    },
    {
      "inputs": [],
      "name": "RNG",
      "outputs": [
        {
          "internalType": "contract IRandomNumberGenerator",
          "name": "",
          "type": "address"
        }
      ],
      "stateMutability": "view",
      "type": "function"
    },
    {
      "inputs": [],
      "name": "WithdrawAll",
      "outputs": [],
      "stateMutability": "nonpayable",
      "type": "function"
    },
    {
      "inputs": [
        {
          "internalType": "address",
          "name": "",
          "type": "address"
        }
      ],
      "name": "balances",
      "outputs": [
        {
          "internalType": "uint256",
          "name": "",
          "type": "uint256"
        }
      ],
      "stateMutability": "view",
      "type": "function"
    },
    {
      "inputs": [
        {
          "internalType": "uint256",
          "name": "value",
          "type": "uint256"
        }
      ],
      "name": "convertUint256ToUint",
      "outputs": [
        {
          "internalType": "uint256",
          "name": "",
          "type": "uint256"
        }
      ],
      "stateMutability": "pure",
      "type": "function"
    },
    {
      "inputs": [
        {
          "internalType": "uint256",
          "name": "_betAmount",
          "type": "uint256"
        }
      ],
      "name": "flipCoin",
      "outputs": [],
      "stateMutability": "nonpayable",
      "type": "function"
    },
    {
      "inputs": [],
      "name": "getBalance",
      "outputs": [
        {
          "internalType": "uint256",
          "name": "",
          "type": "uint256"
        }
      ],
      "stateMutability": "view",
      "type": "function"
    },
    {
      "inputs": [
        {
          "internalType": "address",
          "name": "_player",
          "type": "address"
        }
      ],
      "name": "getTotalBets",
      "outputs": [
        {
          "internalType": "uint256",
          "name": "",
          "type": "uint256"
        }
      ],
      "stateMutability": "view",
      "type": "function"
    },
    {
      "inputs": [],
      "name": "getTotalLosses",
      "outputs": [
        {
          "internalType": "uint256",
          "name": "",
          "type": "uint256"
        }
      ],
      "stateMutability": "view",
      "type": "function"
    },
    {
      "inputs": [],
      "name": "getTotalWins",
      "outputs": [
        {
          "internalType": "uint256",
          "name": "",
          "type": "uint256"
        }
      ],
      "stateMutability": "view",
      "type": "function"
    },
    {
      "inputs": [],
      "name": "maxBet",
      "outputs": [
        {
          "internalType": "uint256",
          "name": "",
          "type": "uint256"
        }
      ],
      "stateMutability": "view",
      "type": "function"
    },
    {
      "inputs": [],
      "name": "minBet",
      "outputs": [
        {
          "internalType": "uint256",
          "name": "",
          "type": "uint256"
        }
      ],
      "stateMutability": "view",
      "type": "function"
    },
    {
      "inputs": [
        {
          "internalType": "address",
          "name": "",
          "type": "address"
        }
      ],
      "name": "totalBets",
      "outputs": [
        {
          "internalType": "uint256",
          "name": "",
          "type": "uint256"
        }
      ],
      "stateMutability": "view",
      "type": "function"
    },
    {
      "inputs": [
        {
          "internalType": "address",
          "name": "",
          "type": "address"
        }
      ],
      "name": "totalLoss",
      "outputs": [
        {
          "internalType": "uint256",
          "name": "",
          "type": "uint256"
        }
      ],
      "stateMutability": "view",
      "type": "function"
    },
    {
      "inputs": [
        {
          "internalType": "address",
          "name": "",
          "type": "address"
        }
      ],
      "name": "totalWins",
      "outputs": [
        {
          "internalType": "uint256",
          "name": "",
          "type": "uint256"
        }
      ],
      "stateMutability": "view",
      "type": "function"
    }
  ],
  "transactionHash": "0x41e2f330abd3255188c5fc4b117731eb9bc29f17d995de43b256191de4660011",
  "args": [
    "0xE34A1fEF365876D4D0b55D281618768583ba4867"
  ],
  "numDeployments": 14,
  "solcInputHash": "d2f05e178fa0017368d9fc13d81a407e",
  "bytecode": "0x608060405234801561001057600080fd5b506040516113493803806113498339818101604052602081101561003357600080fd5b810190808051906020019092919050505033600160006101000a81548173ffffffffffffffffffffffffffffffffffffffff021916908373ffffffffffffffffffffffffffffffffffffffff160217905550806000806101000a81548173ffffffffffffffffffffffffffffffffffffffff021916908373ffffffffffffffffffffffffffffffffffffffff16021790555050611274806100d56000396000f3fe608060405234801561001057600080fd5b50600436106100f55760003560e01c80635a648bc511610097578063ce146d3d11610066578063ce146d3d14610386578063e52c66c1146103a4578063f60f49bb146103c2578063f7149220146103f6576100f5565b80635a648bc5146102d85780635f5be1f4146102e25780639619367d1461031057806396e9b0e21461032e576100f5565b806327e235e3116100d357806327e235e3146101c85780632e5b216814610220578063320fe9131461023e578063428cfa6514610296576100f5565b80630ab5cb64146100fa57806312065fe014610152578063264be75314610170575b600080fd5b61013c6004803603602081101561011057600080fd5b81019080803573ffffffffffffffffffffffffffffffffffffffff16906020019092919050505061042a565b6040518082815260200191505060405180910390f35b61015a610442565b6040518082815260200191505060405180910390f35b6101b26004803603602081101561018657600080fd5b81019080803573ffffffffffffffffffffffffffffffffffffffff169060200190929190505050610489565b6040518082815260200191505060405180910390f35b61020a600480360360208110156101de57600080fd5b81019080803573ffffffffffffffffffffffffffffffffffffffff1690602001909291905050506104d2565b6040518082815260200191505060405180910390f35b6102286104ea565b6040518082815260200191505060405180910390f35b6102806004803603602081101561025457600080fd5b81019080803573ffffffffffffffffffffffffffffffffffffffff1690602001909291905050506104f8565b6040518082815260200191505060405180910390f35b6102c2600480360360208110156102ac57600080fd5b8101908080359060200190929190505050610510565b6040518082815260200191505060405180910390f35b6102e06105b0565b005b61030e600480360360208110156102f857600080fd5b81019080803590602001909291905050506108d5565b005b610318610fa0565b6040518082815260200191505060405180910390f35b6103706004803603602081101561034457600080fd5b81019080803573ffffffffffffffffffffffffffffffffffffffff169060200190929190505050610faa565b6040518082815260200191505060405180910390f35b61038e610fc2565b6040518082815260200191505060405180910390f35b6103ac611009565b6040518082815260200191505060405180910390f35b6103ca611050565b604051808273ffffffffffffffffffffffffffffffffffffffff16815260200191505060405180910390f35b6103fe611074565b604051808273ffffffffffffffffffffffffffffffffffffffff16815260200191505060405180910390f35b60046020528060005260406000206000915090505481565b6000600560003373ffffffffffffffffffffffffffffffffffffffff1673ffffffffffffffffffffffffffffffffffffffff16815260200190815260200160002054905090565b6000600460008373ffffffffffffffffffffffffffffffffffffffff1673ffffffffffffffffffffffffffffffffffffffff168152602001908152602001600020549050919050565b60056020528060005260406000206000915090505481565b69d3c21bcecceda100000081565b60036020528060005260406000206000915090505481565b60007fffffffffffffffffffffffffffffffffffffffffffffffffffffffffffffffff8211156105a8576040517f08c379a00000000000000000000000000000000000000000000000000000000081526004018080602001828103825260198152602001807f56616c756520657863656564732075696e7420626f756e64730000000000000081525060200191505060405180910390fd5b819050919050565b6000600560003373ffffffffffffffffffffffffffffffffffffffff1673ffffffffffffffffffffffffffffffffffffffff168152602001908152602001600020549050600081101561066b576040517f08c379a000000000000000000000000000000000000000000000000000000000815260040180806020018281038252601a8152602001807f204e6f20757365722066756e647320696e20436f696e466c697000000000000081525060200191505060405180910390fd5b8060008054906101000a900473ffffffffffffffffffffffffffffffffffffffff1673ffffffffffffffffffffffffffffffffffffffff166370a08231306040518263ffffffff1660e01b8152600401808273ffffffffffffffffffffffffffffffffffffffff16815260200191505060206040518083038186803b1580156106f357600080fd5b505afa158015610707573d6000803e3d6000fd5b505050506040513d602081101561071d57600080fd5b810190808051906020019092919050505010156107a2576040517f08c379a00000000000000000000000000000000000000000000000000000000081526004018080602001828103825260168152602001807f20436f696e466c6970206f7574206f662066756e64730000000000000000000081525060200191505060405180910390fd5b60008054906101000a900473ffffffffffffffffffffffffffffffffffffffff1673ffffffffffffffffffffffffffffffffffffffff166323b872dd3033846040518463ffffffff1660e01b8152600401808473ffffffffffffffffffffffffffffffffffffffff1681526020018373ffffffffffffffffffffffffffffffffffffffff1681526020018281526020019350505050602060405180830381600087803b15801561085157600080fd5b505af1158015610865573d6000803e3d6000fd5b505050506040513d602081101561087b57600080fd5b8101908080519060200190929190505050506000600560003373ffffffffffffffffffffffffffffffffffffffff1673ffffffffffffffffffffffffffffffffffffffff1681526020019081526020016000208190555050565b655af3107a4000811015610951576040517f08c379a00000000000000000000000000000000000000000000000000000000081526004018080602001828103825260188152602001807f496e63726561736520796f75722042657420416d6f756e74000000000000000081525060200191505060405180910390fd5b69d3c21bcecceda10000008111156109d1576040517f08c379a00000000000000000000000000000000000000000000000000000000081526004018080602001828103825260188152602001807f446563726561736520796f75722042657420416d6f756e74000000000000000081525060200191505060405180910390fd5b60008060009054906101000a900473ffffffffffffffffffffffffffffffffffffffff1673ffffffffffffffffffffffffffffffffffffffff1663dd62ed3e33306040518363ffffffff1660e01b8152600401808373ffffffffffffffffffffffffffffffffffffffff1681526020018273ffffffffffffffffffffffffffffffffffffffff1681526020019250505060206040518083038186803b158015610a7957600080fd5b505afa158015610a8d573d6000803e3d6000fd5b505050506040513d6020811015610aa357600080fd5b8101908080519060200190929190505050905081811015610b0f576040517f08c379a000000000000000000000000000000000000000000000000000000000815260040180806020018281038252602281526020018061121d6022913960400191505060405180910390fd5b8160008054906101000a900473ffffffffffffffffffffffffffffffffffffffff1673ffffffffffffffffffffffffffffffffffffffff166370a08231336040518263ffffffff1660e01b8152600401808273ffffffffffffffffffffffffffffffffffffffff16815260200191505060206040518083038186803b158015610b9757600080fd5b505afa158015610bab573d6000803e3d6000fd5b505050506040513d6020811015610bc157600080fd5b81019080805190602001909291905050501015610c46576040517f08c379a00000000000000000000000000000000000000000000000000000000081526004018080602001828103825260208152602001807f496e63726561736520796f7572204151554120746f6b656e2062616c616e636581525060200191505060405180910390fd5b60008054906101000a900473ffffffffffffffffffffffffffffffffffffffff1673ffffffffffffffffffffffffffffffffffffffff166323b872dd3330856040518463ffffffff1660e01b8152600401808473ffffffffffffffffffffffffffffffffffffffff1681526020018373ffffffffffffffffffffffffffffffffffffffff1681526020018281526020019350505050602060405180830381600087803b158015610cf557600080fd5b505af1158015610d09573d6000803e3d6000fd5b505050506040513d6020811015610d1f57600080fd5b81019080805190602001909291905050505060008290506000610d4061109a565b9050600060028281610d4e57fe5b0690506000811415610e515760028302600560003373ffffffffffffffffffffffffffffffffffffffff1673ffffffffffffffffffffffffffffffffffffffff168152602001908152602001600020600082825401925050819055506001600260003373ffffffffffffffffffffffffffffffffffffffff1673ffffffffffffffffffffffffffffffffffffffff168152602001908152602001600020600082825401925050819055507feb61c58815eb0e383ea8d536bb7690cb331c0772f963b493c24b1f430573fd073360028502604051808373ffffffffffffffffffffffffffffffffffffffff1681526020018281526020019250505060405180910390a15b6001811415610f4b5782600560003373ffffffffffffffffffffffffffffffffffffffff1673ffffffffffffffffffffffffffffffffffffffff168152602001908152602001600020600082825403925050819055506001600360003373ffffffffffffffffffffffffffffffffffffffff1673ffffffffffffffffffffffffffffffffffffffff168152602001908152602001600020600082825401925050819055507f826c293e1ce4be6ece38004313ced811e77cb633dea7b1671a69f83f7edc04a33384604051808373ffffffffffffffffffffffffffffffffffffffff1681526020018281526020019250505060405180910390a15b6001600460003373ffffffffffffffffffffffffffffffffffffffff1673ffffffffffffffffffffffffffffffffffffffff168152602001908152602001600020600082825401925050819055505050505050565b655af3107a400081565b60026020528060005260406000206000915090505481565b6000600260003373ffffffffffffffffffffffffffffffffffffffff1673ffffffffffffffffffffffffffffffffffffffff16815260200190815260200160002054905090565b6000600360003373ffffffffffffffffffffffffffffffffffffffff1673ffffffffffffffffffffffffffffffffffffffff16815260200190815260200160002054905090565b60008054906101000a900473ffffffffffffffffffffffffffffffffffffffff1681565b600160009054906101000a900473ffffffffffffffffffffffffffffffffffffffff1681565b60006060600160009054906101000a900473ffffffffffffffffffffffffffffffffffffffff1673ffffffffffffffffffffffffffffffffffffffff16636e68fc0a6101f460016040518363ffffffff1660e01b8152600401808381526020018281526020019250505060006040518083038186803b15801561111c57600080fd5b505afa158015611130573d6000803e3d6000fd5b505050506040513d6000823e3d601f19601f82011682018060405250602081101561115a57600080fd5b810190808051604051939291908464010000000082111561117a57600080fd5b8382019150602082018581111561119057600080fd5b82518660208202830111640100000000821117156111ad57600080fd5b8083526020830192505050908051906020019060200280838360005b838110156111e45780820151818401526020810190506111c9565b50505050905001604052505050905060006112128260008151811061120557fe5b6020026020010151610510565b905080925050509056fe496e63726561736520796f7572204151554120746f6b656e20616c6c6f77616e6365a2646970667358221220bdc5e637b98433a660254945cccbea9eb70b960bb8a78ccb28b90184820902bb64736f6c634300060c0033",
  "devdoc": {
    "kind": "dev",
    "methods": {},
    "version": 1
  },
  "userdoc": {
    "kind": "user",
    "methods": {},
    "version": 1
  },
  "storageLayout": {
    "storage": [
      {
        "astId": 967,
        "contract": "contracts/game/coinflip6.sol:coinflip6",
        "label": "PayToken",
        "offset": 0,
        "slot": "0",
        "type": "t_address"
      },
      {
        "astId": 969,
        "contract": "contracts/game/coinflip6.sol:coinflip6",
        "label": "RNG",
        "offset": 0,
        "slot": "1",
        "type": "t_contract(IRandomNumberGenerator)954"
      },
      {
        "astId": 979,
        "contract": "contracts/game/coinflip6.sol:coinflip6",
        "label": "totalWins",
        "offset": 0,
        "slot": "2",
        "type": "t_mapping(t_address,t_uint256)"
      },
      {
        "astId": 983,
        "contract": "contracts/game/coinflip6.sol:coinflip6",
        "label": "totalLoss",
        "offset": 0,
        "slot": "3",
        "type": "t_mapping(t_address,t_uint256)"
      },
      {
        "astId": 987,
        "contract": "contracts/game/coinflip6.sol:coinflip6",
        "label": "totalBets",
        "offset": 0,
        "slot": "4",
        "type": "t_mapping(t_address,t_uint256)"
      },
      {
        "astId": 991,
        "contract": "contracts/game/coinflip6.sol:coinflip6",
        "label": "balances",
        "offset": 0,
        "slot": "5",
        "type": "t_mapping(t_address,t_uint256)"
      }
    ],
    "types": {
      "t_address": {
        "encoding": "inplace",
        "label": "address",
        "numberOfBytes": "20"
      },
      "t_contract(IRandomNumberGenerator)954": {
        "encoding": "inplace",
        "label": "contract IRandomNumberGenerator",
        "numberOfBytes": "20"
      },
      "t_mapping(t_address,t_uint256)": {
        "encoding": "mapping",
        "key": "t_address",
        "label": "mapping(address => uint256)",
        "numberOfBytes": "32",
        "value": "t_uint256"
      },
      "t_uint256": {
        "encoding": "inplace",
        "label": "uint256",
        "numberOfBytes": "32"
      }
    }
  }
}