{
  "address": "0xc44A8E52A835c77932eB8747bD7E979c27308660",
  "abi": [
    {
      "inputs": [
        {
          "internalType": "contract IERC20",
          "name": "_paytoken",
          "type": "address"
        }
      ],
      "stateMutability": "nonpayable",
      "type": "constructor"
    },
    {
      "anonymous": false,
      "inputs": [
        {
          "indexed": true,
          "internalType": "address",
          "name": "nft",
          "type": "address"
        },
        {
          "indexed": true,
          "internalType": "uint256",
          "name": "id",
          "type": "uint256"
        },
        {
          "indexed": true,
          "internalType": "address",
          "name": "buyer",
          "type": "address"
        },
        {
          "indexed": false,
          "internalType": "uint256",
          "name": "price",
          "type": "uint256"
        }
      ],
      "name": "Bought",
      "type": "event"
    },
    {
      "anonymous": false,
      "inputs": [
        {
          "indexed": true,
          "internalType": "address",
          "name": "nft",
          "type": "address"
        },
        {
          "indexed": true,
          "internalType": "uint256",
          "name": "id",
          "type": "uint256"
        },
        {
          "indexed": true,
          "internalType": "address",
          "name": "seller",
          "type": "address"
        },
        {
          "indexed": false,
          "internalType": "uint256",
          "name": "price",
          "type": "uint256"
        }
      ],
      "name": "Canceled",
      "type": "event"
    },
    {
      "anonymous": false,
      "inputs": [
        {
          "indexed": true,
          "internalType": "address",
          "name": "nft",
          "type": "address"
        },
        {
          "indexed": true,
          "internalType": "uint256",
          "name": "id",
          "type": "uint256"
        },
        {
          "indexed": true,
          "internalType": "address",
          "name": "seller",
          "type": "address"
        },
        {
          "indexed": false,
          "internalType": "uint256",
          "name": "price",
          "type": "uint256"
        }
      ],
      "name": "Listed",
      "type": "event"
    },
    {
      "inputs": [
        {
          "internalType": "uint256",
          "name": "itemCounter",
          "type": "uint256"
        },
        {
          "internalType": "uint256",
          "name": "amount",
          "type": "uint256"
        }
      ],
      "name": "buy",
      "outputs": [],
      "stateMutability": "nonpayable",
      "type": "function"
    },
    {
      "inputs": [
        {
          "internalType": "uint256",
          "name": "itemCounter",
          "type": "uint256"
        }
      ],
      "name": "cancelListing",
      "outputs": [],
      "stateMutability": "nonpayable",
      "type": "function"
    },
    {
      "inputs": [],
      "name": "getListedItems",
      "outputs": [
        {
          "components": [
            {
              "internalType": "bool",
              "name": "listing",
              "type": "bool"
            },
            {
              "internalType": "address",
              "name": "nft",
              "type": "address"
            },
            {
              "internalType": "uint256",
              "name": "id",
              "type": "uint256"
            },
            {
              "internalType": "uint256",
              "name": "price",
              "type": "uint256"
            },
            {
              "internalType": "address",
              "name": "seller",
              "type": "address"
            }
          ],
          "internalType": "struct MarketPlace.Item[]",
          "name": "",
          "type": "tuple[]"
        }
      ],
      "stateMutability": "view",
      "type": "function"
    },
    {
      "inputs": [
        {
          "internalType": "uint256",
          "name": "",
          "type": "uint256"
        }
      ],
      "name": "items",
      "outputs": [
        {
          "internalType": "bool",
          "name": "listing",
          "type": "bool"
        },
        {
          "internalType": "address",
          "name": "nft",
          "type": "address"
        },
        {
          "internalType": "uint256",
          "name": "id",
          "type": "uint256"
        },
        {
          "internalType": "uint256",
          "name": "price",
          "type": "uint256"
        },
        {
          "internalType": "address",
          "name": "seller",
          "type": "address"
        }
      ],
      "stateMutability": "view",
      "type": "function"
    },
    {
      "inputs": [
        {
          "internalType": "address",
          "name": "nft",
          "type": "address"
        },
        {
          "internalType": "uint256",
          "name": "id",
          "type": "uint256"
        },
        {
          "internalType": "uint256",
          "name": "price",
          "type": "uint256"
        }
      ],
      "name": "listNFT",
      "outputs": [],
      "stateMutability": "nonpayable",
      "type": "function"
    },
    {
      "inputs": [],
      "name": "payToken",
      "outputs": [
        {
          "internalType": "contract IERC20",
          "name": "",
          "type": "address"
        }
      ],
      "stateMutability": "view",
      "type": "function"
    }
  ],
  "transactionHash": "0xe2352107a9925511e09bee3647e21b654eca87b4a3c22952e0a9365789f5c292",
  "args": [
    "0xD2Aaa00700000000000000000000000000000000"
  ],
  "numDeployments": 1,
  "solcInputHash": "3ccb23f06046935238652904e189573e",
  "bytecode": "0x60a060405234801561001057600080fd5b50604051610a69380380610a6983398101604081905261002f91610044565b60601b6001600160601b031916608052610072565b600060208284031215610055578081fd5b81516001600160a01b038116811461006b578182fd5b9392505050565b60805160601c6109d56100946000398061027a528061061852506109d56000f3fe608060405234801561001057600080fd5b50600436106100625760003560e01c8063305a67a81461006757806396336b301461007c578063ad05f1b41461009a578063bfb231d2146100ad578063caf50690146100d1578063d6febde8146100e6575b600080fd5b61007a6100753660046107fa565b6100f9565b005b610084610278565b6040516100919190610917565b60405180910390f35b61007a6100a8366004610794565b61029c565b6100c06100bb3660046107fa565b6103f3565b6040516100919594939291906108e9565b6100d9610430565b6040516100919190610864565b61007a6100f4366004610812565b610533565b610101610766565b50600081815260016020818152604092839020835160a081018552815460ff8116151582526001600160a01b03610100909104811693820193909352928101549383019390935260028301546060830152600390920154909116608082018190523314801561016e575080515b6101935760405162461bcd60e51b815260040161018a9061094c565b60405180910390fd5b6020810151608082015160408084015190516323b872dd60e01b81526001600160a01b03909316926323b872dd926101cf923092600401610840565b600060405180830381600087803b1580156101e957600080fd5b505af11580156101fd573d6000803e3d6000fd5b505050600083815260016020908152604091829020805460ff1916815560808501518584015192860151606087015194519295506001600160a01b03918216949116917f2ff8b81337247f078e3328344d0e0daa0d916c8353c3c64bb3c7924e31ebfaf59161026b91610996565b60405180910390a4505050565b7f000000000000000000000000000000000000000000000000000000000000000081565b60006102a86000610759565b90506102b4600061075d565b6040516323b872dd60e01b81526001600160a01b038516906323b872dd906102e490339030908890600401610840565b600060405180830381600087803b1580156102fe57600080fd5b505af1158015610312573d6000803e3d6000fd5b50506040805160a08101825260018082526001600160a01b0389811660208085018281528587018c8152606087018c8152336080890181815260008e815295899052948a902098518954945160ff1990951690151517610100600160a81b031916610100948816949094029390931788559051958701959095559351600286015551600390940180546001600160a01b031916949092169390931790559151919350869250907f8b06cda60618abf2b2d07227f9dd63ec6349ca3269ce0eb18d49122a48362ad8906103e5908790610996565b60405180910390a450505050565b6001602081905260009182526040909120805491810154600282015460039092015460ff8416936001600160a01b03610100909104811693911685565b6060600061043e6000610759565b905060608167ffffffffffffffff8111801561045957600080fd5b5060405190808252806020026020018201604052801561049357816020015b610480610766565b8152602001906001900390816104785790505b50905060005b8281101561052c576104a9610766565b50600081815260016020818152604092839020835160a081018552815460ff811615801583526101009091046001600160a01b039081169483019490945293820154948101949094526002810154606085015260030154166080830152610523578083838151811061051757fe5b60200260200101819052505b50600101610499565b5091505090565b61053b610766565b50600082815260016020818152604092839020835160a081018552815460ff8116151582526001600160a01b036101009091048116938201849052938201549481019490945260028101546060850152600301549091166080830152158015906105a3575080515b6105bf5760405162461bcd60e51b815260040161018a9061092b565b80606001518210156105e35760405162461bcd60e51b815260040161018a9061096d565b60008381526001602052604090819020805460ff19168155608083015191516323b872dd60e01b815290916001600160a01b037f000000000000000000000000000000000000000000000000000000000000000016916323b872dd91610650913391908890600401610840565b602060405180830381600087803b15801561066a57600080fd5b505af115801561067e573d6000803e3d6000fd5b505050506040513d601f19601f820116820180604052508101906106a291906107d3565b5081602001516001600160a01b03166323b872dd303385604001516040518463ffffffff1660e01b81526004016106db93929190610840565b600060405180830381600087803b1580156106f557600080fd5b505af1158015610709573d6000803e3d6000fd5b50505050336001600160a01b0316826040015183602001516001600160a01b03167fbe39bcb4b5645ce3e99dc49d095db856201db6af874a4d39b96cd1ed4a06a11d866040516103e59190610996565b5490565b80546001019055565b6040805160a08101825260008082526020820181905291810182905260608101829052608081019190915290565b6000806000606084860312156107a8578283fd5b83356001600160a01b03811681146107be578384fd5b95602085013595506040909401359392505050565b6000602082840312156107e4578081fd5b815180151581146107f3578182fd5b9392505050565b60006020828403121561080b578081fd5b5035919050565b60008060408385031215610824578182fd5b50508035926020909101359150565b6001600160a01b03169052565b6001600160a01b039384168152919092166020820152604081019190915260600190565b602080825282518282018190526000919060409081850190868401855b828110156108dc578151805115158552868101516108a188870182610833565b50808601518587015260608082015190860152608090810151906108c781870183610833565b505060a0939093019290850190600101610881565b5091979650505050505050565b94151585526001600160a01b0393841660208601526040850192909252606084015216608082015260a00190565b6001600160a01b0391909116815260200190565b602080825260079082015266085b1a5cdd195960ca1b604082015260600190565b60208082526007908201526610b9b2b63632b960c91b604082015260600190565b6020808252600f908201526e1a5b9d985d9b1a5908185b5bdd5b9d608a1b604082015260600190565b9081526020019056fea26469706673582212202a3db210cba14e4f700511f1df4ba012da743a7e8363cabda2f24a97cb712f5964736f6c634300060c0033",
  "devdoc": {
    "kind": "dev",
    "methods": {},
    "version": 1
  },
  "userdoc": {
    "kind": "user",
    "methods": {},
    "version": 1
  },
  "storageLayout": {
    "storage": [
      {
        "astId": 9748,
        "contract": "contracts/MarketPlace.sol:MarketPlace",
        "label": "_itemCounter",
        "offset": 0,
        "slot": "0",
        "type": "t_struct(Counter)8125_storage"
      },
      {
        "astId": 9763,
        "contract": "contracts/MarketPlace.sol:MarketPlace",
        "label": "items",
        "offset": 0,
        "slot": "1",
        "type": "t_mapping(t_uint256,t_struct(Item)9759_storage)"
      }
    ],
    "types": {
      "t_address": {
        "encoding": "inplace",
        "label": "address",
        "numberOfBytes": "20"
      },
      "t_bool": {
        "encoding": "inplace",
        "label": "bool",
        "numberOfBytes": "1"
      },
      "t_mapping(t_uint256,t_struct(Item)9759_storage)": {
        "encoding": "mapping",
        "key": "t_uint256",
        "label": "mapping(uint256 => struct MarketPlace.Item)",
        "numberOfBytes": "32",
        "value": "t_struct(Item)9759_storage"
      },
      "t_struct(Counter)8125_storage": {
        "encoding": "inplace",
        "label": "struct Counters.Counter",
        "members": [
          {
            "astId": 8124,
            "contract": "contracts/MarketPlace.sol:MarketPlace",
            "label": "_value",
            "offset": 0,
            "slot": "0",
            "type": "t_uint256"
          }
        ],
        "numberOfBytes": "32"
      },
      "t_struct(Item)9759_storage": {
        "encoding": "inplace",
        "label": "struct MarketPlace.Item",
        "members": [
          {
            "astId": 9750,
            "contract": "contracts/MarketPlace.sol:MarketPlace",
            "label": "listing",
            "offset": 0,
            "slot": "0",
            "type": "t_bool"
          },
          {
            "astId": 9752,
            "contract": "contracts/MarketPlace.sol:MarketPlace",
            "label": "nft",
            "offset": 1,
            "slot": "0",
            "type": "t_address"
          },
          {
            "astId": 9754,
            "contract": "contracts/MarketPlace.sol:MarketPlace",
            "label": "id",
            "offset": 0,
            "slot": "1",
            "type": "t_uint256"
          },
          {
            "astId": 9756,
            "contract": "contracts/MarketPlace.sol:MarketPlace",
            "label": "price",
            "offset": 0,
            "slot": "2",
            "type": "t_uint256"
          },
          {
            "astId": 9758,
            "contract": "contracts/MarketPlace.sol:MarketPlace",
            "label": "seller",
            "offset": 0,
            "slot": "3",
            "type": "t_address"
          }
        ],
        "numberOfBytes": "128"
      },
      "t_uint256": {
        "encoding": "inplace",
        "label": "uint256",
        "numberOfBytes": "32"
      }
    }
  }
}