{
  "address": "0xbB794A1F6C13E604bFEf1b56FbE1e02d1674f4f2",
  "abi": [
    {
      "inputs": [
        {
          "internalType": "address",
          "name": "_router",
          "type": "address"
        },
        {
          "internalType": "address",
          "name": "_factory",
          "type": "address"
        },
        {
          "internalType": "address",
          "name": "_baseToken",
          "type": "address"
        },
        {
          "internalType": "contract INFTAdmin",
          "name": "_nftAdmin",
          "type": "address"
        }
      ],
      "stateMutability": "nonpayable",
      "type": "constructor"
    },
    {
      "anonymous": false,
      "inputs": [
        {
          "indexed": true,
          "internalType": "address",
          "name": "previousOwner",
          "type": "address"
        },
        {
          "indexed": true,
          "internalType": "address",
          "name": "newOwner",
          "type": "address"
        }
      ],
      "name": "OwnershipTransferred",
      "type": "event"
    },
    {
      "inputs": [],
      "name": "AQUA",
      "outputs": [
        {
          "internalType": "address",
          "name": "",
          "type": "address"
        }
      ],
      "stateMutability": "view",
      "type": "function"
    },
    {
      "inputs": [
        {
          "internalType": "address",
          "name": "user",
          "type": "address"
        }
      ],
      "name": "authorized",
      "outputs": [
        {
          "internalType": "bool",
          "name": "",
          "type": "bool"
        }
      ],
      "stateMutability": "view",
      "type": "function"
    },
    {
      "inputs": [],
      "name": "baseBalance",
      "outputs": [
        {
          "internalType": "uint256",
          "name": "",
          "type": "uint256"
        }
      ],
      "stateMutability": "view",
      "type": "function"
    },
    {
      "inputs": [],
      "name": "dEAD",
      "outputs": [
        {
          "internalType": "address",
          "name": "",
          "type": "address"
        }
      ],
      "stateMutability": "view",
      "type": "function"
    },
    {
      "inputs": [
        {
          "internalType": "string",
          "name": "_name",
          "type": "string"
        },
        {
          "internalType": "string",
          "name": "_symbol",
          "type": "string"
        },
        {
          "internalType": "uint8",
          "name": "_decimal",
          "type": "uint8"
        },
        {
          "internalType": "uint256",
          "name": "_totalSupply",
          "type": "uint256"
        }
      ],
      "name": "deployToken",
      "outputs": [
        {
          "internalType": "uint256",
          "name": "amountA",
          "type": "uint256"
        },
        {
          "internalType": "uint256",
          "name": "amountB",
          "type": "uint256"
        },
        {
          "internalType": "uint256",
          "name": "liquidity",
          "type": "uint256"
        }
      ],
      "stateMutability": "nonpayable",
      "type": "function"
    },
    {
      "inputs": [],
      "name": "factory",
      "outputs": [
        {
          "internalType": "contract IUniswapV2Factory",
          "name": "",
          "type": "address"
        }
      ],
      "stateMutability": "view",
      "type": "function"
    },
    {
      "inputs": [],
      "name": "latestToken",
      "outputs": [
        {
          "internalType": "contract SkaleMappedERC20Token",
          "name": "",
          "type": "address"
        }
      ],
      "stateMutability": "view",
      "type": "function"
    },
    {
      "inputs": [],
      "name": "nftAdmin",
      "outputs": [
        {
          "internalType": "contract INFTAdmin",
          "name": "",
          "type": "address"
        }
      ],
      "stateMutability": "view",
      "type": "function"
    },
    {
      "inputs": [],
      "name": "owner",
      "outputs": [
        {
          "internalType": "address",
          "name": "",
          "type": "address"
        }
      ],
      "stateMutability": "view",
      "type": "function"
    },
    {
      "inputs": [],
      "name": "renounceOwnership",
      "outputs": [],
      "stateMutability": "nonpayable",
      "type": "function"
    },
    {
      "inputs": [],
      "name": "router",
      "outputs": [
        {
          "internalType": "contract IUniswapV2Router02",
          "name": "",
          "type": "address"
        }
      ],
      "stateMutability": "view",
      "type": "function"
    },
    {
      "inputs": [],
      "name": "rubyStaker",
      "outputs": [
        {
          "internalType": "address",
          "name": "",
          "type": "address"
        }
      ],
      "stateMutability": "view",
      "type": "function"
    },
    {
      "inputs": [
        {
          "internalType": "uint256",
          "name": "_baseAmount",
          "type": "uint256"
        }
      ],
      "name": "setBaseAmount",
      "outputs": [],
      "stateMutability": "nonpayable",
      "type": "function"
    },
    {
      "inputs": [
        {
          "internalType": "address",
          "name": "newOwner",
          "type": "address"
        }
      ],
      "name": "transferOwnership",
      "outputs": [],
      "stateMutability": "nonpayable",
      "type": "function"
    }
  ],
  "transactionHash": "0xcf7bc7693f9b76b28f3054aebab13b2cc9a6268665d18887445f68973e4e55c4",
  "args": [
    "0x698EA133CBA3BACD4aA6405411d8e8c1726D5f61",
    "0xc318a82CB7c2B0faf7e355BB8F285016956aBF55",
    "0xF7F957D88768126916dAF3C1705D13C291d2B7D8",
    "0x16f6c334443016A82892750a484c2D86B41fa88E"
  ],
  "numDeployments": 2,
  "solcInputHash": "b694245d6cbe58e4b24f584333c41def",
  "bytecode": "0x60806040526000600860006101000a81548173ffffffffffffffffffffffffffffffffffffffff021916908373ffffffffffffffffffffffffffffffffffffffff16021790555034801561005257600080fd5b506040516200457d3803806200457d8339818101604052608081101561007757600080fd5b810190808051906020019092919080519060200190929190805190602001909291908051906020019092919050505060006100b66104fe60201b60201c565b9050806000806101000a81548173ffffffffffffffffffffffffffffffffffffffff021916908373ffffffffffffffffffffffffffffffffffffffff1602179055508073ffffffffffffffffffffffffffffffffffffffff16600073ffffffffffffffffffffffffffffffffffffffff167f8be0079c531659141344cd1fd0a4f28419497f9722a3daafe3b4186f6b6457e060405160405180910390a350600073ffffffffffffffffffffffffffffffffffffffff168373ffffffffffffffffffffffffffffffffffffffff1614156101f7576040517f08c379a00000000000000000000000000000000000000000000000000000000081526004018080602001828103825260208152602001807f44414f5061697243726561746f723a20494e56414c49445f494e49545f41524781525060200191505060405180910390fd5b600073ffffffffffffffffffffffffffffffffffffffff168473ffffffffffffffffffffffffffffffffffffffff16141561029a576040517f08c379a00000000000000000000000000000000000000000000000000000000081526004018080602001828103825260208152602001807f44414f5061697243726561746f723a20494e56414c49445f494e49545f41524781525060200191505060405180910390fd5b600073ffffffffffffffffffffffffffffffffffffffff168273ffffffffffffffffffffffffffffffffffffffff16141561033d576040517f08c379a00000000000000000000000000000000000000000000000000000000081526004018080602001828103825260208152602001807f44414f5061697243726561746f723a20494e56414c49445f494e49545f41524781525060200191505060405180910390fd5b600073ffffffffffffffffffffffffffffffffffffffff168173ffffffffffffffffffffffffffffffffffffffff1614156103e0576040517f08c379a000000000000000000000000000000000000000000000000000000000815260040180806020018281038252601b8152602001807f556e697377617056323a20494e56414c49445f494e49545f415247000000000081525060200191505060405180910390fd5b82600260006101000a81548173ffffffffffffffffffffffffffffffffffffffff021916908373ffffffffffffffffffffffffffffffffffffffff16021790555083600360006101000a81548173ffffffffffffffffffffffffffffffffffffffff021916908373ffffffffffffffffffffffffffffffffffffffff16021790555081600560006101000a81548173ffffffffffffffffffffffffffffffffffffffff021916908373ffffffffffffffffffffffffffffffffffffffff16021790555080600160006101000a81548173ffffffffffffffffffffffffffffffffffffffff021916908373ffffffffffffffffffffffffffffffffffffffff16021790555069010f0cf064dd5920000060078190555050505050610506565b600033905090565b61406780620005166000396000f3fe60806040523480156200001157600080fd5b5060043610620001005760003560e01c80639360bfad1162000099578063c0a0a5a2116200006f578063c0a0a5a21462000461578063c45a01551462000497578063f2fde38b14620004cd578063f887ea4014620005145762000100565b80639360bfad146200023a578063b7d020441462000270578063b918161114620004045762000100565b806363fccba911620000db57806363fccba9146200018c578063715018a614620001c257806385fffcd514620001ce5780638da5cb5b14620002045762000100565b8063224a7c6a146200010557806338bde79114620001365780635e816bfa1462000156575b600080fd5b62000134600480360360208110156200011d57600080fd5b81019080803590602001909291905050506200054a565b005b6200014062000612565b6040518082815260200191505060405180910390f35b6200016062000618565b604051808273ffffffffffffffffffffffffffffffffffffffff16815260200191505060405180910390f35b620001966200063e565b604051808273ffffffffffffffffffffffffffffffffffffffff16815260200191505060405180910390f35b620001cc62000664565b005b620001d8620007d6565b604051808273ffffffffffffffffffffffffffffffffffffffff16815260200191505060405180910390f35b6200020e620007fc565b604051808273ffffffffffffffffffffffffffffffffffffffff16815260200191505060405180910390f35b6200024462000825565b604051808273ffffffffffffffffffffffffffffffffffffffff16815260200191505060405180910390f35b620003e0600480360360808110156200028857600080fd5b8101908080359060200190640100000000811115620002a657600080fd5b820183602082011115620002b957600080fd5b80359060200191846001830284011164010000000083111715620002dc57600080fd5b91908080601f016020809104026020016040519081016040528093929190818152602001838380828437600081840152601f19601f820116905080830192505050505050509192919290803590602001906401000000008111156200034057600080fd5b8201836020820111156200035357600080fd5b803590602001918460018302840111640100000000831117156200037657600080fd5b91908080601f016020809104026020016040519081016040528093929190818152602001838380828437600081840152601f19601f820116905080830192505050505050509192919290803560ff169060200190929190803590602001909291905050506200084b565b60405180848152602001838152602001828152602001935050505060405180910390f35b62000449600480360360208110156200041c57600080fd5b81019080803573ffffffffffffffffffffffffffffffffffffffff169060200190929190505050620010a7565b60405180821515815260200191505060405180910390f35b6200046b620011f5565b604051808273ffffffffffffffffffffffffffffffffffffffff16815260200191505060405180910390f35b620004a16200121b565b604051808273ffffffffffffffffffffffffffffffffffffffff16815260200191505060405180910390f35b6200051260048036036020811015620004e557600080fd5b81019080803573ffffffffffffffffffffffffffffffffffffffff16906020019092919050505062001241565b005b6200051e6200143a565b604051808273ffffffffffffffffffffffffffffffffffffffff16815260200191505060405180910390f35b6200055462001460565b73ffffffffffffffffffffffffffffffffffffffff1662000574620007fc565b73ffffffffffffffffffffffffffffffffffffffff1614620005fe576040517f08c379a00000000000000000000000000000000000000000000000000000000081526004018080602001828103825260208152602001807f4f776e61626c653a2063616c6c6572206973206e6f7420746865206f776e657281525060200191505060405180910390fd5b670de0b6b3a7640000810260078190555050565b60075481565b600860009054906101000a900473ffffffffffffffffffffffffffffffffffffffff1681565b600560009054906101000a900473ffffffffffffffffffffffffffffffffffffffff1681565b6200066e62001460565b73ffffffffffffffffffffffffffffffffffffffff166200068e620007fc565b73ffffffffffffffffffffffffffffffffffffffff161462000718576040517f08c379a00000000000000000000000000000000000000000000000000000000081526004018080602001828103825260208152602001807f4f776e61626c653a2063616c6c6572206973206e6f7420746865206f776e657281525060200191505060405180910390fd5b600073ffffffffffffffffffffffffffffffffffffffff1660008054906101000a900473ffffffffffffffffffffffffffffffffffffffff1673ffffffffffffffffffffffffffffffffffffffff167f8be0079c531659141344cd1fd0a4f28419497f9722a3daafe3b4186f6b6457e060405160405180910390a360008060006101000a81548173ffffffffffffffffffffffffffffffffffffffff021916908373ffffffffffffffffffffffffffffffffffffffff160217905550565b600460009054906101000a900473ffffffffffffffffffffffffffffffffffffffff1681565b60008060009054906101000a900473ffffffffffffffffffffffffffffffffffffffff16905090565b600160009054906101000a900473ffffffffffffffffffffffffffffffffffffffff1681565b60008060006200085b33620010a7565b508686866040516200086d906200183e565b8080602001806020018460ff168152602001838103835286818151815260200191508051906020019080838360005b83811015620008b95780820151818401526020810190506200089c565b50505050905090810190601f168015620008e75780820380516001836020036101000a031916815260200191505b50838103825285818151815260200191508051906020019080838360005b838110156200092257808201518184015260208101905062000905565b50505050905090810190601f168015620009505780820380516001836020036101000a031916815260200191505b5095505050505050604051809103906000f08015801562000975573d6000803e3d6000fd5b50600460006101000a81548173ffffffffffffffffffffffffffffffffffffffff021916908373ffffffffffffffffffffffffffffffffffffffff1602179055506000600460009054906101000a900473ffffffffffffffffffffffffffffffffffffffff16905060008660ff16600a0a86029050600460009054906101000a900473ffffffffffffffffffffffffffffffffffffffff1673ffffffffffffffffffffffffffffffffffffffff166340c10f1930836040518363ffffffff1660e01b8152600401808373ffffffffffffffffffffffffffffffffffffffff16815260200182815260200192505050600060405180830381600087803b15801562000a7e57600080fd5b505af115801562000a93573d6000803e3d6000fd5b505050506000600160009054906101000a900473ffffffffffffffffffffffffffffffffffffffff1673ffffffffffffffffffffffffffffffffffffffff1663ea60f361336040518263ffffffff1660e01b8152600401808273ffffffffffffffffffffffffffffffffffffffff16815260200191505060206040518083038186803b15801562000b2357600080fd5b505afa15801562000b38573d6000803e3d6000fd5b505050506040513d602081101562000b4f57600080fd5b81019080805190602001909291905050509050600060075490506103e882141562000b7d57600754601e0290505b6103e782141562000b9157600754600a0290505b6000600460009054906101000a900473ffffffffffffffffffffffffffffffffffffffff1673ffffffffffffffffffffffffffffffffffffffff166370a08231306040518263ffffffff1660e01b8152600401808273ffffffffffffffffffffffffffffffffffffffff16815260200191505060206040518083038186803b15801562000c1d57600080fd5b505afa15801562000c32573d6000803e3d6000fd5b505050506040513d602081101562000c4957600080fd5b810190808051906020019092919050505090506000829050600260009054906101000a900473ffffffffffffffffffffffffffffffffffffffff1673ffffffffffffffffffffffffffffffffffffffff1663c9c6539687600560009054906101000a900473ffffffffffffffffffffffffffffffffffffffff166040518363ffffffff1660e01b8152600401808373ffffffffffffffffffffffffffffffffffffffff1681526020018273ffffffffffffffffffffffffffffffffffffffff16815260200192505050602060405180830381600087803b15801562000d2d57600080fd5b505af115801562000d42573d6000803e3d6000fd5b505050506040513d602081101562000d5957600080fd5b81019080805190602001909291905050505062000d9a86600360009054906101000a900473ffffffffffffffffffffffffffffffffffffffff168762001468565b62000deb600560009054906101000a900473ffffffffffffffffffffffffffffffffffffffff16600360009054906101000a900473ffffffffffffffffffffffffffffffffffffffff168562001468565b600360009054906101000a900473ffffffffffffffffffffffffffffffffffffffff1673ffffffffffffffffffffffffffffffffffffffff1663e8e3370087600560009054906101000a900473ffffffffffffffffffffffffffffffffffffffff168585600080600860009054906101000a900473ffffffffffffffffffffffffffffffffffffffff16426040518963ffffffff1660e01b8152600401808973ffffffffffffffffffffffffffffffffffffffff1681526020018873ffffffffffffffffffffffffffffffffffffffff1681526020018781526020018681526020018581526020018481526020018373ffffffffffffffffffffffffffffffffffffffff16815260200182815260200198505050505050505050606060405180830381600087803b15801562000f2057600080fd5b505af115801562000f35573d6000803e3d6000fd5b505050506040513d606081101562000f4c57600080fd5b81019080805190602001909291908051906020019092919080519060200190929190505050809950819a50829b505050508882111562000fb85762000fb786600860009054906101000a900473ffffffffffffffffffffffffffffffffffffffff168b850362001653565b5b87811115620010155762001014600560009054906101000a900473ffffffffffffffffffffffffffffffffffffffff16600860009054906101000a900473ffffffffffffffffffffffffffffffffffffffff168a840362001653565b5b6200104586600360009054906101000a900473ffffffffffffffffffffffffffffffffffffffff16600062001468565b62001097600560009054906101000a900473ffffffffffffffffffffffffffffffffffffffff16600360009054906101000a900473ffffffffffffffffffffffffffffffffffffffff16600062001468565b5050505050509450945094915050565b600080600160009054906101000a900473ffffffffffffffffffffffffffffffffffffffff1673ffffffffffffffffffffffffffffffffffffffff1663ea60f361846040518263ffffffff1660e01b8152600401808273ffffffffffffffffffffffffffffffffffffffff16815260200191505060206040518083038186803b1580156200113457600080fd5b505afa15801562001149573d6000803e3d6000fd5b505050506040513d60208110156200116057600080fd5b810190808051906020019092919050505090506103e58111620011eb576040517f08c379a00000000000000000000000000000000000000000000000000000000081526004018080602001828103825260148152602001807f55534552204e4f54204e465420484f4c4445522000000000000000000000000081525060200191505060405180910390fd5b6001915050919050565b600660009054906101000a900473ffffffffffffffffffffffffffffffffffffffff1681565b600260009054906101000a900473ffffffffffffffffffffffffffffffffffffffff1681565b6200124b62001460565b73ffffffffffffffffffffffffffffffffffffffff166200126b620007fc565b73ffffffffffffffffffffffffffffffffffffffff1614620012f5576040517f08c379a00000000000000000000000000000000000000000000000000000000081526004018080602001828103825260208152602001807f4f776e61626c653a2063616c6c6572206973206e6f7420746865206f776e657281525060200191505060405180910390fd5b600073ffffffffffffffffffffffffffffffffffffffff168173ffffffffffffffffffffffffffffffffffffffff1614156200137d576040517f08c379a00000000000000000000000000000000000000000000000000000000081526004018080602001828103825260268152602001806200400c6026913960400191505060405180910390fd5b8073ffffffffffffffffffffffffffffffffffffffff1660008054906101000a900473ffffffffffffffffffffffffffffffffffffffff1673ffffffffffffffffffffffffffffffffffffffff167f8be0079c531659141344cd1fd0a4f28419497f9722a3daafe3b4186f6b6457e060405160405180910390a3806000806101000a81548173ffffffffffffffffffffffffffffffffffffffff021916908373ffffffffffffffffffffffffffffffffffffffff16021790555050565b600360009054906101000a900473ffffffffffffffffffffffffffffffffffffffff1681565b600033905090565b600060608473ffffffffffffffffffffffffffffffffffffffff1663095ea7b38585604051602401808373ffffffffffffffffffffffffffffffffffffffff168152602001828152602001925050506040516020818303038152906040529060e01b6020820180517bffffffffffffffffffffffffffffffffffffffffffffffffffffffff83818316178352505050506040518082805190602001908083835b602083106200152d578051825260208201915060208101905060208303925062001508565b6001836020036101000a0380198251168184511680821785525050505050509050019150506000604051808303816000865af19150503d806000811462001591576040519150601f19603f3d011682016040523d82523d6000602084013e62001596565b606091505b5091509150818015620015d95750600081511480620015d85750808060200190516020811015620015c657600080fd5b81019080805190602001909291905050505b5b6200164c576040517f08c379a000000000000000000000000000000000000000000000000000000000815260040180806020018281038252601e8152602001807f5472616e7366657248656c7065723a20415050524f56455f4641494c4544000081525060200191505060405180910390fd5b5050505050565b600060608473ffffffffffffffffffffffffffffffffffffffff1663a9059cbb8585604051602401808373ffffffffffffffffffffffffffffffffffffffff168152602001828152602001925050506040516020818303038152906040529060e01b6020820180517bffffffffffffffffffffffffffffffffffffffffffffffffffffffff83818316178352505050506040518082805190602001908083835b60208310620017185780518252602082019150602081019050602083039250620016f3565b6001836020036101000a0380198251168184511680821785525050505050509050019150506000604051808303816000865af19150503d80600081146200177c576040519150601f19603f3d011682016040523d82523d6000602084013e62001781565b606091505b5091509150818015620017c45750600081511480620017c35750808060200190516020811015620017b157600080fd5b81019080805190602001909291905050505b5b62001837576040517f08c379a000000000000000000000000000000000000000000000000000000000815260040180806020018281038252601f8152602001807f5472616e7366657248656c7065723a205452414e534645525f4641494c45440081525060200191505060405180910390fd5b5050505050565b6127bf806200184d8339019056fe608060405273d2aaa00500000000000000000000000000000000600760006101000a81548173ffffffffffffffffffffffffffffffffffffffff021916908373ffffffffffffffffffffffffffffffffffffffff1602179055503480156200006657600080fd5b50604051620027bf380380620027bf833981810160405260608110156200008c57600080fd5b8101908080516040519392919084640100000000821115620000ad57600080fd5b83820191506020820185811115620000c457600080fd5b8251866001820283011164010000000082111715620000e257600080fd5b8083526020830192505050908051906020019080838360005b8381101562000118578082015181840152602081019050620000fb565b50505050905090810190601f168015620001465780820380516001836020036101000a031916815260200191505b50604052602001805160405193929190846401000000008211156200016a57600080fd5b838201915060208201858111156200018157600080fd5b82518660018202830111640100000000821117156200019f57600080fd5b8083526020830192505050908051906020019080838360005b83811015620001d5578082015181840152602081019050620001b8565b50505050905090810190601f168015620002035780820380516001836020036101000a031916815260200191505b5060405260200180519060200190929190505050828281600390805190602001906200023192919062000527565b5080600490805190602001906200024a92919062000527565b506012600560006101000a81548160ff021916908360ff16021790555050506200027a816200037260201b60201c565b6200028f6000801b336200039060201b60201c565b620002c17f9f2df0fed2c77648de5860a4cc508cd0818c85b8b8a1ab4ceeef8d981c8956a6336200039060201b60201c565b620003157f9f2df0fed2c77648de5860a4cc508cd0818c85b8b8a1ab4ceeef8d981c8956a6600760009054906101000a900473ffffffffffffffffffffffffffffffffffffffff166200039060201b60201c565b620003697f3c11d16cbaffd01df69ce1c404f6340ee057498f5f00246190ea54220576a848600760009054906101000a900473ffffffffffffffffffffffffffffffffffffffff166200039060201b60201c565b505050620005cd565b80600560006101000a81548160ff021916908360ff16021790555050565b620003a28282620003a660201b60201c565b5050565b620003d581600660008581526020019081526020016000206000016200044a60201b620011ad1790919060201c565b156200044657620003eb6200048260201b60201c565b73ffffffffffffffffffffffffffffffffffffffff168173ffffffffffffffffffffffffffffffffffffffff16837f2f8788117e7eff1d82e926ec794901d17c78024a50270940304540a733656f0d60405160405180910390a45b5050565b60006200047a836000018373ffffffffffffffffffffffffffffffffffffffff1660001b6200048a60201b60201c565b905092915050565b600033905090565b60006200049e83836200050460201b60201c565b620004f9578260000182908060018154018082558091505060019003906000526020600020016000909190919091505582600001805490508360010160008481526020019081526020016000208190555060019050620004fe565b600090505b92915050565b600080836001016000848152602001908152602001600020541415905092915050565b828054600181600116156101000203166002900490600052602060002090601f016020900481019282601f106200056a57805160ff19168380011785556200059b565b828001600101855582156200059b579182015b828111156200059a5782518255916020019190600101906200057d565b5b509050620005aa9190620005ae565b5090565b5b80821115620005c9576000816000905550600101620005af565b5090565b6121e280620005dd6000396000f3fe608060405234801561001057600080fd5b50600436106101585760003560e01c806370a08231116100c3578063a9059cbb1161007c578063a9059cbb14610706578063c509c2621461076a578063ca15c8731461079e578063d5391393146107e0578063d547741f146107fe578063dd62ed3e1461084c57610158565b806370a08231146104e35780639010d07c1461053b57806391d148541461059d57806395d89b4114610601578063a217fddf14610684578063a457c2d7146106a257610158565b80632f2ff15d116101155780632f2ff15d14610346578063313ce5671461039457806336568abe146103b5578063395093511461040357806340c10f191461046757806342966c68146104b557610158565b806306fdde031461015d578063095ea7b3146101e057806318160ddd1461024457806323b872dd14610262578063248a9ca3146102e6578063282c51f314610328575b600080fd5b6101656108c4565b6040518080602001828103825283818151815260200191508051906020019080838360005b838110156101a557808201518184015260208101905061018a565b50505050905090810190601f1680156101d25780820380516001836020036101000a031916815260200191505b509250505060405180910390f35b61022c600480360360408110156101f657600080fd5b81019080803573ffffffffffffffffffffffffffffffffffffffff16906020019092919080359060200190929190505050610966565b60405180821515815260200191505060405180910390f35b61024c610984565b6040518082815260200191505060405180910390f35b6102ce6004803603606081101561027857600080fd5b81019080803573ffffffffffffffffffffffffffffffffffffffff169060200190929190803573ffffffffffffffffffffffffffffffffffffffff1690602001909291908035906020019092919050505061098e565b60405180821515815260200191505060405180910390f35b610312600480360360208110156102fc57600080fd5b8101908080359060200190929190505050610a67565b6040518082815260200191505060405180910390f35b610330610a87565b6040518082815260200191505060405180910390f35b6103926004803603604081101561035c57600080fd5b8101908080359060200190929190803573ffffffffffffffffffffffffffffffffffffffff169060200190929190505050610aab565b005b61039c610b35565b604051808260ff16815260200191505060405180910390f35b610401600480360360408110156103cb57600080fd5b8101908080359060200190929190803573ffffffffffffffffffffffffffffffffffffffff169060200190929190505050610b4c565b005b61044f6004803603604081101561041957600080fd5b81019080803573ffffffffffffffffffffffffffffffffffffffff16906020019092919080359060200190929190505050610be5565b60405180821515815260200191505060405180910390f35b6104b36004803603604081101561047d57600080fd5b81019080803573ffffffffffffffffffffffffffffffffffffffff16906020019092919080359060200190929190505050610c98565b005b6104e1600480360360208110156104cb57600080fd5b8101908080359060200190929190505050610d42565b005b610525600480360360208110156104f957600080fd5b81019080803573ffffffffffffffffffffffffffffffffffffffff169060200190929190505050610deb565b6040518082815260200191505060405180910390f35b6105716004803603604081101561055157600080fd5b810190808035906020019092919080359060200190929190505050610e33565b604051808273ffffffffffffffffffffffffffffffffffffffff16815260200191505060405180910390f35b6105e9600480360360408110156105b357600080fd5b8101908080359060200190929190803573ffffffffffffffffffffffffffffffffffffffff169060200190929190505050610e65565b60405180821515815260200191505060405180910390f35b610609610e97565b6040518080602001828103825283818151815260200191508051906020019080838360005b8381101561064957808201518184015260208101905061062e565b50505050905090810190601f1680156106765780820380516001836020036101000a031916815260200191505b509250505060405180910390f35b61068c610f39565b6040518082815260200191505060405180910390f35b6106ee600480360360408110156106b857600080fd5b81019080803573ffffffffffffffffffffffffffffffffffffffff16906020019092919080359060200190929190505050610f40565b60405180821515815260200191505060405180910390f35b6107526004803603604081101561071c57600080fd5b81019080803573ffffffffffffffffffffffffffffffffffffffff1690602001909291908035906020019092919050505061100d565b60405180821515815260200191505060405180910390f35b61077261102b565b604051808273ffffffffffffffffffffffffffffffffffffffff16815260200191505060405180910390f35b6107ca600480360360208110156107b457600080fd5b8101908080359060200190929190505050611051565b6040518082815260200191505060405180910390f35b6107e8611078565b6040518082815260200191505060405180910390f35b61084a6004803603604081101561081457600080fd5b8101908080359060200190929190803573ffffffffffffffffffffffffffffffffffffffff16906020019092919050505061109c565b005b6108ae6004803603604081101561086257600080fd5b81019080803573ffffffffffffffffffffffffffffffffffffffff169060200190929190803573ffffffffffffffffffffffffffffffffffffffff169060200190929190505050611126565b6040518082815260200191505060405180910390f35b606060038054600181600116156101000203166002900480601f01602080910402602001604051908101604052809291908181526020018280546001816001161561010002031660029004801561095c5780601f106109315761010080835404028352916020019161095c565b820191906000526020600020905b81548152906001019060200180831161093f57829003601f168201915b5050505050905090565b600061097a6109736111dd565b84846111e5565b6001905092915050565b6000600254905090565b600061099b8484846113dc565b610a5c846109a76111dd565b610a57856040518060600160405280602881526020016120c760289139600160008b73ffffffffffffffffffffffffffffffffffffffff1673ffffffffffffffffffffffffffffffffffffffff1681526020019081526020016000206000610a0d6111dd565b73ffffffffffffffffffffffffffffffffffffffff1673ffffffffffffffffffffffffffffffffffffffff1681526020019081526020016000205461169d9092919063ffffffff16565b6111e5565b600190509392505050565b600060066000838152602001908152602001600020600201549050919050565b7f3c11d16cbaffd01df69ce1c404f6340ee057498f5f00246190ea54220576a84881565b610ad26006600084815260200190815260200160002060020154610acd6111dd565b610e65565b610b27576040517f08c379a000000000000000000000000000000000000000000000000000000000815260040180806020018281038252602f815260200180611ffe602f913960400191505060405180910390fd5b610b318282611757565b5050565b6000600560009054906101000a900460ff16905090565b610b546111dd565b73ffffffffffffffffffffffffffffffffffffffff168173ffffffffffffffffffffffffffffffffffffffff1614610bd7576040517f08c379a000000000000000000000000000000000000000000000000000000000815260040180806020018281038252602f81526020018061217e602f913960400191505060405180910390fd5b610be182826117eb565b5050565b6000610c8e610bf26111dd565b84610c898560016000610c036111dd565b73ffffffffffffffffffffffffffffffffffffffff1673ffffffffffffffffffffffffffffffffffffffff16815260200190815260200160002060008973ffffffffffffffffffffffffffffffffffffffff1673ffffffffffffffffffffffffffffffffffffffff1681526020019081526020016000205461187f90919063ffffffff16565b6111e5565b6001905092915050565b610cc27f9f2df0fed2c77648de5860a4cc508cd0818c85b8b8a1ab4ceeef8d981c8956a633610e65565b610d34576040517f08c379a00000000000000000000000000000000000000000000000000000000081526004018080602001828103825260168152602001807f43616c6c6572206973206e6f742061206d696e7465720000000000000000000081525060200191505060405180910390fd5b610d3e8282611907565b5050565b610d6c7f3c11d16cbaffd01df69ce1c404f6340ee057498f5f00246190ea54220576a84833610e65565b610dde576040517f08c379a00000000000000000000000000000000000000000000000000000000081526004018080602001828103825260168152602001807f43616c6c6572206973206e6f742061206275726e65720000000000000000000081525060200191505060405180910390fd5b610de83382611ace565b50565b60008060008373ffffffffffffffffffffffffffffffffffffffff1673ffffffffffffffffffffffffffffffffffffffff168152602001908152602001600020549050919050565b6000610e5d8260066000868152602001908152602001600020600001611c9290919063ffffffff16565b905092915050565b6000610e8f8260066000868152602001908152602001600020600001611cac90919063ffffffff16565b905092915050565b606060048054600181600116156101000203166002900480601f016020809104026020016040519081016040528092919081815260200182805460018160011615610100020316600290048015610f2f5780601f10610f0457610100808354040283529160200191610f2f565b820191906000526020600020905b815481529060010190602001808311610f1257829003601f168201915b5050505050905090565b6000801b81565b6000611003610f4d6111dd565b84610ffe856040518060600160405280602581526020016121596025913960016000610f776111dd565b73ffffffffffffffffffffffffffffffffffffffff1673ffffffffffffffffffffffffffffffffffffffff16815260200190815260200160002060008a73ffffffffffffffffffffffffffffffffffffffff1673ffffffffffffffffffffffffffffffffffffffff1681526020019081526020016000205461169d9092919063ffffffff16565b6111e5565b6001905092915050565b600061102161101a6111dd565b84846113dc565b6001905092915050565b600760009054906101000a900473ffffffffffffffffffffffffffffffffffffffff1681565b600061107160066000848152602001908152602001600020600001611cdc565b9050919050565b7f9f2df0fed2c77648de5860a4cc508cd0818c85b8b8a1ab4ceeef8d981c8956a681565b6110c360066000848152602001908152602001600020600201546110be6111dd565b610e65565b611118576040517f08c379a00000000000000000000000000000000000000000000000000000000081526004018080602001828103825260308152602001806120976030913960400191505060405180910390fd5b61112282826117eb565b5050565b6000600160008473ffffffffffffffffffffffffffffffffffffffff1673ffffffffffffffffffffffffffffffffffffffff16815260200190815260200160002060008373ffffffffffffffffffffffffffffffffffffffff1673ffffffffffffffffffffffffffffffffffffffff16815260200190815260200160002054905092915050565b60006111d5836000018373ffffffffffffffffffffffffffffffffffffffff1660001b611cf1565b905092915050565b600033905090565b600073ffffffffffffffffffffffffffffffffffffffff168373ffffffffffffffffffffffffffffffffffffffff16141561126b576040517f08c379a00000000000000000000000000000000000000000000000000000000081526004018080602001828103825260248152602001806121356024913960400191505060405180910390fd5b600073ffffffffffffffffffffffffffffffffffffffff168273ffffffffffffffffffffffffffffffffffffffff1614156112f1576040517f08c379a000000000000000000000000000000000000000000000000000000000815260040180806020018281038252602281526020018061204f6022913960400191505060405180910390fd5b80600160008573ffffffffffffffffffffffffffffffffffffffff1673ffffffffffffffffffffffffffffffffffffffff16815260200190815260200160002060008473ffffffffffffffffffffffffffffffffffffffff1673ffffffffffffffffffffffffffffffffffffffff168152602001908152602001600020819055508173ffffffffffffffffffffffffffffffffffffffff168373ffffffffffffffffffffffffffffffffffffffff167f8c5be1e5ebec7d5bd14f71427d1e84f3dd0314c0f7b2291e5b200ac8c7c3b925836040518082815260200191505060405180910390a3505050565b600073ffffffffffffffffffffffffffffffffffffffff168373ffffffffffffffffffffffffffffffffffffffff161415611462576040517f08c379a00000000000000000000000000000000000000000000000000000000081526004018080602001828103825260258152602001806121106025913960400191505060405180910390fd5b600073ffffffffffffffffffffffffffffffffffffffff168273ffffffffffffffffffffffffffffffffffffffff1614156114e8576040517f08c379a0000000000000000000000000000000000000000000000000000000008152600401808060200182810382526023815260200180611fdb6023913960400191505060405180910390fd5b6114f3838383611d61565b61155e81604051806060016040528060268152602001612071602691396000808773ffffffffffffffffffffffffffffffffffffffff1673ffffffffffffffffffffffffffffffffffffffff1681526020019081526020016000205461169d9092919063ffffffff16565b6000808573ffffffffffffffffffffffffffffffffffffffff1673ffffffffffffffffffffffffffffffffffffffff168152602001908152602001600020819055506115f1816000808573ffffffffffffffffffffffffffffffffffffffff1673ffffffffffffffffffffffffffffffffffffffff1681526020019081526020016000205461187f90919063ffffffff16565b6000808473ffffffffffffffffffffffffffffffffffffffff1673ffffffffffffffffffffffffffffffffffffffff168152602001908152602001600020819055508173ffffffffffffffffffffffffffffffffffffffff168373ffffffffffffffffffffffffffffffffffffffff167fddf252ad1be2c89b69c2b068fc378daa952ba7f163c4a11628f55a4df523b3ef836040518082815260200191505060405180910390a3505050565b600083831115829061174a576040517f08c379a00000000000000000000000000000000000000000000000000000000081526004018080602001828103825283818151815260200191508051906020019080838360005b8381101561170f5780820151818401526020810190506116f4565b50505050905090810190601f16801561173c5780820380516001836020036101000a031916815260200191505b509250505060405180910390fd5b5082840390509392505050565b61177f81600660008581526020019081526020016000206000016111ad90919063ffffffff16565b156117e75761178c6111dd565b73ffffffffffffffffffffffffffffffffffffffff168173ffffffffffffffffffffffffffffffffffffffff16837f2f8788117e7eff1d82e926ec794901d17c78024a50270940304540a733656f0d60405160405180910390a45b5050565b6118138160066000858152602001908152602001600020600001611d6690919063ffffffff16565b1561187b576118206111dd565b73ffffffffffffffffffffffffffffffffffffffff168173ffffffffffffffffffffffffffffffffffffffff16837ff6391f5c32d9c69d2a47ea670b442974b53935d1edc7fd64eb21e047a839171b60405160405180910390a45b5050565b6000808284019050838110156118fd576040517f08c379a000000000000000000000000000000000000000000000000000000000815260040180806020018281038252601b8152602001807f536166654d6174683a206164646974696f6e206f766572666c6f77000000000081525060200191505060405180910390fd5b8091505092915050565b600073ffffffffffffffffffffffffffffffffffffffff168273ffffffffffffffffffffffffffffffffffffffff1614156119aa576040517f08c379a000000000000000000000000000000000000000000000000000000000815260040180806020018281038252601f8152602001807f45524332303a206d696e7420746f20746865207a65726f20616464726573730081525060200191505060405180910390fd5b6119b660008383611d61565b6119cb8160025461187f90919063ffffffff16565b600281905550611a22816000808573ffffffffffffffffffffffffffffffffffffffff1673ffffffffffffffffffffffffffffffffffffffff1681526020019081526020016000205461187f90919063ffffffff16565b6000808473ffffffffffffffffffffffffffffffffffffffff1673ffffffffffffffffffffffffffffffffffffffff168152602001908152602001600020819055508173ffffffffffffffffffffffffffffffffffffffff16600073ffffffffffffffffffffffffffffffffffffffff167fddf252ad1be2c89b69c2b068fc378daa952ba7f163c4a11628f55a4df523b3ef836040518082815260200191505060405180910390a35050565b600073ffffffffffffffffffffffffffffffffffffffff168273ffffffffffffffffffffffffffffffffffffffff161415611b54576040517f08c379a00000000000000000000000000000000000000000000000000000000081526004018080602001828103825260218152602001806120ef6021913960400191505060405180910390fd5b611b6082600083611d61565b611bcb8160405180606001604052806022815260200161202d602291396000808673ffffffffffffffffffffffffffffffffffffffff1673ffffffffffffffffffffffffffffffffffffffff1681526020019081526020016000205461169d9092919063ffffffff16565b6000808473ffffffffffffffffffffffffffffffffffffffff1673ffffffffffffffffffffffffffffffffffffffff16815260200190815260200160002081905550611c2281600254611d9690919063ffffffff16565b600281905550600073ffffffffffffffffffffffffffffffffffffffff168273ffffffffffffffffffffffffffffffffffffffff167fddf252ad1be2c89b69c2b068fc378daa952ba7f163c4a11628f55a4df523b3ef836040518082815260200191505060405180910390a35050565b6000611ca18360000183611e19565b60001c905092915050565b6000611cd4836000018373ffffffffffffffffffffffffffffffffffffffff1660001b611e9c565b905092915050565b6000611cea82600001611ebf565b9050919050565b6000611cfd8383611e9c565b611d56578260000182908060018154018082558091505060019003906000526020600020016000909190919091505582600001805490508360010160008481526020019081526020016000208190555060019050611d5b565b600090505b92915050565b505050565b6000611d8e836000018373ffffffffffffffffffffffffffffffffffffffff1660001b611ed0565b905092915050565b600082821115611e0e576040517f08c379a000000000000000000000000000000000000000000000000000000000815260040180806020018281038252601e8152602001807f536166654d6174683a207375627472616374696f6e206f766572666c6f77000081525060200191505060405180910390fd5b818303905092915050565b600081836000018054905011611e7a576040517f08c379a0000000000000000000000000000000000000000000000000000000008152600401808060200182810382526022815260200180611fb96022913960400191505060405180910390fd5b826000018281548110611e8957fe5b9060005260206000200154905092915050565b600080836001016000848152602001908152602001600020541415905092915050565b600081600001805490509050919050565b60008083600101600084815260200190815260200160002054905060008114611fac5760006001820390506000600186600001805490500390506000866000018281548110611f1b57fe5b9060005260206000200154905080876000018481548110611f3857fe5b9060005260206000200181905550600183018760010160008381526020019081526020016000208190555086600001805480611f7057fe5b60019003818190600052602060002001600090559055866001016000878152602001908152602001600020600090556001945050505050611fb2565b60009150505b9291505056fe456e756d657261626c655365743a20696e646578206f7574206f6620626f756e647345524332303a207472616e7366657220746f20746865207a65726f2061646472657373416363657373436f6e74726f6c3a2073656e646572206d75737420626520616e2061646d696e20746f206772616e7445524332303a206275726e20616d6f756e7420657863656564732062616c616e636545524332303a20617070726f766520746f20746865207a65726f206164647265737345524332303a207472616e7366657220616d6f756e7420657863656564732062616c616e6365416363657373436f6e74726f6c3a2073656e646572206d75737420626520616e2061646d696e20746f207265766f6b6545524332303a207472616e7366657220616d6f756e74206578636565647320616c6c6f77616e636545524332303a206275726e2066726f6d20746865207a65726f206164647265737345524332303a207472616e736665722066726f6d20746865207a65726f206164647265737345524332303a20617070726f76652066726f6d20746865207a65726f206164647265737345524332303a2064656372656173656420616c6c6f77616e63652062656c6f77207a65726f416363657373436f6e74726f6c3a2063616e206f6e6c792072656e6f756e636520726f6c657320666f722073656c66a264697066735822122082a2a14a778cf54b0572c7aa250473705f23f29c0788e19b0daf28e98cd9e73464736f6c634300060c00334f776e61626c653a206e6577206f776e657220697320746865207a65726f2061646472657373a2646970667358221220f651dcbc8d9048b6f8fdf9282d746a6625cca383d305357a7ffdfe003a1f08f564736f6c634300060c0033",
  "devdoc": {
    "kind": "dev",
    "methods": {
      "owner()": {
        "details": "Returns the address of the current owner."
      },
      "renounceOwnership()": {
        "details": "Leaves the contract without owner. It will not be possible to call `onlyOwner` functions anymore. Can only be called by the current owner. NOTE: Renouncing ownership will leave the contract without an owner, thereby removing any functionality that is only available to the owner."
      },
      "transferOwnership(address)": {
        "details": "Transfers ownership of the contract to a new account (`newOwner`). Can only be called by the current owner."
      }
    },
    "version": 1
  },
  "userdoc": {
    "kind": "user",
    "methods": {},
    "version": 1
  },
  "storageLayout": {
    "storage": [
      {
        "astId": 3523,
        "contract": "contracts/MemeCreator.sol:MemeCreator",
        "label": "_owner",
        "offset": 0,
        "slot": "0",
        "type": "t_address"
      },
      {
        "astId": 8859,
        "contract": "contracts/MemeCreator.sol:MemeCreator",
        "label": "nftAdmin",
        "offset": 0,
        "slot": "1",
        "type": "t_contract(INFTAdmin)21443"
      },
      {
        "astId": 8861,
        "contract": "contracts/MemeCreator.sol:MemeCreator",
        "label": "factory",
        "offset": 0,
        "slot": "2",
        "type": "t_contract(IUniswapV2Factory)13286"
      },
      {
        "astId": 8863,
        "contract": "contracts/MemeCreator.sol:MemeCreator",
        "label": "router",
        "offset": 0,
        "slot": "3",
        "type": "t_contract(IUniswapV2Router02)13754"
      },
      {
        "astId": 8865,
        "contract": "contracts/MemeCreator.sol:MemeCreator",
        "label": "latestToken",
        "offset": 0,
        "slot": "4",
        "type": "t_contract(SkaleMappedERC20Token)26521"
      },
      {
        "astId": 8867,
        "contract": "contracts/MemeCreator.sol:MemeCreator",
        "label": "AQUA",
        "offset": 0,
        "slot": "5",
        "type": "t_address"
      },
      {
        "astId": 8869,
        "contract": "contracts/MemeCreator.sol:MemeCreator",
        "label": "rubyStaker",
        "offset": 0,
        "slot": "6",
        "type": "t_address"
      },
      {
        "astId": 8871,
        "contract": "contracts/MemeCreator.sol:MemeCreator",
        "label": "baseBalance",
        "offset": 0,
        "slot": "7",
        "type": "t_uint256"
      },
      {
        "astId": 8874,
        "contract": "contracts/MemeCreator.sol:MemeCreator",
        "label": "dEAD",
        "offset": 0,
        "slot": "8",
        "type": "t_address"
      }
    ],
    "types": {
      "t_address": {
        "encoding": "inplace",
        "label": "address",
        "numberOfBytes": "20"
      },
      "t_contract(INFTAdmin)21443": {
        "encoding": "inplace",
        "label": "contract INFTAdmin",
        "numberOfBytes": "20"
      },
      "t_contract(IUniswapV2Factory)13286": {
        "encoding": "inplace",
        "label": "contract IUniswapV2Factory",
        "numberOfBytes": "20"
      },
      "t_contract(IUniswapV2Router02)13754": {
        "encoding": "inplace",
        "label": "contract IUniswapV2Router02",
        "numberOfBytes": "20"
      },
      "t_contract(SkaleMappedERC20Token)26521": {
        "encoding": "inplace",
        "label": "contract SkaleMappedERC20Token",
        "numberOfBytes": "20"
      },
      "t_uint256": {
        "encoding": "inplace",
        "label": "uint256",
        "numberOfBytes": "32"
      }
    }
  }
}