{
  "address": "0x15cd1F35B92C88EE33426Ab84eAe5600ea6C7632",
  "abi": [
    {
      "anonymous": false,
      "inputs": [
        {
          "indexed": true,
          "internalType": "address",
          "name": "bronzeSwapNFT",
          "type": "address"
        }
      ],
      "name": "BronzeSwapNFTSet",
      "type": "event"
    },
    {
      "anonymous": false,
      "inputs": [
        {
          "indexed": true,
          "internalType": "address",
          "name": "goldSwapNFT",
          "type": "address"
        }
      ],
      "name": "GoldSwapNFTSet",
      "type": "event"
    },
    {
      "anonymous": false,
      "inputs": [
        {
          "indexed": true,
          "internalType": "address",
          "name": "minter",
          "type": "address"
        },
        {
          "indexed": false,
          "internalType": "bool",
          "name": "allowance",
          "type": "bool"
        }
      ],
      "name": "MinterSet",
      "type": "event"
    },
    {
      "anonymous": false,
      "inputs": [
        {
          "indexed": true,
          "internalType": "address",
          "name": "previousOwner",
          "type": "address"
        },
        {
          "indexed": true,
          "internalType": "address",
          "name": "newOwner",
          "type": "address"
        }
      ],
      "name": "OwnershipTransferred",
      "type": "event"
    },
    {
      "anonymous": false,
      "inputs": [
        {
          "indexed": true,
          "internalType": "address",
          "name": "profileNFT",
          "type": "address"
        }
      ],
      "name": "ProfileNFTset",
      "type": "event"
    },
    {
      "anonymous": false,
      "inputs": [
        {
          "indexed": true,
          "internalType": "address",
          "name": "silverSwapNFT",
          "type": "address"
        }
      ],
      "name": "SilverSwapNFTSet",
      "type": "event"
    },
    {
      "inputs": [],
      "name": "bronzeSwapNFT",
      "outputs": [
        {
          "internalType": "address",
          "name": "",
          "type": "address"
        }
      ],
      "stateMutability": "view",
      "type": "function"
    },
    {
      "inputs": [
        {
          "internalType": "address",
          "name": "user",
          "type": "address"
        }
      ],
      "name": "calculateAmmSwapFeeDeduction",
      "outputs": [
        {
          "internalType": "uint256",
          "name": "feeMultiplier",
          "type": "uint256"
        }
      ],
      "stateMutability": "view",
      "type": "function"
    },
    {
      "inputs": [],
      "name": "goldSwapNFT",
      "outputs": [
        {
          "internalType": "address",
          "name": "",
          "type": "address"
        }
      ],
      "stateMutability": "view",
      "type": "function"
    },
    {
      "inputs": [
        {
          "internalType": "address",
          "name": "_owner",
          "type": "address"
        },
        {
          "internalType": "address",
          "name": "_profileNFT",
          "type": "address"
        },
        {
          "internalType": "address",
          "name": "_freeSwapNFT",
          "type": "address"
        }
      ],
      "name": "initialize",
      "outputs": [],
      "stateMutability": "nonpayable",
      "type": "function"
    },
    {
      "inputs": [
        {
          "internalType": "address",
          "name": "user",
          "type": "address"
        }
      ],
      "name": "mintProfileNFT",
      "outputs": [],
      "stateMutability": "nonpayable",
      "type": "function"
    },
    {
      "inputs": [
        {
          "internalType": "address",
          "name": "",
          "type": "address"
        }
      ],
      "name": "minters",
      "outputs": [
        {
          "internalType": "bool",
          "name": "",
          "type": "bool"
        }
      ],
      "stateMutability": "view",
      "type": "function"
    },
    {
      "inputs": [],
      "name": "owner",
      "outputs": [
        {
          "internalType": "address",
          "name": "",
          "type": "address"
        }
      ],
      "stateMutability": "view",
      "type": "function"
    },
    {
      "inputs": [],
      "name": "profileNFT",
      "outputs": [
        {
          "internalType": "address",
          "name": "",
          "type": "address"
        }
      ],
      "stateMutability": "view",
      "type": "function"
    },
    {
      "inputs": [],
      "name": "renounceOwnership",
      "outputs": [],
      "stateMutability": "nonpayable",
      "type": "function"
    },
    {
      "inputs": [
        {
          "internalType": "address",
          "name": "newSwapNFT",
          "type": "address"
        }
      ],
      "name": "setBronzeSwapNFT",
      "outputs": [],
      "stateMutability": "nonpayable",
      "type": "function"
    },
    {
      "inputs": [
        {
          "internalType": "address",
          "name": "newSwapNFT",
          "type": "address"
        }
      ],
      "name": "setGoldSwapNFT",
      "outputs": [],
      "stateMutability": "nonpayable",
      "type": "function"
    },
    {
      "inputs": [
        {
          "internalType": "address",
          "name": "minter",
          "type": "address"
        },
        {
          "internalType": "bool",
          "name": "allowance",
          "type": "bool"
        }
      ],
      "name": "setMinter",
      "outputs": [],
      "stateMutability": "nonpayable",
      "type": "function"
    },
    {
      "inputs": [
        {
          "internalType": "address",
          "name": "newProfileNFT",
          "type": "address"
        }
      ],
      "name": "setProfileNFT",
      "outputs": [],
      "stateMutability": "nonpayable",
      "type": "function"
    },
    {
      "inputs": [
        {
          "internalType": "address",
          "name": "newSwapNFT",
          "type": "address"
        }
      ],
      "name": "setSilverSwapNFT",
      "outputs": [],
      "stateMutability": "nonpayable",
      "type": "function"
    },
    {
      "inputs": [],
      "name": "silverSwapNFT",
      "outputs": [
        {
          "internalType": "address",
          "name": "",
          "type": "address"
        }
      ],
      "stateMutability": "view",
      "type": "function"
    },
    {
      "inputs": [
        {
          "internalType": "address",
          "name": "newOwner",
          "type": "address"
        }
      ],
      "name": "transferOwnership",
      "outputs": [],
      "stateMutability": "nonpayable",
      "type": "function"
    }
  ],
  "transactionHash": "0xb2fd9265c0a097bcc2730adffaca5363c2db347d9f725e545a2ad36fe8c46407",
  "args": [],
  "numDeployments": 1,
  "solcInputHash": "cb4331541ab5238ad473f989e05e8a01",
  "bytecode": "0x608060405234801561001057600080fd5b50611259806100206000396000f3fe608060405234801561001057600080fd5b50600436106100ff5760003560e01c8063ac18cadf11610097578063e453846f11610066578063e453846f14610250578063ea60f36114610276578063f2fde38b146102ae578063f46eccc4146102d4576100ff565b8063ac18cadf146101bc578063c0c53b8b146101e2578063c4dd07eb1461021a578063cf456ae714610222576100ff565b8063715018a6116100d3578063715018a61461017e578063818ef019146101865780638da5cb5b146101ac578063949675e9146101b4576100ff565b80620bfb6914610104578063066d986e1461012c578063377795351461015257806343ab5aa714610176575b600080fd5b61012a6004803603602081101561011a57600080fd5b50356001600160a01b031661030e565b005b61012a6004803603602081101561014257600080fd5b50356001600160a01b0316610415565b61015a610522565b604080516001600160a01b039092168252519081900360200190f35b61015a610531565b61012a610540565b61012a6004803603602081101561019c57600080fd5b50356001600160a01b03166105ec565b61015a610737565b61015a610746565b61012a600480360360208110156101d257600080fd5b50356001600160a01b0316610755565b61012a600480360360608110156101f857600080fd5b506001600160a01b03813581169160208101358216916040909101351661085c565b61015a610a53565b61012a6004803603604081101561023857600080fd5b506001600160a01b0381351690602001351515610a62565b61012a6004803603602081101561026657600080fd5b50356001600160a01b0316610b7f565b61029c6004803603602081101561028c57600080fd5b50356001600160a01b0316610c86565b60408051918252519081900360200190f35b61012a600480360360208110156102c457600080fd5b50356001600160a01b0316610e32565b6102fa600480360360208110156102ea57600080fd5b50356001600160a01b0316610f35565b604080519115158252519081900360200190f35b610316610f4a565b6001600160a01b0316610327610737565b6001600160a01b031614610370576040805162461bcd60e51b81526020600482018190526024820152600080516020611204833981519152604482015290519081900360640190fd5b6001600160a01b0381166103cb576040805162461bcd60e51b815260206004820152601f60248201527f4e465441646d696e3a20496e76616c696420667265652073776170204e465400604482015290519081900360640190fd5b606780546001600160a01b0319166001600160a01b0383169081179091556040517f46c944d6f312b25fcf8b407471aeb5a1b3a12e2e7d91ba7a02552f16b2ac84f690600090a250565b61041d610f4a565b6001600160a01b031661042e610737565b6001600160a01b031614610477576040805162461bcd60e51b81526020600482018190526024820152600080516020611204833981519152604482015290519081900360640190fd5b6001600160a01b0381166104d2576040805162461bcd60e51b815260206004820152601d60248201527f4e465441646d696e3a20496e76616c69642070726f66696c65204e4654000000604482015290519081900360640190fd5b606580546001600160a01b0319166001600160a01b0383811691909117918290556040519116907f8d7ad78b449acc087a1901f7d223472f8addbcde946899f94176042e72df0a4d90600090a250565b6066546001600160a01b031681565b6068546001600160a01b031681565b610548610f4a565b6001600160a01b0316610559610737565b6001600160a01b0316146105a2576040805162461bcd60e51b81526020600482018190526024820152600080516020611204833981519152604482015290519081900360640190fd5b6033546040516000916001600160a01b0316907f8be0079c531659141344cd1fd0a4f28419497f9722a3daafe3b4186f6b6457e0908390a3603380546001600160a01b0319169055565b3360009081526069602052604090205460ff16610650576040805162461bcd60e51b815260206004820152601d60248201527f4e465441646d696e3a204d696e74696e67206e6f7420616c6c6f776564000000604482015290519081900360640190fd5b606554604080516370a0823160e01b81526001600160a01b038481166004830152915191909216916370a08231916024808301926020929190829003018186803b15801561069d57600080fd5b505afa1580156106b1573d6000803e3d6000fd5b505050506040513d60208110156106c757600080fd5b505161073457606554604080516335313c2160e11b81526001600160a01b03848116600483015291519190921691636a62784291602480830192600092919082900301818387803b15801561071b57600080fd5b505af115801561072f573d6000803e3d6000fd5b505050505b50565b6033546001600160a01b031690565b6065546001600160a01b031681565b61075d610f4a565b6001600160a01b031661076e610737565b6001600160a01b0316146107b7576040805162461bcd60e51b81526020600482018190526024820152600080516020611204833981519152604482015290519081900360640190fd5b6001600160a01b038116610812576040805162461bcd60e51b815260206004820152601f60248201527f4e465441646d696e3a20496e76616c696420667265652073776170204e465400604482015290519081900360640190fd5b606680546001600160a01b0319166001600160a01b0383169081179091556040517f024dc33304750f058024d56dfc9eaf376d174773e5c24aff463172e04f8babcc90600090a250565b600054610100900460ff16806108755750610875610f4e565b80610883575060005460ff16155b6108be5760405162461bcd60e51b815260040180806020018281038252602e8152602001806111d6602e913960400191505060405180910390fd5b600054610100900460ff161580156108e9576000805460ff1961ff0019909116610100171660011790555b6001600160a01b038416610944576040805162461bcd60e51b815260206004820152601f60248201527f4e465441646d696e3a20496e76616c6964206f776e6572206164647265737300604482015290519081900360640190fd5b6001600160a01b03831661099f576040805162461bcd60e51b815260206004820152601e60248201527f4e465441646d696e3a20496e76616c6964202070726f66696c65204e46540000604482015290519081900360640190fd5b6001600160a01b0382166109fa576040805162461bcd60e51b815260206004820181905260248201527f4e465441646d696e3a20496e76616c69642020667265652073776170204e4654604482015290519081900360640190fd5b606580546001600160a01b038086166001600160a01b0319928316179092556068805492851692909116919091179055610a32610f5f565b610a3b84610e32565b8015610a4d576000805461ff00191690555b50505050565b6067546001600160a01b031681565b610a6a610f4a565b6001600160a01b0316610a7b610737565b6001600160a01b031614610ac4576040805162461bcd60e51b81526020600482018190526024820152600080516020611204833981519152604482015290519081900360640190fd5b6001600160a01b038216610b1f576040805162461bcd60e51b815260206004820181905260248201527f4e465441646d696e3a20496e76616c6964206d696e7465722061646472657373604482015290519081900360640190fd5b6001600160a01b038216600081815260696020908152604091829020805460ff1916851515908117909155825190815291517f583b0aa0e528532caf4b907c11d7a8158a122fe2a6fb80cd9b09776ebea8d92d9281900390910190a25050565b610b87610f4a565b6001600160a01b0316610b98610737565b6001600160a01b031614610be1576040805162461bcd60e51b81526020600482018190526024820152600080516020611204833981519152604482015290519081900360640190fd5b6001600160a01b038116610c3c576040805162461bcd60e51b815260206004820152601f60248201527f4e465441646d696e3a20496e76616c696420667265652073776170204e465400604482015290519081900360640190fd5b606880546001600160a01b0319166001600160a01b0383169081179091556040517fca4e097ec55b47b463f1ca67811064d4210e15e1c9a432fe81e89b33db167fdc90600090a250565b606854604080516370a0823160e01b81526001600160a01b0384811660048301529151600093849316916370a08231916024808301926020929190829003018186803b158015610cd557600080fd5b505afa158015610ce9573d6000803e3d6000fd5b505050506040513d6020811015610cff57600080fd5b50511115610d1057506103e8610e2d565b606754604080516370a0823160e01b81526001600160a01b038581166004830152915160009392909216916370a0823191602480820192602092909190829003018186803b158015610d6157600080fd5b505afa158015610d75573d6000803e3d6000fd5b505050506040513d6020811015610d8b57600080fd5b50511115610d9c57506103e7610e2d565b606654604080516370a0823160e01b81526001600160a01b038581166004830152915160009392909216916370a0823191602480820192602092909190829003018186803b158015610ded57600080fd5b505afa158015610e01573d6000803e3d6000fd5b505050506040513d6020811015610e1757600080fd5b50511115610e2857506103e6610e2d565b506103e55b919050565b610e3a610f4a565b6001600160a01b0316610e4b610737565b6001600160a01b031614610e94576040805162461bcd60e51b81526020600482018190526024820152600080516020611204833981519152604482015290519081900360640190fd5b6001600160a01b038116610ed95760405162461bcd60e51b81526004018080602001828103825260268152602001806111b06026913960400191505060405180910390fd5b6033546040516001600160a01b038084169216907f8be0079c531659141344cd1fd0a4f28419497f9722a3daafe3b4186f6b6457e090600090a3603380546001600160a01b0319166001600160a01b0392909216919091179055565b60696020526000908152604090205460ff1681565b3390565b6000610f5930611010565b15905090565b600054610100900460ff1680610f785750610f78610f4e565b80610f86575060005460ff16155b610fc15760405162461bcd60e51b815260040180806020018281038252602e8152602001806111d6602e913960400191505060405180910390fd5b600054610100900460ff16158015610fec576000805460ff1961ff0019909116610100171660011790555b610ff4611016565b610ffc6110b6565b8015610734576000805461ff001916905550565b3b151590565b600054610100900460ff168061102f575061102f610f4e565b8061103d575060005460ff16155b6110785760405162461bcd60e51b815260040180806020018281038252602e8152602001806111d6602e913960400191505060405180910390fd5b600054610100900460ff16158015610ffc576000805460ff1961ff0019909116610100171660011790558015610734576000805461ff001916905550565b600054610100900460ff16806110cf57506110cf610f4e565b806110dd575060005460ff16155b6111185760405162461bcd60e51b815260040180806020018281038252602e8152602001806111d6602e913960400191505060405180910390fd5b600054610100900460ff16158015611143576000805460ff1961ff0019909116610100171660011790555b600061114d610f4a565b603380546001600160a01b0319166001600160a01b038316908117909155604051919250906000907f8be0079c531659141344cd1fd0a4f28419497f9722a3daafe3b4186f6b6457e0908290a3508015610734576000805461ff00191690555056fe4f776e61626c653a206e6577206f776e657220697320746865207a65726f2061646472657373496e697469616c697a61626c653a20636f6e747261637420697320616c726561647920696e697469616c697a65644f776e61626c653a2063616c6c6572206973206e6f7420746865206f776e6572a2646970667358221220696dc6bfbad5961fa6363641c2cdccadebd02f536633d528363289aa8889814e64736f6c634300060c0033",
  "devdoc": {
    "kind": "dev",
    "methods": {
      "calculateAmmSwapFeeDeduction(address)": {
        "params": {
          "user": "- the address of the user"
        }
      },
      "owner()": {
        "details": "Returns the address of the current owner."
      },
      "renounceOwnership()": {
        "details": "Leaves the contract without owner. It will not be possible to call `onlyOwner` functions anymore. Can only be called by the current owner. NOTE: Renouncing ownership will leave the contract without an owner, thereby removing any functionality that is only available to the owner."
      },
      "transferOwnership(address)": {
        "details": "Transfers ownership of the contract to a new account (`newOwner`). Can only be called by the current owner."
      }
    },
    "version": 1
  },
  "userdoc": {
    "kind": "user",
    "methods": {
      "calculateAmmSwapFeeDeduction(address)": {
        "notice": "Calculate the fee multiplier that needs to be applied in the  AMM swapping calculations. The fee deduction is dependent on the `user`. The fee multiplier is determined by internal rules. Currently the  single rule is having balance of at least 1 at the ProfileNFT contract. In the future more rules should be added. The `feeMultiplier` is in range of [997, 1000]:  - 997 means fee of 30 basis points - 1000 means fee of 0 basis points"
      }
    },
    "version": 1
  },
  "storageLayout": {
    "storage": [
      {
        "astId": 705,
        "contract": "contracts/NFTAdmin.sol:NFTAdmin",
        "label": "_initialized",
        "offset": 0,
        "slot": "0",
        "type": "t_bool"
      },
      {
        "astId": 708,
        "contract": "contracts/NFTAdmin.sol:NFTAdmin",
        "label": "_initializing",
        "offset": 1,
        "slot": "0",
        "type": "t_bool"
      },
      {
        "astId": 2910,
        "contract": "contracts/NFTAdmin.sol:NFTAdmin",
        "label": "__gap",
        "offset": 0,
        "slot": "1",
        "type": "t_array(t_uint256)50_storage"
      },
      {
        "astId": 136,
        "contract": "contracts/NFTAdmin.sol:NFTAdmin",
        "label": "_owner",
        "offset": 0,
        "slot": "51",
        "type": "t_address"
      },
      {
        "astId": 255,
        "contract": "contracts/NFTAdmin.sol:NFTAdmin",
        "label": "__gap",
        "offset": 0,
        "slot": "52",
        "type": "t_array(t_uint256)49_storage"
      },
      {
        "astId": 9750,
        "contract": "contracts/NFTAdmin.sol:NFTAdmin",
        "label": "profileNFT",
        "offset": 0,
        "slot": "101",
        "type": "t_address"
      },
      {
        "astId": 9753,
        "contract": "contracts/NFTAdmin.sol:NFTAdmin",
        "label": "bronzeSwapNFT",
        "offset": 0,
        "slot": "102",
        "type": "t_address"
      },
      {
        "astId": 9756,
        "contract": "contracts/NFTAdmin.sol:NFTAdmin",
        "label": "silverSwapNFT",
        "offset": 0,
        "slot": "103",
        "type": "t_address"
      },
      {
        "astId": 9759,
        "contract": "contracts/NFTAdmin.sol:NFTAdmin",
        "label": "goldSwapNFT",
        "offset": 0,
        "slot": "104",
        "type": "t_address"
      },
      {
        "astId": 9764,
        "contract": "contracts/NFTAdmin.sol:NFTAdmin",
        "label": "minters",
        "offset": 0,
        "slot": "105",
        "type": "t_mapping(t_address,t_bool)"
      }
    ],
    "types": {
      "t_address": {
        "encoding": "inplace",
        "label": "address",
        "numberOfBytes": "20"
      },
      "t_array(t_uint256)49_storage": {
        "base": "t_uint256",
        "encoding": "inplace",
        "label": "uint256[49]",
        "numberOfBytes": "1568"
      },
      "t_array(t_uint256)50_storage": {
        "base": "t_uint256",
        "encoding": "inplace",
        "label": "uint256[50]",
        "numberOfBytes": "1600"
      },
      "t_bool": {
        "encoding": "inplace",
        "label": "bool",
        "numberOfBytes": "1"
      },
      "t_mapping(t_address,t_bool)": {
        "encoding": "mapping",
        "key": "t_address",
        "label": "mapping(address => bool)",
        "numberOfBytes": "32",
        "value": "t_bool"
      },
      "t_uint256": {
        "encoding": "inplace",
        "label": "uint256",
        "numberOfBytes": "32"
      }
    }
  }
}