{
  "address": "0x10D375a0dF8AAa1DC92158Dae5276A909106b819",
  "abi": [
    {
      "inputs": [
        {
          "internalType": "address",
          "name": "beneficiary",
          "type": "address"
        },
        {
          "internalType": "uint256",
          "name": "start",
          "type": "uint256"
        },
        {
          "internalType": "uint256",
          "name": "cliffDuration",
          "type": "uint256"
        },
        {
          "internalType": "uint256",
          "name": "duration",
          "type": "uint256"
        },
        {
          "internalType": "bool",
          "name": "revocable",
          "type": "bool"
        }
      ],
      "stateMutability": "nonpayable",
      "type": "constructor"
    },
    {
      "anonymous": false,
      "inputs": [
        {
          "indexed": false,
          "internalType": "address",
          "name": "newBeneficiary",
          "type": "address"
        }
      ],
      "name": "BeneficiaryTransfer",
      "type": "event"
    },
    {
      "anonymous": false,
      "inputs": [
        {
          "indexed": true,
          "internalType": "address",
          "name": "previousOwner",
          "type": "address"
        },
        {
          "indexed": true,
          "internalType": "address",
          "name": "newOwner",
          "type": "address"
        }
      ],
      "name": "OwnershipTransferred",
      "type": "event"
    },
    {
      "anonymous": false,
      "inputs": [
        {
          "indexed": false,
          "internalType": "address",
          "name": "token",
          "type": "address"
        }
      ],
      "name": "TokenVestingRevoked",
      "type": "event"
    },
    {
      "anonymous": false,
      "inputs": [
        {
          "indexed": false,
          "internalType": "address",
          "name": "token",
          "type": "address"
        },
        {
          "indexed": false,
          "internalType": "uint256",
          "name": "amount",
          "type": "uint256"
        }
      ],
      "name": "TokensReleased",
      "type": "event"
    },
    {
      "inputs": [],
      "name": "beneficiary",
      "outputs": [
        {
          "internalType": "address",
          "name": "",
          "type": "address"
        }
      ],
      "stateMutability": "view",
      "type": "function"
    },
    {
      "inputs": [],
      "name": "cliff",
      "outputs": [
        {
          "internalType": "uint256",
          "name": "",
          "type": "uint256"
        }
      ],
      "stateMutability": "view",
      "type": "function"
    },
    {
      "inputs": [],
      "name": "duration",
      "outputs": [
        {
          "internalType": "uint256",
          "name": "",
          "type": "uint256"
        }
      ],
      "stateMutability": "view",
      "type": "function"
    },
    {
      "inputs": [],
      "name": "owner",
      "outputs": [
        {
          "internalType": "address",
          "name": "",
          "type": "address"
        }
      ],
      "stateMutability": "view",
      "type": "function"
    },
    {
      "inputs": [
        {
          "internalType": "contract IERC20",
          "name": "token",
          "type": "address"
        },
        {
          "internalType": "uint256",
          "name": "amount",
          "type": "uint256"
        }
      ],
      "name": "release",
      "outputs": [],
      "stateMutability": "nonpayable",
      "type": "function"
    },
    {
      "inputs": [
        {
          "internalType": "contract IERC20",
          "name": "token",
          "type": "address"
        }
      ],
      "name": "releaseableAmount",
      "outputs": [
        {
          "internalType": "uint256",
          "name": "",
          "type": "uint256"
        }
      ],
      "stateMutability": "view",
      "type": "function"
    },
    {
      "inputs": [
        {
          "internalType": "address",
          "name": "token",
          "type": "address"
        }
      ],
      "name": "released",
      "outputs": [
        {
          "internalType": "uint256",
          "name": "",
          "type": "uint256"
        }
      ],
      "stateMutability": "view",
      "type": "function"
    },
    {
      "inputs": [],
      "name": "renounceOwnership",
      "outputs": [],
      "stateMutability": "nonpayable",
      "type": "function"
    },
    {
      "inputs": [],
      "name": "revocable",
      "outputs": [
        {
          "internalType": "bool",
          "name": "",
          "type": "bool"
        }
      ],
      "stateMutability": "view",
      "type": "function"
    },
    {
      "inputs": [
        {
          "internalType": "contract IERC20",
          "name": "token",
          "type": "address"
        }
      ],
      "name": "revoke",
      "outputs": [],
      "stateMutability": "nonpayable",
      "type": "function"
    },
    {
      "inputs": [
        {
          "internalType": "address",
          "name": "token",
          "type": "address"
        }
      ],
      "name": "revoked",
      "outputs": [
        {
          "internalType": "bool",
          "name": "",
          "type": "bool"
        }
      ],
      "stateMutability": "view",
      "type": "function"
    },
    {
      "inputs": [],
      "name": "start",
      "outputs": [
        {
          "internalType": "uint256",
          "name": "",
          "type": "uint256"
        }
      ],
      "stateMutability": "view",
      "type": "function"
    },
    {
      "inputs": [
        {
          "internalType": "address",
          "name": "newBeneficiary",
          "type": "address"
        }
      ],
      "name": "transferBeneficiary",
      "outputs": [],
      "stateMutability": "nonpayable",
      "type": "function"
    },
    {
      "inputs": [
        {
          "internalType": "address",
          "name": "newOwner",
          "type": "address"
        }
      ],
      "name": "transferOwnership",
      "outputs": [],
      "stateMutability": "nonpayable",
      "type": "function"
    }
  ],
  "transactionHash": "0xb5954b7f5b426e71cda5571cfc7d45ab05f5bdb3667ab9ad931e2c3e51cef76a",
  "args": [
    "0x77e785e9328403db2acd267c25225eea51f0ea02",
    1658002873,
    0,
    31536000,
    true
  ],
  "numDeployments": 1,
  "solcInputHash": "a3ab114816e9660550a2faa116af628f",
  "bytecode": "0x60806040523480156200001157600080fd5b50604051620013ca380380620013ca833981810160405260a08110156200003757600080fd5b50805160208201516040830151606084015160809094015192939192909190848484848460006200006762000244565b600080546001600160a01b0319166001600160a01b0383169081178255604051929350917f8be0079c531659141344cd1fd0a4f28419497f9722a3daafe3b4186f6b6457e0908290a3506001600160a01b038516620000f85760405162461bcd60e51b815260040180806020018281038252602d81526020018062001372602d913960400191505060405180910390fd5b81831115620001395760405162461bcd60e51b815260040180806020018281038252602b8152602001806200139f602b913960400191505060405180910390fd5b600082116200018f576040805162461bcd60e51b815260206004820152601b60248201527f546f6b656e56657374696e673a206475726174696f6e20697320300000000000604482015290519081900360640190fd5b42620001aa83866200024860201b620009901790919060201c565b11620001e85760405162461bcd60e51b815260040180806020018281038252602f81526020018062001343602f913960400191505060405180910390fd5b600180546001600160a01b0319166001600160a01b0387161790556005805460ff191682151517905560048290556200022e848462000248602090811b6200099017901c565b60025550505060035550620002aa945050505050565b3390565b600082820183811015620002a3576040805162461bcd60e51b815260206004820152601b60248201527f536166654d6174683a206164646974696f6e206f766572666c6f770000000000604482015290519081900360640190fd5b9392505050565b61108980620002ba6000396000f3fe608060405234801561001057600080fd5b50600436106100ea5760003560e01c806374a8f1031161008c5780639852595c116100665780639852595c14610201578063be9a655514610227578063f2fde38b1461022f578063fa01dc0614610255576100ea565b806374a8f103146101b7578063872a7810146101dd5780638da5cb5b146101f9576100ea565b806314bbe21c116100c857806314bbe21c1461013f57806338af3eed1461016557806342e1616114610189578063715018a6146101af576100ea565b80630357371d146100ef5780630fb5a6b41461011d57806313d033c014610137575b600080fd5b61011b6004803603604081101561010557600080fd5b506001600160a01b03813516906020013561027b565b005b6101256103f0565b60408051918252519081900360200190f35b6101256103f6565b61011b6004803603602081101561015557600080fd5b50356001600160a01b03166103fc565b61016d610509565b604080516001600160a01b039092168252519081900360200190f35b6101256004803603602081101561019f57600080fd5b50356001600160a01b0316610518565b61011b61052b565b61011b600480360360208110156101cd57600080fd5b50356001600160a01b03166105e9565b6101e5610825565b604080519115158252519081900360200190f35b61016d61082e565b6101256004803603602081101561021757600080fd5b50356001600160a01b031661083d565b610125610858565b61011b6004803603602081101561024557600080fd5b50356001600160a01b031661085e565b6101e56004803603602081101561026b57600080fd5b50356001600160a01b0316610972565b610283610509565b6001600160a01b0316336001600160a01b0316146102e2576040805162461bcd60e51b81526020600482015260176024820152765665737465723a206e6f742062656e656669636961727960481b604482015290519081900360640190fd5b60006102ed836109f3565b905060008282116102fe5781610300565b825b905060008111610357576040805162461bcd60e51b815260206004820152601f60248201527f546f6b656e56657374696e673a206e6f20746f6b656e73206172652064756500604482015290519081900360640190fd5b6001600160a01b03841660009081526006602052604090205461037a9082610990565b6001600160a01b038086166000818152600660205260409020929092556001546103a692911683610a1f565b604080516001600160a01b03861681526020810183905281517fc7798891864187665ac6dd119286e44ec13f014527aeeb2b8eb3fd413df93179929181900390910190a150505050565b60045490565b60025490565b610404610509565b6001600160a01b0316336001600160a01b031614610463576040805162461bcd60e51b81526020600482015260176024820152765665737465723a206e6f742062656e656669636961727960481b604482015290519081900360640190fd5b6001600160a01b0381166104b5576040805162461bcd60e51b81526020600482015260146024820152735665737465723a207a65726f206164647265737360601b604482015290519081900360640190fd5b600180546001600160a01b0383166001600160a01b0319909116811790915560408051918252517ffab9214af544c5b8ad41022bede7fee288739162649f6f4611ee66312e6788169181900360200190a150565b6001546001600160a01b031690565b6000610523826109f3565b90505b919050565b610533610a76565b6001600160a01b031661054461082e565b6001600160a01b03161461059f576040805162461bcd60e51b815260206004820181905260248201527f4f776e61626c653a2063616c6c6572206973206e6f7420746865206f776e6572604482015290519081900360640190fd5b600080546040516001600160a01b03909116907f8be0079c531659141344cd1fd0a4f28419497f9722a3daafe3b4186f6b6457e0908390a3600080546001600160a01b0319169055565b6105f1610a76565b6001600160a01b031661060261082e565b6001600160a01b03161461065d576040805162461bcd60e51b815260206004820181905260248201527f4f776e61626c653a2063616c6c6572206973206e6f7420746865206f776e6572604482015290519081900360640190fd5b60055460ff166106b4576040805162461bcd60e51b815260206004820152601b60248201527f546f6b656e56657374696e673a2063616e6e6f74207265766f6b650000000000604482015290519081900360640190fd5b6001600160a01b03811660009081526007602052604090205460ff161561070c5760405162461bcd60e51b81526004018080602001828103825260238152602001806110316023913960400191505060405180910390fd5b6000816001600160a01b03166370a08231306040518263ffffffff1660e01b815260040180826001600160a01b0316815260200191505060206040518083038186803b15801561075b57600080fd5b505afa15801561076f573d6000803e3d6000fd5b505050506040513d602081101561078557600080fd5b505190506000610794836109f3565b905060006107a28383610a7a565b6001600160a01b0385166000908152600760205260409020805460ff1916600117905590506107e36107d261082e565b6001600160a01b0386169083610a1f565b604080516001600160a01b038616815290517f39983c6d4d174a7aee564f449d4a5c3c7ac9649d72b7793c56901183996f8af69181900360200190a150505050565b60055460ff1690565b6000546001600160a01b031690565b6001600160a01b031660009081526006602052604090205490565b60035490565b610866610a76565b6001600160a01b031661087761082e565b6001600160a01b0316146108d2576040805162461bcd60e51b815260206004820181905260248201527f4f776e61626c653a2063616c6c6572206973206e6f7420746865206f776e6572604482015290519081900360640190fd5b6001600160a01b0381166109175760405162461bcd60e51b8152600401808060200182810382526026815260200180610f9a6026913960400191505060405180910390fd5b600080546040516001600160a01b03808516939216917f8be0079c531659141344cd1fd0a4f28419497f9722a3daafe3b4186f6b6457e091a3600080546001600160a01b0319166001600160a01b0392909216919091179055565b6001600160a01b031660009081526007602052604090205460ff1690565b6000828201838110156109ea576040805162461bcd60e51b815260206004820152601b60248201527f536166654d6174683a206164646974696f6e206f766572666c6f770000000000604482015290519081900360640190fd5b90505b92915050565b6001600160a01b03811660009081526006602052604081205461052390610a1984610ad7565b90610a7a565b604080516001600160a01b038416602482015260448082018490528251808303909101815260649091019091526020810180516001600160e01b031663a9059cbb60e01b179052610a71908490610c09565b505050565b3390565b600082821115610ad1576040805162461bcd60e51b815260206004820152601e60248201527f536166654d6174683a207375627472616374696f6e206f766572666c6f770000604482015290519081900360640190fd5b50900390565b600080826001600160a01b03166370a08231306040518263ffffffff1660e01b815260040180826001600160a01b0316815260200191505060206040518083038186803b158015610b2757600080fd5b505afa158015610b3b573d6000803e3d6000fd5b505050506040513d6020811015610b5157600080fd5b50516001600160a01b03841660009081526006602052604081205491925090610b7b908390610990565b9050600254421015610b9257600092505050610526565b600454600354610ba191610990565b42101580610bc757506001600160a01b03841660009081526007602052604090205460ff165b15610bd55791506105269050565b610c00600454610bfa610bf360035442610a7a90919063ffffffff16565b8490610cba565b90610d13565b92505050610526565b6060610c5e826040518060400160405280602081526020017f5361666545524332303a206c6f772d6c6576656c2063616c6c206661696c6564815250856001600160a01b0316610d7a9092919063ffffffff16565b805190915015610a7157808060200190516020811015610c7d57600080fd5b5051610a715760405162461bcd60e51b815260040180806020018281038252602a815260200180611007602a913960400191505060405180910390fd5b600082610cc9575060006109ed565b82820282848281610cd657fe5b04146109ea5760405162461bcd60e51b8152600401808060200182810382526021815260200180610fe66021913960400191505060405180910390fd5b6000808211610d69576040805162461bcd60e51b815260206004820152601a60248201527f536166654d6174683a206469766973696f6e206279207a65726f000000000000604482015290519081900360640190fd5b818381610d7257fe5b049392505050565b6060610d898484600085610d93565b90505b9392505050565b606082471015610dd45760405162461bcd60e51b8152600401808060200182810382526026815260200180610fc06026913960400191505060405180910390fd5b610ddd85610eef565b610e2e576040805162461bcd60e51b815260206004820152601d60248201527f416464726573733a2063616c6c20746f206e6f6e2d636f6e7472616374000000604482015290519081900360640190fd5b60006060866001600160a01b031685876040518082805190602001908083835b60208310610e6d5780518252601f199092019160209182019101610e4e565b6001836020036101000a03801982511681845116808217855250505050505090500191505060006040518083038185875af1925050503d8060008114610ecf576040519150601f19603f3d011682016040523d82523d6000602084013e610ed4565b606091505b5091509150610ee4828286610ef5565b979650505050505050565b3b151590565b60608315610f04575081610d8c565b825115610f145782518084602001fd5b8160405162461bcd60e51b81526004018080602001828103825283818151815260200191508051906020019080838360005b83811015610f5e578181015183820152602001610f46565b50505050905090810190601f168015610f8b5780820380516001836020036101000a031916815260200191505b509250505060405180910390fdfe4f776e61626c653a206e6577206f776e657220697320746865207a65726f2061646472657373416464726573733a20696e73756666696369656e742062616c616e636520666f722063616c6c536166654d6174683a206d756c7469706c69636174696f6e206f766572666c6f775361666545524332303a204552433230206f7065726174696f6e20646964206e6f742073756363656564546f6b656e56657374696e673a20746f6b656e20616c7265616479207265766f6b6564a2646970667358221220bd0c08824f9dacb54b86205e4e36f36a1f1fc8d7146fa8c699fcc1623f5691cb64736f6c634300060c0033546f6b656e56657374696e673a2066696e616c2074696d65206973206265666f72652063757272656e742074696d65546f6b656e56657374696e673a2062656e656669636961727920697320746865207a65726f2061646472657373546f6b656e56657374696e673a20636c696666206973206c6f6e676572207468616e206475726174696f6e",
  "devdoc": {
    "kind": "dev",
    "methods": {
      "beneficiary()": {
        "returns": {
          "_0": "the beneficiary of the tokens."
        }
      },
      "cliff()": {
        "returns": {
          "_0": "the cliff time of the token vesting."
        }
      },
      "constructor": {
        "details": "Creates a vesting contract that vests its balance of any ERC20 token to the beneficiary, gradually in a linear fashion until start + duration. By then all of the balance will have vested.",
        "params": {
          "beneficiary": "address of the beneficiary to whom vested tokens are transferred",
          "cliffDuration": "duration in seconds of the cliff in which tokens will begin to vest",
          "duration": "duration in seconds of the period in which the tokens will vest",
          "revocable": "whether the vesting is revocable or not",
          "start": "the time (as Unix time) at which point vesting starts"
        }
      },
      "duration()": {
        "returns": {
          "_0": "the duration of the token vesting."
        }
      },
      "owner()": {
        "details": "Returns the address of the current owner."
      },
      "release(address,uint256)": {
        "params": {
          "amount": "Quantity of token to be released",
          "token": "ERC20 token which is being vested"
        }
      },
      "releaseableAmount(address)": {
        "details": "Returns the amount that has already vested but hasn't been released yet.",
        "params": {
          "token": "ERC20 token which is being vested"
        }
      },
      "released(address)": {
        "returns": {
          "_0": "the amount of the token released."
        }
      },
      "renounceOwnership()": {
        "details": "Leaves the contract without owner. It will not be possible to call `onlyOwner` functions anymore. Can only be called by the current owner. NOTE: Renouncing ownership will leave the contract without an owner, thereby removing any functionality that is only available to the owner."
      },
      "revocable()": {
        "returns": {
          "_0": "true if the vesting is revocable."
        }
      },
      "revoke(address)": {
        "params": {
          "token": "ERC20 token which is being vested"
        }
      },
      "revoked(address)": {
        "returns": {
          "_0": "true if the token is revoked."
        }
      },
      "start()": {
        "returns": {
          "_0": "the start time of the token vesting."
        }
      },
      "transferBeneficiary(address)": {
        "details": "Beneficiary only",
        "params": {
          "newBeneficiary": "New beneficiary address"
        }
      },
      "transferOwnership(address)": {
        "details": "Transfers ownership of the contract to a new account (`newOwner`). Can only be called by the current owner."
      }
    },
    "title": "Vester",
    "version": 1
  },
  "userdoc": {
    "events": {
      "BeneficiaryTransfer(address)": {
        "notice": "Emitted when {beneficiary} transfers beneficiary to \\`newBeneficiary\\`"
      }
    },
    "kind": "user",
    "methods": {
      "release(address,uint256)": {
        "notice": "Transfers the specified \\`amount\\` of vested \\`token\\` to beneficiary. Only callable by beneficiary"
      },
      "releaseableAmount(address)": {
        "notice": "passthrough to internal _releaseableAmount function"
      },
      "revoke(address)": {
        "notice": "Allows the owner to revoke the vesting. Tokens already vested remain in the contract, the rest are returned to the owner."
      },
      "transferBeneficiary(address)": {
        "notice": "Allows the current {beneficiary} to transfer beneficiary status to a new address"
      }
    },
    "notice": "Generic ERC20 token vesting contract with support for beneficiary transfer",
    "version": 1
  },
  "storageLayout": {
    "storage": [
      {
        "astId": 4512,
        "contract": "contracts/vesting/Vester.sol:Vester",
        "label": "_owner",
        "offset": 0,
        "slot": "0",
        "type": "t_address"
      },
      {
        "astId": 30696,
        "contract": "contracts/vesting/Vester.sol:Vester",
        "label": "_beneficiary",
        "offset": 0,
        "slot": "1",
        "type": "t_address"
      },
      {
        "astId": 30698,
        "contract": "contracts/vesting/Vester.sol:Vester",
        "label": "_cliff",
        "offset": 0,
        "slot": "2",
        "type": "t_uint256"
      },
      {
        "astId": 30700,
        "contract": "contracts/vesting/Vester.sol:Vester",
        "label": "_start",
        "offset": 0,
        "slot": "3",
        "type": "t_uint256"
      },
      {
        "astId": 30702,
        "contract": "contracts/vesting/Vester.sol:Vester",
        "label": "_duration",
        "offset": 0,
        "slot": "4",
        "type": "t_uint256"
      },
      {
        "astId": 30704,
        "contract": "contracts/vesting/Vester.sol:Vester",
        "label": "_revocable",
        "offset": 0,
        "slot": "5",
        "type": "t_bool"
      },
      {
        "astId": 30708,
        "contract": "contracts/vesting/Vester.sol:Vester",
        "label": "_released",
        "offset": 0,
        "slot": "6",
        "type": "t_mapping(t_address,t_uint256)"
      },
      {
        "astId": 30712,
        "contract": "contracts/vesting/Vester.sol:Vester",
        "label": "_revoked",
        "offset": 0,
        "slot": "7",
        "type": "t_mapping(t_address,t_bool)"
      }
    ],
    "types": {
      "t_address": {
        "encoding": "inplace",
        "label": "address",
        "numberOfBytes": "20"
      },
      "t_bool": {
        "encoding": "inplace",
        "label": "bool",
        "numberOfBytes": "1"
      },
      "t_mapping(t_address,t_bool)": {
        "encoding": "mapping",
        "key": "t_address",
        "label": "mapping(address => bool)",
        "numberOfBytes": "32",
        "value": "t_bool"
      },
      "t_mapping(t_address,t_uint256)": {
        "encoding": "mapping",
        "key": "t_address",
        "label": "mapping(address => uint256)",
        "numberOfBytes": "32",
        "value": "t_uint256"
      },
      "t_uint256": {
        "encoding": "inplace",
        "label": "uint256",
        "numberOfBytes": "32"
      }
    }
  }
}