{
  "address": "0x8103E54865Bbe8D0D6f502688BB235e62AF08FC0",
  "abi": [
    {
      "inputs": [],
      "stateMutability": "nonpayable",
      "type": "constructor"
    },
    {
      "inputs": [],
      "name": "getRandomNumber",
      "outputs": [
        {
          "internalType": "uint256",
          "name": "",
          "type": "uint256"
        }
      ],
      "stateMutability": "view",
      "type": "function"
    }
  ],
  "transactionHash": "0x0baf50cbaa07dc5396191ac643355218e4f5348f6577bd33987902580a7e7a5b",
  "args": [],
  "numDeployments": 1,
  "solcInputHash": "f85970041e09f0ecdc90b76d3852d68f",
  "bytecode": "0x6080604052348015600f57600080fd5b506101008061001f6000396000f3fe6080604052348015600f57600080fd5b506004361060285760003560e01c8063dbdff2c114602d575b600080fd5b60336049565b6040518082815260200191505060405180910390f35b60008033604051602001808273ffffffffffffffffffffffffffffffffffffffff16815260200191505060405160208183030381529060405280519060200120905060006001430340604051602001808281526020019150506040516020818303038152906040528051906020012090508060001c8260001c18925050509056fea26469706673582212202e7262167bdb79e568f5a5bf8df2231155b90955e55d76b4c633b63fbc107be164736f6c634300060c0033",
  "devdoc": {
    "kind": "dev",
    "methods": {},
    "version": 1
  },
  "userdoc": {
    "kind": "user",
    "methods": {},
    "version": 1
  },
  "storageLayout": {
    "storage": [],
    "types": null
  }
}